:020000040800F2
:100000000000022001480008094700080F470008C7
:10001000154700081B4700082147000800000000A2
:1000200000000000000000000000000051B70008C0
:100030002747000800000000A1B900082594000827
:10004000514800085148000851480008514800082C
:10005000514800085148000851480008514800081C
:10006000514800085148000851480008514800080C
:1000700051480008514800085148000851480008FC
:1000800051480008514800085148000851480008EC
:1000900051480008514800085148000851480008DC
:1000A00051480008514800085148000835470008E9
:1000B00051480008514800084947000851480008C5
:1000C00051480008514800085148000851480008AC
:1000D0005148000851480008514800085D47000891
:1000E000514800085148000851480008514800088C
:1000F000514800085148000851480008514800087C
:10010000514800085148000851480008514800086B
:10011000514800085148000851480008514800085B
:10012000514800085148000851480008514800084B
:10013000514800085148000851480008514800083B
:10014000514800085148000851480008514800082B
:10015000514800085148000851480008514800081B
:10016000514800085148000851480008514800080B
:10017000514800085148000851480008000000009C
:08018000514800085148000835
:1001900010B5054C237833B9044B13B10448AFF3C1
:1001A00000800123237010BDA0010020000000008A
:1001B000E4CF000808B5034B1BB103490348AFF374
:1001C000008008BD00000000A4010020E4CF00086A
:1001D00001F0FF01102A2BDB10F0070F08D010F8F8
:1001E000013B013A8B422DD010F0070F42B3F6D1FC
:1001F000F0B441EA012141EA014122F007047FF015
:1002000000070023F0E80256083C85EA010586EA6B
:10021000010685FA47F5A3FA87F586FA47F6A5FAA7
:1002200087F68EB9EED1F0BC01F0FF0102F00702B3
:1002300032B110F8013B013A83EA010313B1F8D15E
:100240000020704701387047002D06BF354603383F
:10025000073815F0010F07D1013015F4807F02BF78
:10026000013015F4C03F0130F0BC0138704700BFC9
:1002700081F0004102E000BF83F0004330B54FEA57
:1002800041044FEA430594EA050F08BF90EA020FC4
:100290001FBF54EA000C55EA020C7FEA645C7FEA57
:1002A000655C00F0E2804FEA5454D4EB5555B8BF7A
:1002B0006D420CDD2C4480EA020281EA030382EAEB
:1002C000000083EA010180EA020281EA0303362D7D
:1002D00088BF30BD11F0004F4FEA01314FF4801C50
:1002E0004CEA113102D0404261EB410113F0004F62
:1002F0004FEA03334CEA133302D0524263EB430319
:1003000094EA050F00F0A780A4F10104D5F1200EB6
:100310000DDB02FA0EFC22FA05F2801841F1000111
:1003200003FA0EF2801843FA05F359410EE0A5F1E5
:1003300020050EF1200E012A03FA0EFC28BF4CF016
:10034000020C43FA05F3C01851EBE37101F00045CC
:1003500007D54FF0000EDCF1000C7EEB00006EEBD9
:100360000101B1F5801F1BD3B1F5001F0CD3490863
:100370005FEA30004FEA3C0C04F101044FEA4452BA
:1003800012F5800F80F09A80BCF1004F08BF5FEA41
:10039000500C50F1000041EB045141EA050130BD21
:1003A0005FEA4C0C404141EB0101013C28BFB1F533
:1003B000801FE9D291F0000F04BF01460020B1FA7E
:1003C00081F308BF2033A3F10B03B3F120020CDA51
:1003D0000C3208DD02F1140CC2F10C0201FA0CF02F
:1003E00021FA02F10CE002F11402D8BFC2F1200C94
:1003F00001FA02F120FA0CFCDCBF41EA0C0190404A
:10040000E41AA2BF01EB0451294330BD6FEA040492
:100410001F3C1CDA0C340EDC04F11404C4F120027D
:1004200020FA04F001FA02F340EA030021FA04F38F
:1004300045EA030130BDC4F10C04C4F1200220FAE6
:1004400002F001FA04F340EA0300294630BD21FA24
:1004500004F0294630BD94F0000F83F4801306BFEA
:1004600081F480110134013D4EE77FEA645C18BFDE
:100470007FEA655C29D094EA050F08BF90EA020F75
:1004800005D054EA000C04BF1946104630BD91EA6D
:10049000030F1EBF0021002030BD5FEA545C05D170
:1004A0004000494128BF41F0004130BD14F58004AF
:1004B0003CBF01F5801130BD01F0004545F0FE4123
:1004C00041F470014FF0000030BD7FEA645C1ABF58
:1004D000194610467FEA655C1CBF0B46024650EA8F
:1004E000013406BF52EA033591EA030F41F40021BB
:1004F00030BD00BF90F0000F04BF0021704730B541
:100500004FF4806404F132044FF000054FF0000115
:1005100050E700BF90F0000F04BF0021704730B5D6
:100520004FF4806404F1320410F0004548BF4042AB
:100530004FF000013EE700BF42004FEAE2014FEA00
:1005400031014FEA02701FBF12F07F4393F07F4FDB
:1005500081F06051704732F07F4208BF704793F0DE
:100560007F4F04BF41F40021704730B54FF46074F1
:1005700001F0004521F000411CE700BF50EA0102F4
:1005800008BF704730B54FF000050AE050EA01029D
:1005900008BF704730B511F0004502D5404261EB0D
:1005A00041014FF4806404F132045FEA915C3FF44E
:1005B000D8AE4FF003025FEADC0C18BF03325FEAEB
:1005C000DC0C18BF033202EBDC02C2F1200300FA9C
:1005D00003FC20FA02F001FA03FE40EA0E0021FAC1
:1005E00002F11444BDE600BF70B54FF0FF0C4CF4AF
:1005F000E06C1CEA11541DBF1CEA135594EA0C0F61
:1006000095EA0C0F00F0DEF82C4481EA030621EA9B
:100610004C5123EA4C5350EA013518BF52EA0335D6
:1006200041F4801143F4801338D0A0FB02CE4FF088
:100630000005E1FB02E506F00042E0FB03E54FF0B8
:100640000006E1FB03569CF0000F18BF4EF0010EB0
:10065000A4F1FF04B6F5007F64F5407404D25FEAAC
:100660004E0E6D4146EB060642EAC62141EA55515F
:100670004FEAC52040EA5E504FEACE2EB4F1FD0CA1
:1006800088BFBCF5E06F1ED8BEF1004F08BF5FEA1F
:10069000500E50F1000041EB045170BD06F00046D1
:1006A00046EA010140EA020081EA0301B4EB5C047E
:1006B000C2BFD4EB0C0541EA045170BD41F4801176
:1006C0004FF0000E013C00F3AB8014F1360FDEBF9B
:1006D000002001F0004170BDC4F10004203C35DA77
:1006E0000C341BDC04F11404C4F1200500FA05F3FA
:1006F00020FA04F001FA05F240EA020001F000429B
:1007000021F0004110EBD37021FA04F642EB060110
:100710005EEA430E08BF20EAD37070BDC4F10C043A
:10072000C4F1200500FA04F320FA05F001FA04F2FE
:1007300040EA020001F0004110EBD37041F10001EA
:100740005EEA430E08BF20EAD37070BDC4F12005F5
:1007500000FA05F24EEA020E20FA04F301FA05F25D
:1007600043EA020321FA04F001F0004121FA04F205
:1007700020EA020000EBD3705EEA430E08BF20EAD5
:10078000D37070BD94F0000F0FD101F0004640000F
:1007900041EB010111F4801F08BF013CF7D041EA91
:1007A000060195F0000F18BF704703F00046520095
:1007B00043EB030313F4801F08BF013DF7D043EA66
:1007C0000603704794EA0C0F0CEA135518BF95EA1C
:1007D0000C0F0CD050EA410618BF52EA4306D1D1A3
:1007E00081EA030101F000414FF0000070BD50EAC2
:1007F000410606BF1046194652EA430619D094EA4C
:100800000C0F02D150EA013613D195EA0C0F05D135
:1008100052EA03361CBF104619460AD181EA030189
:1008200001F0004141F0FE4141F470014FF0000041
:1008300070BD41F0FE4141F4780170BD70B54FF0DC
:10084000FF0C4CF4E06C1CEA11541DBF1CEA13555C
:1008500094EA0C0F95EA0C0F00F0A7F8A4EB05043E
:1008600081EA030E52EA03354FEA013100F0888035
:100870004FEA03334FF0805545EA131343EA1263FE
:100880004FEA022245EA111545EA10654FEA0026B3
:100890000EF000419D4208BF964244F1FD0404F56C
:1008A000407402D25B084FEA3202B61A65EB0305C8
:1008B0005B084FEA32024FF480104FF4002CB6EB85
:1008C000020E75EB030E22BFB61A754640EA0C0005
:1008D0005B084FEA3202B6EB020E75EB030E22BF45
:1008E000B61A754640EA5C005B084FEA3202B6EB86
:1008F000020E75EB030E22BFB61A754640EA9C0045
:100900005B084FEA3202B6EB020E75EB030E22BF14
:10091000B61A754640EADC0055EA060E18D04FEAD2
:10092000051545EA16754FEA06164FEAC30343EA72
:1009300052734FEAC2025FEA1C1CC0D111F4801F3F
:100940000BD141EA00014FF000004FF0004CB6E738
:1009500011F4801F04BF01430020B4F1FD0C88BFD7
:10096000BCF5E06F3FF6AFAEB5EB030C04BFB6EBE2
:10097000020C5FEA500C50F1000041EB045170BDD5
:100980000EF0004E4EEA113114EB5C04C2BFD4EB02
:100990000C0541EA045170BD41F480114FF0000E86
:1009A000013C90E645EA060E8DE60CEA135594EA02
:1009B0000C0F08BF95EA0C0F3FF43BAF94EA0C0F05
:1009C0000AD150EA01347FF434AF95EA0C0F7FF47A
:1009D00025AF104619462CE795EA0C0F06D152EACE
:1009E00003353FF4FDAE1046194622E750EA4106B2
:1009F00018BF52EA43067FF4C5AE50EA41047FF4C3
:100A00000DAF52EA43057FF4EBAE12E74FF0FF3C27
:100A100006E000BF4FF0010C02E000BF4FF0010CF8
:100A20004DF804CD4FEA410C7FEA6C5C4FEA430C71
:100A300018BF7FEA6C5C1BD001B050EA410C0CBFC0
:100A400052EA430C91EA030F02BF90EA020F002022
:100A5000704710F1000F91EA030F58BF994208BF89
:100A600090422CBFD8176FEAE37040F00100704746
:100A70004FEA410C7FEA6C5C02D150EA013C07D19D
:100A80004FEA430C7FEA6C5CD6D152EA033CD3D0E8
:100A90005DF8040B704700BF8446104662468C46E2
:100AA0001946634600E000BF01B5FFF7B7FF002815
:100AB00048BF10F1000F01BD4DF808EDFFF7F4FF3E
:100AC0000CBF012000205DF808FB00BF4DF808EDC9
:100AD000FFF7EAFF34BF012000205DF808FB00BFEC
:100AE0004DF808EDFFF7E0FF94BF012000205DF80E
:100AF00008FB00BF4DF808EDFFF7CEFF94BF0120C3
:100B000000205DF808FB00BF4DF808EDFFF7C4FFBB
:100B100034BF012000205DF808FB00BF4A0011D25D
:100B200012F5001211D20DD56FF47873B3EB625247
:100B30000ED44FEAC12343F0004343EA505323FA53
:100B400002F070474FF00000704750EA013002D1C8
:100B50004FF0FF3070474FF0000070474FEA4102FE
:100B6000B2F1E04324BFB3F5001CDCF1FE5C0DD90B
:100B700001F0004C4FEAC0024CEA5070B2F1004F55
:100B800040EB830008BF20F00100704711F0804F58
:100B900021D113F13872BCBF01F00040704741F41D
:100BA00080114FEA5252C2F11802C2F1200C10FA21
:100BB0000CF320FA02F018BF40F001004FEAC12305
:100BC0004FEAD32303FA0CFC40EA0C0023FA02F3A9
:100BD0004FEA4303CCE77FEA625307D150EA01337F
:100BE0001EBF4FF0FE4040F44000704701F000404F
:100BF00040F0FE4040F40000704700BF53B94AB9CE
:100C0000002908BF00281CBF4FF0FF314FF0FF3014
:100C100000F070B9ADF1080C6DE904CE00F006F8F3
:100C2000DDF804E0DDE9022304B070472DE9F04768
:100C3000089E0D4604460F46002B4AD18A42944630
:100C400065D9B2FA82F343B102FA03FCC3F1200280
:100C50009F4020FA02F217439C404FEA1C4E1FFAB5
:100C60008CF5B7FBFEF1220C0EFB117742EA07422E
:100C700001FB05F090420AD91CEB020201F1FF379B
:100C800080F01C81904240F2198102396244121AAC
:100C9000A4B2B2FBFEF00EFB102244EA024400FBB9
:100CA00005F5A5420AD91CEB040400F1FF3280F0DF
:100CB0000781A54240F204816444023840EA0140C1
:100CC000641B00211EB1DC400023C6E90043BDE8DF
:100CD000F0878B4208D9002E00F0ED800021C6E994
:100CE00000050846BDE8F087B3FA83F1002949D131
:100CF000AB4202D3824200F2F880841A65EB030211
:100D000001201746002EE2D0C6E90047DFE702B90E
:100D1000FFDEB2FA82F3002B40F090808A1A4FEA8D
:100D20001C471FFA8CFE0121B2FBF7F507FB1520CB
:100D3000220C42EA00420EFB05F0904208D91CEB5F
:100D4000020205F1FF3802D2904200F2CB80454604
:100D5000121AA4B2B2FBF7F007FB102244EA0244D5
:100D60000EFB00FEA64508D91CEB040400F1FF327F
:100D700002D2A64500F2BB801046A4EB0E0440EA66
:100D800005409FE7C1F120078B4022FA07FC4CEA9F
:100D9000030C05FA01F420FA07F3FD404FEA1C4961
:100DA0002343B5FBF9F81FFA8CFE09FB18551C0C00
:100DB00044EA054408FB0EF5A54202FA01F200FAE6
:100DC00001F00BD91CEB040408F1FF3A80F0888095
:100DD000A54240F28580A8F102086444641B9DB2DC
:100DE000B4FBF9F309FB134445EA044403FB0EFE8C
:100DF000A64508D91CEB040403F1FF356CD2A645C7
:100E00006AD9023B644443EA0843A3FB0295A4EB7E
:100E10000E04AC42C846AE4656D353D056B1B0EBE2
:100E2000080264EB0E0404FA07F7CA40CC401743EB
:100E3000C6E9007418460021BDE8F087C3F120011F
:100E400002FA03FC20FA01F225FA01F19D402A433F
:100E50004FEA1C471FFA8CFEB1FBF7F007FB101599
:100E6000110C41EA054100FB0EF58D4204FA03F432
:100E700008D91CEB010100F1FF382FD28D422DD98A
:100E800002386144491B92B2B1FBF7F507FB15111B
:100E900042EA014205FB0EF1914208D91CEB020225
:100EA00005F1FF3816D2914214D9023D6244521A1C
:100EB00045EA004138E73146304608E73946E6E67C
:100EC0001046FBE64845A9D2B9EB020865EB0C0ECB
:100ED000013BA3E74546EAE72B4694E74046D1E7C6
:100EE000D0467BE7023D624432E708460AE76444A5
:100EF000023842E7704700BF80B582B000AF03F010
:100F0000A9FC00F041F900F0B5FB00F089FB00F00E
:100F100099F900F0DBFA00F085FA00F0C1F90BF066
:100F20001DFB00230322002166480BF040F80C2132
:100F3000654805F0ABFD0021644805F0A7FD0421DC
:100F4000624805F0A3FD3C21614806F08FF8614B33
:100F50001B789BB21A466049604807F0A0FA00214E
:100F6000594805F0B5FE584B1B688E221A644FF4A1
:100F7000967003F0B1FC5A4B64221A70584B0A2247
:100F80005A80584B00221A70564B00225A70564B0A
:100F90001A78544B9A7000237B600CE064233B70FA
:100FA00000237B804F4A7B689B0013443A685A6059
:100FB0007B6801337B604C4B1B781A467B689342FD
:100FC000ECDB9FED4A1ADFED4A0A9FED4A0A4A48D8
:100FD00001F0A4F89FED451ADFED450A9FED450AA3
:100FE000464801F09BF89FED461ADFED460A9FED5B
:100FF000460A464801F092F8364B1B789BB21A46D7
:101000003549364807F04BFA2F4B1B688E221A647D
:101010004FF4967003F060FC08F01EFA3C4A002181
:101020003C4808F063FA03463B4A13603B4A002100
:101030003B4808F05BFA03463A4A13603A4A0021FB
:101040003A4808F053FA0346394A1360394A0021F6
:10105000394808F04BFA0346384A1360384A0021F1
:10106000384808F043FA0346374A1360374A0021EC
:10107000374808F03BFA0346364A1360364A0021E7
:10108000364808F033FA0346354A1360354A0021E2
:10109000354808F02BFA0346344A1360344A0021DD
:1010A000344808F023FA0346334A1360334A0021D8
:1010B000334808F01BFA0346324A136008F0F0F98F
:1010C000FEE700BFBC01002010020020A0020020AB
:1010D000580200200000002054030020E8020020F5
:1010E000940300206003002001000020CDCC4C3F81
:1010F000EC51383D66660640E4030020D003002032
:101100009A99993ECDCC4C3DCDCC8C3FF803002034
:1011100084D00008652C00082C030020A8D000080B
:10112000352D000830030020CCD00008852D0008A4
:1011300034030020F0D00008992F00083803002065
:1011400014D10008AD3100083C03002038D100085C
:1011500045350008400300205CD1000855350008E3
:101160004403002080D10008E9380008480300202B
:10117000A4D100087D3C00084C030020C8D1000821
:10118000513D00085003002080B594B000AF07F136
:1011900020033022002118460BF0A0FA07F10C03BF
:1011A00000221A605A609A60DA601A610023BB60FC
:1011B000224B1B6C214A43F0805313641F4B1B6C62
:1011C00003F08053BB60BB6800237B601C4B1B6833
:1011D0001B4A43F480431360194B1B6803F480439C
:1011E0007B607B6802233B620123FB6210233B632D
:1011F0000023BB6307F12003184604F0A3FE034657
:10120000002B01D003F038F80F23FB6000233B6173
:1012100000237B610023BB610023FB6107F10C030A
:101220000021184605F006F90346002B01D003F013
:1012300023F800BF5037BD4680BD00BF00380240D4
:101240000070004080B500AF124B134A1A60114B7A
:10125000124A5A600F4B00229A600E4B0022DA604D
:101260000C4B4FF480421A610A4B00225A61094B21
:1012700000229A61074B0022DA61064B00221A62B3
:10128000044803F077FE0346002B01D002F0F4FF80
:1012900000BF80BDBC01002000540040A0860100BA
:1012A00080B59AB000AF07F1580300221A605A6067
:1012B0009A60DA6007F1500300221A605A6007F161
:1012C000400300221A605A609A60DA6007F1240332
:1012D00000221A605A609A60DA601A615A619A6153
:1012E0003B1D2022002118460BF0F8F94B4B4C4ACD
:1012F0001A604A4BA0225A60484B00229A60474B22
:101300004FF47A72DA60454B00221A61434B002297
:101310005A61424B80229A61404805F09DFA03468B
:10132000002B01D002F0A8FF4FF48053BB6507F1FA
:1013300058031946394806F08DF90346002B01D0B1
:1013400002F09AFF354805F069FC0346002B01D0F6
:1013500002F092FF314805F03FFB0346002B01D01D
:1013600002F08AFF00233B6500237B6507F15003F1
:1013700019462A4806F0D2FE0346002B01D002F09F
:101380007BFF00233B6401237B640023BB640023B9
:10139000FB6407F1400300221946204805F0FCFFDA
:1013A0000346002B01D002F067FF60237B6200231D
:1013B000BB620023FB6200237B630023BB6300232B
:1013C000FB6307F124030C221946144806F080F849
:1013D0000346002B01D002F04FFF00237B60002367
:1013E000BB600023FB6000233B6100237B614FF463
:1013F0000053BB6100233B623B1D1946074806F0C2
:1014000009FF0346002B01D002F036FF034803F02A
:1014100099F800BF6837BD4680BD00BF10020020AC
:101420000000014080B58CB000AF07F10C0324220E
:10143000002118460BF052F93B1D00221A605A6039
:10144000214B4FF080421A601F4B00225A601E4B06
:1014500000229A601C4B4FF0FF32DA601A4B0022D8
:101460001A61194B00229A610323FB6000233B6140
:1014700001237B610023BB610A23FB6100233B62E4
:1014800001237B620023BB620A23FB6207F10C038A
:1014900019460D4805F044FD0346002B01D002F02B
:1014A000EBFE00237B600023BB603B1D1946064812
:1014B00006F034FE0346002B01D002F0DDFE00BF33
:1014C0003037BD4680BD00BF5802002080B596B0C1
:1014D00000AF07F1480300221A605A609A60DA6090
:1014E00007F1400300221A605A6007F1240300222A
:1014F0001A605A609A60DA601A615A619A613B1DFB
:101500002022002118460BF0E9F8434B434A1A60A9
:10151000414B00225A60404B00229A603E4B41F6FC
:101520001F42DA603C4B00221A613B4B00225A6199
:10153000394B00229A61384805F08EF90346002B9A
:1015400001D002F099FE4FF48053BB6407F14803C9
:101550001946314806F07EF80346002B01D002F010
:101560008BFE2D4805F038FA0346002B01D002F01F
:1015700083FE00233B6400237B6407F1400319468C
:10158000254806F0CBFD0346002B01D002F074FE87
:1015900060237B620023BB620023FB6200233B636A
:1015A00000237B630023BB630023FB6307F1240359
:1015B00000221946184805F08BFF0346002B01D086
:1015C00002F05AFE07F1240304221946124805F0DE
:1015D0007FFF0346002B01D002F04EFE00237B600C
:1015E0000023BB600023FB6000233B6100237B6181
:1015F0004FF40053BB6100233B623B1D1946064874
:1016000006F008FE0346002B01D002F035FE00BFB5
:101610005837BD4680BD00BFA00200200004014035
:1016200080B500AF114B124A1A60104B4FF4E132F3
:101630005A600E4B00229A600C4B0022DA600B4B72
:1016400000221A61094B0C225A61084B00229A6150
:10165000064B0022DA61054806F042FE0346002BE5
:1016600001D002F009FE00BF80BD00BFE8020020EB
:101670000048004080B58AB000AF07F11403002293
:101680001A605A609A60DA601A6100233B61414B2C
:101690001B6B404A43F0100313633E4B1B6B03F07C
:1016A00010033B613B690023FB603A4B1B6B394ADB
:1016B00043F001031363374B1B6B03F00103FB6023
:1016C000FB680023BB60334B1B6B324A43F00403BF
:1016D0001363304B1B6B03F00403BB60BB68002338
:1016E0007B602C4B1B6B2B4A43F002031363294B8B
:1016F0001B6B03F002037B607B6800224FF4BC612C
:10170000254803F01DFC00223C21244803F018FC6E
:1017100000221021224803F013FC4FF4BC637B61CC
:101720000123BB610023FB6100233B6207F114032B
:101730001946194803F068FA0C237B610123BB6149
:101740000023FB6102233B6207F11403194613488F
:1017500003F05AFA30237B610123BB610023FB6154
:1017600000233B6207F1140319460C4803F04CFABE
:1017700010237B610123BB610023FB6100233B62DB
:1017800007F114031946064803F03EFA00BF283754
:10179000BD4680BD003802400010024000000240FB
:1017A000000402400000000080B582B000AF786005
:1017B0007B681B7F012B40F08280454B1B78002B00
:1017C0001AD10021786806F00DF80346414A1360EB
:1017D0003F4B01221A707B681B681A6A7B681B6882
:1017E00022F00A021A627B681B681A6A7B681B680F
:1017F00042F002021A6262E0354B1B78012B5ED187
:101800000021786805F0EEFF0346334A13607B68D9
:101810001B6800225A62304B1A682E4B1B689A4292
:1018200007D92D4B1A682B4B1B68D31A2B4A136010
:101830000FE0284B1A68284B1B689A4209D9264B9F
:101840001A68244B1B68D31A03F57F43FF33234ADE
:101850001360224B1B681846FEF74CFE1AA3D3E90F
:101860000023FEF7C1FE02460B46104619464FF014
:1018700000024FF08043FEF7E1FF02460B461046A0
:101880001946FFF76BF90346154A1360104B002207
:101890001A707B681B681A6A7B681B6822F00A0250
:1018A0001A627B681A687B681B68126A1A620D4BA1
:1018B0001B68DA680B4B1B6822F00202DA6000BF7B
:1018C0000837BD4680BD00BF9CC420B07268A13FF0
:1018D0001C04002010040020140400201804002020
:1018E0000C0400201002002080B584B000AF7860A6
:1018F000944B9B78A3F1300213469B0013445B008A
:101900001A46904BDB78303B1344FB608D4B1B79C0
:101910002F2B0ED98B4B1B79392B0AD8FA6813461B
:101920009B0013445B001A46864B1B79303B1344E3
:10193000FB60854B00221A70824B1B78532B59D1C8
:10194000804B5B78542B55D1804B1B6800225A6327
:101950007E4B1B6800229A637D4B1A787D4B1A7070
:101960007B4B09221A707C4B4FF000021A607B4BB4
:1019700000221A807A4800F0F2FB7A4800F0EFFB70
:10198000794800F0ECFB794B00221A80784B1A78EA
:10199000774B5B789A4212D1764B64221A70754B62
:1019A00000225A80744A0F2174480AF063FE4FF6F1
:1019B000FF7306227249734806F0DFFC71E36C4B3B
:1019C0005B786C4A6A499B000B445B681360684B08
:1019D0005B780133664A927893FBF2F101FB02F2E5
:1019E0009B1ADAB2624B5A70674A0F2163480AF0B9
:1019F00041FE56E3534B1B78522B61D1514B5B7820
:101A0000532B5DD1514B1B6800225A634F4B1B680F
:101A100000229A634E4B1A784E4B1A704C4B092297
:101A20001A704D4B4FF000021A604C4B00221A8086
:101A3000564B1B688E221A644FF4967002F04CFFCE
:101A4000474800F08CFB474800F089FB464800F00F
:101A500086FB464B00221A80454B1A78444B5B7834
:101A60009A4212D1434B64221A70424B00225A8090
:101A7000414A0F2141480AF0FDFD4FF6FF7306224F
:101A80003F49404806F079FC0BE3394B5B78394A13
:101A900037499B000B445B681360354B5B7801331F
:101AA000334A927893FBF2F101FB02F29B1ADAB20D
:101AB0002F4B5A70344A0F2130480AF0DBFDF0E218
:101AC000204B1B78462B65D11E4B5B78572B03D0E0
:101AD0001C4B5B78532B5DD11A4B9B782D2B05D17A
:101AE000184BDB782D2B01D1012300E00023DAB263
:101AF000154B1A70134B5B78532B14BF0123002333
:101B0000DBB21A46224B1A70194B1B78184A9B00FD
:101B1000134401221A71164B1B78FA6891B2144AC9
:101B20009B0013440A46DA80114B1B780133104A9C
:101B3000927893FBF2F101FB02F29B1ADAB20C4BA2
:101B40001A70AEE254030020A8030020A002002077
:101B50003401002035010020B0030020B60300202E
:101B6000E4030020D0030020F8030020C803002075
:101B7000600300209403002054D000089803002044
:101B80005CD00008E802002064D0000810020020A9
:101B900036010020964B1B78422B3DD1944B5B784D
:101BA000572B03D0924B5B78532B35D1904B9B78BE
:101BB0002D2B05D18E4BDB782D2B01D1012300E09D
:101BC0000023DAB28B4B1A70894B5B78532B14BF0E
:101BD00001230023DBB21A46874B1A70874B1B7810
:101BE000864A9B00134402221A71844B1B78FA68C0
:101BF00091B2824A9B0013440A46DA807F4B1B78DD
:101C000001337E4A927893FBF2F101FB02F29B1AB8
:101C1000DAB27A4B1A7044E2754B1B78462B36D1F8
:101C2000734B5B784C2B32D1714B9B782D2B05D1AC
:101C30006F4BDB782D2B01D1012300E00023DAB2BA
:101C40006C4B1A706B4B1B78002B01D0032100E00A
:101C500007216A4B1B78694A9B0013440A461A7194
:101C6000664B1B78FA6891B2644A9B0013440A469B
:101C7000DA80624B1B780133604A927893FBF2F171
:101C800001FB02F29B1ADAB25C4B1A7009E2584B64
:101C90001B78462B36D1564B5B78522B32D1544BA6
:101CA0009B782D2B05D1524BDB782D2B01D10123B5
:101CB00000E00023DAB24F4B1A704E4B1B78002B1A
:101CC00001D0042100E008214C4B1B784B4A9B00BB
:101CD00013440A461A71494B1B78FA6891B2474A75
:101CE0009B0013440A46DA80444B1B780133434A75
:101CF000927893FBF2F101FB02F29B1ADAB23F4BAE
:101D00001A70CEE13A4B1B78422B36D1384B5B78B8
:101D10004C2B32D1364B9B782D2B05D1344BDB78B5
:101D20002D2B01D1012300E00023DAB2314B1A70D0
:101D3000304B1B78002B01D0052100E009212F4BEF
:101D40001B782E4A9B0013440A461A712B4B1B78B2
:101D5000FA6891B2294A9B0013440A46DA80274B5D
:101D60001B780133254A927893FBF2F101FB02F2D2
:101D70009B1ADAB2214B1A7093E11D4B1B78422B50
:101D80003ED11B4B5B78522B3AD1194B9B782D2BB4
:101D900005D1174BDB782D2B01D1012300E0002367
:101DA000DAB2144B1A70134B1B78002B01D00621AA
:101DB00000E00A21114B1B78104A9B0013440A468D
:101DC0001A710E4B1B78FA6891B20C4A9B001344AF
:101DD0000A46DA80094B1B780133084A927893FB54
:101DE000F2F101FB02F29B1ADAB2044B1A7058E1CD
:101DF00054030020A80300203601002060030020C7
:101E0000954B1B78542B21D1934B5B784C2B1DD1D8
:101E1000924B1B78914A9B0013440B221A718F4BF3
:101E20001B78FA6891B28D4A9B0013440A46DA8007
:101E30008A4B1B780133894A927893FBF2F101FBBC
:101E400002F29B1ADAB2854B1A702AE1824B1B7898
:101E5000542B21D1804B5B78522B1DD17F4B1B78AB
:101E60007E4A9B0013440C221A717C4B1B78FA6843
:101E700091B27A4A9B0013440A46DA80774B1B786A
:101E80000133764A927893FBF2F101FB02F29B1A3E
:101E9000DAB2724B1A7004E16F4B1B78492B21D1D7
:101EA0006D4B5B78522B1DD16C4B1B786B4A9B00A2
:101EB00013440D221A71694B1B78FA6891B2674A74
:101EC0009B0013440A46DA80644B1B780133634A53
:101ED000927893FBF2F101FB02F29B1ADAB25F4BAC
:101EE0001A70DEE05C4B1B78442B21D15A4B5B7897
:101EF000542B1DD1594B1B78584A9B0013440E227A
:101F00001A71564B1B78FA6891B2544A9B001344DD
:101F10000A46DA80514B1B780133504A927893FB82
:101F2000F2F101FB02F29B1ADAB24C4B1A70B8E0E4
:101F3000494B1B785A2B21D1474B5B785A2B1DD12B
:101F4000464B1B78454A9B0013440F221A71434BA2
:101F50001B78FA6891B2414A9B0013440A46DA8022
:101F60003E4B1B7801333D4A927893FBF2F101FB23
:101F700002F29B1ADAB2394B1A7092E0364B1B7898
:101F8000572B21D1344B5B78582B1DD1334B1B7809
:101F9000324A9B00134410221A71304B1B78FA68A6
:101FA00091B22E4A9B0013440A46DA802B4B1B78D1
:101FB00001332A4A927893FBF2F101FB02F29B1A59
:101FC000DAB2264B1A706CE0234B1B78572B21D1C9
:101FD000214B5B784E2B1DD1204B1B781F4A9B0059
:101FE000134411221A711D4B1B78FA6891B21B4AD7
:101FF0009B0013440A46DA80184B1B780133174ABA
:10200000927893FBF2F101FB02F29B1ADAB2134BC6
:102010001A7046E0104B1B78412B21D10F4B1B78D7
:102020000E4A9B00134458221A710C4B1B78FA6815
:1020300091B20A4A9B0013440A46DA80074B1B7888
:102040000133064A927893FBF2F101FB02F29B1AEC
:10205000DAB2024B1A7024E054030020600300201F
:10206000274B1B78432B1CD1264B1B78254A9B0002
:10207000134459221A71234B1B78FA6891B2214AF2
:102080009B0013440A46DA801E4B1B7801331D4A1D
:10209000927893FBF2F101FB02F29B1ADAB2194B30
:1020A0001A70184B1A78174B5B789A4219D0154B57
:1020B0005B78154A13499B000B445B681360114B16
:1020C0005B7801330F4A927893FBF2F101FB02F245
:1020D0009B1ADAB20B4B5A700C4A0F210C480AF0CB
:1020E000C9FA0C4B1B685B680B4B1B789BB21A46FA
:1020F0000349084806F0D3F900BF1037BD4680BD3C
:1021000054030020600300209403002064D00008E2
:1021100098030020E80200200000002080B485B071
:1021200000AFF86087ED020AC7ED010A87ED001ADB
:10213000FB68BA681A60FB687A685A60FB683A689C
:102140009A60FB684FF00002DA60FB684FF0000213
:102150001A6100BF1437BD465DF8047B704780B438
:1021600083B000AF78607B684FF00002DA607B6874
:102170004FF000021A6100BF0C37BD465DF8047BCA
:102180007047000080B500AF012210210A4802F01C
:10219000D7FE0A2007F03CFA00221021064802F080
:1021A000CFFE064B1B68DA68044B1B6842F0020244
:1021B000DA6000BF80BD00BF0004024010020020B2
:1021C00080B586B004AF0346FB714FF6FF730293F0
:1021D00002230193A94B009301233722D021A84861
:1021E00003F006F9A54B1B781B021AB2A34B5B78D0
:1021F0001BB213431AB2A34B1A80A34B1B681B6874
:1022000003F01003102B0CBF01230023DBB25AB2E2
:102210009E4B1A709B4BB3F9003013F1040F04DB93
:10222000984BB3F900300B2B07DD964BB3F9003018
:1022300007EE903AF8EEE77A01E0DFED957A954BFC
:1022400093ED007A77EE877A924BC3ED007AFB79B3
:10225000002B64D1904B93ED007A8E4BD3ED007A36
:1022600027EE277A8C4BD3ED016A8B4BD3ED047AA2
:1022700066EEA77A37EE277A874BD3ED026A864B54
:1022800093ED036A834BD3ED007A76EE677A66EEC0
:10229000A77A77EE277AFDEEE77A17EE902A7F4B42
:1022A0001A607C4B1B687C4AD3607B4B93ED047AAD
:1022B000784BD3ED007A77EE277A774BC3ED047A2B
:1022C000764B1B68B3F5167F06DC744B1B68744AAB
:1022D0009342B8BF134601E04FF416736F4A136080
:1022E0006A4B93F900309AB26C4B1B689BB212FB9D
:1022F00003F39BB203F596639AB26A4B1A80634B61
:1023000093F900309AB2654B1B689BB212FB03F342
:102310009BB2C3F596639AB2634B1A80EFE0FB79E8
:10232000022B65D1614B93ED007A5A4BD3ED007AC5
:1023300027EE277A5D4BD3ED016A5C4BD3ED047A2F
:1023400066EEA77A37EE277A584BD3ED026A574BE1
:1023500093ED036A4F4BD3ED007A76EE677A66EE23
:10236000A77A77EE277AFDEEE77A17EE902A4B4BA5
:102370001A60484B1B684D4AD3604C4B93ED047A6E
:10238000444BD3ED007A77EE277A484BC3ED047ABD
:10239000424B1B68B3F52F7F06DC404B1B68444A59
:1023A0009342B8BF134601E04FF42F733B4A1360CA
:1023B000364B93F900309AB2384B1B689BB212FB34
:1023C00003F39BB203F6B8339AB2364B1A802F4B05
:1023D00093F900309AB2314B1B689BB212FB03F3A6
:1023E0009BB2C3F53B6308339AB22F4B1A8086E049
:1023F000FB79012B40F083802E4B93ED007A254B27
:10240000D3ED007A27EE277A2A4BD3ED016A294BC8
:10241000D3ED047A66EEA77A37EE277A254BD3ED13
:10242000026A244B93ED036A1A4BD3ED007A76EEE1
:10243000677A66EEA77A77EE277AFDEEE77A17EEEF
:10244000902A164B1A60134B1B681A4AD360194B1B
:1024500093ED047A0F4BD3ED007A77EE277A154B84
:10246000C3ED047A0D4B1B68B3F52F7F24DC0B4BB7
:102470001B680F4A9342B8BF13461FE0B403002005
:10248000BC010020B6030020580200203C010020BF
:1024900000000000B0030020E4030020240400201A
:1024A000A8FDFFFFB8030020BA030020F8030020B6
:1024B00044FDFFFFD00300204FF42F73174A136031
:1024C000174B93F900309AB2144B1B689BB212FB66
:1024D00003F39BB203F6FC039AB2124B1A80104B23
:1024E00093F900309AB20D4B1B689BB212FB03F3B9
:1024F0009BB2C3F50F630C339AB20B4B1A80094B96
:102500001A880A4B1B685A63074B1A88074B1B68CB
:102510009A6300BF0837BD4680BD00BF2404002079
:102520003C010020B8030020BA030020A0020020D4
:1025300080B584B000AF78600B46FB701346BB706B
:10254000A14B4FF000021A60A04B00221A80A04855
:10255000FFF705FE9F48FFF702FE9F48FFF7FFFDCC
:102560009E4B00221A807B681B681846FDF7E4FF2B
:102570008FA3D3E90023FEF737F802460B46104637
:1025800019468DA3D3E90023FDF776FE02460B46DC
:10259000104619464FF00002914BFEF74FF90246E4
:1025A0000B46104619464FF000028E4BFEF71CF802
:1025B00002460B46104619464FF000028A4BFDF7C3
:1025C0005BFE02460B4610461946FEF7A7FA034685
:1025D0009AB2864B1A8002F073F90346844A13605C
:1025E000FB78002B0CBF01230023DBB21A46042129
:1025F000804802F0A5FCFB78002B14BF01230023C8
:10260000DBB21A4608217B4802F09AFCFB78002BCB
:102610000CBF01230023DBB21A462021754802F0CB
:102620008FFCFB78002B14BF01230023DBB21A467A
:102630001021704802F084FC6F4B1B685B6A9AB2F1
:102640006E4B1A806C4B1B685B6AFB606A4B1B68A5
:102650001B6803F01003102B17D1684B1B881A4618
:10266000FB68934206D8654B1A88FB689BB2D31A65
:102670009BB207E0614B1A88FB689BB2D31A9BB2EE
:10268000013B9BB25E4A138016E05C4B1B881A46E6
:10269000FB68934206D3FB689AB2584B1B88D31A47
:1026A0009BB207E0FB689AB2544B1B88D31A9BB2CB
:1026B000013B9BB2524A1380FB689AB24F4B1A807F
:1026C000464B1A884E4B1B8813449AB2434B1A80D0
:1026D0000A2006F09DFF414B1A88444B1B889A4202
:1026E00080F0A58002F0ECF80246414B1B68D31A3B
:1026F000092BA7D9BB78002B03D10020FFF760FD81
:102700008FE0364B1B881A46384B1B88D31A002B98
:10271000B8BF5B423B4A82FB03125212DB17D31A4B
:1027200007EE903AF8EEE77A374BC3ED007ABB78C4
:10273000012B1ED1344BD3ED007AB7EE007AF4EEC4
:10274000C77AF1EE10FA02DD4FF07E530EE02E4B09
:10275000D3ED007AB6EE087AF4EEC77AF1EE10FA0D
:1027600002D54FF07D5301E0274B1B68264A1360CA
:1027700052E0BB78022B4FD1234BD3ED007AB7EE5A
:10278000007AF4EEC77AF1EE10FA02DD4FF07E53D4
:1027900040E01D4B1B681846FDF7CEFE08A3D3E9A9
:1027A0000023FEF793F90346002B31D0174B31E09D
:1027B0002AB266FCAC66F23FF82625BBD4E3EE3FB6
:1027C0009A9999999999D93FB0030020B6030020AE
:1027D000E4030020D0030020F8030020C8030020F9
:1027E0000000344000A0944000002440CA030020B0
:1027F000BC0300200000024058020020CE0300204D
:10280000CC0300207307287738010020CDCCCC3EC4
:102810000D4B1B680C4A1360BB780B49184600F03F
:1028200019F802F04DF80346084A13600AE700BFA2
:10283000074B1B6800225A63054B1B6800229A63F2
:1028400000BF1037BD4680BD38010020BC0300200A
:10285000A002002080B586B004AF03463960FB714A
:102860004FF6FF730293022301939B4B00930123C6
:102870003722D021994802F0BBFD974B1B781B02F1
:102880001AB2954B5B781BB213431AB2944B1A8061
:10289000944B1B681B6803F01003102B01D101221D
:1028A00001E04FF0FF32904B1A708D4BB3F90030BE
:1028B00013F1040F04DB8A4BB3F900300B2B07DD57
:1028C000874BB3F9003007EE903AF8EEE77A01E073
:1028D000DFED867A864B93ED007A77EE877A844B2C
:1028E000C3ED007AFB79012B65D1824B93ED007A21
:1028F0007F4BD3ED007A27EE277A7E4BD3ED016A2A
:102900007C4BD3ED047A66EEA77A37EE277A794BC3
:10291000D3ED026A774B93ED036A754BD3ED007AE2
:1029200076EE677A66EEA77A77EE277AFDEEE77A9B
:1029300017EE902A704B1A606D4B1B686D4AD3607E
:102940006C4B93ED047A6A4BD3ED007A77EE277ADD
:10295000684BC3ED047A684B1B68B3F52F7F06DC28
:10296000654B1B68654A9342B8BF134601E04FF4BC
:102970002F73614A13605C4B93F900309AB25E4B3F
:102980001B689BB212FB03F39BB203F6FC039AB2E3
:102990005B4B1A80544B93F900309AB2564B1B682C
:1029A0009BB212FB03F39BB2C3F50F630C339AB2D5
:1029B000544B1A8067E0FB79022B64D1524B93EDA4
:1029C000007A4B4BD3ED007A27EE277A4E4BD3EDAE
:1029D000016A4D4BD3ED047A66EEA77A37EE277A7B
:1029E000494BD3ED026A484B93ED036A404BD3ED5C
:1029F000007A76EE677A66EEA77A77EE277AFDEEB2
:102A0000E77A17EE902A3C4B1A60394B1B683E4A16
:102A1000D3603D4B93ED047A354BD3ED007A77EEDE
:102A2000277A394BC3ED047A334B1B68B3F52F7FFC
:102A300006DC314B1B68314A9342B8BF134601E0B4
:102A40004FF42F732C4A1360274B93F900309AB23E
:102A5000294B1B689BB212FB03F39BB203F6B833FE
:102A60009AB2274B1A80204B93F900309AB2224B2E
:102A70001B689BB212FB03F39BB2C3F53B630833A5
:102A80009AB2204B1A801E4B1B8807EE903AB8EE84
:102A9000E77A3B68D3ED007A67EE277A1B4B1B6819
:102AA000FCEEE77A17EE902A5A63164B1B8807EE66
:102AB000903AB8EEE77A3B68D3ED007A67EE277A72
:102AC000124B1B68FCEEE77A17EE902A9A6300BF60
:102AD0000837BD4680BD00BFB4030020BC01002004
:102AE000B6030020580200203C0100200000000036
:102AF000B0030020D00300202404002044FDFFFF89
:102B0000B8030020BA030020F8030020A002002030
:102B1000B0B586B004AF78604B4B4FF000021A603E
:102B20004A4B00221A8001F0CBFE0346484A13604C
:102B300001F0C6FE0246464B1B68D31A092BF7D993
:102B40004FF6FF73029302230193424B009301233C
:102B50003722D021404802F04BFC3E4B1B781B0231
:102B60001AB23C4B5B781BB213431AB2374B1A8034
:102B7000354B1B681846FDF7DFFC04460D46334B0A
:102B8000B3F900301846FDF7C5FC2BA3D3E90023A9
:102B9000FDF754FE02460B461046194628A3D3E91A
:102BA0000023FDF721FD02460B4620462946FDF78E
:102BB00065FB02460B4610461946FDF7CFFF03465C
:102BC000214A1360204B93ED007A7B68D3ED007AA5
:102BD00077EE677AFDEEE77A17EE903A002B0DDB81
:102BE000194B93ED007A7B68D3ED007A77EE677A24
:102BF000FDEEE77A17EE903A002B05DD01F060FE5E
:102C00000346134A136093E700BF144B1B6800226E
:102C10005A63124B1B6800229A63114B1B688E2269
:102C20001A644FF4967001F057FE00BF0837BD4696
:102C3000B0BD00BFAFF30080666666666666304072
:102C40007B14AE47E17A843FB0030020B603002036
:102C5000BC030020B4030020BC010020A00200201F
:102C60001002002080B58EB000AF786000237B6337
:102C70000023BB6200233B630023FB622A4B1B68DB
:102C80005B6A7B6301F01CFEF862274B1B681B68C4
:102C900003F01003102B0CBF01230023DBB25AB248
:102CA000224B1A7001F00CFE0246FB6AD31AB3F5F0
:102CB0007A7F35D91C4B1B685B6ABB621A4B1B6859
:102CC0001B6803F01003102B10D1BA6A7B6B9A4279
:102CD00004DA7A6BBB6AD31A3B6317E0BB6AC3F5AD
:102CE0007F43FF337A6B13443B630FE0BA6A7B6B1D
:102CF0009A4204DDBA6A7B6BD31A3B6306E07B6BB6
:102D0000C3F57F43FF33BA6A13443B63084A3B6B06
:102D10001360054B1B685B6A7B6301F0D1FDF862B1
:102D2000642006F075FCBDE7580200203C0100203D
:102D3000C003002080B584B002AF78600E4A28211D
:102D4000002009F0D9FB0D4B0D4A1A60FFF71AFA63
:102D50000A4BD3ED007AFCEEE77A0C2300930523AF
:102D600017EE902A0021002009F058FB09F0C6F95F
:102D70000A2006F04DFCE1E7540300200C0400207B
:102D800000007A4480B582B000AF78606D4B1B784C
:102D9000002B04D04FF47A7006F03AFCF6E76A4B49
:102DA0001B78002B61D0694B4FF000021A60684B12
:102DB00000221A806748FFF7D2F96748FFF7CFF97A
:102DC0006648FFF7CCF900220421654802F0B8F804
:102DD00001220821624802F0B3F800222021604855
:102DE00002F0AEF8012210215D4802F0A9F85D4B17
:102DF0001B6800225A635B4B1B6800229A63514B8D
:102E00001A78594B1A704F4B09221A70574B0022EF
:102E10001A60574B64221A70554B00225A80554A4B
:102E20000F21554809F026FC4FF6FF73062253493F
:102E3000534805F0A2FA01F043FD0346514A1360DE
:102E4000414B1B78002B7BD001F03AFD02464D4BE5
:102E50001B68D31A092BF3D90020FFF7B1F901F051
:102E60002FFD0346474A1360EAE7414B5B8807EEB4
:102E7000903AF8EE677A444BC3ED007A424BD3EDBB
:102E8000007AB2EE0E7AF4EEC77AF1EE10FA02D8BA
:102E90003E4B00221A703D4B1B78002B05D10122BE
:102EA00001213948FFF744FB04E0022201213648A2
:102EB000FFF73EFB2B4B1B6800225A63294B1B6814
:102EC00000229A631F4B1A78274B1A701D4B092258
:102ED0001A70264B00221A602D4B1A782C4B5B7807
:102EE0009A4212D1224B64221A70214B00225A803E
:102EF000204A0F21204809F0BDFB4FF6FF73062240
:102F00001E491F4805F039FA40E7214B5B78184A03
:102F10001F499B000B445B6813601D4B5B780133BA
:102F20001B4A927893FBF2F101FB02F29B1ADAB290
:102F3000174B5A70174A0F210F4809F09BFB25E7E2
:102F400000BF23E734010020A8030020B0030020C5
:102F5000B6030020E4030020D0030020F803002083
:102F600000000240A00200203501002020040020C3
:102F70009403002054D00008980300205CD000087F
:102F8000E8020020BC030020C4030020360100201A
:102F90006003002064D0000880B582B000AF786084
:102FA0006D4B1B78012B04D04FF47A7006F030FB88
:102FB000F6E76A4B1B78002B61D0694B4FF000029B
:102FC0001A60684B00221A806748FFF7C8F8674804
:102FD000FFF7C5F86648FFF7C2F8012204216548EB
:102FE00001F0AEFF00220821624801F0A9FF012292
:102FF0002021604801F0A4FF002210215D4801F06B
:103000009FFF5D4B1B6800225A635B4B1B680022CD
:103010009A63514B1A78594B1A704F4B09221A7008
:10302000574B00221A60574B64221A70554B0022EE
:103030005A80554A0F21554809F01CFB4FF6FF7383
:1030400006225349534805F098F901F039FC03462C
:10305000514A1360414B1B78002B7BD001F030FCB0
:1030600002464D4B1B68D31A092BF3D90020FFF7FA
:10307000A7F801F025FC0346474A1360EAE7414BF5
:103080005B8807EE903AF8EE677A444BC3ED007A1E
:10309000424BD3ED007AB2EE0E7AF4EEC77AF1EE3F
:1030A00010FA02D83E4B00221A703D4B1B78002BC1
:1030B00005D1012200213948FFF73AFA04E0022243
:1030C00000213648FFF734FA2B4B1B6800225A6365
:1030D000294B1B6800229A631F4B1A78274B1A70E2
:1030E0001D4B09221A70264B00221A602D4B1A78AC
:1030F0002C4B5B789A4212D1224B64221A70214BDE
:1031000000225A80204A0F21204809F0B3FA4FF6D6
:10311000FF7306221E491F4805F02FF940E7214B97
:103120005B78184A1F499B000B445B6813601D4B7A
:103130005B7801331B4A927893FBF2F101FB02F2B8
:103140009B1ADAB2174B5A70174A0F210F4809F031
:1031500091FA25E700BF23E734010020A8030020EF
:10316000B0030020B6030020E4030020D0030020B9
:10317000F803002000000240A002002035010020DA
:10318000200400209403002054D00008980300205D
:103190005CD00008E8020020BC030020C40300202B
:1031A000360100206003002064D0000880B582B0A2
:1031B00000AF7860642006F02BFA9D4B1B78022B41
:1031C00003D0642006F024FAF7E79A4B5B88142BAF
:1031D00000F081801E2B40F00781974BD3ED3D7AA4
:1031E0009FED967AF4EEC77AF1EE10FA01DDE12355
:1031F00012E0914BD3ED3D7A9FED917AF4EEC77AD0
:10320000F1EE10FA01D5552306E08B4BD3ED3D7A54
:10321000FCEEE77A17EE903A8A4A126813644FF48C
:10322000967001F059FB844BD3F8F830864A13604E
:10323000814B93F8FC30002B0CBF01230023DBB241
:103240001A460421814801F07BFE7B4B93F8FC3049
:10325000002B14BF01230023DBB21A4608217B4850
:1032600001F06EFE744B93F8FC30002B0CBF012371
:103270000023DBB21A462021744801F061FE6E4B38
:1032800093F8FC30002B14BF01230023DBB21A4655
:1032900010216E4801F054FE674BB3F8F0206C4BE0
:1032A0001B685A63644BB3F8F220694B1B689A633E
:1032B0006548FFF72DFC0A2006F0AAF9654B4FF090
:1032C00081421A60002201216248FFF731F90A2089
:1032D00006F09EF926E15F4B4FF081421A60002212
:1032E00001215C48FFF724F90A2006F091F9524BBE
:1032F000D3ED2D7A9FED517AF4EEC77AF1EE10FA04
:1033000001DDE12312E04C4BD3ED2D7A9FED4C7A99
:10331000F4EEC77AF1EE10FA01D5552306E0464BDC
:10332000D3ED2D7AFCEEE77A17EE903A454A126813
:1033300013644FF4967001F0CFFA3F4BD3F8B830D6
:10334000414A13603C4B93F8BC30002B0CBF012367
:103350000023DBB21A4604213C4801F0F1FD364B54
:1033600093F8BC30002B14BF01230023DBB21A46B4
:103370000821364801F0E4FD2F4B93F8BC30002BB8
:103380000CBF01230023DBB21A4620212F4801F095
:10339000D7FD294B93F8BC30002B14BF0123002329
:1033A000DBB21A461021294801F0CAFD224BB3F8BE
:1033B000B020274B1B685A631F4BB3F8B220244B35
:1033C0001B689A632048FFF7A3FB0A2006F020F948
:1033D000204B214A1A60002201211E48FFF7A8F85D
:1033E0000A2006F015F99DE01A4B4FF081421A6051
:1033F000002201211748FFF79BF80A2006F008F980
:103400000D4BD3ED1D7A9FED0D7AF4EEC77AF1EEF8
:1034100010FA01DDE12328E0074BD3ED1D7A9FED83
:10342000087AF4EEC77AF1EE10FA17D555231CE0AE
:1034300034010020940300200400002000006143B8
:103440000000AA4210020020AC030020000002404D
:10345000A0020020C40300200000E040324BD3ED66
:103460001D7AFCEEE77A17EE903A304A1268136440
:103470004FF4967001F030FA2B4B9B6F2C4A13607F
:10348000294B93F87C30002B0CBF01230023DBB2C7
:103490001A460421274801F053FD234B93F87C3052
:1034A000002B14BF01230023DBB21A460821214858
:1034B00001F046FD1C4B93F87C30002B0CBF012320
:1034C0000023DBB21A4620211A4801F039FD164BC1
:1034D00093F87C30002B14BF01230023DBB21A4683
:1034E0001021144801F02CFD0F4BB3F87020124B43
:1034F0001B685A630C4BB3F872200F4B1B689A631E
:103500000B48FFF705FB0A2006F082F80B4B0C4A2C
:103510001A60002201210948FFF70AF80A2006F084
:1035200077F800BF49E600BF040000201002002029
:10353000AC03002000000240A0020020C4030020D1
:103540000000E04080B582B000AF7860012006F056
:103550005FF8FBE780B582B000AF78609D4B1B78C9
:10356000042B03D0642006F053F8F7E79A4B5B88EE
:10357000142B00F081801E2B40F00781974BD3ED78
:10358000457A9FED977AF4EEC77AF1EE10FA01DDF5
:10359000E12312E0914BD3ED457A9FED927AF4EE60
:1035A000C77AF1EE10FA01D5552306E08B4BD3ED27
:1035B000457AFCEEE77A17EE903A8B4A126813646C
:1035C0004FF4967001F088F9844BD3F81831874A8C
:1035D0001360824B93F81C31002B0CBF0123002396
:1035E000DBB21A460421824801F0AAFC7B4B93F817
:1035F0001C31002B14BF01230023DBB21A46082123
:103600007B4801F09DFC754B93F81C31002B0CBFDF
:1036100001230023DBB21A462021754801F090FCFB
:103620006E4B93F81C31002B14BF01230023DBB237
:103630001A4610216E4801F083FC684BB3F8102144
:103640006C4B1B685A63654BB3F81221694B1B68BE
:103650009A636648FFF75CFA0A2005F0D9FF664BCB
:103660004FF081421A60002200216348FEF760FF9C
:103670000A2005F0CDFF28E15F4B4FF081421A6030
:10368000002200215C48FEF753FF0A2005F0C0FF2E
:10369000524BD3ED357A9FED527AF4EEC77AF1EEC4
:1036A00010FA01DDE12312E04C4BD3ED357A9FEDAA
:1036B0004D7AF4EEC77AF1EE10FA01D5552306E003
:1036C000464BD3ED357AFCEEE77A17EE903A464A50
:1036D000126813644FF4967001F0FEF83F4BD3F874
:1036E000D830424A13603D4B93F8DC30002B0CBFBE
:1036F00001230023DBB21A4604213D4801F020FCDF
:10370000364B93F8DC30002B14BF01230023DBB2CF
:103710001A460821364801F013FC304B93F8DC3090
:10372000002B0CBF01230023DBB21A4620213048B6
:1037300001F006FC294B93F8DC30002B14BF012369
:103740000023DBB21A461021294801F0F9FB234B74
:10375000B3F8D020274B1B685A63204BB3F8D22014
:10376000244B1B689A632148FFF7D2F90A2005F021
:103770004FFF214B214A1A60002200211E48FEF70C
:10378000D7FE0A2005F044FF9FE01B4B4FF081421B
:103790001A60002200211848FEF7CAFE0A2005F030
:1037A00037FF0E4BD3ED257A9FED0D7AF4EEC77AF5
:1037B000F1EE10FA01DDE12329E0084BD3ED257A83
:1037C0009FED087AF4EEC77AF1EE10FA18D555237A
:1037D0001DE000BF340100209403002004000020FD
:1037E000000061430000AA4210020020AC03002048
:1037F00000000240A0020020C40300200000E040BE
:10380000324BD3ED257AFCEEE77A17EE903A304A48
:10381000126813644FF4967001F05EF82B4BD3F8E6
:1038200098302C4A1360294B93F89C30002B0CBF26
:1038300001230023DBB21A460421274801F080FB54
:10384000224B93F89C30002B14BF01230023DBB2E2
:103850001A460821204801F073FB1C4B93F89C305A
:10386000002B0CBF01230023DBB21A4620211A488B
:1038700001F066FB154B93F89C30002B14BF01231D
:103880000023DBB21A461021134801F059FB0F4BFD
:10389000B3F89020114B1B685A630C4BB3F892207D
:1038A0000E4B1B689A630B48FFF732F90A2005F0AC
:1038B000AFFE0B4B0B4A1A60002200210848FEF7AE
:1038C00037FE0A2005F0A4FE00BF47E604000020F2
:1038D00010020020AC03002000000240A0020020E3
:1038E000C40300200000E04080B582B000AF7860E3
:1038F0009D4B1B78052B03D0642005F089FEF7E76C
:103900009A4B5B88142B00F081801E2B40F00781BE
:10391000974BD3ED497A9FED977AF4EEC77AF1EEA3
:1039200010FA01DDE12312E0914BD3ED497A9FEDCE
:10393000927AF4EEC77AF1EE10FA01D5552306E03B
:103940008B4BD3ED497AFCEEE77A17EE903A8B4A2F
:10395000126813644FF4967000F0BEFF844BD3F8E6
:103960002831874A1360824B93F82C31002B0CBF0F
:1039700001230023DBB21A460421824801F0E0FA59
:103980007B4B93F82C31002B14BF01230023DBB2B7
:103990001A4608217B4801F0D3FA754B93F82C3175
:1039A000002B0CBF01230023DBB21A4620217548EF
:1039B00001F0C6FA6E4B93F82C31002B14BF012393
:1039C0000023DBB21A4610216E4801F0B9FA684BA9
:1039D000B3F820216C4B1B685A63654BB3F8222166
:1039E000694B1B689A636648FFF792F80A2005F056
:1039F0000FFE664B4FF081421A600022002163489F
:103A0000FEF796FD0A2005F003FE28E15F4B4FF01C
:103A100081421A60002200215C48FEF789FD0A20DD
:103A200005F0F6FD524BD3ED397A9FED527AF4EE64
:103A3000C77AF1EE10FA01DDE12312E04C4BD3ED31
:103A4000397A9FED4D7AF4EEC77AF1EE10FA01D58E
:103A5000552306E0464BD3ED397AFCEEE77A17EEB4
:103A6000903A464A126813644FF4967000F034FF9F
:103A70003F4BD3F8E830424A13603D4B93F8EC30AB
:103A8000002B0CBF01230023DBB21A4604213D4862
:103A900001F056FA364B93F8EC30002B14BF01239B
:103AA0000023DBB21A460821364801F049FA304BB0
:103AB00093F8EC30002B0CBF01230023DBB21A4635
:103AC0002021304801F03CFA294B93F8EC30002BD0
:103AD00014BF01230023DBB21A461021294801F04C
:103AE0002FFA234BB3F8E020274B1B685A63204B77
:103AF000B3F8E220244B1B689A632148FFF708F8CB
:103B00000A2005F085FD214B214A1A600022002180
:103B10001E48FEF70DFD0A2005F07AFD9FE01B4BC5
:103B20004FF081421A60002200211848FEF700FD84
:103B30000A2005F06DFD0E4BD3ED297A9FED0D7A2D
:103B4000F4EEC77AF1EE10FA01DDE12329E0084B2B
:103B5000D3ED297A9FED087AF4EEC77AF1EE10FAE8
:103B600018D555231DE000BF340100209403002028
:103B700004000020000061430000AA42100200205F
:103B8000AC03002000000240A0020020C40300207B
:103B90000000E040324BD3ED297AFCEEE77A17EED5
:103BA000903A304A126813644FF4967000F094FE15
:103BB0002B4BD3F8A8302C4A1360294B93F8AC3028
:103BC000002B0CBF01230023DBB21A460421274837
:103BD00001F0B6F9224B93F8AC30002B14BF01234F
:103BE0000023DBB21A460821204801F0A9F91C4B3A
:103BF00093F8AC30002B0CBF01230023DBB21A4634
:103C000020211A4801F09CF9154B93F8AC30002B99
:103C100014BF01230023DBB21A461021134801F020
:103C20008FF90F4BB3F8A020114B1B685A630C4B54
:103C3000B3F8A2200E4B1B689A630B48FEF768FF8F
:103C40000A2005F0E5FC0B4B0B4A1A60002200210C
:103C50000848FEF76DFC0A2005F0DAFC00BF47E6D5
:103C60000400002010020020AC03002000000240ED
:103C7000A0020020C40300200000E04080B582B014
:103C800000AF7860264B1B78082B04D04FF47A7075
:103C900005F0BEFCF6E7234B63221A70224B234A41
:103CA0001A60234B00221A601D4B1A78214B1A70A0
:103CB0001B4B09221A70204B1A781F4B5B789A42D3
:103CC00012D1184B64221A70164B00225A801B4ADC
:103CD0000F211B4808F0CEFC4FF6FF73062219494E
:103CE000194804F04AFBCDE7134B5B780D4A1249A3
:103CF0009B000B445B6813600F4B5B7801330E4AEB
:103D0000927893FBF2F101FB02F29B1ADAB20A4BB2
:103D10005A700E4A0F210A4808F0ACFCB2E700BF07
:103D20003401002094030020C4030020000020423E
:103D300020040020350100206003002054D000083A
:103D4000980300205CD00008E802002064D000083E
:103D500080B582B000AF7860C64B1B78013B632B07
:103D600000F25B8201A252F823F000BFFD3E000882
:103D7000FD3E0008193F0008193F0008193F0008E0
:103D8000193F0008E9400008F74000080541000815
:103D90001341000821410008214100086941000841
:103DA0001B4200081B4200081B4200081B4200087F
:103DB0001B4200081B4200081B4200081B4200086F
:103DC0001B4200081B4200081B4200081B4200085F
:103DD0001B4200081B4200081B4200081B4200084F
:103DE0001B4200081B4200081B4200081B4200083F
:103DF0001B4200081B4200081B4200081B4200082F
:103E00001B4200081B4200081B4200081B4200081E
:103E10001B4200081B4200081B4200081B4200080E
:103E20001B4200081B4200081B4200081B420008FE
:103E30001B4200081B4200081B4200081B420008EE
:103E40001B4200081B4200081B4200081B420008DE
:103E50001B4200081B4200081B4200081B420008CE
:103E60001B4200081B4200081B4200081B420008BE
:103E70001B4200081B4200081B4200081B420008AE
:103E80001B4200081B4200081B4200081B4200089E
:103E90001B4200081B4200081B4200081B4200088E
:103EA0001B4200081B4200081B4200081B4200087E
:103EB0001B4200081B4200081B4200081B4200086E
:103EC0001B4200081B4200087141000871410008B4
:103ED0001B4200081B4200081B4200081B4200084E
:103EE0001B4200081B4200081B4200081B4200083E
:103EF0001B4200081B4200081B4200085D4B1B7858
:103F0000012B14BF01230023DBB21A465A4B1A704F
:103F1000584B63221A7081E1564B1B78574A1B019C
:103F200013440433D3ED007A9FED557AF4EEC77A4B
:103F3000F1EE10FA01DDE1231CE04E4B1B784F4AF5
:103F40001B0113440433D3ED007A9FED4E7AF4EE57
:103F5000C77AF1EE10FA01D555230BE0454B1B78DB
:103F6000464A1B0113440433D3ED007AFCEEE77A92
:103F700017EE903A444A126813644FF4967000F0BA
:103F8000ABFC3C4B1B783D4A1B01134408331B68B8
:103F90003E4A1360374B1B78384A1B0113440C33DD
:103FA0001B78002B0CBF01230023DBB21A4604212F
:103FB000374800F0C5FF2F4B1B78304A1B011344D4
:103FC0000C331B78002B14BF01230023DBB21A46ED
:103FD00008212F4800F0B4FF264B1B78274A1B010D
:103FE00013440C331B78002B0CBF01230023DBB2DE
:103FF0001A462021264800F0A3FF1E4B1B781F4ABB
:104000001B0113440C331B78002B14BF0123002326
:10401000DBB21A4610211E4800F092FF154B1B78A8
:10402000164A1B0113441A881A4B1B685A63114B1A
:104030001B78124A1B01134402331A88154B1B6864
:104040009A63154B1A78144B5B789A422ED1094B20
:1040500064221A70074B00225A80104A0F21104820
:1040600008F008FB4FF6FF7306220E490E4804F0D5
:1040700084F935E09403002034010020040000207E
:10408000000061430000AA4210020020AC0300209F
:1040900000000240A00200206003002054D000086D
:1040A000980300205CD00008E80200205D4B5B789C
:1040B0005D4A5C499B000B445B681360594B5B781D
:1040C0000133584A927893FBF2F101FB02F29B1AFA
:1040D000DAB2544B5A70554A0F21554808F0CAFAC3
:1040E000514B63221A7099E0524B02221A704E4BC8
:1040F00063221A7092E04F4B03221A704A4B6322DC
:104100001A708BE04B4B04221A70474B63221A70D3
:1041100084E0484B05221A70434B63221A707DE0FD
:10412000414B1B780B2B04D0434B1B68E1221A64D4
:1041300003E0414B1B6855221A644FF4967000F05F
:10414000CBFB394B64221A70374B00225A803B4A12
:104150000F21374808F08EFA4FF6FF7306223849D0
:10416000384804F00AF959E0324B08221A7055E039
:104170002D4B1B78582B04D02F4B1B68E1221A645F
:1041800003E02D4B1B6855221A644FF4967000F023
:10419000A3FB002204212C4800F0D2FE01220821BA
:1041A000294800F0CDFE00222021274800F0C8FE5B
:1041B00001221021244800F0C3FE1B4B1B78582B12
:1041C00013D1194B5B8807EE903AF8EE677A1F4BD4
:1041D000C3ED007A1E4B1B684FF448725A631C4BA8
:1041E0001B684FF496629A6313E00F4B5B885B4247
:1041F00007EE903AF8EEE77A144BC3ED007A144BD1
:104200001B684FF496625A63114B1B684FF4487257
:104210009A63054B63221A7000E000BF012005F08D
:10422000F7F999E5600300209403002064D00008AA
:1042300098030020340100201002002054D0000810
:104240005CD00008E802002000000240AC0300201F
:10425000A002002080B582B000AF78607B681B6848
:10426000044A934201D100F017FB00BF0837BD4656
:1042700080BD00BF0008004080B400AF72B600BF30
:10428000FEE7000080B582B000AF00237B60124BD8
:104290005B6C114A43F4804353640F4B5B6C03F433
:1042A00080437B607B6800233B600B4B1B6C0A4A9E
:1042B00043F080531364084B1B6C03F080533B6046
:1042C0003B6800220F216FF0010000F0E1FB00BF0E
:1042D0000837BD4680BD00BF0038024080B58AB0B7
:1042E00000AF786007F1140300221A605A609A60E8
:1042F000DA601A617B681B68194A93422CD100234B
:104300003B61184B1B6B174A43F002031363154BB9
:104310001B6B03F002033B613B694FF440737B610D
:104320001223BB610023FB6103233B6204237B62F6
:1043300007F1140319460C4800F066FC0023FB60EB
:10434000084B1B6C074A43F400131364054B1B6CAA
:1043500003F40013FB60FB6800BF2837BD4680BD37
:1043600000540040003802400004024080B58CB088
:1043700000AF786007F11C0300221A605A609A604F
:10438000DA601A617B681B68364A934235D1002394
:10439000BB61354B5B6C344A43F001035364324BD1
:1043A0005B6C03F00103BB61BB6900237B612E4B97
:1043B0001B6B2D4A43F0100313632B4B1B6B03F055
:1043C00010037B617B694FF40073FB6102233B6246
:1043D00000237B620023BB620123FB6207F11C0305
:1043E0001946224800F010FC002205211B2000F095
:1043F0004FFB1B2000F068FB30E07B681B681C4A09
:1044000093422BD100233B61174B5B6C164A43F060
:1044100002035364144B5B6C03F002033B613B6982
:104420000023FB60104B1B6B0F4A43F00403136324
:104430000D4B1B6B03F00403FB60FB68C023FB61A7
:1044400002233B6200237B620023BB620323FB62E7
:1044500007F11C031946074800F0D6FB00BF3037B0
:10446000BD4680BD000001400038024000100240FF
:10447000000401400008024080B58AB000AF7860B7
:1044800007F1140300221A605A609A60DA601A6118
:104490007B681B68B3F1804F4AD100233B61264BF8
:1044A0001B6C254A43F001031364234B1B6C03F080
:1044B00001033B613B690023FB601F4B1B6B1E4AE2
:1044C00043F0010313631C4B1B6B03F00103FB6000
:1044D000FB680023BB60184B1B6B174A43F00203B9
:1044E0001363154B1B6B03F00203BB60BB684FF4F7
:1044F00000437B610223BB610023FB6100233B621D
:1045000001237B6207F1140319460C4800F07CFB81
:1045100008237B610223BB610023FB6100233B6214
:1045200001237B6207F114031946054800F06CFB78
:1045300000BF2837BD4680BD003802400000024061
:104540000004024080B588B000AF786007F10C032A
:1045500000221A605A609A60DA601A617B681B68F0
:10456000124A93421ED10023BB60114B1B6B104AB1
:1045700043F0100313630E4B1B6B03F01003BB607F
:10458000BB684FF48043FB6002233B6100237B61E7
:104590000023BB610123FB6107F10C0319460548A9
:1045A00000F032FB00BF2037BD4680BD0000014057
:1045B000003802400010024080B58AB000AF786039
:1045C00007F1140300221A605A609A60DA601A61D7
:1045D0007B681B681D4A934234D100233B611C4B0E
:1045E0001B6C1B4A43F480231364194B1B6C03F4AC
:1045F00080233B613B690023FB60154B1B6B144A16
:1046000043F004031363124B1B6B03F00403FB60C2
:10461000FB684FF440637B610223BB610023FB61B5
:1046200003233B6207237B6207F114031946094801
:1046300000F0EAFA00220521272000F029FA2720BD
:1046400000F042FA00BF2837BD4680BD0048004058
:10465000003802400008024080B58CB000AF78609E
:104660000023FB620023BB62002279681E2000F059
:104670000FFA1E2000F028FA0023FB601E4B1B6C73
:104680001D4A43F0040313641B4B1B6C03F004032B
:10469000FB60FB6807F1100207F11403114618468E
:1046A00002F0A8F802F07EF8F862FB6A134AA2FB57
:1046B00003239B0C013BBB62114B124A1A60104B47
:1046C00040F2E732DA600E4ABB6A53600C4B0022BC
:1046D0001A610B4B00229A60094802F0BDF80346AC
:1046E000002B04D1064802F007F9034600E001233D
:1046F00018463037BD4680BD0038024083DE1B437C
:10470000280400200008004080B400AFFEE780B419
:1047100000AFFEE780B400AFFEE780B400AFFEE775
:1047200080B400AFFEE780B400AF00BFBD465DF8C7
:10473000047B704780B500AF024802F025FD00BF42
:1047400080BD00BF1002002080B500AF024802F01B
:104750001BFD00BF80BD00BF2804002080B500AF56
:10476000024803F0CDFE00BF80BD00BFE80200207C
:1047700080B586B000AF7860144A154BD31A7B61C0
:104780007B693B61134B1B68002B02D1114B124A12
:104790001A60104B1A687B6813443A699A4207D230
:1047A00007F0A4FF03460C221A604FF0FF3309E024
:1047B000084B1B68FB60074B1A687B681344054A6B
:1047C0001360FB6818461837BD4680BD0000022004
:1047D00000040000700400201053002080B400AFDB
:1047E000064BD3F88830054A43F47003C2F888308A
:1047F00000BFBD465DF8047B704700BF00ED00E0E0
:10480000DFF834D00D480E490E4A002302E0D45898
:10481000C4500433C4188C42F9D30B4A0B4C002308
:1048200001E013600432A242FBD3FFF7D7FF07F089
:1048300063FFFCF761FB70470000022000000020CE
:10484000A0010020ACDC0008A001002010530020D3
:10485000FEE7000080B500AF0E4B1B680D4A43F425
:10486000007313600B4B1B680A4A43F480631360A8
:10487000084B1B68074A43F480731360032000F061
:10488000FCF80F20FFF7E8FEFFF7FCFC00231846BA
:1048900080BD00BF003C024080B400AF064B1B78D7
:1048A0001A46064B1B681344044A136000BFBD46FA
:1048B0005DF8047B704700BF4801002074040020AD
:1048C00080B400AF034B1B681846BD465DF8047BFF
:1048D000704700BF7404002080B584B000AF7860DA
:1048E000FFF7EEFFB8607B68FB60FB68B3F1FF3F4A
:1048F00005D00A4B1B781A46FB681344FB6000BFC7
:10490000FFF7DEFF0246BB68D31AFA689A42F7D86F
:1049100000BF00BF1037BD4680BD00BF480100206A
:1049200080B485B000AF78607B6803F00703FB605C
:104930000C4BDB68BB60BA684FF6FF031340BB60EB
:10494000FB681A02BB68134343F0BF6343F40033B0
:10495000BB60044ABB68D36000BF1437BD465DF836
:10496000047B704700ED00E080B400AF044BDB68CF
:104970001B0A03F007031846BD465DF8047B704729
:1049800000ED00E080B483B000AF0346FB7197F9FF
:104990000730002B0BDBFB7903F01F02074997F967
:1049A00007305B09012000FA02F241F8232000BF22
:1049B0000C37BD465DF8047B704700BF00E100E0A6
:1049C00080B483B000AF03463960FB7197F90730BC
:1049D000002B0ADB3B68DAB20C4997F90730120169
:1049E000D2B20B4483F800230AE03B68DAB20849EC
:1049F000FB7903F00F03043B1201D2B20B441A7689
:104A000000BF0C37BD465DF8047B704700E100E055
:104A100000ED00E080B489B000AFF860B9607A6062
:104A2000FB6803F00703FB61FB69C3F10703042B79
:104A300028BF0423BB61FB690433062B02D9FB6941
:104A4000033B00E000237B614FF0FF32BB6902FAB9
:104A500003F3DA43BB681A407B699A404FF0FF3199
:104A60007B6901FA03F3D9437B680B401343184673
:104A70002437BD465DF8047B704780B582B000AF37
:104A800078607868FFF74CFF00BF0837BD4680BDEF
:104A900080B586B000AF0346B9607A60FB7300232F
:104AA0007B61FFF761FF78617A68B9687869FFF721
:104AB000B1FF024697F90F3011461846FFF780FF05
:104AC00000BF1837BD4680BD80B582B000AF034639
:104AD000FB7197F907301846FFF754FF00BF0837FE
:104AE000BD4680BD80B584B000AF78607B689B6DAB
:104AF000FB60FFF7E5FEB8607B6893F83530DBB20A
:104B0000022B08D07B6880225A657B68002283F8DC
:104B10003420012352E07B681B681A687B681B689D
:104B200022F016021A607B681B685A697B681B6852
:104B300022F080025A617B681B6C002B03D17B68DA
:104B40009B6C002B07D07B681B681A687B681B680E
:104B500022F008021A607B681B681A687B681B6871
:104B600022F001021A6013E0FFF7AAFE0246BB68BA
:104B7000D31A052B0CD97B6820225A657B68032247
:104B800083F835207B68002283F83420032315E066
:104B90007B681B681B6803F00103002BE4D17B6872
:104BA000DB6D3F229A40FB689A607B68012283F8A4
:104BB00035207B68002283F8342000231846103704
:104BC000BD4680BD80B483B000AF78607B6893F849
:104BD0003530DBB2022B04D07B6880225A6501237A
:104BE0000CE07B68052283F835207B681B681A6817
:104BF0007B681B6822F001021A60002318460C37FC
:104C0000BD465DF8047B704780B489B000AF786022
:104C1000396000237B6100233B610023BB610023DB
:104C2000FB616BE10122FB6902FA03F37B613B68E4
:104C30001B687A6913403B613A697B699A4240F08C
:104C40005A813B685B6803F00303012B05D03B6886
:104C50005B6803F00303022B30D17B689B68BB6168
:104C6000FB695B00032202FA03F3DB43BA691340DA
:104C7000BB613B68DA68FB695B0002FA03F3BA695F
:104C80001343BB617B68BA699A607B685B68BB61F0
:104C90000122FB6902FA03F3DB43BA691340BB61EB
:104CA0003B685B681B0903F00102FB6902FA03F32E
:104CB000BA691343BB617B68BA695A603B685B6839
:104CC00003F00303032B17D07B68DB68BB61FB6930
:104CD0005B00032202FA03F3DB43BA691340BB61B2
:104CE0003B689A68FB695B0002FA03F3BA691343F5
:104CF000BB617B68BA69DA603B685B6803F00303F9
:104D0000022B23D1FB69DA087B68083253F8223082
:104D1000BB61FB6903F007039B000F2202FA03F358
:104D2000DB43BA691340BB613B681A69FB6903F056
:104D300007039B0002FA03F3BA691343BB61FB69E3
:104D4000DA087B680832B96943F822107B681B686F
:104D5000BB61FB695B00032202FA03F3DB43BA6920
:104D60001340BB613B685B6803F00302FB695B00B7
:104D700002FA03F3BA691343BB617B68BA691A602C
:104D80003B685B6803F44033002B00F0B4800023E1
:104D9000FB60604B5B6C5F4A43F4804353645D4B44
:104DA0005B6C03F48043FB60FB685B4AFB699B0818
:104DB000023352F82330BB61FB6903F003039B000D
:104DC0000F2202FA03F3DB43BA691340BB617B682D
:104DD000524A93422BD07B68514A934225D07B683C
:104DE000504A93421FD07B684F4A934219D07B6848
:104DF0004E4A934213D07B684D4A93420DD07B6854
:104E00004C4A934207D07B684B4A934201D1072317
:104E10000EE008230CE006230AE0052308E0042343
:104E200006E0032304E0022302E0012300E0002364
:104E3000FA6902F0030292009340BA691343BB611E
:104E40003549FB699B080233BA6941F823203B4B83
:104E50009B68BB613B69DB43BA691340BB613B683C
:104E60005B6803F48013002B03D0BA693B691343DA
:104E7000BB61324ABB699360304BDB68BB613B6905
:104E8000DB43BA691340BB613B685B6803F4001302
:104E9000002B03D0BA693B691343BB61274ABB6946
:104EA000D360264B5B68BB613B69DB43BA69134047
:104EB000BB613B685B6803F40033002B03D0BA6925
:104EC0003B691343BB611D4ABB6953601B4B1B68A5
:104ED000BB613B69DB43BA691340BB613B685B68FC
:104EE00003F48033002B03D0BA693B691343BB61E1
:104EF000124ABB691360FB690133FB61FB690F2B2D
:104F00007FF690AE00BF00BF2437BD465DF8047B3E
:104F1000704700BF003802400038014000000240E6
:104F20000004024000080240000C02400010024051
:104F30000014024000180240001C0240003C0140E6
:104F400080B483B000AF78600B467B8013467B70E3
:104F50007B78002B03D07A887B689A6103E07B889A
:104F60001A047B689A6100BF0C37BD465DF8047B6C
:104F70007047000080B584B000AF78607B68002B7C
:104F800001D101232BE17B6893F83D30DBB2002B8C
:104F900006D17B68002283F83C207868FFF79EF9F1
:104FA0007B68242283F83D207B681B681A687B6835
:104FB0001B6822F001021A607B681B681A687B6814
:104FC0001B6842F400421A607B681B681A687B68A1
:104FD0001B6822F400421A6001F0E4FBF8607B6871
:104FE0005B68814A934207D8FB68804A934294BF2A
:104FF00001230023DBB206E0FB687D4A934294BFA5
:1050000001230023DBB2002B01D00123E7E0FB6882
:10501000784AA2FB03239B0CBB607B681B685B6820
:1050200023F03F017B681B68BA680A435A607B68BB
:105030001B681B6A23F03F017B685B686A4A9342E6
:1050400002D8BB68013309E0BB684FF4967202FBDB
:1050500003F3694AA2FB03239B0901337A681268B0
:105060000B4313627B681B68DB6923F44F4222F019
:10507000FF027B685B685C498B4219D8FB68591E4C
:105080007B685B685B00B1FBF3F3591C40F6FC7373
:105090000B40002B0AD0FB68591E7B685B685B00E5
:1050A000B1FBF3F30133C3F30B0351E004234FE0EF
:1050B0007B689B68002B11D1FB68581E7B68596880
:1050C0000B465B000B44B0FBF3F30133C3F30B035C
:1050D000002B0CBF01230023DBB212E0FB68581E3B
:1050E0007B6859680B469B000B4499000B44B0FB4E
:1050F000F3F30133C3F30B03002B0CBF0123002395
:10510000DBB2002B01D0012322E07B689B68002BDF
:105110000ED1FB68581E7B6859680B465B000B4438
:10512000B0FBF3F30133C3F30B0343F400430FE08D
:10513000FB68581E7B6859680B469B000B4499001E
:105140000B44B0FBF3F30133C3F30B0343F44043CD
:10515000796809681343CB617B681B681B6823F07F
:10516000C0017B68DA697B681B6A1A437B681B682D
:105170000A431A607B681B689B6823F4034323F08F
:10518000FF037A6811697A68D26811437A681268F5
:105190000B4393607B681B68DB6823F0FF017B682F
:1051A0005A697B689B691A437B681B680A43DA600B
:1051B0007B681B681A687B681B6842F001021A60F2
:1051C0007B6800221A647B68202283F83D207B687C
:1051D00000221A637B68002283F83E2000231846D1
:1051E0001037BD4680BD00BFA08601007F841E0031
:1051F000FF083D0083DE1B43D34D621080B588B0AD
:1052000002AFF860084611461A4603467B810B46FA
:105210003B811346FB80FFF753FB7861FB6893F8F3
:105220003D30DBB2202B40F0D9807B6900931923FD
:1052300001226D49F86800F07FFC0346002B01D085
:105240000223CCE0FB6893F83C30012B01D1022310
:10525000C5E0FB68012283F83C20FB681B681B68E3
:1052600003F00103012B07D0FB681B681A68FB6879
:105270001B6842F001021A60FB681B681A68FB6831
:105280001B6822F400621A60FB68212283F83D202B
:10529000FB68402283F83E20FB6800221A64FB680A
:1052A0003A6A5A62FB68BA8C5A85FB685B8D9AB27F
:1052B000FB681A85FB684D4ADA62F8883A89798971
:1052C0007B690193BB6A00930346F86800F0B6FA65
:1052D0000346002B52D0012381E07A69B96AF8684D
:1052E00000F000FD0346002B0DD0FB681B6C042B67
:1052F00007D1FB681B681A68FB681B6842F40072E0
:105300001A6001236BE0FB685B6A1A78FB681B6814
:105310001A61FB685B6A5A1CFB685A62FB681B8D4A
:10532000013B9AB2FB681A85FB685B8D9BB2013B1F
:105330009AB2FB685A85FB681B685B6903F004033B
:10534000042B1BD1FB681B8D002B17D0FB685B6AFD
:105350001A78FB681B681A61FB685B6A5A1CFB6859
:105360005A62FB681B8D013B9AB2FB681A85FB6889
:105370005B8D9BB2013B9AB2FB685A85FB681B8D23
:10538000002BAAD17A69B96AF86800F0ECFC0346F0
:10539000002B0DD0FB681B6C042B07D1FB681B682E
:1053A0001A68FB681B6842F400721A60012316E059
:1053B000FB681B681A68FB681B6842F400721A607D
:1053C000FB68202283F83D20FB68002283F83E2002
:1053D000FB68002283F83C20002300E002231846EB
:1053E0001837BD4680BD00BF020010000000FFFF5F
:1053F00080B58CB002AFF860084611461A460346E5
:105400007B810B463B811346FB80FFF759FA78629C
:10541000FB6893F83D30DBB2202B40F008827B6ABA
:105420000093192301227B49F86800F085FB0346AD
:10543000002B01D00223FBE1FB6893F83C30012BE9
:1054400001D10223F4E1FB68012283F83C20FB68D0
:105450001B681B6803F00103012B07D0FB681B6866
:105460001A68FB681B6842F001021A60FB681B683F
:105470001A68FB681B6822F400621A60FB6822222B
:1054800083F83D20FB68402283F83E20FB68002221
:105490001A64FB683A6B5A62FB68BA8E5A85FB68DD
:1054A0005B8D9AB2FB681A85FB685B4ADA62F88802
:1054B0003A8979897B6A0193BB6B00930346F8684C
:1054C00000F052FA0346002B01D00123B0E1FB6843
:1054D0001B8D002B13D100233B62FB681B685B69AB
:1054E0003B62FB681B689B693B623B6AFB681B680D
:1054F0001A68FB681B6842F400721A6084E1FB685A
:105500001B8D012B1BD1FB681B681A68FB681B688D
:1055100022F480621A600023FB61FB681B685B69F0
:10552000FB61FB681B689B69FB61FB69FB681B688F
:105530001A68FB681B6842F400721A6064E1FB6839
:105540001B8D022B1BD1FB681B681A68FB681B684C
:1055500022F480621A60FB681B681A68FB681B688B
:1055600042F400621A600023BB61FB681B685B6940
:10557000BB61FB681B689B69BB61BB6944E100239D
:105580007B61FB681B685B697B61FB681B689B69CF
:105590007B617B6938E1FB681B8D032B00F2F18096
:1055A000FB681B8D012B23D17A6AB96BF86800F078
:1055B0001BFC0346002B01D0012339E1FB681B686B
:1055C0001A69FB685B6AD2B21A70FB685B6A5A1C84
:1055D000FB685A62FB681B8D013B9AB2FB681A8517
:1055E000FB685B8D9BB2013B9AB2FB685A850BE16D
:1055F000FB681B8D022B4ED17B6A0093BB6B002294
:105600000649F86800F098FA0346002B08D00123F9
:105610000EE100BF020010000000FFFF04000100C7
:10562000FB681B681A68FB681B6842F400721A600A
:10563000FB681B681A69FB685B6AD2B21A70FB6868
:105640005B6A5A1CFB685A62FB681B8D013B9AB26D
:10565000FB681A85FB685B8D9BB2013B9AB2FB68C5
:105660005A85FB681B681A69FB685B6AD2B21A70BC
:10567000FB685B6A5A1CFB685A62FB681B8D013B26
:105680009AB2FB681A85FB685B8D9BB2013B9AB2AC
:10569000FB685A85B8E07B6A0093BB6B00226649C1
:1056A000F86800F049FA0346002B01D00123BFE05F
:1056B000FB681B681A68FB681B6822F480621A602A
:1056C000FB681B681A69FB685B6AD2B21A70FB68D8
:1056D0005B6A5A1CFB685A62FB681B8D013B9AB2DD
:1056E000FB681A85FB685B8D9BB2013B9AB2FB6835
:1056F0005A857B6A0093BB6B00224F49F86800F023
:105700001BFA0346002B01D0012391E0FB681B68C4
:105710001A68FB681B6842F400721A60FB681B6819
:105720001A69FB685B6AD2B21A70FB685B6A5A1C22
:10573000FB685A62FB681B8D013B9AB2FB681A85B5
:10574000FB685B8D9BB2013B9AB2FB685A85FB6894
:105750001B681A69FB685B6AD2B21A70FB685B6AE5
:105760005A1CFB685A62FB681B8D013B9AB2FB68AE
:105770001A85FB685B8D9BB2013B9AB2FB685A8528
:1057800042E07A6AB96BF86800F02EFB0346002B02
:1057900001D001234CE0FB681B681A69FB685B6A57
:1057A000D2B21A70FB685B6A5A1CFB685A62FB68CB
:1057B0001B8D013B9AB2FB681A85FB685B8D9BB21F
:1057C000013B9AB2FB685A85FB681B685B6903F072
:1057D0000403042B18D1FB681B681A69FB685B6A19
:1057E000D2B21A70FB685B6A5A1CFB685A62FB688B
:1057F0001B8D013B9AB2FB681A85FB685B8D9BB2DF
:10580000013B9AB2FB685A85FB681B8D002B7FF425
:10581000C2AEFB68202283F83D20FB68002283F89B
:105820003E20FB68002283F83C20002300E0022396
:1058300018462837BD4680BD0400010080B588B0F9
:1058400002AFF860084611461A4603467B810B46B4
:105850003B811346FB80FB681B681A68FB681B686A
:1058600042F480721A607B6A00933B6A00224FF018
:105870000111F86800F060F90346002B0DD0FB68B9
:105880001B681B6803F48073B3F5807F03D1FB684A
:105890004FF400721A6403235FE07B89DBB21A467F
:1058A000FB681B6802F0FE021A617B6A3A6A2D49A6
:1058B000F86800F098F90346002B01D001234CE072
:1058C00000237B61FB681B685B697B61FB681B686D
:1058D0009B697B617B697A6A396AF86800F002FA31
:1058E0000346002B0DD0FB681B6C042B07D1FB6813
:1058F0001B681A68FB681B6842F400721A60012377
:105900002BE0FB88012B05D13B89DAB2FB681B68D1
:105910001A6121E03B891B0A9BB2DAB2FB681B6863
:105920001A617A6A396AF86800F0DCF90346002BDC
:105930000DD0FB681B6C042B07D1FB681B681A6831
:10594000FB681B6842F400721A60012305E03B8982
:10595000DAB2FB681B681A61002318461837BD4687
:1059600080BD00BF0200010080B588B002AFF860C2
:10597000084611461A4603467B810B463B81134677
:10598000FB80FB681B681A68FB681B6842F4806236
:105990001A60FB681B681A68FB681B6842F4807217
:1059A0001A607B6A00933B6A00224FF00111F8688D
:1059B00000F0C2F80346002B0DD0FB681B681B6883
:1059C00003F48073B3F5807F03D1FB684FF400725A
:1059D0001A640323AAE07B89DBB21A46FB681B68C2
:1059E00002F0FE021A617B6A3A6A5249F86800F0D6
:1059F000FAF80346002B01D0012397E000237B61D6
:105A0000FB681B685B697B61FB681B689B697B614A
:105A10007B697A6A396AF86800F064F90346002BFA
:105A20000DD0FB681B6C042B07D1FB681B681A6840
:105A3000FB681B6842F400721A60012376E0FB8861
:105A4000012B05D13B89DAB2FB681B681A6121E0A2
:105A50003B891B0A9BB2DAB2FB681B681A617A6A3F
:105A6000396AF86800F03EF90346002B0DD0FB6858
:105A70001B6C042B07D1FB681B681A68FB681B684A
:105A800042F400721A60012350E03B89DAB2FB68ED
:105A90001B681A617A6A396AF86800F023F90346CC
:105AA000002B0DD0FB681B6C042B07D1FB681B6817
:105AB0001A68FB681B6842F400721A60012335E023
:105AC000FB681B681A68FB681B6842F480721A60E6
:105AD0007B6A00933B6A00224FF00111F86800F0E6
