:020000040800F2
:10000000000002200D5400080153000807530008A7
:100010000D53000813530008195300080000000096
:1000200000000000000000000000000081C5000882
:100030001F53000800000000D1C700085DA200089F
:100040005D5400085D5400085D5400085D540008CC
:100050005D5400085D5400085D5400085D540008BC
:100060005D5400085D5400085D5400085D540008AC
:100070005D5400085D5400085D5400085D5400089C
:100080005D5400085D5400085D5400085D5400088C
:100090005D5400085D5400085D5400085D5400087C
:1000A0005D5400085D5400085D5400082D5300089D
:1000B0005D54000841530008555300085D54000882
:1000C0005D5400085D5400085D5400085D5400084C
:1000D0005D5400085D5400085D5400086953000831
:1000E0005D5400085D5400085D5400085D5400082C
:1000F0005D5400085D5400085D5400085D5400081C
:100100005D5400085D5400085D5400085D5400080B
:100110005D5400085D5400085D5400085D540008FB
:100120005D5400085D5400085D5400085D540008EB
:100130005D5400085D5400085D5400085D540008DB
:100140005D5400085D5400085D5400085D540008CB
:100150005D5400085D5400085D5400085D540008BB
:100160005D5400085D5400085D5400085D540008AB
:100170005D5400085D5400085D5400080000000054
:080180005D5400085D54000805
:1001900010B5054C237833B9044B13B10448AFF3C1
:1001A00000800123237010BDA0010020000000008A
:1001B00000DD000808B5034B1BB103490348AFF34A
:1001C000008008BD00000000A401002000DD000840
:1001D00001F0FF01102A2BDB10F0070F08D010F8F8
:1001E000013B013A8B422DD010F0070F42B3F6D1FC
:1001F000F0B441EA012141EA014122F007047FF015
:1002000000070023F0E80256083C85EA010586EA6B
:10021000010685FA47F5A3FA87F586FA47F6A5FAA7
:1002200087F68EB9EED1F0BC01F0FF0102F00702B3
:1002300032B110F8013B013A83EA010313B1F8D15E
:100240000020704701387047002D06BF354603383F
:10025000073815F0010F07D1013015F4807F02BF78
:10026000013015F4C03F0130F0BC0138704700BFC9
:1002700081F0004102E000BF83F0004330B54FEA57
:1002800041044FEA430594EA050F08BF90EA020FC4
:100290001FBF54EA000C55EA020C7FEA645C7FEA57
:1002A000655C00F0E2804FEA5454D4EB5555B8BF7A
:1002B0006D420CDD2C4480EA020281EA030382EAEB
:1002C000000083EA010180EA020281EA0303362D7D
:1002D00088BF30BD11F0004F4FEA01314FF4801C50
:1002E0004CEA113102D0404261EB410113F0004F62
:1002F0004FEA03334CEA133302D0524263EB430319
:1003000094EA050F00F0A780A4F10104D5F1200EB6
:100310000DDB02FA0EFC22FA05F2801841F1000111
:1003200003FA0EF2801843FA05F359410EE0A5F1E5
:1003300020050EF1200E012A03FA0EFC28BF4CF016
:10034000020C43FA05F3C01851EBE37101F00045CC
:1003500007D54FF0000EDCF1000C7EEB00006EEBD9
:100360000101B1F5801F1BD3B1F5001F0CD3490863
:100370005FEA30004FEA3C0C04F101044FEA4452BA
:1003800012F5800F80F09A80BCF1004F08BF5FEA41
:10039000500C50F1000041EB045141EA050130BD21
:1003A0005FEA4C0C404141EB0101013C28BFB1F533
:1003B000801FE9D291F0000F04BF01460020B1FA7E
:1003C00081F308BF2033A3F10B03B3F120020CDA51
:1003D0000C3208DD02F1140CC2F10C0201FA0CF02F
:1003E00021FA02F10CE002F11402D8BFC2F1200C94
:1003F00001FA02F120FA0CFCDCBF41EA0C0190404A
:10040000E41AA2BF01EB0451294330BD6FEA040492
:100410001F3C1CDA0C340EDC04F11404C4F120027D
:1004200020FA04F001FA02F340EA030021FA04F38F
:1004300045EA030130BDC4F10C04C4F1200220FAE6
:1004400002F001FA04F340EA0300294630BD21FA24
:1004500004F0294630BD94F0000F83F4801306BFEA
:1004600081F480110134013D4EE77FEA645C18BFDE
:100470007FEA655C29D094EA050F08BF90EA020F75
:1004800005D054EA000C04BF1946104630BD91EA6D
:10049000030F1EBF0021002030BD5FEA545C05D170
:1004A0004000494128BF41F0004130BD14F58004AF
:1004B0003CBF01F5801130BD01F0004545F0FE4123
:1004C00041F470014FF0000030BD7FEA645C1ABF58
:1004D000194610467FEA655C1CBF0B46024650EA8F
:1004E000013406BF52EA033591EA030F41F40021BB
:1004F00030BD00BF90F0000F04BF0021704730B541
:100500004FF4806404F132044FF000054FF0000115
:1005100050E700BF90F0000F04BF0021704730B5D6
:100520004FF4806404F1320410F0004548BF4042AB
:100530004FF000013EE700BF42004FEAE2014FEA00
:1005400031014FEA02701FBF12F07F4393F07F4FDB
:1005500081F06051704732F07F4208BF704793F0DE
:100560007F4F04BF41F40021704730B54FF46074F1
:1005700001F0004521F000411CE700BF50EA0102F4
:1005800008BF704730B54FF000050AE050EA01029D
:1005900008BF704730B511F0004502D5404261EB0D
:1005A00041014FF4806404F132045FEA915C3FF44E
:1005B000D8AE4FF003025FEADC0C18BF03325FEAEB
:1005C000DC0C18BF033202EBDC02C2F1200300FA9C
:1005D00003FC20FA02F001FA03FE40EA0E0021FAC1
:1005E00002F11444BDE600BF70B54FF0FF0C4CF4AF
:1005F000E06C1CEA11541DBF1CEA135594EA0C0F61
:1006000095EA0C0F00F0DEF82C4481EA030621EA9B
:100610004C5123EA4C5350EA013518BF52EA0335D6
:1006200041F4801143F4801338D0A0FB02CE4FF088
:100630000005E1FB02E506F00042E0FB03E54FF0B8
:100640000006E1FB03569CF0000F18BF4EF0010EB0
:10065000A4F1FF04B6F5007F64F5407404D25FEAAC
:100660004E0E6D4146EB060642EAC62141EA55515F
:100670004FEAC52040EA5E504FEACE2EB4F1FD0CA1
:1006800088BFBCF5E06F1ED8BEF1004F08BF5FEA1F
:10069000500E50F1000041EB045170BD06F00046D1
:1006A00046EA010140EA020081EA0301B4EB5C047E
:1006B000C2BFD4EB0C0541EA045170BD41F4801176
:1006C0004FF0000E013C00F3AB8014F1360FDEBF9B
:1006D000002001F0004170BDC4F10004203C35DA77
:1006E0000C341BDC04F11404C4F1200500FA05F3FA
:1006F00020FA04F001FA05F240EA020001F000429B
:1007000021F0004110EBD37021FA04F642EB060110
:100710005EEA430E08BF20EAD37070BDC4F10C043A
:10072000C4F1200500FA04F320FA05F001FA04F2FE
:1007300040EA020001F0004110EBD37041F10001EA
:100740005EEA430E08BF20EAD37070BDC4F12005F5
:1007500000FA05F24EEA020E20FA04F301FA05F25D
:1007600043EA020321FA04F001F0004121FA04F205
:1007700020EA020000EBD3705EEA430E08BF20EAD5
:10078000D37070BD94F0000F0FD101F0004640000F
:1007900041EB010111F4801F08BF013CF7D041EA91
:1007A000060195F0000F18BF704703F00046520095
:1007B00043EB030313F4801F08BF013DF7D043EA66
:1007C0000603704794EA0C0F0CEA135518BF95EA1C
:1007D0000C0F0CD050EA410618BF52EA4306D1D1A3
:1007E00081EA030101F000414FF0000070BD50EAC2
:1007F000410606BF1046194652EA430619D094EA4C
:100800000C0F02D150EA013613D195EA0C0F05D135
:1008100052EA03361CBF104619460AD181EA030189
:1008200001F0004141F0FE4141F470014FF0000041
:1008300070BD41F0FE4141F4780170BD70B54FF0DC
:10084000FF0C4CF4E06C1CEA11541DBF1CEA13555C
:1008500094EA0C0F95EA0C0F00F0A7F8A4EB05043E
:1008600081EA030E52EA03354FEA013100F0888035
:100870004FEA03334FF0805545EA131343EA1263FE
:100880004FEA022245EA111545EA10654FEA0026B3
:100890000EF000419D4208BF964244F1FD0404F56C
:1008A000407402D25B084FEA3202B61A65EB0305C8
:1008B0005B084FEA32024FF480104FF4002CB6EB85
:1008C000020E75EB030E22BFB61A754640EA0C0005
:1008D0005B084FEA3202B6EB020E75EB030E22BF45
:1008E000B61A754640EA5C005B084FEA3202B6EB86
:1008F000020E75EB030E22BFB61A754640EA9C0045
:100900005B084FEA3202B6EB020E75EB030E22BF14
:10091000B61A754640EADC0055EA060E18D04FEAD2
:10092000051545EA16754FEA06164FEAC30343EA72
:1009300052734FEAC2025FEA1C1CC0D111F4801F3F
:100940000BD141EA00014FF000004FF0004CB6E738
:1009500011F4801F04BF01430020B4F1FD0C88BFD7
:10096000BCF5E06F3FF6AFAEB5EB030C04BFB6EBE2
:10097000020C5FEA500C50F1000041EB045170BDD5
:100980000EF0004E4EEA113114EB5C04C2BFD4EB02
:100990000C0541EA045170BD41F480114FF0000E86
:1009A000013C90E645EA060E8DE60CEA135594EA02
:1009B0000C0F08BF95EA0C0F3FF43BAF94EA0C0F05
:1009C0000AD150EA01347FF434AF95EA0C0F7FF47A
:1009D00025AF104619462CE795EA0C0F06D152EACE
:1009E00003353FF4FDAE1046194622E750EA4106B2
:1009F00018BF52EA43067FF4C5AE50EA41047FF4C3
:100A00000DAF52EA43057FF4EBAE12E74FF0FF3C27
:100A100006E000BF4FF0010C02E000BF4FF0010CF8
:100A20004DF804CD4FEA410C7FEA6C5C4FEA430C71
:100A300018BF7FEA6C5C1BD001B050EA410C0CBFC0
:100A400052EA430C91EA030F02BF90EA020F002022
:100A5000704710F1000F91EA030F58BF994208BF89
:100A600090422CBFD8176FEAE37040F00100704746
:100A70004FEA410C7FEA6C5C02D150EA013C07D19D
:100A80004FEA430C7FEA6C5CD6D152EA033CD3D0E8
:100A90005DF8040B704700BF8446104662468C46E2
:100AA0001946634600E000BF01B5FFF7B7FF002815
:100AB00048BF10F1000F01BD4DF808EDFFF7F4FF3E
:100AC0000CBF012000205DF808FB00BF4DF808EDC9
:100AD000FFF7EAFF34BF012000205DF808FB00BFEC
:100AE0004DF808EDFFF7E0FF94BF012000205DF80E
:100AF00008FB00BF4DF808EDFFF7CEFF94BF0120C3
:100B000000205DF808FB00BF4DF808EDFFF7C4FFBB
:100B100034BF012000205DF808FB00BF4A0011D25D
:100B200012F5001211D20DD56FF47873B3EB625247
:100B30000ED44FEAC12343F0004343EA505323FA53
:100B400002F070474FF00000704750EA013002D1C8
:100B50004FF0FF3070474FF0000070474FEA4102FE
:100B6000B2F1E04324BFB3F5001CDCF1FE5C0DD90B
:100B700001F0004C4FEAC0024CEA5070B2F1004F55
:100B800040EB830008BF20F00100704711F0804F58
:100B900021D113F13872BCBF01F00040704741F41D
:100BA00080114FEA5252C2F11802C2F1200C10FA21
:100BB0000CF320FA02F018BF40F001004FEAC12305
:100BC0004FEAD32303FA0CFC40EA0C0023FA02F3A9
:100BD0004FEA4303CCE77FEA625307D150EA01337F
:100BE0001EBF4FF0FE4040F44000704701F000404F
:100BF00040F0FE4040F40000704700BF53B94AB9CE
:100C0000002908BF00281CBF4FF0FF314FF0FF3014
:100C100000F070B9ADF1080C6DE904CE00F006F8F3
:100C2000DDF804E0DDE9022304B070472DE9F04768
:100C3000089E0D4604460F46002B4AD18A42944630
:100C400065D9B2FA82F343B102FA03FCC3F1200280
:100C50009F4020FA02F217439C404FEA1C4E1FFAB5
:100C60008CF5B7FBFEF1220C0EFB117742EA07422E
:100C700001FB05F090420AD91CEB020201F1FF379B
:100C800080F01C81904240F2198102396244121AAC
:100C9000A4B2B2FBFEF00EFB102244EA024400FBB9
:100CA00005F5A5420AD91CEB040400F1FF3280F0DF
:100CB0000781A54240F204816444023840EA0140C1
:100CC000641B00211EB1DC400023C6E90043BDE8DF
:100CD000F0878B4208D9002E00F0ED800021C6E994
:100CE00000050846BDE8F087B3FA83F1002949D131
:100CF000AB4202D3824200F2F880841A65EB030211
:100D000001201746002EE2D0C6E90047DFE702B90E
:100D1000FFDEB2FA82F3002B40F090808A1A4FEA8D
:100D20001C471FFA8CFE0121B2FBF7F507FB1520CB
:100D3000220C42EA00420EFB05F0904208D91CEB5F
:100D4000020205F1FF3802D2904200F2CB80454604
:100D5000121AA4B2B2FBF7F007FB102244EA0244D5
:100D60000EFB00FEA64508D91CEB040400F1FF327F
:100D700002D2A64500F2BB801046A4EB0E0440EA66
:100D800005409FE7C1F120078B4022FA07FC4CEA9F
:100D9000030C05FA01F420FA07F3FD404FEA1C4961
:100DA0002343B5FBF9F81FFA8CFE09FB18551C0C00
:100DB00044EA054408FB0EF5A54202FA01F200FAE6
:100DC00001F00BD91CEB040408F1FF3A80F0888095
:100DD000A54240F28580A8F102086444641B9DB2DC
:100DE000B4FBF9F309FB134445EA044403FB0EFE8C
:100DF000A64508D91CEB040403F1FF356CD2A645C7
:100E00006AD9023B644443EA0843A3FB0295A4EB7E
:100E10000E04AC42C846AE4656D353D056B1B0EBE2
:100E2000080264EB0E0404FA07F7CA40CC401743EB
:100E3000C6E9007418460021BDE8F087C3F120011F
:100E400002FA03FC20FA01F225FA01F19D402A433F
:100E50004FEA1C471FFA8CFEB1FBF7F007FB101599
:100E6000110C41EA054100FB0EF58D4204FA03F432
:100E700008D91CEB010100F1FF382FD28D422DD98A
:100E800002386144491B92B2B1FBF7F507FB15111B
:100E900042EA014205FB0EF1914208D91CEB020225
:100EA00005F1FF3816D2914214D9023D6244521A1C
:100EB00045EA004138E73146304608E73946E6E67C
:100EC0001046FBE64845A9D2B9EB020865EB0C0ECB
:100ED000013BA3E74546EAE72B4694E74046D1E7C6
:100EE000D0467BE7023D624432E708460AE76444A5
:100EF000023842E7704700BF80B582B000AF04F00F
:100F0000AFFA00F067F900F05DFC00F031FC00F092
:100F1000BFF900F083FB00F087FA00F0E7F900F07A
:100F2000D7FA00F045FB0CF0A7F9002303220021BB
:100F30006F480BF054FF0C216E4806F015FC0021A1
:100F40006D4806F011FC04216B4806F00DFC3C21B5
:100F50006A4806F0A7FF6A4B1B789BB21A4669499C
:100F6000694808F0B8F9694806F0CCFA04216848E5
:100F700006F01CFD5F4B1B6891221A644FF49670BB
:100F800004F0B0FA634B64221A70624B0A225A8052
:100F9000614B00221A70604B00225A705F4B1A7826
:100FA0005D4B9A7000237B600CE064233B70002350
:100FB0007B80594A7B689B0013443A685A607B687F
:100FC00001337B60554B1B781A467B689342ECDB00
:100FD0009FED531ADFED530A9FED530A534801F07A
:100FE0008FF99FED4F1ADFED4F0A9FED4F0A5048E2
:100FF00001F086F99FED4F1ADFED4F0A9FED4F0A82
:101000004F4801F07DF93E4B1B789BB21A463D4993
:101010003D4808F060F9374B1B6891221A644FF481
:10102000967004F05FFA09F033F9464A0021464809
:1010300009F078F90346454A1360454A00214548BE
:1010400009F070F90346444A1360444A00214448B9
:1010500009F068F90346434A1360434A00214348B4
:1010600009F060F90346424A1360424A00214248AF
:1010700009F058F90346414A1360414A00214148AA
:1010800009F050F90346404A1360404A00214048A5
:1010900009F048F903463F4A13603F4A00213F48A0
:1010A00009F040F903463E4A13603E4A00213E489B
:1010B00009F038F903463D4A13603D4A00213D4896
:1010C00009F030F903463C4A13603C4A00213C4891
:1010D00009F028F903463B4A13603B4A00213B488C
:1010E00009F020F903463A4A136009F0F5F8FEE7E3
:1010F000BC01002010020020300300205802002014
:1011000000000020EC03002078030020E80200200B
:10111000A00200202C040020F80300200100002081
:10112000CDCC4C3FEC51383D66660640780400203B
:10113000640400209A99993ECDCC4C3DCDCC8C3F97
:101140008C040020C0DD000851310008BC030020E1
:10115000E4DD000861310008C003002008DE00085B
:1011600085310008C40300202CDE0008AD330008E0
:10117000C803002050DE0008D5350008CC0300204D
:1011800074DE0008E1390008D003002098DE000872
:10119000F93D0008D4030020BCDE0008F14100083E
:1011A000D8030020E0DE0008FD450008DC03002035
:1011B00004DF0008D1460008E003002028DF000813
:1011C000E54C0008E40300204CDF0008D54D000882
:1011D000E803002080B594B000AF07F1200330226F
:1011E000002118460CF008F907F10C0300221A60E0
:1011F0005A609A60DA601A610023BB60224B1B6C54
:10120000214A43F0805313641F4B1B6C03F080533F
:10121000BB60BB6800237B601C4B1B681B4A43F40C
:1012200080431360194B1B6803F480437B607B6829
:1012300002233B620123FB6210233B630023BB6359
:1012400007F12003184605F083FC0346002B01D06C
:1012500003F0DAFD0F23FB6000233B6100237B6179
:101260000023BB610023FB6107F10C03002118463A
:1012700005F0E6FE0346002B01D003F0C5FD00BFDC
:101280005037BD4680BD00BF0038024000700040AE
:1012900080B500AF124B134A1A60114B124A5A60C4
:1012A0000F4B00229A600E4B0022DA600C4B4FF479
:1012B00080421A610A4B00225A61094B00229A614E
:1012C000074B0022DA61064B00221A62044804F040
:1012D00057FC0346002B01D003F096FD00BF80BDF4
:1012E000BC01002000540040A086010080B596B0EB
:1012F00000AF07F1480300221A605A609A60DA6072
:1013000007F1400300221A605A6007F1240300220B
:101310001A605A609A60DA601A615A619A613B1DDC
:101320002022002118460CF067F83D4B3D4A1A6018
:101330003B4BA0225A603A4B00229A60384B4FF444
:101340007A72DA60364B00221A61354B00225A61FC
:10135000334B80229A61324806F084F80346002B12
:1013600001D003F051FD4FF48053BB6407F14803F3
:1013700019462B4807F08AF80346002B01D003F0EA
:1013800043FD274806F096F90346002B01D003F0F1
:101390003BFD00233B6400237B6407F140031946B7
:1013A0001F4807F0D7FD0346002B01D003F02CFDAA
:1013B00060237B620023BB620023FB6200237B630C
:1013C0000023BB630023FB6307F124030C221946AF
:1013D000134806F099FF0346002B01D003F014FDDB
:1013E00000237B600023BB600023FB6000233B6184
:1013F00000237B614FF40053BB6100233B623B1D24
:101400001946074807F022FE0346002B01D003F0DF
:10141000FBFC034803F092FE00BF5837BD4680BD79
:10142000100200200000014080B58CB000AF07F131
:101430000C032422002118460BF0DEFF3B1D002286
:101440001A605A60214B4FF080421A601F4B0022F5
:101450005A601E4B00229A601C4B4FF6FF72DA60F6
:101460001A4B00221A61194B00229A610323FB6078
:1014700000233B6101237B610023BB610A23FB61E5
:1014800000233B6201237B620023BB620A23FB62D1
:1014900007F10C0319460D4806F05EFC0346002BCD
:1014A00001D003F0B1FC00237B600023BB603B1D37
:1014B0001946064807F04EFD0346002B01D003F005
:1014C000A3FC00BF3037BD4680BD00BF58020020DE
:1014D00080B58AB000AF07F1180300221A605A6085
:1014E0009A60DA6007F1100300221A605A603B46E6
:1014F00000221A605A609A60DA602B4B2B4A1A60FD
:10150000294B0F225A60284B00229A60264B4FF637
:10151000FF72DA60244B00221A61234B00229A6189
:10152000214805F09FFF0346002B01D003F06CFC1F
:101530004FF48053BB6107F1180319461A4806F0AF
:10154000A5FF0346002B01D003F05EFC164806F011
:10155000D3F90346002B01D003F056FC00233B6176
:1015600000237B6107F1100319460F4807F0F2FCD6
:101570000346002B01D003F047FC0A233B60012304
:101580007B600023BB600023FB603B4604221946BE
:10159000054806F01DFE0346002B01D003F034FC85
:1015A00000BF2837BD4680BDA002002000040040D7
:1015B00080B582B000AF3B4600221A605A60154BDE
:1015C000154A1A60134B0F225A60124B00229A6080
:1015D000104B4FF6FF72DA600E4B00229A610D48F5
:1015E00005F040FF0346002B01D003F00DFC002363
:1015F0003B6000237B603B461946064807F0AAFC87
:101600000346002B01D003F0FFFB00BF0837BD46A7
:1016100080BD00BFE80200200010004080B596B0F9
:1016200000AF07F1480300221A605A609A60DA603E
:1016300007F1400300221A605A6007F124030022D8
:101640001A605A609A60DA601A615A619A613B1DA9
:101650002022002118460BF0CFFE434B434A1A606C
:10166000414B00225A60404B00229A603E4B41F6AB
:101670001F42DA603C4B00221A613B4B00225A6148
:10168000394B00229A61384805F0ECFE0346002BE6
:1016900001D003F0B9FB4FF48053BB6407F148035A
:1016A0001946314806F0F2FE0346002B01D003F044
:1016B000ABFB2D4805F0FEFF0346002B01D003F0E5
:1016C000A3FB00233B6400237B6407F1400319461E
:1016D000254807F03FFC0346002B01D003F094FBA4
:1016E00060237B620023BB620023FB6200233B6319
:1016F00000237B630023BB630023FB6307F1240308
:1017000000221946184806F0FFFD0346002B01D0C1
:1017100003F07AFB07F1240304221946124806F06D
:10172000F3FD0346002B01D003F06EFB00237B602A
:101730000023BB600023FB6000233B6100237B612F
:101740004FF40053BB6100233B623B1D1946064822
:1017500007F07CFC0346002B01D003F055FB00BFD3
:101760005837BD4680BD00BF300300200004014053
:1017700080B500AF114B124A1A60104B4FF4E132A2
:101780005A600E4B00229A600C4B0022DA600B4B21
:1017900000221A61094B0C225A61084B00229A61FF
:1017A000064B0022DA61054807F0B6FC0346002B21
:1017B00001D003F029FB00BF80BD00BF78030020EB
:1017C0000048004080B58AB000AF07F11403002242
:1017D0001A605A609A60DA601A6100233B61384BE4
:1017E0001B6B374A43F010031363354B1B6B03F03D
:1017F00010033B613B690023FB60314B1B6B304A9C
:1018000043F0010313632E4B1B6B03F00103FB60DA
:10181000FB680023BB602A4B1B6B294A43F004037F
:101820001363274B1B6B03F00403BB60BB680023EF
:101830007B60234B1B6B224A43F002031363204B54
:101840001B6B03F002037B607B6800224FF45E6138
:101850001C4804F07BF900223C211B4804F076F977
:101860004FF45E637B610123BB610023FB610023B6
:101870003B6207F114031946124803F0CBFF0C2317
:101880007B610123BB610023FB6102233B6207F103
:10189000140319460C4803F0BDFF30237B6101237C
:1018A000BB610023FB6100233B6207F1140319466F
:1018B000054803F0AFFF00BF2837BD4680BD00BF1D
:1018C000003802400010024000000240000000000A
:1018D00080B582B000AF78607B681B7F022B40F040
:1018E0008C804B4B1B78002B1AD10421786806F0B2
:1018F00095FE0346474A1360454B01221A707B68E8
:101900001B681A6A7B681B6822F0A0021A627B6857
:101910001B681A6A7B681B6842F020021A626CE03E
:101920003B4B1B78012B68D10421786806F076FECA
:101930000346394A13607B681B6800225A62364BA3
:101940001A68344B1B689A420CD9334B1A68314BD6
:101950001B68D31A07EE903AF8EE677A2F4BC3ED67
:10196000007A14E02B4B1A682B4B1B689A420ED955
:10197000294B1A68274B1B68D31A03F57F43FF33A3
:1019800007EE903AF8EE677A244BC3ED007A234BCA
:101990001B681846FEF7D0FD1BA3D3E90023FEF712
:1019A00023FE02460B46104619464FF000024FF048
:1019B0008043FEF743FF02460B4610461946FFF7E9
:1019C000CDF80346154A1360114B00221A707B684C
:1019D0001B681A6A7B681B6822F0A0021A627B6887
:1019E0001A687B681B68126A1A620D4B1B68DA68FA
:1019F0000B4B1B6822F00402DA6000BF0837BD46BB
:101A000080BD00BFAFF300809CC420B07268A13FCE
:101A1000AC040020A4040020A8040020A00400209E
:101A2000A002002080B584B000AF7860944B9B7812
:101A3000A3F1300213469B0013445B001A46904BFF
:101A4000DB78303B1344FB608D4B1B792F2B0ED979
:101A50008B4B1B79392B0AD8FA6813469B00134429
:101A60005B001A46864B1B79303B1344FB60854B69
:101A700000221A70824B1B78532B59D1804B5B7814
:101A8000542B55D1804B1B6800225A637E4B1B6838
:101A900000229A637D4B1A787D4B1A707B4B0B2288
:101AA0001A707C4B4FF000021A607B4B00221A80A8
:101AB0007A4800F046FC7A4800F043FC794800F090
:101AC00040FC794B00221A80784B1A78774B5B7870
:101AD0009A4212D1764B64221A70754B00225A80BA
:101AE000744A0F2174480BF053FC4FF6FF73062223
:101AF0007249734807F05DFBC5E36C4B5B786C4A39
:101B00006A499B000B445B681360684B5B78013348
:101B1000664A927893FBF2F101FB02F29B1ADAB269
:101B2000624B5A70674A0F2163480BF031FCAAE3FD
:101B3000534B1B78522B61D1514B5B78532B5DD1AA
:101B4000514B1B6800225A634F4B1B6800229A635B
:101B50004E4B1A784E4B1A704C4B0B221A704D4B51
:101B60004FF000021A604C4B00221A80564B1B6843
:101B700091221A644FF4967003F0B4FC474800F0C9
:101B8000E0FB474800F0DDFB464800F0DAFB464B3F
:101B900000221A80454B1A78444B5B789A4212D146
:101BA000434B64221A70424B00225A80414A0F2153
:101BB00041480BF0EDFB4FF6FF7306223F494048CA
:101BC00007F0F7FA5FE3394B5B78394A37499B00F6
:101BD0000B445B681360354B5B780133334A927872
:101BE00093FBF2F101FB02F29B1ADAB22F4B5A700F
:101BF000344A0F2130480BF0CBFB44E3204B1B78D9
:101C0000462B65D11E4B5B78572B03D01C4B5B7862
:101C1000532B5DD11A4B9B782D2B05D1184BDB78BC
:101C20002D2B01D1012300E00023DAB2154B1A70ED
:101C3000134B5B78532B14BF01230023DBB21A46EE
:101C4000224B1A70194B1B78184A9B00134401222F
:101C50001A71164B1B78FA6891B2144A9B00134410
:101C60000A46DA80114B1B780133104A927893FBB5
:101C7000F2F101FB02F29B1ADAB20C4B1A7002E38A
:101C8000EC03002040040020300300203401002039
:101C900035010020480400204E0400207804002074
:101CA000640400208C0400205C040020F803002061
:101CB0002C04002090DD00083004002098DD00088E
:101CC00078030020A0DD000810020020360100206B
:101CD000964B1B78422B3DD1944B5B78572B03D00E
:101CE000924B5B78532B35D1904B9B782D2B05D1A4
:101CF0008E4BDB782D2B01D1012300E00023DAB2DB
:101D00008B4B1A70894B5B78532B14BF0123002334
:101D1000DBB21A46874B1A70874B1B78864A9B00AA
:101D2000134402221A71844B1B78FA6891B2824ADA
:101D30009B0013440A46DA807F4B1B7801337E4AAE
:101D4000927893FBF2F101FB02F29B1ADAB27A4B22
:101D50001A7098E2754B1B78462B36D1734B5B7823
:101D60004C2B32D1714B9B782D2B05D16F4BDB78EF
:101D70002D2B01D1012300E00023DAB26C4B1A7045
:101D80006B4B1B78002B01D0032100E007216A4B2D
:101D90001B78694A9B0013440A461A71664B1B78EC
:101DA000FA6891B2644A9B0013440A46DA80624B97
:101DB0001B780133604A927893FBF2F101FB02F247
:101DC0009B1ADAB25C4B1A705DE2584B1B78462BBB
:101DD00036D1564B5B78522B32D1544B9B782D2BFE
:101DE00005D1524BDB782D2B01D1012300E00023DC
:101DF000DAB24F4B1A704E4B1B78002B01D00421E6
:101E000000E008214C4B1B784B4A9B0013440A46C8
:101E10001A71494B1B78FA6891B2474A9B001344E8
:101E20000A46DA80444B1B780133434A927893FB8D
:101E3000F2F101FB02F29B1ADAB23F4B1A7022E276
:101E40003A4B1B78422B36D1384B5B784C2B32D136
:101E5000364B9B782D2B05D1344BDB782D2B01D1C4
:101E6000012300E00023DAB2314B1A70304B1B78AB
:101E7000002B01D0052100E009212F4B1B782E4AB1
:101E80009B0013440A461A712B4B1B78FA6891B2D7
:101E9000294A9B0013440A46DA80274B1B780133FA
:101EA000254A927893FBF2F101FB02F29B1ADAB217
:101EB000214B1A70E7E11D4B1B78422B3ED11B4B87
:101EC0005B78522B3AD1194B9B782D2B05D1174BB0
:101ED000DB782D2B01D1012300E00023DAB2144B73
:101EE0001A70134B1B78002B01D0062100E00A2149
:101EF000114B1B78104A9B0013440A461A710E4B73
:101F00001B78FA6891B20C4A9B0013440A46DA80A7
:101F1000094B1B780133084A927893FBF2F101FBDD
:101F200002F29B1ADAB2044B1A70ACE1EC03002007
:101F30004004002036010020F8030020974B1B7856
:101F4000542B21D1954B5B784C2B1DD1944B1B7896
:101F5000934A9B0013440B221A71914B1B78FA6829
:101F600091B28F4A9B0013440A46DA808C4B1B784F
:101F700001338B4A927893FBF2F101FB02F29B1A38
:101F8000DAB2874B1A707EE1844B1B78542B21D137
:101F9000824B5B78522B1DD1814B1B78804A9B0072
:101FA00013440C221A717E4B1B78FA6891B27C4A5A
:101FB0009B0013440A46DA80794B1B780133784A38
:101FC000927893FBF2F101FB02F29B1ADAB2744BA6
:101FD0001A7058E1714B1B78492B21D16F4B5B78FC
:101FE000522B1DD16E4B1B786D4A9B0013440D2262
:101FF0001A716B4B1B78FA6891B2694A9B001344C3
:102000000A46DA80664B1B780133654A927893FB67
:10201000F2F101FB02F29B1ADAB2614B1A7032E163
:102020005E4B1B78442B21D15C4B5B78542B1DD12C
:102030005B4B1B785A4A9B0013440E221A71584B73
:102040001B78FA6891B2564A9B0013440A46DA801C
:10205000534B1B780133524A927893FBF2F101FB08
:1020600002F29B1ADAB24E4B1A700CE14B4B1B7802
:102070005A2B21D1494B5B785A2B1DD1484B1B78E9
:10208000474A9B0013440F221A71454B1B78FA688C
:1020900091B2434A9B0013440A46DA80404B1B78B6
:1020A00001333F4A927893FBF2F101FB02F29B1A53
:1020B000DAB23B4B1A70E6E0384B1B78572B21D134
:1020C000364B5B78582B1DD1354B1B78344A9B001F
:1020D000134410221A71324B1B78FA6891B2304ABD
:1020E0009B0013440A46DA802D4B1B7801332C4A9F
:1020F000927893FBF2F101FB02F29B1ADAB2284BC1
:102100001A70C0E0254B1B78572B21D1234B5B78ED
:102110004E2B1DD1224B1B78214A9B0013441122C8
:102120001A711F4B1B78FA6891B21D4A9B00134429
:102130000A46DA801A4B1B780133194A927893FBCE
:10214000F2F101FB02F29B1ADAB2154B1A709AE017
:10215000124B1B78462B25D1104B5B78412B21D19C
:102160000F4B1B780E4A9B00134458221A710C4BDC
:102170001B78FA6891B20A4A9B0013440A46DA8037
:10218000074B1B780133064A927893FBF2F101FB6F
:1021900002F29B1ADAB2024B1A7074E0EC030020D0
:1021A000F80300204F4B1B78462B21D14D4B5B7819
:1021B000432B1DD14C4B1B784B4A9B001344592297
:1021C0001A71494B1B78FA6891B2474A9B00134435
:1021D0000A46DA80444B1B780133434A927893FBDA
:1021E000F2F101FB02F29B1ADAB23F4B1A704AE09D
:1021F0003C4B1B78422B21D13A4B5B78412B1DD1B4
:10220000394B1B78384A9B0013445A221A71364BBB
:102210001B78FA6891B2344A9B0013440A46DA806C
:10222000314B1B780133304A927893FBF2F101FB7A
:1022300002F29B1ADAB22C4B1A7024E0294B1B785D
:10224000422B20D1274B5B78432B1CD1264B1B788C
:10225000254A9B0013445B221A71234B1B78FA68B2
:1022600091B2214A9B0013440A46DA801E4B1B7828
:1022700001331D4A927893FBF2F101FB02F29B1AA3
:10228000DAB2194B1A70184B1A78174B5B789A42CE
:1022900019D0154B5B78154A13499B000B445B68BA
:1022A0001360114B5B7801330F4A927893FBF2F184
:1022B00001FB02F29B1ADAB20B4B5A700C4A0F2147
:1022C0000C480BF065F80C4B1B685B680B4B1B78DC
:1022D0009BB21A460349084806F0FDFF00BF1037BD
:1022E000BD4680BDEC030020F80300202C04002034
:1022F000A0DD00083004002078030020000000204A
:1023000080B485B000AFF86087ED020AC7ED010A1E
:1023100087ED001AFB68BA681A60FB687A685A6031
:10232000FB683A689A60FB684FF00002DA60FB686D
:102330004FF000021A6100BF1437BD465DF8047B00
:10234000704780B483B000AF78607B684FF00002C4
:10235000DA607B684FF000021A6100BF0C37BD469F
:102360005DF8047B7047000080B500AF00224FF499
:1023700000611A4803F0EAFB194B1B6800225A62FD
:10238000174B1B685B6A312BFAD901224FF40061AD
:10239000124803F0DBFB124B1B6800225A62104B01
:1023A0001B685B6A092BFAD900224FF400610B48C5
:1023B00003F0CCFB0A4B1B6800225A62084B1B68D7
:1023C0005B6A312BFAD9074B1B68DA68054B1B682F
:1023D00042F00402DA6000BF80BD00BF001002407E
:1023E000E8020020A002002080B586B004AF0346BA
:1023F000FB714FF6FF73029302230193A94B0093E5
:1024000001233722D021A84803F0F8FDA54B1B7803
:102410001B021AB2A34B5B781BB213431AB2A34B35
:102420001A80A34B1B681B6803F01003102B0CBF12
:1024300001230023DBB25AB29E4B1A709B4BB3F9B7
:10244000003013F1040F04DB984BB3F900300B2B71
:1024500007DD964BB3F9003007EE903AF8EEE77AD5
:1024600001E0DFED957A954B93ED007A77EE877A70
:10247000924BC3ED007AFB79002B64D1904B93ED26
:10248000007A8E4BD3ED007A27EE277A8C4BD3ED72
:10249000016A8B4BD3ED047A66EEA77A37EE277A82
:1024A000874BD3ED026A864B93ED036A834BD3EDE2
:1024B000007A76EE677A66EEA77A77EE277AFDEEF7
:1024C000E77A17EE902A7F4B1A607C4B1B687C4A98
:1024D000D3607B4B93ED047A784BD3ED007A77EEA3
:1024E000277A774BC3ED047A764B1B68B3F5167FDA
:1024F00006DC744B1B68744A9342B8BF134601E074
:102500004FF416736F4A13606A4B93F900309AB216
:102510006C4B1B689BB212FB03F39BB203F59663F3
:102520009AB26A4B1A80634B93F900309AB2654BAA
:102530001B689BB212FB03F39BB2C3F596639AB27E
:10254000634B1A80EFE0FB79022B65D1614B93ED71
:10255000007A5A4BD3ED007A27EE277A5D4BD3ED04
:10256000016A5C4BD3ED047A66EEA77A37EE277AE0
:10257000584BD3ED026A574B93ED036A4F4BD3EDA3
:10258000007A76EE677A66EEA77A77EE277AFDEE26
:10259000E77A17EE902A4B4B1A60484B1B684D4A5E
:1025A000D3604C4B93ED047A444BD3ED007A77EE35
:1025B000277A484BC3ED047A424B1B68B3F52F7F53
:1025C00006DC404B1B68444A9342B8BF134601E007
:1025D0004FF42F733B4A1360364B93F900309AB295
:1025E000384B1B689BB212FB03F39BB203F6B83364
:1025F0009AB2364B1A802F4B93F900309AB2314B76
:102600001B689BB212FB03F39BB2C3F53B63083319
:102610009AB22F4B1A8086E0FB79012B40F0838021
:102620002E4B93ED007A254BD3ED007A27EE277AD7
:102630002A4BD3ED016A294BD3ED047A66EEA77AD3
:1026400037EE277A254BD3ED026A244B93ED036ACC
:102650001A4BD3ED007A76EE677A66EEA77A77EEBC
:10266000277AFDEEE77A17EE902A164B1A60134B85
:102670001B681A4AD360194B93ED047A0F4BD3EDC4
:10268000007A77EE277A154BC3ED047A0D4B1B6861
:10269000B3F52F7F24DC0B4B1B680F4A9342B8BF66
:1026A00013461FE04C040020BC0100204E04002013
:1026B000580200203C0100200000000048040020D7
:1026C00078040020B4040020A8FDFFFF500400207F
:1026D000520400208C04002044FDFFFF640400200D
:1026E0004FF42F73174A1360174B93F900309AB2C7
:1026F000144B1B689BB212FB03F39BB203F6FC0363
:102700009AB2124B1A80104B93F900309AB20D4BCB
:102710001B689BB212FB03F39BB2C3F50F630C3330
:102720009AB20B4B1A80094B1A880A4B1B685A63E2
:10273000074B1A88074B1B689A6300BF0837BD46D2
:1027400080BD00BFB40400203C01002050040020E4
:10275000520400203003002080B584B000AF7860C0
:102760000B46FB701346BB70A34B4FF000021A6080
:10277000A24B00221A80A248FFF7E3FDA148FFF711
:10278000E0FDA148FFF7DDFDA04B00221A80A04B21
:1027900000221A809D4B00221A807B681B68184615
:1027A000FDF7CAFE8EA3D3E90023FDF71DFF024605
:1027B0000B46104619468CA3D3E90023FDF75CFDB8
:1027C00002460B46104619464FF00002914BFEF7A9
:1027D00035F802460B46104619464FF000028E4B64
:1027E000FDF702FF02460B46104619464FF0000265
:1027F0008A4BFDF741FD02460B4610461946FEF78F
:102800008DF903469AB2864B1A8002F05FFE0346AA
:10281000844A1360FB78002B0CBF01230023DBB23A
:102820001A460421804803F091F9FB78002B14BF6D
:1028300001230023DBB21A4608217B4803F086F906
:10284000FB78002B0CBF01230023DBB21A462021AA
:10285000754803F07BF9FB78002B14BF012300239C
:10286000DBB21A461021704803F070F96F4B1B68F9
:102870005B6A9AB26E4B1A806C4B1B685B6AFB609A
:102880006A4B1B681B6803F01003102B17D1684BB1
:102890001B881A46FB68934206D8654B1A88FB686A
:1028A0009BB2D31A9BB207E0614B1A88FB689BB2BC
:1028B000D31A9BB2013B9BB2554A138016E05C4B86
:1028C0001B881A46FB68934206D3FB689AB2584BA2
:1028D0001B88D31A9BB207E0FB689AB2544B1B8843
:1028E000D31A9BB2013B9BB2494A1380FB689AB250
:1028F0004F4B1A80454B1A88454B1B8813449AB29C
:10290000424B1A80414B1A88454B1B889A4280F0F3
:10291000A68002F0DBFD0246424B1B68D31A092B4E
:10292000AAD9BB78002B03D10020FFF75DFD90E012
:10293000364B1B881A463A4B1B88D31A002BB8BF5C
:102940005B423C4A82FB0312D211DB17D31A07EE1B
:10295000903AF8EEE77A384BC3ED007ABB78012B5A
:102960001ED1354BD3ED007AB7EE007AF4EEC77A7C
:10297000F1EE10FA02DD4FF07E530EE02E4BD3ED58
:10298000007AB6EE087AF4EEC77AF1EE10FA02D5C4
:102990004FF07D5301E0284B1B68274A136053E03A
:1029A000BB78022B50D1244BD3ED007AB7EE007ADE
:1029B000F4EEC77AF1EE10FA02DD4FF07E5341E0FB
:1029C0001D4B1B681846FDF7B7FD09A3D3E900238B
:1029D000FEF77CF80346002B32D0184B32E000BFE4
:1029E0002AB266FCAC66F23FF82625BBD4E3EE3F84
:1029F0009A9999999999D93F480400204E0400204A
:102A000078040020640400208C0400205C04002072
:102A1000600400200000344000A0944000002440E6
:102A20005E040020540400200000024058020020F0
:102A3000620400206757192138010020CDCCCC3E1C
:102A40000D4B1B680C4A1360BB780B49184600F00D
:102A500019F802F03BFD0346084A13600CE700BF7B
:102A6000074B1B6800225A63054B1B6800229A63C0
:102A700000BF1037BD4680BD38010020540400203F
:102A80003003002080B586B004AF03463960FB7187
:102A90004FF6FF730293022301939B4B0093012394
:102AA0003722D021994803F0A9FA974B1B781B02D3
:102AB0001AB2954B5B781BB213431AB2944B1A802F
:102AC000944B1B681B6803F01003102B01D10122EB
:102AD00001E04FF0FF32904B1A708D4BB3F900308C
:102AE00013F1040F04DB8A4BB3F900300B2B07DD25
:102AF000874BB3F9003007EE903AF8EEE77A01E041
:102B0000DFED867A864B93ED007A77EE877A844BF9
:102B1000C3ED007AFB79012B65D1824B93ED007AEE
:102B20007F4BD3ED007A27EE277A7E4BD3ED016AF7
:102B30007C4BD3ED047A66EEA77A37EE277A794B91
:102B4000D3ED026A774B93ED036A754BD3ED007AB0
:102B500076EE677A66EEA77A77EE277AFDEEE77A69
:102B600017EE902A704B1A606D4B1B686D4AD3604C
:102B70006C4B93ED047A6A4BD3ED007A77EE277AAB
:102B8000684BC3ED047A684B1B68B3F52F7F06DCF6
:102B9000654B1B68654A9342B8BF134601E04FF48A
:102BA0002F73614A13605C4B93F900309AB25E4B0D
:102BB0001B689BB212FB03F39BB203F6FC039AB2B1
:102BC0005B4B1A80544B93F900309AB2564B1B68FA
:102BD0009BB212FB03F39BB2C3F50F630C339AB2A3
:102BE000544B1A8067E0FB79022B64D1524B93ED72
:102BF000007A4B4BD3ED007A27EE277A4E4BD3ED7C
:102C0000016A4D4BD3ED047A66EEA77A37EE277A48
:102C1000494BD3ED026A484B93ED036A404BD3ED29
:102C2000007A76EE677A66EEA77A77EE277AFDEE7F
:102C3000E77A17EE902A3C4B1A60394B1B683E4AE4
:102C4000D3603D4B93ED047A354BD3ED007A77EEAC
:102C5000277A394BC3ED047A334B1B68B3F52F7FCA
:102C600006DC314B1B68314A9342B8BF134601E082
:102C70004FF42F732C4A1360274B93F900309AB20C
:102C8000294B1B689BB212FB03F39BB203F6B833CC
:102C90009AB2274B1A80204B93F900309AB2224BFC
:102CA0001B689BB212FB03F39BB2C3F53B63083373
:102CB0009AB2204B1A801E4B1B8807EE903AB8EE52
:102CC000E77A3B68D3ED007A67EE277A1B4B1B68E7
:102CD000FCEEE77A17EE902A5A63164B1B8807EE34
:102CE000903AB8EEE77A3B68D3ED007A67EE277A40
:102CF000124B1B68FCEEE77A17EE902A9A6300BF2E
:102D00000837BD4680BD00BF4C040020BC01002038
:102D10004E040020580200203C010020000000006A
:102D20004804002064040020B404002044FDFFFF98
:102D300050040020520400208C04002030030020A6
:102D4000B0B586B004AF78604B4B4FF000021A600C
:102D50004A4B00221A8002F0B9FB0346484A13602E
:102D600002F0B4FB0246464B1B68D31A092BF7D975
:102D70004FF6FF73029302230193424B009301230A
:102D80003722D021404803F039F93E4B1B781B0213
:102D90001AB23C4B5B781BB213431AB2374B1A8002
:102DA000354B1B681846FDF7C7FB04460D46334BF1
:102DB000B3F900301846FDF7ADFB2BA3D3E9002390
:102DC000FDF73CFD02460B461046194628A3D3E901
:102DD0000023FDF709FC02460B4620462946FDF775
:102DE0004DFA02460B4610461946FDF7B7FE03465C
:102DF000214A1360204B93ED007A7B68D3ED007A73
:102E000077EE677AFDEEE77A17EE903A002B0DDB4E
:102E1000194B93ED007A7B68D3ED007A77EE677AF1
:102E2000FDEEE77A17EE903A002B05DD02F04EFB3F
:102E30000346134A136093E700BF144B1B6800223C
:102E40005A63124B1B6800229A63114B1B68912234
:102E50001A644FF4967002F045FB00BF0837BD4678
:102E6000B0BD00BFAFF30080666666666666304040
:102E70007B14AE47E17A843F480400204E040020D2
:102E8000540400204C040020BC010020300300202A
:102E9000100200200000000080B582B000AF786012
:102EA0000B46FB709C4B4FF000021A609B4B0022BC
:102EB0001A809B48FFF745FA9A48FFF742FA9A486A
:102EC000FFF73FFA994B9A4A1A600421994804F097
:102ED0006DFD02F0FBFA0346974A1360FFF744FAD0
:102EE0000A2007F0B1FA7B6893ED007A8F4BD3ED9F
:102EF000007A77EE677AFDEEE77A17EE903A002BCC
:102F00000EDB7B6893ED007A884BD3ED007A77EE89
:102F1000677AFDEEE77A17EE903A002B40F3E680F1
:102F20007B6893ED007A814BD3ED007AB4EEE77ABB
:102F3000F1EE10FA94BF01230023DBB283F001030A
:102F4000DBB2DBB21A4604217C4802F0FFFD7B684D
:102F500093ED007A754BD3ED007AB4EEE77AF1EE9B
:102F600010FA94BF01230023DBB21A4608217348EC
:102F700002F0ECFD7B6893ED007A6C4BD3ED007AA8
:102F8000B4EEE77AF1EE10FA94BF01230023DBB22E
:102F900083F00103DBB2DBB21A462021674802F05E
:102FA000D5FD7B6893ED007A604BD3ED007AB4EEEB
:102FB000E77AF1EE10FA94BF01230023DBB21A4640
:102FC00010215E4802F0C2FD02F080FA02465A4B20
:102FD0001B68D31A132B81D9FB78012B3FD1534B9C
:102FE00093ED007A7B68D3ED007A77EE677AFDEE99
:102FF000E77A17EE903A002BB8BF5B42504A82FB4B
:1030000003121A44D210DB17D31A07EE903AF8EEE7
:10301000E77A4C4BC3ED007A4A4BD3ED007AB7EE1A
:10302000007AF4EEC77AF1EE10FA02DD4FF07E532B
:103030000EE0444BD3ED007AB6EE087AF4EEC77A90
:10304000F1EE10FA02D54FF07D5301E03D4B1B68C5
:103050003C4A13603B490120FFF714FD40E0334B2D
:1030600093ED007A7B68D3ED007A77EE677AFDEE18
:10307000E77A17EE903A002BB8BF5B42304A82FBEA
:1030800003121A44D210DB17D31A07EE903AF8EE67
:10309000E77A2C4BC3ED007A2A4BD3ED007AB7EEDA
:1030A000007AF4EEC77AF1EE10FA02DD4FF07E53AB
:1030B00010E0244B1B681846FDF73EFA14A3D3E931
:1030C0000023FDF703FD0346002B01D01E4B01E05A
:1030D0001C4B1B681B4A13601A490220FFF7D2FCE5
:1030E00002F0F4F90346144A1360F7E600BF174BE9
:1030F0001B6800225A63154B1B6800229A63042147
:103100000C4804F07BFD00BF0837BD4680BD00BF02
:103110009A9999999999D93F480400204E04002022
:1031200078040020640400208C040020A004002007
:1031300000007A44A0020020540400200000024055
:103140008988888838010020CDCCCC3E300300200F
:1031500080B582B000AF7860642007F075F9FBE7B6
:1031600080B582B000AF7860054A282100200AF0BF
:1031700051F809F0DBFE642007F066F9F4E700BFC0
:10318000EC03002080B582B000AF7860714B1B78F3
:10319000002B04D04FF47A7007F056F9F6E76E4B27
:1031A0004FF000021A606D4B00221A806C4B1B78A6
:1031B000002B61D06B4B4FF000021A606A4B00226B
:1031C0001A806A48FFF7BDF86948FFF7BAF86948FE
:1031D000FFF7B7F800220421674802F0B7FC01228C
:1031E0000821654802F0B2FC00222021624802F06A
:1031F000ADFC01221021604802F0A8FC5F4B1B6867
:1032000000225A635D4B1B6800229A63514B1A7867
:103210005B4B1A704F4B0B221A705A4B00221A60EC
:10322000594B64221A70584B00225A80574A0F217A
:1032300057480AF0ADF84FF6FF7306225549564835
:1032400005F0B7FF02F042F90346544A1360444BBD
:103250001B78002B7BD002F039F902464F4B1B68DC
:10326000D31A092BF3D90020FFF7BEF802F02EF98C
:1032700003464A4A1360EAE7434B5B8807EE903AFD
:10328000F8EE677A344BC3ED007A334BD3ED007A16
:10329000B2EE0E7AF4EEC77AF1EE10FA02D8404B95
:1032A00000221A703E4B1B78002B05D10022012111
:1032B0002948FFF751FA04E0022201212648FFF7CE
:1032C0004BFA2E4B1B6800225A632C4B1B680022C2
:1032D0009A63204B1A782A4B1A701E4B0B221A70D5
:1032E000284B00221A602F4B1A782E4B5B789A429B
:1032F00012D1254B64221A70234B00225A80234A94
:103300000F2123480AF044F84FF6FF7306222149A3
:10331000214805F04EFF39E7224B5B781A4A2149D4
:103320009B000B445B6813601E4B5B7801331D4AA6
:10333000927893FBF2F101FB02F29B1ADAB2194B7D
:103340005A70194A0F2112480AF022F81EE700BFEE
:103350001CE700BF34010020580400205E04002058
:1033600040040020480400204E040020780400207F
:10337000640400208C040020000002403003002080
:1033800035010020B00400202C04002090DD00084E
:103390003004002098DD0008780300205404002049
:1033A00036010020F8030020A0DD000880B582B0BF
:1033B00000AF7860714B1B78012B04D04FF47A700A
:1033C00007F042F8F6E76E4B4FF000021A606D4BC3
:1033D00000221A806C4B1B78002B61D06B4B4FF096
:1033E00000021A606A4B00221A806A48FEF7A9FFA1
:1033F0006948FEF7A6FF6948FEF7A3FF01220421F2
:10340000674802F0A3FB00220821654802F09EFBFA
:1034100001222021624802F099FB0022102160481D
:1034200002F094FB5F4B1B6800225A635D4B1B68E4
:1034300000229A63514B1A785B4B1A704F4B0B2248
:103440001A705A4B00221A60594B64221A70584B5A
:1034500000225A80574A0F21574809F099FF4FF62A
:10346000FF7306225549564805F0A3FE02F02EF8D8
:103470000346544A1360444B1B78002B7BD002F068
:1034800025F802464F4B1B68D31A092BF3D90020AD
:10349000FEF7AAFF02F01AF803464A4A1360EAE769
:1034A000434B5B8807EE903AF8EE677A344BC3EDF6
:1034B000007A334BD3ED007AB2EE0E7AF4EEC77A8F
:1034C000F1EE10FA02D8404B00221A703E4B1B78E6
:1034D000002B05D1012200212948FFF73DF904E026
:1034E000022200212648FFF737F92E4B1B680022E5
:1034F0005A632C4B1B6800229A63204B1A782A4B84
:103500001A701E4B0B221A70284B00221A602F4B88
:103510001A782E4B5B789A4212D1254B64221A708E
:10352000234B00225A80234A0F21234809F030FF01
:103530004FF6FF7306222149214805F03AFE39E78C
:10354000224B5B781A4A21499B000B445B6813604D
:103550001E4B5B7801331D4A927893FBF2F101FB1D
:1035600002F29B1ADAB2194B5A70194A0F2112480B
:1035700009F00EFF1EE700BF1CE700BF340100206A
:10358000580400205E04002040040020480400206D
:103590004E04002078040020640400208C040020E5
:1035A000000002403003002035010020B00400205C
:1035B0002C04002090DD00083004002098DD000875
:1035C000780300205404002036010020F803002076
:1035D000A0DD000880B582B000AF7860944B1B7806
:1035E000022B04D04FF47A7006F02EFFF6E7914BD1
:1035F0005B88142B00F083801E2B40F0F8808E4BEC
:103600008E4A1A60002201218B48FFF7A5F88C4BE7
:10361000D3ED3D7A9FED8B7AF4EEC77AF1EE10FA96
:1036200002DD40F2091312E0854BD3ED3D7A9FEDA8
:10363000867AF4EEC77AF1EE10FA01D5462306E059
:103640007F4BD3ED3D7AFCEEE77A17EE903A7F4A56
:10365000126813644FF4967001F044FF784BD3F86E
:10366000F8307B4A1360764B93F8FC30002B0CBF8C
:1036700001230023DBB21A460421764802F066FAE1
:103680006F4B93F8FC30002B14BF01230023DBB2F7
:103690001A4608216F4802F059FA694B93F8FC303A
:1036A000002B0CBF01230023DBB21A4620216948FE
:1036B00002F04CFA624B93F8FC30002B14BF01234C
:1036C0000023DBB21A461021624802F03FFA5C4B3D
:1036D000B3F8F020604B1B685A63594BB3F8F220E3
:1036E0005D4B1B689A635A48FFF72AFB524B5B4AB3
:1036F0001A60002200215048FFF72EF811E14E4BCE
:103700004E4A1A60002201214B48FFF725F84C4B26
:10371000D3ED2D7A9FED4B7AF4EEC77AF1EE10FAE5
:1037200002DD40F2091312E0454BD3ED2D7A9FEDF7
:10373000467AF4EEC77AF1EE10FA01D5462306E098
:103740003F4BD3ED2D7AFCEEE77A17EE903A3F4AE5
:10375000126813644FF4967001F0C4FE384BD3F82E
:10376000B8303B4A1360364B93F8BC30002B0CBF8B
:1037700001230023DBB21A460421364802F0E6F9A1
:103780002F4B93F8BC30002B14BF01230023DBB276
:103790001A4608212F4802F0D9F9294B93F8BC307A
:1037A000002B0CBF01230023DBB21A46202129483D
:1037B00002F0CCF9224B93F8BC30002B14BF01234C
:1037C0000023DBB21A461021224802F0BFF91C4B3D
:1037D000B3F8B020204B1B685A63194BB3F8B220E2
:1037E0001D4B1B689A631A48FFF7AAFA99E0124B1F
:1037F0001B4A1A60002201210F48FEF7ADFF104B53
:10380000D3ED1D7A9FED0F7AF4EEC77AF1EE10FA40
:1038100002DD40F209132CE0094BD3ED1D7A9FED38
:103820000A7AF4EEC77AF1EE10FA1BD5462320E0AF
:10383000340100202C040020580400200000A04087
:10384000040000200080844300008C42100200200D
:1038500044040020000002403003002000004040EB
:10386000000010414E4BD3ED1D7AFCEEE77A17EEC7
:10387000903A4C4A126813644FF4967001F032FE8D
:10388000474B9B6F484A1360454B93F87C30002BA5
:103890000CBF01230023DBB21A460421434802F087
:1038A00055F93F4B93F87C30002B14BF01230023C4
:1038B000DBB21A4608213D4802F048F9384B93F82C
:1038C0007C30002B0CBF01230023DBB21A462021E1
:1038D000364802F03BF9324B93F87C30002B14BF92
:1038E00001230023DBB21A461021304802F02EF9E2
:1038F0002B4BB3F870202E4B1B685A63284BB3F840
:1039000072202B4B1B689A632748FFF719FA294B43
:103910004FF07E521A60002201212648FEF71CFF5C
:1039200000BF254B00221A60244B1A78244B1A70D2
:10393000224B0B221A70234B1A78224B5B789A4247
:1039400012D1214B64221A701F4B00225A801F4A49
:103950000F211F4809F01CFD4FF6FF7306221D4979
:103960001D4805F026FC39E6164B5B78164A1549CA
:103970009B000B445B681360124B5B780133114A68
:10398000927893FBF2F101FB02F29B1ADAB20D4B33
:103990005A70124A0F210E4809F0FAFC1EE600BFC9
:1039A0000400002010020020440400200000024017
:1039B0003003002058040020B0040020340100200F
:1039C00035010020F80300202C04002090DD0008C1
:1039D0003004002098DD000878030020A0DD0008F6
:1039E00080B582B000AF7860994B1B78032B04D070
:1039F0004FF47A7006F028FDF6E7964B5B88142B9F
:103A000000F085801E2B40F00181934B4FF08142E6
:103A10001A60002201219048FEF79EFE8F4BD3EDE5
:103A2000417A9FED8F7AF4EEC77AF1EE10FA02DD5B
:103A300040F2091312E0894BD3ED417A9FED897A68
:103A4000F4EEC77AF1EE10FA01D5462306E0834B77
:103A5000D3ED417AFCEEE77A17EE903A824A12688B
:103A600013644FF4967001F03DFD7C4BD3F80831A0
:103A70007E4A1360794B93F80C31002B0CBF012365
:103A80000023DBB21A460421794802F05FF8734B39
:103A900093F80C31002B14BF01230023DBB21A462C
:103AA0000821734802F052F86C4B93F80C31002B4C
:103AB0000CBF01230023DBB21A4620216C4802F020
:103AC00045F8664B93F80C31002B14BF01230023FB
:103AD000DBB21A461021664802F038F85F4BB3F8A3
:103AE0000021644B1B685A635C4BB3F80221614BA5
:103AF0001B689A635D48FFF723F9574B4FF08042EC
:103B00001A60002200215448FEF726FE16E1524BAF
:103B10004FF081421A60002201214F48FEF71CFE3F
:103B20000A2006F091FC4D4BD3ED317A9FED4C7A93
:103B3000F4EEC77AF1EE10FA02DD40F2091312E05A
:103B4000464BD3ED317A9FED477AF4EEC77AF1EE2A
:103B500010FA01D5462306E0404BD3ED317AFCEE56
:103B6000E77A17EE903A404A126813644FF4967061
:103B700001F0B8FC394BD3F8C8303C4A1360374BDE
:103B800093F8CC30002B0CBF01230023DBB21A4684
:103B90000421374801F0DAFF304B93F8CC30002B8A
:103BA00014BF01230023DBB21A460821304801F07C
:103BB000CDFF2A4B93F8CC30002B0CBF0123002300
:103BC000DBB21A4620212A4801F0C0FF234B93F8AC
:103BD000CC30002B14BF01230023DBB21A46102186
:103BE000234801F0B3FF1D4BB3F8C020214B1B68E5
:103BF0005A631A4BB3F8C2201E4B1B689A631B48CA
:103C0000FFF79EF80A2006F01FFC97E0124B1A4AB5
:103C10001A60002201211048FEF79EFD0F4BD3EDE4
:103C2000217A9FED0F7AF4EEC77AF1EE10FA02DDF9
:103C300040F2091329E0094BD3ED217A9FED097A6F
:103C4000F4EEC77AF1EE10FA18D546231DE000BF56
:103C5000340100202C04002058040020040000201F
:103C60000080844300008C421002002044040020A5
:103C70000000024030030020000040404E4BD3EDD6
:103C8000217AFCEEE77A17EE903A4C4A12681364F8
:103C90004FF4967001F026FC474BD3F88830484A21
:103CA0001360454B93F88C30002B0CBF012300238D
:103CB000DBB21A460421434801F048FF3E4B93F81B
:103CC0008C30002B14BF01230023DBB21A460821DD
:103CD0003C4801F03BFF384B93F88C30002B0CBF75
:103CE00001230023DBB21A462021364801F02EFFC3
:103CF000314B93F88C30002B14BF01230023DBB22F
:103D00001A4610212F4801F021FF2B4BB3F88020D9
:103D10002D4B1B685A63284BB3F882202A4B1B6833
:103D20009A632748FFF70CF8284B4FF081421A603E
:103D3000002200212548FEF70FFD00BF244B002282
:103D40001A60244B1A78244B1A70224B0B221A70DB
:103D5000224B1A78214B5B789A4212D1204B642275
:103D60001A701F4B00225A801E4A0F211E4809F06C
:103D70000FFB4FF6FF7306221C491D4805F019FA88
:103D800032E6164B5B78164A14499B000B445B687D
:103D90001360124B5B780133104A927893FBF2F177
:103DA00001FB02F29B1ADAB20C4B5A70114A0F2136
:103DB0000D4809F0EDFA17E604000020100200207B
:103DC000440400200000024030030020580400207A
:103DD000B00400203401002035010020F803002049
:103DE0002C04002090DD00083004002098DD00083D
:103DF00078030020A0DD000880B582B000AF7860B5
:103E0000914B1B78042B04D04FF47A7006F01CFB06
:103E1000F6E78E4B5B88142B00F084801E2B40F05D
:103E2000FA808B4B4FF07E521A60002201218848A5
:103E3000FEF792FC874BD3ED457A9FED877AF4EE3F
:103E4000C77AF1EE10FA02DD40F2091312E0814B5D
:103E5000D3ED457A9FED817AF4EEC77AF1EE10FA50
:103E600001D5462306E07B4BD3ED457AFCEEE77A9D
:103E700017EE903A7A4A126813644FF4967001F084
:103E800031FB744BD3F81831764A1360714B93F8B9
:103E90001C31002B0CBF01230023DBB21A46042186
:103EA000714801F053FE6B4B93F81C31002B14BF8B
:103EB00001230023DBB21A4608216B4801F046FEBD
:103EC000644B93F81C31002B0CBF01230023DBB2A1
:103ED0001A462021644801F039FE5E4B93F81C31EC
:103EE000002B14BF01230023DBB21A4610215E48C9
:103EF00001F02CFE574BB3F810215C4B1B685A6342
:103F0000544BB3F81221594B1B689A635548FEF77E
:103F100017FF4F4B564A1A60002200214C48FEF70B
:103F20001BFC07E14B4BD3ED357A9FED4B7AF4EE5A
:103F3000C77AF1EE10FA02DD40F2091312E0454BA8
:103F4000D3ED357A9FED457AF4EEC77AF1EE10FAAB
:103F500001D5462306E03F4BD3ED357AFCEEE77AF8
:103F600017EE903A3E4A126813644FF4967001F0CF
:103F7000B9FA384BD3F8D8303A4A1360354B93F836
:103F8000DC30002B0CBF01230023DBB21A460421D6
:103F9000354801F0DBFD2F4B93F8DC30002B14BFCC
:103FA00001230023DBB21A4608212F4801F0CEFD81
:103FB000284B93F8DC30002B0CBF01230023DBB22D
:103FC0001A462021284801F0C1FD224B93F8DC302D
:103FD000002B14BF01230023DBB21A461021224814
:103FE00001F0B4FD1B4BB3F8D020204B1B685A6383
:103FF000184BB3F8D2201D4B1B689A631948FEF783
:104000009FFE134B4FF081421A600022002110489E
:10401000FEF7A2FB8EE00F4BD3ED257A9FED0E7AD3
:10402000F4EEC77AF1EE10FA02DD40F2091328E04F
:10403000084BD3ED257A9FED097AF4EEC77AF1EEBD
:1040400010FA17D546231CE0340100202C04002070
:1040500058040020040000200080844300008C42AB
:104060001002002044040020000002403003002021
:104070000000C0404E4BD3ED257AFCEEE77A17EEF8
:10408000903A4C4A126813644FF4967001F02AFA81
:10409000474BD3F89830484A1360454B93F89C300F
:1040A000002B0CBF01230023DBB21A460421434836
:1040B00001F04CFD3E4B93F89C30002B14BF0123C4
:1040C0000023DBB21A4608213C4801F03FFD384B83
:1040D00093F89C30002B0CBF01230023DBB21A465F
:1040E0002021364801F032FD314B93F89C30002BF3
:1040F00014BF01230023DBB21A4610212F4801F020
:1041000025FD2B4BB3F890202D4B1B685A63284B91
:10411000B3F892202A4B1B689A632748FEF710FEDB
:10412000284B4FF082421A60002200212548FEF7FA
:1041300013FB00BF244B00221A60244B1A78244B37
:104140001A70224B0B221A70224B1A78214B5B7883
:104150009A4212D1204B64221A701F4B00225A80BF
:104160001E4A0F211E4809F013F94FF6FF7306226D
:104170001C491D4805F01DF842E6164B5B78164AAF
:1041800014499B000B445B681360124B5B7801334E
:10419000104A927893FBF2F101FB02F29B1ADAB219
:1041A0000C4B5A70114A0F210D4809F0F1F827E61F
:1041B00004000020100200204404002000000240FF
:1041C0003003002058040020B004002034010020F7
:1041D00035010020F80300202C04002090DD0008A9
:1041E0003004002098DD000878030020A0DD0008DE
:1041F00080B582B000AF7860954B1B78052B04D05A
:104200004FF47A7006F020F9F6E7924B5B88142B96
:1042100000F084801E2B40F0FA808F4B4FF08042DC
:104220001A60002200218C48FEF796FA8B4BD3EDE2
:10423000497A9FED8B7AF4EEC77AF1EE10FA02DD3F
:1042400040F2091312E0854BD3ED497A9FED857A50
:10425000F4EEC77AF1EE10FA01D5462306E07F4B63
:10426000D3ED497AFCEEE77A17EE903A7E4A12686F
:1042700013644FF4967001F035F9784BD3F8283178
:104280007A4A1360754B93F82C31002B0CBF012335
:104290000023DBB21A460421754801F057FC6F4B2E
:1042A00093F82C31002B14BF01230023DBB21A46F4
:1042B00008216F4801F04AFC684B93F82C31002B21
:1042C0000CBF01230023DBB21A462021684801F00D
:1042D0003DFC624B93F82C31002B14BF01230023CB
:1042E000DBB21A461021624801F030FC5B4BB3F898
:1042F0002021604B1B685A63584BB3F822215D4B59
:104300001B689A635948FEF71BFD534B5A4A1A60C3
:10431000002200215048FEF71FFA11E14F4BD3ED68
:10432000397A9FED4F7AF4EEC77AF1EE10FA02DD9A
:1043300040F2091312E0494BD3ED397A9FED497AE7
:10434000F4EEC77AF1EE10FA01D5462306E0434BAE
:10435000D3ED397AFCEEE77A17EE903A424A1268CA
:1043600013644FF4967001F0BDF83C4BD3F8E8307D
:104370003E4A1360394B93F8EC30002B0CBF0123FD
:104380000023DBB21A460421394801F0DFFB334B2E
:1043900093F8EC30002B14BF01230023DBB21A4644
:1043A0000821334801F0D2FB2C4B93F8EC30002B62
:1043B0000CBF01230023DBB21A4620212C4801F058
:1043C000C5FB264B93F8EC30002B14BF01230023D0
:1043D000DBB21A461021264801F0B8FB1F4BB3F898
:1043E000E020244B1B685A631C4BB3F8E220214B9E
:1043F0001B689A631D48FEF7A3FC174B4FF08142E0
:104400001A60002200211448FEF7A6F998E0124B2A
:104410001A4A1A60002201210F48FEF79DF90F4B3E
:10442000D3ED297A9FED0E7AF4EEC77AF1EE10FA09
:1044300002DD40F209132AE0084BD3ED297A9FED03
:10444000097AF4EEC77AF1EE10FA19D546231EE088
:10445000340100202C040020580400200400002017
:104460000080844300008C4210020020440400209D
:1044700000000240300300200000E0400000404007
:104480004E4BD3ED297AFCEEE77A17EE903A4C4A80
:10449000126813644FF4967001F024F8474BD3F878
:1044A000A830484A1360454B93F8AC30002B0CBF42
:1044B00001230023DBB21A460421434801F046FBE6
:1044C0003E4B93F8AC30002B14BF01230023DBB22A
:1044D0001A4608213C4801F039FB384B93F8AC30C0
:1044E000002B0CBF01230023DBB21A4620213648E3
:1044F00001F02CFB314B93F8AC30002B14BF01239F
:104500000023DBB21A4610212F4801F01FFB2B4B72
:10451000B3F8A0202D4B1B685A63284BB3F8A22098
:104520002A4B1B689A632748FEF70AFC284B4FF07A
:1045300082421A60002200212548FEF70DF900BFD3
:10454000244B00221A60244B1A78244B1A70224BF9
:104550000B221A70224B1A78214B5B789A4212D1A7
:10456000204B64221A701F4B00225A801E4A0F21D2
:104570001E4808F00DFF4FF6FF7306221C491D4828
:1045800004F017FE38E6164B5B78164A14499B0078
:104590000B445B681360124B5B780133104A9278CE
:1045A00093FBF2F101FB02F29B1ADAB20C4B5A7048
:1045B000114A0F210D4808F0EBFE1DE60400002013
:1045C00010020020440400200000024030030020BC
:1045D00058040020B00400203401002035010020E0
:1045E000F80300202C04002090DD00083004002097
:1045F00098DD000878030020A0DD000880B582B0B7
:1046000000AF7860264B1B78082B04D04FF47A70EB
:1046100005F01AFFF6E7234B63221A70224B234A58
:104620001A60234B00221A601D4B1A78214B1A7016
:104630001B4B0B221A70204B1A781F4B5B789A4247
:1046400012D1184B64221A70164B00225A801B4A52
:104650000F211B4808F09CFE4FF6FF7306221949F4
:10466000194804F0A6FDCDE7134B5B780D4A1249BB
:104670009B000B445B6813600F4B5B7801330E4A61
:10468000927893FBF2F101FB02F29B1ADAB20A4B29
:104690005A700E4A0F210A4808F07AFEB2E700BFAE
:1046A000340100202C040020580400200000204287
:1046B000B004002035010020F803002090DD000840
:1046C0003004002098DD000878030020A0DD0008F9
:1046D00080B582B000AF7860C74B1B78013B632B7D
:1046E00000F2E28201A252F823F000BF7D480008E8
:1046F0008B48000899480008994800089948000824
:10470000994800086D4A00087B4A0008894A000859
:10471000974A0008A54A0008A54A0008A94C0008C5
:10472000EF4A0008A94C0008A94C0008A94C000851
:10473000A94C0008A94C0008A94C0008A94C000885
:10474000A94C0008A94C0008A94C0008A94C000875
:10475000A94C0008A94C0008A94C0008A94C000865
:10476000A94C0008A94C0008A94C0008A94C000855
:10477000A94C0008A94C0008A94C0008A94C000845
:10478000A94C0008A94C0008A94C0008A94C000835
:10479000A94C0008A94C0008A94C0008A94C000825
:1047A000A94C0008A94C0008A94C0008A94C000815
:1047B000A94C0008A94C0008A94C0008A94C000805
:1047C000A94C0008A94C0008A94C0008A94C0008F5
:1047D000A94C0008A94C0008A94C0008A94C0008E5
:1047E000A94C0008A94C0008A94C0008A94C0008D5
:1047F000A94C0008A94C0008A94C0008A94C0008C5
:10480000A94C0008A94C0008A94C0008A94C0008B4
:10481000A94C0008A94C0008A94C0008A94C0008A4
:10482000A94C0008A94C0008A94C0008A94C000894
:10483000A94C0008A94C0008A94C0008A94C000884
:10484000A94C0008A94C0008FD4A0008FD4A0008D0
:10485000D34B0008D34B0008A94C0008A94C000812
:10486000A94C0008A94C0008A94C0008A94C000854
:10487000A94C0008A94C0008A94C00085F4B002275
:104880001A705D4B63221A700FE25C4B01221A70A2
:10489000594B63221A7008E2574B1B78584A1B0188
:1048A00013440433D3ED007A9FED567AF4EEC77AC1
:1048B000F1EE10FA02DD40F209131CE04E4B1B78BA
:1048C0004F4A1B0113440433D3ED007A9FED4E7A17
:1048D000F4EEC77AF1EE10FA01D546230BE0464B11
:1048E0001B78474A1B0113440433D3ED007AFCEED6
:1048F000E77A17EE903A454A126813644FF49670BF
:1049000000F0F0FD3C4B1B783D4A1B01134408337B
:104910001B683F4A1360384B1B78394A1B0113440C
:104920000C331B78002B0CBF01230023DBB21A468B
:104930000421384801F00AF92F4B1B78304A1B013B
:1049400013440C331B78002B14BF01230023DBB26C
:104950001A4608212F4801F0F9F8274B1B78284AFE
:104960001B0113440C331B78002B0CBF01230023C5
:10497000DBB21A462021274801F0E8F81E4B1B78CD
:104980001F4A1B0113440C331B78002B14BF012357
:104990000023DBB21A4610211E4801F0D7F8164B4F
:1049A0001B78174A1B0113441A881B4B1B685A6358
:1049B000114B1B78124A1B01134402331A88164B01
:1049C0001B689A63154B1A78144B5B789A422FD167
:1049D000094B64221A70084B00225A80104A0F219A
:1049E000104808F0D5FC4FF6FF7306220E490F4819
:1049F00004F0DFFB36E000BF2C040020340100206F
:104A0000040000200080844300008C42100200203B
:104A1000440400200000024030030020F80300207E
:104A200090DD00083004002098DD000878030020A5
:104A3000A04B5B78A04A9F499B000B445B681360C6
:104A40009C4B5B7801339B4A927893FBF2F101FB1C
:104A500002F29B1ADAB2974B5A70984A0F21984883
:104A600008F096FC944B63221A701EE1954B0222CB
:104A70001A70914B63221A7017E1924B03221A703D
:104A80008D4B63221A7010E18E4B04221A708A4BF0
:104A900063221A7009E18B4B05221A70864B632240
:104AA0001A7002E1844B1B780B2B05D0864B1B68D8
:104AB00040F209121A6403E0834B1B6846221A6411
:104AC0004FF4967000F00EFD7B4B64221A707A4B07
:104AD00000225A807D4A0F21794808F059FC4FF690
:104AE000FF7306227A497B4804F063FBDDE0754BD7
:104AF00009221A70704B63221A70D6E06E4B1B7835
:104B0000582B05D0704B1B6840F209121A6403E061
:104B10006D4B1B6846221A644FF4967000F0E2FC5D
:104B2000002204216C4801F011F8012208216A4892
:104B300001F00CF800222021674801F007F801225B
:104B40001021654801F002F85B4B1B78582B13D1FC
:104B5000594B5B8807EE903AF8EE677A5F4BC3EDEE
:104B6000007A5F4B1B6840F235525A635C4B1B68FE
:104B70004FF4FA629A6313E04F4B5B885B4207EE97
:104B8000903AF8EEE77A554BC3ED007A544B1B6828
:104B90004FF4FA625A63524B1B6840F235529A63E3
:104BA000454B63221A704D48FEF7CAF8424B642207
:104BB0001A70414B00225A80444A0F21404808F0A5
:104BC000E7FB4FF6FF7306224149424804F0F1FA31
:104BD0006BE0394B1B785A2B05D13B4B1B6840F2DD
:104BE00009121A6403E0384B1B6846221A644FF41A
:104BF000967000F077FC01220421374800F0A6FFF0
:104C000000220821344800F0A1FF0122202132486F
:104C100000F09CFF002210212F4800F097FF264B48
:104C20001B785A2B13D1244B5B8807EE903AF8EE91
:104C3000677A2A4BC3ED007A294B1B684FF4FA625E
:104C40005A63274B1B6840F235529A6313E01A4BA4
:104C50005B885B4207EE903AF8EEE77A1F4BC3EDB4
:104C6000007A1F4B1B6840F235525A631C4B1B687D
:104C70004FF4FA629A63104B63221A701748FEF7DA
:104C80005FF80D4B64221A700B4B00225A800F4ABA
:104C90000F210B4808F07CFB4FF6FF7306220C49EE
:104CA0000C4804F086FA00E000BF012005F0CCFBC0
:104CB00012E500BFF80300202C040020A0DD00084E
:104CC00030040020340100201002002090DD000894
:104CD00098DD000878030020000002404404002012
:104CE0003003002080B582B000AF78602D4B1B7878
:104CF000092B04D04FF47A7005F0A6FBF6E72A4B97
:104D00005B8807EE903AF8EE677A284BC3ED007A9D
:104D100002212648FEF7C0F8254B1B6800225A6383
:104D2000234B1B6800229A631E4B1A78214B1A7082
:104D30001C4B0B221A70204B00221A601F4B1A7852
:104D40001E4B5B789A4212D1174B64221A70164B95
:104D500000225A801A4A0F211A4808F019FB4FF610
:104D6000FF7306221849194804F023FABEE7134BD3
:104D70005B780D4A11499B000B445B6813600F4B35
:104D80005B7801330D4A927893FBF2F101FB02F25A
:104D90009B1ADAB2094B5A700D4A0F21094808F0E4
:104DA000F7FAA3E7340100202C0400205804002067
:104DB0003003002035010020B0040020F80300205B
:104DC00090DD00083004002098DD00087803002002
:104DD000A0DD000880B582B000AF7860012005F04A
:104DE00033FBFBE780B582B000AF78607B681B685F
:104DF000044A934201D100F055FB00BF0837BD467D
:104E000080BD00BF0008004080B400AF72B600BF94
:104E1000FEE7000080B582B000AF00237B60124B3C
:104E20005B6C114A43F4804353640F4B5B6C03F497
:104E300080437B607B6800233B600B4B1B6C0A4A02
:104E400043F080531364084B1B6C03F080533B60AA
:104E50003B6800220F216FF0010000F01FFC00BF33
:104E60000837BD4680BD00BF0038024080B58AB01B
:104E700000AF786007F1140300221A605A609A604C
:104E8000DA601A617B681B68194A93422CD10023AF
:104E90003B61184B1B6B174A43F002031363154B1E
:104EA0001B6B03F002033B613B694FF440737B6172
:104EB0001223BB610023FB6103233B6204237B625B
:104EC00007F1140319460C4800F0A4FC0023FB6012
:104ED000084B1B6C074A43F400131364054B1B6C0F
:104EE00003F40013FB60FB6800BF2837BD4680BD9C
:104EF00000540040003802400004024080B58EB0EB
:104F000000AF786007F1240300221A605A609A60AB
:104F1000DA601A617B681B684E4A934216D10023FF
:104F20003B624D4B5B6C4C4A43F0010353644A4B6C
:104F30005B6C03F001033B623B6A002205211B20EE
:104F400000F0ACFB1B2000F0C5FB7EE07B681B681B
:104F5000424A934234D10023FB613F4B1B6C3E4AD3
:104F600043F0020313643C4B1B6C03F00203FB6130
:104F7000FB690023BB61384B1B6B374A43F00203CC
:104F80001363354B1B6B03F00203BB61BB6920232A
:104F90007B620223BB620023FB6200233B6302238C
:104FA0007B6307F1240319462D4800F033FC0022EF
:104FB00005211D2000F072FB1D2000F08BFB44E05A
:104FC0007B681B68274A93420ED100237B61224BEA
:104FD0001B6C214A43F0100313641F4B1B6C03F03E
:104FE00010037B617B6930E07B681B681E4A93423B
:104FF0002BD100233B61184B5B6C174A43F0020333
:105000005364154B5B6C03F002033B613B69002367
:10501000FB60114B1B6B104A43F0040313630E4BF0
:105020001B6B03F00403FB60FB68C0237B6202235D
:10503000BB620023FB6200233B6303237B6307F116
:1050400024031946094800F0E5FB00BF3837BD4688
:1050500080BD00BF00000140003802400004004055
:10506000000402400010004000040140000802401B
:1050700080B58AB000AF786007F1140300221A608F
:105080005A609A60DA601A617B681B68B3F1804FDE
:105090004AD100233B61264B1B6C254A43F0010398
:1050A0001364234B1B6C03F001033B613B6900233A
:1050B000FB601F4B1B6B1E4A43F0010313631C4B29
:1050C0001B6B03F00103FB60FB680023BB60184B04
:1050D0001B6B174A43F002031363154B1B6B03F062
:1050E0000203BB60BB684FF400437B610223BB61DA
:1050F0000023FB6100233B6201237B6207F1140361
:1051000019460C4800F086FB08237B610223BB6133
:105110000023FB6100233B6201237B6207F1140340
:105120001946054800F076FB00BF2837BD4680BD14
:1051300000380240000002400004024080B588B000
:1051400000AF786007F10C0300221A605A609A6081
:10515000DA601A617B681B68124A93421ED10023F1
:10516000BB60114B1B6B104A43F0100313630E4BD3
:105170001B6B03F01003BB60BB684FF48043FB6004
:1051800002233B6100237B610023BB610123FB61A0
:1051900007F10C031946054800F03CFB00BF20371F
:1051A000BD4680BD000001400038024000100240B2
:1051B00080B58AB000AF786007F1140300221A604E
:1051C0005A609A60DA601A617B681B681D4A9342D4
:1051D00034D100233B611C4B1B6C1B4A43F48023DE
:1051E0001364194B1B6C03F480233B613B69002360
:1051F000FB60154B1B6B144A43F004031363124B03
:105200001B6B03F00403FB60FB684FF440637B619E
:105210000223BB610023FB6103233B6207237B6204
:1052200007F114031946094800F0F4FA0022052199
:10523000272000F033FA272000F04CFA00BF28376F
:10524000BD4680BD004800400038024000080240D2
:1052500080B58CB000AF78600023FB620023BB6296
:10526000002279681E2000F019FA1E2000F032FAA0
:105270000023FB601E4B1B6C1D4A43F004031364A8
:105280001B4B1B6C03F00403FB60FB6807F110026F
:1052900007F114031146184602F0B2F802F088F83C
:1052A000F862FB6A134AA2FB03239B0C013BBB621F
:1052B000114B124A1A60104B40F2E732DA600E4A84
:1052C000BB6A53600C4B00221A610B4B00229A60A0
:1052D000094802F0C7F80346002B04D1064802F043
:1052E00079F9034600E0012318463037BD4680BDFA
:1052F0000038024083DE1B43B80400200008004051
:1053000080B400AFFEE780B400AFFEE780B400AF2A
:10531000FEE780B400AFFEE780B400AFFEE780B4E4
:1053200000AF00BFBD465DF8047B704780B500AF9D
:10533000024802F045FE00BF80BD00BF1002002001
:1053400080B500AF024802F03BFE00BF80BD00BF49
:10535000A002002080B500AF024802F031FE00BF7D
:1053600080BD00BFB804002080B500AF024803F044
:10537000E3FF00BF80BD00BF7803002080B586B08A
:1053800000AF7860144A154BD31A7B617B693B618F
:10539000134B1B68002B02D1114B124A1A60104BA1
:1053A0001A687B6813443A699A4207D208F02CF8CD
:1053B00003460C221A604FF0FF3309E0084B1B68CC
:1053C000FB60074B1A687B681344054A1360FB684F
:1053D00018461837BD4680BD0000022000040000BA
:1053E00000050020A053002080B400AF064BD3F886
:1053F0008830054A43F47003C2F8883000BFBD46C8
:105400005DF8047B704700BF00ED00E0DFF834D0AA
:105410000D480E490E4A002302E0D458C45004330C
:10542000C4188C42F9D30B4A0B4C002301E01360E3
:105430000432A242FBD3FFF7D7FF07F0EBFFFBF7E5
:105440005BFD70470000022000000020A00100204A
:1054500030EA0008A0010020A0530020FEE7000071
:1054600080B500AF0E4B1B680D4A43F40073136008
:105470000B4B1B680A4A43F480631360084B1B689C
:10548000074A43F480731360032000F0FCF80F20F8
:10549000FFF7DEFEFFF7BEFC0023184680BD00BF0D
:1054A000003C024080B400AF064B1B781A46064B06
:1054B0001B681344044A136000BFBD465DF8047BBB
:1054C000704700BF480100200405002080B400AFF1
:1054D000034B1B681846BD465DF8047B704700BF50
:1054E0000405002080B584B000AF7860FFF7EEFFC0
:1054F000B8607B68FB60FB68B3F1FF3F05D00A4BE7
:105500001B781A46FB681344FB6000BFFFF7DEFF01
:105510000246BB68D31AFA689A42F7D800BF00BFA8
:105520001037BD4680BD00BF4801002080B485B063
:1055300000AF78607B6803F00703FB600C4BDB680F
:10554000BB60BA684FF6FF031340BB60FB681A02EA
:10555000BB68134343F0BF6343F40033BB60044AAA
:10556000BB68D36000BF1437BD465DF8047B70474D
:1055700000ED00E080B400AF044BDB681B0A03F0D1
:1055800007031846BD465DF8047B704700ED00E058
:1055900080B483B000AF0346FB7197F90730002B4E
:1055A0000BDBFB7903F01F02074997F907305B0912
:1055B000012000FA02F241F8232000BF0C37BD465B
:1055C0005DF8047B704700BF00E100E080B483B069
:1055D00000AF03463960FB7197F90730002B0ADBF7
:1055E0003B68DAB20C4997F907301201D2B20B448A
:1055F00083F800230AE03B68DAB20849FB7903F03C
:105600000F03043B1201D2B20B441A7600BF0C37D1
:10561000BD465DF8047B704700E100E000ED00E06E
:1056200080B489B000AFF860B9607A60FB6803F0BD
:105630000703FB61FB69C3F10703042B28BF0423A5
:10564000BB61FB690433062B02D9FB69033B00E015
:1056500000237B614FF0FF32BB6902FA03F3DA43A8
:10566000BB681A407B699A404FF0FF317B6901FAB1
:1056700003F3D9437B680B40134318462437BD46D8
:105680005DF8047B704780B582B000AF78607868C1
:10569000FFF74CFF00BF0837BD4680BD80B586B020
:1056A00000AF0346B9607A60FB7300237B61FFF7AC
:1056B00061FF78617A68B9687869FFF7B1FF0246DF
:1056C00097F90F3011461846FFF780FF00BF1837D3
:1056D000BD4680BD80B582B000AF0346FB7197F92F
:1056E00007301846FFF754FF00BF0837BD4680BD9E
:1056F00080B584B000AF78607B689B6DFB60FFF77E
:10570000E5FEB8607B6893F83530DBB2022B08D039
:105710007B6880225A657B68002283F8342001234D
:1057200052E07B681B681A687B681B6822F01602CF
:105730001A607B681B685A697B681B6822F08002CC
:105740005A617B681B6C002B03D17B689B6C002B20
:1057500007D07B681B681A687B681B6822F0080208
:105760001A607B681B681A687B681B6822F001025C
:105770001A6013E0FFF7AAFE0246BB68D31A052B96
:105780000CD97B6820225A657B68032283F8352078
:105790007B68002283F83420032315E07B681B68B4
:1057A0001B6803F00103002BE4D17B68DB6D3F2213
:1057B0009A40FB689A607B68012283F835207B68F9
:1057C000002283F83420002318461037BD4680BDE0
:1057D00080B483B000AF78607B6893F83530DBB27B
:1057E000022B04D07B6880225A6501230CE07B6881
:1057F000052283F835207B681B681A687B681B6864
:1058000022F001021A60002318460C37BD465DF8ED
:10581000047B704780B489B000AF786039600023A2
:105820007B6100233B610023BB610023FB616BE1D3
:105830000122FB6902FA03F37B613B681B687A690A
:1058400013403B613A697B699A4240F05A813B6858
:105850005B6803F00303012B05D03B685B6803F032
:105860000303022B30D17B689B68BB61FB695B0043
:10587000032202FA03F3DB43BA691340BB613B68BE
:10588000DA68FB695B0002FA03F3BA691343BB6190
:105890007B68BA699A607B685B68BB610122FB69BF
:1058A00002FA03F3DB43BA691340BB613B685B68F0
:1058B0001B0903F00102FB6902FA03F3BA691343FF
:1058C000BB617B68BA695A603B685B6803F003039D
:1058D000032B17D07B68DB68BB61FB695B0003228D
:1058E00002FA03F3DB43BA691340BB613B689A6871
:1058F000FB695B0002FA03F3BA691343BB617B687F
:10590000BA69DA603B685B6803F00303022B23D1BA
:10591000FB69DA087B68083253F82230BB61FB6907
:1059200003F007039B000F2202FA03F3DB43BA697B
:105930001340BB613B681A69FB6903F007039B00D6
:1059400002FA03F3BA691343BB61FB69DA087B68A7
:105950000832B96943F822107B681B68BB61FB6998
:105960005B00032202FA03F3DB43BA691340BB6115
:105970003B685B6803F00302FB695B0002FA03F318
:10598000BA691343BB617B68BA691A603B685B689C
:1059900003F44033002B00F0B4800023FB60604B25
:1059A0005B6C5F4A43F4804353645D4B5B6C03F470
:1059B0008043FB60FB685B4AFB699B08023352F83B
:1059C0002330BB61FB6903F003039B000F2202FA43
:1059D00003F3DB43BA691340BB617B68524A9342CD
:1059E0002BD07B68514A934225D07B68504A934222
:1059F0001FD07B684F4A934219D07B684E4A93422E
:105A000013D07B684D4A93420DD07B684C4A934239
:105A100007D07B684B4A934201D107230EE008234D
:105A20000CE006230AE0052308E0042306E0032334
:105A300004E0022302E0012300E00023FA6902F0FF
:105A4000030292009340BA691343BB613549FB6975
:105A50009B080233BA6941F823203B4B9B68BB612A
:105A60003B69DB43BA691340BB613B685B6803F485
:105A70008013002B03D0BA693B691343BB61324AE0
:105A8000BB699360304BDB68BB613B69DB43BA6940
:105A90001340BB613B685B6803F40013002B03D029
:105AA000BA693B691343BB61274ABB69D360264B84
:105AB0005B68BB613B69DB43BA691340BB613B6810
:105AC0005B6803F40033002B03D0BA693B691343CE
:105AD000BB611D4ABB6953601B4B1B68BB613B69C3
