:020000040800F2
:1000000000000220915C0008855B00088B5B000803
:10001000915B0008975B00089D5B000800000000F2
:1000200000000000000000000000000011D60008E1
:10003000A35B00080000000061D80008E1B20008DE
:10004000E15C0008E15C0008E15C0008E15C00089C
:10005000E15C0008E15C0008E15C0008E15C00088C
:10006000E15C0008E15C0008E15C0008E15C00087C
:10007000E15C0008E15C0008E15C0008E15C00086C
:10008000E15C0008E15C0008E15C0008E15C00085C
:10009000E15C0008E15C0008E15C0008E15C00084C
:1000A000E15C0008E15C0008E15C0008B15B00086D
:1000B000E15C0008C55B0008D95B0008E15C000852
:1000C000E15C0008E15C0008E15C0008E15C00081C
:1000D000E15C0008E15C0008E15C0008ED5B000801
:1000E000E15C0008E15C0008E15C0008E15C0008FC
:1000F000E15C0008E15C0008E15C0008E15C0008EC
:10010000E15C0008E15C0008E15C0008E15C0008DB
:10011000E15C0008E15C0008E15C0008E15C0008CB
:10012000E15C0008E15C0008E15C0008E15C0008BB
:10013000E15C0008E15C0008E15C0008E15C0008AB
:10014000E15C0008E15C0008E15C0008E15C00089B
:10015000E15C0008E15C0008E15C0008E15C00088B
:10016000E15C0008E15C0008E15C0008E15C00087B
:10017000E15C0008E15C0008E15C000800000000B0
:08018000E15C0008E15C0008ED
:1001900010B5054C237833B9044B13B10448AFF3C1
:1001A00000800123237010BDA0010020000000008A
:1001B000A4EE000808B5034B1BB103490348AFF395
:1001C000008008BD00000000A4010020A4EE00088B
:1001D00001F0FF01102A2BDB10F0070F08D010F8F8
:1001E000013B013A8B422DD010F0070F42B3F6D1FC
:1001F000F0B441EA012141EA014122F007047FF015
:1002000000070023F0E80256083C85EA010586EA6B
:10021000010685FA47F5A3FA87F586FA47F6A5FAA7
:1002200087F68EB9EED1F0BC01F0FF0102F00702B3
:1002300032B110F8013B013A83EA010313B1F8D15E
:100240000020704701387047002D06BF354603383F
:10025000073815F0010F07D1013015F4807F02BF78
:10026000013015F4C03F0130F0BC0138704700BFC9
:1002700081F0004102E000BF83F0004330B54FEA57
:1002800041044FEA430594EA050F08BF90EA020FC4
:100290001FBF54EA000C55EA020C7FEA645C7FEA57
:1002A000655C00F0E2804FEA5454D4EB5555B8BF7A
:1002B0006D420CDD2C4480EA020281EA030382EAEB
:1002C000000083EA010180EA020281EA0303362D7D
:1002D00088BF30BD11F0004F4FEA01314FF4801C50
:1002E0004CEA113102D0404261EB410113F0004F62
:1002F0004FEA03334CEA133302D0524263EB430319
:1003000094EA050F00F0A780A4F10104D5F1200EB6
:100310000DDB02FA0EFC22FA05F2801841F1000111
:1003200003FA0EF2801843FA05F359410EE0A5F1E5
:1003300020050EF1200E012A03FA0EFC28BF4CF016
:10034000020C43FA05F3C01851EBE37101F00045CC
:1003500007D54FF0000EDCF1000C7EEB00006EEBD9
:100360000101B1F5801F1BD3B1F5001F0CD3490863
:100370005FEA30004FEA3C0C04F101044FEA4452BA
:1003800012F5800F80F09A80BCF1004F08BF5FEA41
:10039000500C50F1000041EB045141EA050130BD21
:1003A0005FEA4C0C404141EB0101013C28BFB1F533
:1003B000801FE9D291F0000F04BF01460020B1FA7E
:1003C00081F308BF2033A3F10B03B3F120020CDA51
:1003D0000C3208DD02F1140CC2F10C0201FA0CF02F
:1003E00021FA02F10CE002F11402D8BFC2F1200C94
:1003F00001FA02F120FA0CFCDCBF41EA0C0190404A
:10040000E41AA2BF01EB0451294330BD6FEA040492
:100410001F3C1CDA0C340EDC04F11404C4F120027D
:1004200020FA04F001FA02F340EA030021FA04F38F
:1004300045EA030130BDC4F10C04C4F1200220FAE6
:1004400002F001FA04F340EA0300294630BD21FA24
:1004500004F0294630BD94F0000F83F4801306BFEA
:1004600081F480110134013D4EE77FEA645C18BFDE
:100470007FEA655C29D094EA050F08BF90EA020F75
:1004800005D054EA000C04BF1946104630BD91EA6D
:10049000030F1EBF0021002030BD5FEA545C05D170
:1004A0004000494128BF41F0004130BD14F58004AF
:1004B0003CBF01F5801130BD01F0004545F0FE4123
:1004C00041F470014FF0000030BD7FEA645C1ABF58
:1004D000194610467FEA655C1CBF0B46024650EA8F
:1004E000013406BF52EA033591EA030F41F40021BB
:1004F00030BD00BF90F0000F04BF0021704730B541
:100500004FF4806404F132044FF000054FF0000115
:1005100050E700BF90F0000F04BF0021704730B5D6
:100520004FF4806404F1320410F0004548BF4042AB
:100530004FF000013EE700BF42004FEAE2014FEA00
:1005400031014FEA02701FBF12F07F4393F07F4FDB
:1005500081F06051704732F07F4208BF704793F0DE
:100560007F4F04BF41F40021704730B54FF46074F1
:1005700001F0004521F000411CE700BF50EA0102F4
:1005800008BF704730B54FF000050AE050EA01029D
:1005900008BF704730B511F0004502D5404261EB0D
:1005A00041014FF4806404F132045FEA915C3FF44E
:1005B000D8AE4FF003025FEADC0C18BF03325FEAEB
:1005C000DC0C18BF033202EBDC02C2F1200300FA9C
:1005D00003FC20FA02F001FA03FE40EA0E0021FAC1
:1005E00002F11444BDE600BF70B54FF0FF0C4CF4AF
:1005F000E06C1CEA11541DBF1CEA135594EA0C0F61
:1006000095EA0C0F00F0DEF82C4481EA030621EA9B
:100610004C5123EA4C5350EA013518BF52EA0335D6
:1006200041F4801143F4801338D0A0FB02CE4FF088
:100630000005E1FB02E506F00042E0FB03E54FF0B8
:100640000006E1FB03569CF0000F18BF4EF0010EB0
:10065000A4F1FF04B6F5007F64F5407404D25FEAAC
:100660004E0E6D4146EB060642EAC62141EA55515F
:100670004FEAC52040EA5E504FEACE2EB4F1FD0CA1
:1006800088BFBCF5E06F1ED8BEF1004F08BF5FEA1F
:10069000500E50F1000041EB045170BD06F00046D1
:1006A00046EA010140EA020081EA0301B4EB5C047E
:1006B000C2BFD4EB0C0541EA045170BD41F4801176
:1006C0004FF0000E013C00F3AB8014F1360FDEBF9B
:1006D000002001F0004170BDC4F10004203C35DA77
:1006E0000C341BDC04F11404C4F1200500FA05F3FA
:1006F00020FA04F001FA05F240EA020001F000429B
:1007000021F0004110EBD37021FA04F642EB060110
:100710005EEA430E08BF20EAD37070BDC4F10C043A
:10072000C4F1200500FA04F320FA05F001FA04F2FE
:1007300040EA020001F0004110EBD37041F10001EA
:100740005EEA430E08BF20EAD37070BDC4F12005F5
:1007500000FA05F24EEA020E20FA04F301FA05F25D
:1007600043EA020321FA04F001F0004121FA04F205
:1007700020EA020000EBD3705EEA430E08BF20EAD5
:10078000D37070BD94F0000F0FD101F0004640000F
:1007900041EB010111F4801F08BF013CF7D041EA91
:1007A000060195F0000F18BF704703F00046520095
:1007B00043EB030313F4801F08BF013DF7D043EA66
:1007C0000603704794EA0C0F0CEA135518BF95EA1C
:1007D0000C0F0CD050EA410618BF52EA4306D1D1A3
:1007E00081EA030101F000414FF0000070BD50EAC2
:1007F000410606BF1046194652EA430619D094EA4C
:100800000C0F02D150EA013613D195EA0C0F05D135
:1008100052EA03361CBF104619460AD181EA030189
:1008200001F0004141F0FE4141F470014FF0000041
:1008300070BD41F0FE4141F4780170BD70B54FF0DC
:10084000FF0C4CF4E06C1CEA11541DBF1CEA13555C
:1008500094EA0C0F95EA0C0F00F0A7F8A4EB05043E
:1008600081EA030E52EA03354FEA013100F0888035
:100870004FEA03334FF0805545EA131343EA1263FE
:100880004FEA022245EA111545EA10654FEA0026B3
:100890000EF000419D4208BF964244F1FD0404F56C
:1008A000407402D25B084FEA3202B61A65EB0305C8
:1008B0005B084FEA32024FF480104FF4002CB6EB85
:1008C000020E75EB030E22BFB61A754640EA0C0005
:1008D0005B084FEA3202B6EB020E75EB030E22BF45
:1008E000B61A754640EA5C005B084FEA3202B6EB86
:1008F000020E75EB030E22BFB61A754640EA9C0045
:100900005B084FEA3202B6EB020E75EB030E22BF14
:10091000B61A754640EADC0055EA060E18D04FEAD2
:10092000051545EA16754FEA06164FEAC30343EA72
:1009300052734FEAC2025FEA1C1CC0D111F4801F3F
:100940000BD141EA00014FF000004FF0004CB6E738
:1009500011F4801F04BF01430020B4F1FD0C88BFD7
:10096000BCF5E06F3FF6AFAEB5EB030C04BFB6EBE2
:10097000020C5FEA500C50F1000041EB045170BDD5
:100980000EF0004E4EEA113114EB5C04C2BFD4EB02
:100990000C0541EA045170BD41F480114FF0000E86
:1009A000013C90E645EA060E8DE60CEA135594EA02
:1009B0000C0F08BF95EA0C0F3FF43BAF94EA0C0F05
:1009C0000AD150EA01347FF434AF95EA0C0F7FF47A
:1009D00025AF104619462CE795EA0C0F06D152EACE
:1009E00003353FF4FDAE1046194622E750EA4106B2
:1009F00018BF52EA43067FF4C5AE50EA41047FF4C3
:100A00000DAF52EA43057FF4EBAE12E74FF0FF3C27
:100A100006E000BF4FF0010C02E000BF4FF0010CF8
:100A20004DF804CD4FEA410C7FEA6C5C4FEA430C71
:100A300018BF7FEA6C5C1BD001B050EA410C0CBFC0
:100A400052EA430C91EA030F02BF90EA020F002022
:100A5000704710F1000F91EA030F58BF994208BF89
:100A600090422CBFD8176FEAE37040F00100704746
:100A70004FEA410C7FEA6C5C02D150EA013C07D19D
:100A80004FEA430C7FEA6C5CD6D152EA033CD3D0E8
:100A90005DF8040B704700BF8446104662468C46E2
:100AA0001946634600E000BF01B5FFF7B7FF002815
:100AB00048BF10F1000F01BD4DF808EDFFF7F4FF3E
:100AC0000CBF012000205DF808FB00BF4DF808EDC9
:100AD000FFF7EAFF34BF012000205DF808FB00BFEC
:100AE0004DF808EDFFF7E0FF94BF012000205DF80E
:100AF00008FB00BF4DF808EDFFF7CEFF94BF0120C3
:100B000000205DF808FB00BF4DF808EDFFF7C4FFBB
:100B100034BF012000205DF808FB00BF4A0011D25D
:100B200012F5001211D20DD56FF47873B3EB625247
:100B30000ED44FEAC12343F0004343EA505323FA53
:100B400002F070474FF00000704750EA013002D1C8
:100B50004FF0FF3070474FF0000070474FEA4102FE
:100B6000B2F1E04324BFB3F5001CDCF1FE5C0DD90B
:100B700001F0004C4FEAC0024CEA5070B2F1004F55
:100B800040EB830008BF20F00100704711F0804F58
:100B900021D113F13872BCBF01F00040704741F41D
:100BA00080114FEA5252C2F11802C2F1200C10FA21
:100BB0000CF320FA02F018BF40F001004FEAC12305
:100BC0004FEAD32303FA0CFC40EA0C0023FA02F3A9
:100BD0004FEA4303CCE77FEA625307D150EA01337F
:100BE0001EBF4FF0FE4040F44000704701F000404F
:100BF00040F0FE4040F40000704700BF53B94AB9CE
:100C0000002908BF00281CBF4FF0FF314FF0FF3014
:100C100000F070B9ADF1080C6DE904CE00F006F8F3
:100C2000DDF804E0DDE9022304B070472DE9F04768
:100C3000089E0D4604460F46002B4AD18A42944630
:100C400065D9B2FA82F343B102FA03FCC3F1200280
:100C50009F4020FA02F217439C404FEA1C4E1FFAB5
:100C60008CF5B7FBFEF1220C0EFB117742EA07422E
:100C700001FB05F090420AD91CEB020201F1FF379B
:100C800080F01C81904240F2198102396244121AAC
:100C9000A4B2B2FBFEF00EFB102244EA024400FBB9
:100CA00005F5A5420AD91CEB040400F1FF3280F0DF
:100CB0000781A54240F204816444023840EA0140C1
:100CC000641B00211EB1DC400023C6E90043BDE8DF
:100CD000F0878B4208D9002E00F0ED800021C6E994
:100CE00000050846BDE8F087B3FA83F1002949D131
:100CF000AB4202D3824200F2F880841A65EB030211
:100D000001201746002EE2D0C6E90047DFE702B90E
:100D1000FFDEB2FA82F3002B40F090808A1A4FEA8D
:100D20001C471FFA8CFE0121B2FBF7F507FB1520CB
:100D3000220C42EA00420EFB05F0904208D91CEB5F
:100D4000020205F1FF3802D2904200F2CB80454604
:100D5000121AA4B2B2FBF7F007FB102244EA0244D5
:100D60000EFB00FEA64508D91CEB040400F1FF327F
:100D700002D2A64500F2BB801046A4EB0E0440EA66
:100D800005409FE7C1F120078B4022FA07FC4CEA9F
:100D9000030C05FA01F420FA07F3FD404FEA1C4961
:100DA0002343B5FBF9F81FFA8CFE09FB18551C0C00
:100DB00044EA054408FB0EF5A54202FA01F200FAE6
:100DC00001F00BD91CEB040408F1FF3A80F0888095
:100DD000A54240F28580A8F102086444641B9DB2DC
:100DE000B4FBF9F309FB134445EA044403FB0EFE8C
:100DF000A64508D91CEB040403F1FF356CD2A645C7
:100E00006AD9023B644443EA0843A3FB0295A4EB7E
:100E10000E04AC42C846AE4656D353D056B1B0EBE2
:100E2000080264EB0E0404FA07F7CA40CC401743EB
:100E3000C6E9007418460021BDE8F087C3F120011F
:100E400002FA03FC20FA01F225FA01F19D402A433F
:100E50004FEA1C471FFA8CFEB1FBF7F007FB101599
:100E6000110C41EA054100FB0EF58D4204FA03F432
:100E700008D91CEB010100F1FF382FD28D422DD98A
:100E800002386144491B92B2B1FBF7F507FB15111B
:100E900042EA014205FB0EF1914208D91CEB020225
:100EA00005F1FF3816D2914214D9023D6244521A1C
:100EB00045EA004138E73146304608E73946E6E67C
:100EC0001046FBE64845A9D2B9EB020865EB0C0ECB
:100ED000013BA3E74546EAE72B4694E74046D1E7C6
:100EE000D0467BE7023D624432E708460AE76444A5
:100EF000023842E7704700BF80B582B000AF04F00F
:100F0000F1FE00F06BF900F005FD00F0D9FC00F0F7
:100F100067FA00F02BFC00F02FFB00F08FFA00F0D6
:100F20007FFB00F0EDFB00F0B7F900F007FA0DF0E1
:100F300075FA0023032200216F480CF098FF0C2162
:100F40006E4807F053FC00216D4807F04FFC042168
:100F50006B4807F04BFC3C216A4807F0E5FF6A4B01
:100F60001B789BB21A466949694809F0F6F9694845
:100F700007F00AFB0421684807F05AFD5F4B1B6825
:100F800091221A644FF4967004F0EEFE634B6422D3
:100F90001A70624B0A225A80614B00221A70604B11
:100FA00000225A705F4B1A785D4B9A7000237B6069
:100FB0000CE064233B7000237B80594A7B689B00D4
:100FC00013443A685A607B6801337B60554B1B7849
:100FD0001A467B689342ECDB9FED531ADFED530A10
:100FE0009FED530A534801F0E7F99FED4F1ADFEDEB
:100FF0004F0A9FED4F0A504801F0DEF99FED4F1A5E
:10100000DFED4F0A9FED4F0A4F4801F0D5F93E4BF7
:101010001B789BB21A463D493D4809F09EF9374B73
:101020001B6891221A644FF4967004F09DFE0AF03A
:1010300071F9464A002146480AF0B6F90346454A86
:101040001360454A002145480AF0AEF90346444A78
:101050001360444A002144480AF0A6F90346434A73
:101060001360434A002143480AF09EF90346424A6E
:101070001360424A002142480AF096F90346414A69
:101080001360414A002141480AF08EF90346404A64
:101090001360404A002140480AF086F903463F4A5F
:1010A00013603F4A00213F480AF07EF903463E4A5A
:1010B00013603E4A00213E480AF076F903463D4A55
:1010C00013603D4A00213D480AF06EF903463C4A50
:1010D00013603C4A00213C480AF066F903463B4A4B
:1010E00013603B4A00213B480AF05EF903463A4A46
:1010F00013600AF033F9FEE74C020020A002002042
:10110000C0030020E8020020000000207C04002032
:10111000080400207803002030030020BC040020D5
:101120008804002001000020CDCC4C3FEC51383D1C
:101130006666064008050020F40400209A99993E4E
:10114000CDCC4C3DCDCC8C3F1C05002064EF00087D
:10115000CD3400084C04002088EF0008DD3400087E
:1011600050040020ACEF00080135000854040020B2
:10117000D0EF00085537000858040020F4EF0008AD
:101180007D3900085C04002018F00008893D000843
:10119000600400203CF00008A14100086404002025
:1011A00060F00008AD4500086804002084F00008E5
:1011B000BD4900086C040020A8F00008ED4F0008AD
:1011C00070040020CCF00008DD50000874040020FA
:1011D000F0F000089D5400087804002080B594B019
:1011E00000AF07F120033022002118460DF0D6F998
:1011F00007F10C0300221A605A609A60DA601A61E3
:101200000023BB60224B1B6C214A43F080531364C4
:101210001F4B1B6C03F08053BB60BB6800237B60DB
:101220001C4B1B681B4A43F480431360194B1B681B
:1012300003F480437B607B6802233B620123FB62F3
:1012400010233B630023BB6307F12003184606F01D
:10125000C1FC0346002B01D004F0A4F90F23FB606E
:1012600000233B6100237B610023BB610023FB6102
:1012700007F10C030021184606F024FF0346002B5B
:1012800001D004F08FF900BF5037BD4680BD00BFCC
:10129000003802400070004080B584B000AF3B468B
:1012A00000221A605A609A60DA60214B214A1A6063
:1012B0001F4B00225A601E4B00229A601C4B0022DA
:1012C0001A611B4B00221A76194B002283F820204A
:1012D000174B0022DA62164B174A9A62144B00220F
:1012E000DA60134B0122DA61114B002283F83020BF
:1012F0000F4B01225A610E4804F05AFD0346002BA1
:1013000001D004F04FF90B233B6001237B600023E5
:10131000BB603B461946064804F02CFF0346002BF1
:1013200001D004F03FF900BF1037BD4680BD00BFBB
:10133000BC010020002001400100000F80B584B0F6
:1013400000AF3B4600221A605A609A60DA60214B77
:10135000214A1A601F4B00225A601E4B00229A60DD
:101360001C4B00221A611B4B00221A76194B0022DB
:1013700083F82020174B0022DA62164B174A9A6234
:10138000144B0022DA60134B0122DA61114B002268
:1013900083F830200F4B01225A610E4804F008FDFB
:1013A0000346002B01D004F0FDF80C233B60012321
:1013B0007B600023BB603B461946064804F0DAFE1A
:1013C0000346002B01D004F0EDF800BF1037BD46F6
:1013D00080BD00BF04020020002101400100000F79
:1013E00080B500AF124B134A1A60114B124A5A6073
:1013F0000F4B00229A600E4B0022DA600C4B4FF428
:1014000080421A610A4B00225A61094B00229A61FC
:10141000074B0022DA61064B00221A62044805F0ED
:10142000F1FB0346002B01D004F0BCF800BF80BDE7
:101430004C02002000540040A086010080B596B008
:1014400000AF07F1480300221A605A609A60DA6020
:1014500007F1400300221A605A6007F124030022BA
:101460001A605A609A60DA601A615A619A613B1D8B
:101470002022002118460DF091F83D4B3D4A1A609C
:101480003B4BA0225A603A4B00229A60384B4FF4F3
:101490007A72DA60364B00221A61354B00225A61AB
:1014A000334B80229A61324807F01EF80346002B26
:1014B00001D004F077F84FF48053BB6407F1480380
:1014C00019462B4808F024F80346002B01D004F0FD
:1014D00069F8274807F030F90346002B01D004F0E3
:1014E00061F800233B6400237B6407F14003194645
:1014F0001F4808F071FD0346002B01D004F052F89C
:1015000060237B620023BB620023FB6200237B63BA
:101510000023BB630023FB6307F124030C2219465D
:10152000134807F033FF0346002B01D004F03AF8CC
:1015300000237B600023BB600023FB6000233B6132
:1015400000237B614FF40053BB6100233B623B1DD2
:101550001946074808F0BCFD0346002B01D004F0F3
:1015600021F8034804F02CFA00BF5837BD4680BD6F
:10157000A00200200000014080B58CB000AF07F150
:101580000C032422002118460DF008F83B1D002210
:101590001A605A60214B4FF080421A601F4B0022A4
:1015A0005A601E4B00229A601C4B4FF6FF72DA60A5
:1015B0001A4B00221A61194B00229A610323FB6027
:1015C00000233B6101237B610023BB610A23FB6194
:1015D00000233B6201237B620023BB620A23FB6280
:1015E00007F10C0319460D4807F0F8FB0346002BE2
:1015F00001D003F0D7FF00237B600023BB603B1DBD
:101600001946064808F0E8FC0346002B01D003F019
:10161000C9FF00BF3037BD4680BD00BFE8020020D3
:1016200080B58AB000AF07F1180300221A605A6033
:101630009A60DA6007F1100300221A605A603B4694
:1016400000221A605A609A60DA602B4B2B4A1A60AB
:10165000294B0F225A60284B00229A60264B4FF6E6
:10166000FF72DA60244B00221A61234B00229A6138
:10167000214806F039FF0346002B01D003F092FF0A
:101680004FF48053BB6107F1180319461A4807F05D
:101690003FFF0346002B01D003F084FF164807F0FC
:1016A0006DF90346002B01D003F07CFF00233B6162
:1016B00000237B6107F1100319460F4808F08CFCEA
:1016C0000346002B01D003F06DFF0A233B6001238A
:1016D0007B600023BB600023FB603B46042219466D
:1016E000054807F0B7FD0346002B01D003F05AFF71
:1016F00000BF2837BD4680BD3003002000040040F5
:1017000080B582B000AF3B4600221A605A60154B8C
:10171000154A1A60134B0F225A60124B00229A602E
:10172000104B4FF6FF72DA600E4B00229A610D48A3
:1017300006F0DAFE0346002B01D003F033FF00234E
:101740003B6000237B603B461946064808F044FC9A
:101750000346002B01D003F025FF00BF0837BD462C
:1017600080BD00BF780300200010004080B596B017
:1017700000AF07F1480300221A605A609A60DA60ED
:1017800007F1400300221A605A6007F12403002287
:101790001A605A609A60DA601A615A619A613B1D58
:1017A0002022002118460CF0F9FE434B434A1A60F0
:1017B000414B00225A60404B00229A603E4B41F65A
:1017C0001F42DA603C4B00221A613B4B00225A61F7
:1017D000394B00229A61384806F086FE0346002BFA
:1017E00001D003F0DFFE4FF48053BB6407F14803E0
:1017F0001946314807F08CFE0346002B01D003F058
:10180000D1FE2D4806F098FF0346002B01D003F0CF
:10181000C9FE00233B6400237B6407F140031946A3
:10182000254808F0D9FB0346002B01D003F0BAFE8F
:1018300060237B620023BB620023FB6200233B63C7
:1018400000237B630023BB630023FB6307F12403B6
:1018500000221946184807F099FD0346002B01D0D5
:1018600003F0A0FE07F1240304221946124807F0F2
:101870008DFD0346002B01D003F094FE00237B6016
:101880000023BB600023FB6000233B6100237B61DE
:101890004FF40053BB6100233B623B1D19460648D1
:1018A00008F016FC0346002B01D003F07BFE00BFBE
:1018B0005837BD4680BD00BFC00300200004014072
:1018C00080B500AF114B124A1A60104B4FF4E13251
:1018D0005A600E4B00229A600C4B0022DA600B4BD0
:1018E00000221A61094B0C225A61084B00229A61AE
:1018F000064B0022DA61054808F050FC0346002B35
:1019000001D003F04FFE00BF80BD00BF08040020DF
:101910000048004080B58AB000AF07F114030022F0
:101920001A605A609A60DA601A6100233B61384B92
:101930001B6B374A43F010031363354B1B6B03F0EB
:1019400010033B613B690023FB60314B1B6B304A4A
:1019500043F0040313632E4B1B6B03F00403FB6083
:10196000FB680023BB602A4B1B6B294A43F0010331
:101970001363274B1B6B03F00103BB60BB680023A1
:101980007B60234B1B6B224A43F002031363204B03
:101990001B6B03F002037B607B6800224FF45E61E7
:1019A0001C4805F015F900223C211B4805F010F9F0
:1019B0004FF45E637B610123BB610023FB61002365
:1019C0003B6207F114031946124804F065FF0C232B
:1019D0007B610123BB610023FB6102233B6207F1B2
:1019E000140319460C4804F057FF30237B61012390
:1019F000BB610023FB6100233B6207F1140319461E
:101A0000054804F049FF00BF2837BD4680BD00BF30
:101A100000380240001002400000024000000000B8
:101A200080B582B000AF78607B681B7F022B40F0EE
:101A30008C804B4B1B78002B1AD10421786807F05F
:101A40002FFE0346474A1360454B01221A707B68FC
:101A50001B681A6A7B681B6822F0A0021A627B6806
:101A60001B681A6A7B681B6842F020021A626CE0ED
:101A70003B4B1B78012B68D10421786807F010FEDE
:101A80000346394A13607B681B6800225A62364B52
:101A90001A68344B1B689A420CD9334B1A68314B85
:101AA0001B68D31A07EE903AF8EE677A2F4BC3ED16
:101AB000007A14E02B4B1A682B4B1B689A420ED904
:101AC000294B1A68274B1B68D31A03F57F43FF3352
:101AD00007EE903AF8EE677A244BC3ED007A234B79
:101AE0001B681846FEF728FD1BA3D3E90023FEF769
:101AF0007BFD02460B46104619464FF000024FF0A0
:101B00008043FEF79BFE02460B4610461946FFF740
:101B100025F80346154A1360114B00221A707B68A2
:101B20001B681A6A7B681B6822F0A0021A627B6835
:101B30001A687B681B68126A1A620D4B1B68DA68A8
:101B40000B4B1B6822F00402DA6000BF0837BD4669
:101B500080BD00BFAFF300809CC420B07268A13F7D
:101B600050050020480500204C05002038050020C5
:101B70003003002080B584B000AF7860944B9B7830
:101B8000A3F1300213469B0013445B001A46904BAE
:101B9000DB78303B1344FB608D4B1B792F2B0ED928
:101BA0008B4B1B79392B0AD8FA6813469B001344D8
:101BB0005B001A46864B1B79303B1344FB60854B18
:101BC00000221A70824B1B78532B59D1804B5B78C3
:101BD000542B55D1804B1B6800225A637E4B1B68E7
:101BE00000229A637D4B1A787D4B1A707B4B0C2236
:101BF0001A707C4B4FF000021A607B4B00221A8057
:101C00007A4800F0FAFB7A4800F0F7FB794800F0D8
:101C1000F4FB794B00221A80784B1A78774B5B786B
:101C20009A4212D1764B64221A70754B00225A8068
:101C3000744A0F2174480CF07DFC4FF6FF730622A6
:101C40007249734808F0F7FA79E36C4B5B786C4A99
:101C50006A499B000B445B681360684B5B780133F7
:101C6000664A927893FBF2F101FB02F29B1ADAB218
:101C7000624B5A70674A0F2163480CF05BFC5EE3CD
:101C8000534B1B78522B61D1514B5B78532B5DD159
:101C9000514B1B6800225A634F4B1B6800229A630A
:101CA0004E4B1A784E4B1A704C4B0C221A704D4BFF
:101CB0004FF000021A604C4B00221A80564B1B68F2
:101CC00091221A644FF4967004F04EF8474800F0E1
:101CD00094FB474800F091FB464800F08EFB464BD2
:101CE00000221A80454B1A78444B5B789A4212D1F5
:101CF000434B64221A70424B00225A80414A0F2102
:101D000041480CF017FC4FF6FF7306223F4940484C
:101D100008F091FA13E3394B5B78394A37499B0055
:101D20000B445B681360354B5B780133334A927820
:101D300093FBF2F101FB02F29B1ADAB22F4B5A70BD
:101D4000344A0F2130480CF0F5FBF8E2204B1B78A9
:101D5000462B65D11E4B5B78572B03D01C4B5B7811
:101D6000532B5DD11A4B9B782D2B05D1184BDB786B
:101D70002D2B01D1012300E00023DAB2154B1A709C
:101D8000134B5B78532B14BF01230023DBB21A469D
:101D9000224B1A70194B1B78184A9B0013440122DE
:101DA0001A71164B1B78FA6891B2144A9B001344BF
:101DB0000A46DA80114B1B780133104A927893FB64
:101DC000F2F101FB02F29B1ADAB20C4B1A70B6E286
:101DD0007C040020D0040020C00300203401002037
:101DE00035010020D8040020DE0400200805002072
:101DF000F40400201C050020EC04002088040020CE
:101E0000BC04002034EF0008C00400203CEF0008B0
:101E10000804002044EF0008A00200203601002042
:101E2000964B1B78422B3DD1944B5B78572B03D0BC
:101E3000924B5B78532B35D1904B9B782D2B05D152
:101E40008E4BDB782D2B01D1012300E00023DAB289
:101E50008B4B1A70894B5B78532B14BF01230023E3
:101E6000DBB21A46874B1A70874B1B78864A9B0059
:101E7000134402221A71844B1B78FA6891B2824A89
:101E80009B0013440A46DA807F4B1B7801337E4A5D
:101E9000927893FBF2F101FB02F29B1ADAB27A4BD1
:101EA0001A704CE2754B1B78462B36D1734B5B781E
:101EB0004C2B32D1714B9B782D2B05D16F4BDB789E
:101EC0002D2B01D1012300E00023DAB26C4B1A70F4
:101ED0006B4B1B78002B01D0032100E007216A4BDC
:101EE0001B78694A9B0013440A461A71664B1B789B
:101EF000FA6891B2644A9B0013440A46DA80624B46
:101F00001B780133604A927893FBF2F101FB02F2F5
:101F10009B1ADAB25C4B1A7011E2584B1B78462BB5
:101F200036D1564B5B78522B32D1544B9B782D2BAC
:101F300005D1524BDB782D2B01D1012300E000238A
:101F4000DAB24F4B1A704E4B1B78002B01D0042194
:101F500000E008214C4B1B784B4A9B0013440A4677
:101F60001A71494B1B78FA6891B2474A9B00134497
:101F70000A46DA80444B1B780133434A927893FB3C
:101F8000F2F101FB02F29B1ADAB23F4B1A70D6E172
:101F90003A4B1B78422B36D1384B5B784C2B32D1E5
:101FA000364B9B782D2B05D1344BDB782D2B01D173
:101FB000012300E00023DAB2314B1A70304B1B785A
:101FC000002B01D0052100E009212F4B1B782E4A60
:101FD0009B0013440A461A712B4B1B78FA6891B286
:101FE000294A9B0013440A46DA80274B1B780133A9
:101FF000254A927893FBF2F101FB02F29B1ADAB2C6
:10200000214B1A709BE11D4B1B78422B3ED11B4B81
:102010005B78522B3AD1194B9B782D2B05D1174B5E
:10202000DB782D2B01D1012300E00023DAB2144B21
:102030001A70134B1B78002B01D0062100E00A21F7
:10204000114B1B78104A9B0013440A461A710E4B21
:102050001B78FA6891B20C4A9B0013440A46DA8056
:10206000094B1B780133084A927893FBF2F101FB8C
:1020700002F29B1ADAB2044B1A7060E17C04002071
:10208000D00400203601002088040020974B1B78E4
:10209000542B21D1954B5B784C2B1DD1944B1B7845
:1020A000934A9B0013440B221A71914B1B78FA68D8
:1020B00091B28F4A9B0013440A46DA808C4B1B78FE
:1020C00001338B4A927893FBF2F101FB02F29B1AE7
:1020D000DAB2874B1A7032E1844B1B78542B21D132
:1020E000824B5B78522B1DD1814B1B78804A9B0021
:1020F00013440C221A717E4B1B78FA6891B27C4A09
:102100009B0013440A46DA80794B1B780133784AE6
:10211000927893FBF2F101FB02F29B1ADAB2744B54
:102120001A700CE1714B1B78442B21D16F4B5B78FB
:10213000542B1DD16E4B1B786D4A9B0013440E220D
:102140001A716B4B1B78FA6891B2694A9B00134471
:102150000A46DA80664B1B780133654A927893FB16
:10216000F2F101FB02F29B1ADAB2614B1A70E6E05F
:102170005E4B1B78462B21D15C4B5B78412B1DD1EC
:102180005B4B1B785A4A9B00134458221A71584BD8
:102190001B78FA6891B2564A9B0013440A46DA80CB
:1021A000534B1B780133524A927893FBF2F101FBB7
:1021B00002F29B1ADAB24E4B1A70C0E04B4B1B78FE
:1021C000462B21D1494B5B78432B1DD1484B1B78C3
:1021D000474A9B00134459221A71454B1B78FA68F1
:1021E00091B2434A9B0013440A46DA80404B1B7865
:1021F00001333F4A927893FBF2F101FB02F29B1A02
:10220000DAB23B4B1A709AE0384B1B78422B21D143
:10221000364B5B78412B1DD1354B1B78344A9B00E4
:1022200013445A221A71324B1B78FA6891B2304A21
:102230009B0013440A46DA802D4B1B7801332C4A4D
:10224000927893FBF2F101FB02F29B1ADAB2284B6F
:102250001A7074E0254B1B78422B21D1234B5B78FD
:10226000432B1DD1224B1B78214A9B0013445B2238
:102270001A711F4B1B78FA6891B21D4A9B001344D8
:102280000A46DA801A4B1B780133194A927893FB7D
:10229000F2F101FB02F29B1ADAB2154B1A704EE012
:1022A000124B1B78542B25D1104B5B78412B21D13D
:1022B0000F4B1B780E4A9B0013445C221A710C4B87
:1022C0001B78FA6891B20A4A9B0013440A46DA80E6
:1022D000074B1B780133064A927893FBF2F101FB1E
:1022E00002F29B1ADAB2024B1A7028E07C0400203A
:1022F00088040020294B1B78492B20D1274B5B7881
:10230000522B1CD1264B1B78254A9B0013445D227F
:102310001A71234B1B78FA6891B2214A9B0013442F
:102320000A46DA801E4B1B7801331D4A927893FBD4
:10233000F2F101FB02F29B1ADAB2194B1A70184B38
:102340001A78174B5B789A4219D0154B5B78154A6F
:1023500013499B000B445B681360114B5B7801339E
:102360000F4A927893FBF2F101FB02F29B1ADAB268
:102370000B4B5A700C4A0F210C480CF0DBF80C4B3D
:102380001B685B680B4B1B789BB21A4603490848D5
:1023900007F0E3FF00BF1037BD4680BD7C0400207E
:1023A00088040020BC04002044EF0008C004002082
:1023B000080400200000002080B485B000AFF86061
:1023C00087ED020AC7ED010A87ED001AFB68BA68BB
:1023D0001A60FB687A685A60FB683A689A60FB6822
:1023E0004FF00002DA60FB684FF000021A6100BF94
:1023F0001437BD465DF8047B704780B483B000AFEE
:1024000078607B684FF00002DA607B684FF0000272
:102410001A6100BF0C37BD465DF8047B70470000B1
:1024200080B500AF00224FF400611A4804F0D0FBE1
:10243000194B1B6800225A62174B1B685B6A312BD1
:10244000FAD901224FF40061124804F0C1FB124B8B
:102450001B6800225A62104B1B685B6A092BFAD971
:1024600000224FF400610B4804F0B2FB0A4B1B68DA
:1024700000225A62084B1B685B6A312BFAD9074B62
:102480001B68DA68054B1B6842F00402DA6000BF83
:1024900080BD00BF00100240780300203003002000
:1024A00080B586B004AF0346FB714FF6FF7302930D
:1024B00002230193A94B009301233722D021A8487E
:1024C00004F0DEFDA54B1B781B021AB2A34B5B7810
:1024D0001BB213431AB2A34B1A80A34B1B681B6891
:1024E00003F01003102B0CBF01230023DBB25AB200
:1024F0009E4B1A709B4BB3F9003013F1040F04DBB1
:10250000984BB3F900300B2B07DD964BB3F9003035
:1025100007EE903AF8EEE77A01E0DFED957A954B19
:1025200093ED007A77EE877A924BC3ED007AFB79D0
:10253000002B64D1904B93ED007A8E4BD3ED007A53
:1025400027EE277A8C4BD3ED016A8B4BD3ED047ABF
:1025500066EEA77A37EE277A874BD3ED026A864B71
:1025600093ED036A834BD3ED007A76EE677A66EEDD
:10257000A77A77EE277AFDEEE77A17EE902A7F4B5F
:102580001A607C4B1B687C4AD3607B4B93ED047ACA
:10259000784BD3ED007A77EE277A774BC3ED047A48
:1025A000764B1B68B3F5167F06DC744B1B68744AC8
:1025B0009342B8BF134601E04FF416736F4A13609D
:1025C0006A4B93F900309AB26C4B1B689BB212FBBA
:1025D00003F39BB203F596639AB26A4B1A80634B7E
:1025E00093F900309AB2654B1B689BB212FB03F360
:1025F0009BB2C3F596639AB2634B1A80EFE0FB7906
:10260000022B65D1614B93ED007A5A4BD3ED007AE2
:1026100027EE277A5D4BD3ED016A5C4BD3ED047A4C
:1026200066EEA77A37EE277A584BD3ED026A574BFE
:1026300093ED036A4F4BD3ED007A76EE677A66EE40
:10264000A77A77EE277AFDEEE77A17EE902A4B4BC2
:102650001A60484B1B684D4AD3604C4B93ED047A8B
:10266000444BD3ED007A77EE277A484BC3ED047ADA
:10267000424B1B68B3F52F7F06DC404B1B68444A76
:102680009342B8BF134601E04FF42F733B4A1360E7
:10269000364B93F900309AB2384B1B689BB212FB51
:1026A00003F39BB203F6B8339AB2364B1A802F4B22
:1026B00093F900309AB2314B1B689BB212FB03F3C3
:1026C0009BB2C3F53B6308339AB22F4B1A8086E066
:1026D000FB79012B40F083802E4B93ED007A254B44
:1026E000D3ED007A27EE277A2A4BD3ED016A294BE6
:1026F000D3ED047A66EEA77A37EE277A254BD3ED31
:10270000026A244B93ED036A1A4BD3ED007A76EEFE
:10271000677A66EEA77A77EE277AFDEEE77A17EE0C
:10272000902A164B1A60134B1B681A4AD360194B38
:1027300093ED047A0F4BD3ED007A77EE277A154BA1
:10274000C3ED047A0D4B1B68B3F52F7F24DC0B4BD4
:102750001B680F4A9342B8BF13461FE0DC040020F9
:102760004C020020DE040020E80200203C01002092
:1027700000000000D80400200805002058050020B3
:10278000A8FDFFFFE0040020E20400201C0500205B
:1027900044FDFFFFF40400204FF42F73174A136029
:1027A000174B93F900309AB2144B1B689BB212FB83
:1027B00003F39BB203F6FC039AB2124B1A80104B40
:1027C00093F900309AB20D4B1B689BB212FB03F3D6
:1027D0009BB2C3F50F630C339AB20B4B1A80094BB3
:1027E0001A880A4B1B685A63074B1A88074B1B68E9
:1027F0009A6300BF0837BD4680BD00BF5805002062
:102800003C010020E0040020E2040020C00300207E
:1028100080B584B000AF78600B46FB701346BB7088
:10282000A34B4FF000021A60A24B00221A80A2486C
:10283000FFF7E3FDA148FFF7E0FDA148FFF7DDFD4D
:10284000A04B00221A80A04B00221A809D4B002230
:102850001A807B681B681846FDF76EFE8EA3D3E9CD
:102860000023FDF7C1FE02460B46104619468CA315
:10287000D3E90023FDF700FD02460B46104619463A
:102880004FF00002914BFDF7D9FF02460B46104670
:1028900019464FF000028E4BFDF7A6FE02460B468E
:1028A000104619464FF000028A4BFDF7E5FC024640
:1028B0000B4610461946FEF731F903469AB2864B8D
:1028C0001A8003F045FA0346844A1360FB78002B14
:1028D0000CBF01230023DBB21A460421804804F018
:1028E00077F9FB78002B14BF01230023DBB21A46D3
:1028F00008217B4804F06CF9FB78002B0CBF012306
:102900000023DBB21A462021754804F061F9FB78F8
:10291000002B14BF01230023DBB21A46102170489C
:1029200004F056F96F4B1B685B6A9AB26E4B1A80C3
:102930006C4B1B685B6AFB606A4B1B681B6803F08F
:102940001003102B17D1684B1B881A46FB68934263
:1029500006D8654B1A88FB689BB2D31A9BB207E076
:10296000614B1A88FB689BB2D31A9BB2013B9BB2A6
:10297000554A138016E05C4B1B881A46FB6893424D
:1029800006D3FB689AB2584B1B88D31A9BB207E058
:10299000FB689AB2544B1B88D31A9BB2013B9BB283
:1029A000494A1380FB689AB24F4B1A80454B1A88EC
:1029B000454B1B8813449AB2424B1A80414B1A88EC
:1029C000454B1B889A4280F0A68003F0C1F902466D
:1029D000424B1B68D31A092BAAD9BB78002B03D111
:1029E0000020FFF75DFD90E0364B1B881A463A4BFE
:1029F0001B88D31A002BB8BF5B423C4A82FB0312F0
:102A0000D211DB17D31A07EE903AF8EEE77A384B7B
:102A1000C3ED007ABB78012B1ED1354BD3ED007A84
:102A2000B7EE007AF4EEC77AF1EE10FA02DD4FF05D
:102A30007E530EE02E4BD3ED007AB6EE087AF4EE1C
:102A4000C77AF1EE10FA02D54FF07D5301E0284B22
:102A50001B68274A136053E0BB78022B50D1244BEC
:102A6000D3ED007AB7EE007AF4EEC77AF1EE10FA01
:102A700002DD4FF07E5341E01D4B1B681846FDF709
:102A80005BFD09A3D3E90023FEF720F80346002BE2
:102A900032D0184B32E000BF2AB266FCAC66F23F7F
:102AA000F82625BBD4E3EE3F9A9999999999D93F95
:102AB000D8040020DE04002008050020F4040020D3
:102AC0001C050020EC040020F0040020000034402D
:102AD00000A0944000002440EE040020E404002004
:102AE00000000240E8020020F2040020675719218C
:102AF00038010020CDCCCC3E0D4B1B680C4A136036
:102B0000BB780B49184600F019F803F021F9034689
:102B1000084A13600CE700BF074B1B6800225A638A
:102B2000054B1B6800229A6300BF1037BD4680BD6D
:102B300038010020E4040020C003002080B586B0E6
:102B400004AF03463960FB714FF6FF730293022313
:102B500001939B4B009301233722D021994804F025
:102B60008FFA974B1B781B021AB2954B5B781BB2FE
:102B700013431AB2944B1A80944B1B681B6803F0E2
:102B80001003102B01D1012201E04FF0FF32904BD6
:102B90001A708D4BB3F9003013F1040F04DB8A4B2C
:102BA000B3F900300B2B07DD874BB3F9003007EE8C
:102BB000903AF8EEE77A01E0DFED867A864B93ED06
:102BC000007A77EE877A844BC3ED007AFB79012B8C
:102BD00065D1824B93ED007A7F4BD3ED007A27EEDF
:102BE000277A7E4BD3ED016A7C4BD3ED047A66EEF7
:102BF000A77A37EE277A794BD3ED026A774B93EDBC
:102C0000036A754BD3ED007A76EE677A66EEA77AA3
:102C100077EE277AFDEEE77A17EE902A704B1A606E
:102C20006D4B1B686D4AD3606C4B93ED047A6A4B15
:102C3000D3ED007A77EE277A684BC3ED047A684BC0
:102C40001B68B3F52F7F06DC654B1B68654A934212
:102C5000B8BF134601E04FF42F73614A13605C4B19
:102C600093F900309AB25E4B1B689BB212FB03F3E0
:102C70009BB203F6FC039AB25B4B1A80544B93F958
:102C800000309AB2564B1B689BB212FB03F39BB207
:102C9000C3F50F630C339AB2544B1A8067E0FB798B
:102CA000022B64D1524B93ED007A4B4BD3ED007A5B
:102CB00027EE277A4E4BD3ED016A4D4BD3ED047AC4
:102CC00066EEA77A37EE277A494BD3ED026A484B76
:102CD00093ED036A404BD3ED007A76EE677A66EEA9
:102CE000A77A77EE277AFDEEE77A17EE902A3C4B2B
:102CF0001A60394B1B683E4AD3603D4B93ED047A12
:102D0000354BD3ED007A77EE277A394BC3ED047A51
:102D1000334B1B68B3F52F7F06DC314B1B68314A00
:102D20009342B8BF134601E04FF42F732C4A13604F
:102D3000274B93F900309AB2294B1B689BB212FBC8
:102D400003F39BB203F6B8339AB2274B1A80204B99
:102D500093F900309AB2224B1B689BB212FB03F32B
:102D60009BB2C3F53B6308339AB2204B1A801E4BCB
:102D70001B8807EE903AB8EEE77A3B68D3ED007A0D
:102D800067EE277A1B4B1B68FCEEE77A17EE902A5A
:102D90005A63164B1B8807EE903AB8EEE77A3B6809
:102DA000D3ED007A67EE277A124B1B68FCEEE77AC8
:102DB00017EE902A9A6300BF0837BD4680BD00BF5A
:102DC000DC0400204C020020DE040020E802002089
:102DD0003C01002000000000D8040020F404002082
:102DE0005805002044FDFFFFE0040020E20400201D
:102DF0001C050020C0030020B0B586B004AF786089
:102E00004B4B4FF000021A604A4B00221A8002F02E
:102E10009FFF0346484A136002F09AFF0246464B62
:102E20001B68D31A092BF7D94FF6FF7302930223BD
:102E30000193424B009301233722D021404804F0F4
:102E40001FF93E4B1B781B021AB23C4B5B781BB23E
:102E500013431AB2374B1A80354B1B681846FDF7DF
:102E60006BFB04460D46334BB3F900301846FDF7B3
:102E700051FB2BA3D3E90023FDF7E0FC02460B46F0
:102E80001046194628A3D3E90023FDF7ADFB0246FF
:102E90000B4620462946FDF7F1F902460B4610463F
:102EA0001946FDF75BFE0346214A1360204B93ED64
:102EB000007A7B68D3ED007A77EE677AFDEEE77AE9
:102EC00017EE903A002B0DDB194B93ED007A7B68DF
:102ED000D3ED007A77EE677AFDEEE77A17EE903A57
:102EE000002B05DD02F034FF0346134A136093E71D
:102EF00000BF144B1B6800225A63124B1B68002250
:102F00009A63114B1B6891221A644FF4967002F079
:102F10002BFF00BF0837BD46B0BD00BFAFF3008038
:102F200066666666666630407B14AE47E17A843F2B
:102F3000D8040020DE040020E4040020DC0400208B
:102F40004C020020C0030020A0020020000000006E
:102F500080B582B000AF78600B46FB709C4B4FF0A1
:102F600000021A609B4B00221A809B48FFF745FA2B
:102F70009A48FFF742FA9A48FFF73FFA994B9A4A64
:102F80001A600421994805F053FD02F0E1FE034662
:102F9000974A1360FFF744FA0A2008F097FA7B6813
:102FA00093ED007A8F4BD3ED007A77EE677AFDEEE2
:102FB000E77A17EE903A002B0EDB7B6893ED007AF0
:102FC000884BD3ED007A77EE677AFDEEE77A17EE5D
:102FD000903A002B40F3E6807B6893ED007A814BBA
:102FE000D3ED007AB4EEE77AF1EE10FA94BF012344
:102FF0000023DBB283F00103DBB2DBB21A4604210B
:103000007C4803F0E5FD7B6893ED007A754BD3EDCA
:10301000007AB4EEE77AF1EE10FA94BF01230023B0
:10302000DBB21A460821734803F0D2FD7B6893EDAA
:10303000007A6C4BD3ED007AB4EEE77AF1EE10FA39
:1030400094BF01230023DBB283F00103DBB2DBB2C8
:103050001A462021674803F0BBFD7B6893ED007A98
:10306000604BD3ED007AB4EEE77AF1EE10FA94BF3C
:1030700001230023DBB21A4610215E4803F0A8FDAD
:1030800002F066FE02465A4B1B68D31A132B81D9F5
:10309000FB78012B3FD1534B93ED007A7B68D3ED46
:1030A000007A77EE677AFDEEE77A17EE903A002B1A
:1030B000B8BF5B42504A82FB03121A44D210DB179E
:1030C000D31A07EE903AF8EEE77A4C4BC3ED007A4C
:1030D0004A4BD3ED007AB7EE007AF4EEC77AF1EE00
:1030E00010FA02DD4FF07E530EE0444BD3ED007A30
:1030F000B6EE087AF4EEC77AF1EE10FA02D54FF088
:103100007D5301E03D4B1B683C4A13603B49012065
:10311000FFF714FD40E0334B93ED007A7B68D3ED6D
:10312000007A77EE677AFDEEE77A17EE903A002B99
:10313000B8BF5B42304A82FB03121A44D210DB173D
:10314000D31A07EE903AF8EEE77A2C4BC3ED007AEB
:103150002A4BD3ED007AB7EE007AF4EEC77AF1EE9F
:1031600010FA02DD4FF07E5310E0244B1B68184626
:10317000FDF7E2F914A3D3E90023FDF7A7FC03460A
:10318000002B01D01E4B01E01C4B1B681B4A136037
:103190001A490220FFF7D2FC02F0DAFD0346144A76
:1031A0001360F7E600BF174B1B6800225A63154BEC
:1031B0001B6800229A6304210C4805F061FD00BFE2
:1031C0000837BD4680BD00BF9A9999999999D93F12
:1031D000D8040020DE04002008050020F4040020AC
:1031E0001C0500203805002000007A443003002030
:1031F000E40400200000024089888888380100200B
:10320000CDCCCC3EC003002080B584B002AF786046
:103210009B48FFF7F2F89B48FFF7EFF89A48FFF753
:10322000ECF89A4B00221A70994B00221A70994BB5
:103230004FF000021A60984B00221A8002F088FDBD
:103240000346964A13607B68002B00F094809448F4
:1032500002F0F2FD1421924802F0F3FE904802F0D1
:103260007BFF02468F4B1B6813448E4A13608E4BC4
:103270001B885A1C8D4B83FB02135910D317C91A94
:103280000B469B000B44D11A8AB2874B1A80864B9F
:103290001B88042B2CD1834B1B68834A1288B3FBF9
:1032A000F2F31846FDF726F96DA3D3E90023FCF7E6
:1032B000E3FF02460B46104619466BA3D3E90023F1
:1032C000FDF7BCFA02460B4610461946FDF726FCF0
:1032D0000346DAB26D4B1A70724B1B68724A128841
:1032E000B3FBF2F39AB2724B1A806E4B00221A6053
:1032F000142008F0EBF8654B1B78232B2ED802F036
:1033000027FD0246654B1B68D31A092B9FD95F4BDB
:103310001B781A460C2300930523002100200AF095
:10332000DDFF00220421634803F052FC0122082142
:10333000604803F04DFC002220215E4803F048FC69
:10334000012210215B4803F043FC0220FFF7A8F89C
:1033500002F0FEFC0346514A136078E700BF564B6B
:103360001B6800225A63544B1B6800229A634C4826
:1033700002F034FE6FE0514802F05EFD14214F4828
:1033800002F05FFE4D4802F0E7FE02464C4B1B6820
:1033900013444B4A13604B4B1B885A1C434B83FB13
:1033A00002135910D317C91A0B469B000B44D11AAC
:1033B0008AB2444B1A80434B1B88042B2AD1404BC2
:1033C0001B68404A1288B3FBF2F31846FDF792F8E7
:1033D00027A3D3E90023FCF74FFF02460B4626A1A3
:1033E000D1E90001FDF72AFA02460B4610461946BC
:1033F000FDF794FB0346DAB2254B1A70304B1B687D
:10340000304A1288B3FBF2F39AB22F4B1A802C4B3E
:1034100000221A601E4B1B78232B10D802F098FC58
:1034200002461E4B1B68D31A092BA4D90220FFF7B2
:1034300037F802F08DFC0346184A13609BE700BF83
:103440001D4B1B6800225A631B4B1B6800229A63AA
:103450001A4802F0C3FD00BF0837BD4680BD00BF5B
:10346000AC781ED8F55CAA40C6C4E6E3DA984FC033
:10347000D32357FBC546704066834C32340BD9408A
:1034800008050020F40400201C050020350500205C
:1034900034050020D8040020DE040020E4040020CD
:1034A000BC010020400500203C05002067666666E0
:1034B0003005002000000240C0030020040200206C
:1034C000440500203E0500203205002080B582B072
:1034D00000AF7860642007F0F9FFFBE780B582B0A9
:1034E00000AF7860054A282100200AF065FF0AF045
:1034F00065FD642007F0EAFFF4E700BF7C040020CC
:1035000080B582B000AF78607B4B1B78002B04D075
:103510004FF47A7007F0DAFFF6E7784B4FF00002CD
:103520001A60774B00221A80764B1B78002B62D0F2
:10353000754B4FF000021A60744B00221A807448D9
:10354000FEF75BFF7348FEF758FF7348FEF755FF21
:1035500000220421714803F03BFB012208216F483F
:1035600003F036FB002220216C4803F031FB0122DE
:1035700010216A4803F02CFB694B1B6800225A6338
:10358000674B1B6800229A635B4B1A78654B1A7075
:10359000594B0C221A70644B00221A60634B642250
:1035A0001A70624B00225A80614A0F2161480AF06A
:1035B000C1FF4FF6FF7306225F49604806F03BFEED
:1035C00002F0C6FB03465E4A13604E4B1B78002B8D
:1035D00000F0908002F0BCFB0246594B1B68D31AE6
:1035E000092BF2D90020FEF75BFF02F0B1FB034686
:1035F000534A1360E9E74D4B5B8807EE903AF8EECB
:10360000677A3E4BC3ED007A3C4BD3ED007AB2EEC5
:103610000E7AF4EEC77AF1EE10FA02D8494B002286
:103620001A70364BD3ED007A9FED477AF4EEC77AE5
:10363000F1EE10FA09DB314BD3ED007AB0EE007AEF
:1036400077EEC77A2D4BC3ED007A3E4B1B78002BEB
:1036500005D1002201212948FFF7DAF804E002220F
:1036600001212648FFF7D4F82D4B1B6800225A632E
:103670002B4B1B6800229A631F4B1A78294B1A7038
:103680001D4B0C221A70284B00221A602F4B1A78FF
:103690002E4B5B789A4212D1244B64221A70234B32
:1036A00000225A80224A0F2122480AF043FF4FF697
:1036B000FF7306222049214806F0BDFD24E7234B75
:1036C0005B781A4A21499B000B445B6813601F4BCF
:1036D0005B7801331D4A927893FBF2F101FB02F211
:1036E0009B1ADAB2194B5A70194A0F2111480AF085
:1036F00021FF09E700BF07E734010020E8040020AC
:10370000EE040020D0040020D8040020DE040020B5
:1037100008050020F40400201C05002000000240E1
:10372000C00300203501002054050020BC04002007
:1037300034EF0008C00400203CEF0008080400201B
:10374000E4040020360100200000C8428804002064
:1037500044EF000880B582B000AF7860714B1B78F1
:10376000012B04D04FF47A7007F0B0FEF6E76E4BF1
:103770004FF000021A606D4B00221A806C4B1B78D0
:10378000002B61D06B4B4FF000021A606A4B002295
:103790001A806A48FEF731FE6948FEF72EFE694836
:1037A000FEF72BFE01220421674803F011FA0022E4
:1037B0000821654803F00CFA01222021624803F039
:1037C00007FA00221021604803F002FA5F4B1B68E1
:1037D00000225A635D4B1B6800229A63514B1A7892
:1037E0005B4B1A704F4B0C221A705A4B00221A6016
:1037F000594B64221A70584B00225A80574A0F21A5
:1038000057480AF097FE4FF6FF730622554956486F
:1038100006F011FD02F09CFA0346544A1360444B33
:103820001B78002B7BD002F093FA02464F4B1B68AB
:10383000D31A092BF3D90020FEF732FE02F088FAE2
:1038400003464A4A1360EAE7434B5B8807EE903A27
:10385000F8EE677A344BC3ED007A334BD3ED007A40
:10386000B2EE0E7AF4EEC77AF1EE10FA02D8404BBF
:1038700000221A703E4B1B78002B05D1002200213C
:103880002948FEF7C5FF04E0022200212648FEF782
:10389000BFFF2E4B1B6800225A632C4B1B68002273
:1038A0009A63204B1A782A4B1A701E4B0C221A70FE
:1038B000284B00221A602F4B1A782E4B5B789A42C5
:1038C00012D1254B64221A70234B00225A80234ABE
:1038D0000F2123480AF02EFE4FF6FF7306222149DE
:1038E000214806F0A8FC39E7224B5B781A4A2149A7
:1038F0009B000B445B6813601E4B5B7801331D4AD1
:10390000927893FBF2F101FB02F29B1ADAB2194BA7
:103910005A70194A0F2112480AF00CFE1EE700BF28
:103920001CE700BF34010020E8040020EE04002062
:10393000D0040020D8040020DE0400200805002068
:10394000F40400201C05002000000240C0030020F9
:103950003501002054050020BC04002034EF00088D
:10396000C00400203CEF000808040020E40400200C
:10397000360100208804002044EF000880B582B0A2
:1039800000AF7860944B1B78022B04D04FF47A7010
:1039900007F09CFDF6E7914B5B88142B00F08380C9
:1039A0001E2B40F0F8808E4B8E4A1A6000220121B7
:1039B0008B48FEF72DFF8C4BD3ED3D7A9FED8B7A34
:1039C000F4EEC77AF1EE10FA02DD40F2091312E0CC
:1039D000854BD3ED3D7A9FED867AF4EEC77AF1EE12
:1039E00010FA01D5462306E07F4BD3ED3D7AFCEE7D
:1039F000E77A17EE903A7F4A126813644FF4967094
:103A000002F0B2F9784BD3F8F8307B4A1360764B6A
:103A100093F8FC30002B0CBF01230023DBB21A46C5
:103A20000421764803F0D4F86F4B93F8FC30002B58
:103A300014BF01230023DBB21A4608216F4803F0AC
:103A4000C7F8694B93F8FC30002B0CBF012300230F
:103A5000DBB21A462021694803F0BAF8624B93F8AA
:103A6000FC30002B14BF01230023DBB21A461021C7
:103A7000624803F0ADF85C4BB3F8F020604B1B6874
:103A80005A63594BB3F8F2205D4B1B689A635A484E
:103A9000FFF7B2F9524B5B4A1A60002200215048EE
:103AA000FEF7B6FE11E14E4B4E4A1A60002201218C
:103AB0004B48FEF7ADFE4C4BD3ED2D7A9FED4B7A84
:103AC000F4EEC77AF1EE10FA02DD40F2091312E0CB
:103AD000454BD3ED2D7A9FED467AF4EEC77AF1EEA1
:103AE00010FA01D5462306E03F4BD3ED2D7AFCEECC
:103AF000E77A17EE903A3F4A126813644FF49670D3
:103B000002F032F9384BD3F8B8303B4A1360364BE9
:103B100093F8BC30002B0CBF01230023DBB21A4604
:103B20000421364803F054F82F4B93F8BC30002B97
:103B300014BF01230023DBB21A4608212F4803F0EB
:103B400047F8294B93F8BC30002B0CBF012300230E
:103B5000DBB21A462021294803F03AF8224B93F8A9
:103B6000BC30002B14BF01230023DBB21A46102106
:103B7000224803F02DF81C4BB3F8B020204B1B68F3
:103B80005A63194BB3F8B2201D4B1B689A631A484D
:103B9000FFF732F999E0124B1B4A1A60002201210B
:103BA0000F48FEF735FE104BD3ED1D7A9FED0F7ACF
:103BB000F4EEC77AF1EE10FA02DD40F209132CE0C0
:103BC000094BD3ED1D7A9FED0A7AF4EEC77AF1EE38
:103BD00010FA1BD5462320E034010020BC0400204D
:103BE000E80400200000A04004000020008084437E
:103BF00000008C42A0020020D404002000000240FB
:103C0000C003002000004040000030414E4BD3ED87
:103C10001D7AFCEEE77A17EE903A4C4A126813646C
:103C20004FF4967002F0A0F8474B9B6F484A136020
:103C3000454B93F87C30002B0CBF01230023DBB2F3
:103C40001A460421434802F0C3FF3F4B93F87C30EF
:103C5000002B14BF01230023DBB21A4608213D4884
:103C600002F0B6FF384B93F87C30002B0CBF0123D9
:103C70000023DBB21A462021364802F0A9FF324B5E
:103C800093F87C30002B14BF01230023DBB21A46CB
:103C90001021304802F09CFF2B4BB3F870202E4BC4
:103CA0001B685A63284BB3F872202B4B1B689A632E
:103CB0002748FFF7A1F8294B4FF080421A600022F5
:103CC00001212648FEF7A4FD00BF254B00221A6003
:103CD000244B1A78244B1A70224B0C221A70234B57
:103CE0001A78224B5B789A4212D1214B64221A70C7
:103CF0001F4B00225A801F4A0F211F480AF01AFC4E
:103D00004FF6FF7306221D491D4806F094FA39E666
:103D1000164B5B78164A15499B000B445B68136091
:103D2000124B5B780133114A927893FBF2F101FB5D
:103D300002F29B1ADAB20D4B5A70124A0F210E484A
:103D40000AF0F8FB1EE600BF04000020A0020020DD
:103D5000D404002000000240C0030020E80400203A
:103D60005405002034010020350100208804002083
:103D7000BC04002034EF0008C00400203CEF000821
:103D80000804002044EF000880B582B000AF7860DE
:103D9000994B1B78032B04D04FF47A7007F096FBF5
:103DA000F6E7964B5B88142B00F085801E2B40F0C5
:103DB0000181934B4FF081421A600022012190480B
:103DC000FEF726FD8F4BD3ED417A9FED8F7AF4EE0F
:103DD000C77AF1EE10FA02DD40F2091312E0894BC6
:103DE000D3ED417A9FED897AF4EEC77AF1EE10FABD
:103DF00001D5462306E0834BD3ED417AFCEEE77A0A
:103E000017EE903A824A126813644FF4967001F0EC
:103E1000ABFF7C4BD3F808317E4A1360794B93F8A3
:103E20000C31002B0CBF01230023DBB21A46042106
:103E3000794802F0CDFE734B93F80C31002B14BF80
:103E400001230023DBB21A460821734802F0C0FEAA
:103E50006C4B93F80C31002B0CBF01230023DBB219
:103E60001A4620216C4802F0B3FE664B93F80C31E1
:103E7000002B14BF01230023DBB21A461021664831
:103E800002F0A6FE5F4BB3F80021644B1B685A6337
:103E90005C4BB3F80221614B1B689A635D48FEF7E7
:103EA000ABFF574B4FF080421A600022002154486C
:103EB000FEF7AEFC16E1524B4FF081421A60002231
:103EC00001214F48FEF7A4FC0A2007F0FFFA4D4BF2
:103ED000D3ED317A9FED4C7AF4EEC77AF1EE10FA19
:103EE00002DD40F2091312E0464BD3ED317A9FED2B
:103EF000477AF4EEC77AF1EE10FA01D5462306E0D0
:103F0000404BD3ED317AFCEEE77A17EE903A404A17
:103F1000126813644FF4967001F026FF394BD3F802
:103F2000C8303C4A1360374B93F8CC30002B0CBFA1
:103F300001230023DBB21A460421374802F048FE71
:103F4000304B93F8CC30002B14BF01230023DBB29D
:103F50001A460821304802F03BFE2A4B93F8CC3039
:103F6000002B0CBF01230023DBB21A4620212A4874
:103F700002F02EFE234B93F8CC30002B14BF01230C
:103F80000023DBB21A461021234802F021FE1D4B0C
:103F9000B3F8C020214B1B685A631A4BB3F8C220F8
:103FA0001E4B1B689A631B48FEF726FF0A2007F08A
:103FB0008DFA97E0124B1A4A1A600022012110482C
:103FC000FEF726FC0F4BD3ED217A9FED0F7AF4EE2E
:103FD000C77AF1EE10FA02DD40F2091329E0094B2D
:103FE000D3ED217A9FED097AF4EEC77AF1EE10FA5B
:103FF00018D546231DE000BF34010020BC0400207A
:10400000E8040020040000200080844300008C426B
:10401000A0020020D404002000000240C0030020C1
:10402000000060404E4BD3ED217AFCEEE77A17EEAC
:10403000903A4C4A126813644FF4967001F094FE63
:10404000474BD3F88830484A1360454B93F88C307F
:10405000002B0CBF01230023DBB21A460421434886
:1040600002F0B6FD3E4B93F88C30002B14BF0123B9
:104070000023DBB21A4608213C4802F0A9FD384B68
:1040800093F88C30002B0CBF01230023DBB21A46BF
:104090002021364802F09CFD314B93F88C30002BE8
:1040A00014BF01230023DBB21A4610212F4802F06F
:1040B0008FFD2B4BB3F880202D4B1B685A63284B88
:1040C000B3F882202A4B1B689A632748FEF794FEB8
:1040D000284B4FF080421A60002200212548FEF74D
:1040E00097FB00BF244B00221A60244B1A78244B04
:1040F0001A70224B0C221A70224B1A78214B5B78D3
:104100009A4212D1204B64221A701F4B00225A800F
:104110001E4A0F211E480AF00DFA4FF6FF730622C1
:104120001C491D4806F087F832E6164B5B78164AA4
:1041300014499B000B445B681360124B5B7801339E
:10414000104A927893FBF2F101FB02F29B1ADAB269
:104150000C4B5A70114A0F210D480AF0EBF917E683
:1041600004000020A0020020D4040020000002402F
:10417000C0030020E8040020540500203401002082
:104180003501002088040020BC04002034EF000822
:10419000C00400203CEF00080804002044EF0008A1
:1041A00080B582B000AF7860964B1B78042B04D0AA
:1041B0004FF47A7007F08AF9F6E7934B5B88142B7B
:1041C00000F084801E2B40F0FA80904B4FF07E521E
:1041D0001A60002201218D48FEF71AFB8C4BD3EDAB
:1041E000457A9FED8C7AF4EEC77AF1EE10FA02DD93
:1041F00040F2091312E0864BD3ED457A9FED867AA3
:10420000F4EEC77AF1EE10FA01D5462306E0804BB2
:10421000D3ED457AFCEEE77A17EE903A7F4A1268C2
:1042200013644FF4967001F09FFD794BD3F8183169
:104230007B4A1360764B93F81C31002B0CBF012393
:104240000023DBB21A460421764802F0C1FC704B11
:1042500093F81C31002B14BF01230023DBB21A4654
:104260000821704802F0B4FC694B93F81C31002B14
:104270000CBF01230023DBB21A462021694802F05B
:10428000A7FC634B93F81C31002B14BF01230023C0
:10429000DBB21A461021634802F09AFC5C4BB3F87B
:1042A0001021614B1B685A63594BB3F812215E4BC6
:1042B0001B689A635A48FEF79FFD544B5B4A1A608D
:1042C000002200215148FEF7A3FA11E1504BD3ED33
:1042D000357A9FED507AF4EEC77AF1EE10FA02DDEE
:1042E00040F2091312E04A4BD3ED357A9FED4A7A3A
:1042F000F4EEC77AF1EE10FA01D5462306E0444BFE
:10430000D3ED357AFCEEE77A17EE903A434A12681D
:1043100013644FF4967001F027FD3D4BD3F8D8306D
:104320003F4A13603A4B93F8DC30002B0CBF01235B
:104330000023DBB21A4604213A4802F049FC344B10
:1043400093F8DC30002B14BF01230023DBB21A46A4
:104350000821344802F03CFC2D4B93F8DC30002B54
:104360000CBF01230023DBB21A4620212D4802F0A6
:104370002FFC274B93F8DC30002B14BF01230023C4
:10438000DBB21A461021274802F022FC204BB3F87A
:10439000D020254B1B685A631D4BB3F8D220224B0B
:1043A0001B689A631E48FEF727FD184B4FF08142A9
:1043B0001A60002200211548FEF72AFA98E0134BF4
:1043C0004FF07E521A60002200211048FEF720FABA
:1043D0000F4BD3ED257A9FED0F7AF4EEC77AF1EE0D
:1043E00010FA02DD40F2091329E0094BD3ED257ADA
:1043F0009FED097AF4EEC77AF1EE10FA18D546234C
:104400001DE000BF34010020BC040020E8040020AF
:10441000040000200080844300008C42A0020020A1
:10442000D404002000000240C00300200000C0406F
:104430004E4BD3ED257AFCEEE77A17EE903A4C4AD4
:10444000126813644FF4967001F08EFC474BD3F85A
:104450009830484A1360454B93F89C30002B0CBFB2
:1044600001230023DBB21A460421434802F0B0FBCB
:104470003E4B93F89C30002B14BF01230023DBB28A
:104480001A4608213C4802F0A3FB384B93F89C30B5
:10449000002B0CBF01230023DBB21A462021364833
:1044A00002F096FB314B93F89C30002B14BF012394
:1044B0000023DBB21A4610212F4802F089FB2B4B58
:1044C000B3F890202D4B1B685A63284BB3F8922009
:1044D0002A4B1B689A632748FEF78EFC284B4FF047
:1044E00082421A60002200212548FEF791F900BFA0
:1044F000244B00221A60244B1A78244B1A70224B4A
:104500000C221A70224B1A78214B5B789A4212D1F6
:10451000204B64221A701F4B00225A801E4A0F2122
:104520001E480AF007F84FF6FF7306221C491D4883
:1045300005F081FE38E6164B5B78164A14499B005D
:104540000B445B681360124B5B780133104A92781E
:1045500093FBF2F101FB02F29B1ADAB20C4B5A7098
:10456000114A0F210D4809F0E5FF1DE60400002067
:10457000A0020020D404002000000240C00300205C
:10458000E8040020540500203401002035010020FB
:1045900088040020BC04002034EF0008C004002080
:1045A0003CEF00080804002044EF000880B582B00A
:1045B00000AF7860954B1B78052B04D04FF47A70D0
:1045C00006F084FFF6E7924B5B88142B00F08480A2
:1045D0001E2B40F0FA808F4B4FF080421A60002271
:1045E00000218C48FEF714F98B4BD3ED497A9FEDEF
:1045F0008B7AF4EEC77AF1EE10FA02DD40F209137D
:1046000012E0854BD3ED497A9FED857AF4EEC77AB7
:10461000F1EE10FA01D5462306E07F4BD3ED497A3F
:10462000FCEEE77A17EE903A7E4A126813644FF474
:10463000967001F099FB784BD3F828317A4A1360D1
:10464000754B93F82C31002B0CBF01230023DBB2F8
:104650001A460421754802F0BBFA6F4B93F82C31CF
:10466000002B14BF01230023DBB21A4608216F4838
:1046700002F0AEFA684B93F82C31002B0CBF0123EB
:104680000023DBB21A462021684802F0A1FA624BEF
:1046900093F82C31002B14BF01230023DBB21A4600
:1046A0001021624802F094FA5B4BB3F82021604B72
:1046B0001B685A63584BB3F822215D4B1B689A6301
:1046C0005948FEF799FB534B5A4A1A6000220021C1
:1046D0005048FEF79DF810E14F4BD3ED397A9FED2E
:1046E0004F7AF4EEC77AF1EE10FA02DD40F20913C8
:1046F00012E0494BD3ED397A9FED497AF4EEC77A4F
:10470000F1EE10FA01D5462306E0434BD3ED397A9A
:10471000FCEEE77A17EE903A424A126813644FF4BF
:10472000967001F021FB3C4BD3F8E8303E4A136011
:10473000394B93F8EC30002B0CBF01230023DBB284
:104740001A460421394802F043FA334B93F8EC300F
:10475000002B14BF01230023DBB21A460821334883
:1047600002F036FA2C4B93F8EC30002B0CBF0123EF
:104770000023DBB21A4620212C4802F029FA264BEE
:1047800093F8EC30002B14BF01230023DBB21A4650
:104790001021264802F01CFA1F4BB3F8E020244BEE
:1047A0001B685A631C4BB3F8E220214B1B689A63C9
:1047B0001D48FEF721FB174B4FF081421A60002283
:1047C00000211448FEF724F897E0124B1A4A1A60A9
:1047D000002201210F48FEF71BF80F4BD3ED297A79
:1047E0009FED0E7AF4EEC77AF1EE10FA02DD40F298
:1047F00009132AE0084BD3ED297A9FED097AF4EEEC
:10480000C77AF1EE10FA19D546231EE034010020D4
:10481000BC040020E8040020040000200080844341
:1048200000008C42A0020020D404002000000240BE
:10483000C00300200000E0400000A0404E4BD3ED3C
:10484000297AFCEEE77A17EE903A4C4A1268136424
:104850004FF4967001F088FA474BD3F8A830484AD5
:104860001360454B93F8AC30002B0CBF01230023A1
:10487000DBB21A460421434802F0AAF93E4B93F8F2
:10488000AC30002B14BF01230023DBB21A460821F1
:104890003C4802F09DF9384B93F8AC30002B0CBF2C
:1048A00001230023DBB21A462021364802F090F99A
:1048B000314B93F8AC30002B14BF01230023DBB243
:1048C0001A4610212F4802F083F92B4BB3F8A02091
:1048D0002D4B1B685A63284BB3F8A2202A4B1B6848
:1048E0009A632748FEF788FA284B294A1A60002263
:1048F00000212648FDF78CFF00BF264B00221A60DE
:10490000254B1A78254B1A70234B0C221A70244B16
:104910001A78234B5B789A4212D1224B64221A7088
:10492000204B00225A80204A0F21204809F002FE25
:104930004FF6FF7306221E491E4805F07CFC39E63F
:10494000174B5B78174A16499B000B445B68136052
:10495000134B5B780133124A927893FBF2F101FB1F
:1049600002F29B1ADAB20E4B5A70134A0F210F480B
:1049700009F0E0FD1EE600BF04000020A0020020B8
:10498000D404002000000240C0030020E8040020FE
:104990000000404054050020340100203501002073
:1049A00088040020BC04002034EF0008C00400206C
:1049B0003CEF00080804002044EF000880B582B0F6
:1049C00000AF7860C74B1B78013B632B00F2F0828D
:1049D00001A252F823F000BF694B0008774B000892
:1049E000854B0008854B0008854B0008854B000867
:1049F000594D0008674D0008754D0008834D0008AB
:104A0000914D0008914D0008B14F0008DB4D0008A2
:104A1000B14F0008B14F0008B14F0008B14F000876
:104A2000B14F0008B14F0008B14F0008B14F000866
:104A3000B14F0008B14F0008B14F0008B14F000856
:104A4000B14F0008B14F0008B14F0008B14F000846
:104A5000B14F0008B14F0008B14F0008B14F000836
:104A6000B14F0008B14F0008B14F0008B14F000826
:104A7000B14F0008B14F0008B14F0008B14F000816
:104A8000B14F0008B14F0008B14F0008B14F000806
:104A9000B14F0008B14F0008B14F0008B14F0008F6
:104AA000B14F0008B14F0008B14F0008B14F0008E6
:104AB000B14F0008B14F0008B14F0008B14F0008D6
:104AC000B14F0008B14F0008B14F0008B14F0008C6
:104AD000B14F0008B14F0008B14F0008B14F0008B6
:104AE000B14F0008B14F0008B14F0008B14F0008A6
:104AF000B14F0008B14F0008B14F0008B14F000896
:104B0000B14F0008B14F0008B14F0008B14F000885
:104B1000B14F0008B14F0008B14F0008B14F000875
:104B2000B14F0008B14F0008B14F0008B14F000865
:104B3000B14F0008E94D0008E94D0008BF4E0008DC
:104B4000BF4E0008954F0008A34F0008B14F000862
:104B5000B14F0008B14F0008B14F0008B14F000835
:104B6000B14F0008B14F00085F4B00221A705D4B37
:104B700063221A701DE25C4B01221A70594B6322AA
:104B80001A7016E2574B1B78584A1B011344043322
:104B9000D3ED007A9FED567AF4EEC77AF1EE10FA73
:104BA00002DD40F209131CE04E4B1B784F4A1B01FB
:104BB00013440433D3ED007A9FED4E7AF4EEC77AB6
:104BC000F1EE10FA01D546230BE0464B1B78474A1D
:104BD0001B0113440433D3ED007AFCEEE77A17EEA1
:104BE000903A454A126813644FF4967001F0BCF88D
:104BF0003C4B1B783D4A1B01134408331B683F4A5A
:104C00001360384B1B78394A1B0113440C331B7853
:104C1000002B0CBF01230023DBB21A4604213848C5
:104C200001F0D6FF2F4B1B78304A1B0113440C3385
:104C30001B78002B14BF01230023DBB21A46082186
:104C40002F4801F0C5FF274B1B78284A1B0113444E
:104C50000C331B78002B0CBF01230023DBB21A4658
:104C60002021274801F0B4FF1E4B1B781F4A1B016F
:104C700013440C331B78002B14BF01230023DBB239
:104C80001A4610211E4801F0A3FF164B1B78174A45
:104C90001B0113441A881B4B1B685A63114B1B786A
:104CA000124A1B01134402331A88164B1B689A637D
:104CB000154B1A78144B5B789A422FD1094B64221A
:104CC0001A70084B00225A80104A0F21104809F030
:104CD00031FC4FF6FF7306220E490F4805F0ABFA80
:104CE00036E000BFBC040020340100200400002096
:104CF0000080844300008C42A0020020D4040020E5
:104D000000000240C00300208804002034EF0008A7
:104D1000C00400203CEF000808040020A74B5B788B
:104D2000A74AA6499B000B445B681360A34B5B78C2
:104D30000133A24A927893FBF2F101FB02F29B1A33
:104D4000DAB29E4B5A709F4A0F219F4809F0F2FB3E
:104D50009B4B63221A702CE19C4B02221A70984BD9
:104D600063221A7025E1994B03221A70944B632237
:104D70001A701EE1954B04221A70914B63221A702F
:104D800017E1924B05221A708D4B63221A7010E1C5
:104D90008B4B1B780B2B05D08D4B1B6840F20912F7
:104DA0001A6403E08A4B1B6846221A644FF496701B
:104DB00000F0DAFF824B64221A70814B00225A8085
:104DC000844A0F21804809F0B5FB4FF6FF73062295
:104DD0008149824805F02FFAEBE07C4B09221A70DA
:104DE000774B63221A70E4E0754B1B78582B05D083
:104DF000774B1B6840F209121A6403E0744B1B687E
:104E000046221A644FF4967000F0AEFF002204218F
:104E1000734801F0DDFE01220821714801F0D8FE3F
:104E2000002220216E4801F0D3FE012210216C489F
:104E300001F0CEFE624B1B78582B13D1604B5B8880
:104E400007EE903AF8EE677A664BC3ED007A664B50
:104E50001B6840F235525A63634B1B684FF4FA6289
:104E60009A6313E0564B5B885B4207EE903AF8EE8C
:104E7000E77A5C4BC3ED007A5B4B1B684FF4FA6238
:104E80005A63594B1B6840F235529A634C4B63226C
:104E90001A705448FDF7B0FF494B64221A70484B12
:104EA00000225A804B4A0F21474809F043FB4FF636
:104EB000FF7306224849494805F0BDF979E0404BA7
:104EC0001B785A2B05D1424B1B6840F209121A6419
:104ED00003E03F4B1B6846221A644FF4967000F0C3
:104EE00043FF012204213E4801F072FE0022082106
:104EF0003B4801F06DFE01222021394801F068FE97
:104F000000221021364801F063FE2D4B1B785A2BEE
:104F100013D12B4B5B8807EE903AF8EE677A314B52
:104F2000C3ED007A304B1B684FF4FA625A632E4B84
:104F30001B6840F235529A6313E0214B5B885B4259
:104F400007EE903AF8EEE77A264BC3ED007A264B4F
:104F50001B6840F235525A63234B1B684FF4FA62C8
:104F60009A63174B63221A701E48FDF745FF144BD6
:104F700064221A70124B00225A80164A0F211248DE
:104F800009F0D8FA4FF6FF7306221349134805F0CB
:104F900052F90EE00D4B0A221A70094B63221A7067
:104FA00007E00A4B0B221A70054B63221A7000E0CF
:104FB00000BF012006F08AFA04E500BF8804002043
:104FC000BC04002044EF0008C0040020340100208D
:104FD000A002002034EF00083CEF00080804002085
:104FE00000000240D4040020C003002080B582B03D
:104FF00000AF78602D4B1B78092B04D04FF47A70EA
:1050000006F064FAF6E72A4B5B8807EE903AF8EE72
:10501000677A284BC3ED007A02212648FDF798FFF6
:10502000254B1B6800225A63234B1B6800229A639E
:105030001E4B1A78214B1A701C4B0C221A70204BF5
:1050400000221A601F4B1A781E4B5B789A4212D1CD
:10505000174B64221A70164B00225A801A4A0F21ED
:105060001A4809F067FA4FF6FF73062218491948E3
:1050700005F0E1F8BEE7134B5B780D4A11499B0040
:105080000B445B6813600F4B5B7801330D4A9278D9
:1050900093FBF2F101FB02F29B1ADAB2094B5A7050
:1050A0000D4A0F21094809F045FAA3E73401002011
:1050B000BC040020E8040020C003002035010020CB
:1050C000540500208804002034EF0008C0040020AC
:1050D0003CEF00080804002044EF000880B582B0CF
:1050E00000AF78605C4B1B780A2B04D04FF47A70C9
:1050F00006F0ECF9A9E1594B5B88012B03D0022B98
:1051000000F0BE8064E1564B564A1A60564B1B684D
:105110004FF4FA625A63544B1B6840F235529A635B
:10512000524B1B6840F209121A644FF4967000F05B
:105130001BFE002204214E4801F04AFD01220821F5
:105140004B4801F045FD00222021494801F040FD77
:1051500001221021464801F03BFD4148FDF74CFE7D
:105160004FF4967006F0B2F9424B434A1A6000229F
:1051700001214048FDF74CFB0A2006F0A7F9384B07
:105180003E4A1A60384B1B6840F235525A63364B20
:105190001B684FF4FA629A63344B1B6846221A6408
:1051A0004FF4967000F0E0FD00220421304801F039
:1051B0000FFD012208212E4801F00AFD00222021C6
:1051C0002B4801F005FD01221021294801F000FDC6
:1051D0002348FDF711FE4FF4967006F077F9254B42
:1051E000254A1A60002201212248FDF711FB0A20FE
:1051F00006F06CF91A4B1B4A1A601B4B1B684FF4E4
:10520000FA625A63184B1B6840F235529A63174B87
:105210001B6840F209121A644FF4967000F0A4FD66
:1052200000220421124801F0D3FC01220821104879
:1052300001F0CEFC002220210D4801F0C9FC012222
:1052400010210B4801F0C4FC0548FDF7D5FD4FF4D3
:10525000967006F03BF9BBE034010020BC0400204E
:10526000D4040020000034C2C0030020A0020020AB
:1052700000000240E80400200000A0400000B4420A
:10528000744B754A1A60754B1B6840F235525A636D
:10529000724B1B684FF4FA629A63714B1B6846228B
:1052A0001A644FF4967000F05FFD002204216D48EF
:1052B00001F08EFC012208216A4801F089FC0022DD
:1052C0002021684801F084FC01221021654801F08A
:1052D0007FFC6048FDF790FD4FF4967006F0F6F8FD
:1052E000614B624A1A60002201215F48FDF790FA83
:1052F0000A2006F0EBF8574B5D4A1A60574B1B68C3
:105300004FF4FA625A63554B1B6840F235529A6368
:10531000534B1B6840F209121A644FF4967000F068
:1053200023FD002204214F4801F052FC01220821F4
:105330004C4801F04DFC002220214A4801F048FC75
:1053400001221021474801F043FC4248FDF754FD7B
:105350004FF4967006F0BAF8434B444A1A600022A4
:1053600001214148FDF754FA0A2006F0AFF8394B05
:10537000394A1A60394B1B6840F235525A63374B31
:105380001B684FF4FA629A63354B1B6846221A6415
:105390004FF4967000F0E8FC00220421314801F03F
:1053A00017FC012208212F4801F012FC00222021C5
:1053B0002C4801F00DFC012210212A4801F008FCC4
:1053C0002448FDF719FD4FF4967006F07FF800BFF2
:1053D000284B00221A60284B1A78284B1A70264B4B
:1053E0000C221A70264B1A78254B5B789A4212D100
:1053F000244B64221A70234B00225A80224A0F2128
:10540000224809F097F84FF6FF73062220492148F9
:1054100004F011FF19E01A4B5B781A4A18499B00F7
:105420000B445B681360164B5B780133144A927827
:1054300093FBF2F101FB02F29B1ADAB2104B5A70A5
:10544000154A0F21114809F075F8012006F03EF8C1
:1054500048E600BFD404002000003442C00300200E
:10546000A002002000000240E80400200000A0404C
:105470000000B4C254050020340100203501002092
:1054800088040020BC04002034EF0008C004002081
:105490003CEF00080804002044EF000880B582B00B
:1054A00000AF78602C4B1B780B2B04D04FF47A7034
:1054B00006F00CF84BE0294B5B88012B02D0022B45
:1054C00004D007E00120FDF79FFE03E00020FDF778
:1054D0009BFE00BF224B00221A601F4B1A78214B03
:1054E0001A701D4B0C221A701F4B1A781E4B5B78DA
:1054F0009A4212D1194B64221A70184B00225A801A
:105500001A4A0F211A4809F015F84FF6FF730622C0
:105510001849194804F08FFE19E0134B5B780F4AC5
:1055200011499B000B445B6813600F4B5B780133A0
:105530000D4A927893FBF2F101FB02F29B1ADAB268
:10554000094B5A700D4A0F21094808F0F3FF01205A
:1055500005F0BCFFA6E700BF34010020BC0400201A
:1055600054050020350100208804002034EF000895
:10557000C00400203CEF00080804002044EF0008AD
:1055800080B582B000AF78607B681B68044A9342A4
:1055900001D100F0C9FB00BF0837BD4680BD00BF88
:1055A0000008004080B400AF72B600BFFEE7000004
:1055B00080B582B000AF00237B60124B5B6C114A58
:1055C00043F4804353640F4B5B6C03F480437B6074
:1055D0007B6800233B600B4B1B6C0A4A43F08053F3
:1055E0001364084B1B6C03F080533B603B68002244
:1055F0000F216FF0010001F093F800BF0837BD469E
:1056000080BD00BF0038024080B58CB000AF78602C
:1056100007F11C0300221A605A609A60DA601A616E
:105620007B681B682E4A934228D10023BB612D4B17
:105630005B6C2C4A43F4807353642A4B5B6C03F419
:105640008073BB61BB6900237B61264B1B6B254AC2
:1056500043F004031363234B1B6B03F004037B61D0
:105660007B690223FB6103233B6200237B6207F11A
:105670001C0319461C4801F00FF92CE07B681B68DD
:105680001A4A934227D100233B61164B5B6C154AA3
:1056900043F400735364134B5B6C03F400733B617E
:1056A0003B690023FB600F4B1B6B0E4A43F0040366
:1056B00013630C4B1B6B03F00403FB60FB680423B8
:1056C000FB6103233B6200237B6207F11C03194645
:1056D000054801F0E1F800BF3037BD4680BD00BF8E
:1056E0000020014000380240000802400021014033
:1056F00080B58AB000AF786007F1140300221A6009
:105700005A609A60DA601A617B681B68194A934292
:105710002CD100233B61184B1B6B174A43F002034B
:105720001363154B1B6B03F002033B613B694FF4A2
:1057300040737B611223BB610023FB6103233B6247
:1057400004237B6207F1140319460C4801F0A4F806
:105750000023FB60084B1B6C074A43F400131364DF
:10576000054B1B6C03F40013FB60FB6800BF28377C
:10577000BD4680BD00540040003802400004024095
:1057800080B58EB000AF786007F1240300221A6064
:105790005A609A60DA601A617B681B684E4A9342CD
:1057A00016D100233B624D4B5B6C4C4A43F0010326
:1057B00053644A4B5B6C03F001033B623B6A00227B
:1057C00005211B2000F0ACFF1B2000F0C5FF7EE090
:1057D0007B681B68424A934234D10023FB613F4BF4
:1057E0001B6C3E4A43F0020313643C4B1B6C03F0FA
:1057F0000203FB61FB690023BB61384B1B6B374A1B
:1058000043F002031363354B1B6B03F00203BB61D0
:10581000BB6920237B620223BB620023FB6200235F
:105820003B6302237B6307F1240319462D4801F0F3
:1058300033F8002205211D2000F072FF1D2000F02A
:105840008BFF44E07B681B68274A93420ED10023FC
:105850007B61224B1B6C214A43F0100313641F4BE6
:105860001B6C03F010037B617B6930E07B681B6875
:105870001E4A93422BD100233B61184B5B6C174AA5
:1058800043F002035364154B5B6C03F002033B616E
:105890003B690023FB60114B1B6B104A43F0040370
:1058A00013630E4B1B6B03F00403FB60FB68C02308
:1058B0007B620223BB620023FB6200233B63032362
:1058C0007B6307F124031946094800F0E5FF00BF98
:1058D0003837BD4680BD00BF00000140003802409F
:1058E0000004004000040240001000400004014099
:1058F0000008024080B58AB000AF786007F1140359
:1059000000221A605A609A60DA601A617B681B682C
:10591000B3F1804F4AD100233B61264B1B6C254AD3
:1059200043F001031364234B1B6C03F001033B6141
:105930003B690023FB601F4B1B6B1E4A43F00103B6
:1059400013631C4B1B6B03F00103FB60FB6800231C
:10595000BB60184B1B6B174A43F002031363154BD4
:105960001B6B03F00203BB60BB684FF400437B6119
:105970000223BB610023FB6100233B6201237B62A6
:1059800007F1140319460C4800F086FF08237B61D9
:105990000223BB610023FB6100233B6201237B6286
:1059A00007F114031946054800F076FF00BF2837B9
:1059B000BD4680BD003802400000024000040240A5
:1059C00080B588B000AF786007F10C0300221A6040
:1059D0005A609A60DA601A617B681B68124A9342C7
:1059E0001ED10023BB60114B1B6B104A43F0100308
:1059F00013630E4B1B6B03F01003BB60BB684FF4CB
:105A00008043FB6002233B6100237B610023BB6179
:105A10000123FB6107F10C031946054800F03CFF28
:105A200000BF2037BD4680BD000001400038024065
:105A30000010024080B58AB000AF786007F114030F
:105A400000221A605A609A60DA601A617B681B68EB
:105A50001D4A934234D100233B611C4B1B6C1B4AF3
:105A600043F480231364194B1B6C03F480233B61C4
:105A70003B690023FB60154B1B6B144A43F0040386
:105A80001363124B1B6B03F00403FB60FB684FF4C2
:105A900040637B610223BB610023FB6103233B6204
:105AA00007237B6207F114031946094800F0F4FE4E
:105AB00000220521272000F033FE272000F04CFEB5
:105AC00000BF2837BD4680BD004800400038024076
:105AD0000008024080B58CB000AF78600023FB6204
