:020000040800F2
:1000000000000220F53400081134000817340008FD
:100010001D340008233400082934000800000000C3
:10002000000000000000000000000000419D0008EA
:100030002F34000800000000919F0008157A000886
:1000400045350008453500084535000845350008A8
:100050004535000845350008453500084535000898
:100060004535000845350008453500084535000888
:100070004535000845350008453500084535000878
:100080004535000845350008453500084535000868
:100090004535000845350008453500084535000858
:1000A0004535000845350008453500084535000848
:1000B00045350008453500083D3400084535000841
:1000C0004535000845350008453500084535000828
:1000D000453500084535000845350008513400080D
:1000E0004535000845350008453500084535000808
:1000F00045350008453500084535000845350008F8
:1001000045350008453500084535000845350008E7
:1001100045350008453500084535000845350008D7
:1001200045350008453500084535000845350008C7
:1001300045350008453500084535000845350008B7
:1001400045350008453500084535000845350008A7
:100150004535000845350008453500084535000897
:100160004535000845350008453500084535000887
:1001700045350008453500084535000800000000F9
:08018000453500084535000873
:1001900010B5054C237833B9044B13B10448AFF3C1
:1001A00000800123237010BDA40100200000000086
:1001B000D4B5000808B5034B1BB103490348AFF39E
:1001C000008008BD00000000A8010020D4B5000890
:1001D00001F0FF01102A2BDB10F0070F08D010F8F8
:1001E000013B013A8B422DD010F0070F42B3F6D1FC
:1001F000F0B441EA012141EA014122F007047FF015
:1002000000070023F0E80256083C85EA010586EA6B
:10021000010685FA47F5A3FA87F586FA47F6A5FAA7
:1002200087F68EB9EED1F0BC01F0FF0102F00702B3
:1002300032B110F8013B013A83EA010313B1F8D15E
:100240000020704701387047002D06BF354603383F
:10025000073815F0010F07D1013015F4807F02BF78
:10026000013015F4C03F0130F0BC0138704700BFC9
:1002700081F0004102E000BF83F0004330B54FEA57
:1002800041044FEA430594EA050F08BF90EA020FC4
:100290001FBF54EA000C55EA020C7FEA645C7FEA57
:1002A000655C00F0E2804FEA5454D4EB5555B8BF7A
:1002B0006D420CDD2C4480EA020281EA030382EAEB
:1002C000000083EA010180EA020281EA0303362D7D
:1002D00088BF30BD11F0004F4FEA01314FF4801C50
:1002E0004CEA113102D0404261EB410113F0004F62
:1002F0004FEA03334CEA133302D0524263EB430319
:1003000094EA050F00F0A780A4F10104D5F1200EB6
:100310000DDB02FA0EFC22FA05F2801841F1000111
:1003200003FA0EF2801843FA05F359410EE0A5F1E5
:1003300020050EF1200E012A03FA0EFC28BF4CF016
:10034000020C43FA05F3C01851EBE37101F00045CC
:1003500007D54FF0000EDCF1000C7EEB00006EEBD9
:100360000101B1F5801F1BD3B1F5001F0CD3490863
:100370005FEA30004FEA3C0C04F101044FEA4452BA
:1003800012F5800F80F09A80BCF1004F08BF5FEA41
:10039000500C50F1000041EB045141EA050130BD21
:1003A0005FEA4C0C404141EB0101013C28BFB1F533
:1003B000801FE9D291F0000F04BF01460020B1FA7E
:1003C00081F308BF2033A3F10B03B3F120020CDA51
:1003D0000C3208DD02F1140CC2F10C0201FA0CF02F
:1003E00021FA02F10CE002F11402D8BFC2F1200C94
:1003F00001FA02F120FA0CFCDCBF41EA0C0190404A
:10040000E41AA2BF01EB0451294330BD6FEA040492
:100410001F3C1CDA0C340EDC04F11404C4F120027D
:1004200020FA04F001FA02F340EA030021FA04F38F
:1004300045EA030130BDC4F10C04C4F1200220FAE6
:1004400002F001FA04F340EA0300294630BD21FA24
:1004500004F0294630BD94F0000F83F4801306BFEA
:1004600081F480110134013D4EE77FEA645C18BFDE
:100470007FEA655C29D094EA050F08BF90EA020F75
:1004800005D054EA000C04BF1946104630BD91EA6D
:10049000030F1EBF0021002030BD5FEA545C05D170
:1004A0004000494128BF41F0004130BD14F58004AF
:1004B0003CBF01F5801130BD01F0004545F0FE4123
:1004C00041F470014FF0000030BD7FEA645C1ABF58
:1004D000194610467FEA655C1CBF0B46024650EA8F
:1004E000013406BF52EA033591EA030F41F40021BB
:1004F00030BD00BF90F0000F04BF0021704730B541
:100500004FF4806404F132044FF000054FF0000115
:1005100050E700BF90F0000F04BF0021704730B5D6
:100520004FF4806404F1320410F0004548BF4042AB
:100530004FF000013EE700BF42004FEAE2014FEA00
:1005400031014FEA02701FBF12F07F4393F07F4FDB
:1005500081F06051704732F07F4208BF704793F0DE
:100560007F4F04BF41F40021704730B54FF46074F1
:1005700001F0004521F000411CE700BF50EA0102F4
:1005800008BF704730B54FF000050AE050EA01029D
:1005900008BF704730B511F0004502D5404261EB0D
:1005A00041014FF4806404F132045FEA915C3FF44E
:1005B000D8AE4FF003025FEADC0C18BF03325FEAEB
:1005C000DC0C18BF033202EBDC02C2F1200300FA9C
:1005D00003FC20FA02F001FA03FE40EA0E0021FAC1
:1005E00002F11444BDE600BF70B54FF0FF0C4CF4AF
:1005F000E06C1CEA11541DBF1CEA135594EA0C0F61
:1006000095EA0C0F00F0DEF82C4481EA030621EA9B
:100610004C5123EA4C5350EA013518BF52EA0335D6
:1006200041F4801143F4801338D0A0FB02CE4FF088
:100630000005E1FB02E506F00042E0FB03E54FF0B8
:100640000006E1FB03569CF0000F18BF4EF0010EB0
:10065000A4F1FF04B6F5007F64F5407404D25FEAAC
:100660004E0E6D4146EB060642EAC62141EA55515F
:100670004FEAC52040EA5E504FEACE2EB4F1FD0CA1
:1006800088BFBCF5E06F1ED8BEF1004F08BF5FEA1F
:10069000500E50F1000041EB045170BD06F00046D1
:1006A00046EA010140EA020081EA0301B4EB5C047E
:1006B000C2BFD4EB0C0541EA045170BD41F4801176
:1006C0004FF0000E013C00F3AB8014F1360FDEBF9B
:1006D000002001F0004170BDC4F10004203C35DA77
:1006E0000C341BDC04F11404C4F1200500FA05F3FA
:1006F00020FA04F001FA05F240EA020001F000429B
:1007000021F0004110EBD37021FA04F642EB060110
:100710005EEA430E08BF20EAD37070BDC4F10C043A
:10072000C4F1200500FA04F320FA05F001FA04F2FE
:1007300040EA020001F0004110EBD37041F10001EA
:100740005EEA430E08BF20EAD37070BDC4F12005F5
:1007500000FA05F24EEA020E20FA04F301FA05F25D
:1007600043EA020321FA04F001F0004121FA04F205
:1007700020EA020000EBD3705EEA430E08BF20EAD5
:10078000D37070BD94F0000F0FD101F0004640000F
:1007900041EB010111F4801F08BF013CF7D041EA91
:1007A000060195F0000F18BF704703F00046520095
:1007B00043EB030313F4801F08BF013DF7D043EA66
:1007C0000603704794EA0C0F0CEA135518BF95EA1C
:1007D0000C0F0CD050EA410618BF52EA4306D1D1A3
:1007E00081EA030101F000414FF0000070BD50EAC2
:1007F000410606BF1046194652EA430619D094EA4C
:100800000C0F02D150EA013613D195EA0C0F05D135
:1008100052EA03361CBF104619460AD181EA030189
:1008200001F0004141F0FE4141F470014FF0000041
:1008300070BD41F0FE4141F4780170BD70B54FF0DC
:10084000FF0C4CF4E06C1CEA11541DBF1CEA13555C
:1008500094EA0C0F95EA0C0F00F0A7F8A4EB05043E
:1008600081EA030E52EA03354FEA013100F0888035
:100870004FEA03334FF0805545EA131343EA1263FE
:100880004FEA022245EA111545EA10654FEA0026B3
:100890000EF000419D4208BF964244F1FD0404F56C
:1008A000407402D25B084FEA3202B61A65EB0305C8
:1008B0005B084FEA32024FF480104FF4002CB6EB85
:1008C000020E75EB030E22BFB61A754640EA0C0005
:1008D0005B084FEA3202B6EB020E75EB030E22BF45
:1008E000B61A754640EA5C005B084FEA3202B6EB86
:1008F000020E75EB030E22BFB61A754640EA9C0045
:100900005B084FEA3202B6EB020E75EB030E22BF14
:10091000B61A754640EADC0055EA060E18D04FEAD2
:10092000051545EA16754FEA06164FEAC30343EA72
:1009300052734FEAC2025FEA1C1CC0D111F4801F3F
:100940000BD141EA00014FF000004FF0004CB6E738
:1009500011F4801F04BF01430020B4F1FD0C88BFD7
:10096000BCF5E06F3FF6AFAEB5EB030C04BFB6EBE2
:10097000020C5FEA500C50F1000041EB045170BDD5
:100980000EF0004E4EEA113114EB5C04C2BFD4EB02
:100990000C0541EA045170BD41F480114FF0000E86
:1009A000013C90E645EA060E8DE60CEA135594EA02
:1009B0000C0F08BF95EA0C0F3FF43BAF94EA0C0F05
:1009C0000AD150EA01347FF434AF95EA0C0F7FF47A
:1009D00025AF104619462CE795EA0C0F06D152EACE
:1009E00003353FF4FDAE1046194622E750EA4106B2
:1009F00018BF52EA43067FF4C5AE50EA41047FF4C3
:100A00000DAF52EA43057FF4EBAE12E74FF0FF3C27
:100A100006E000BF4FF0010C02E000BF4FF0010CF8
:100A20004DF804CD4FEA410C7FEA6C5C4FEA430C71
:100A300018BF7FEA6C5C1BD001B050EA410C0CBFC0
:100A400052EA430C91EA030F02BF90EA020F002022
:100A5000704710F1000F91EA030F58BF994208BF89
:100A600090422CBFD8176FEAE37040F00100704746
:100A70004FEA410C7FEA6C5C02D150EA013C07D19D
:100A80004FEA430C7FEA6C5CD6D152EA033CD3D0E8
:100A90005DF8040B704700BF8446104662468C46E2
:100AA0001946634600E000BF01B5FFF7B7FF002815
:100AB00048BF10F1000F01BD4DF808EDFFF7F4FF3E
:100AC0000CBF012000205DF808FB00BF4DF808EDC9
:100AD000FFF7EAFF34BF012000205DF808FB00BFEC
:100AE0004DF808EDFFF7E0FF94BF012000205DF80E
:100AF00008FB00BF4DF808EDFFF7CEFF94BF0120C3
:100B000000205DF808FB00BF4DF808EDFFF7C4FFBB
:100B100034BF012000205DF808FB00BF4A0011D25D
:100B200012F5001211D20DD56FF47873B3EB625247
:100B30000ED44FEAC12343F0004343EA505323FA53
:100B400002F070474FF00000704750EA013002D1C8
:100B50004FF0FF3070474FF0000070474FEA4102FE
:100B6000B2F1E04324BFB3F5001CDCF1FE5C0DD90B
:100B700001F0004C4FEAC0024CEA5070B2F1004F55
:100B800040EB830008BF20F00100704711F0804F58
:100B900021D113F13872BCBF01F00040704741F41D
:100BA00080114FEA5252C2F11802C2F1200C10FA21
:100BB0000CF320FA02F018BF40F001004FEAC12305
:100BC0004FEAD32303FA0CFC40EA0C0023FA02F3A9
:100BD0004FEA4303CCE77FEA625307D150EA01337F
:100BE0001EBF4FF0FE4040F44000704701F000404F
:100BF00040F0FE4040F40000704700BF53B94AB9CE
:100C0000002908BF00281CBF4FF0FF314FF0FF3014
:100C100000F070B9ADF1080C6DE904CE00F006F8F3
:100C2000DDF804E0DDE9022304B070472DE9F04768
:100C3000089E0D4604460F46002B4AD18A42944630
:100C400065D9B2FA82F343B102FA03FCC3F1200280
:100C50009F4020FA02F217439C404FEA1C4E1FFAB5
:100C60008CF5B7FBFEF1220C0EFB117742EA07422E
:100C700001FB05F090420AD91CEB020201F1FF379B
:100C800080F01C81904240F2198102396244121AAC
:100C9000A4B2B2FBFEF00EFB102244EA024400FBB9
:100CA00005F5A5420AD91CEB040400F1FF3280F0DF
:100CB0000781A54240F204816444023840EA0140C1
:100CC000641B00211EB1DC400023C6E90043BDE8DF
:100CD000F0878B4208D9002E00F0ED800021C6E994
:100CE00000050846BDE8F087B3FA83F1002949D131
:100CF000AB4202D3824200F2F880841A65EB030211
:100D000001201746002EE2D0C6E90047DFE702B90E
:100D1000FFDEB2FA82F3002B40F090808A1A4FEA8D
:100D20001C471FFA8CFE0121B2FBF7F507FB1520CB
:100D3000220C42EA00420EFB05F0904208D91CEB5F
:100D4000020205F1FF3802D2904200F2CB80454604
:100D5000121AA4B2B2FBF7F007FB102244EA0244D5
:100D60000EFB00FEA64508D91CEB040400F1FF327F
:100D700002D2A64500F2BB801046A4EB0E0440EA66
:100D800005409FE7C1F120078B4022FA07FC4CEA9F
:100D9000030C05FA01F420FA07F3FD404FEA1C4961
:100DA0002343B5FBF9F81FFA8CFE09FB18551C0C00
:100DB00044EA054408FB0EF5A54202FA01F200FAE6
:100DC00001F00BD91CEB040408F1FF3A80F0888095
:100DD000A54240F28580A8F102086444641B9DB2DC
:100DE000B4FBF9F309FB134445EA044403FB0EFE8C
:100DF000A64508D91CEB040403F1FF356CD2A645C7
:100E00006AD9023B644443EA0843A3FB0295A4EB7E
:100E10000E04AC42C846AE4656D353D056B1B0EBE2
:100E2000080264EB0E0404FA07F7CA40CC401743EB
:100E3000C6E9007418460021BDE8F087C3F120011F
:100E400002FA03FC20FA01F225FA01F19D402A433F
:100E50004FEA1C471FFA8CFEB1FBF7F007FB101599
:100E6000110C41EA054100FB0EF58D4204FA03F432
:100E700008D91CEB010100F1FF382FD28D422DD98A
:100E800002386144491B92B2B1FBF7F507FB15111B
:100E900042EA014205FB0EF1914208D91CEB020225
:100EA00005F1FF3816D2914214D9023D6244521A1C
:100EB00045EA004138E73146304608E73946E6E67C
:100EC0001046FBE64845A9D2B9EB020865EB0C0ECB
:100ED000013BA3E74546EAE72B4694E74046D1E7C6
:100EE000D0467BE7023D624432E708460AE76444A5
:100EF000023842E7704700BF80B582B000AF02F011
:100F000023FB00F049F900F099FB00F06DFB00F0C5
:100F1000A1F900F0BFFA00F069FA00F0C9F909F090
:100F200015FE002303220021674809F038FB0C213D
:100F3000664804F025FC0021654804F021FC0421EA
:100F4000634804F01DFC3C21624804F087FD5F4BC0
:100F50001B688E221A644FF4967002F037FB5E4BCA
:100F600064221A705C4B0A225A805C4B00221A7071
:100F70005A4B00225A705A4B1A78584B9A700023D9
:100F80007B600CE064233B7000237B80534A7B68CA
:100F90009B0013443A685A607B6801337B60504B76
:100FA0001B781A467B689342ECDB9FED4E1ADFED0F
:100FB0004E0A9FED4E0A4E4800F0DEFB9FED491AA7
:100FC000DFED490A9FED490A4A4800F0D5FB9FED45
:100FD0004A1ADFED4A0A9FED4A0A4A4800F0CCFB64
:100FE0003D4B01221A703C4B00225A80464B1B7825
:100FF0009BB21A464549464805F049FD334B1B68EC
:101000008E221A644FF4967002F0E0FA06F01CFD8E
:10101000404A0021404806F061FD03463F4A136004
:101020003F4A00213F4806F059FD03463E4A1360FF
:101030003E4A00213E4806F051FD03463D4A1360FA
:101040003D4A00213D4806F049FD03463C4A1360F5
:101050003C4A00213C4806F041FD03463B4A1360F0
:101060003B4A00213B4806F039FD03463A4A1360EB
:101070003A4A00213A4806F031FD0346394A1360E6
:10108000394A0021394806F029FD0346384A1360E1
:10109000384A0021384806F021FD0346374A1360DC
:1010A000374A0021374806F019FD0346364A1360D7
:1010B000364A0021364806F011FD0346354A1360D2
:1010C00006F0E6FCFEE700BFC0010020140200208D
:1010D000A40200205C0200209C0300206803002082
:1010E00001000020CDCC4C3FEC51383D66660640F7
:1010F000E4030020D00300209A99993ECDCC4C3DCA
:10110000CDCC8C3FF8030020000000205C030020C1
:10111000EC0200208CB60008852200083003002075
:10112000B0B600085523000834030020D4B60008E8
:10113000A123000838030020F8B60008692400083D
:101140003C0300201CB70008F124000840030020E5
:1011500040B70008852800084403002064B7000851
:10116000252900084803002088B70008C529000881
:101170004C030020ACB70008912A0008500300205F
:10118000D0B70008A12A000854030020F4B70008D3
:10119000B12A00085803002080B594B000AF07F1D1
:1011A000200330220021184609F090FD07F10C03BE
:1011B00000221A605A609A60DA601A610023BB60EC
:1011C000224B1B6C214A43F0805313641F4B1B6C52
:1011D00003F08053BB60BB6800237B601C4B1B6823
:1011E0001B4A43F480431360194B1B6803F480438C
:1011F0007B607B6802233B620123FB6210233B631D
:101200000023BB6307F12003184603F015FD0346D6
:10121000002B01D001F0DCFE0F23FB6000233B61BB
:1012200000237B610023BB610023FB6107F10C03FA
:101230000021184603F078FF0346002B01D001F08F
:10124000C7FE00BF5037BD4680BD00BF003802401A
:101250000070004080B500AF124B134A1A60114B6A
:10126000124A5A600F4B00229A600E4B0022DA603D
:101270000C4B4FF480421A610A4B00225A61094B11
:1012800000229A61074B0022DA61064B00221A62A3
:10129000044802F0E9FC0346002B01D001F098FE5F
:1012A00000BF80BDC001002000540040A0860100A6
:1012B00080B596B000AF07F1480300221A605A606B
:1012C0009A60DA6007F1400300221A605A6007F161
:1012D000240300221A605A609A60DA601A615A6127
:1012E0009A613B1D20220021184609F0EFFC3D4B7E
:1012F0003D4A1A603B4BA0225A603A4B00229A604A
:10130000384B4FF47A72DA60364B00221A61354B53
:1013100000225A61334B80229A61324804F016F958
:101320000346002B01D001F053FE4FF48053BB6401
:1013300007F1480319462B4804F0E8FD0346002B4B
:1013400001D001F045FE274804F0C0F90346002B08
:1013500001D001F03DFE00233B6400237B6407F1D4
:10136000400319461F4805F0D1F90346002B01D070
:1013700001F02EFE60237B620023BB620023FB6230
:1013800000237B630023BB630023FB6307F124037B
:101390000C221946134804F0F7FC0346002B01D039
:1013A00001F016FE00237B600023BB600023FB607E
:1013B00000233B6100237B614FF40053BB6100239A
:1013C0003B623B1D1946074805F01CFA0346002BFB
:1013D00001D001F0FDFD034801F038FF00BF583790
:1013E000BD4680BD140200200000014080B58CB0D5
:1013F00000AF07F10C0324220021184609F066FC17
:101400003B1D00221A605A60214B4FF080421A6047
:101410001F4B00225A601E4B00229A601C4B4FF05B
:10142000FF32DA601A4B00221A61194B00229A61CE
:101430000323FB6000233B6101237B610023BB612D
:101440000A23FB6100233B6201237B620023BB6212
:101450000A23FB6207F10C0319460D4804F058FA01
:101460000346002B01D001F0B3FD00237B60002375
:10147000BB603B1D1946064805F048F90346002BA2
:1014800001D001F0A5FD00BF3037BD4680BD00BFD3
:101490005C02002080B596B000AF07F1480300223F
:1014A0001A605A609A60DA6007F1400300221A60FD
:1014B0005A6007F1240300221A605A609A60DA60C9
:1014C0001A615A619A613B1D20220021184609F0D9
:1014D000FDFB434B434A1A60414B00225A60404B8C
:1014E00000229A603E4B41F61F42DA603C4B0022DC
:1014F0001A613B4B00225A61394B00229A613848ED
:1015000004F024F80346002B01D001F061FD4FF4F4
:101510008053BB6407F148031946314804F0F6FCD8
:101520000346002B01D001F053FD2D4804F0CEF806
:101530000346002B01D001F04BFD00233B64002348
:101540007B6407F140031946254805F0DFF80346A0
:10155000002B01D001F03CFD60237B620023BB62C5
:101560000023FB6200233B6300237B630023BB63F8
:101570000023FB6307F1240300221946184804F0F6
:1015800003FC0346002B01D001F022FD07F12403E8
:1015900004221946124804F0F7FB0346002B01D041
:1015A00001F016FD00237B600023BB600023FB607D
:1015B00000233B6100237B614FF40053BB61002398
:1015C0003B623B1D1946064805F01CF90346002BFB
:1015D00001D001F0FDFC00BF5837BD4680BD00BF03
:1015E000A40200200004014080B500AF114B124A54
:1015F0001A60104B4FF4E1325A600E4B00229A6091
:101600000C4B0022DA600B4B00221A61094B0C22B2
:101610005A61084B00229A61064B0022DA610548A4
:1016200005F056F90346002B01D001F0D1FC00BFB4
:1016300080BD00BFEC0200200048004080B58AB0A9
:1016400000AF07F1140300221A605A609A60DA6052
:101650001A6100233B61384B1B6B374A43F0100380
:101660001363354B1B6B03F010033B613B69002395
:10167000FB60314B1B6B304A43F0010313632E4B6D
:101680001B6B03F00103FB60FB680023BB602A4B6C
:101690001B6B294A43F004031363274B1B6B03F0B6
:1016A0000403BB60BB6800237B60234B1B6B224A97
:1016B00043F002031363204B1B6B03F002037B60B8
:1016C0007B6800224FF4BC611C4802F0B3FA002290
:1016D0003C211B4802F0AEFA4FF4BC637B6101234E
:1016E000BB610023FB6100233B6207F11403194631
:1016F000124802F003F90C237B610123BB61002334
:10170000FB6102233B6207F1140319460C4802F007
:10171000F5F830237B610123BB610023FB610023CB
:101720003B6207F114031946054802F0E7F800BFD1
:101730002837BD4680BD00BF00380240001002407F
:101740000000024080B582B000AF7860074B1B6894
:101750005B68074B1B789BB21A460649034805F0A5
:1017600096F900BF0837BD4680BD00BFEC020020DF
:10177000000000205C03002080B485B000AFF8605A
:1017800087ED020AC7ED010A87ED001AFB68BA6807
:101790001A60FB687A685A60FB683A689A60FB686E
:1017A0004FF00002DA60FB684FF000021A6100BFE0
:1017B0001437BD465DF8047B704780B483B000AF3A
:1017C00078607B684FF00002DA607B684FF00002BF
:1017D0001A6100BF0C37BD465DF8047B70470000FE
:1017E00080B586B004AF0346FB714FF6FF730293DA
:1017F00002230193A94B009301233722D021A8484B
:1018000002F070FCA54B1B781B021AB2A34B5B784D
:101810001BB213431AB2A34B1A80A34B1B681B685D
:1018200003F01003102B0CBF01230023DBB25AB2CC
:101830009E4B1A709B4BB3F9003013F1040F04DB7D
:10184000984BB3F900300B2B07DD964BB3F9003002
:1018500007EE903AF8EEE77A01E0DFED957A954BE6
:1018600093ED007A77EE877A924BC3ED007AFB799D
:10187000002B64D1904B93ED007A8E4BD3ED007A20
:1018800027EE277A8C4BD3ED016A8B4BD3ED047A8C
:1018900066EEA77A37EE277A874BD3ED026A864B3E
:1018A00093ED036A834BD3ED007A76EE677A66EEAA
:1018B000A77A77EE277AFDEEE77A17EE902A7F4B2C
:1018C0001A607C4B1B687C4AD3607B4B93ED047A97
:1018D000784BD3ED007A77EE277A774BC3ED047A15
:1018E000764B1B68B3F5167F06DC744B1B68744A95
:1018F0009342B8BF134601E04FF416736F4A13606A
:101900006A4B93F900309AB26C4B1B689BB212FB86
:1019100003F39BB203F596639AB26A4B1A80634B4A
:1019200093F900309AB2654B1B689BB212FB03F32C
:101930009BB2C3F596639AB2634B1A80EFE0FB79D2
:10194000022B65D1614B93ED007A5A4BD3ED007AAF
:1019500027EE277A5D4BD3ED016A5C4BD3ED047A19
:1019600066EEA77A37EE277A584BD3ED026A574BCB
:1019700093ED036A4F4BD3ED007A76EE677A66EE0D
:10198000A77A77EE277AFDEEE77A17EE902A4B4B8F
:101990001A60484B1B684D4AD3604C4B93ED047A58
:1019A000444BD3ED007A77EE277A484BC3ED047AA7
:1019B000424B1B68B3F52F7F06DC404B1B68444A43
:1019C0009342B8BF134601E04FF42F733B4A1360B4
:1019D000364B93F900309AB2384B1B689BB212FB1E
:1019E00003F39BB203F6B8339AB2364B1A802F4BEF
:1019F00093F900309AB2314B1B689BB212FB03F390
:101A00009BB2C3F53B6308339AB22F4B1A8086E032
:101A1000FB79012B40F083802E4B93ED007A254B10
:101A2000D3ED007A27EE277A2A4BD3ED016A294BB2
:101A3000D3ED047A66EEA77A37EE277A254BD3EDFD
:101A4000026A244B93ED036A1A4BD3ED007A76EECB
:101A5000677A66EEA77A77EE277AFDEEE77A17EED9
:101A6000902A164B1A60134B1B681A4AD360194B05
:101A700093ED047A0F4BD3ED007A77EE277A154B6E
:101A8000C3ED047A0D4B1B68B3F52F7F24DC0B4BA1
:101A90001B680F4A9342B8BF13461FE0B8030020EB
:101AA000C0010020BA0300205C0200204001002099
:101AB00000000000B4030020E40300200C04002018
:101AC000A8FDFFFF0200002004000020F803002012
:101AD00044FDFFFFD00300204FF42F73174A13601B
:101AE000174B93F900309AB2144B1B689BB212FB50
:101AF00003F39BB203F6FC039AB2124B1A80104B0D
:101B000093F900309AB20D4B1B689BB212FB03F3A2
:101B10009BB2C3F50F630C339AB20B4B1A80094B7F
:101B20001A880A4B1B685A63074B1A88074B1B68B5
:101B30009A6300BF0837BD4680BD00BF0C0400207B
:101B4000400100200200002004000020A402002028
:101B500080B584B000AF78600B46FB701346BB7055
:101B6000A14B4FF000021A60A04B00221A80A0483F
:101B7000FFF723FE9F48FFF720FE9F48FFF71DFE5B
:101B80009E4B00221A807B681B681846FEF7D4FC27
:101B90008FA3D3E90023FEF727FD02460B4610462C
:101BA00019468DA3D3E90023FEF766FB02460B46D8
:101BB000104619464FF00002914BFEF73FFE0246D9
:101BC0000B46104619464FF000028E4BFEF70CFDF7
:101BD00002460B46104619464FF000028A4BFEF7AC
:101BE0004BFB02460B4610461946FEF797FF03468D
:101BF0009AB2864B1A8001F0DDFC0346844A1360DA
:101C0000FB78002B0CBF01230023DBB21A46042112
:101C1000804802F00FF8FB78002B14BF012300234B
:101C2000DBB21A4608217B4802F004F8FB78002B4F
:101C30000CBF01230023DBB21A462021754801F0B6
:101C4000F9FFFB78002B14BF01230023DBB21A46F7
:101C50001021704801F0EEFF6F4B1B685B6A9AB26F
:101C60006E4B1A806C4B1B685B6AFB606A4B1B688F
:101C70001B6803F01003102B17D1684B1B881A4602
:101C8000FB68934206D8654B1A88FB689BB2D31A4F
:101C90009BB207E0614B1A88FB689BB2D31A9BB2D8
:101CA000013B9BB25E4A138016E05C4B1B881A46D0
:101CB000FB68934206D3FB689AB2584B1B88D31A31
:101CC0009BB207E0FB689AB2544B1B88D31A9BB2B5
:101CD000013B9BB2524A1380FB689AB24F4B1A8069
:101CE000464B1A884E4B1B8813449AB2434B1A80BA
:101CF0000A2005F085FF414B1A88444B1B889A4205
:101D000080F0A58001F056FC0246414B1B68D31AB7
:101D1000092BA7D9BB78002B03D10020FFF760FD6A
:101D20008FE0364B1B881A46384B1B88D31A002B82
:101D3000B8BF5B423B4A82FB03125212DB17D31A35
:101D400007EE903AF8EEE77A374BC3ED007ABB78AE
:101D5000012B1ED1344BD3ED007AB7EE007AF4EEAE
:101D6000C77AF1EE10FA02DD4FF07E530EE02E4BF3
:101D7000D3ED007AB6EE087AF4EEC77AF1EE10FAF7
:101D800002D54FF07D5301E0274B1B68264A1360B4
:101D900052E0BB78022B4FD1234BD3ED007AB7EE44
:101DA000007AF4EEC77AF1EE10FA02DD4FF07E53BE
:101DB00040E01D4B1B681846FEF7BEFB08A3D3E9A5
:101DC0000023FEF783FE0346002B31D0174B31E092
:101DD0002AB266FCAC66F23FF82625BBD4E3EE3FA0
:101DE0009A9999999999D93FB4030020BA03002090
:101DF000E4030020D0030020F8030020C8030020E3
:101E00000000344000A0944000002440CA03002099
:101E1000BC030020000002405C020020CE03002032
:101E2000CC030020730728773C010020CDCCCC3EAA
:101E30000D4B1B680C4A1360BB780B49184600F029
:101E400019F801F0B7FB0346084A13600AE700BF20
:101E5000074B1B6800225A63054B1B6800229A63DC
:101E600000BF1037BD4680BD3C010020BC030020F0
:101E7000A402002080B586B004AF03463960FB7130
:101E80004FF6FF730293022301939B4B00930123B0
:101E90003722D021994802F025F9974B1B781B0275
:101EA0001AB2954B5B781BB213431AB2944B1A804B
:101EB000944B1B681B6803F01003102B01D1012207
:101EC00001E04FF0FF32904B1A708D4BB3F90030A8
:101ED00013F1040F04DB8A4BB3F900300B2B07DD41
:101EE000874BB3F9003007EE903AF8EEE77A01E05D
:101EF000DFED867A864B93ED007A77EE877A844B16
:101F0000C3ED007AFB79012B65D1824B93ED007A0A
:101F10007F4BD3ED007A27EE277A7E4BD3ED016A13
:101F20007C4BD3ED047A66EEA77A37EE277A794BAD
:101F3000D3ED026A774B93ED036A754BD3ED007ACC
:101F400076EE677A66EEA77A77EE277AFDEEE77A85
:101F500017EE902A704B1A606D4B1B686D4AD36068
:101F60006C4B93ED047A6A4BD3ED007A77EE277AC7
:101F7000684BC3ED047A684B1B68B3F52F7F06DC12
:101F8000654B1B68654A9342B8BF134601E04FF4A6
:101F90002F73614A13605C4B93F900309AB25E4B29
:101FA0001B689BB212FB03F39BB203F6FC039AB2CD
:101FB0005B4B1A80544B93F900309AB2564B1B6816
:101FC0009BB212FB03F39BB2C3F50F630C339AB2BF
:101FD000544B1A8067E0FB79022B64D1524B93ED8E
:101FE000007A4B4BD3ED007A27EE277A4E4BD3ED98
:101FF000016A4D4BD3ED047A66EEA77A37EE277A65
:10200000494BD3ED026A484B93ED036A404BD3ED45
:10201000007A76EE677A66EEA77A77EE277AFDEE9B
:10202000E77A17EE902A3C4B1A60394B1B683E4A00
:10203000D3603D4B93ED047A354BD3ED007A77EEC8
:10204000277A394BC3ED047A334B1B68B3F52F7FE6
:1020500006DC314B1B68314A9342B8BF134601E09E
:102060004FF42F732C4A1360274B93F900309AB228
:10207000294B1B689BB212FB03F39BB203F6B833E8
:102080009AB2274B1A80204B93F900309AB2224B18
:102090001B689BB212FB03F39BB2C3F53B6308338F
:1020A0009AB2204B1A801E4B1B8807EE903AB8EE6E
:1020B000E77A3B68D3ED007A67EE277A1B4B1B6803
:1020C000FCEEE77A17EE902A5A63164B1B8807EE50
:1020D000903AB8EEE77A3B68D3ED007A67EE277A5C
:1020E000124B1B68FCEEE77A17EE902A9A6300BF4A
:1020F0000837BD4680BD00BFB8030020C0010020E6
:10210000BA0300205C020020400100200000000013
:10211000B4030020D00300200C04002044FDFFFF86
:102120000200002004000020F8030020A402002088
:10213000B0B586B004AF78604B4B4FF000021A6028
:102140004A4B00221A8001F035FA0346484A1360D0
:1021500001F030FA0246464B1B68D31A092BF7D917
:102160004FF6FF73029302230193424B0093012326
:102170003722D021404801F0B5FF3E4B1B781B02AF
:102180001AB23C4B5B781BB213431AB2374B1A801E
:10219000354B1B681846FEF7CFF904460D46334B06
:1021A000B3F900301846FEF7B5F92BA3D3E90023A5
:1021B000FEF744FB02460B461046194628A3D3E916
:1021C0000023FEF711FA02460B4620462946FEF789
:1021D00055F802460B4610461946FEF7BFFC03466B
:1021E000214A1360204B93ED007A7B68D3ED007A8F
:1021F00077EE677AFDEEE77A17EE903A002B0DDB6B
:10220000194B93ED007A7B68D3ED007A77EE677A0D
:10221000FDEEE77A17EE903A002B05DD01F0CAF9E2
:102220000346134A136093E700BF144B1B68002258
:102230005A63124B1B6800229A63114B1B688E2253
:102240001A644FF4967001F0C1F900BF0837BD461B
:10225000B0BD00BFAFF3008066666666666630405C
:102260007B14AE47E17A843FB4030020BA03002018
:10227000BC030020B8030020C0010020A4020020FD
:102280001402002080B58EB000AF786000237B631D
:102290000023BB6200233B630023FB622A4B1B68C5
:1022A0005B6A7B6301F086F9F862274B1B681B6849
:1022B00003F01003102B0CBF01230023DBB25AB232
:1022C000224B1A7001F076F90246FB6AD31AB3F575
:1022D0007A7F35D91C4B1B685B6ABB621A4B1B6843
:1022E0001B6803F01003102B10D1BA6A7B6B9A4263
:1022F00004DA7A6BBB6AD31A3B6317E0BB6AC3F597
:102300007F43FF337A6B13443B630FE0BA6A7B6B06
:102310009A4204DDBA6A7B6BD31A3B6306E07B6B9F
:10232000C3F57F43FF33BA6A13443B63084A3B6BF0
:102330001360054B1B685B6A7B6301F03BF9F86235
:10234000642005F05DFCBDE75C0200204001002038
:10235000C003002080B582B000AF78600B4A0F2127
:102360000B4808F07FFC4FF6FF73062209490A4824
:1023700004F0FBFA094A2821002008F0B5FB08F018
:10238000B5F90A2005F03CFCE8E700BF54B60008A8
:10239000A00300205CB60008EC0200205C030020D3
:1023A00080B584B002AF7860274B1B78002B03D038
:1023B000642005F025FCF7E7244B254A1A60254BDD
:1023C000234A1A60244A1921002008F08DFB234B70
:1023D000D3ED007AFCEEE77A0C230093052317EE89
:1023E000902A1921282008F011FB002204211C4802
:1023F00001F020FC01220821194801F01BFC0022F9
:102400002021174801F016FC01221021144801F088
:1024100011FC144B1B688E221A644FF4967001F065
:10242000D5F8104B1B681A6C0C230093052332213E
:10243000002008F0EBFA022201210448FFF788FB94
:10244000642005F0DDFBAFE738010020C403002065
:102450000000F042B003002064B60008F80300203A
:10246000000002401402002080B584B002AF786002
:102470001B4B1B78012B03D0642005F0C1FBF7E751
:10248000184A1921002008F02FFB012204211648C8
:1024900001F0D0FB00220821134801F0CBFB012200
:1024A0002021114801F0C6FB002210210E4801F046
:1024B000C1FB0E4B1B688E221A644FF4967001F01C
:1024C00085F80A4B1B681A6C0C23009305233221F4
:1024D000002008F09BFA0020FFF782F9C8E700BF50
:1024E0003801002068B600080000024014020020F5
:1024F00080B582B000AF78609D4B1B78022B03D073
:10250000642005F07DFBF7E79A4B5B88142B00F005
:1025100081801E2B40F00781974BD3ED3D7A9FEDD4
:10252000977AF4EEC77AF1EE10FA01DDE12312E0BA
:10253000914BD3ED3D7A9FED927AF4EEC77AF1EEAE
:1025400010FA01D5552306E08B4BD3ED3D7AFCEE16
:10255000E77A17EE903A8B4A126813644FF496703C
:1025600001F034F8844BD3F8F830874A1360824B7B
:1025700093F8FC30002B0CBF01230023DBB21A467A
:102580000421824801F056FB7B4B93F8FC30002B72
:1025900014BF01230023DBB21A4608217B4801F057
:1025A00049FB754B93F8FC30002B0CBF0123002333
:1025B000DBB21A462021754801F03CFB6E4B93F8C4
:1025C000FC30002B14BF01230023DBB21A4610217C
:1025D0006E4801F02FFB684BB3F8F0206C4B1B6882
:1025E0005A63654BB3F8F220694B1B689A636648DF
:1025F000FFF79EFD0A2005F003FB664B4FF081427A
:102600001A60002200216348FFF7A2FA0A2005F0B1
:10261000F7FA27E15F4B4FF081421A600022002158
:102620005C48FFF795FA0A2005F0EAFA524BD3ED21
:102630002D7A9FED527AF4EEC77AF1EE10FA01DDB1
:10264000E12312E04C4BD3ED2D7A9FED4D7AF4EE61
:10265000C77AF1EE10FA01D5552306E0464BD3EDCB
:102660002D7AFCEEE77A17EE903A464A1268136428
:102670004FF4967000F0AAFF3F4BD3F8B830424AAF
:1026800013603D4B93F8BC30002B0CBF012300239B
:10269000DBB21A4604213D4801F0CCFA364B93F8E0
:1026A000BC30002B14BF01230023DBB21A460821E3
:1026B000364801F0BFFA304B93F8BC30002B0CBF0A
:1026C00001230023DBB21A462021304801F0B2FA80
:1026D000294B93F8BC30002B14BF01230023DBB23D
:1026E0001A461021294801F0A5FA234BB3F8B0206F
:1026F000274B1B685A63204BB3F8B220244B1B684E
:102700009A632148FFF714FD0A2005F079FA214B5E
:10271000214A1A60002200211E48FFF719FA0A20F8
:1027200005F06EFA9EE01B4B4FF081421A600022CA
:1027300000211848FFF70CFA0A2005F061FA0E4B49
:10274000D3ED1D7A9FED0D7AF4EEC77AF1EE10FA13
:1027500001DDE12329E0084BD3ED1D7A9FED087AD6
:10276000F4EEC77AF1EE10FA18D555231DE000BF3C
:10277000380100209C030020080000200000614375
:102780000000AA4214020020B00300200000024012
:10279000A4020020C40300200000E040324BD3ED2F
:1027A0001D7AFCEEE77A17EE903A304A126813640D
:1027B0004FF4967000F00AFF2B4B9B6F2C4A13606E
:1027C000294B93F87C30002B0CBF01230023DBB294
:1027D0001A460421274801F02DFA234B93F87C3048
:1027E000002B14BF01230023DBB21A460821214825
:1027F00001F020FA1C4B93F87C30002B0CBF012316
:102800000023DBB21A4620211A4801F013FA164BB6
:1028100093F87C30002B14BF01230023DBB21A464F
:102820001021144801F006FA0F4BB3F87020124B38
:102830001B685A630C4BB3F872200F4B1B689A63EA
:102840000B48FFF775FC0A2005F0DAF90B4B0C4A30
:102850001A60002200210948FFF77AF90A2005F0E2
:10286000CFF900BF48E600BF080000201402002096
:10287000B003002000000240A4020020C403002096
:102880000000E04080B584B002AF78601F4B1B7839
:10289000032B03D0642005F0B3F9F7E71C4B1D4A66
:1028A0001A60002204211C4801F0C4F90122082109
:1028B000194801F0BFF900222021174801F0BAF9A8
:1028C00001221021144801F0B5F9144B1B68E122D4
:1028D0001A644FF4967000F079FE104B1B681A6C66
:1028E0000C23009305233221002008F08FF80C4BB5
:1028F0001B684FF47A725A63094B1B684FF4FA62F3
:102900009A634FF47A7005F07BF9BFE73801002035
:10291000B00300200000B4C20000024014020020F6
:10292000A402002080B584B002AF78601F4B1B78F2
:10293000042B03D0642005F063F9F7E71C4B1D4A14
:102940001A60012204211C4801F074F900220821B8
:10295000194801F06FF901222021174801F06AF9A6
:1029600000221021144801F065F9144B1B68552210
:102970001A644FF4967000F029FE104B1B681A6C15
:102980000C23009305233221002008F03FF80C4B64
:102990001B684FF47A725A63094B1B684FF4FA6252
:1029A0009A634FF47A7005F02BF9BFE738010020E5
:1029B000B00300200000B4C2000002401402002056
:1029C000A402002080B584B002AF7860274B1B784A
:1029D000052B03D0642005F013F9F7E7244A1E21E4
:1029E000002008F081F801220421224801F022F998
:1029F000002208211F4801F01DF9012220211D4855
:102A000001F018F9002210211A4801F013F91A4BAD
:102A10001B68E1221A644FF4967000F0D7FD164B44
:102A20001B681A6C0C23009305233221002007F049
:102A3000EDFF00F0BFFD03469AB2104B1A8009E08B
:102A40000F4B1A880F4B1B685A630F4B1A880D4B9C
:102A50001B689A6300F0AEFD0346084A12889B1A71
:102A60000A4A12889342EBD3B0E700BF3801002036
:102A700064B6000800000240140200201004002088
:102A800002000020A40200200400002042010020D7
:102A900080B582B000AF7860012005F0B1F8FBE7A7
:102AA00080B582B000AF7860012005F0A9F8FBE79F
:102AB00080B582B000AF7860C64B1B78013B632BBA
:102AC00000F2578201A252F823F000BF5D2C0008EB
:102AD0005D2C0008792C0008792C0008792C00085E
:102AE000792C0008492E0008572E0008652E000892
:102AF000732E0008812E0008812E0008732F000815
:102B0000732F0008732F0008732F0008732F00081D
:102B1000732F0008732F0008732F0008732F00080D
:102B2000732F0008732F0008732F0008732F0008FD
:102B3000732F0008732F0008732F0008732F0008ED
:102B4000732F0008732F0008732F0008732F0008DD
:102B5000732F0008732F0008732F0008732F0008CD
:102B6000732F0008732F0008732F0008732F0008BD
:102B7000732F0008732F0008732F0008732F0008AD
:102B8000732F0008732F0008732F0008732F00089D
:102B9000732F0008732F0008732F0008732F00088D
:102BA000732F0008732F0008732F0008732F00087D
:102BB000732F0008732F0008732F0008732F00086D
:102BC000732F0008732F0008732F0008732F00085D
:102BD000732F0008732F0008732F0008732F00084D
:102BE000732F0008732F0008732F0008732F00083D
:102BF000732F0008732F0008732F0008732F00082D
:102C0000732F0008732F0008732F0008732F00081C
:102C1000732F0008732F0008732F0008732F00080C
:102C2000732F0008732F0008C92E0008C92E000852
:102C3000732F0008732F0008732F0008732F0008EC
:102C4000732F0008732F0008732F0008732F0008DC
:102C5000732F0008732F0008732F00085D4B1B783B
:102C6000012B14BF01230023DBB21A465A4B1A7002
:102C7000584B63221A707DE1564B1B78574A1B0153
:102C800013440433D3ED007A9FED557AF4EEC77AFE
:102C9000F1EE10FA01DDE1231CE04E4B1B784F4AA8
:102CA0001B0113440433D3ED007A9FED4E7AF4EE0A
:102CB000C77AF1EE10FA01D555230BE0454B1B788E
:102CC000464A1B0113440433D3ED007AFCEEE77A45
:102CD00017EE903A444A126813644FF4967000F06D
:102CE00075FC3C4B1B783D4A1B01134408331B68A1
:102CF0003E4A1360374B1B78384A1B0113440C3390
:102D00001B78002B0CBF01230023DBB21A460421E1
:102D1000374800F08FFF2F4B1B78304A1B011344BC
:102D20000C331B78002B14BF01230023DBB21A469F
:102D300008212F4800F07EFF264B1B78274A1B01F5
:102D400013440C331B78002B0CBF01230023DBB290
:102D50001A462021264800F06DFF1E4B1B781F4AA3
:102D60001B0113440C331B78002B14BF01230023D9
:102D7000DBB21A4610211E4800F05CFF154B1B7891
:102D8000164A1B0113441A881A4B1B685A63114BCD
:102D90001B78124A1B01134402331A88154B1B6817
:102DA0009A63154B1A78144B5B789A422ED1094BD3
:102DB00064221A70074B00225A80104A0F211048D3
:102DC00007F050FF4FF6FF7306220E490E4803F03E
:102DD000CCFD35E09C0300203801002008000020D5
:102DE000000061430000AA4214020020B00300204A
:102DF00000000240A40200206803002054B600082E
:102E0000A00300205CB60008EC0200205B4B5B785E
:102E10005B4A5A499B000B445B681360574B5B78D5
:102E20000133564A927893FBF2F101FB02F29B1AAE
:102E3000DAB2524B5A70534A0F21534807F012FF2F
:102E40004F4B63221A7095E0504B02221A704C4B84
:102E500063221A708EE04D4B03221A70484B632296
:102E60001A7087E0494B04221A70454B63221A708E
:102E700080E0464B05221A70414B63221A7079E0BC
:102E80003F4B1B780B2B04D0414B1B68E1221A648B
:102E900003E03F4B1B6855221A644FF4967000F014
:102EA00095FB374B64221A70354B00225A80394A01
:102EB0000F21354807F0D6FE4FF6FF73062236493C
:102EC000364803F052FD55E02D4B1B78582B04D0AB
:102ED0002F4B1B68E1221A6403E02D4B1B6855221F
:102EE0001A644FF4967000F071FB002204212C4804
:102EF00000F0A0FE01220821294800F09BFE0022DC
:102F00002021274800F096FE01221021244800F0DD
:102F100091FE1B4B1B78582B13D1194B5B8807EE86
:102F2000903AF8EE677A1F4BC3ED007A1E4B1B6890
:102F30004FF448725A631C4B1B684FF496629A63B5
:102F400013E00F4B5B885B4207EE903AF8EEE77AAE
:102F5000144BC3ED007A144B1B684FF496625A630E
:102F6000114B1B684FF448729A63054B63221A7029
:102F700000E000BF012004F043FE9DE5680300204F
:102F80009C0300206CB60008A0030020380100203C
:102F90001402002054B600085CB60008EC020020C1
:102FA00000000240B0030020A402002080B582B0DF
:102FB00000AF78607B681B68044A934201D100F03F
:102FC000E5FA00BF0837BD4680BD00BF00080040DD
:102FD00080B400AF72B600BFFEE7000080B582B0DB
:102FE00000AF00237B60124B5B6C114A43F48043BB
:102FF00053640F4B5B6C03F480437B607B6800235E
:103000003B600B4B1B6C0A4A43F080531364084B24
:103010001B6C03F080533B603B6800220F216FF074
:10302000010000F0AFFB00BF0837BD4680BD00BF08
:103030000038024080B58AB000AF786007F1140311
:1030400000221A605A609A60DA601A617B681B6815
:10305000194A93422CD100233B61184B1B6B174A32
:1030600043F002031363154B1B6B03F002033B6138
:103070003B694FF440737B611223BB610023FB610A
:1030800003233B6204237B6207F1140319460C48B7
:1030900000F034FC0023FB60084B1B6C074A43F430
:1030A00000131364054B1B6C03F40013FB60FB68F7
:1030B00000BF2837BD4680BD0054004000380240A4
:1030C0000004024080B58AB000AF786007F11403B5
:1030D00000221A605A609A60DA601A617B681B6885
:1030E000234A93420ED100233B61224B5B6C214A61
:1030F00043F0010353641F4B5B6C03F001033B611E
:103100003B6930E07B681B681B4A93422BD100234C
:10311000FB60184B5B6C174A43F002035364154B7A
:103120005B6C03F00203FB60FB680023BB60114B88
:103130001B6B104A43F0040313630E4B1B6B03F02D
:103140000403BB60BB68C0237B610223BB61002317
:10315000FB6100233B6203237B6207F114031946E2
:10316000064800F0CBFB00BF2837BD4680BD00BF3E
:103170000000014000380240000401400008024005
:1031800080B58AB000AF786007F1140300221A609E
:103190005A609A60DA601A617B681B68B3F1804FED
:1031A0004AD100233B61264B1B6C254A43F00103A7
:1031B0001364234B1B6C03F001033B613B69002349
:1031C000FB601F4B1B6B1E4A43F0010313631C4B38
:1031D0001B6B03F00103FB60FB680023BB60184B13
:1031E0001B6B174A43F002031363154B1B6B03F071
:1031F0000203BB60BB684FF400437B610223BB61E9
:103200000023FB6100233B6201237B6207F114036F
:1032100019460C4800F072FB08237B610223BB6156
:103220000023FB6100233B6201237B6207F114034F
:103230001946054800F062FB00BF2837BD4680BD37
:1032400000380240000002400004024080B588B00F
:1032500000AF786007F10C0300221A605A609A6090
:10326000DA601A617B681B68124A93421ED1002300
:10327000BB60114B1B6B104A43F0100313630E4BE2
:103280001B6B03F01003BB60BB684FF48043FB6013
:1032900002233B6100237B610023BB610123FB61AF
:1032A00007F10C031946054800F028FB00BF203742
:1032B000BD4680BD000001400038024000100240C1
:1032C00080B58AB000AF786007F1140300221A605D
:1032D0005A609A60DA601A617B681B681D4A9342E3
:1032E00034D100233B611C4B1B6C1B4A43F48023ED
:1032F0001364194B1B6C03F480233B613B6900236F
:10330000FB60154B1B6B144A43F004031363124B11
:103310001B6B03F00403FB60FB684FF440637B61AD
:103320000223BB610023FB6103233B6207237B6213
:1033300007F114031946094800F0E0FA00220521BC
:10334000272000F01FFA272000F038FA00BF2837A6
:10335000BD4680BD004800400038024000080240E1
:1033600080B58CB000AF78600023FB620023BB62A5
:10337000002279681E2000F005FA1E2000F01EFAD7
:103380000023FB601E4B1B6C1D4A43F004031364B7
:103390001B4B1B6C03F00403FB60FB6807F110027E
:1033A00007F114031146184602F09EF802F074F873
:1033B000F862FB6A134AA2FB03239B0C013BBB622E
:1033C000114B124A1A60104B40F2E732DA600E4A93
:1033D000BB6A53600C4B00221A610B4B00229A60AF
:1033E000094802F0B3F80346002B04D1064802F066
:1033F000FDF8034600E0012318463037BD4680BD86
:103400000038024083DE1B43140400200008004003
:1034100080B400AFFEE780B400AFFEE780B400AF39
:10342000FEE780B400AFFEE780B400AFFEE780B4F3
:1034300000AF00BFBD465DF8047B704780B500AFAC
:10344000024802F099FB00BF80BD00BF14040020B9
:1034500080B500AF024803F04BFB00BF80BD00BF4A
:10346000EC02002080B586B000AF7860144A154B9E
:10347000D31A7B617B693B61134B1B68002B02D124
:10348000114B124A1A60104B1A687B6813443A6950
:103490009A4207D207F022FC03460C221A604FF032
:1034A000FF3309E0084B1B68FB60074B1A687B6819
:1034B0001344054A1360FB6818461837BD4680BDA3
:1034C00000000220000400005C04002000530020E3
:1034D00080B400AF064BD3F88830054A43F470033C
:1034E000C2F8883000BFBD465DF8047B704700BF5E
:1034F00000ED00E0DFF834D00D480E490E4A0023FD
:1035000002E0D458C4500433C4188C42F9D30B4A97
:103510000B4C002301E013600432A242FBD3FFF7FF
:10352000D7FF07F0E1FBFDF7E7FC70470000022042
:1035300000000020A4010020D8C20008A40100203F
:10354000FC520020FEE7000080B500AF0E4B1B6868
:103550000D4A43F4007313600B4B1B680A4A43F493
:1035600080631360084B1B68074A43F48073136041
:10357000032000F0FCF80F20FFF7F2FEFFF72EFD0E
:103580000023184680BD00BF003C024080B400AF5D
:10359000064B1B781A46064B1B681344044A1360FB
:1035A00000BFBD465DF8047B704700BF4C010020A2
:1035B0006004002080B400AF034B1B681846BD4672
:1035C0005DF8047B704700BF6004002080B584B0C4
:1035D00000AF7860FFF7EEFFB8607B68FB60FB68C8
:1035E000B3F1FF3F05D00A4B1B781A46FB68134422
:1035F000FB6000BFFFF7DEFF0246BB68D31AFA6824
:103600009A42F7D800BF00BF1037BD4680BD00BF4B
:103610004C01002080B485B000AF78607B6803F077
:103620000703FB600C4BDB68BB60BA684FF6FF0317
:103630001340BB60FB681A02BB68134343F0BF63CF
:1036400043F40033BB60044ABB68D36000BF143747
:10365000BD465DF8047B704700ED00E080B400AF2C
:10366000044BDB681B0A03F007031846BD465DF8F0
:10367000047B704700ED00E080B483B000AF0346E8
:10368000FB7197F90730002B0BDBFB7903F01F026E
:10369000074997F907305B09012000FA02F241F867
:1036A000232000BF0C37BD465DF8047B704700BF88
:1036B00000E100E080B483B000AF03463960FB71E5
:1036C00097F90730002B0ADB3B68DAB20C4997F90F
:1036D00007301201D2B20B4483F800230AE03B68A2
:1036E000DAB20849FB7903F00F03043B1201D2B2AE
:1036F0000B441A7600BF0C37BD465DF8047B70475B
:1037000000E100E000ED00E080B489B000AFF860B7
:10371000B9607A60FB6803F00703FB61FB69C3F1E2
:103720000703042B28BF0423BB61FB690433062B6A
:1037300002D9FB69033B00E000237B614FF0FF32BD
:10374000BB6902FA03F3DA43BB681A407B699A400B
:103750004FF0FF317B6901FA03F3D9437B680B40DB
:10376000134318462437BD465DF8047B704780B587
:1037700082B000AF78607868FFF74CFF00BF083771
:10378000BD4680BD80B586B000AF0346B9607A60A3
:10379000FB7300237B61FFF761FF78617A68B9688A
:1037A0007869FFF7B1FF024697F90F3011461846C6
:1037B000FFF780FF00BF1837BD4680BD80B582B0DF
:1037C00000AF0346FB7197F907301846FFF754FF27
:1037D00000BF0837BD4680BD80B584B000AF7860BB
:1037E0007B689B6DFB60FFF7E5FEB8607B6893F834
:1037F0003530DBB2022B08D07B6880225A657B68AB
:10380000002283F83420012352E07B681B681A6889
:103810007B681B6822F016021A607B681B685A6975
:103820007B681B6822F080025A617B681B6C002B4E
:1038300003D17B689B6C002B07D07B681B681A68E0
:103840007B681B6822F008021A607B681B681A6894
:103850007B681B6822F001021A6013E0FFF7AAFEE2
:103860000246BB68D31A052B0CD97B6820225A6507
:103870007B68032283F835207B68002283F834209C
:10388000032315E07B681B681B6803F00103002B12
:10389000E4D17B68DB6D3F229A40FB689A607B68CD
:1038A000012283F835207B68002283F8342000232E
:1038B00018461037BD4680BD80B483B000AF786035
:1038C0007B6893F83530DBB2022B04D07B68802212
:1038D0005A6501230CE07B68052283F835207B685C
:1038E0001B681A687B681B6822F001021A600023BB
:1038F00018460C37BD465DF8047B704780B489B02C
:1039000000AF7860396000237B6100233B610023B6
:10391000BB610023FB616BE10122FB6902FA03F347
:103920007B613B681B687A6913403B613A697B693C
:103930009A4240F05A813B685B6803F00303012B15
:1039400005D03B685B6803F00303022B30D17B6832
:103950009B68BB61FB695B00032202FA03F3DB4354
:10396000BA691340BB613B68DA68FB695B0002FA25
:1039700003F3BA691343BB617B68BA699A607B68D9
:103980005B68BB610122FB6902FA03F3DB43BA699E
:103990001340BB613B685B681B0903F00102FB69D4
:1039A00002FA03F3BA691343BB617B68BA695A60D0
:1039B0003B685B6803F00303032B17D07B68DB686D
:1039C000BB61FB695B00032202FA03F3DB43BA69C4
:1039D0001340BB613B689A68FB695B0002FA03F322
:1039E000BA691343BB617B68BA69DA603B685B689C
:1039F00003F00303022B23D1FB69DA087B6808324A
:103A000053F82230BB61FB6903F007039B000F22D0
:103A100002FA03F3DB43BA691340BB613B681A69DE
:103A2000FB6903F007039B0002FA03F3BA6913432F
:103A3000BB61FB69DA087B680832B96943F8221078
:103A40007B681B68BB61FB695B00032202FA03F31E
:103A5000DB43BA691340BB613B685B6803F0030258
:103A6000FB695B0002FA03F3BA691343BB617B682D
:103A7000BA691A603B685B6803F44033002B00F0BE
:103A8000B4800023FB60604B5B6C5F4A43F480436F
:103A900053645D4B5B6C03F48043FB60FB685B4AE3
:103AA000FB699B08023352F82330BB61FB6903F0CA
:103AB00003039B000F2202FA03F3DB43BA691340AE
:103AC000BB617B68524A93422BD07B68514A934238
:103AD00025D07B68504A93421FD07B684F4A93425F
:103AE00019D07B684E4A934213D07B684D4A93426B
:103AF0000DD07B684C4A934207D07B684B4A934277
:103B000001D107230EE008230CE006230AE0052379
:103B100008E0042306E0032304E0022302E001237B
:103B200000E00023FA6902F0030292009340BA69B0
:103B30001343BB613549FB699B080233BA6941F8FD
:103B400023203B4B9B68BB613B69DB43BA69134055
:103B5000BB613B685B6803F48013002B03D0BA6938
:103B60003B691343BB61324ABB699360304BDB68EE
:103B7000BB613B69DB43BA691340BB613B685B686F
:103B800003F40013002B03D0BA693B691343BB61F4
:103B9000274ABB69D360264B5B68BB613B69DB434B
:103BA000BA691340BB613B685B6803F40033002BC8
:103BB00003D0BA693B691343BB611D4ABB695360BB
:103BC0001B4B1B68BB613B69DB43BA691340BB619C
:103BD0003B685B6803F48033002B03D0BA693B6910
:103BE0001343BB61124ABB691360FB690133FB617C
:103BF000FB690F2B7FF690AE00BF00BF2437BD4698
:103C00005DF8047B704700BF003802400038014077
:103C1000000002400004024000080240000C024084
:103C2000001002400014024000180240001C024034
:103C3000003C014080B483B000AF78600B467B80CD
:103C400013467B707B78002B03D07A887B689A615F
:103C500003E07B881A047B689A6100BF0C37BD467D
:103C60005DF8047B7047000080B584B000AF7860D9
:103C70007B68002B01D101232BE17B6893F83D3059
:103C8000DBB2002B06D17B68002283F83C207868E9
:103C9000FFF7D0F97B68242283F83D207B681B68FE
:103CA0001A687B681B6822F001021A607B681B6837
:103CB0001A687B681B6842F400421A607B681B68C4
:103CC0001A687B681B6822F400421A6001F0E4FB6A
:103CD000F8607B685B68814A934207D8FB68804A3A
:103CE000934294BF01230023DBB206E0FB687D4AC8
:103CF000934294BF01230023DBB2002B01D00123A8
:103D0000E7E0FB68784AA2FB03239B0CBB607B685F
:103D10001B685B6823F03F017B681B68BA680A4335
:103D20005A607B681B681B6A23F03F017B685B68F5
:103D30006A4A934202D8BB68013309E0BB684FF47A
:103D4000967202FB03F3694AA2FB03239B0901332A
:103D50007A6812680B4313627B681B68DB6923F483
:103D60004F4222F0FF027B685B685C498B4219D8A6
:103D7000FB68591E7B685B685B00B1FBF3F3591C61
:103D800040F6FC730B40002B0AD0FB68591E7B6881
:103D90005B685B00B1FBF3F30133C3F30B0351E04A
:103DA00004234FE07B689B68002B11D1FB68581EF1
:103DB0007B6859680B465B000B44B0FBF3F301339F
:103DC000C3F30B03002B0CBF01230023DBB212E073
:103DD000FB68581E7B6859680B469B000B44990092
:103DE0000B44B0FBF3F30133C3F30B03002B0CBF05
:103DF00001230023DBB2002B01D0012322E07B68EA
:103E00009B68002B0ED1FB68581E7B6859680B46D7
:103E10005B000B44B0FBF3F30133C3F30B0343F438
:103E200000430FE0FB68581E7B6859680B469B00F7
:103E30000B4499000B44B0FBF3F30133C3F30B03C2
:103E400043F44043796809681343CB617B681B687E
:103E50001B6823F0C0017B68DA697B681B6A1A4320
:103E60007B681B680A431A607B681B689B6823F4A5
:103E7000034323F0FF037A6811697A68D26811431B
:103E80007A6812680B4393607B681B68DB6823F0D9
:103E9000FF017B685A697B689B691A437B681B68D2
:103EA0000A43DA607B681B681A687B681B6842F00B
:103EB00001021A607B6800221A647B68202283F862
:103EC0003D207B6800221A637B68002283F83E2035
:103ED000002318461037BD4680BD00BFA0860100F4
:103EE0007F841E00FF083D0083DE1B43D34D62101C
:103EF00080B588B002AFF860084611461A460346FE
:103F00007B810B463B811346FB80FFF753FB7861B7
:103F1000FB6893F83D30DBB2202B40F0D9807B6901
:103F20000093192301226D49F86800F07FFC0346D5
:103F3000002B01D00223CCE0FB6893F83C30012B2E
:103F400001D10223C5E0FB68012283F83C20FB6815
:103F50001B681B6803F00103012B07D0FB681B687B
:103F60001A68FB681B6842F001021A60FB681B6854
:103F70001A68FB681B6822F400621A60FB68212241
:103F800083F83D20FB68402283F83E20FB68002236
:103F90001A64FB683A6A5A62FB68BA8C5A85FB68F5
:103FA0005B8D9AB2FB681A85FB684D4ADA62F88825
:103FB0003A8979897B690193BB6A00930346F86863
:103FC00000F0B6FA0346002B52D0012381E07A6953
:103FD000B96AF86800F000FD0346002B0DD0FB68BD
:103FE0001B6C042B07D1FB681B681A68FB681B68F5
:103FF00042F400721A6001236BE0FB685B6A1A7876
:10400000FB681B681A61FB685B6A5A1CFB685A6292
:10401000FB681B8D013B9AB2FB681A85FB685B8DC0
:104020009BB2013B9AB2FB685A85FB681B685B69CF
:1040300003F00403042B1BD1FB681B8D002B17D04E
:10404000FB685B6A1A78FB681B681A61FB685B6A2D
:104050005A1CFB685A62FB681B8D013B9AB2FB68D5
:104060001A85FB685B8D9BB2013B9AB2FB685A854F
:10407000FB681B8D002BAAD17A69B96AF86800F039
:10408000ECFC0346002B0DD0FB681B6C042B07D106
:10409000FB681B681A68FB681B6842F400721A60B0
:1040A000012316E0FB681B681A68FB681B6842F472
:1040B00000721A60FB68202283F83D20FB68002212
:1040C00083F83E20FB68002283F83C20002300E0B8
:1040D000022318461837BD4680BD00BF02001000FD
:1040E0000000FFFF80B58CB002AFF86008461146B3
:1040F0001A4603467B810B463B811346FB80FFF744
:1041000059FA7862FB6893F83D30DBB2202B40F01F
:1041100008827B6A0093192301227B49F86800F02A
:1041200085FB0346002B01D00223FBE1FB6893F8DB
:104130003C30012B01D10223F4E1FB68012283F81A
:104140003C20FB681B681B6803F00103012B07D0B0
:10415000FB681B681A68FB681B6842F001021A6062
:10416000FB681B681A68FB681B6822F400621A600F
:10417000FB68222283F83D20FB68402283F83E2022
:10418000FB6800221A64FB683A6B5A62FB68BA8EBD
:104190005A85FB685B8D9AB2FB681A85FB685B4A9F
:1041A000DA62F8883A8979897B6A0193BB6B00935C
:1041B0000346F86800F052FA0346002B01D00123B1
:1041C000B0E1FB681B8D002B13D100233B62FB6821
:1041D0001B685B693B62FB681B689B693B623B6ACF
:1041E000FB681B681A68FB681B6842F400721A605F
:1041F00084E1FB681B8D012B1BD1FB681B681A68CF
:10420000FB681B6822F480621A600023FB61FB6874
:104210001B685B69FB61FB681B689B69FB61FB6951
:10422000FB681B681A68FB681B6842F400721A601E
:1042300064E1FB681B8D022B1BD1FB681B681A68AD
:10424000FB681B6822F480621A60FB681B681A68AE
:10425000FB681B6842F400621A600023BB61FB68C4
:104260001B685B69BB61FB681B689B69BB61BB69C1
:1042700044E100237B61FB681B685B697B61FB6831
:104280001B689B697B617B6938E1FB681B8D032B95
:1042900000F2F180FB681B8D012B23D17A6AB96B88
:1042A000F86800F01BFC0346002B01D0012339E124
:1042B000FB681B681A69FB685B6AD2B21A70FB68FC
:1042C0005B6A5A1CFB685A62FB681B8D013B9AB201
:1042D000FB681A85FB685B8D9BB2013B9AB2FB6859
:1042E0005A850BE1FB681B8D022B4ED17B6A009334
:1042F000BB6B00220649F86800F098FA0346002BD1
:1043000008D001230EE100BF020010000000FFFFF3
:1043100004000100FB681B681A68FB681B6842F414
:1043200000721A60FB681B681A69FB685B6AD2B28C
:104330001A70FB685B6A5A1CFB685A62FB681B8D2B
:10434000013B9AB2FB681A85FB685B8D9BB2013B0F
:104350009AB2FB685A85FB681B681A69FB685B6A3E
:10436000D2B21A70FB685B6A5A1CFB685A62FB681F
:104370001B8D013B9AB2FB681A85FB685B8D9BB273
:10438000013B9AB2FB685A85B8E07B6A0093BB6B2D
:1043900000226649F86800F049FA0346002B01D074
:1043A0000123BFE0FB681B681A68FB681B6822F4E6
:1043B00080621A60FB681B681A69FB685B6AD2B28C
:1043C0001A70FB685B6A5A1CFB685A62FB681B8D9B
:1043D000013B9AB2FB681A85FB685B8D9BB2013B7F
:1043E0009AB2FB685A857B6A0093BB6B00224F49E7
:1043F000F86800F01BFA0346002B01D0012391E07E
:10440000FB681B681A68FB681B6842F400721A603C
:10441000FB681B681A69FB685B6AD2B21A70FB689A
:104420005B6A5A1CFB685A62FB681B8D013B9AB29F
:10443000FB681A85FB685B8D9BB2013B9AB2FB68F7
:104440005A85FB681B681A69FB685B6AD2B21A70EE
:10445000FB685B6A5A1CFB685A62FB681B8D013B58
:104460009AB2FB681A85FB685B8D9BB2013B9AB2DE
:10447000FB685A8542E07A6AB96BF86800F02EFB57
:104480000346002B01D001234CE0FB681B681A692E
:10449000FB685B6AD2B21A70FB685B6A5A1CFB68E5
:1044A0005A62FB681B8D013B9AB2FB681A85FB6858
:1044B0005B8D9BB2013B9AB2FB685A85FB681B6817
:1044C0005B6903F00403042B18D1FB681B681A69AD
:1044D000FB685B6AD2B21A70FB685B6A5A1CFB68A5
:1044E0005A62FB681B8D013B9AB2FB681A85FB6818
:1044F0005B8D9BB2013B9AB2FB685A85FB681B8DB2
:10450000002B7FF4C2AEFB68202283F83D20FB68BD
:10451000002283F83E20FB68002283F83C20002321
:1045200000E0022318462837BD4680BD0400010084
:1045300080B588B002AFF860084611461A460346B7
:104540007B810B463B811346FB80FB681B681A6826
:10455000FB681B6842F480721A607B6A00933B6AB6
:1045600000224FF00111F86800F060F90346002BBB
:104570000DD0FB681B681B6803F48073B3F5807F64
:1045800003D1FB684FF400721A6403235FE07B8958
:10459000DBB21A46FB681B6802F0FE021A617B6AF6
:1045A0003A6A2D49F86800F098F90346002B01D0CB
:1045B00001234CE000237B61FB681B685B697B6126
:1045C000FB681B689B697B617B697A6A396AF8685A
:1045D00000F002FA0346002B0DD0FB681B6C042B85
:1045E00007D1FB681B681A68FB681B6842F40072FD
:1045F0001A6001232BE0FB88012B05D13B89DAB23D
:10460000FB681B681A6121E03B891B0A9BB2DAB286
:10461000FB681B681A617A6A396AF86800F0DCF98D
:104620000346002B0DD0FB681B6C042B07D1FB68E5
:104630001B681A68FB681B6842F400721A60012349
:1046400005E03B89DAB2FB681B681A610023184653
:104650001837BD4680BD00BF0200010080B588B09C
:1046600002AFF860084611461A4603467B810B46A6
:104670003B811346FB80FB681B681A68FB681B685C
:1046800042F480621A60FB681B681A68FB681B684A
:1046900042F480721A607B6A00933B6A00224FF0FA
:1046A0000111F86800F0C2F80346002B0DD0FB683A
:1046B0001B681B6803F48073B3F5807F03D1FB682C
:1046C0004FF400721A640323AAE07B89DBB21A4616
:1046D000FB681B6802F0FE021A617B6A3A6A524963
:1046E000F86800F0FAF80346002B01D0012397E0A8
:1046F00000237B61FB681B685B697B61FB681B684F
:104700009B697B617B697A6A396AF86800F064F9B1
:104710000346002B0DD0FB681B6C042B07D1FB68F4
:104720001B681A68FB681B6842F400721A60012358
:1047300076E0FB88012B05D13B89DAB2FB681B6868
:104740001A6121E03B891B0A9BB2DAB2FB681B6845
:104750001A617A6A396AF86800F03EF90346002B5C
:104760000DD0FB681B6C042B07D1FB681B681A6813
:10477000FB681B6842F400721A60012350E03B8919
:10478000DAB2FB681B681A617A6A396AF86800F065
:1047900023F90346002B0DD0FB681B6C042B07D1BB
:1047A000FB681B681A68FB681B6842F400721A6099
:1047B000012335E0FB681B681A68FB681B6842F43C
:1047C00080721A607B6A00933B6A00224FF00111ED
:1047D000F86800F02BF80346002B0DD0FB681B682F
:1047E0001B6803F48073B3F5807F03D1FB684FF43B
:1047F00000721A64032313E07B89DBB243F00103E8
:10480000DAB2FB681B681A617B6A3A6A0649F86883
:1048100000F063F80346002B01D0012300E00023E1
:1048200018461837BD4680BD0200010080B584B02F
:1048300000AFF860B9603B601346FB7125E03B6850
:10484000B3F1FF3F21D0FEF7B5FE0246BB69D31A94
:104850003A689A4202D33B68002B16D1FB680022CB
:104860001A63FB68202283F83D20FB68002283F84E
:104870003E20FB681B6C43F02002FB681A64FB6857
:10488000002283F83C20012323E0BB681B0CDBB231
:10489000012B0DD1FB681B685B69DA43BB681340D1
:1048A0009BB2002B0CBF01230023DBB21A460CE0A5
:1048B000FB681B689B69DA43BB6813409BB2002B03
:1048C0000CBF01230023DBB21A46FB799A42B6D013
:1048D000002318461037BD4680BD80B584B000AFB8
:1048E000F860B9607A603B6051E0FB681B685B6907
:1048F00003F48063B3F5806F23D1FB681B681A68EB
:10490000FB681B6842F400721A60FB681B686FF456
:1049100080625A61FB6800221A63FB68202283F8D8
:104920003D20FB68002283F83E20FB681B6C43F0AF
:104930000402FB681A64FB68002283F83C20012310
:1049400046E07B68B3F1FF3F21D0FEF733FE02461D
:104950003B68D31A7A689A4202D37B68002B16D13F
:10496000FB6800221A63FB68202283F83D20FB6865
:10497000002283F83E20FB681B6C43F02002FB689A
:104980001A64FB68002283F83C20012320E0BB6806
:104990001B0CDBB2012B0CD1FB681B685B69DA4393
:1049A000BB6813409BB2002B14BF01230023DBB272
:1049B0000BE0FB681B689B69DA43BB6813409BB242
:1049C000002B14BF01230023DBB2002B8DD1002369
:1049D00018461037BD4680BD80B584B000AFF86082
:1049E000B9607A602DE0F86800F0CEF80346002B3D
:1049F00001D001232DE0BB68B3F1FF3F21D0FEF7CA
:104A0000D9FD02467B68D31ABA689A4202D3BB68C2
:104A1000002B16D1FB6800221A63FB68202283F862
:104A20003D20FB68002283F83E20FB681B6C43F0AE
:104A30002002FB681A64FB68002283F83C200123F3
:104A400007E0FB681B685B6903F08003802BCAD119
:104A5000002318461037BD4680BD80B584B000AF36
:104A6000F860B9607A602DE0F86800F08DF80346D0
:104A7000002B01D001232DE0BB68B3F1FF3F21D013
:104A8000FEF798FD02467B68D31ABA689A4202D3B1
:104A9000BB68002B16D1FB6800221A63FB6820223A
:104AA00083F83D20FB68002283F83E20FB681B6CE6
:104AB00043F02002FB681A64FB68002283F83C2064
:104AC000012307E0FB681B685B6903F00403042B08
:104AD000CAD1002318461037BD4680BD80B584B0CA
:104AE00000AFF860B9607A6042E0FB681B685B6900
:104AF00003F01003102B19D1FB681B686FF0100234
:104B00005A61FB6800221A63FB68202283F83D206B
:104B1000FB68002283F83E20FB681A6CFB681A646D
:104B2000FB68002283F83C20012329E0FEF742FDC8
:104B300002467B68D31ABA689A4202D3BB68002B3C
:104B400016D1FB6800221A63FB68202283F83D20FF
:104B5000FB68002283F83E20FB681B6C43F02002B8
:104B6000FB681A64FB68002283F83C20012307E0FD
:104B7000FB681B685B6903F04003402BB5D1002341
:104B800018461037BD4680BD80B483B000AF786052
:104B90007B681B685B6903F48063B3F5806F1BD18E
:104BA0007B681B686FF480625A617B6800221A631D
:104BB0007B68202283F83D207B68002283F83E201A
:104BC0007B681B6C43F004027B681A647B680022DC
:104BD00083F83C20012300E0002318460C37BD4633
:104BE0005DF8047B7047000080B483B000AF064BD3
:104BF00001221A60054B1B687B607B6800BF0C3785
:104C0000BD465DF8047B704720000E4200700040F6
:104C100080B483B000AF064B00221A60054B1B68BE
:104C20007B607B6800BF0C37BD465DF8047B704736
:104C300020000E420070004080B586B000AF786062
:104C40007B68002B01D1012367E27B681B6803F0BE
:104C50000103002B75D0884B9B6803F00C03042BD9
:104C60000CD0854B9B6803F00C03082B12D1824BB0
:104C70005B6803F48003B3F5800F0BD17E4B1B6898
:104C800003F40033002B5BD07B685B68002B57D1AB
:104C9000012342E27B685B68B3F5803F06D1764B27
:104CA0001B68754A43F4803313601DE07B685B68C2
:104CB000B3F5A02F0CD1704B1B686F4A43F48023CF
:104CC00013606D4B1B686C4A43F4803313600BE038
:104CD000694B1B68684A23F480331360664B1B687A
:104CE000654A23F4802313607B685B68002B13D034
:104CF000FEF760FC386108E0FEF75CFC02463B69A9
:104D0000D31A642B01D9032307E25B4B1B6803F41E
:104D10000033002BF0D014E0FEF74CFC386108E0C3
:104D2000FEF748FC02463B69D31A642B01D90323E2
:104D3000F3E1514B1B6803F40033002BF0D100E08A
:104D400000BF7B681B6803F00203002B63D04A4B53
:104D50009B6803F00C03002B0BD0474B9B6803F0C0
:104D60000C03082B1CD1444B5B6803F48003002B1D
:104D700016D1414B1B6803F00203002B05D07B6862
:104D8000DB68012B01D00123C7E13B4B1B6823F0FB
:104D9000F8027B681B69DB00374913430B603AE07C
:104DA0007B68DB68002B20D0344B01221A60FEF7B1
:104DB00001FC386108E0FEF7FDFB02463B69D31AAF
:104DC000022B01D90323A8E12B4B1B6803F002033C
:104DD000002BF0D0284B1B6823F0F8027B681B697E
:104DE000DB00254913430B6015E0244B00221A60B9
:104DF000FEF7E0FB386108E0FEF7DCFB02463B69AA
:104E0000D31A022B01D9032387E11B4B1B6803F044
:104E10000203002BF0D17B681B6803F00803002B12
:104E200036D07B685B69002B16D0154B01221A60C7
:104E3000FEF7C0FB386108E0FEF7BCFB02463B69A9
:104E4000D31A022B01D9032367E10B4B5B6F03F0ED
:104E50000203002BF0D01BE0094B00221A60FEF782
:104E6000A9FB38610EE0FEF7A5FB02463B69D31AA9
:104E7000022B07D9032350E10038024000004742CB
:104E8000800E4742884B5B6F03F00203002BEAD190
:104E90007B681B6803F00403002B00F0978000235D
:104EA000FB75814B1B6C03F08053002B0FD100234B
:104EB000BB607D4B1B6C7C4A43F0805313647A4B80
:104EC0001B6C03F08053BB60BB680123FB75774B01
:104ED0001B6803F48073002B18D1744B1B68734A52
:104EE00043F480731360FEF765FB386108E0FEF75A
:104EF00061FB02463B69D31A022B01D903230CE163
:104F00006A4B1B6803F48073002BF0D07B689B68AE
:104F1000012B06D1644B1B6F634A43F001031367F7
:104F20001CE07B689B68052B0CD15F4B1B6F5E4AB6
:104F300043F0040313675C4B1B6F5B4A43F00103B0
:104F400013670BE0584B1B6F574A23F0010313679D
:104F5000554B1B6F544A23F0040313677B689B680F
:104F6000002B15D0FEF726FB38610AE0FEF722FB86
:104F700002463B69D31A41F28832934201D9032396
:104F8000CBE0494B1B6F03F00203002BEED014E083
:104F9000FEF710FB38610AE0FEF70CFB02463B69A6
:104FA000D31A41F28832934201D90323B5E03E4B34
:104FB0001B6F03F00203002BEED1FB7D012B05D10B
:104FC000394B1B6C384A23F0805313647B689B6910
:104FD000002B00F0A180344B9B6803F00C03082BDE
:104FE0005CD07B689B69022B41D1314B00221A6057
:104FF000FEF7E0FA386108E0FEF7DCFA02463B69AA
:10500000D31A022B01D9032387E0274B1B6803F037
:105010000073002BF0D17B68DA697B681B6A1A4346
:105020007B685B6A9B011A437B689B6A5B08013B58
:105030001B041A437B68DB6A1B061B4913434B6046
:105040001B4B01221A60FEF7B5FA386108E0FEF743
:10505000B1FA02463B69D31A022B01D903235CE063
:10506000114B1B6803F00073002BF0D054E0104B81
:1050700000221A60FEF79EFA386108E0FEF79AFAFD
:1050800002463B69D31A022B01D9032345E0064BA4
:105090001B6803F00073002BF0D13DE07B689B6937
:1050A000012B07D1012338E0003802400070004096
:1050B000600047421B4B5B68FB607B689B69012B70
:1050C00028D0FB6803F480027B68DB699A4221D117
:1050D000FB6803F03F027B681B6A9A421AD1FA68A8
:1050E00047F6C07313407A68526A9201934211D115
:1050F000FB6803F440327B689B6A5B08013B1B043E
:105100009A4207D1FB6803F070627B68DB6A1B067A
:105110009A4201D0012300E0002318461837BD460B
:1051200080BD00BF0038024080B584B000AF786019
:1051300039607B68002B01D10123CCE0684B1B68F0
:1051400003F007033A689A420CD9654B3A68D2B229
:105150001A70634B1B6803F007033A689A4201D048
:105160000123B8E07B681B6803F00203002B20D00A
:105170007B681B6803F00403002B05D0594B9B6828
:10518000584A43F4E05393607B681B6803F00803BC
:10519000002B05D0534B9B68524A43F46043936005
:1051A000504B9B6823F0F0027B689B684D4913438A
:1051B0008B607B681B6803F00103002B44D07B6885
:1051C0005B68012B07D1474B1B6803F40033002BAE
:1051D00019D101237FE07B685B68022B03D07B68D9
:1051E0005B68032B07D13F4B1B6803F00073002B58
:1051F00009D101236FE03B4B1B6803F00203002B36
:1052000001D1012367E0374B9B6823F003027B68E1
:105210005B68344913438B60FEF7CCF9F8600AE011
:10522000FEF7C8F90246FB68D31A41F2883293426E
:1052300001D903234FE02B4B9B6803F00C027B68E2
:105240005B689B009A42EBD1254B1B6803F0070378
:105250003A689A420CD2224B3A68D2B21A70204B6A
:105260001B6803F007033A689A4201D0012332E039
:105270007B681B6803F00403002B08D0194B9B6864
:1052800023F4E0527B68DB68164913438B607B682C
:105290001B6803F00803002B09D0124B9B6823F412
:1052A00060427B681B69DB000E4913438B6000F092
:1052B00021F802460B4B9B681B0903F00F030A49B8
:1052C000CB5C22FA03F3094A1360094B1B681846AA
:1052D000FEF746F8002318461037BD4680BD00BFD4
:1052E000003C02400038024018B800084401002089
:1052F000480100202DE9B04F90B000AF00237B6340
:105300000023FB6300233B630023BB63594B9B6873
:1053100003F00C03082B0DD0082B00F2A180002B0A
:1053200002D0042B03D09BE0534BBB639BE0534B59
:10533000BB6398E04F4B5B6803F03F037B634D4BCF
:105340005B6803F48003002B28D04A4B5B689B0901
:1053500000223B627A623B6AC3F308000021474B9C
:1053600003FB01F2002300FB03F31344434AA0FBB9
:105370000212FA620A46BA62FA6A1344FB627B6B53
:105380000022BB61FA61D7E90623D7E90A01FBF7DE
:1053900035FC02460B461346FB6353E0354B5B6816
:1053A0009B0900223B617A613B69C3F3080A4FF015
:1053B000000B52465B464FF000004FF000015901D0
:1053C00041EAD261500102460B46B2EB0A0863EB98
:1053D0000B094FF000024FF000034FEA891343EA34
:1053E00098634FEA8812B2EB080463EB09054FF0AB
:1053F00000024FF00003EB0043EA5473E20014464E
:105400001D4614EB0A033B6045EB0B037B604FF03A
:1054100000024FF00003D7E9004529468B022146E0
:1054200043EA915321468A02104619467B6B0022BB
:10543000BB60FA60D7E90223FBF7E0FB02460B46AC
:105440001346FB630B4B5B681B0C03F00303013338
:105450005B003B63FA6B3B6BB2FBF3F3BB6302E0B5
:10546000054BBB6300BFBB6B18464037BD46BDE86C
:10547000B08F00BF003802400024F40040787D0166
:1054800080B400AF034B1B681846BD465DF8047B33
:10549000704700BF4401002080B500AFFFF7F0FF68
:1054A0000246054B9B689B0A03F007030349CB5C4C
:1054B00022FA03F3184680BD0038024028B80008DD
:1054C00080B500AFFFF7DCFF0246054B9B685B0B26
:1054D00003F007030349CB5C22FA03F3184680BDAF
:1054E0000038024028B8000880B483B000AF78606C
:1054F00039607B680F221A60124B9B6803F003022D
:105500007B685A600F4B9B6803F0F0027B689A60DF
:105510000C4B9B6803F4E0527B68DA60094B9B6894
:10552000DB0803F4E0527B681A61074B1B6803F049
:1055300007023B681A6000BF0C37BD465DF8047B6C
:10554000704700BF00380240003C024080B582B086
:1055500000AF78607B68002B01D1012341E07B68BC
:1055600093F83D30DBB2002B06D17B68002283F834
:105570003C207868FDF7A6FD7B68022283F83D2079
:105580007B681A687B6804331946104600F0AEFD4C
:105590007B68012283F846207B68012283F83E2045
:1055A0007B68012283F83F207B68012283F840203A
:1055B0007B68012283F841207B68012283F8422026
:1055C0007B68012283F843207B68012283F8442012
:1055D0007B68012283F845207B68012283F83D2007
:1055E000002318460837BD4680BD000080B485B052
:1055F00000AF78607B6893F83D30DBB2012B01D0BF
:1056000001234EE07B68022283F83D207B681B6803
:10561000DA687B681B6842F00102DA607B681B680D
:10562000234A934222D07B681B68B3F1804F1DD080
:105630007B681B681F4A934218D07B681B681E4A10
:10564000934213D07B681B681C4A93420ED07B6840
:105650001B681B4A934209D07B681B68194A934216
:1056600004D07B681B68184A934211D17B681B6881
:105670009B6803F00703FB60FB68062B10D07B6878
:105680001B681A687B681B6842F001021A6007E019
:105690007B681B681A687B681B6842F001021A600D
:1056A000002318461437BD465DF8047B704700BFE1
:1056B000000001400004004000080040000C0040D1
:1056C00000040140004001400018004080B582B055
:1056D00000AF78607B68002B01D1012341E07B683B
:1056E00093F83D30DBB2002B06D17B68002283F8B3
:1056F0003C20786800F039F87B68022283F83D206E
:105700007B681A687B6804331946104600F0EEFC8B
:105710007B68012283F846207B68012283F83E20C3
:105720007B68012283F83F207B68012283F84020B8
:105730007B68012283F841207B68012283F84220A4
:105740007B68012283F843207B68012283F8442090
:105750007B68012283F845207B68012283F83D2085
:10576000002318460837BD4680BD80B483B000AF23
:10577000786000BF0C37BD465DF8047B70470000C1
:1057800080B584B000AF786039603B68002B09D1E8
:105790007B6893F83E30DBB2012B14BF012300235A
:1057A000DBB222E03B68042B09D17B6893F83F30E1
:1057B000DBB2012B14BF01230023DBB215E03B68F1
:1057C000082B09D17B6893F84030DBB2012B14BF62
:1057D00001230023DBB208E07B6893F84130DBB2A1
:1057E000012B14BF01230023DBB2002B01D00123C6
:1057F0007CE03B68002B04D17B68022283F83E20CA
:1058000013E03B68042B04D17B68022283F83F201D
:105810000BE03B68082B04D17B68022283F8402010
:1058200003E07B68022283F841207B681B68012229
:105830003968184600F044FF7B681B682D4A934284
:1058400004D07B681B682C4A934201D1012300E0FD
:105850000023002B07D07B681B685A6C7B681B6891
:1058600042F400425A647B681B68224A934222D069
:105870007B681B68B3F1804F1DD07B681B681F4A93
:10588000934218D07B681B681D4A934213D07B68F3
:105890001B681C4A93420ED07B681B68164A9342D1
:1058A00009D07B681B68184A934204D07B681B6848
:1058B000164A934211D17B681B689B6803F007036B
:1058C000FB60FB68062B10D07B681B681A687B683E
:1058D0001B6842F001021A6007E07B681B681A68C7
:1058E0007B681B6842F001021A60002318461037DB
:1058F000BD4680BD0000014000040140000400409E
:1059000000080040000C004000400140001800402A
:1059100080B586B000AF786039607B68002B01D11C
:10592000012397E07B6893F83D30DBB2002B06D172
:105930007B68002283F83C207868FDF721FC7B68B7
:10594000022283F83D207B681B689B687A68126896
:1059500023F4804323F0070393607B681A687B6815
:1059600004331946104600F0C1FB7B681B689B6836
:105970007B617B681B689B693B617B681B681B6A5A
:10598000FB603B681B687A6913437B613B6923F4C6
:10599000407323F003033B613B689A683B689B6953
:1059A0001B0213433A6913433B613B6923F4406391
:1059B00023F00C033B613B6923F4704323F0F003B5
:1059C0003B613B68DA683B68DB691B0213433A6959
:1059D00013433B613B681B691A013B681B6A1B034D
:1059E00013433A6913433B61FB6823F02203FB60D6
:1059F000FB6823F08803FB603B685A683B685B697F
:105A00001B011343FA681343FB607B681B687A69C8
:105A10009A607B681B683A699A617B681B68FA68C0
:105A20001A627B68012283F846207B68012283F892
:105A30003E207B68012283F83F207B68012283F8A7
:105A400042207B68012283F843207B68012283F88F
:105A50003D20002318461837BD4680BD80B584B070
:105A600000AF786039607B6893F83E30FB737B68E9
:105A700093F83F30BB737B6893F842307B737B684D
:105A800093F843303B733B68002B10D1FB7B012B19
:105A900002D17B7B012B01D0012369E07B680222CC
:105AA00083F83E207B68022283F8422031E03B6885
:105AB000042B10D1BB7B012B02D13B7B012B01D0EE
:105AC000012355E07B68022283F83F207B68022295
:105AD00083F843201DE0FB7B012B08D1BB7B012B0E
