:020000040800F2
:1000000000000220E51D0008011D0008071D000872
:100010000D1D0008131D0008191D00080000000038
:100020000000000000000000000000003186000811
:100030001F1D0008000000008188000805630008FB
:10004000351E0008351E0008351E0008351E000844
:10005000351E0008351E0008351E0008351E000834
:10006000351E0008351E0008351E0008351E000824
:10007000351E0008351E0008351E0008351E000814
:10008000351E0008351E0008351E0008351E000804
:10009000351E0008351E0008351E0008351E0008F4
:1000A000351E0008351E0008351E0008351E0008E4
:1000B000351E0008351E00082D1D0008351E0008DD
:1000C000351E0008351E0008351E0008351E0008C4
:1000D000351E0008351E0008351E0008411D0008A9
:1000E000351E0008351E0008351E0008351E0008A4
:1000F000351E0008351E0008351E0008351E000894
:10010000351E0008351E0008351E0008351E000883
:10011000351E0008351E0008351E0008351E000873
:10012000351E0008351E0008351E0008351E000863
:10013000351E0008351E0008351E0008351E000853
:10014000351E0008351E0008351E0008351E000843
:10015000351E0008351E0008351E0008351E000833
:10016000351E0008351E0008351E0008351E000823
:10017000351E0008351E0008351E0008000000006E
:08018000351E0008351E0008C1
:1001900010B5054C237833B9044B13B10448AFF3C1
:1001A00000800123237010BD9C010020000000008E
:1001B000C49F000808B5034B1BB103490348AFF3C4
:1001C000008008BD00000000A0010020C49F0008BE
:1001D00001F0FF01102A2BDB10F0070F08D010F8F8
:1001E000013B013A8B422DD010F0070F42B3F6D1FC
:1001F000F0B441EA012141EA014122F007047FF015
:1002000000070023F0E80256083C85EA010586EA6B
:10021000010685FA47F5A3FA87F586FA47F6A5FAA7
:1002200087F68EB9EED1F0BC01F0FF0102F00702B3
:1002300032B110F8013B013A83EA010313B1F8D15E
:100240000020704701387047002D06BF354603383F
:10025000073815F0010F07D1013015F4807F02BF78
:10026000013015F4C03F0130F0BC0138704700BFC9
:1002700053B94AB9002908BF00281CBF4FF0FF310D
:100280004FF0FF3000F070B9ADF1080C6DE904CE0D
:1002900000F006F8DDF804E0DDE9022304B0704761
:1002A0002DE9F047089E0D4604460F46002B4AD123
:1002B0008A42944665D9B2FA82F343B102FA03FC4A
:1002C000C3F120029F4020FA02F217439C404FEAFC
:1002D0001C4E1FFA8CF5B7FBFEF1220C0EFB1177BA
:1002E00042EA074201FB05F090420AD91CEB0202E8
:1002F00001F1FF3780F01C81904240F219810239F0
:100300006244121AA4B2B2FBFEF00EFB102244EAC1
:10031000024400FB05F5A5420AD91CEB040400F1D8
:10032000FF3280F00781A54240F204816444023824
:1003300040EA0140641B00211EB1DC400023C6E9F5
:100340000043BDE8F0878B4208D9002E00F0ED8015
:100350000021C6E900050846BDE8F087B3FA83F13D
:10036000002949D1AB4202D3824200F2F880841ABC
:1003700065EB030201201746002EE2D0C6E90047D4
:10038000DFE702B9FFDEB2FA82F3002B40F0908083
:100390008A1A4FEA1C471FFA8CFE0121B2FBF7F5BF
:1003A00007FB1520220C42EA00420EFB05F09042AA
:1003B00008D91CEB020205F1FF3802D2904200F28C
:1003C000CB804546121AA4B2B2FBF7F007FB10220D
:1003D00044EA02440EFB00FEA64508D91CEB0404C7
:1003E00000F1FF3202D2A64500F2BB801046A4EB1A
:1003F0000E0440EA05409FE7C1F120078B4022FA36
:1004000007FC4CEA030C05FA01F420FA07F3FD405F
:100410004FEA1C492343B5FBF9F81FFA8CFE09FB90
:1004200018551C0C44EA054408FB0EF5A54202FAD7
:1004300001F200FA01F00BD91CEB040408F1FF3AB9
:1004400080F08880A54240F28580A8F102086444CB
:10045000641B9DB2B4FBF9F309FB134445EA044461
:1004600003FB0EFEA64508D91CEB040403F1FF357F
:100470006CD2A6456AD9023B644443EA0843A3FB15
:100480000295A4EB0E04AC42C846AE4656D353D0F8
:1004900056B1B0EB080264EB0E0404FA07F7CA4049
:1004A000CC401743C6E9007418460021BDE8F08728
:1004B000C3F1200102FA03FC20FA01F225FA01F14E
:1004C0009D402A434FEA1C471FFA8CFEB1FBF7F010
:1004D00007FB1015110C41EA054100FB0EF58D429A
:1004E00004FA03F408D91CEB010100F1FF382FD204
:1004F0008D422DD902386144491B92B2B1FBF7F508
:1005000007FB151142EA014205FB0EF1914208D9A1
:100510001CEB020205F1FF3816D2914214D9023DBC
:100520006244521A45EA004138E73146304608E74E
:100530003946E6E61046FBE64845A9D2B9EB020883
:1005400065EB0C0E013BA3E74546EAE72B4694E733
:100550004046D1E7D0467BE7023D624432E7084699
:100560000AE76444023842E7704700BF80B582B0B2
:1005700000AF01F061FC00F01BF900F06BFB00F034
:100580003FFB00F073F900F091FA00F03BFA00F045
:100590009BF908F0B3FF002303220021594808F01B
:1005A000A3FC0C21584803F063FD0021574803F0D9
:1005B0005FFD0421554803F05BFD3C21544803F0E6
:1005C000C5FE514B1B6892221A644FF4967001F0DD
:1005D00075FC504B64221A704E4B00225A804E4BD1
:1005E00000221A704C4B00225A704C4B1A784A4B1E
:1005F0009A7000237B600CE064233B7000237B80B7
:10060000454A7B689B0013443A685A607B68013313
:100610007B60424B1B781A467B689342ECDB3D4B78
:1006200001221A703B4B00225A803D4B1B789BB233
:100630001A463C493C4804F0A2FE334B1B68922208
:100640001A644FF4967001F039FC05F075FE374AD4
:100650000021374805F0BAFE0346364A1360364A91
:100660000021364805F0B2FE0346354A1360354A8C
:100670000021354805F0AAFE0346344A1360344A87
:100680000021344805F0A2FE0346334A1360334A82
:100690000021334805F09AFE0346324A1360324A7D
:1006A0000021324805F092FE0346314A1360314A78
:1006B0000021314805F08AFE0346304A1360304A73
:1006C0000021304805F082FE03462F4A13602F4A6E
:1006D00000212F4805F07AFE03462E4A13602E4A69
:1006E00000212E4805F072FE03462D4A13602D4A64
:1006F00000212D4805F06AFE03462C4A136005F0E0
:100700003FFEFEE7B80100200C0200209C02002002
:100710005402002094030020600300200100002008
:100720000000002054030020E402002090A00008F4
:10073000850D000828030020B4A00008850E0008DD
:100740002C030020D8A00008110F0008300300205F
:10075000FCA00008850F00083403002020A1000839
:10076000511000083803002044A100081D110008A2
:100770003C03002068A10008E911000840030020A4
:100780008CA10008B512000844030020B0A10008A5
:100790008113000848030020D4A100089113000829
:1007A0004C030020F8A10008A1130008500300200A
:1007B00080B594B000AF07F1200330220021184625
:1007C00008F07CFF07F10C0300221A605A609A605F
:1007D000DA601A610023BB60224B1B6C214A43F094
:1007E000805313641F4B1B6C03F08053BB60BB68CA
:1007F00000237B601C4B1B681B4A43F4804313603F
:10080000194B1B6803F480437B607B6802233B62C7
:100810000123FB6210233B630023BB6307F120032A
:10082000184602F081FE0346002B01D001F048F883
:100830000F23FB6000233B6100237B610023BB612E
:100840000023FB6107F10C030021184603F0E4F8D4
:100850000346002B01D001F033F800BF5037BD46EE
:1008600080BD00BF003802400070004080B500AF7E
:10087000124B134A1A60114B124A5A600F4B002256
:100880009A600E4B0022DA600C4B4FF480421A61E2
:100890000A4B00225A61094B00229A61074B002241
:1008A000DA61064B00221A62044801F055FE034645
:1008B000002B01D001F004F800BF80BDB80100207A
:1008C00000540040A086010080B596B000AF07F14B
:1008D000480300221A605A609A60DA6007F1400308
:1008E00000221A605A6007F1240300221A605A603D
:1008F0009A60DA601A615A619A613B1D20220021D8
:10090000184608F0DBFE3D4B3D4A1A603B4BA022E7
:100910005A603A4B00229A60384B4FF47A72DA6090
:10092000364B00221A61354B00225A61334B80222C
:100930009A61324803F082FA0346002B01D000F09E
:10094000BFFF4FF48053BB6407F1480319462B489F
:1009500003F054FF0346002B01D000F0B1FF2748FD
:1009600003F02CFB0346002B01D000F0A9FF00236D
:100970003B6400237B6407F1400319461F4804F0E1
:100980003DFB0346002B01D000F09AFF60237B6201
:100990000023BB620023FB6200237B630023BB6355
:1009A0000023FB6307F124030C221946134803F0CC
:1009B00063FE0346002B01D000F082FF00237B6022
:1009C0000023BB600023FB6000233B6100237B61AD
:1009D0004FF40053BB6100233B623B1D194607489F
:1009E00004F088FB0346002B01D000F069FF0348A8
:1009F00001F0A4F800BF5837BD4680BD0C020020AE
:100A00000000014080B58CB000AF07F10C03242238
:100A10000021184608F052FE3B1D00221A605A6061
:100A2000214B4FF080421A601F4B00225A601E4B30
:100A300000229A601C4B4FF0FF32DA601A4B002202
:100A40001A61194B00229A610323FB6000233B616A
:100A500001237B610023BB610A23FB6100233B620E
:100A600001237B620023BB620A23FB6207F10C03B4
:100A700019460D4803F0C4FB0346002B01D000F0DB
:100A80001FFF00237B600023BB603B1D1946064807
:100A900004F0B4FA0346002B01D000F011FF00BFB0
:100AA0003037BD4680BD00BF5402002080B596B0EF
:100AB00000AF07F1480300221A605A609A60DA60BA
:100AC00007F1400300221A605A6007F12403002254
:100AD0001A605A609A60DA601A615A619A613B1D25
:100AE00020220021184608F0E9FD434B434A1A60D2
:100AF000414B00225A60404B00229A603E4B41F627
:100B00001F42DA603C4B00221A613B4B00225A61C3
:100B1000394B00229A61384803F090F90346002BC4
:100B200001D000F0CDFE4FF48053BB6407F14803C1
:100B30001946314803F062FE0346002B01D000F055
:100B4000BFFE2D4803F03AFA0346002B01D000F017
:100B5000B7FE00233B6400237B6407F14003194682
:100B6000254804F04BFA0346002B01D000F0A8FE04
:100B700060237B620023BB620023FB6200233B6394
:100B800000237B630023BB630023FB6307F1240383
:100B900000221946184803F06FFD0346002B01D0D0
:100BA00000F08EFE07F1240304221946124803F0D8
:100BB00063FD0346002B01D000F082FE00237B6022
:100BC0000023BB600023FB6000233B6100237B61AB
:100BD0004FF40053BB6100233B623B1D194606489E
:100BE00004F088FA0346002B01D000F069FE00BF34
:100BF0005837BD4680BD00BF9C0200200004014064
:100C000080B500AF114B124A1A60104B4FF4E1321D
:100C10005A600E4B00229A600C4B0022DA600B4B9C
:100C200000221A61094B0C225A61084B00229A617A
:100C3000064B0022DA61054804F0C2FA0346002B95
:100C400001D000F03DFE00BF80BD00BFE4020020E7
:100C50000048004080B58AB000AF07F114030022BD
:100C60001A605A609A60DA601A6100233B61384B5F
:100C70001B6B374A43F010031363354B1B6B03F0B8
:100C800010033B613B690023FB60314B1B6B304A17
:100C900043F0010313632E4B1B6B03F00103FB6056
:100CA000FB680023BB602A4B1B6B294A43F00403FB
:100CB0001363274B1B6B03F00403BB60BB6800236B
:100CC0007B60234B1B6B224A43F002031363204BD0
:100CD0001B6B03F002037B607B6800224FF4BC6156
:100CE0001C4801F01FFC00223C211B4801F01AFCAB
:100CF0004FF4BC637B610123BB610023FB610023D4
:100D00003B6207F114031946124801F06FFA0C23F5
:100D10007B610123BB610023FB6102233B6207F17E
:100D2000140319460C4801F061FA30237B6101235A
:100D3000BB610023FB6100233B6207F114031946EA
:100D4000054801F053FA00BF2837BD4680BD00BFFB
:100D500000380240001002400000024080B582B01E
:100D600000AF78604FF6FF730A220449044804F08C
:100D700074FA00BF0837BD4680BD00BF5403002091
:100D8000E402002080B590B000AF78600023FB63E0
:100D900000233B630023BB6300237B63364B1B684C
:100DA0005B6AFB6301F07EF87863334B1B681B685A
:100DB00003F01003102B0CBF01230023DBB2FB85D3
:100DC00001F070F802467B6BD31AB3F57A7F4ED9E7
:100DD000294B1B685B6A3B63274B1B681B6803F04E
:100DE0001003102B10D13A6BFB6B9A4204DAFA6BAA
:100DF0003B6BD31ABB6317E03B6BC3F57F43FF33F9
:100E0000FA6B1344BB630FE03A6BFB6B9A4204DD51
:100E10003A6BFB6BD31ABB6306E0FB6BC3F57F43F6
:100E2000FF333A6B1344BB6307F11803BA6B1349E2
:100E3000184608F023FC07F118031A460021002089
:100E400008F02AFBFA8D07F10C030D49184608F04B
:100E500015FC07F10C031A460F21002008F01CFBBB
:100E6000054B1B685B6AFB6301F01CF8786301208B
:100E700005F03EFBA4E700BF5402002044A0000898
:100E800050A0000880B586B004AF78604FF6FF73BD
:100E90000293022301931A4B009301233722D0219E
:100EA000184801F097FD164B1B781B021AB2144B21
:100EB0005B781BB213431AB2134B1A80124BB3F96F
:100EC00000301A460C23009305232821002008F047
:100ED00075FA0E4B002200210A4808F08EF80B4BE1
:100EE000B3F904301A460C2300930523282150201F
:100EF00008F064FA08F0D2F8642005F0F9FAC5E7C2
:100F0000AC030020B8010020AE030020B003002095
:100F100080B584B002AF7860154B1B78002B03D0EE
:100F2000642005F0E5FAF7E7124A1E21002008F0D8
:100F3000B3FA114B1B681A6C0C2300930523322162
:100F4000002008F03BFA00F0ADFF03469AB20B4BCD
:100F50001A8000BF00F0A6FF0346084A12889B1AB9
:100F6000074A12889342F5D3642005F0C1FAD3E70B
:100F7000380100205CA000080C020020B60300200D
:100F80003A01002080B584B002AF7860274B1B780F
:100F9000012B03D0642005F0ABFAF7E7244A1E21A9
:100FA000002008F079FA01220421224801F0BAFA5F
:100FB000002208211F4801F0B5FA012220211D4816
:100FC00001F0B0FA002210211A4801F0ABFA1A4BD6
:100FD0001B6892221A644FF4967000F06FFF164B54
:100FE0001B681A6C0C23009305233221002008F0A3
:100FF000E5F900F057FF03469AB2104B1A8009E05A
:101000000F4B1A880F4B1B685A630F4B1A880D4BF6
:101010001B689A6300F046FF0346084A12889B1A31
:101020000A4A12889342EBD3B0E700BF3801002090
:101030005CA00008000002400C020020B603002063
:10104000020000209C020020040000203A01002041
:1010500080B584B002AF7860274B1B78022B03D099
:10106000642005F045FAF7E7244A1E21002008F025
:1010700013FA00220421224801F054FA0122082127
:101080001F4801F04FFA002220211D4801F04AFAC2
:10109000012210211A4801F045FA1A4B1B686922F7
:1010A0001A644FF4967000F009FF164B1B681A6C17
:1010B0000C23009305233221002008F07FF900F073
:1010C000F1FE03469AB2104B1A8009E00F4B1A88C2
:1010D0000F4B1B685A630F4B1A880D4B1B689A63A2
:1010E00000F0E0FE0346084A12889B1A0A4A12885A
:1010F0009342EBD3B0E700BF380100205CA00008AA
:10110000000002400C020020B60300200200002074
:101110009C020020040000203A01002080B584B029
:1011200002AF7860274B1B78032B03D0642005F0B7
:10113000DFF9F7E7244A1E21002008F0ADF900226C
:101140000421224801F0EEF9012208211F4801F094
:10115000E9F9002220211D4801F0E4F901221021C3
:101160001A4801F0DFF91A4B1B68D2221A644FF4B7
:10117000967000F0A3FE164B1B681A6C0C230093AC
:1011800005233221002008F019F900F08BFE0346F8
:101190009AB2104B1A8009E00F4B1A880F4B1B684C
:1011A0005A630F4B1A880D4B1B689A6300F07AFE46
:1011B0000346084A12889B1A0A4A12889342EBD3C4
:1011C000B0E700BF380100205CA00008000002402A
:1011D0000C020020B6030020020000209C02002028
:1011E000040000203A01002080B584B002AF78608E
:1011F000274B1B78042B03D0642005F079F9F7E71F
:10120000244A1E21002008F047F901220421224827
:1012100001F088F9002208211F4801F083F901221A
:1012200020211D4801F07EF9002210211A4801F00A
:1012300079F91A4B1B6869221A644FF4967000F012
:101240003DFE164B1B681A6C0C23009305233221BC
:10125000002008F0B3F800F025FE03469AB2104BC8
:101260001A8009E00F4B1A880F4B1B685A630F4B0B
:101270001A880D4B1B689A6300F014FE0346084A57
:1012800012889B1A0A4A12889342EBD3B0E700BF38
:10129000380100205CA00008000002400C02002081
:1012A000B6030020020000209C0200200400002061
:1012B0003A01002080B584B002AF7860274B1B78DC
:1012C000052B03D0642005F013F9F7E7244A1E210B
:1012D000002008F0E1F801220421224801F022F95F
:1012E000002208211F4801F01DF9012220211D487C
:1012F00001F018F9002210211A4801F013F91A4BD5
:101300001B68D2221A644FF4967000F0D7FD164B7A
:101310001B681A6C0C23009305233221002008F06F
:101320004DF800F0BFFD03469AB2104B1A8009E059
:101330000F4B1A880F4B1B685A630F4B1A880D4BC3
:101340001B689A6300F0AEFD0346084A12889B1A98
:101350000A4A12889342EBD3B0E700BF380100205D
:101360005CA00008000002400C020020B603002030
:10137000020000209C020020040000203A0100200E
:1013800080B582B000AF7860012005F0B1F8FBE7CE
:1013900080B582B000AF7860012005F0A9F8FBE7C6
:1013A00080B582B000AF7860C64B1B78013B632BE1
:1013B00000F2578201A252F823F000BF4D15000839
:1013C0004D15000869150008691500086915000821
:1013D0006915000839170008471700085517000855
:1013E00063170008711700087117000863180008D8
:1013F00063180008631800086318000863180008E1
:1014000063180008631800086318000863180008D0
:1014100063180008631800086318000863180008C0
:1014200063180008631800086318000863180008B0
:1014300063180008631800086318000863180008A0
:101440006318000863180008631800086318000890
:101450006318000863180008631800086318000880
:101460006318000863180008631800086318000870
:101470006318000863180008631800086318000860
:101480006318000863180008631800086318000850
:101490006318000863180008631800086318000840
:1014A0006318000863180008631800086318000830
:1014B0006318000863180008631800086318000820
:1014C0006318000863180008631800086318000810
:1014D0006318000863180008631800086318000800
:1014E00063180008631800086318000863180008F0
:1014F00063180008631800086318000863180008E0
:1015000063180008631800086318000863180008CF
:101510006318000863180008B9170008B917000815
:1015200063180008631800086318000863180008AF
:10153000631800086318000863180008631800089F
:101540006318000863180008631800085D4B1B78D7
:10155000012B14BF01230023DBB21A465A4B1A7029
:10156000584B63221A707DE1564B1B78574A1B017A
:1015700013440433D3ED007A9FED557AF4EEC77A25
:10158000F1EE10FA01DDD2231CE04E4B1B784F4ADE
:101590001B0113440433D3ED007A9FED4E7AF4EE31
:1015A000C77AF1EE10FA01D569230BE0454B1B78A1
:1015B000464A1B0113440433D3ED007AFCEEE77A6C
:1015C00017EE903A444A126813644FF4967004F090
:1015D0008FFF3C4B1B783D4A1B01134408331B68AB
:1015E0003E4A1360374B1B78384A1B0113440C33B7
:1015F0001B78002B0CBF01230023DBB21A46042109
:10160000374800F08FFF2F4B1B78304A1B011344E3
:101610000C331B78002B14BF01230023DBB21A46C6
:1016200008212F4800F07EFF264B1B78274A1B011C
:1016300013440C331B78002B0CBF01230023DBB2B7
:101640001A462021264800F06DFF1E4B1B781F4ACA
:101650001B0113440C331B78002B14BF0123002300
:10166000DBB21A4610211E4800F05CFF154B1B78B8
:10167000164A1B0113441A881A4B1B685A63114BF4
:101680001B78124A1B01134402331A88154B1B683E
:101690009A63154B1A78144B5B789A422ED1094BFA
:1016A00064221A70074B00225A80104A0F211048FA
:1016B00007F0B0FF4FF6FF7306220E490E4803F005
:1016C000CCFD35E094030020380100200800002004
:1016D000000052430000D2420C020020A803002068
:1016E000000002409C0200206003002060A000086F
:1016F0009803002068A00008E40200205B4B5B78A0
:101700005B4A5A499B000B445B681360574B5B78FC
:101710000133564A927893FBF2F101FB02F29B1AD5
:10172000DAB2524B5A70534A0F21534807F072FFF6
:101730004F4B63221A7095E0504B02221A704C4BAB
:1017400063221A708EE04D4B03221A70484B6322BD
:101750001A7087E0494B04221A70454B63221A70B5
:1017600080E0464B05221A70414B63221A7079E0E3
:101770003F4B1B780B2B04D0414B1B68D2221A64C1
:1017800003E03F4B1B6869221A644FF4967000F027
:1017900095FB374B64221A70354B00225A80394A28
:1017A0000F21354807F036FF4FF6FF730622364902
:1017B000364803F052FD55E02D4B1B78582B04D0D2
:1017C0002F4B1B68D2221A6403E02D4B1B68692241
:1017D0001A644FF4967000F071FB002204212C482B
:1017E00000F0A0FE01220821294800F09BFE002203
:1017F0002021274800F096FE01221021244800F005
:1018000091FE1B4B1B78582B13D1194B5B8807EEAD
:10181000903AF8EE677A1F4BC3ED007A1E4B1B68B7
:101820004FF448725A631C4B1B684FF496629A63DC
:1018300013E00F4B5B885B4207EE903AF8EEE77AD5
:10184000144BC3ED007A144B1B684FF496625A6335
:10185000114B1B684FF448729A63054B63221A7050
:1018600000E000BF012004F043FE9DE5600300207E
:101870009403002070A00008980300203801002085
:101880000C02002060A0000868A00008E40200200C
:1018900000000240A80300209C02002080B582B016
:1018A00000AF78607B681B68044A934201D100F066
:1018B000E5FA00BF0837BD4680BD00BF0008004004
:1018C00080B400AF72B600BFFEE7000080B582B002
:1018D00000AF00237B60124B5B6C114A43F48043E2
:1018E00053640F4B5B6C03F480437B607B68002385
:1018F0003B600B4B1B6C0A4A43F080531364084B4C
:101900001B6C03F080533B603B6800220F216FF09B
:10191000010000F0AFFB00BF0837BD4680BD00BF2F
:101920000038024080B58AB000AF786007F1140338
:1019300000221A605A609A60DA601A617B681B683C
:10194000194A93422CD100233B61184B1B6B174A59
:1019500043F002031363154B1B6B03F002033B615F
:101960003B694FF440737B611223BB610023FB6131
:1019700003233B6204237B6207F1140319460C48DE
:1019800000F034FC0023FB60084B1B6C074A43F457
:1019900000131364054B1B6C03F40013FB60FB681E
:1019A00000BF2837BD4680BD0054004000380240CB
:1019B0000004024080B58AB000AF786007F11403DC
:1019C00000221A605A609A60DA601A617B681B68AC
:1019D000234A93420ED100233B61224B5B6C214A88
:1019E00043F0010353641F4B5B6C03F001033B6145
:1019F0003B6930E07B681B681B4A93422BD1002374
:101A0000FB60184B5B6C174A43F002035364154BA1
:101A10005B6C03F00203FB60FB680023BB60114BAF
:101A20001B6B104A43F0040313630E4B1B6B03F054
:101A30000403BB60BB68C0237B610223BB6100233E
:101A4000FB6100233B6203237B6207F11403194609
:101A5000064800F0CBFB00BF2837BD4680BD00BF65
:101A6000000001400038024000040140000802402C
:101A700080B58AB000AF786007F1140300221A60C5
:101A80005A609A60DA601A617B681B68B3F1804F14
:101A90004AD100233B61264B1B6C254A43F00103CE
:101AA0001364234B1B6C03F001033B613B69002370
:101AB000FB601F4B1B6B1E4A43F0010313631C4B5F
:101AC0001B6B03F00103FB60FB680023BB60184B3A
:101AD0001B6B174A43F002031363154B1B6B03F098
:101AE0000203BB60BB684FF400437B610223BB6110
:101AF0000023FB6100233B6201237B6207F1140397
:101B000019460C4800F072FB08237B610223BB617D
:101B10000023FB6100233B6201237B6207F1140376
:101B20001946054800F062FB00BF2837BD4680BD5E
:101B300000380240000002400004024080B588B036
:101B400000AF786007F10C0300221A605A609A60B7
:101B5000DA601A617B681B68124A93421ED1002327
:101B6000BB60114B1B6B104A43F0100313630E4B09
:101B70001B6B03F01003BB60BB684FF48043FB603A
:101B800002233B6100237B610023BB610123FB61D6
:101B900007F10C031946054800F028FB00BF203769
:101BA000BD4680BD000001400038024000100240E8
:101BB00080B58AB000AF786007F1140300221A6084
:101BC0005A609A60DA601A617B681B681D4A93420A
:101BD00034D100233B611C4B1B6C1B4A43F4802314
:101BE0001364194B1B6C03F480233B613B69002396
:101BF000FB60154B1B6B144A43F004031363124B39
:101C00001B6B03F00403FB60FB684FF440637B61D4
:101C10000223BB610023FB6103233B6207237B623A
:101C200007F114031946094800F0E0FA00220521E3
:101C3000272000F01FFA272000F038FA00BF2837CD
:101C4000BD4680BD00480040003802400008024008
:101C500080B58CB000AF78600023FB620023BB62CC
:101C6000002279681E2000F005FA1E2000F01EFAFE
:101C70000023FB601E4B1B6C1D4A43F004031364DE
:101C80001B4B1B6C03F00403FB60FB6807F11002A5
:101C900007F114031146184602F09EF802F074F89A
:101CA000F862FB6A134AA2FB03239B0C013BBB6255
:101CB000114B124A1A60104B40F2E732DA600E4ABA
:101CC000BB6A53600C4B00221A610B4B00229A60D6
:101CD000094802F0B3F80346002B04D1064802F08D
:101CE000FDF8034600E0012318463037BD4680BDAD
:101CF0000038024083DE1B43B80300200008004088
:101D000080B400AFFEE780B400AFFEE780B400AF60
:101D1000FEE780B400AFFEE780B400AFFEE780B41A
:101D200000AF00BFBD465DF8047B704780B500AFD3
:101D3000024802F099FB00BF80BD00BFB80300203D
:101D400080B500AF024803F04BFB00BF80BD00BF71
:101D5000E402002080B586B000AF7860144A154BCD
:101D6000D31A7B617B693B61134B1B68002B02D14B
:101D7000114B124A1A60104B1A687B6813443A6977
:101D80009A4207D207F0A2FC03460C221A604FF0D9
:101D9000FF3309E0084B1B68FB60074B1A687B6840
:101DA0001344054A1360FB6818461837BD4680BDCA
:101DB000000002200004000000040020A0520020C7
:101DC00080B400AF064BD3F88830054A43F4700363
:101DD000C2F8883000BFBD465DF8047B704700BF85
:101DE00000ED00E0DFF834D00D480E490E4A002324
:101DF00002E0D458C4500433C4188C42F9D30B4ABF
:101E00000B4C002301E013600432A242FBD3FFF726
:101E1000D7FF07F061FCFEF7A9FB70470000022026
:101E2000000000209C010020DCAC00089C01002088
:101E3000A0520020FEE7000080B500AF0E4B1B68EB
:101E40000D4A43F4007313600B4B1B680A4A43F4BA
:101E500080631360084B1B68074A43F48073136068
:101E6000032000F0FCF80F20FFF7F2FEFFF72EFD35
:101E70000023184680BD00BF003C024080B400AF84
:101E8000064B1B781A46064B1B681344044A136022
:101E900000BFBD465DF8047B704700BF44010020D1
:101EA0000404002080B400AF034B1B681846BD46F5
:101EB0005DF8047B704700BF0404002080B584B047
:101EC00000AF7860FFF7EEFFB8607B68FB60FB68EF
:101ED000B3F1FF3F05D00A4B1B781A46FB68134449
:101EE000FB6000BFFFF7DEFF0246BB68D31AFA684B
:101EF0009A42F7D800BF00BF1037BD4680BD00BF73
:101F00004401002080B485B000AF78607B6803F0A6
:101F10000703FB600C4BDB68BB60BA684FF6FF033E
:101F20001340BB60FB681A02BB68134343F0BF63F6
:101F300043F40033BB60044ABB68D36000BF14376E
:101F4000BD465DF8047B704700ED00E080B400AF53
:101F5000044BDB681B0A03F007031846BD465DF817
:101F6000047B704700ED00E080B483B000AF03460F
:101F7000FB7197F90730002B0BDBFB7903F01F0295
:101F8000074997F907305B09012000FA02F241F88E
:101F9000232000BF0C37BD465DF8047B704700BFAF
:101FA00000E100E080B483B000AF03463960FB710C
:101FB00097F90730002B0ADB3B68DAB20C4997F936
:101FC00007301201D2B20B4483F800230AE03B68C9
:101FD000DAB20849FB7903F00F03043B1201D2B2D5
:101FE0000B441A7600BF0C37BD465DF8047B704782
:101FF00000E100E000ED00E080B489B000AFF860DF
:10200000B9607A60FB6803F00703FB61FB69C3F109
:102010000703042B28BF0423BB61FB690433062B91
:1020200002D9FB69033B00E000237B614FF0FF32E4
:10203000BB6902FA03F3DA43BB681A407B699A4032
:102040004FF0FF317B6901FA03F3D9437B680B4002
:10205000134318462437BD465DF8047B704780B5AE
:1020600082B000AF78607868FFF74CFF00BF083798
:10207000BD4680BD80B586B000AF0346B9607A60CA
:10208000FB7300237B61FFF761FF78617A68B968B1
:102090007869FFF7B1FF024697F90F3011461846ED
:1020A000FFF780FF00BF1837BD4680BD80B582B006
:1020B00000AF0346FB7197F907301846FFF754FF4E
:1020C00000BF0837BD4680BD80B584B000AF7860E2
:1020D0007B689B6DFB60FFF7E5FEB8607B6893F85B
:1020E0003530DBB2022B08D07B6880225A657B68D2
:1020F000002283F83420012352E07B681B681A68B1
:102100007B681B6822F016021A607B681B685A699C
:102110007B681B6822F080025A617B681B6C002B75
:1021200003D17B689B6C002B07D07B681B681A6807
:102130007B681B6822F008021A607B681B681A68BB
:102140007B681B6822F001021A6013E0FFF7AAFE09
:102150000246BB68D31A052B0CD97B6820225A652E
:102160007B68032283F835207B68002283F83420C3
:10217000032315E07B681B681B6803F00103002B39
:10218000E4D17B68DB6D3F229A40FB689A607B68F4
:10219000012283F835207B68002283F83420002355
:1021A00018461037BD4680BD80B483B000AF78605C
:1021B0007B6893F83530DBB2022B04D07B68802239
:1021C0005A6501230CE07B68052283F835207B6883
:1021D0001B681A687B681B6822F001021A600023E2
:1021E00018460C37BD465DF8047B704780B489B053
:1021F00000AF7860396000237B6100233B610023DE
:10220000BB610023FB616BE10122FB6902FA03F36E
:102210007B613B681B687A6913403B613A697B6963
:102220009A4240F05A813B685B6803F00303012B3C
:1022300005D03B685B6803F00303022B30D17B6859
:102240009B68BB61FB695B00032202FA03F3DB437B
:10225000BA691340BB613B68DA68FB695B0002FA4C
:1022600003F3BA691343BB617B68BA699A607B6800
:102270005B68BB610122FB6902FA03F3DB43BA69C5
:102280001340BB613B685B681B0903F00102FB69FB
:1022900002FA03F3BA691343BB617B68BA695A60F7
:1022A0003B685B6803F00303032B17D07B68DB6894
:1022B000BB61FB695B00032202FA03F3DB43BA69EB
:1022C0001340BB613B689A68FB695B0002FA03F349
:1022D000BA691343BB617B68BA69DA603B685B68C3
:1022E00003F00303022B23D1FB69DA087B68083271
:1022F00053F82230BB61FB6903F007039B000F22F8
:1023000002FA03F3DB43BA691340BB613B681A6905
:10231000FB6903F007039B0002FA03F3BA69134356
:10232000BB61FB69DA087B680832B96943F822109F
:102330007B681B68BB61FB695B00032202FA03F345
:10234000DB43BA691340BB613B685B6803F003027F
:10235000FB695B0002FA03F3BA691343BB617B6854
:10236000BA691A603B685B6803F44033002B00F0E5
:10237000B4800023FB60604B5B6C5F4A43F4804396
:1023800053645D4B5B6C03F48043FB60FB685B4A0A
:10239000FB699B08023352F82330BB61FB6903F0F1
:1023A00003039B000F2202FA03F3DB43BA691340D5
:1023B000BB617B68524A93422BD07B68514A93425F
:1023C00025D07B68504A93421FD07B684F4A934286
:1023D00019D07B684E4A934213D07B684D4A934292
:1023E0000DD07B684C4A934207D07B684B4A93429E
:1023F00001D107230EE008230CE006230AE00523A1
:1024000008E0042306E0032304E0022302E00123A2
:1024100000E00023FA6902F0030292009340BA69D7
:102420001343BB613549FB699B080233BA6941F824
:1024300023203B4B9B68BB613B69DB43BA6913407C
:10244000BB613B685B6803F48013002B03D0BA695F
:102450003B691343BB61324ABB699360304BDB6815
:10246000BB613B69DB43BA691340BB613B685B6896
:1024700003F40013002B03D0BA693B691343BB611B
:10248000274ABB69D360264B5B68BB613B69DB4372
:10249000BA691340BB613B685B6803F40033002BEF
:1024A00003D0BA693B691343BB611D4ABB695360E2
:1024B0001B4B1B68BB613B69DB43BA691340BB61C3
:1024C0003B685B6803F48033002B03D0BA693B6937
:1024D0001343BB61124ABB691360FB690133FB61A3
:1024E000FB690F2B7FF690AE00BF00BF2437BD46BF
:1024F0005DF8047B704700BF00380240003801409F
:10250000000002400004024000080240000C0240AB
:10251000001002400014024000180240001C02405B
:10252000003C014080B483B000AF78600B467B80F4
:1025300013467B707B78002B03D07A887B689A6186
:1025400003E07B881A047B689A6100BF0C37BD46A4
:102550005DF8047B7047000080B584B000AF786000
:102560007B68002B01D101232BE17B6893F83D3080
:10257000DBB2002B06D17B68002283F83C20786810
:10258000FFF7D0F97B68242283F83D207B681B6825
:102590001A687B681B6822F001021A607B681B685E
:1025A0001A687B681B6842F400421A607B681B68EB
:1025B0001A687B681B6822F400421A6001F0E4FB91
:1025C000F8607B685B68814A934207D8FB68804A61
:1025D000934294BF01230023DBB206E0FB687D4AEF
:1025E000934294BF01230023DBB2002B01D00123CF
:1025F000E7E0FB68784AA2FB03239B0CBB607B6887
:102600001B685B6823F03F017B681B68BA680A435C
:102610005A607B681B681B6A23F03F017B685B681C
:102620006A4A934202D8BB68013309E0BB684FF4A1
:10263000967202FB03F3694AA2FB03239B09013351
:102640007A6812680B4313627B681B68DB6923F4AA
:102650004F4222F0FF027B685B685C498B4219D8CD
:10266000FB68591E7B685B685B00B1FBF3F3591C88
:1026700040F6FC730B40002B0AD0FB68591E7B68A8
:102680005B685B00B1FBF3F30133C3F30B0351E071
:1026900004234FE07B689B68002B11D1FB68581E18
:1026A0007B6859680B465B000B44B0FBF3F30133C6
:1026B000C3F30B03002B0CBF01230023DBB212E09A
:1026C000FB68581E7B6859680B469B000B449900B9
:1026D0000B44B0FBF3F30133C3F30B03002B0CBF2C
:1026E00001230023DBB2002B01D0012322E07B6811
:1026F0009B68002B0ED1FB68581E7B6859680B46FF
:102700005B000B44B0FBF3F30133C3F30B0343F45F
:1027100000430FE0FB68581E7B6859680B469B001E
:102720000B4499000B44B0FBF3F30133C3F30B03E9
:1027300043F44043796809681343CB617B681B68A5
:102740001B6823F0C0017B68DA697B681B6A1A4347
:102750007B681B680A431A607B681B689B6823F4CC
:10276000034323F0FF037A6811697A68D268114342
:102770007A6812680B4393607B681B68DB6823F000
:10278000FF017B685A697B689B691A437B681B68F9
:102790000A43DA607B681B681A687B681B6842F032
:1027A00001021A607B6800221A647B68202283F889
:1027B0003D207B6800221A637B68002283F83E205C
:1027C000002318461037BD4680BD00BFA08601001B
:1027D0007F841E00FF083D0083DE1B43D34D621043
:1027E00080B588B002AFF860084611461A46034625
:1027F0007B810B463B811346FB80FFF753FB7861DF
:10280000FB6893F83D30DBB2202B40F0D9807B6928
:102810000093192301226D49F86800F07FFC0346FC
:10282000002B01D00223CCE0FB6893F83C30012B55
:1028300001D10223C5E0FB68012283F83C20FB683C
:102840001B681B6803F00103012B07D0FB681B68A2
:102850001A68FB681B6842F001021A60FB681B687B
:102860001A68FB681B6822F400621A60FB68212268
:1028700083F83D20FB68402283F83E20FB6800225D
:102880001A64FB683A6A5A62FB68BA8C5A85FB681C
:102890005B8D9AB2FB681A85FB684D4ADA62F8884C
:1028A0003A8979897B690193BB6A00930346F8688A
:1028B00000F0B6FA0346002B52D0012381E07A697A
:1028C000B96AF86800F000FD0346002B0DD0FB68E4
:1028D0001B6C042B07D1FB681B681A68FB681B681C
:1028E00042F400721A6001236BE0FB685B6A1A789D
:1028F000FB681B681A61FB685B6A5A1CFB685A62BA
:10290000FB681B8D013B9AB2FB681A85FB685B8DE7
:102910009BB2013B9AB2FB685A85FB681B685B69F6
:1029200003F00403042B1BD1FB681B8D002B17D075
:10293000FB685B6A1A78FB681B681A61FB685B6A54
:102940005A1CFB685A62FB681B8D013B9AB2FB68FC
:102950001A85FB685B8D9BB2013B9AB2FB685A8576
:10296000FB681B8D002BAAD17A69B96AF86800F060
:10297000ECFC0346002B0DD0FB681B6C042B07D12D
:10298000FB681B681A68FB681B6842F400721A60D7
:10299000012316E0FB681B681A68FB681B6842F499
:1029A00000721A60FB68202283F83D20FB68002239
:1029B00083F83E20FB68002283F83C20002300E0DF
:1029C000022318461837BD4680BD00BF0200100024
:1029D0000000FFFF80B58CB002AFF86008461146DA
:1029E0001A4603467B810B463B811346FB80FFF76B
:1029F00059FA7862FB6893F83D30DBB2202B40F047
:102A000008827B6A0093192301227B49F86800F051
:102A100085FB0346002B01D00223FBE1FB6893F802
:102A20003C30012B01D10223F4E1FB68012283F841
:102A30003C20FB681B681B6803F00103012B07D0D7
:102A4000FB681B681A68FB681B6842F001021A6089
:102A5000FB681B681A68FB681B6822F400621A6036
:102A6000FB68222283F83D20FB68402283F83E2049
:102A7000FB6800221A64FB683A6B5A62FB68BA8EE4
:102A80005A85FB685B8D9AB2FB681A85FB685B4AC6
:102A9000DA62F8883A8979897B6A0193BB6B009383
:102AA0000346F86800F052FA0346002B01D00123D8
:102AB000B0E1FB681B8D002B13D100233B62FB6848
:102AC0001B685B693B62FB681B689B693B623B6AF6
:102AD000FB681B681A68FB681B6842F400721A6086
:102AE00084E1FB681B8D012B1BD1FB681B681A68F6
:102AF000FB681B6822F480621A600023FB61FB689C
:102B00001B685B69FB61FB681B689B69FB61FB6978
:102B1000FB681B681A68FB681B6842F400721A6045
:102B200064E1FB681B8D022B1BD1FB681B681A68D4
:102B3000FB681B6822F480621A60FB681B681A68D5
:102B4000FB681B6842F400621A600023BB61FB68EB
:102B50001B685B69BB61FB681B689B69BB61BB69E8
:102B600044E100237B61FB681B685B697B61FB6858
:102B70001B689B697B617B6938E1FB681B8D032BBC
:102B800000F2F180FB681B8D012B23D17A6AB96BAF
:102B9000F86800F01BFC0346002B01D0012339E14B
:102BA000FB681B681A69FB685B6AD2B21A70FB6823
:102BB0005B6A5A1CFB685A62FB681B8D013B9AB228
:102BC000FB681A85FB685B8D9BB2013B9AB2FB6880
:102BD0005A850BE1FB681B8D022B4ED17B6A00935B
:102BE000BB6B00220649F86800F098FA0346002BF8
:102BF00008D001230EE100BF020010000000FFFF1B
:102C000004000100FB681B681A68FB681B6842F43B
:102C100000721A60FB681B681A69FB685B6AD2B2B3
:102C20001A70FB685B6A5A1CFB685A62FB681B8D52
:102C3000013B9AB2FB681A85FB685B8D9BB2013B36
:102C40009AB2FB685A85FB681B681A69FB685B6A65
:102C5000D2B21A70FB685B6A5A1CFB685A62FB6846
:102C60001B8D013B9AB2FB681A85FB685B8D9BB29A
:102C7000013B9AB2FB685A85B8E07B6A0093BB6B54
:102C800000226649F86800F049FA0346002B01D09B
:102C90000123BFE0FB681B681A68FB681B6822F40D
:102CA00080621A60FB681B681A69FB685B6AD2B2B3
:102CB0001A70FB685B6A5A1CFB685A62FB681B8DC2
:102CC000013B9AB2FB681A85FB685B8D9BB2013BA6
:102CD0009AB2FB685A857B6A0093BB6B00224F490E
:102CE000F86800F01BFA0346002B01D0012391E0A5
:102CF000FB681B681A68FB681B6842F400721A6064
:102D0000FB681B681A69FB685B6AD2B21A70FB68C1
:102D10005B6A5A1CFB685A62FB681B8D013B9AB2C6
:102D2000FB681A85FB685B8D9BB2013B9AB2FB681E
:102D30005A85FB681B681A69FB685B6AD2B21A7015
:102D4000FB685B6A5A1CFB685A62FB681B8D013B7F
:102D50009AB2FB681A85FB685B8D9BB2013B9AB205
:102D6000FB685A8542E07A6AB96BF86800F02EFB7E
:102D70000346002B01D001234CE0FB681B681A6955
:102D8000FB685B6AD2B21A70FB685B6A5A1CFB680C
:102D90005A62FB681B8D013B9AB2FB681A85FB687F
:102DA0005B8D9BB2013B9AB2FB685A85FB681B683E
:102DB0005B6903F00403042B18D1FB681B681A69D4
:102DC000FB685B6AD2B21A70FB685B6A5A1CFB68CC
:102DD0005A62FB681B8D013B9AB2FB681A85FB683F
:102DE0005B8D9BB2013B9AB2FB685A85FB681B8DD9
:102DF000002B7FF4C2AEFB68202283F83D20FB68E5
:102E0000002283F83E20FB68002283F83C20002348
:102E100000E0022318462837BD4680BD04000100AB
:102E200080B588B002AFF860084611461A460346DE
:102E30007B810B463B811346FB80FB681B681A684D
:102E4000FB681B6842F480721A607B6A00933B6ADD
:102E500000224FF00111F86800F060F90346002BE2
:102E60000DD0FB681B681B6803F48073B3F5807F8B
:102E700003D1FB684FF400721A6403235FE07B897F
:102E8000DBB21A46FB681B6802F0FE021A617B6A1D
:102E90003A6A2D49F86800F098F90346002B01D0F2
:102EA00001234CE000237B61FB681B685B697B614D
:102EB000FB681B689B697B617B697A6A396AF86881
:102EC00000F002FA0346002B0DD0FB681B6C042BAC
:102ED00007D1FB681B681A68FB681B6842F4007224
:102EE0001A6001232BE0FB88012B05D13B89DAB264
:102EF000FB681B681A6121E03B891B0A9BB2DAB2AE
:102F0000FB681B681A617A6A396AF86800F0DCF9B4
:102F10000346002B0DD0FB681B6C042B07D1FB680C
:102F20001B681A68FB681B6842F400721A60012370
:102F300005E03B89DAB2FB681B681A61002318467A
:102F40001837BD4680BD00BF0200010080B588B0C3
:102F500002AFF860084611461A4603467B810B46CD
:102F60003B811346FB80FB681B681A68FB681B6883
:102F700042F480621A60FB681B681A68FB681B6871
:102F800042F480721A607B6A00933B6A00224FF021
:102F90000111F86800F0C2F80346002B0DD0FB6861
:102FA0001B681B6803F48073B3F5807F03D1FB6853
:102FB0004FF400721A640323AAE07B89DBB21A463D
:102FC000FB681B6802F0FE021A617B6A3A6A52498A
:102FD000F86800F0FAF80346002B01D0012397E0CF
:102FE00000237B61FB681B685B697B61FB681B6876
:102FF0009B697B617B697A6A396AF86800F064F9D9
:103000000346002B0DD0FB681B6C042B07D1FB681B
:103010001B681A68FB681B6842F400721A6001237F
:1030200076E0FB88012B05D13B89DAB2FB681B688F
:103030001A6121E03B891B0A9BB2DAB2FB681B686C
:103040001A617A6A396AF86800F03EF90346002B83
:103050000DD0FB681B6C042B07D1FB681B681A683A
:10306000FB681B6842F400721A60012350E03B8940
:10307000DAB2FB681B681A617A6A396AF86800F08C
:1030800023F90346002B0DD0FB681B6C042B07D1E2
:10309000FB681B681A68FB681B6842F400721A60C0
:1030A000012335E0FB681B681A68FB681B6842F463
:1030B00080721A607B6A00933B6A00224FF0011114
:1030C000F86800F02BF80346002B0DD0FB681B6856
:1030D0001B6803F48073B3F5807F03D1FB684FF462
:1030E00000721A64032313E07B89DBB243F001030F
:1030F000DAB2FB681B681A617B6A3A6A0649F868AB
:1031000000F063F80346002B01D0012300E0002308
:1031100018461837BD4680BD0200010080B584B056
:1031200000AFF860B9603B601346FB7125E03B6877
:10313000B3F1FF3F21D0FEF7B5FE0246BB69D31ABB
:103140003A689A4202D33B68002B16D1FB680022F2
:103150001A63FB68202283F83D20FB68002283F875
:103160003E20FB681B6C43F02002FB681A64FB687E
:10317000002283F83C20012323E0BB681B0CDBB258
:10318000012B0DD1FB681B685B69DA43BB681340F8
:103190009BB2002B0CBF01230023DBB21A460CE0CC
:1031A000FB681B689B69DA43BB6813409BB2002B2A
:1031B0000CBF01230023DBB21A46FB799A42B6D03A
:1031C000002318461037BD4680BD80B584B000AFDF
:1031D000F860B9607A603B6051E0FB681B685B692E
:1031E00003F48063B3F5806F23D1FB681B681A6812
:1031F000FB681B6842F400721A60FB681B686FF47E
:1032000080625A61FB6800221A63FB68202283F8FF
:103210003D20FB68002283F83E20FB681B6C43F0D6
:103220000402FB681A64FB68002283F83C20012337
:1032300046E07B68B3F1FF3F21D0FEF733FE024644
:103240003B68D31A7A689A4202D37B68002B16D166
:10325000FB6800221A63FB68202283F83D20FB688C
:10326000002283F83E20FB681B6C43F02002FB68C1
:103270001A64FB68002283F83C20012320E0BB682D
:103280001B0CDBB2012B0CD1FB681B685B69DA43BA
:10329000BB6813409BB2002B14BF01230023DBB299
:1032A0000BE0FB681B689B69DA43BB6813409BB269
:1032B000002B14BF01230023DBB2002B8DD1002390
:1032C00018461037BD4680BD80B584B000AFF860A9
:1032D000B9607A602DE0F86800F0CEF80346002B64
:1032E00001D001232DE0BB68B3F1FF3F21D0FEF7F1
:1032F000D9FD02467B68D31ABA689A4202D3BB68EA
:10330000002B16D1FB6800221A63FB68202283F889
:103310003D20FB68002283F83E20FB681B6C43F0D5
:103320002002FB681A64FB68002283F83C2001231A
:1033300007E0FB681B685B6903F08003802BCAD140
:10334000002318461037BD4680BD80B584B000AF5D
:10335000F860B9607A602DE0F86800F08DF80346F7
:10336000002B01D001232DE0BB68B3F1FF3F21D03A
:10337000FEF798FD02467B68D31ABA689A4202D3D8
:10338000BB68002B16D1FB6800221A63FB68202261
:1033900083F83D20FB68002283F83E20FB681B6C0D
:1033A00043F02002FB681A64FB68002283F83C208B
:1033B000012307E0FB681B685B6903F00403042B2F
:1033C000CAD1002318461037BD4680BD80B584B0F1
:1033D00000AFF860B9607A6042E0FB681B685B6927
:1033E00003F01003102B19D1FB681B686FF010025B
:1033F0005A61FB6800221A63FB68202283F83D2093
:10340000FB68002283F83E20FB681A6CFB681A6494
:10341000FB68002283F83C20012329E0FEF742FDEF
:1034200002467B68D31ABA689A4202D3BB68002B63
:1034300016D1FB6800221A63FB68202283F83D2026
:10344000FB68002283F83E20FB681B6C43F02002DF
:10345000FB681A64FB68002283F83C20012307E024
:10346000FB681B685B6903F04003402BB5D1002368
:1034700018461037BD4680BD80B483B000AF786079
:103480007B681B685B6903F48063B3F5806F1BD1B5
:103490007B681B686FF480625A617B6800221A6344
:1034A0007B68202283F83D207B68002283F83E2041
:1034B0007B681B6C43F004027B681A647B68002203
:1034C00083F83C20012300E0002318460C37BD465A
:1034D0005DF8047B7047000080B483B000AF064BFA
:1034E00001221A60054B1B687B607B6800BF0C37AC
:1034F000BD465DF8047B704720000E42007000401E
:1035000080B483B000AF064B00221A60054B1B68E5
:103510007B607B6800BF0C37BD465DF8047B70475D
:1035200020000E420070004080B586B000AF786089
:103530007B68002B01D1012367E27B681B6803F0E5
:103540000103002B75D0884B9B6803F00C03042B00
:103550000CD0854B9B6803F00C03082B12D1824BD7
:103560005B6803F48003B3F5800F0BD17E4B1B68BF
:1035700003F40033002B5BD07B685B68002B57D1D2
:10358000012342E27B685B68B3F5803F06D1764B4E
:103590001B68754A43F4803313601DE07B685B68E9
:1035A000B3F5A02F0CD1704B1B686F4A43F48023F6
:1035B00013606D4B1B686C4A43F4803313600BE05F
:1035C000694B1B68684A23F480331360664B1B68A1
:1035D000654A23F4802313607B685B68002B13D05B
:1035E000FEF760FC386108E0FEF75CFC02463B69D0
:1035F000D31A642B01D9032307E25B4B1B6803F446
:103600000033002BF0D014E0FEF74CFC386108E0EA
:10361000FEF748FC02463B69D31A642B01D9032309
:10362000F3E1514B1B6803F40033002BF0D100E0B1
:1036300000BF7B681B6803F00203002B63D04A4B7A
:103640009B6803F00C03002B0BD0474B9B6803F0E7
:103650000C03082B1CD1444B5B6803F48003002B44
:1036600016D1414B1B6803F00203002B05D07B6889
:10367000DB68012B01D00123C7E13B4B1B6823F022
:10368000F8027B681B69DB00374913430B603AE0A3
:103690007B68DB68002B20D0344B01221A60FEF7D8
:1036A00001FC386108E0FEF7FDFB02463B69D31AD6
:1036B000022B01D90323A8E12B4B1B6803F0020363
:1036C000002BF0D0284B1B6823F0F8027B681B69A5
:1036D000DB00254913430B6015E0244B00221A60E0
:1036E000FEF7E0FB386108E0FEF7DCFB02463B69D1
:1036F000D31A022B01D9032387E11B4B1B6803F06C
:103700000203002BF0D17B681B6803F00803002B39
:1037100036D07B685B69002B16D0154B01221A60EE
:10372000FEF7C0FB386108E0FEF7BCFB02463B69D0
:10373000D31A022B01D9032367E10B4B5B6F03F014
:103740000203002BF0D01BE0094B00221A60FEF7A9
:10375000A9FB38610EE0FEF7A5FB02463B69D31AD0
:10376000022B07D9032350E10038024000004742F2
:10377000800E4742884B5B6F03F00203002BEAD1B7
:103780007B681B6803F00403002B00F09780002384
:10379000FB75814B1B6C03F08053002B0FD1002372
:1037A000BB607D4B1B6C7C4A43F0805313647A4BA7
:1037B0001B6C03F08053BB60BB680123FB75774B28
:1037C0001B6803F48073002B18D1744B1B68734A79
:1037D00043F480731360FEF765FB386108E0FEF781
:1037E00061FB02463B69D31A022B01D903230CE18A
:1037F0006A4B1B6803F48073002BF0D07B689B68D6
:10380000012B06D1644B1B6F634A43F0010313671E
:103810001CE07B689B68052B0CD15F4B1B6F5E4ADD
:1038200043F0040313675C4B1B6F5B4A43F00103D7
:1038300013670BE0584B1B6F574A23F001031367C4
:10384000554B1B6F544A23F0040313677B689B6836
:10385000002B15D0FEF726FB38610AE0FEF722FBAD
:1038600002463B69D31A41F28832934201D90323BD
:10387000CBE0494B1B6F03F00203002BEED014E0AA
:10388000FEF710FB38610AE0FEF70CFB02463B69CD
:10389000D31A41F28832934201D90323B5E03E4B5B
:1038A0001B6F03F00203002BEED1FB7D012B05D132
:1038B000394B1B6C384A23F0805313647B689B6937
:1038C000002B00F0A180344B9B6803F00C03082B05
:1038D0005CD07B689B69022B41D1314B00221A607E
:1038E000FEF7E0FA386108E0FEF7DCFA02463B69D1
:1038F000D31A022B01D9032387E0274B1B6803F05F
:103900000073002BF0D17B68DA697B681B6A1A436D
:103910007B685B6A9B011A437B689B6A5B08013B7F
:103920001B041A437B68DB6A1B061B4913434B606D
:103930001B4B01221A60FEF7B5FA386108E0FEF76A
:10394000B1FA02463B69D31A022B01D903235CE08A
:10395000114B1B6803F00073002BF0D054E0104BA8
:1039600000221A60FEF79EFA386108E0FEF79AFA24
:1039700002463B69D31A022B01D9032345E0064BCB
:103980001B6803F00073002BF0D13DE07B689B695E
:10399000012B07D1012338E00038024000700040BD
:1039A000600047421B4B5B68FB607B689B69012B97
:1039B00028D0FB6803F480027B68DB699A4221D13E
:1039C000FB6803F03F027B681B6A9A421AD1FA68CF
:1039D00047F6C07313407A68526A9201934211D13C
:1039E000FB6803F440327B689B6A5B08013B1B0465
:1039F0009A4207D1FB6803F070627B68DB6A1B06A2
:103A00009A4201D0012300E0002318461837BD4632
:103A100080BD00BF0038024080B584B000AF786040
:103A200039607B68002B01D10123CCE0684B1B6817
:103A300003F007033A689A420CD9654B3A68D2B250
:103A40001A70634B1B6803F007033A689A4201D06F
:103A50000123B8E07B681B6803F00203002B20D031
:103A60007B681B6803F00403002B05D0594B9B684F
:103A7000584A43F4E05393607B681B6803F00803E3
:103A8000002B05D0534B9B68524A43F4604393602C
:103A9000504B9B6823F0F0027B689B684D491343B1
:103AA0008B607B681B6803F00103002B44D07B68AC
:103AB0005B68012B07D1474B1B6803F40033002BD5
:103AC00019D101237FE07B685B68022B03D07B6800
:103AD0005B68032B07D13F4B1B6803F00073002B7F
:103AE00009D101236FE03B4B1B6803F00203002B5D
:103AF00001D1012367E0374B9B6823F003027B6809
:103B00005B68344913438B60FEF7CCF9F8600AE038
:103B1000FEF7C8F90246FB68D31A41F28832934295
:103B200001D903234FE02B4B9B6803F00C027B6809
:103B30005B689B009A42EBD1254B1B6803F007039F
:103B40003A689A420CD2224B3A68D2B21A70204B91
:103B50001B6803F007033A689A4201D0012332E060
:103B60007B681B6803F00403002B08D0194B9B688B
:103B700023F4E0527B68DB68164913438B607B6853
:103B80001B6803F00803002B09D0124B9B6823F439
:103B900060427B681B69DB000E4913438B6000F0B9
:103BA00021F802460B4B9B681B0903F00F030A49DF
:103BB000CB5C22FA03F3094A1360094B1B681846D1
:103BC000FEF746F8002318461037BD4680BD00BFFB
:103BD000003C0240003802401CA200083C010020CA
:103BE000400100202DE9B04F90B000AF00237B636F
:103BF0000023FB6300233B630023BB63594B9B689B
:103C000003F00C03082B0DD0082B00F2A180002B31
:103C100002D0042B03D09BE0534BBB639BE0534B80
:103C2000BB6398E04F4B5B6803F03F037B634D4BF6
:103C30005B6803F48003002B28D04A4B5B689B0928
:103C400000223B627A623B6AC3F308000021474BC3
:103C500003FB01F2002300FB03F31344434AA0FBE0
:103C60000212FA620A46BA62FA6A1344FB627B6B7A
:103C70000022BB61FA61D7E90623D7E90A01FCF704
:103C8000F7FA02460B461346FB6353E0354B5B687D
:103C90009B0900223B617A613B69C3F3080A4FF03C
:103CA000000B52465B464FF000004FF000015901F7
:103CB00041EAD261500102460B46B2EB0A0863EBBF
:103CC0000B094FF000024FF000034FEA891343EA5B
:103CD00098634FEA8812B2EB080463EB09054FF0D2
:103CE00000024FF00003EB0043EA5473E200144675
:103CF0001D4614EB0A033B6045EB0B037B604FF062
:103D000000024FF00003D7E9004529468B02214607
:103D100043EA915321468A02104619467B6B0022E2
:103D2000BB60FA60D7E90223FCF7A2FA02460B4611
:103D30001346FB630B4B5B681B0C03F0030301335F
:103D40005B003B63FA6B3B6BB2FBF3F3BB6302E0DC
:103D5000054BBB6300BFBB6B18464037BD46BDE893
:103D6000B08F00BF003802400024F40040787D018D
:103D700080B400AF034B1B681846BD465DF8047B5A
:103D8000704700BF3C01002080B500AFFFF7F0FF97
:103D90000246054B9B689B0A03F007030349CB5C73
:103DA00022FA03F3184680BD003802402CA2000816
:103DB00080B500AFFFF7DCFF0246054B9B685B0B4D
:103DC00003F007030349CB5C22FA03F3184680BDD6
:103DD000003802402CA2000880B483B000AF7860A5
:103DE00039607B680F221A60124B9B6803F0030254
:103DF0007B685A600F4B9B6803F0F0027B689A6007
:103E00000C4B9B6803F4E0527B68DA60094B9B68BB
:103E1000DB0803F4E0527B681A61074B1B6803F070
:103E200007023B681A6000BF0C37BD465DF8047B93
:103E3000704700BF00380240003C024080B582B0AD
:103E400000AF78607B68002B01D1012341E07B68E3
:103E500093F83D30DBB2002B06D17B68002283F85B
:103E60003C207868FDF7A6FD7B68022283F83D20A0
:103E70007B681A687B6804331946104600F0AEFD73
:103E80007B68012283F846207B68012283F83E206C
:103E90007B68012283F83F207B68012283F8402061
:103EA0007B68012283F841207B68012283F842204D
:103EB0007B68012283F843207B68012283F8442039
:103EC0007B68012283F845207B68012283F83D202E
:103ED000002318460837BD4680BD000080B485B079
:103EE00000AF78607B6893F83D30DBB2012B01D0E6
:103EF00001234EE07B68022283F83D207B681B682B
:103F0000DA687B681B6842F00102DA607B681B6834
:103F1000234A934222D07B681B68B3F1804F1DD0A7
:103F20007B681B681F4A934218D07B681B681E4A37
:103F3000934213D07B681B681C4A93420ED07B6867
:103F40001B681B4A934209D07B681B68194A93423D
:103F500004D07B681B68184A934211D17B681B68A8
:103F60009B6803F00703FB60FB68062B10D07B689F
:103F70001B681A687B681B6842F001021A6007E040
:103F80007B681B681A687B681B6842F001021A6034
:103F9000002318461437BD465DF8047B704700BF08
:103FA000000001400004004000080040000C0040F8
:103FB00000040140004001400018004080B582B07C
:103FC00000AF78607B68002B01D1012341E07B6862
:103FD00093F83D30DBB2002B06D17B68002283F8DA
:103FE0003C20786800F039F87B68022283F83D2095
:103FF0007B681A687B6804331946104600F0EEFCB3
:104000007B68012283F846207B68012283F83E20EA
:104010007B68012283F83F207B68012283F84020DF
:104020007B68012283F841207B68012283F84220CB
:104030007B68012283F843207B68012283F84420B7
:104040007B68012283F845207B68012283F83D20AC
:10405000002318460837BD4680BD80B483B000AF4A
:10406000786000BF0C37BD465DF8047B70470000E8
:1040700080B584B000AF786039603B68002B09D10F
:104080007B6893F83E30DBB2012B14BF0123002381
:10409000DBB222E03B68042B09D17B6893F83F3008
:1040A000DBB2012B14BF01230023DBB215E03B6818
:1040B000082B09D17B6893F84030DBB2012B14BF89
:1040C00001230023DBB208E07B6893F84130DBB2C8
:1040D000012B14BF01230023DBB2002B01D00123ED
:1040E0007CE03B68002B04D17B68022283F83E20F1
:1040F00013E03B68042B04D17B68022283F83F2045
:104100000BE03B68082B04D17B68022283F8402037
:1041100003E07B68022283F841207B681B68012250
:104120003968184600F044FF7B681B682D4A9342AB
:1041300004D07B681B682C4A934201D1012300E024
:104140000023002B07D07B681B685A6C7B681B68B8
:1041500042F400425A647B681B68224A934222D090
:104160007B681B68B3F1804F1DD07B681B681F4ABA
:10417000934218D07B681B681D4A934213D07B681A
:104180001B681C4A93420ED07B681B68164A9342F8
:1041900009D07B681B68184A934204D07B681B686F
:1041A000164A934211D17B681B689B6803F0070392
:1041B000FB60FB68062B10D07B681B681A687B6865
:1041C0001B6842F001021A6007E07B681B681A68EE
:1041D0007B681B6842F001021A6000231846103702
:1041E000BD4680BD000001400004014000040040C5
:1041F00000080040000C0040004001400018004052
:1042000080B586B000AF786039607B68002B01D143
:10421000012397E07B6893F83D30DBB2002B06D199
:104220007B68002283F83C207868FDF721FC7B68DE
:10423000022283F83D207B681B689B687A681268BD
:1042400023F4804323F0070393607B681A687B683C
:1042500004331946104600F0C1FB7B681B689B685D
:104260007B617B681B689B693B617B681B681B6A81
:10427000FB603B681B687A6913437B613B6923F4ED
:10428000407323F003033B613B689A683B689B697A
:104290001B0213433A6913433B613B6923F44063B8
:1042A00023F00C033B613B6923F4704323F0F003DC
:1042B0003B613B68DA683B68DB691B0213433A6980
:1042C00013433B613B681B691A013B681B6A1B0374
:1042D00013433A6913433B61FB6823F02203FB60FD
:1042E000FB6823F08803FB603B685A683B685B69A6
:1042F0001B011343FA681343FB607B681B687A69F0
:104300009A607B681B683A699A617B681B68FA68E7
:104310001A627B68012283F846207B68012283F8B9
:104320003E207B68012283F83F207B68012283F8CE
:1043300042207B68012283F843207B68012283F8B6
:104340003D20002318461837BD4680BD80B584B097
:1043500000AF786039607B6893F83E30FB737B6810
:1043600093F83F30BB737B6893F842307B737B6874
:1043700093F843303B733B68002B10D1FB7B012B40
:1043800002D17B7B012B01D0012369E07B680222F3
:1043900083F83E207B68022283F8422031E03B68AC
:1043A000042B10D1BB7B012B02D13B7B012B01D015
:1043B000012355E07B68022283F83F207B680222BC
:1043C00083F843201DE0FB7B012B08D1BB7B012B35
:1043D00005D17B7B012B02D13B7B012B01D001233B
:1043E0003EE07B68022283F83E207B68022283F84D
:1043F0003F207B68022283F842207B68022283F8F8
:1044000043203B68002B03D03B68042B08D00FE00F
:104410007B681B6801220021184600F0C9FD16E0E8
:104420007B681B6801220421184600F0C1FD0EE0E4
:104430007B681B6801220021184600F0B9FD7B68EB
:104440001B6801220421184600F0B2FD00BF7B6802
:104450001B681A687B681B6842F001021A6000231F
:1044600018461037BD4680BD80B582B000AF786079
:104470007B681B681B6903F00203022B22D17B6857
:104480001B68DB6803F00203022B1BD17B681B68EF
:104490006FF002021A617B6801221A777B681B6841
:1044A0009B6903F00303002B03D0786800F077FAD0
:1044B00005E0786800F069FA786800F07AFA7B68BD
:1044C00000221A777B681B681B6903F00403042B26
:1044D00022D17B681B68DB6803F00403042B1BD12B
:1044E0007B681B686FF004021A617B6802221A77EE
:1044F0007B681B689B6903F44073002B03D07868CA
:1045000000F04DFA05E0786800F03FFA786800F0B6
:1045100050FA7B6800221A777B681B681B6903F0DE
:104520000803082B22D17B681B68DB6803F00803B3
:10453000082B1BD17B681B686FF008021A617B682F
:1045400004221A777B681B68DB6903F00303002BE6
:1045500003D0786800F023FA05E0786800F015FAD7
:10456000786800F026FA7B6800221A777B681B685F
:104570001B6903F01003102B22D17B681B68DB68DA
:1045800003F01003102B1BD17B681B686FF0100227
:104590001A617B6808221A777B681B68DB6903F461
:1045A0004073002B03D0786800F0F9F905E07868D3
:1045B00000F0EBF9786800F0FCF97B6800221A77CC
:1045C0007B681B681B6903F00103012B0ED17B681C
:1045D0001B68DB6803F00103012B07D17B681B68B4
:1045E0006FF001021A617868FDF758F97B681B6863
:1045F0001B6903F08003802B0ED17B681B68DB688E
:1046000003F08003802B07D17B681B686FF080026A
:104610001A61786800F0CAFD7B681B681B6903F0AB
:104620004003402B0ED17B681B68DB6803F040031E
:10463000402B07D17B681B686FF040021A617868D5
:1046400000F0C1F97B681B681B6903F02003202B75
:104650000ED17B681B68DB6803F02003202B07D199
:104660007B681B686FF020021A61786800F094FD87
:1046700000BF0837BD4680BD80B586B000AFF8608A
:10468000B9607A600023FB75FB6893F83C30012B1E
:1046900001D10223AEE0FB68012283F83C207B6855
:1046A0000C2B00F29F8001A252F823F0E146000893
:1046B000E5470008E5470008E547000821470008EE
:1046C000E5470008E5470008E5470008634700089C
:1046D000E5470008E5470008E5470008A34700084C
:1046E000FB681B68B968184600F018FAFB681B687D
:1046F0009A69FB681B6842F008029A61FB681B68B4
:104700009A69FB681B6822F004029A61FB681B68C7
:104710009969BB681A69FB681B680A439A6164E07F
:10472000FB681B68B968184600F068FAFB681B68EC
:104730009A69FB681B6842F400629A61FB681B6817
:104740009A69FB681B6822F480629A61FB681B68A7
:104750009969BB681B691A02FB681B680A439A6166
:1047600043E0FB681B68B968184600F0BDFAFB68B7
:104770001B68DA69FB681B6842F00802DA61FB68B3
:104780001B68DA69FB681B6822F00402DA61FB68C7
:104790001B68D969BB681A69FB681B680A43DA6140
:1047A00023E0FB681B68B968184600F011FBFB6842
:1047B0001B68DA69FB681B6842F40062DA61FB6817
:1047C0001B68DA69FB681B6822F48062DA61FB68A7
:1047D0001B68D969BB681B691A02FB681B680A431E
:1047E000DA6102E00123FB7500BFFB68002283F859
:1047F0003C20FB7D18461837BD4680BD80B584B08F
:1048000000AF786039600023FB737B6893F83C301D
:10481000012B01D10223B4E07B68012283F83C2004
:104820007B68022283F83D207B681B689B68BB6025
:10483000BB6823F07703BB60BB6823F47F43BB6096
:104840007B681B68BA689A603B681B68B3F5005FB9
:104850003ED0B3F5005F00F28780B3F5805F00F0D3
:104860008680B3F5805F7FD8702B1AD0702B7BD8F1
:10487000602B50D0602B77D8502B3CD0502B73D866
:10488000402B58D0402B6FD8302B64D0302B6BD8B6
:10489000202B60D0202B67D8002B5CD0102B5AD057
:1048A00062E07B6818683B6899683B685A683B68B7
:1048B000DB6800F05DFB7B681B689B68BB60BB68C6
:1048C00043F07703BB607B681B68BA689A604FE06F
:1048D0007B6818683B6899683B685A683B68DB6886
:1048E00000F046FB7B681B689A687B681B6842F493
:1048F00080429A603CE07B6818683B6859683B6876
:10490000DB681A4600F0BAFA7B681B68502118462B
:1049100000F013FB2CE07B6818683B6859683B6823
:10492000DB681A4600F0D9FA7B681B6860211846DC
:1049300000F003FB1CE07B6818683B6859683B6823
:10494000DB681A4600F09AFA7B681B68402118461B
:1049500000F0F3FA0CE07B681A683B681B681946A4
:10496000104600F0EAFA03E00123FB7300E000BF09
:104970007B68012283F83D207B68002283F83C207D
:10498000FB7B18461037BD4680BD80B483B000AFB6
:10499000786000BF0C37BD465DF8047B704780B47B
:1049A00083B000AF786000BF0C37BD465DF8047B74
:1049B000704780B483B000AF786000BF0C37BD464D
:1049C0005DF8047B704780B483B000AF786000BFAF
:1049D0000C37BD465DF8047B7047000080B485B09D
:1049E00000AF786039607B681B68FB607B68404A79
:1049F000934213D07B68B3F1804F0FD07B683D4A60
:104A000093420BD07B683C4A934207D07B683B4A79
:104A1000934203D07B683A4A934208D1FB6823F063
:104A20007003FB603B685B68FA681343FB607B685C
:104A30002F4A93422BD07B68B3F1804F27D07B68FD
:104A40002C4A934223D07B682B4A93421FD07B6829
:104A50002A4A93421BD07B68294A934217D07B682D
:104A6000284A934213D07B68274A93420FD07B6831
:104A7000264A93420BD07B68254A934207D07B6835
:104A8000244A934203D07B68234A934208D1FB68AF
:104A900023F44073FB603B68DB68FA681343FB60F8
:104AA000FB6823F080023B685B691343FB607B6813
:104AB000FA681A603B689A687B68DA623B681A6831
:104AC0007B689A627B680A4A934203D07B680C4AEF
:104AD000934203D13B681A697B681A637B680122A1
:104AE0005A6100BF1437BD465DF8047B704700BFB4
:104AF000000001400004004000080040000C00409D
:104B000000040140004001400044014000480140D1
:104B100000180040001C00400020004080B487B016
:104B200000AF786039607B681B6A23F001027B6804
:104B30001A627B681B6A7B617B685B683B617B6890
:104B40009B69FB60FB6823F07003FB60FB6823F04C
:104B50000303FB603B681B68FA681343FB607B69D7
:104B600023F002037B613B689B687A6913437B6196
:104B70007B68204A934203D07B681F4A93420CD142
:104B80007B6923F008037B613B68DB687A69134328
:104B90007B617B6923F004037B617B68154A934248
:104BA00003D07B68144A934211D13B6923F480738C
:104BB0003B613B6923F400733B613B685B693A6985
:104BC00013433B613B689B693A6913433B617B68D4
:104BD0003A695A607B68FA689A613B685A687B68F0
:104BE0005A637B687A691A6200BF1C37BD465DF85C
:104BF000047B7047000001400004014080B487B08E
:104C000000AF786039607B681B6A23F010027B6814
:104C10001A627B681B6A7B617B685B683B617B68AF
:104C20009B69FB60FB6823F4E043FB60FB6823F4B3
:104C30004073FB603B681B681B02FA681343FB6010
:104C40007B6923F020037B613B689B681B017A69C9
:104C500013437B617B68224A934203D07B68214ADD
:104C600093420DD17B6923F080037B613B68DB6855
:104C70001B017A6913437B617B6923F040037B61ED
:104C80007B68174A934203D07B68164A934213D13C
:104C90003B6923F480633B613B6923F400633B6120
:104CA0003B685B699B003A6913433B613B689B69C6
:104CB0009B003A6913433B617B683A695A607B68A1
:104CC000FA689A613B685A687B689A637B687A697C
:104CD0001A6200BF1C37BD465DF8047B704700BFF9
:104CE000000001400004014080B487B000AF78604C
:104CF00039607B681B6A23F480727B681A627B6868
:104D00001B6A7B617B685B683B617B68DB69FB607E
:104D1000FB6823F07003FB60FB6823F00303FB6078
:104D20003B681B68FA681343FB607B6923F40073DC
:104D30007B613B689B681B027A6913437B617B68DC
:104D4000214A934203D07B68204A93420DD17B696C
:104D500023F400637B613B68DB681B027A691343C1
:104D60007B617B6923F480637B617B68164A934295
:104D700003D07B68154A934213D13B6923F48053D7
:104D80003B613B6923F400533B613B685B691B015A
:104D90003A6913433B613B689B691B013A691343C2
:104DA0003B617B683A695A607B68FA68DA613B6804
:104DB0005A687B68DA637B687A691A6200BF1C37BD
:104DC000BD465DF8047B70470000014000040140CF
:104DD00080B487B000AF786039607B681B6A23F4C9
:104DE00080527B681A627B681B6A3B617B685B68E8
:104DF0007B617B68DB69FB60FB6823F4E043FB605D
:104E0000FB6823F44073FB603B681B681B02FA6875
:104E10001343FB603B6923F400533B613B689B6891
:104E20001B033A6913433B617B68124A934203D0E8
:104E30007B68114A934209D17B6923F480437B61EB
:104E40003B685B699B017A6913437B617B687A6984
:104E50005A607B68FA68DA613B685A687B681A6452
:104E60007B683A691A6200BF1C37BD465DF8047B57
:104E7000704700BF000001400004014080B487B0CB
:104E800000AFF860B9607A60FB681B6A7B61FB6801
:104E90001B6A23F00102FB681A62FB689B693B6195
:104EA0003B6923F0F0033B617B681B013A691343C4
:104EB0003B617B6923F00A037B617A69BB6813431A
:104EC0007B61FB683A699A61FB687A691A6200BF84
:104ED0001C37BD465DF8047B704780B487B000AFD7
:104EE000F860B9607A60FB681B6A23F01002FB6807
:104EF0001A62FB689B697B61FB681B6A3B617B698B
:104F000023F470437B617B681B037A6913437B61E5
:104F10003B6923F0A0033B61BB681B013A69134363
:104F20003B61FB687A699A61FB683A691A6200BF63
:104F30001C37BD465DF8047B704780B485B000AF78
:104F4000786039607B689B68FB60FB6823F07003C6
:104F5000FB603A68FB68134343F00703FB607B6820
:104F6000FA689A6000BF1437BD465DF8047B70474D
:104F700080B487B000AFF860B9607A603B60FB68CE
:104F80009B687B617B6923F47F437B613B681A02EA
:104F90007B681A43BB6813437A6913437B61FB68E0
:104FA0007A699A6000BF1C37BD465DF8047B704784
:104FB00080B487B000AFF860B9607A60BB6803F076
:104FC0001F03012202FA03F37B61FB681A6A7B6903
:104FD000DB431A40FB681A62FB681A6ABB6803F07D
:104FE0001F03796801FA03F31A43FB681A6200BFD2
:104FF0001C37BD465DF8047B7047000080B485B067
:1050000000AF786039607B6893F83C30012B01D1A8
:1050100002235AE07B68012283F83C207B6802224D
:1050200083F83D207B681B685B68FB607B681B68BE
:105030009B68BB60FB6823F07003FB603B681B68E8
:10504000FA681343FB607B681B68FA685A607B68E8
:105050001B68214A934222D07B681B68B3F1804FC2
:105060001DD07B681B681D4A934218D07B681B6863
:105070001B4A934213D07B681B681A4A93420ED096
:105080007B681B68184A934209D07B681B68174AE3
:10509000934204D07B681B68154A93420CD1BB68CD
:1050A00023F08003BB603B685B68BA681343BB6056
:1050B0007B681B68BA689A607B68012283F83D2090
:1050C0007B68002283F83C20002318461437BD4635
:1050D0005DF8047B704700BF000001400004004001
:1050E00000080040000C0040000401400040014066
:1050F0000018004080B485B000AF786039600023AC
:10510000FB607B6893F83C30012B01D102233DE02A
:105110007B68012283F83C20FB6823F0FF023B6898
:10512000DB681343FB60FB6823F440723B689B68B9
:105130001343FB60FB6823F480623B685B681343A6
:10514000FB60FB6823F400623B681B681343FB6051
:10515000FB6823F480523B681B691343FB60FB68C8
:1051600023F400523B685B691343FB60FB6823F444
:1051700080423B68DB691343FB607B681B68FA680D
:105180005A647B68002283F83C20002318461437B9
:10519000BD465DF8047B704780B483B000AF786093
:1051A00000BF0C37BD465DF8047B704780B483B008
:1051B00000AF786000BF0C37BD465DF8047B7047D8
:1051C00080B582B000AF78607B68002B01D10123ED
:1051D0003FE07B6893F83D30DBB2002B06D17B6863
:1051E000002283F83C207868FCF7E2FC7B682422EC
:1051F00083F83D207B681B68DA687B681B6822F4B3
:105200000052DA60786800F0DFFD7B681B681A697D
:105210007B681B6822F490421A617B681B685A699C
:105220007B681B6822F02A025A617B681B68DA6877
:105230007B681B6842F40052DA607B6800221A64C3
:105240007B68202283F83D207B68202283F83E2063
:10525000002318460837BD4680BD80B58AB002AF2E
:10526000F860B9603B601346FB8000237B61FB68FC
:1052700093F83D30DBB2202B7CD1BB68002B02D0F1
:10528000FB88002B01D1012375E0FB6893F83C30CB
:10529000012B01D102236EE0FB68012283F83C2040
:1052A000FB6800221A64FB68212283F83D20FCF78A
:1052B000F9FD7861FB68FA889A84FB68FA88DA84D9
:1052C000FB689B68B3F5805F08D1FB681B69002B06
:1052D00004D10023FB61BB68BB6103E0BB68FB61D9
:1052E0000023BB61FB68002283F83C202AE03B6876
:1052F00000937B6900228021F86800F01FFB0346C1
:10530000002B01D0032336E0FB69002B0BD1BB69D6
:105310001B881A46FB681B68C2F308025A60BB6907
:105320000233BB6107E0FB691A78FB681B685A60AF
:10533000FB690133FB61FB68DB8C9BB2013B9AB2DA
:10534000FB68DA84FB68DB8C9BB2002BCFD13B6817
:1053500000937B6900224021F86800F0EFFA0346D1
:10536000002B01D0032306E0FB68202283F83D20B8
:10537000002300E0022318462037BD4680BD80B5DB
:1053800084B000AFF860B9601346FB80FB6893F807
:105390003E30DBB2202B1DD1BB68002B02D0FB8836
:1053A000002B01D1012316E0FB6893F83C30012B60
:1053B00001D102230FE0FB68012283F83C20FB6847
:1053C00000221A63FB881A46B968F86800F024FBCB
:1053D000034600E0022318461037BD4680BD00009A
:1053E00080B5BAB000AF78607B681B681B68C7F8EF
:1053F000E4307B681B68DB68C7F8E0307B681B68BB
:105400005B69C7F8DC300023C7F8D8300023C7F841
:10541000D430D7F8E43003F00F03C7F8D830D7F80A
:10542000D830002B0FD1D7F8E43003F02003002B45
:1054300009D0D7F8E03003F02003002B03D07868C0
:1054400000F007FC56E2D7F8D830002B00F0DE80E1
:10545000D7F8DC3003F00103002B06D1D7F8E03099
:1054600003F49073002B00F0D180D7F8E43003F000
:105470000103002B0BD0D7F8E03003F48073002B2E
:1054800005D07B681B6C43F001027B681A64D7F877
:10549000E43003F00403002B0BD0D7F8DC3003F02A
:1054A0000103002B05D07B681B6C43F002027B6874
:1054B0001A64D7F8E43003F00203002B0BD0D7F8BE
:1054C000DC3003F00103002B05D07B681B6C43F03C
:1054D00004027B681A64D7F8E43003F00803002B59
:1054E00011D0D7F8E03003F02003002B05D1D7F816
:1054F000DC3003F00103002B05D07B681B6C43F00C
:1055000008027B681A647B681B6C002B00F0ED813D
:10551000D7F8E43003F02003002B08D0D7F8E030B0
:1055200003F02003002B02D0786800F092FB7B6828
:105530001B685B6903F04003402B0CBF0123002371
:10554000DBB2C7F8D4307B681B6C03F00803002B78
:1055500003D1D7F8D430002B4FD0786800F09AFAF6
:105560007B681B685B6903F04003402B41D17B687B
:105570001B681433C7F89C30D7F89C3053E8003FC1
:10558000C7F89830D7F8983023F04003C7F8D030E8
:105590007B681B681433D7F8D020C7F8A820C7F859
:1055A000A430D7F8A410D7F8A82041E80023C7F802
:1055B000A030D7F8A030002BD9D17B689B6B002B93
:1055C00013D07B689B6B7D4A1A657B689B6B184682
:1055D000FCF7EAFD0346002B16D07B689B6B1B6D26
:1055E0007A68926B104698470EE0786800F090F960
:1055F0000AE0786800F08CF906E0786800F088F935
:105600007B6800221A6470E100BF6EE17B681B6B4F
:10561000012B40F04A81D7F8E43003F01003002B4F
:1056200000F04381D7F8E03003F01003002B00F0C6
:105630003C810023BB607B681B681B68BB607B6888
:105640001B685B68BB60BB687B681B685B6903F0B9
:105650004003402B40F0B4807B689B6B1B685B6809
:10566000A7F8BE30B7F8BE30002B00F040817B6851
:105670009B8DB7F8BE209A4280F039817B68B7F8DD
:10568000BE20DA857B689B6BDB69B3F5807F00F019
:1056900088807B681B680C33C7F88830D7F888305F
:1056A00053E8003FC7F88430D7F8843023F4807380
:1056B000C7F8B8307B681B680C33D7F8B820C7F838
:1056C0009420C7F89030D7F89010D7F8942041E88C
:1056D0000023C7F88C30D7F88C30002BD9D17B68E9
:1056E0001B6814337B677B6F53E8003F3B673B6F5E
:1056F00023F00103C7F8B4307B681B681433D7F874
:10570000B420C7F88020FB67F96FD7F8802041E804
:105710000023BB67BB6F002BE1D17B681B68143390
:105720003B663B6E53E8003FFB65FB6D23F0400397
:10573000C7F8B0307B681B681433D7F8B020FA661E
:10574000BB66B96EFA6E41E800237B667B6E002B68
:10575000E3D17B68202283F83E207B6800221A6315
:105760007B681B680C33FB64FB6C53E8003FBB6435
:10577000BB6C23F01003C7F8AC307B681B680C339C
:10578000D7F8AC20BA657B65796DBA6D41E8002326
:105790003B653B6D002BE3D17B689B6B1846FCF7A8
:1057A00093FC7B689A8D7B68DB8D9BB2D31A9BB28E
:1057B0001946786800F0B6F899E000BF5B5B000816
:1057C0007B689A8D7B68DB8D9BB2D31AA7F8CE30AD
:1057D0007B68DB8D9BB2002B00F08B80B7F8CE305E
:1057E000002B00F086807B681B680C33BB63BB6BAF
:1057F00053E8003F7B637B6B23F49073C7F8C8309A
:105800007B681B680C33D7F8C8207A643B64396C1A
:105810007A6C41E80023FB63FB6B002BE3D17B68D0
:105820001B6814337B627B6A53E8003F3B623B6A30
:1058300023F00103C7F8C4307B681B681433D7F822
:10584000C4203A63FB62F96A3A6B41E80023BB6209
:10585000BB6A002BE3D17B68202283F83E207B6863
:1058600000221A637B681B680C333B613B6953E879
:10587000003FFB60FB6823F01003C7F8C0307B6873
:105880001B680C33D7F8C020FA61BB61B969FA69AB
:1058900041E800237B617B69002BE3D1B7F8CE3070
:1058A0001946786800F03EF823E0D7F8E43003F0BA
:1058B0008003002B09D0D7F8E03003F08003002BE1
:1058C00003D0786800F05DF914E0D7F8E43003F015
:1058D0004003002B0ED0D7F8E03003F04003002B3C
:1058E00008D0786800F09DF904E000BF02E000BF36
:1058F00000E000BFE837BD4680BD00BF80B483B084
:1059000000AF786000BF0C37BD465DF8047B704780
:1059100080B483B000AF786000BF0C37BD465DF83F
:10592000047B704780B483B000AF78600B467B8007
:1059300000BF0C37BD465DF8047B704780B590B062
:1059400000AFF860B9603B601346FB7150E0BB6C80
:10595000B3F1FF3F4CD0BB6C002B07D0FCF7A2FA91
:1059600002463B68D31ABA6C9A4241D2FB681B6864
:105970000C33BB62BB6A53E8003F7B627B6A23F453
:10598000D073FB63FB681B680C33FA6B7A633B6371
:10599000396B7A6B41E80023FB62FB6A002BE5D18F
:1059A000FB681B6814337B617B6953E8003F3B61F4
:1059B0003B6923F00103BB63FB681B681433BA6BBC
:1059C0003A62FB61F9693A6A41E80023BB61BB694D
:1059D000002BE5D1FB68202283F83D20FB682022C4
:1059E00083F83E20FB68002283F83C2003230FE06D
:1059F000FB681B681A68BB681340BA689A420CBF00
:105A000001230023DBB21A46FB799A429FD0002380
:105A100018464037BD4680BD80B485B000AFF86001
:105A2000B9601346FB80FB68BA689A62FB68FA8823
:105A30009A85FB68FA88DA85FB6800221A64FB689D
:105A4000222283F83E20FB68002283F83C20FB687A
:105A50001B69002B07D0FB681B68DA68FB681B68B2
:105A600042F48072DA60FB681B685A69FB681B6845
:105A700042F001025A61FB681B68DA68FB681B6828
:105A800042F02002DA60002318461437BD465DF864
:105A9000047B704780B495B000AF78607B681B686A
:105AA0000C337B637B6B53E8003F3B633B6B23F41E
:105AB0009073FB647B681B680C33FA6C3A64FB637D
:105AC000F96B3A6C41E80023BB63BB6B002BE5D15B
:105AD0007B681B6814333B623B6A53E8003FFB6101
