:020000040800F2
:1000000000000220CD110008FD10000803110008B7
:10001000091100080F110008151100080000000068
:10002000000000000000000000000000C1660008A1
:100030001B1100080000000011690008954300082A
:100040001D1200081D1200081D1200081D120008D4
:100050001D1200081D1200081D1200081D120008C4
:100060001D1200081D1200081D1200081D120008B4
:100070001D1200081D1200081D1200081D120008A4
:100080001D1200081D1200081D1200081D12000894
:100090001D1200081D1200081D1200081D12000884
:1000A0001D1200081D1200081D1200081D12000874
:1000B0001D1200081D120008291100081D12000859
:1000C0001D1200081D1200081D1200081D12000854
:1000D0001D1200081D1200081D1200081D12000844
:1000E0001D1200081D1200081D1200081D12000834
:1000F0001D1200081D1200081D1200081D12000824
:100100001D1200081D1200081D1200081D12000813
:100110001D1200081D1200081D1200081D12000803
:100120001D1200081D1200081D1200081D120008F3
:100130001D1200081D1200081D1200081D120008E3
:100140001D1200081D1200081D1200081D120008D3
:100150001D1200081D1200081D1200081D120008C3
:100160001D1200081D1200081D1200081D120008B3
:100170001D1200081D1200081D12000800000000DA
:080180001D1200081D12000809
:1001900010B5054C237833B9044B13B10448AFF3C1
:1001A00000800123237010BD6000002000000000CB
:1001B000887D000808B5034B1BB103490348AFF322
:1001C000008008BD0000000064000020887D000859
:1001D00001F0FF01102A2BDB10F0070F08D010F8F8
:1001E000013B013A8B422DD010F0070F42B3F6D1FC
:1001F000F0B441EA012141EA014122F007047FF015
:1002000000070023F0E80256083C85EA010586EA6B
:10021000010685FA47F5A3FA87F586FA47F6A5FAA7
:1002200087F68EB9EED1F0BC01F0FF0102F00702B3
:1002300032B110F8013B013A83EA010313B1F8D15E
:100240000020704701387047002D06BF354603383F
:10025000073815F0010F07D1013015F4807F02BF78
:10026000013015F4C03F0130F0BC0138704700BFC9
:1002700053B94AB9002908BF00281CBF4FF0FF310D
:100280004FF0FF3000F070B9ADF1080C6DE904CE0D
:1002900000F006F8DDF804E0DDE9022304B0704761
:1002A0002DE9F047089E0D4604460F46002B4AD123
:1002B0008A42944665D9B2FA82F343B102FA03FC4A
:1002C000C3F120029F4020FA02F217439C404FEAFC
:1002D0001C4E1FFA8CF5B7FBFEF1220C0EFB1177BA
:1002E00042EA074201FB05F090420AD91CEB0202E8
:1002F00001F1FF3780F01C81904240F219810239F0
:100300006244121AA4B2B2FBFEF00EFB102244EAC1
:10031000024400FB05F5A5420AD91CEB040400F1D8
:10032000FF3280F00781A54240F204816444023824
:1003300040EA0140641B00211EB1DC400023C6E9F5
:100340000043BDE8F0878B4208D9002E00F0ED8015
:100350000021C6E900050846BDE8F087B3FA83F13D
:10036000002949D1AB4202D3824200F2F880841ABC
:1003700065EB030201201746002EE2D0C6E90047D4
:10038000DFE702B9FFDEB2FA82F3002B40F0908083
:100390008A1A4FEA1C471FFA8CFE0121B2FBF7F5BF
:1003A00007FB1520220C42EA00420EFB05F09042AA
:1003B00008D91CEB020205F1FF3802D2904200F28C
:1003C000CB804546121AA4B2B2FBF7F007FB10220D
:1003D00044EA02440EFB00FEA64508D91CEB0404C7
:1003E00000F1FF3202D2A64500F2BB801046A4EB1A
:1003F0000E0440EA05409FE7C1F120078B4022FA36
:1004000007FC4CEA030C05FA01F420FA07F3FD405F
:100410004FEA1C492343B5FBF9F81FFA8CFE09FB90
:1004200018551C0C44EA054408FB0EF5A54202FAD7
:1004300001F200FA01F00BD91CEB040408F1FF3AB9
:1004400080F08880A54240F28580A8F102086444CB
:10045000641B9DB2B4FBF9F309FB134445EA044461
:1004600003FB0EFEA64508D91CEB040403F1FF357F
:100470006CD2A6456AD9023B644443EA0843A3FB15
:100480000295A4EB0E04AC42C846AE4656D353D0F8
:1004900056B1B0EB080264EB0E0404FA07F7CA4049
:1004A000CC401743C6E9007418460021BDE8F08728
:1004B000C3F1200102FA03FC20FA01F225FA01F14E
:1004C0009D402A434FEA1C471FFA8CFEB1FBF7F010
:1004D00007FB1015110C41EA054100FB0EF58D429A
:1004E00004FA03F408D91CEB010100F1FF382FD204
:1004F0008D422DD902386144491B92B2B1FBF7F508
:1005000007FB151142EA014205FB0EF1914208D9A1
:100510001CEB020205F1FF3816D2914214D9023DBC
:100520006244521A45EA004138E73146304608E74E
:100530003946E6E61046FBE64845A9D2B9EB020883
:1005400065EB0C0E013BA3E74546EAE72B4694E733
:100550004046D1E7D0467BE7023D624432E7084699
:100560000AE76444023842E7704700BF80B500AF35
:1005700000F056FE00F0B2F800F06EFA00F042FA19
:1005800000F014F900F094F900F03EF906F0CCFE0A
:10059000032200212F4806F0C2FC03F015FF2E4A6B
:1005A00000212E4803F05AFF03462D4A13602D4ABE
:1005B00000212D4803F052FF03462C4A13602C4AB9
:1005C00000212C4803F04AFF03462B4A13602B4AB4
:1005D00000212B4803F042FF03462A4A13602A4AAF
:1005E00000212A4803F03AFF0346294A1360294AAA
:1005F0000021294803F032FF0346284A1360284AA5
:100600000021284803F02AFF0346274A1360274A9F
:100610000021274803F022FF0346264A1360264A9A
:100620000021264803F01AFF0346254A1360254A95
:100630000021254803F012FF0346244A1360244A90
:100640000021244803F00AFF0346234A136003F005
:10065000DFFEFEE77C0000204C7E0008610B0008F6
:10066000A4010020707E0008690C0008A801002089
:10067000947E0008A90C0008AC010020B87E000898
:10068000C50C0008B0010020DC7E0008D50C000875
:10069000B4010020007F0008E50C0008B80100202C
:1006A000247F0008F50C0008BC010020487F0008EA
:1006B000050D0008C00100206C7F0008150D000822
:1006C000C4010020907F0008250D0008C80100200B
:1006D000B47F0008350D0008CC01002080B594B02F
:1006E00000AF07F1200330220021184606F0C8FEB3
:1006F00007F10C0300221A605A609A60DA601A61EE
:100700000023BB60274B1B6C264A43F080531364C5
:10071000244B1B6C03F08053BB60BB6800237B60E1
:10072000214B1B68204A43F4804313601E4B1B6817
:1007300003F480437B607B6802233B620123FB62FE
:1007400010233B630223BB630023FB6308233B644A
:1007500048237B640223BB640423FB6407F120036A
:10076000184601F0DFFC0346002B01D000F0FCFA34
:100770000F23FB6002233B6100237B614FF4805316
:10078000BB610023FB6107F10C030221184601F055
:1007900041FF0346002B01D000F0E6FA00BF5037BE
:1007A000BD4680BD003802400070004080B500AFFB
:1007B000124B134A1A60114B124A5A600F4B002217
:1007C0009A600E4B0022DA600C4B4FF480421A61A3
:1007D0000A4B00225A61094B00229A61074B002202
:1007E000DA61064B00221A62044801F017F803464A
:1007F000002B01D000F0B8FA00BF80BD7C000020C3
:1008000000540040A086010080B58CB000AF07F115
:100810000C0324220021184606F032FE3B1D002264
:100820001A605A60214B4FF080421A601F4B002221
:100830005A601E4B00229A601C4B4FF0FF32DA6068
:100840001A4B00221A61194B00229A610323FB60A4
:1008500000233B6101237B610023BB610A23FB6111
:1008600000233B6201237B620023BB620A23FB62FD
:1008700007F10C0319460D4802F0C0FA0346002B9D
:1008800001D000F071FA00237B600023BB603B1DA8
:100890001946064803F0B0F90346002B01D000F0DA
:1008A00063FA00BF3037BD4680BD00BFD0000020D6
:1008B00080B596B000AF07F1480300221A605A6075
:1008C0009A60DA6007F1400300221A605A6007F16B
:1008D000240300221A605A609A60DA601A615A6131
:1008E0009A613B1D20220021184606F0C9FD434BAA
:1008F000434A1A60414B00225A60404B00229A60E2
:100900003E4B41F61F42DA603C4B00221A613B4BE2
:1009100000225A61394B00229A61384802F08CF863
:100920000346002B01D000F01FFA4FF48053BB6444
:1009300007F148031946314802F05EFD0346002BDB
:1009400001D000F011FA2D4802F036F90346002BD1
:1009500001D000F009FA00233B6400237B6407F117
:1009600040031946254803F047F90346002B01D000
:1009700000F0FAF960237B620023BB620023FB6274
:1009800000233B6300237B630023BB630023FB63E3
:1009900007F1240300221946184802F06BFC0346B5
:1009A000002B01D000F0E0F907F1240304221946DE
:1009B000124802F05FFC0346002B01D000F0D4F98E
:1009C00000237B600023BB600023FB6000233B61AE
:1009D00000237B614FF40053BB6100233B623B1D4E
:1009E0001946064803F084F90346002B01D000F0B5
:1009F000BBF900BF5837BD4680BD00BF18010020BD
:100A00000004014080B500AF114B124A1A60104B30
:100A10004FF4E1325A600E4B00229A600C4B0022D8
:100A2000DA600B4B00221A61094B0C225A61084B09
:100A300000229A61064B0022DA61054803F0BEF9F4
:100A40000346002B01D000F08FF900BF80BD00BF2E
:100A5000600100200048004080B58AB000AF07F177
:100A6000140300221A605A609A60DA601A61002347
:100A70003B61384B1B6B374A43F010031363354B14
:100A80001B6B03F010033B613B690023FB60314BA0
:100A90001B6B304A43F0010313632E4B1B6B03F0B7
:100AA0000103FB60FB680023BB602A4B1B6B294AD8
:100AB00043F004031363274B1B6B03F00403BB6079
:100AC000BB6800237B60234B1B6B224A43F002036D
:100AD0001363204B1B6B03F002037B607B680022D7
:100AE0004FF4BC611C4800F07FFE00223C211B48F3
:100AF00000F07AFE4FF4BC637B610123BB610023ED
:100B0000FB6100233B6207F114031946124800F011
:100B1000CFFC0C237B610123BB610023FB6102231B
:100B20003B6207F1140319460C4800F0C1FC302366
:100B30007B610123BB610023FB6100233B6207F162
:100B400014031946054800F0B3FC00BF2837BD4622
:100B500080BD00BF0038024000100240000002408B
:100B600080B58CB000AF78603C213C4802F0ECF9D5
:100B70000023FB6200233B620023BB6200237B62F5
:100B8000364B1B685B6AFB6200F080FB7862334B7C
:100B90001B681B6803F01003102B0CBF01230023FC
:100BA000DBB2FB8300F072FB02467B6AD31AB3F51B
:100BB0007A7F4ED9294B1B685B6A3B62274B1B68C7
:100BC0001B6803F01003102B10D13A6AFB6A9A429B
:100BD00004DAFA6A3B6AD31ABB6217E03B6AC3F5D0
:100BE0007F43FF33FA6A1344BB620FE03A6AFB6A41
:100BF0009A4204DD3A6AFB6AD31ABB6206E0FB6ADA
:100C0000C3F57F43FF333A6A1344BB6207F108031D
:100C1000BA6A1349184606F013FC07F108031A468E
:100C200014210A2006F04EFBFA8B07F108030D4948
:100C3000184606F005FC07F108031A461E210A2093
:100C400006F040FB054B1B685B6AFB6200F01EFB75
:100C50007862012003F094FCA4E700BFD0000020DC
:100C6000087E0008147E000880B588B000AF786068
:100C70000C4A07F10C0307CA03C31A8007F11603D5
:100C800000221A605A601A8107F10C031A460A21E1
:100C90000A2006F017FB06F0A1F9012003F070FC12
:100CA000F2E700BF207E000880B584B000AF786016
:100CB0000023FB810021024801F0D8FFFEE700BFBE
:100CC0001801002080B582B000AF7860012003F0E9
:100CD00057FCFBE780B582B000AF7860012003F0DD
:100CE0004FFCFBE780B582B000AF7860012003F0D5
:100CF00047FCFBE780B582B000AF7860012003F0CD
:100D00003FFCFBE780B582B000AF7860012003F0C4
:100D100037FCFBE780B582B000AF7860012003F0BC
:100D20002FFCFBE780B582B000AF7860012003F0B4
:100D300027FCFBE780B582B000AF7860012003F0AC
:100D40001FFCFBE780B582B000AF78607B681B6852
:100D5000044A934201D100F085FA00BF0837BD462E
:100D600080BD00BF0008004080B400AF72B600BF75
:100D7000FEE7000080B582B000AF00237B60124B1D
:100D80005B6C114A43F4804353640F4B5B6C03F478
:100D900080437B607B6800233B600B4B1B6C0A4AE3
:100DA00043F080531364084B1B6C03F080533B608B
:100DB0003B6800220F216FF0010000F04FFB00BFE5
:100DC0000837BD4680BD00BF0038024080B58AB0FC
:100DD00000AF786007F1140300221A605A609A602D
:100DE000DA601A617B681B68194A93422CD1002390
:100DF0003B61184B1B6B174A43F002031363154BFF
:100E00001B6B03F002033B613B694FF440737B6152
:100E10001223BB610023FB6103233B6204237B623B
:100E200007F1140319460C4800F042FB0023FB6055
:100E3000084B1B6C074A43F400131364054B1B6CEF
:100E400003F40013FB60FB6800BF2837BD4680BD7C
:100E500000540040003802400004024080B58AB0CF
:100E600000AF786007F1140300221A605A609A609C
:100E7000DA601A617B681B68B3F1804F4AD10023A6
:100E80003B61264B1B6C254A43F001031364234B43
:100E90001B6C03F001033B613B690023FB601F4BAC
:100EA0001B6B1E4A43F0010313631C4B1B6B03F0C7
:100EB0000103FB60FB680023BB60184B1B6B174AE8
:100EC00043F002031363154B1B6B03F00203BB607B
:100ED000BB684FF400437B610223BB610023FB61CD
:100EE00000233B6201237B6207F1140319460C487F
:100EF00000F0DEFA08237B610223BB610023FB6163
:100F000000233B6201237B6207F114031946054865
:100F100000F0CEFA00BF2837BD4680BD0038024041
:100F2000000002400004024080B58AB000AF786043
:100F300007F1140300221A605A609A60DA601A619D
:100F40007B681B68194A93422BD100233B61184BE5
:100F50005B6C174A43F002035364154B5B6C03F060
:100F600002033B613B690023FB60114B1B6B104A82
:100F700043F0040313630E4B1B6B03F00403FB608D
:100F8000FB68C0237B610223BB610023FB6100235C
:100F90003B6203237B6207F114031946054800F006
:100FA00087FA00BF2837BD4680BD00BF000401405E
:100FB000003802400008024080B58AB000AF786077
:100FC00007F1140300221A605A609A60DA601A610D
:100FD0007B681B68194A93422CD100233B61184B54
:100FE0001B6C174A43F480231364154B1B6C03F4EA
:100FF00080233B613B690023FB60114B1B6B104A54
:1010000043F0040313630E4B1B6B03F00403FB60FC
:10101000FB684FF440637B610223BB610023FB61EB
:1010200003233B6207237B6207F11403194605483B
:1010300000F03EFA00BF2837BD4680BD00480040A2
:10104000003802400008024080B58CB000AF7860E4
:101050000023FB620023BB62002279681E2000F09F
:10106000FDF91E2000F016FA0023FB601F4B1B6CDD
:101070001E4A43F0040313641C4B1B6C03F004036F
:10108000FB60FB6807F1100207F1140311461846D4
:1010900001F0A0FC01F076FC03465B00FB62FB6AFA
:1010A000134AA2FB03239B0C013BBB62114B124A68
:1010B0001A60104B40F2E732DA600E4ABB6A5360A6
:1010C0000C4B00221A610B4B00229A60094801F078
:1010D000B3FC0346002B04D1064801F0FDFC034697
:1010E00000E0012318463037BD4680BD003802407D
:1010F00083DE1B43D00100200008004080B400AF15
:10110000FEE780B400AFFEE780B400AFFEE780B436
:1011100000AFFEE780B400AFFEE780B400AF00BFD1
:10112000BD465DF8047B704780B500AF024801F012
:1011300099FF00BF80BD00BFD001002080B586B000
:1011400000AF7860144A154BD31A7B617B693B6111
:10115000134B1B68002B02D1114B124A1A60104B23
:101160001A687B6813443A699A4207D206F090F9EC
:1011700003460C221A604FF0FF3309E0084B1B684E
:10118000FB60074B1A687B681344054A1360FB68D1
:1011900018461837BD4680BD00000220000400003C
:1011A00018020020B850002080B400AF064BD3F8DE
:1011B0008830054A43F47003C2F8883000BFBD464A
:1011C0005DF8047B704700BF00ED00E0DFF834D02D
:1011D0000D480E490E4A002302E0D458C45004338F
:1011E000C4188C42F9D30B4A0B4C002301E0136066
:1011F0000432A242FBD3FFF7D7FF06F04FF9FFF707
:10120000B5F97047000002200000002060000020B7
:10121000988A000860000020B8500020FEE7000017
:1012200080B500AF0E4B1B680D4A43F4007313608A
:101230000B4B1B680A4A43F480631360084B1B681E
:10124000074A43F480731360032000F0FCF80F207A
:10125000FFF7FAFEFFF78EFD0023184680BD00BFA2
:10126000003C024080B400AF064B1B781A46064B88
:101270001B681344044A136000BFBD465DF8047B3D
:10128000704700BF080000201C02002080B400AF9F
:10129000034B1B681846BD465DF8047B704700BFD2
:1012A0001C02002080B584B000AF7860FFF7EEFF2D
:1012B000B8607B68FB60FB68B3F1FF3F05D00A4B69
:1012C0001B781A46FB681344FB6000BFFFF7DEFF84
:1012D0000246BB68D31AFA689A42F7D800BF00BF2B
:1012E0001037BD4680BD00BF0800002080B485B027
:1012F00000AF78607B6803F00703FB600C4BDB6892
:10130000BB60BA684FF6FF031340BB60FB681A026C
:10131000BB68134343F0BF6343F40033BB60044A2C
:10132000BB68D36000BF1437BD465DF8047B7047CF
:1013300000ED00E080B400AF044BDB681B0A03F053
:1013400007031846BD465DF8047B704700ED00E0DA
:1013500080B483B000AF0346FB7197F90730002BD0
:101360000BDBFB7903F01F02074997F907305B0994
:10137000012000FA02F241F8232000BF0C37BD46DD
:101380005DF8047B704700BF00E100E080B483B0EB
:1013900000AF03463960FB7197F90730002B0ADB79
:1013A0003B68DAB20C4997F907301201D2B20B440C
:1013B00083F800230AE03B68DAB20849FB7903F0BE
:1013C0000F03043B1201D2B20B441A7600BF0C3754
:1013D000BD465DF8047B704700E100E000ED00E0F1
:1013E00080B489B000AFF860B9607A60FB6803F040
:1013F0000703FB61FB69C3F10703042B28BF042328
:10140000BB61FB690433062B02D9FB69033B00E097
:1014100000237B614FF0FF32BB6902FA03F3DA432A
:10142000BB681A407B699A404FF0FF317B6901FA33
:1014300003F3D9437B680B40134318462437BD465A
:101440005DF8047B704780B582B000AF7860786843
:10145000FFF74CFF00BF0837BD4680BD80B586B0A2
:1014600000AF0346B9607A60FB7300237B61FFF72E
:1014700061FF78617A68B9687869FFF7B1FF024661
:1014800097F90F3011461846FFF780FF00BF183755
:10149000BD4680BD80B582B000AF0346FB7197F9B1
:1014A00007301846FFF754FF00BF0837BD4680BD20
:1014B00080B489B000AF7860396000237B6100237D
:1014C0003B610023BB610023FB616BE10122FB69EF
:1014D00002FA03F37B613B681B687A6913403B6146
:1014E0003A697B699A4240F05A813B685B6803F035
:1014F0000303012B05D03B685B6803F00303022B59
:1015000030D17B689B68BB61FB695B00032202FAF8
:1015100003F3DB43BA691340BB613B68DA68FB69DC
:101520005B0002FA03F3BA691343BB617B68BA69D3
:101530009A607B685B68BB610122FB6902FA03F376
:10154000DB43BA691340BB613B685B681B0903F06E
:101550000102FB6902FA03F3BA691343BB617B68BA
:10156000BA695A603B685B6803F00303032B17D02A
:101570007B68DB68BB61FB695B00032202FA03F353
:10158000DB43BA691340BB613B689A68FB695B0047
:1015900002FA03F3BA691343BB617B68BA69DA6084
:1015A0003B685B6803F00303022B23D1FB69DA0875
:1015B0007B68083253F82230BB61FB6903F00703F4
:1015C0009B000F2202FA03F3DB43BA691340BB61AD
:1015D0003B681A69FB6903F007039B0002FA03F3F7
:1015E000BA691343BB61FB69DA087B680832B969E1
:1015F00043F822107B681B68BB61FB695B00032218
:1016000002FA03F3DB43BA691340BB613B685B68D2
:1016100003F00302FB695B0002FA03F3BA691343A8
:10162000BB617B68BA691A603B685B6803F440334E
:10163000002B00F0B4800023FB60604B5B6C5F4AC2
:1016400043F4804353645D4B5B6C03F48043FB6065
:10165000FB685B4AFB699B08023352F82330BB618D
:10166000FB6903F003039B000F2202FA03F3DB4341
:10167000BA691340BB617B68524A93422BD07B68A6
:10168000514A934225D07B68504A93421FD07B68D1
:101690004F4A934219D07B684E4A934213D07B68DD
:1016A0004D4A93420DD07B684C4A934207D07B68E9
:1016B0004B4A934201D107230EE008230CE0062396
:1016C0000AE0052308E0042306E0032304E00223E4
:1016D00002E0012300E00023FA6902F00302920015
:1016E0009340BA691343BB613549FB699B080233D8
:1016F000BA6941F823203B4B9B68BB613B69DB43E4
:10170000BA691340BB613B685B6803F48013002B2C
:1017100003D0BA693B691343BB61324ABB6993602A
:10172000304BDB68BB613B69DB43BA691340BB618B
:101730003B685B6803F40013002B03D0BA693B6974
:101740001343BB61274ABB69D360264B5B68BB610F
:101750003B69DB43BA691340BB613B685B6803F4D8
:101760000033002B03D0BA693B691343BB611D4AA8
:10177000BB6953601B4B1B68BB613B69DB43BA69A8
:101780001340BB613B685B6803F48033002B03D0DC
:10179000BA693B691343BB61124ABB691360FB69B9
:1017A0000133FB61FB690F2B7FF690AE00BF00BFDA
:1017B0002437BD465DF8047B704700BF0038024007
:1017C00000380140000002400004024000080240CE
:1017D000000C0240001002400014024000180240B9
:1017E000001C0240003C014080B483B000AF786030
:1017F0000B467B8013467B707B78002B03D07A8866
:101800007B689A6103E07B881A047B689A6100BF59
:101810000C37BD465DF8047B7047000080B584B08E
:1018200000AF78607B68002B01D101232BE17B683E
:1018300093F83D30DBB2002B06D17B68002283F8A1
:101840003C207868FFF7C2FA7B68242283F83D20A9
:101850007B681B681A687B681B6822F001021A60AB
:101860007B681B681A687B681B6842F400421A6038
:101870007B681B681A687B681B6822F400421A6048
:1018800001F080F8F8607B685B68814A934207D872
:10189000FB68804A934294BF01230023DBB206E039
:1018A000FB687D4A934294BF01230023DBB2002BE7
:1018B00001D00123E7E0FB68784AA2FB03239B0CDD
:1018C000BB607B681B685B6823F03F017B681B681B
:1018D000BA680A435A607B681B681B6A23F03F01A1
:1018E0007B685B686A4A934202D8BB68013309E0AF
:1018F000BB684FF4967202FB03F3694AA2FB032311
:101900009B0901337A6812680B4313627B681B687A
:10191000DB6923F44F4222F0FF027B685B685C497D
:101920008B4219D8FB68591E7B685B685B00B1FB72
:10193000F3F3591C40F6FC730B40002B0AD0FB68F4
:10194000591E7B685B685B00B1FBF3F30133C3F3A3
:101950000B0351E004234FE07B689B68002B11D1FF
:10196000FB68581E7B6859680B465B000B44B0FB54
:10197000F3F30133C3F30B03002B0CBF012300234C
:10198000DBB212E0FB68581E7B6859680B469B006F
:101990000B4499000B44B0FBF3F30133C3F30B0387
:1019A000002B0CBF01230023DBB2002B01D001234D
:1019B00022E07B689B68002B0ED1FB68581E7B6879
:1019C00059680B465B000B44B0FBF3F30133C3F3E0
:1019D0000B0343F400430FE0FB68581E7B68596813
:1019E0000B469B000B4499000B44B0FBF3F301330F
:1019F000C3F30B0343F44043796809681343CB6195
:101A00007B681B681B6823F0C0017B68DA697B6810
:101A10001B6A1A437B681B680A431A607B681B6851
:101A20009B6823F4034323F0FF037A6811697A6803
:101A3000D26811437A6812680B4393607B681B6815
:101A4000DB6823F0FF017B685A697B689B691A4356
:101A50007B681B680A43DA607B681B681A687B68CE
:101A60001B6842F001021A607B6800221A647B68DE
:101A7000202283F83D207B6800221A637B680022C5
:101A800083F83E20002318461037BD4680BD00BFB6
:101A9000A08601007F841E00FF083D0083DE1B43FB
:101AA000D34D621080B588B002AFF8600846114689
:101AB0001A4603467B810B463B811346FB80FFF7AA
:101AC000E5FB7861FB6893F83D30DBB2202B40F0FA
:101AD000D9807B690093192301226D49F86800F0D1
:101AE00071F90346002B01D00223CCE0FB6893F888
:101AF0003C30012B01D10223C5E0FB68012283F8B1
:101B00003C20FB681B681B6803F00103012B07D016
:101B1000FB681B681A68FB681B6842F001021A60C8
:101B2000FB681B681A68FB681B6822F400621A6075
:101B3000FB68212283F83D20FB68402283F83E2089
:101B4000FB6800221A64FB683A6A5A62FB68BA8C26
:101B50005A85FB685B8D9AB2FB681A85FB684D4A13
:101B6000DA62F8883A8979897B690193BB6A0093C4
:101B70000346F86800F090F80346002B52D001238A
:101B800081E07A69B96AF86800F0F2F90346002B3F
:101B90000DD0FB681B6C042B07D1FB681B681A680F
:101BA000FB681B6842F400721A6001236BE0FB685B
:101BB0005B6A1A78FB681B681A61FB685B6A5A1CCF
:101BC000FB685A62FB681B8D013B9AB2FB681A8561
:101BD000FB685B8D9BB2013B9AB2FB685A85FB6840
:101BE0001B685B6903F00403042B1BD1FB681B8D8E
:101BF000002B17D0FB685B6A1A78FB681B681A61B8
:101C0000FB685B6A5A1CFB685A62FB681B8D013BD0
:101C10009AB2FB681A85FB685B8D9BB2013B9AB256
:101C2000FB685A85FB681B8D002BAAD17A69B96ABB
:101C3000F86800F0DEF90346002B0DD0FB681B6C42
:101C4000042B07D1FB681B681A68FB681B6842F409
:101C500000721A60012316E0FB681B681A68FB68B3
:101C60001B6842F400721A60FB68202283F83D2052
:101C7000FB68002283F83E20FB68002283F83C20AA
:101C8000002300E0022318461837BD4680BD00BF80
:101C9000020010000000FFFF80B588B002AFF860BE
:101CA000084611461A4603467B810B463B81134684
:101CB000FB80FB681B681A68FB681B6842F4807233
:101CC0001A607B6A00933B6A00224FF00111F868AA
:101CD00000F078F80346002B0DD0FB681B681B68EA
:101CE00003F48073B3F5807F03D1FB684FF4007277
:101CF0001A6403235FE07B89DBB21A46FB681B682A
:101D000002F0FE021A617B6A3A6A2D49F86800F017
:101D1000B0F80346002B01D001234CE000237B6187
:101D2000FB681B685B697B61FB681B689B697B6167
:101D30007B697A6A396AF86800F01AF90346002B61
:101D40000DD0FB681B6C042B07D1FB681B681A685D
:101D5000FB681B6842F400721A6001232BE0FB88C9
:101D6000012B05D13B89DAB2FB681B681A6121E0BF
:101D70003B891B0A9BB2DAB2FB681B681A617A6A5C
:101D8000396AF86800F0F4F80346002B0DD0FB68C0
:101D90001B6C042B07D1FB681B681A68FB681B6867
:101DA00042F400721A60012305E03B89DAB2FB6855
:101DB0001B681A61002318461837BD4680BD00BF56
:101DC0000200010080B584B000AFF860B9603B60EC
:101DD0001346FB7125E03B68B3F1FF3F21D0FFF7CD
:101DE00055FA0246BB69D31A3A689A4202D33B6855
:101DF000002B16D1FB6800221A63FB68202283F8AF
:101E00003D20FB68002283F83E20FB681B6C43F0FA
:101E10002002FB681A64FB68002283F83C2001233F
:101E200023E0BB681B0CDBB2012B0DD1FB681B68E8
:101E30005B69DA43BB6813409BB2002B0CBF0123E4
:101E40000023DBB21A460CE0FB681B689B69DA438F
:101E5000BB6813409BB2002B0CBF01230023DBB2F5
:101E60001A46FB799A42B6D0002318461037BD4671
:101E700080BD80B584B000AFF860B9607A603B6027
:101E800051E0FB681B685B6903F48063B3F5806F06
:101E900023D1FB681B681A68FB681B6842F4007258
:101EA0001A60FB681B686FF480625A61FB6800224D
:101EB0001A63FB68202283F83D20FB68002283F828
:101EC0003E20FB681B6C43F00402FB681A64FB684D
:101ED000002283F83C20012346E07B68B3F1FF3FFA
:101EE00021D0FFF7D3F902463B68D31A7A689A42A9
:101EF00002D37B68002B16D1FB6800221A63FB68B3
:101F0000202283F83D20FB68002283F83E20FB68F6
:101F10001B6C43F02002FB681A64FB68002283F804
:101F20003C20012320E0BB681B0CDBB2012B0CD151
:101F3000FB681B685B69DA43BB6813409BB2002BEC
:101F400014BF01230023DBB20BE0FB681B689B6915
:101F5000DA43BB6813409BB2002B14BF012300235C
:101F6000DBB2002B8DD1002318461037BD4680BD53
:101F700080B584B000AFF860B9607A602DE0F86891
:101F800000F078F80346002B01D001232DE0BB6858
:101F9000B3F1FF3F21D0FFF779F902467B68D31AEE
:101FA000BA689A4202D3BB68002B16D1FB680022A4
:101FB0001A63FB68202283F83D20FB68002283F827
:101FC0003E20FB681B6C43F02002FB681A64FB6830
:101FD000002283F83C20012307E0FB681B685B6953
:101FE00003F08003802BCAD1002318461037BD466A
:101FF00080BD80B584B000AFF860B9607A602DE034
:10200000F86800F037F80346002B01D001232DE0DB
:10201000BB68B3F1FF3F21D0FFF738F902467B6878
:10202000D31ABA689A4202D3BB68002B16D1FB6858
:1020300000221A63FB68202283F83D20FB680022FF
:1020400083F83E20FB681B6C43F02002FB681A6497
:10205000FB68002283F83C20012307E0FB681B6833
:102060005B6903F00403042BCAD100231846103720
:10207000BD4680BD80B483B000AF78607B681B68CC
:102080005B6903F48063B3F5806F1BD17B681B68C9
:102090006FF480625A617B6800221A637B68202299
:1020A00083F83D207B68002283F83E207B681B6C10
:1020B00043F004027B681A647B68002283F83C20AA
:1020C000012300E0002318460C37BD465DF8047B71
:1020D0007047000080B483B000AF064B01221A6045
:1020E000054B1B687B607B6800BF0C37BD465DF805
:1020F000047B704720000E420070004080B483B023
:1021000000AF064B00221A60054B1B687B607B68A2
:1021100000BF0C37BD465DF8047B704720000E42BF
:102120000070004080B586B000AF78607B68002BFF
:1021300001D1012367E27B681B6803F00103002BD8
:1021400075D0884B9B6803F00C03042B0CD0854B97
:102150009B6803F00C03082B12D1824B5B6803F4DD
:102160008003B3F5800F0BD17E4B1B6803F4003363
:10217000002B5BD07B685B68002B57D1012342E2C8
:102180007B685B68B3F5803F06D1764B1B68754A68
:1021900043F4803313601DE07B685B68B3F5A02FC8
:1021A0000CD1704B1B686F4A43F4802313606D4B56
:1021B0001B686C4A43F4803313600BE0694B1B6867
:1021C000684A23F480331360664B1B68654A23F426
:1021D000802313607B685B68002B13D0FFF756F8F1
:1021E000386108E0FFF752F802463B69D31A642BC6
:1021F00001D9032307E25B4B1B6803F40033002B78
:10220000F0D014E0FFF742F8386108E0FFF73EF83D
:1022100002463B69D31A642B01D90323F3E1514BE6
:102220001B6803F40033002BF0D100E000BF7B6893
:102230001B6803F00203002B63D04A4B9B6803F03A
:102240000C03002B0BD0474B9B6803F00C03082BAF
:102250001CD1444B5B6803F48003002B16D1414B27
:102260001B6803F00203002B05D07B68DB68012BA1
:1022700001D00123C7E13B4B1B6823F0F8027B68C8
:102280001B69DB00374913430B603AE07B68DB686E
:10229000002B20D0344B01221A60FEF7F7FF386183
:1022A00008E0FEF7F3FF02463B69D31A022B01D97F
:1022B0000323A8E12B4B1B6803F00203002BF0D093
:1022C000284B1B6823F0F8027B681B69DB0025495B
:1022D00013430B6015E0244B00221A60FEF7D6FF73
:1022E000386108E0FEF7D2FF02463B69D31A022BA1
:1022F00001D9032387E11B4B1B6803F00203002B6A
:10230000F0D17B681B6803F00803002B36D07B6894
:102310005B69002B16D0154B01221A60FEF7B6FF41
:10232000386108E0FEF7B2FF02463B69D31A022B80
:1023300001D9032367E10B4B5B6F03F00203002B12
:10234000F0D01BE0094B00221A60FEF79FFF3861B6
:102350000EE0FEF79BFF02463B69D31A022B07D91A
:10236000032350E10038024000004742800E4742FC
:10237000884B5B6F03F00203002BEAD17B681B687C
:1023800003F00403002B00F097800023FB75814BC2
:102390001B6C03F08053002B0FD10023BB607D4BDF
:1023A0001B6C7C4A43F0805313647A4B1B6C03F024
:1023B0008053BB60BB680123FB75774B1B6803F43C
:1023C0008073002B18D1744B1B68734A43F48073DD
:1023D0001360FEF75BFF386108E0FEF757FF024627
:1023E0003B69D31A022B01D903230CE16A4B1B680A
:1023F00003F48073002BF0D07B689B68012B06D11F
:10240000644B1B6F634A43F0010313671CE07B6856
:102410009B68052B0CD15F4B1B6F5E4A43F0040396
:1024200013675C4B1B6F5B4A43F0010313670BE0C0
:10243000584B1B6F574A23F001031367554B1B6F13
:10244000544A23F0040313677B689B68002B15D064
:10245000FEF71CFF38610AE0FEF718FF02463B69F1
:10246000D31A41F28832934201D90323CBE0494B7E
:102470001B6F03F00203002BEED014E0FEF706FF03
:1024800038610AE0FEF702FF02463B69D31A41F2C7
:102490008832934201D90323B5E03E4B1B6F03F012
:1024A0000203002BEED1FB7D012B05D1394B1B6CB8
:1024B000384A23F0805313647B689B69002B00F03B
:1024C000A180344B9B6803F00C03082B5CD07B6825
:1024D0009B69022B41D1314B00221A60FEF7D6FED8
:1024E000386108E0FEF7D2FE02463B69D31A022BA0
:1024F00001D9032387E0274B1B6803F00073002BEF
:10250000F0D17B68DA697B681B6A1A437B685B6A77
:102510009B011A437B689B6A5B08013B1B041A43BF
:102520007B68DB6A1B061B4913434B601B4B012274
:102530001A60FEF7ABFE386108E0FEF7A7FE024620
:102540003B69D31A022B01D903235CE0114B1B68B2
:1025500003F00073002BF0D054E0104B00221A60FF
:10256000FEF794FE386108E0FEF790FE02463B69F4
:10257000D31A022B01D9032345E0064B1B6803F055
:102580000073002BF0D13DE07B689B69012B07D1E4
:10259000012338E0003802400070004060004742EC
:1025A0001B4B5B68FB607B689B69012B28D0FB6839
:1025B00003F480027B68DB699A4221D1FB6803F057
:1025C0003F027B681B6A9A421AD1FA6847F6C073C9
:1025D00013407A68526A9201934211D1FB6803F466
:1025E00040327B689B6A5B08013B1B049A4207D11F
:1025F000FB6803F070627B68DB6A1B069A4201D0BD
:10260000012300E0002318461837BD4680BD00BFF7
:102610000038024080B584B000AF786039607B68D4
:10262000002B01D10123CCE0684B1B6803F00703AA
:102630003A689A420CD9654B3A68D2B21A70634B29
:102640001B6803F007033A689A4201D00123B8E0FF
:102650007B681B6803F00203002B20D07B681B689B
:1026600003F00403002B05D0594B9B68584A43F4F0
:10267000E05393607B681B6803F00803002B05D0D0
:10268000534B9B68524A43F460439360504B9B68A2
:1026900023F0F0027B689B684D4913438B607B6895
:1026A0001B6803F00103002B44D07B685B68012B9F
:1026B00007D1474B1B6803F40033002B19D10123CA
:1026C0007FE07B685B68022B03D07B685B68032B31
:1026D00007D13F4B1B6803F00073002B09D1012386
:1026E0006FE03B4B1B6803F00203002B01D1012379
:1026F00067E0374B9B6823F003027B685B683449D3
:1027000013438B60FEF7C2FDF8600AE0FEF7BEFDE2
:102710000246FB68D31A41F28832934201D903235F
:102720004FE02B4B9B6803F00C027B685B689B00BF
:102730009A42EBD1254B1B6803F007033A689A4293
:102740000CD2224B3A68D2B21A70204B1B6803F0AD
:1027500007033A689A4201D0012332E07B681B6884
:1027600003F00403002B08D0194B9B6823F4E052BC
:102770007B68DB68164913438B607B681B6803F03A
:102780000803002B09D0124B9B6823F460427B683E
:102790001B69DB000E4913438B6000F021F80246F1
:1027A0000B4B9B681B0903F00F030A49CB5C22FA11
:1027B00003F3094A1360094B1B681846FEF744FCF3
:1027C000002318461037BD4680BD00BF003C0240C4
:1027D00000380240D87F00080000002004000020DC
:1027E0002DE9B04F90B000AF00237B630023FB6363
:1027F00000233B630023BB63594B9B6803F00C032E
:10280000082B0DD0082B00F2A180002B02D0042B46
:1028100003D09BE0534BBB639BE0534BBB6398E0FF
:102820004F4B5B6803F03F037B634D4B5B6803F4E6
:102830008003002B28D04A4B5B689B0900223B6237
:102840007A623B6AC3F308000021474B03FB01F2A5
:10285000002300FB03F31344434AA0FB0212FA6275
:102860000A46BA62FA6A1344FB627B6B0022BB61C0
:10287000FA61D7E90623D7E90A01FDF7F9FC024618
:102880000B461346FB6353E0354B5B689B09002204
:102890003B617A613B69C3F3080A4FF0000B524673
:1028A0005B464FF000004FF00001590141EAD26150
:1028B000500102460B46B2EB0A0863EB0B094FF0DE
:1028C00000024FF000034FEA891343EA98634FEA8E
:1028D0008812B2EB080463EB09054FF000024FF0D9
:1028E0000003EB0043EA5473E20014461D4614EB68
:1028F0000A033B6045EB0B037B604FF000024FF097
:102900000003D7E9004529468B02214643EA91534B
:1029100021468A02104619467B6B0022BB60FA6092
:10292000D7E90223FDF7A4FC02460B461346FB63DE
:102930000B4B5B681B0C03F0030301335B003B6331
:10294000FA6B3B6BB2FBF3F3BB6302E0054BBB637B
:1029500000BFBB6B18464037BD46BDE8B08F00BF17
:10296000003802400024F40040787D0180B400AFBC
:10297000034B1B681846BD465DF8047B704700BFDB
:102980000000002080B500AFFFF7F0FF0246054BC6
:102990009B689B0A03F007030349CB5C22FA03F30D
:1029A000184680BD00380240E87F000880B500AFBF
:1029B000FFF7DCFF0246054B9B685B0B03F0070348
:1029C0000349CB5C22FA03F3184680BD003802406D
:1029D000E87F000880B483B000AF786039607B681E
:1029E0000F221A60124B9B6803F003027B685A6047
:1029F0000F4B9B6803F0F0027B689A600C4B9B685E
:102A000003F4E0527B68DA60094B9B68DB0803F44F
:102A1000E0527B681A61074B1B6803F007023B68B2
:102A20001A6000BF0C37BD465DF8047B704700BFDD
:102A300000380240003C024080B582B000AF7860B0
:102A40007B68002B01D1012341E07B6893F83D3086
:102A5000DBB2002B06D17B68002283F83C2078682B
:102A6000FEF762FA7B68022283F83D207B681A68D1
:102A70007B6804331946104600F0AEFD7B680122E6
:102A800083F846207B68012283F83E207B68012280
:102A900083F83F207B68012283F840207B68012275
:102AA00083F841207B68012283F842207B68012261
:102AB00083F843207B68012283F844207B6801224D
:102AC00083F845207B68012283F83D2000231846C7
:102AD0000837BD4680BD000080B485B000AF786087
:102AE0007B6893F83D30DBB2012B01D001234EE02F
:102AF0007B68022283F83D207B681B68DA687B686C
:102B00001B6842F00102DA607B681B68234A93422B
:102B100022D07B681B68B3F1804F1DD07B681B6897
:102B20001F4A934218D07B681B681E4A934213D0F9
:102B30007B681B681C4A93420ED07B681B681B4A4B
:102B4000934209D07B681B68194A934204D07B6882
:102B50001B68184A934211D17B681B689B6803F07D
:102B60000703FB60FB68062B10D07B681B681A68A4
:102B70007B681B6842F001021A6007E07B681B68F3
:102B80001A687B681B6842F001021A60002318462D
:102B90001437BD465DF8047B704700BF000001405C
:102BA0000004004000080040000C00400004014008
:102BB000004001400018004080B582B000AF78604E
:102BC0007B68002B01D1012341E07B6893F83D3005
:102BD000DBB2002B06D17B68002283F83C207868AA
:102BE00000F039F87B68022283F83D207B681A6880
:102BF0007B6804331946104600F0EEFC7B68012226
:102C000083F846207B68012283F83E207B680122FE
:102C100083F83F207B68012283F840207B680122F3
:102C200083F841207B68012283F842207B680122DF
:102C300083F843207B68012283F844207B680122CB
:102C400083F845207B68012283F83D200023184645
:102C50000837BD4680BD80B483B000AF786000BF48
:102C60000C37BD465DF8047B7047000080B584B02A
:102C700000AF786039603B68002B09D17B6893F81E
:102C80003E30DBB2012B14BF01230023DBB222E074
:102C90003B68042B09D17B6893F83F30DBB2012BF2
:102CA00014BF01230023DBB215E03B68082B09D1D8
:102CB0007B6893F84030DBB2012B14BF0123002363
:102CC000DBB208E07B6893F84130DBB2012B14BF24
:102CD00001230023DBB2002B01D001237CE03B6801
:102CE000002B04D17B68022283F83E2013E03B686E
:102CF000042B04D17B68022283F83F200BE03B6861
:102D0000082B04D17B68022283F8402003E07B6813
:102D1000022283F841207B681B680122396818462B
:102D200000F044FF7B681B682D4A934204D07B6807
:102D30001B682C4A934201D1012300E00023002BA1
:102D400007D07B681B685A6C7B681B6842F40042A2
:102D50005A647B681B68224A934222D07B681B68B6
:102D6000B3F1804F1DD07B681B681F4A934218D077
:102D70007B681B681D4A934213D07B681B681C4A02
:102D800093420ED07B681B68164A934209D07B6839
:102D90001B68184A934204D07B681B68164A93420A
:102DA00011D17B681B689B6803F00703FB60FB681D
:102DB000062B10D07B681B681A687B681B6842F082
:102DC00001021A6007E07B681B681A687B681B6851
:102DD00042F001021A60002318461037BD4680BD3C
:102DE00000000140000401400004004000080040D1
:102DF000000C0040004001400018004080B586B043
:102E000000AF786039607B68002B01D1012397E027
:102E10007B6893F83D30DBB2002B06D17B68002243
:102E200083F83C207868FEF719F87B68022283F863
:102E30003D207B681B689B687A68126823F4804396
:102E400023F0070393607B681A687B680433194694
:102E5000104600F0C1FB7B681B689B687B617B6848
:102E60001B689B693B617B681B681B6AFB603B6856
:102E70001B687A6913437B613B6923F4407323F039
:102E800003033B613B689A683B689B691B021343E1
:102E90003A6913433B613B6923F4406323F00C031D
:102EA0003B613B6923F4704323F0F0033B613B68D3
:102EB000DA683B68DB691B0213433A6913433B61E1
:102EC0003B681B691A013B681B6A1B0313433A6981
:102ED00013433B61FB6823F02203FB60FB6823F094
:102EE0008803FB603B685A683B685B691B011343BE
:102EF000FA681343FB607B681B687A699A607B6899
:102F00001B683A699A617B681B68FA681A627B6879
:102F1000012283F846207B68012283F83E207B68EB
:102F2000012283F83F207B68012283F842207B68DE
:102F3000012283F843207B68012283F83D2000238F
:102F400018461837BD4680BD80B584B000AF7860A4
:102F500039607B6893F83E30FB737B6893F83F30B1
:102F6000BB737B6893F842307B737B6893F8433084
:102F70003B733B68002B10D1FB7B012B02D17B7B89
:102F8000012B01D0012369E07B68022283F83E20F7
:102F90007B68022283F8422031E03B68042B10D189
:102FA000BB7B012B02D13B7B012B01D0012355E0E0
:102FB0007B68022283F83F207B68022283F843204B
:102FC0001DE0FB7B012B08D1BB7B012B05D17B7B5B
:102FD000012B02D13B7B012B01D001233EE07B681A
:102FE000022283F83E207B68022283F83F207B6820
:102FF000022283F842207B68022283F843203B6848
:10300000002B03D03B68042B08D00FE07B681B68C3
:1030100001220021184600F0C9FD16E07B681B68FC
:1030200001220421184600F0C1FD0EE07B681B68F8
:1030300001220021184600F0B9FD7B681B680122BF
:103040000421184600F0B2FD00BF7B681B681A68B7
:103050007B681B6842F001021A6000231846103793
:10306000BD4680BD80B582B000AF78607B681B68CC
:103070001B6903F00203022B22D17B681B68DB680B
:1030800003F00203022B1BD17B681B686FF0020266
:103090001A617B6801221A777B681B689B6903F0C1
:1030A0000303002B03D0786800F077FA05E0786816
:1030B00000F069FA786800F07AFA7B6800221A77E3
:1030C0007B681B681B6903F00403042B22D17B6817
:1030D0001B68DB6803F00403042B1BD17B681B68AF
:1030E0006FF004021A617B6802221A777B681B6802
:1030F0009B6903F44073002B03D0786800F04DFA0D
:1031000005E0786800F03FFA786800F050FA7B68D4
:1031100000221A777B681B681B6903F00803082BE1
:1031200022D17B681B68DB6803F00803082B1BD1E6
:103130007B681B686FF008021A617B6804221A77AB
:103140007B681B68DB6903F00303002B03D07868FE
:1031500000F023FA05E0786800F015FA786800F0CE
:1031600026FA7B6800221A777B681B681B6903F0CC
:103170001003102B22D17B681B68DB6803F010035F
:10318000102B1BD17B681B686FF010021A617B68E3
:1031900008221A777B681B68DB6903F44073002BF5
:1031A00003D0786800F0F9F905E0786800F0EBF9F1
:1031B000786800F0FCF97B6800221A777B681B684E
:1031C0001B6903F00103012B0ED17B681B68DB68D0
:1031D00003F00103012B07D17B681B686FF001022C
:1031E0001A617868FDF7AEFD7B681B681B6903F008
:1031F0008003802B0ED17B681B68DB6803F08003A3
:10320000802B07D17B681B686FF080021A61786899
:1032100000F0CAFD7B681B681B6903F04003402B6C
:103220000ED17B681B68DB6803F04003402B07D19D
:103230007B681B686FF040021A61786800F0C1F982
:103240007B681B681B6903F02003202B0ED17B6871
:103250001B68DB6803F02003202B07D17B681B6809
:103260006FF020021A61786800F094FD00BF083703
:10327000BD4680BD80B586B000AFF860B9607A60A9
:103280000023FB75FB6893F83C30012B01D102232E
:10329000AEE0FB68012283F83C207B680C2B00F237
:1032A0009F8001A252F823F0DD320008E1330008CC
:1032B000E1330008E13300081D330008E133000862
:1032C000E1330008E13300085F330008E133000810
:1032D000E1330008E13300089F330008FB681B68F6
:1032E000B968184600F018FAFB681B689A69FB6811
:1032F0001B6842F008029A61FB681B689A69FB68C8
:103300001B6822F004029A61FB681B689969BB681C
:103310001A69FB681B680A439A6164E0FB681B68D2
:10332000B968184600F068FAFB681B689A69FB6880
:103330001B6842F400629A61FB681B689A69FB682B
:103340001B6822F480629A61FB681B689969BB68FC
:103350001B691A02FB681B680A439A6143E0FB6819
:103360001B68B968184600F0BDFAFB681B68DA698B
:10337000FB681B6842F00802DA61FB681B68DA69C7
:10338000FB681B6822F00402DA61FB681B68D969DC
:10339000BB681A69FB681B680A43DA6123E0FB68B3
:1033A0001B68B968184600F011FBFB681B68DA69F6
:1033B000FB681B6842F40062DA61FB681B68DA692B
:1033C000FB681B6822F48062DA61FB681B68D969BC
:1033D000BB681B691A02FB681B680A43DA6102E0DA
:1033E0000123FB7500BFFB68002283F83C20FB7DB6
:1033F00018461837BD4680BD80B584B000AF7860F0
:1034000039600023FB737B6893F83C30012B01D1BA
:103410000223B4E07B68012283F83C207B6802220F
:1034200083F83D207B681B689B68BB60BB6823F00A
:103430007703BB60BB6823F47F43BB607B681B687A
:10344000BA689A603B681B68B3F5005F3ED0B3F57D
:10345000005F00F28780B3F5805F00F08680B3F5EF
:10346000805F7FD8702B1AD0702B7BD8602B50D008
:10347000602B77D8502B3CD0502B73D8402B58D092
:10348000402B6FD8302B64D0302B6BD8202B60D0E2
:10349000202B67D8002B5CD0102B5AD062E07B68C1
:1034A00018683B6899683B685A683B68DB6800F0BD
:1034B0005DFB7B681B689B68BB60BB6843F0770360
:1034C000BB607B681B68BA689A604FE07B681868CD
:1034D0003B6899683B685A683B68DB6800F046FBCC
:1034E0007B681B689A687B681B6842F480429A601C
:1034F0003CE07B6818683B6859683B68DB681A46A3
:1035000000F0BAFA7B681B685021184600F013FBE4
:103510002CE07B6818683B6859683B68DB681A4692
:1035200000F0D9FA7B681B686021184600F003FBA5
:103530001CE07B6818683B6859683B68DB681A4682
:1035400000F09AFA7B681B684021184600F0F3FAF5
:103550000CE07B681A683B681B681946104600F04F
:10356000EAFA03E00123FB7300E000BF7B6801225D
:1035700083F83D207B68002283F83C20FB7B1846C3
:103580001037BD4680BD80B483B000AF786000BF07
:103590000C37BD465DF8047B704780B483B000AF44
:1035A000786000BF0C37BD465DF8047B704780B47F
:1035B00083B000AF786000BF0C37BD465DF8047B78
:1035C000704780B483B000AF786000BF0C37BD4651
:1035D0005DF8047B7047000080B485B000AF786070
:1035E00039607B681B68FB607B68404A934213D05C
:1035F0007B68B3F1804F0FD07B683D4A93420BD07C
:103600007B683C4A934207D07B683B4A934203D095
:103610007B683A4A934208D1FB6823F07003FB6051
:103620003B685B68FA681343FB607B682F4A9342F0
:103630002BD07B68B3F1804F27D07B682C4A934214
:1036400023D07B682B4A93421FD07B682A4A93423F
:103650001BD07B68294A934217D07B68284A934243
:1036600013D07B68274A93420FD07B68264A934247
:103670000BD07B68254A934207D07B68244A93424B
:1036800003D07B68234A934208D1FB6823F440733C
:10369000FB603B68DB68FA681343FB60FB6823F060
:1036A00080023B685B691343FB607B68FA681A60C1
:1036B0003B689A687B68DA623B681A687B689A6242
:1036C0007B680A4A934203D07B680C4A934203D139
:1036D0003B681A697B681A637B6801225A6100BFE4
:1036E0001437BD465DF8047B704700BF0000014001
:1036F0000004004000080040000C004000040140AD
:1037000000400140004401400048014000180040D2
:10371000001C00400020004080B487B000AF7860FB
:1037200039607B681B6A23F001027B681A627B6840
:103730001B6A7B617B685B683B617B689B69FB60A4
:10374000FB6823F07003FB60FB6823F00303FB605E
:103750003B681B68FA681343FB607B6923F0020334
:103760007B613B689B687A6913437B617B68204A75
:10377000934203D07B681F4A93420CD17B6923F0AC
:1037800008037B613B68DB687A6913437B617B6973
:1037900023F004037B617B68154A934203D07B6866
:1037A000144A934211D13B6923F480733B613B6916
:1037B00023F400733B613B685B693A6913433B61E7
:1037C0003B689B693A6913433B617B683A695A607D
:1037D0007B68FA689A613B685A687B685A637B68C1
:1037E0007A691A6200BF1C37BD465DF8047B7047DA
:1037F000000001400004014080B487B000AF786051
:1038000039607B681B6A23F010027B681A627B6850
:103810001B6A7B617B685B683B617B689B69FB60C3
:10382000FB6823F4E043FB60FB6823F44073FB6018
:103830003B681B681B02FA681343FB607B6923F03B
:1038400020037B613B689B681B017A6913437B61A2
:103850007B68224A934203D07B68214A93420DD170
:103860007B6923F080037B613B68DB681B017A691D
:1038700013437B617B6923F040037B617B68174ABC
:10388000934203D07B68164A934213D13B6923F4D9
:1038900080633B613B6923F400633B613B685B6988
:1038A0009B003A6913433B613B689B699B003A6903
:1038B00013433B617B683A695A607B68FA689A6196
:1038C0003B685A687B689A637B687A691A6200BFB2
:1038D0001C37BD465DF8047B704700BF0000014007
:1038E0000004014080B487B000AF786039607B6825
:1038F0001B6A23F480727B681A627B681B6A7B6197
:103900007B685B683B617B68DB69FB60FB6823F07D
:103910007003FB60FB6823F00303FB603B681B68DC
:10392000FA681343FB607B6923F400737B613B6897
:103930009B681B027A6913437B617B68214A93422F
:1039400003D07B68204A93420DD17B6923F4006346
:103950007B613B68DB681B027A6913437B617B698F
:1039600023F480637B617B68164A934203D07B68B3
:10397000154A934213D13B6923F480533B613B6961
:1039800023F400533B613B685B691B013A691343B5
:103990003B613B689B691B013A6913433B617B6850
:1039A0003A695A607B68FA68DA613B685A687B68F2
:1039B000DA637B687A691A6200BF1C37BD465DF81E
:1039C000047B7047000001400004014080B487B0D0
:1039D00000AF786039607B681B6A23F480527B6893
:1039E0001A627B681B6A3B617B685B687B617B68F2
:1039F000DB69FB60FB6823F4E043FB60FB6823F4B6
:103A00004073FB603B681B681B02FA681343FB6052
:103A10003B6923F400533B613B689B681B033A6995
:103A200013433B617B68124A934203D07B68114A7F
:103A3000934209D17B6923F480437B613B685B69D6
:103A40009B017A6913437B617B687A695A607B6862
:103A5000FA68DA613B685A687B681A647B683A697D
:103A60001A6200BF1C37BD465DF8047B704700BF7B
:103A7000000001400004014080B487B000AFF8604E
:103A8000B9607A60FB681B6A7B61FB681B6A23F084
:103A90000102FB681A62FB689B693B613B6923F08A
:103AA000F0033B617B681B013A6913433B617B690F
:103AB00023F00A037B617A69BB6813437B61FB686F
:103AC0003A699A61FB687A691A6200BF1C37BD4681
:103AD0005DF8047B704780B487B000AFF860B960D0
:103AE0007A60FB681B6A23F01002FB681A62FB68AD
:103AF0009B697B61FB681B6A3B617B6923F47043B4
:103B00007B617B681B037A6913437B613B6923F00C
:103B1000A0033B61BB681B013A6913433B61FB682F
:103B20007A699A61FB683A691A6200BF1C37BD4620
:103B30005DF8047B704780B485B000AF7860396071
:103B40007B689B68FB60FB6823F07003FB603A684E
:103B5000FB68134343F00703FB607B68FA689A60D5
:103B600000BF1437BD465DF8047B704780B487B052
:103B700000AFF860B9607A603B60FB689B687B616E
:103B80007B6923F47F437B613B681A027B681A439D
:103B9000BB6813437A6913437B61FB687A699A6057
:103BA00000BF1C37BD465DF8047B704780B487B00A
:103BB00000AFF860B9607A60BB6803F01F030122B0
:103BC00002FA03F37B61FB681A6A7B69DB431A40E4
:103BD000FB681A62FB681A6ABB6803F01F03796806
:103BE00001FA03F31A43FB681A6200BF1C37BD4693
:103BF0005DF8047B7047000080B485B000AF78604A
:103C000039607B6893F83C30012B01D102235AE0E4
:103C10007B68012283F83C207B68022283F83D20E8
:103C20007B681B685B68FB607B681B689B68BB608C
:103C3000FB6823F07003FB603B681B68FA68134362
:103C4000FB607B681B68FA685A607B681B68214AC6
:103C5000934222D07B681B68B3F1804F1DD07B68F4
:103C60001B681D4A934218D07B681B681B4A93420D
:103C700013D07B681B681A4A93420ED07B681B687E
:103C8000184A934209D07B681B68174A934204D0B4
:103C90007B681B68154A93420CD1BB6823F08003F4
:103CA000BB603B685B68BA681343BB607B681B689A
:103CB000BA689A607B68012283F83D207B68002205
:103CC00083F83C20002318461437BD465DF8047B7A
:103CD000704700BF000001400004004000080040A1
:103CE000000C00400004014000400140001800406A
:103CF00080B485B000AF786039600023FB607B68DA
:103D000093F83C30012B01D102233DE07B68012276
:103D100083F83C20FB6823F0FF023B68DB68134319
:103D2000FB60FB6823F440723B689B681343FB60B5
:103D3000FB6823F480623B685B681343FB60FB68AD
:103D400023F400623B681B681343FB60FB6823F4A9
:103D500080523B681B691343FB60FB6823F40052ED
:103D60003B685B691343FB60FB6823F480423B685C
:103D7000DB691343FB607B681B68FA685A647B68E5
:103D8000002283F83C20002318461437BD465DF816
:103D9000047B704780B483B000AF786000BF0C37FD
:103DA000BD465DF8047B704780B483B000AF786097
:103DB00000BF0C37BD465DF8047B704780B582B00C
:103DC00000AF78607B68002B01D101233FE07B6866
:103DD00093F83D30DBB2002B06D17B68002283F8DC
:103DE0003C207868FDF7E8F87B68242283F83D20C2
:103DF0007B681B68DA687B681B6822F40052DA6013
:103E0000786800F029F87B681B681A697B681B6872
:103E100022F490421A617B681B685A697B681B68B0
:103E200022F02A025A617B681B68DA687B681B688B
:103E300042F40052DA607B6800221A647B68202218
:103E400083F83D207B68202283F83E20002318461B
:103E50000837BD4680BD00002DE9B04FC0B000AFAF
:103E6000C7F8F400D7F8F4301B681B6923F44050FE
:103E7000D7F8F430D968D7F8F4301A6840EA01036B
:103E80001361D7F8F4309A68D7F8F4301B691A43F5
:103E9000D7F8F4305B691A43D7F8F430DB69134381
:103EA000C7F8F830D7F8F4301B68DB6823F4164104
:103EB00021F00C01D7F8F4301A68D7F8F8300B432A
:103EC000D360D7F8F4301B685B6923F44070D7F8EF
:103ED000F4309969D7F8F4301A6840EA0103536165
:103EE000D7F8F4301A688F4B9A4205D0D7F8F430DF
:103EF0001A688D4B9A4204D1FEF758FDC7F8FC00B2
:103F000003E0FEF73FFDC7F8FC00D7F8F430DB69AB
:103F1000B3F5004F40F00C81D7F8FC300022C7F811
:103F2000E830C7F8EC20D7E93A4522462B469118ED
:103F3000B9655B41FB65D7E91623214612EB010801
:103F4000294643EB01094FF000024FF000034FEA0E
:103F5000C90343EA58734FEAC8029046994623467C
:103F600018EB0303C7F8E0302B4649EB0303C7F80F
:103F7000E430D7F8F4305B680022C7F8D830C7F8CF
:103F8000DC20D7E936120B46DB183B65134642EBC3
:103F900003037B65D7E91423D7E93801FCF768F9F7
:103FA00002460B46614BA3FB02235B091C01D7F8B9
:103FB000FC300022C7F8D030C7F8D420D7E93489C4
:103FC00042464B469118B9645B41FB64D7E9122322
:103FD000414612EB010A494643EB010B4FF0000248
:103FE0004FF000034FEACB0343EA5A734FEACA0289
:103FF00092469B4643461AEB0303C7F8C8304B462C
:104000004BEB0303C7F8CC30D7F8F4305B680022E1
:10401000C7F8C030C7F8C420D7E930120B46DB1808
:104020003B64134642EB03037B64D7E91023D7E9D3
:104030003201FCF71DF902460B4611463B4BA3FB30
:1040400001235B09642202FB03F3CB1ADB0003F1BB
:104050003202364BA3FB02235B095B0003F4F873C7
:104060001C44D7F8FC300022C7F8B830C7F8BC2091
:10407000D7E92E8942464B469118B9635B41FB63F1
:10408000D7E90E2341465118396349464B417B63BA
:104090004FF000024FF00003D7E90CAB5946CB00BC
:1040A000514643EA51735146CA0010461946034629
:1040B00042469B18C7F8B0304B460A4642EB030312
:1040C000C7F8B430D7F8F4305B680022C7F8A830DE
:1040D000C7F8AC20D7E92A120B46DB18BB6213469F
:1040E00042EB0303FB62D7E90A23D7E92C01FCF773
:1040F000BFF802460B460D4BA3FB02135B0964217C
:1041000001FB03F3D31ADB003233084AA2FB03237B
:104110005B0903F00702D7F8F4301B6822449A6069
:1041200006E100BF00100140001401401F85EB5163
:10413000D7F8FC300022C7F8A030C7F8A420D7E990
:10414000288942464B46911839625B417B62D7E928
:10415000082341465418494643EB01054FF000023D
:104160004FF00003EB0043EA5473E20014461D468F
:104170004346E318C7F898304B4645EB0303C7F8AE
:104180009C30D7F8F4305B680022C7F89030C7F84D
:1041900094204FF000024FF00003D7E92445294650
:1041A0008B00214643EA917321468A00D7E9260114
:1041B000FCF75EF802460B46604BA3FB02235B094B
:1041C0001C01D7F8FC300022C7F88830C7F88C20D3
:1041D000D7E9228942464B469118B9615B41FB61A0
:1041E000D7E9062341465118396149464B417B6165
:1041F0004FF000024FF00003D7E904AB5946CB0063
:10420000514643EA51735146CA00104619460346C7
:1042100042469B18C7F880304B460A4642EB0303E0
:10422000C7F88430D7F8F4305B680022BB67FA67C0
:104230004FF000024FF00003D7E91E8949468B007A
:10424000414643EA917341468A00D7E92001FCF7D1
:104250000FF802460B461146384BA3FB01235B09BE
:10426000642202FB03F3CB1A1B013233334AA2FB55
:1042700003235B0903F0F0031C44D7F8FC30002251
:104280003B677A67D7E91C8942464B469118B9606B
:104290005B41FB60D7E9022341465118396049462A
:1042A0004B417B604FF000024FF00003D7E900ABB9
:1042B0005946CB00514643EA51735146CA00104655
:1042C0001946034642469B18BB664B460A4642EBDC
:1042D0000303FB66D7F8F4305B6800223B667A661E
:1042E0004FF000024FF00003D7E9188949468B00D0
:1042F000414643EA917341468A00D7E91A01FBF728
:10430000B7FF02460B460D4BA3FB02135B0964216A
:1043100001FB03F3D31A1B013233084AA2FB032328
:104320005B0903F00F02D7F8F4301B6822449A604F
:1043300000BF07F58077BD46BDE8B08F1F85EB5104
:1043400080B483B000AF03463960FB7197F9073042
:10435000002B0ADB3B68DAB20C4997F907301201EF
:10436000D2B20B4483F800230AE03B68DAB2084972
:10437000FB7903F00F03043B1201D2B20B441A760F
:1043800000BF0C37BD465DF8047B704700E100E0DC
:1043900000ED00E080B500AF054B1B6801F0FEFCAE
:1043A0000346012B01D002F0E7FA00BF80BD00BF39
:1043B00010E000E080B500AF00216FF00400FFF7CF
:1043C000BFFF00BF80BD000080B483B000AFEFF33B
:1043D00005833B603B68002B03D06FF005037B60D7
:1043E0000CE00A4B1B68002B05D1084B01221A6018
:1043F00000237B6002E04FF0FF337B607B68184650
:104400000C37BD465DF8047B704700BF20020020DA
:1044100080B582B000AFEFF305833B603B68002BB3
:1044200003D06FF005037B6010E00B4B1B68012B82
:1044300009D1FFF7BFFF084B02221A6001F066F8AE
:1044400000237B6002E04FF0FF337B607B681846FF
:104450000837BD4680BD00BF2002002080B58EB069
:1044600004AFF860B9607A6000233B61EFF3058325
:104470007B617B69002B7ED1FB68002B7BD0802386
:104480003B621823FB6100237B624FF0FF33BB616B
:104490007B68002B45D07B681B68002B02D07B68B3
:1044A0001B687B627B689B69002B02D07B689B69E1
:1044B000FB61FB69002B08D0FB69382B05D87B68B2
:1044C0005B6803F00103002B01D0002354E07B68FC
:1044D0005B69002B03D07B685B699B083B627B6850
:1044E0009B68002B0ED07B68DB685B2B0AD97B684E
:1044F0001B69002B06D07B685B69002B02D001236F
:10450000BB6110E07B689B68002B0CD17B68DB688B
:10451000002B08D17B681B69002B04D10023BB61F1
:1045200001E00023BB61BB69012B10D17B681B69D3
:104530007A68926802920193FB690093BB683A6AB9
:10454000796AF86800F00CFE03463B6113E0BB6932
:10455000002B10D13B6A9AB207F110030193FB695B
:104560000093BB68796AF86800F057FE0346012B98
:1045700001D000233B613B6918462837BD4680BD0A
:1045800080B584B000AF7860EFF30583BB60BB6893
:10459000002B03D06FF00503FB6007E00023FB60F6
:1045A0007B68002B02D0786800F07CFFFB6818461F
:1045B0001037BD4680BD000080B485B000AFF86004
:1045C000B9607A60FB68074A1A60BB68064A1A60DD
:1045D0007B6880221A6000BF1437BD465DF8047BFB
:1045E000704700BF240200208002002080B485B004
:1045F00000AFF860B9607A60FB68074A1A60BB6870
:10460000064A1A607B684FF480721A6000BF143744
:10461000BD465DF8047B704780040020DC04002068
:1046200080B483B000AF78607B6803F108027B68D8
:104630005A607B684FF0FF329A607B6803F1080292
:104640007B68DA607B6803F108027B681A617B682B
:1046500000221A6000BF0C37BD465DF8047B70472E
:1046600080B483B000AF78607B6800221A6100BF1D
:104670000C37BD465DF8047B704780B485B000AF51
:10468000786039607B685B68FB603B68FA685A60F9
:10469000FB689A683B689A60FB689B683A685A6056
:1046A000FB683A689A603B687A681A617B681B68A5
:1046B0005A1C7B681A6000BF1437BD465DF8047B46
:1046C000704780B485B000AF786039603B681B6884
:1046D000BB60BB68B3F1FF3F03D17B681B69FB6024
:1046E0000CE07B680833FB6002E0FB685B68FB6002
:1046F000FB685B681B68BA689A42F6D2FB685A6826
:104700003B685A603B685B683A689A603B68FA6845
:104710009A60FB683A685A603B687A681A617B68FD
:104720001B685A1C7B681A6000BF1437BD465DF8D1
:10473000047B704780B485B000AF78607B681B69EC
:10474000FB607B685B687A6892689A607B689B68AC
:104750007A6852685A60FB685B687A689A4203D14B
:104760007B689A68FB685A607B6800221A61FB6864
:104770001B685A1EFB681A60FB681B6818461437D2
:10478000BD465DF8047B704780B584B000AF7860AB
:1047900039607B68FB60FB68002B0AD14FF0500347
:1047A00083F31188BFF36F8FBFF34F8FBB6000BFE0
:1047B000FEE702F04FF8FB681A68FB68DB6BF968EC
:1047C000096C01FB03F31A44FB689A60FB68002242
:1047D0009A63FB681A68FB685A60FB681A68FB6892
:1047E000DB6B013BF968096C01FB03F31A44FB68BE
:1047F000DA60FB68FF2283F84420FB68FF2283F81D
:1048000045203B68002B14D1FB681B69002B1AD094
:10481000FB681033184601F003F90346002B12D051
:104820000C4B4FF080521A60BFF34F8FBFF36F8F66
:1048300009E0FB6810331846FFF7F2FEFB682433EB
:104840001846FFF7EDFE02F035F801231846103741
:10485000BD4680BD04ED00E080B58EB002AFF860CB
:10486000B9607A603B60FB68002B0AD14FF05003BF
:1048700083F31188BFF36F8FBFF34F8FBB6200BF0D
:10488000FEE73B68002B0AD14FF0500383F31188F9
:10489000BFF36F8FBFF34F8F7B6200BFFEE77B6874
:1048A000002B02D0BB68002B01D0012300E00023C5
:1048B000002B0AD14FF0500383F31188BFF36F8FA1
:1048C000BFF34F8F3B6200BFFEE77B68002B02D136
:1048D000BB68002B01D1012300E00023002B0AD18B
:1048E0004FF0500383F31188BFF36F8FBFF34F8FE7
:1048F000FB6100BFFEE750237B617B69502B0AD030
:104900004FF0500383F31188BFF36F8FBFF34F8FC6
:10491000BB6100BFFEE77B693B68FB62FB6A002B63
:104920000DD0FB6A012283F8462097F83820FB6AF5
:10493000009313467A68B968F86800F005F8FB6AD6
:1049400018463037BD4680BD80B584B000AFF860F2
:10495000B9607A60FB70BB68002B03D1BB69BA6990
:104960001A6002E0BB697A681A60BB69FA68DA63A8
:10497000BB69BA681A640121B869FFF705FFBB6912
:10498000FA7883F84C2000BF1037BD4680BD000088
:1049900080B58EB000AFF860B9607A603B600023EC
:1049A0007B63FB683B633B6B002B0AD14FF05003EA
:1049B00083F31188BFF36F8FBFF34F8FBB6200BFCC
:1049C000FEE7BB68002B03D13B6B1B6C002B01D1B6
:1049D000012300E00023002B0AD14FF0500383F3A2
:1049E0001188BFF36F8FBFF34F8F7B6200BFFEE76D
:1049F0003B68022B03D13B6BDB6B012B01D1012305
:104A000000E00023002B0AD14FF0500383F31188FC
:104A1000BFF36F8FBFF34F8F3B6200BFFEE701F024
:104A2000BDF90346002B02D17B68002B01D1012385
:104A300000E00023002B0AD14FF0500383F31188CC
:104A4000BFF36F8FBFF34F8FFB6100BFFEE701F035
:104A500001FF3B6B9A6B3B6BDB6B9A4202D33B686B
:104A6000022B29D13A68B968386B00F00BFAF8626A
:104A70003B6B5B6A002B10D03B6B2433184600F075
:104A8000CFFF0346002B13D03F4B4FF080521A60EC
:104A9000BFF34F8FBFF36F8F0AE0FB6A002B07D085
:104AA000394B4FF080521A60BFF34F8FBFF36F8FB7
:104AB00001F000FF012363E07B68002B03D101F0CC
:104AC000F9FE00235CE07B6B002B06D107F1140399
:104AD000184601F009F801237B6301F0EBFE00F0BA
:104AE0007BFD01F0B7FE3B6B93F844305BB2B3F152
:104AF000FF3F03D13B6B002283F844203B6B93F8CC
:104B000045305BB2B3F1FF3F03D13B6B002283F82A
:104B1000452001F0CFFE3A1D07F114031146184657
:104B200000F0F8FF0346002B24D1386B00F0A2FA06
:104B30000346002B18D03B6B10337A681146184699
:104B400000F01EFF386B00F02DFA00F053FD034615
:104B5000002B7FF47CAF0C4B4FF080521A60BFF3F8
:104B60004F8FBFF36F8F72E7386B00F01BFA00F0C6
:104B700041FD6CE7386B00F015FA00F03BFD0023B7
:104B800018463837BD4680BD04ED00E080B590B0D2
:104B900000AFF860B9607A603B60FB68BB63BB6BD9
:104BA000002B0AD14FF0500383F31188BFF36F8FAE
:104BB000BFF34F8FBB6200BFFEE7BB68002B03D182
:104BC000BB6B1B6C002B01D1012300E00023002BE9
:104BD0000AD14FF0500383F31188BFF36F8FBFF3F7
:104BE0004F8F7B6200BFFEE73B68022B03D1BB6B9C
:104BF000DB6B012B01D1012300E00023002B0AD144
:104C00004FF0500383F31188BFF36F8FBFF34F8FC3
:104C10003B6200BFFEE701F0FFFEEFF311824FF0B1
:104C2000500383F31188BFF36F8FBFF34F8FFA6187
:104C3000BB61FB697B63BB6B9A6BBB6BDB6B9A42A3
:104C400002D33B68022B2FD1BB6B93F8453087F81A
:104C50003330BB6B9B6BFB623A68B968B86B00F092
:104C600011F997F93330B3F1FF3F12D1BB6B5B6A97
:104C7000002B16D0BB6B2433184600F0D1FE034640
:104C8000002B0ED07B68002B0BD07B6801221A60B2
:104C900007E097F833300133DBB25AB2BB6B83F8CD
:104CA00045200123FB6301E00023FB637B6B7B61F9
:104CB0007B6983F3118800BFFB6B18464037BD4604
:104CC00080BD000080B58CB000AFF860B9607A603C
:104CD0000023FB62FB68BB62BB6A002B0AD14FF06A
:104CE000500383F31188BFF36F8FBFF34F8F3B6285
:104CF00000BFFEE7BB68002B03D1BB6A1B6C002B17
:104D000001D1012300E00023002B0AD14FF0500312
:104D100083F31188BFF36F8FBFF34F8FFB6100BF29
:104D2000FEE701F03BF80346002B02D17B68002B25
:104D300001D1012300E00023002B0AD14FF05003E2
:104D400083F31188BFF36F8FBFF34F8FBB6100BF39
:104D5000FEE701F07FFDBB6A9B6B7B627B6A002BE9
:104D60001FD0B968B86A00F0F7F87B6A5A1EBB6AB0
:104D70009A63BB6A1B69002B0FD0BB6A10331846BD
:104D800000F04EFE0346002B07D03D4B4FF0805203
:104D90001A60BFF34F8FBFF36F8F01F08BFD0123BC
:104DA00069E07B68002B03D101F084FD002362E001
:104DB000FB6A002B06D107F11003184600F094FEA1
:104DC0000123FB6201F076FD00F006FC01F042FDDC
:104DD000BB6A93F844305BB2B3F1FF3F03D1BB6AC7
:104DE000002283F84420BB6A93F845305BB2B3F1EC
:104DF000FF3F03D1BB6A002283F8452001F05AFD32
:104E00003A1D07F110031146184600F083FE0346D1
:104E1000002B23D1B86A00F017F90346002B17D0F6
:104E2000BB6A24337A681146184600F0A9FDB86AB7
:104E300000F0B8F800F0DEFB0346002B89D1104BE0
:104E40004FF080521A60BFF34F8FBFF36F8F80E730
:104E5000B86A00F0A7F800F0CDFB7AE7B86A00F076
:104E6000A1F800F0C7FBB86A00F0EEF80346002B8B
:104E70003FF46FAF002318463037BD4680BD00BFFA
:104E800004ED00E080B586B000AFF860B9607A60EC
:104E900000237B61FB689B6B3B61FB681B6C002BF9
:104EA0000DD1FB681B68002B4DD1FB689B68184631
:104EB00000F092FF7861FB6800229A6043E07B6813
:104EC000002B19D1FB685868FB681B6C1A46B9683F
:104ED00002F00AFBFB685A68FB681B6C1A44FB680B
:104EE0005A60FB685A68FB689B689A422BD3FB6840
:104EF0001A68FB685A6026E0FB68D868FB681B6C80
:104F00001A46B96802F0F0FAFB68DA68FB681B6CB5
:104F10005B421A44FB68DA60FB68DA68FB681B686E
:104F20009A4207D2FB689A68FB681B6C5B421A4482
:104F3000FB68DA607B68022B05D13B69002B02D04D
:104F40003B69013B3B613B695A1CFB689A637B6987
:104F500018461837BD4680BD80B582B000AF786076
:104F600039607B681B6C002B18D07B68DA687B6823
:104F70001B6C1A447B68DA607B68DA687B689B6824
:104F80009A4203D37B681A687B68DA607B68D968C9
:104F90007B681B6C1A46386802F0A6FA00BF083717
:104FA000BD4680BD80B584B000AF786001F052FC92
:104FB0007B6893F84530FB7311E07B685B6A002BDC
:104FC00012D07B682433184600F02AFD0346002BDC
:104FD00001D000F001FEFB7B013BDBB2FB7397F9D4
:104FE0000F30002BE9DC00E000BF7B68FF2283F874
:104FF000452001F05FFC01F02DFC7B6893F8443004
:10500000BB7311E07B681B69002B12D07B681033E7
:10501000184600F005FD0346002B01D000F0DCFD32
:10502000BB7B013BDBB2BB7397F90E30002BE9DC95
:1050300000E000BF7B68FF2283F8442001F03AFCC7
:1050400000BF1037BD4680BD80B584B000AF78602A
:1050500001F000FC7B689B6B002B02D10123FB60FD
:1050600001E00023FB6001F025FCFB6818461037C7
:10507000BD4680BD80B584B000AF786001F0EAFB2A
:105080007B689A6B7B68DB6B9A4202D10123FB60E1
:1050900001E00023FB6001F00DFCFB6818461037AF
:1050A000BD4680BD80B485B000AF78603960002314
:1050B000FB6014E00F4AFB6852F83330002B0BD131
:1050C0000C49FB683A6841F833200A4AFB68DB0068
:1050D00013447A685A6006E0FB680133FB60FB68A2
:1050E000072BE7D900BF00BF1437BD465DF8047B2E
:1050F000704700BFDC08002080B586B000AFF860C4
:10510000B9607A60FB687B6101F0A4FB7B6993F86E
:1051100044305BB2B3F1FF3F03D17B69002283F8D7
:1051200044207B6993F845305BB2B3F1FF3F03D174
:105130007B69002283F8452001F0BCFB7B699B6BF7
:10514000002B06D17B6924337A68B968184600F0D1
:105150003BFC7869FFF726FF00BF1837BD4680BDCE
:1051600080B58EB004AFF860B9607A603B607B6B4D
:10517000002B0AD14FF0500383F31188BFF36F8FD8
:10518000BFF34F8F3B6200BFFEE7BB6B002B0AD122
:105190004FF0500383F31188BFF36F8FBFF34F8F2E
:1051A000FB6100BFFEE75C233B613B695C2B0AD0DF
:1051B0004FF0500383F31188BFF36F8FBFF34F8F0E
:1051C000BB6100BFFEE73B69BB6B002B1ED07B6B56
:1051D000002B1BD0BB6B7B627B6A7A6B1A637B6A8A
:1051E000022283F85920002303937B6A029307F17C
:1051F000140301933B6B00933B687A68B968F868C5
:1052000000F050F8786A00F0DDF801E000237B61DF
:105210007B6918462837BD4680BD80B58CB004AF89
:10522000F860B9603B601346FB80FB889B00184622
:1052300001F032FC78617B69002B0ED05C2001F01C
:105240002BFCF861FB69002B03D0FB697A691A63B8
:1052500005E0786901F0ECFC01E00023FB61FB69EB
:10526000002B17D0FB69002283F85920FA8800230D
:105270000393FB690293FB6A0193BB6A00933B684B
:10528000B968F86800F00EF8F86900F09BF801239F
:10529000BB6102E04FF0FF33BB61BB6918462037AA
:1052A000BD4680BD80B588B000AFF860B9607A6057
:1052B0003B603B6B186B7B689B001A46A52102F094
:1052C000DFF83B6B1A6B7B6803F18043013B9B006B
:1052D0001344BB61BB6923F00703BB61BB6903F0E7
:1052E0000703002B0AD04FF0500383F31188BFF35C
:1052F0006F8FBFF34F8F7B6100BFFEE7BB68002B52
:105300001FD00023FB6112E0BA68FB6913441978CF
:105310003A6BFB69134434330A461A70BA68FB6966
:1053200013441B78002B06D0FB690133FB61FB693A
:105330000F2BE9D900E000BF3B6B002283F843202C
:1053400003E03B6B002283F83420BB6A372B01D982
:105350003723BB623B6BBA6ADA623B6BBA6ADA64C8
:105360003B6B00221A653B6B04331846FFF778F954
:105370003B6B18331846FFF773F93B6B3A6B1A61B6
:10538000BB6AC3F138023B6B9A613B6B3A6B5A6262
:105390003B6B00225A653B6B002283F858203A6829
:1053A000F968B86901F028F902463B6B1A60FB6A9C
:1053B000002B02D0FB6A3A6B1A6000BF2037BD4653
:1053C00080BD000080B582B000AF786001F042FA85
:1053D0002D4B1B6801332C4A13602C4B1B68002B90
:1053E00009D12A4A7B681360274B1B68012B10D117
:1053F00000F016FC0DE0264B1B68002B09D1234B57
:105400001B68DA6A7B68DB6A9A4202D81F4A7B68AB
:105410001360204B1B6801331E4A13601D4B1A6832
:105420007B685A647B68DA6A1B4B1B689A4203D913
:105430007B68DB6A184A13607B68DA6A13469B0054
:1054400013449B00154A1A447B68043319461046DE
:10545000FFF713F901F02EFA0D4B1B68002B0ED04D
:105460000A4B1B68DA6A7B68DB6A9A4207D20C4BEC
:105470004FF080521A60BFF34F8FBFF36F8F00BFA2
:105480000837BD4680BD00BFF00D00201C0900207C
:10549000FC0D00200C0E0020F80D0020200900203B
:1054A00004ED00E080B584B000AF78600023FB60BD
:1054B0007B68002B17D0134B1B68002B0AD04FF0D2
:1054C000500383F31188BFF36F8FBFF34F8FBB601F
:1054D00000BFFEE700F080F80021786800F0EAFCE9
:1054E00000F088F8F860FB68002B07D1064B4FF0FE
:1054F00080521A60BFF34F8FBFF36F8F00BF10371A
:10550000BD4680BD180E002004ED00E080B58AB0D5
:1055100004AF0023BB6000237B603A46391D07F1CE
:1055200008031846FFF748F839687B68BA680292A2
:1055300001930023009300230A4621492148FFF7E5
:105540000FFE0346204A13601F4B1B68002B02D03E
:1055500001237B6101E000237B617B69012B02D188
:1055600000F0FCFC78617B69012B16D14FF05003F1
:1055700083F31188BFF36F8FBFF34F8F3B6100BF81
:10558000124B4FF0FF321A60114B01221A60114B7F
:1055900000221A6001F0BCF80EE07B69B3F1FF3F16
:1055A0000AD14FF0500383F31188BFF36F8FBFF31D
:1055B0004F8FFB6000BFFEE700BF1837BD4680BDC0
:1055C000347E0008F15B0008140E0020100E00204D
:1055D000FC0D0020F40D002080B400AF044B1B68CC
:1055E0000133034A136000BFBD465DF8047B70477A
:1055F000180E002080B584B000AF0023FB600023AC
:10560000BB60424B1B68002B0AD14FF0500383F361
:105610001188BFF36F8FBFF34F8F3B6000BFFEE772
:1056200001F018F9394B1B68013B384A1360374BBE
:105630001B68002B62D1364B1B68002B5ED02FE01D
:10564000344BDB68DB68FB60FB6818331846FFF7F8
:1056500071F8FB6804331846FFF76CF8FB68DA6AE8
:105660002D4B1B689A4203D9FB68DB6A2A4A1360F8
:10567000FB68DA6A13469B0013449B00274A1A44CE
:10568000FB68043319461046FEF7F7FFFB68DA6A39
:10569000234B1B68DB6A9A4202D3224B01221A6019
:1056A0001C4B1B68002BCBD1FB68002B01D000F0FA
:1056B00055FB1D4B1B687B607B68002B10D000F0F6
:1056C00047F80346002B02D0164B01221A607B6874
:1056D000013B7B607B68002BF1D1134B00221A60E9
:1056E000104B1B68002B09D00123BB600F4B4FF000
:1056F00080521A60BFF34F8FBFF36F8F01F0DAF85B
:10570000BB6818461037BD4680BD00BF180E00208C
:10571000F00D0020B00D0020F80D00202009002021
:105720001C090020040E0020000E002004ED00E003
:1057300080B483B000AF054B1B687B607B68184664
:105740000C37BD465DF8047B704700BFF40D0020A8
:1057500080B586B000AF00237B614F4B1B68002BE8
:1057600040F08F804D4B1B6801333B614B4A3B69D6
:1057700013603B69002B20D1494B1B681B68002B31
:105780000AD04FF0500383F31188BFF36F8FBFF33C
:105790004F8F3B6000BFFEE7414B1B68FB60414BF6
:1057A0001B683F4A13603F4AFB6813603E4B1B680F
:1057B00001333D4A136000F0D1FA3C4B1B683A6953
:1057C0009A4249D3364B1B681B68002B04D1374BD8
:1057D0004FF0FF321A603FE0314B1B68DB68DB683B
:1057E000BB60BB685B687B603A697B689A4203D2A6
:1057F0002E4A7B6813602FE0BB6804331846FEF71F
:1058000099FFBB689B6A002B04D0BB68183318460D
:10581000FEF790FFBB68DA6A254B1B689A4203D9F2
:10582000BB68DB6A224A1360BB68DA6A13469B00D6
:1058300013449B001F4A1A44BB68043319461046A0
:10584000FEF71BFFBB68DA6A1B4B1B68DB6A9A42D8
:10585000B8D301237B61B5E7174B1B68DA6A15499A
:1058600013469B0013449B000B441B68012B01D97A
:1058700001237B61114B1B68002B07D001237B6147
:1058800004E00F4B1B6801330D4A13607B69184617
:105890001837BD4680BD00BF180E0020F40D002053
:1058A000A80D0020AC0D0020080E0020100E0020D6
:1058B000F80D0020200900201C090020040E002003
:1058C000000E002080B485B000AF284B1B68002B71
:1058D00003D0274B01221A6041E0254B00221A60B9
:1058E000244B1B68FB6010E0FB68002B0AD14FF0D3
:1058F000500383F31188BFF36F8FBFF34F8F7B602B
:1059000000BFFEE7FB68013BFB601B49FA681346DA
:105910009B0013449B000B441B68002BE4D0FA68E7
:1059200013469B0013449B00134A1344BB60BB689F
:105930005B685A68BB685A60BB685A68BB680833C2
:105940009A4204D1BB685B685A68BB685A60BB68FE
:105950005B68DB68094A1360064AFB68136000BF96
:105960001437BD465DF8047B704700BF180E002059
:10597000040E0020F80D0020200900201C09002042
:1059800080B584B000AF786039607B68002B0AD1A5
:105990004FF0500383F31188BFF36F8FBFF34F8F26
:1059A000FB6000BFFEE7074B1B6818331946786899
:1059B000FEF787FE0121386800F07CFA00BF10373F
:1059C000BD4680BD1C09002080B586B000AFF860E0
:1059D000B9607A60FB68002B0AD14FF0500383F363
:1059E0001188BFF36F8FBFF34F8F7B6100BFFEE75E
:1059F0000A4B1B6818331946F868FEF73EFE7B68B1
:105A0000002B02D04FF0FF33BB607968B86800F01C
:105A100051FA00BF1837BD4680BD00BF1C090020E9
:105A200080B586B000AF78607B68DB68DB683B617F
:105A30003B69002B0AD14FF0500383F31188BFF369
:105A40006F8FBFF34F8FFB6000BFFEE73B691833DA
:105A50001846FEF76FFE1E4B1B68002B1DD13B69DD
:105A600004331846FEF766FE3B69DA6A194B1B6879
:105A70009A4203D93B69DB6A164A13603B69DA6ACA
:105A800013469B0013449B00134A1A443B6904339A
:105A900019461046FEF7F1FD05E03B69183319463B
:105AA0000E48FEF7EAFD3B69DA6A0D4B1B68DB6ABC
:105AB0009A4205D901237B610A4B01221A6001E059
:105AC00000237B617B6918461837BD4680BD00BF47
:105AD000180E0020F80D002020090020B00D002035
