:020000040800F2
:10000000000002201D6E0008116D0008176D000829
:100010001D6D0008236D0008296D00080000000018
:1000200000000000000000000000000091E7000850
:100030002F6D000800000000E1E900086DC4000811
:100040006D6E00086D6E00086D6E00086D6E000824
:100050006D6E00086D6E00086D6E00086D6E000814
:100060006D6E00086D6E00086D6E00086D6E000804
:100070006D6E00086D6E00086D6E00086D6E0008F4
:100080006D6E00086D6E00086D6E00086D6E0008E4
:100090006D6E00086D6E00086D6E00086D6E0008D4
:1000A0006D6E00086D6E00086D6E00083D6D0008F5
:1000B0006D6E0008516D0008656D00086D6E0008DA
:1000C0006D6E00086D6E00086D6E00086D6E0008A4
:1000D0006D6E00086D6E00086D6E0008796D000889
:1000E0006D6E00086D6E00086D6E00086D6E000884
:1000F0006D6E00086D6E00086D6E00086D6E000874
:100100006D6E00086D6E00086D6E00086D6E000863
:100110006D6E00086D6E00086D6E00086D6E000853
:100120006D6E00086D6E00086D6E00086D6E000843
:100130006D6E00086D6E00086D6E00086D6E000833
:100140006D6E00086D6E00086D6E00086D6E000823
:100150006D6E00086D6E00086D6E00086D6E000813
:100160006D6E00086D6E00086D6E00086D6E000803
:100170006D6E00086D6E00086D6E000800000000D6
:080180006D6E00086D6E0008B1
:1001900010B5054C237833B9044B13B10448AFF3C1
:1001A00000800123237010BDA40100200000000086
:1001B0002400010808B5034B1BB103490348AFF302
:1001C000008008BD00000000A801002024000108F4
:1001D00001F0FF01102A2BDB10F0070F08D010F8F8
:1001E000013B013A8B422DD010F0070F42B3F6D1FC
:1001F000F0B441EA012141EA014122F007047FF015
:1002000000070023F0E80256083C85EA010586EA6B
:10021000010685FA47F5A3FA87F586FA47F6A5FAA7
:1002200087F68EB9EED1F0BC01F0FF0102F00702B3
:1002300032B110F8013B013A83EA010313B1F8D15E
:100240000020704701387047002D06BF354603383F
:10025000073815F0010F07D1013015F4807F02BF78
:10026000013015F4C03F0130F0BC0138704700BFC9
:1002700081F0004102E000BF83F0004330B54FEA57
:1002800041044FEA430594EA050F08BF90EA020FC4
:100290001FBF54EA000C55EA020C7FEA645C7FEA57
:1002A000655C00F0E2804FEA5454D4EB5555B8BF7A
:1002B0006D420CDD2C4480EA020281EA030382EAEB
:1002C000000083EA010180EA020281EA0303362D7D
:1002D00088BF30BD11F0004F4FEA01314FF4801C50
:1002E0004CEA113102D0404261EB410113F0004F62
:1002F0004FEA03334CEA133302D0524263EB430319
:1003000094EA050F00F0A780A4F10104D5F1200EB6
:100310000DDB02FA0EFC22FA05F2801841F1000111
:1003200003FA0EF2801843FA05F359410EE0A5F1E5
:1003300020050EF1200E012A03FA0EFC28BF4CF016
:10034000020C43FA05F3C01851EBE37101F00045CC
:1003500007D54FF0000EDCF1000C7EEB00006EEBD9
:100360000101B1F5801F1BD3B1F5001F0CD3490863
:100370005FEA30004FEA3C0C04F101044FEA4452BA
:1003800012F5800F80F09A80BCF1004F08BF5FEA41
:10039000500C50F1000041EB045141EA050130BD21
:1003A0005FEA4C0C404141EB0101013C28BFB1F533
:1003B000801FE9D291F0000F04BF01460020B1FA7E
:1003C00081F308BF2033A3F10B03B3F120020CDA51
:1003D0000C3208DD02F1140CC2F10C0201FA0CF02F
:1003E00021FA02F10CE002F11402D8BFC2F1200C94
:1003F00001FA02F120FA0CFCDCBF41EA0C0190404A
:10040000E41AA2BF01EB0451294330BD6FEA040492
:100410001F3C1CDA0C340EDC04F11404C4F120027D
:1004200020FA04F001FA02F340EA030021FA04F38F
:1004300045EA030130BDC4F10C04C4F1200220FAE6
:1004400002F001FA04F340EA0300294630BD21FA24
:1004500004F0294630BD94F0000F83F4801306BFEA
:1004600081F480110134013D4EE77FEA645C18BFDE
:100470007FEA655C29D094EA050F08BF90EA020F75
:1004800005D054EA000C04BF1946104630BD91EA6D
:10049000030F1EBF0021002030BD5FEA545C05D170
:1004A0004000494128BF41F0004130BD14F58004AF
:1004B0003CBF01F5801130BD01F0004545F0FE4123
:1004C00041F470014FF0000030BD7FEA645C1ABF58
:1004D000194610467FEA655C1CBF0B46024650EA8F
:1004E000013406BF52EA033591EA030F41F40021BB
:1004F00030BD00BF90F0000F04BF0021704730B541
:100500004FF4806404F132044FF000054FF0000115
:1005100050E700BF90F0000F04BF0021704730B5D6
:100520004FF4806404F1320410F0004548BF4042AB
:100530004FF000013EE700BF42004FEAE2014FEA00
:1005400031014FEA02701FBF12F07F4393F07F4FDB
:1005500081F06051704732F07F4208BF704793F0DE
:100560007F4F04BF41F40021704730B54FF46074F1
:1005700001F0004521F000411CE700BF50EA0102F4
:1005800008BF704730B54FF000050AE050EA01029D
:1005900008BF704730B511F0004502D5404261EB0D
:1005A00041014FF4806404F132045FEA915C3FF44E
:1005B000D8AE4FF003025FEADC0C18BF03325FEAEB
:1005C000DC0C18BF033202EBDC02C2F1200300FA9C
:1005D00003FC20FA02F001FA03FE40EA0E0021FAC1
:1005E00002F11444BDE600BF70B54FF0FF0C4CF4AF
:1005F000E06C1CEA11541DBF1CEA135594EA0C0F61
:1006000095EA0C0F00F0DEF82C4481EA030621EA9B
:100610004C5123EA4C5350EA013518BF52EA0335D6
:1006200041F4801143F4801338D0A0FB02CE4FF088
:100630000005E1FB02E506F00042E0FB03E54FF0B8
:100640000006E1FB03569CF0000F18BF4EF0010EB0
:10065000A4F1FF04B6F5007F64F5407404D25FEAAC
:100660004E0E6D4146EB060642EAC62141EA55515F
:100670004FEAC52040EA5E504FEACE2EB4F1FD0CA1
:1006800088BFBCF5E06F1ED8BEF1004F08BF5FEA1F
:10069000500E50F1000041EB045170BD06F00046D1
:1006A00046EA010140EA020081EA0301B4EB5C047E
:1006B000C2BFD4EB0C0541EA045170BD41F4801176
:1006C0004FF0000E013C00F3AB8014F1360FDEBF9B
:1006D000002001F0004170BDC4F10004203C35DA77
:1006E0000C341BDC04F11404C4F1200500FA05F3FA
:1006F00020FA04F001FA05F240EA020001F000429B
:1007000021F0004110EBD37021FA04F642EB060110
:100710005EEA430E08BF20EAD37070BDC4F10C043A
:10072000C4F1200500FA04F320FA05F001FA04F2FE
:1007300040EA020001F0004110EBD37041F10001EA
:100740005EEA430E08BF20EAD37070BDC4F12005F5
:1007500000FA05F24EEA020E20FA04F301FA05F25D
:1007600043EA020321FA04F001F0004121FA04F205
:1007700020EA020000EBD3705EEA430E08BF20EAD5
:10078000D37070BD94F0000F0FD101F0004640000F
:1007900041EB010111F4801F08BF013CF7D041EA91
:1007A000060195F0000F18BF704703F00046520095
:1007B00043EB030313F4801F08BF013DF7D043EA66
:1007C0000603704794EA0C0F0CEA135518BF95EA1C
:1007D0000C0F0CD050EA410618BF52EA4306D1D1A3
:1007E00081EA030101F000414FF0000070BD50EAC2
:1007F000410606BF1046194652EA430619D094EA4C
:100800000C0F02D150EA013613D195EA0C0F05D135
:1008100052EA03361CBF104619460AD181EA030189
:1008200001F0004141F0FE4141F470014FF0000041
:1008300070BD41F0FE4141F4780170BD70B54FF0DC
:10084000FF0C4CF4E06C1CEA11541DBF1CEA13555C
:1008500094EA0C0F95EA0C0F00F0A7F8A4EB05043E
:1008600081EA030E52EA03354FEA013100F0888035
:100870004FEA03334FF0805545EA131343EA1263FE
:100880004FEA022245EA111545EA10654FEA0026B3
:100890000EF000419D4208BF964244F1FD0404F56C
:1008A000407402D25B084FEA3202B61A65EB0305C8
:1008B0005B084FEA32024FF480104FF4002CB6EB85
:1008C000020E75EB030E22BFB61A754640EA0C0005
:1008D0005B084FEA3202B6EB020E75EB030E22BF45
:1008E000B61A754640EA5C005B084FEA3202B6EB86
:1008F000020E75EB030E22BFB61A754640EA9C0045
:100900005B084FEA3202B6EB020E75EB030E22BF14
:10091000B61A754640EADC0055EA060E18D04FEAD2
:10092000051545EA16754FEA06164FEAC30343EA72
:1009300052734FEAC2025FEA1C1CC0D111F4801F3F
:100940000BD141EA00014FF000004FF0004CB6E738
:1009500011F4801F04BF01430020B4F1FD0C88BFD7
:10096000BCF5E06F3FF6AFAEB5EB030C04BFB6EBE2
:10097000020C5FEA500C50F1000041EB045170BDD5
:100980000EF0004E4EEA113114EB5C04C2BFD4EB02
:100990000C0541EA045170BD41F480114FF0000E86
:1009A000013C90E645EA060E8DE60CEA135594EA02
:1009B0000C0F08BF95EA0C0F3FF43BAF94EA0C0F05
:1009C0000AD150EA01347FF434AF95EA0C0F7FF47A
:1009D00025AF104619462CE795EA0C0F06D152EACE
:1009E00003353FF4FDAE1046194622E750EA4106B2
:1009F00018BF52EA43067FF4C5AE50EA41047FF4C3
:100A00000DAF52EA43057FF4EBAE12E74FF0FF3C27
:100A100006E000BF4FF0010C02E000BF4FF0010CF8
:100A20004DF804CD4FEA410C7FEA6C5C4FEA430C71
:100A300018BF7FEA6C5C1BD001B050EA410C0CBFC0
:100A400052EA430C91EA030F02BF90EA020F002022
:100A5000704710F1000F91EA030F58BF994208BF89
:100A600090422CBFD8176FEAE37040F00100704746
:100A70004FEA410C7FEA6C5C02D150EA013C07D19D
:100A80004FEA430C7FEA6C5CD6D152EA033CD3D0E8
:100A90005DF8040B704700BF8446104662468C46E2
:100AA0001946634600E000BF01B5FFF7B7FF002815
:100AB00048BF10F1000F01BD4DF808EDFFF7F4FF3E
:100AC0000CBF012000205DF808FB00BF4DF808EDC9
:100AD000FFF7EAFF34BF012000205DF808FB00BFEC
:100AE0004DF808EDFFF7E0FF94BF012000205DF80E
:100AF00008FB00BF4DF808EDFFF7CEFF94BF0120C3
:100B000000205DF808FB00BF4DF808EDFFF7C4FFBB
:100B100034BF012000205DF808FB00BF4A0011D25D
:100B200012F5001211D20DD56FF47873B3EB625247
:100B30000ED44FEAC12343F0004343EA505323FA53
:100B400002F070474FF00000704750EA013002D1C8
:100B50004FF0FF3070474FF0000070474FEA4102FE
:100B6000B2F1E04324BFB3F5001CDCF1FE5C0DD90B
:100B700001F0004C4FEAC0024CEA5070B2F1004F55
:100B800040EB830008BF20F00100704711F0804F58
:100B900021D113F13872BCBF01F00040704741F41D
:100BA00080114FEA5252C2F11802C2F1200C10FA21
:100BB0000CF320FA02F018BF40F001004FEAC12305
:100BC0004FEAD32303FA0CFC40EA0C0023FA02F3A9
:100BD0004FEA4303CCE77FEA625307D150EA01337F
:100BE0001EBF4FF0FE4040F44000704701F000404F
:100BF00040F0FE4040F40000704700BF53B94AB9CE
:100C0000002908BF00281CBF4FF0FF314FF0FF3014
:100C100000F070B9ADF1080C6DE904CE00F006F8F3
:100C2000DDF804E0DDE9022304B070472DE9F04768
:100C3000089E0D4604460F46002B4AD18A42944630
:100C400065D9B2FA82F343B102FA03FCC3F1200280
:100C50009F4020FA02F217439C404FEA1C4E1FFAB5
:100C60008CF5B7FBFEF1220C0EFB117742EA07422E
:100C700001FB05F090420AD91CEB020201F1FF379B
:100C800080F01C81904240F2198102396244121AAC
:100C9000A4B2B2FBFEF00EFB102244EA024400FBB9
:100CA00005F5A5420AD91CEB040400F1FF3280F0DF
:100CB0000781A54240F204816444023840EA0140C1
:100CC000641B00211EB1DC400023C6E90043BDE8DF
:100CD000F0878B4208D9002E00F0ED800021C6E994
:100CE00000050846BDE8F087B3FA83F1002949D131
:100CF000AB4202D3824200F2F880841A65EB030211
:100D000001201746002EE2D0C6E90047DFE702B90E
:100D1000FFDEB2FA82F3002B40F090808A1A4FEA8D
:100D20001C471FFA8CFE0121B2FBF7F507FB1520CB
:100D3000220C42EA00420EFB05F0904208D91CEB5F
:100D4000020205F1FF3802D2904200F2CB80454604
:100D5000121AA4B2B2FBF7F007FB102244EA0244D5
:100D60000EFB00FEA64508D91CEB040400F1FF327F
:100D700002D2A64500F2BB801046A4EB0E0440EA66
:100D800005409FE7C1F120078B4022FA07FC4CEA9F
:100D9000030C05FA01F420FA07F3FD404FEA1C4961
:100DA0002343B5FBF9F81FFA8CFE09FB18551C0C00
:100DB00044EA054408FB0EF5A54202FA01F200FAE6
:100DC00001F00BD91CEB040408F1FF3A80F0888095
:100DD000A54240F28580A8F102086444641B9DB2DC
:100DE000B4FBF9F309FB134445EA044403FB0EFE8C
:100DF000A64508D91CEB040403F1FF356CD2A645C7
:100E00006AD9023B644443EA0843A3FB0295A4EB7E
:100E10000E04AC42C846AE4656D353D056B1B0EBE2
:100E2000080264EB0E0404FA07F7CA40CC401743EB
:100E3000C6E9007418460021BDE8F087C3F120011F
:100E400002FA03FC20FA01F225FA01F19D402A433F
:100E50004FEA1C471FFA8CFEB1FBF7F007FB101599
:100E6000110C41EA054100FB0EF58D4204FA03F432
:100E700008D91CEB010100F1FF382FD28D422DD98A
:100E800002386144491B92B2B1FBF7F507FB15111B
:100E900042EA014205FB0EF1914208D91CEB020225
:100EA00005F1FF3816D2914214D9023D6244521A1C
:100EB00045EA004138E73146304608E73946E6E67C
:100EC0001046FBE64845A9D2B9EB020865EB0C0ECB
:100ED000013BA3E74546EAE72B4694E74046D1E7C6
:100EE000D0467BE7023D624432E708460AE76444A5
:100EF000023842E7704700BF80B582B000AF05F00E
:100F0000B7FF00F0A3F900F03DFD00F011FD00F087
:100F10009FFA00F063FC00F067FB00F0C7FA00F0F6
:100F2000B7FB00F025FC00F0EFF900F03FFA0EF0FF
:100F300035FB0023032200217F480EF058F80C21D6
:100F40007E4808F019FD00217D4808F015FD0421B8
:100F50007B4808F011FD3C217A4809F0ABF87A4B48
:100F60001B789BB21A46794979480AF0BCFA79484D
:100F700008F0D0FB0421784808F020FE6F4B1B6876
:100F800091221A644FF4967005F0B4FF734B6422FB
:100F90001A70724B0A225A80714B00221A70704BE1
:100FA00000225A706F4B1A786D4B9A7000237B6049
:100FB0000CE064233B7000237B80694A7B689B00C4
:100FC00013443A685A607B6801337B60654B1B7839
:100FD0001A467B689342ECDB9FED631ADFED630AF0
:100FE0009FED630A634801F0B9FA9FED5F1ADFEDE8
:100FF0005F0A9FED5F0A604801F0B0FA9FED5F1A4B
:10100000DFED5F0A9FED5F0A5F4801F0A7FA4E4BE4
:101010001B789BB21A464D494D480AF064FA474B7B
:101020001B6891221A644FF4967005F063FF0BF071
:1010300037FA564A002156480BF07CFA0346554AC7
:101040001360554A002155480BF074FA0346544A80
:101050001360544A002154480BF06CFA0346534A7B
:101060001360534A002153480BF064FA0346524A76
:101070001360524A002152480BF05CFA0346514A71
:101080001360514A002151480BF054FA0346504A6C
:101090001360504A002150480BF04CFA03464F4A67
:1010A00013604F4A00214F480BF044FA03464E4A62
:1010B00013604E4A00214E480BF03CFA03464D4A5D
:1010C00013604D4A00214D480BF034FA03464C4A58
:1010D00013604C4A00214C480BF02CFA03464B4A53
:1010E00013604B4A00214B480BF024FA03464A4A4E
:1010F00013604A4A00214A480BF01CFA0346494A49
:101100001360494A002149480BF014FA0346484A43
:101110001360484A002148480BF00CFA0346474A3E
:101120001360474A002147480BF004FA0346464A39
:1011300013600BF0D9F9FEE750020020A402002052
:10114000C4030020EC0200200000002090040020D6
:101150000C0400207C03002034030020D004002075
:101160009C04002001000020CDCC4C3FEC51383DC8
:10117000666606401C050020080500209A99993EE5
:10118000CDCC4C3DCDCC8C3F300500200C0101086E
:101190007943000850040020300101088943000809
:1011A0005404002054010108094400085804002098
:1011B000780101085D4600085C0400209C010108DC
:1011C0008548000860040020C0010108914C000817
:1011D00064040020E4010108A9500008680400200C
:1011E00008020108B55400086C0400202C02010814
:1011F000C558000870040020500201082D5F000847
:10120000740400207402010825600008780400209E
:10121000980201080D6200087C040020BC0201084D
:10122000F162000880040020E0020108D563000894
:101230008404002004030108E564000888040020F9
:1012400028030108E16500088C04002080B594B0F3
:1012500000AF07F120033022002118460EF05EFA9D
:1012600007F10C0300221A605A609A60DA601A6172
:101270000023BB60224B1B6C214A43F08053136454
:101280001F4B1B6C03F08053BB60BB6800237B606B
:101290001C4B1B681B4A43F480431360194B1B68AB
:1012A00003F480437B607B6802233B620123FB6283
:1012B00010233B630023BB6307F12003184607F0AC
:1012C0004FFD0346002B01D005F032FA0F23FB60DF
:1012D00000233B6100237B610023BB610023FB6192
:1012E00007F10C030021184607F0B2FF0346002B5C
:1012F00001D005F01DFA00BF5037BD4680BD00BFCC
:10130000003802400070004080B584B000AF3B461A
:1013100000221A605A609A60DA60214B214A1A60F2
:101320001F4B00225A601E4B00229A601C4B002269
:101330001A611B4B00221A76194B002283F82020D9
:10134000174B0022DA62164B174A9A62144B00229E
:10135000DA60134B0122DA61114B002283F830204E
:101360000F4B01225A610E4805F0E8FD0346002BA1
:1013700001D005F0DDF90B233B6001237B600023E6
:10138000BB603B461946064805F0BAFF0346002BF2
:1013900001D005F0CDF900BF1037BD4680BD00BFBC
:1013A000C0010020002001400100000F80B584B082
:1013B00000AF3B4600221A605A609A60DA60214B07
:1013C000214A1A601F4B00225A601E4B00229A606D
:1013D0001C4B00221A611B4B00221A76194B00226B
:1013E00083F82020174B0022DA62164B174A9A62C4
:1013F000144B0022DA60134B0122DA61114B0022F8
:1014000083F830200F4B01225A610E4805F096FDFB
:101410000346002B01D005F08BF90C233B60012320
:101420007B600023BB603B461946064805F068FF19
:101430000346002B01D005F07BF900BF1037BD46F5
:1014400080BD00BF08020020002101400100000F04
:1014500080B500AF124B134A1A60114B124A5A6002
:101460000F4B00229A600E4B0022DA600C4B4FF4B7
:1014700080421A610A4B00225A61094B00229A618C
:10148000074B0022DA61064B00221A62044806F07C
:101490007FFC0346002B01D005F04AF900BF80BD58
:1014A0005002002000540040A086010080B596B094
:1014B00000AF07F1480300221A605A609A60DA60B0
:1014C00007F1400300221A605A6007F1240300224A
:1014D0001A605A609A60DA601A615A619A613B1D1B
:1014E0002022002118460EF019F93D4B3D4A1A60A2
:1014F0003B4BA0225A603A4B00229A60384B4FF483
:101500007A72DA60364B00221A61354B00225A613A
:10151000334B80229A61324808F0ACF80346002B26
:1015200001D005F005F94FF48053BB6407F148037F
:1015300019462B4809F0B2F80346002B01D005F0FC
:10154000F7F8274808F0BEF90346002B01D005F054
:10155000EFF800233B6400237B6407F14003194646
:101560001F4809F0FFFD0346002B01D005F0E0F80D
:1015700060237B620023BB620023FB6200237B634A
:101580000023BB630023FB6307F124030C221946ED
:10159000134808F0C1FF0346002B01D005F0C8F83E
:1015A00000237B600023BB600023FB6000233B61C2
:1015B00000237B614FF40053BB6100233B623B1D62
:1015C0001946074809F04AFE0346002B01D005F0F2
:1015D000AFF8034805F0BAFA00BF5837BD4680BDE2
:1015E000A40200200000014080B58CB000AF07F1DC
:1015F0000C032422002118460EF090F83B1D002217
:101600001A605A60214B4FF080421A601F4B002233
:101610005A601E4B00229A601C4B4FF6FF72DA6034
:101620001A4B00221A61194B00229A610323FB60B6
:1016300000233B6101237B610023BB610A23FB6123
:1016400000233B6201237B620023BB620A23FB620F
:1016500007F10C0319460D4808F086FC0346002BE1
:1016600001D005F065F800237B600023BB603B1DC3
:101670001946064809F076FD0346002B01D005F017
:1016800057F800BF3037BD4680BD00BFEC020020D8
:1016900080B58AB000AF07F1180300221A605A60C3
:1016A0009A60DA6007F1100300221A605A603B4624
:1016B00000221A605A609A60DA602B4B2B4A1A603B
:1016C000294B0F225A60284B00229A60264B4FF676
:1016D000FF72DA60244B00221A61234B00229A61C8
:1016E000214807F0C7FF0346002B01D005F020F882
:1016F0004FF48053BB6107F1180319461A4808F0EC
:10170000CDFF0346002B01D005F012F8164808F073
:10171000FBF90346002B01D005F00AF800233B61DA
:1017200000237B6107F1100319460F4809F01AFDE9
:101730000346002B01D004F0FBFF0A233B6001238A
:101740007B600023BB600023FB603B4604221946FC
:10175000054808F045FE0346002B01D004F0E8FFE1
:1017600000BF2837BD4680BD340300200004004080
:1017700080B582B000AF3B4600221A605A60154B1C
:10178000154A1A60134B0F225A60124B00229A60BE
:10179000104B4FF6FF72DA600E4B00229A610D4833
:1017A00007F068FF0346002B01D004F0C1FF0023BF
:1017B0003B6000237B603B461946064809F0D2FC9B
:1017C0000346002B01D004F0B3FF00BF0837BD462D
:1017D00080BD00BF7C0300200010004080B596B0A3
:1017E00000AF07F1480300221A605A609A60DA607D
:1017F00007F1400300221A605A6007F12403002217
:101800001A605A609A60DA601A615A619A613B1DE7
:101810002022002118460DF081FF434B434A1A60F5
:10182000414B00225A60404B00229A603E4B41F6E9
:101830001F42DA603C4B00221A613B4B00225A6186
:10184000394B00229A61384807F014FF0346002BF9
:1018500001D004F06DFF4FF48053BB6407F14803DF
:101860001946314808F01AFF0346002B01D004F056
:101870005FFF2D4808F026F80346002B01D004F046
:1018800057FF00233B6400237B6407F140031946A4
:10189000254809F067FC0346002B01D004F048FFFF
:1018A00060237B620023BB620023FB6200233B6357
:1018B00000237B630023BB630023FB6307F1240346
:1018C00000221946184808F027FE0346002B01D0D5
:1018D00004F02EFF07F1240304221946124808F0F1
:1018E0001BFE0346002B01D004F022FF00237B6087
:1018F0000023BB600023FB6000233B6100237B616E
:101900004FF40053BB6100233B623B1D1946064860
:1019100009F0A4FC0346002B01D004F009FF00BF2E
:101920005837BD4680BD00BFC403002000040140FD
:1019300080B500AF114B124A1A60104B4FF4E132E0
:101940005A600E4B00229A600C4B0022DA600B4B5F
:1019500000221A61094B0C225A61084B00229A613D
:10196000064B0022DA61054809F0DEFC0346002B35
:1019700001D004F0DDFE00BF80BD00BF0C040020DC
:101980000048004080B58AB000AF07F11403002280
:101990001A605A609A60DA601A6100233B61384B22
:1019A0001B6B374A43F010031363354B1B6B03F07B
:1019B00010033B613B690023FB60314B1B6B304ADA
:1019C00043F0040313632E4B1B6B03F00403FB6013
:1019D000FB680023BB602A4B1B6B294A43F00103C1
:1019E0001363274B1B6B03F00103BB60BB68002331
:1019F0007B60234B1B6B224A43F002031363204B93
:101A00001B6B03F002037B607B6800224FF45E6176
:101A10001C4806F0A3F900223C211B4806F09EF961
:101A20004FF45E637B610123BB610023FB610023F4
:101A30003B6207F114031946124805F0F3FF0C232B
:101A40007B610123BB610023FB6102233B6207F141
:101A5000140319460C4805F0E5FF30237B61012390
:101A6000BB610023FB6100233B6207F114031946AD
:101A7000054805F0D7FF00BF2837BD4680BD00BF31
:101A80000038024000100240000002400000000048
:101A900080B582B000AF78607B681B7F022B40F07E
:101AA0008C804B4B1B78002B1AD10421786808F0EE
:101AB000BDFE0346474A1360454B01221A707B68FE
:101AC0001B681A6A7B681B6822F0A0021A627B6896
:101AD0001B681A6A7B681B6842F020021A626CE07D
:101AE0003B4B1B78012B68D10421786808F09EFEDF
:101AF0000346394A13607B681B6800225A62364BE2
:101B00001A68344B1B689A420CD9334B1A68314B14
:101B10001B68D31A07EE903AF8EE677A2F4BC3EDA5
:101B2000007A14E02B4B1A682B4B1B689A420ED993
:101B3000294B1A68274B1B68D31A03F57F43FF33E1
:101B400007EE903AF8EE677A244BC3ED007A234B08
:101B50001B681846FEF7F0FC1BA3D3E90023FEF731
:101B600043FD02460B46104619464FF000024FF067
:101B70008043FEF763FE02460B4610461946FEF709
:101B8000EDFF0346154A1360114B00221A707B6863
:101B90001B681A6A7B681B6822F0A0021A627B68C5
:101BA0001A687B681B68126A1A620D4B1B68DA6838
:101BB0000B4B1B6822F00402DA6000BF0837BD46F9
:101BC00080BD00BFAFF300809CC420B07268A13F0D
:101BD000640500205C0500206005002058050020F9
:101BE0003403002080B584B000AF7860954B9B78BB
:101BF000A3F1300213469B0013445B001A46914B3D
:101C0000DB78303B1344FB608E4B1B792F2B0ED9B6
:101C10008C4B1B79392B0AD8FA6813469B00134466
:101C20005B001A46874B1B79303B1344FB60864BA5
:101C300000221A70834B1B78532B5AD1814B5B784F
:101C4000542B56D1814B1B6800225A637F4B1B6873
:101C500000229A637E4B1A787E4B1A707C4B1022BE
:101C60001A707D4B4FF000021A607C4B00221A80E4
:101C70007B4800F094FC7B4800F091FC7A4800F02F
:101C80008EFC7A4B00221A80794B1A78784B5B785D
:101C90009A4213D1774B64221A70764B00225A80F5
:101CA000754A0F2175480DF005FD4FF6FF730622AA
:101CB0007349744809F085FB00F013BC6C4B5B78EA
:101CC0006C4A6B499B000B445B681360684B5B7804
:101CD0000133674A927893FBF2F101FB02F29B1AFF
:101CE000DAB2634B5A70684A0F2164480DF0E2FC87
:101CF000F7E3544B1B78522B61D1524B5B78532B3B
:101D00005DD1524B1B6800225A63504B1B68002266
:101D10009A634F4B1A784F4B1A704D4B10221A7022
:101D20004D4B4FF000021A604C4B00221A80574B6B
:101D30001B6891221A644FF4967005F0DBF848484E
:101D400000F02DFC474800F02AFC474800F027FC33
:101D5000464B00221A80464B1A78454B5B789A42D4
:101D600012D1444B64221A70424B00225A80424ADC
:101D70000F2142480DF09EFC4FF6FF7306224049AA
:101D8000404809F01EFBACE3394B5B78394A3849CF
:101D90009B000B445B681360354B5B780133344A1E
:101DA000927893FBF2F101FB02F29B1ADAB2304B0C
:101DB0005A70354A0F2131480DF07CFC91E3214BDC
:101DC0001B78462B66D11F4B5B78572B03D01D4BDE
:101DD0005B78532B5ED11B4B9B782D2B05D1194B78
:101DE000DB782D2B01D1012300E00023DAB2164B62
:101DF0001A70144B5B78532B14BF01230023DBB202
:101E00001A46234B1A701A4B1B78194A9B0013442D
:101E100001221A71164B1B78FA6891B2144A9B0082
:101E200013440A46DA80124B1B780133104A927829
:101E300093FBF2F101FB02F29B1ADAB20C4B1A701F
:101E40004FE300BF90040020E4040020C4030020FE
:101E50003401002035010020EC040020F2040020B1
:101E60001C0500200805002030050020000500208A
:101E70009C040020D0040020DC000108D4040020D1
:101E8000E40001080C040020EC000108A40200207A
:101E900036010020964B1B78422B3DD1944B5B784A
:101EA000572B03D0924B5B78532B35D1904B9B78BB
:101EB0002D2B05D18E4BDB782D2B01D1012300E09A
:101EC0000023DAB28B4B1A70894B5B78532B14BF0B
:101ED00001230023DBB21A46874B1A70874B1B780D
:101EE000864A9B00134402221A71844B1B78FA68BD
:101EF00091B2824A9B0013440A46DA807F4B1B78DA
:101F000001337E4A927893FBF2F101FB02F29B1AB5
:101F1000DAB27A4B1A70E4E2754B1B78462B36D155
:101F2000734B5B784C2B32D1714B9B782D2B05D1A9
:101F30006F4BDB782D2B01D1012300E00023DAB2B7
:101F40006C4B1A706B4B1B78002B01D0032100E007
:101F500007216A4B1B78694A9B0013440A461A7191
:101F6000664B1B78FA6891B2644A9B0013440A4698
:101F7000DA80624B1B780133604A927893FBF2F16E
:101F800001FB02F29B1ADAB25C4B1A70A9E2584BC1
:101F90001B78462B36D1564B5B78522B32D1544BA3
:101FA0009B782D2B05D1524BDB782D2B01D10123B2
:101FB00000E00023DAB24F4B1A704E4B1B78002B17
:101FC00001D0042100E008214C4B1B784B4A9B00B8
:101FD00013440A461A71494B1B78FA6891B2474A72
:101FE0009B0013440A46DA80444B1B780133434A72
:101FF000927893FBF2F101FB02F29B1ADAB23F4BAB
:102000001A706EE23A4B1B78422B36D1384B5B7814
:102010004C2B32D1364B9B782D2B05D1344BDB78B2
:102020002D2B01D1012300E00023DAB2314B1A70CD
:10203000304B1B78002B01D0052100E009212F4BEC
:102040001B782E4A9B0013440A461A712B4B1B78AF
:10205000FA6891B2294A9B0013440A46DA80274B5A
:102060001B780133254A927893FBF2F101FB02F2CF
:102070009B1ADAB2214B1A7033E21D4B1B78422BAC
:102080003ED11B4B5B78522B3AD1194B9B782D2BB1
:1020900005D1174BDB782D2B01D1012300E0002364
:1020A000DAB2144B1A70134B1B78002B01D00621A7
:1020B00000E00A21114B1B78104A9B0013440A468A
:1020C0001A710E4B1B78FA6891B20C4A9B001344AC
:1020D0000A46DA80094B1B780133084A927893FB51
:1020E000F2F101FB02F29B1ADAB2044B1A70F8E12A
:1020F00090040020E4040020360100209C0400200D
:10210000974B1B78542B21D1954B5B784C2B1DD1D1
:10211000944B1B78934A9B0013440B221A71914BEA
:102120001B78FA6891B28F4A9B0013440A46DA8002
:102130008C4B1B7801338B4A927893FBF2F101FBB5
:1021400002F29B1ADAB2874B1A70CAE1844B1B78F1
:10215000542B21D1824B5B78522B1DD1814B1B78A4
:10216000804A9B0013440C221A717E4B1B78FA683C
:1021700091B27C4A9B0013440A46DA80794B1B7863
:102180000133784A927893FBF2F101FB02F29B1A39
:10219000DAB2744B1A70A4E1714B1B78442B21D135
:1021A0006F4B5B78542B1DD16E4B1B786D4A9B0097
:1021B00013440E221A716B4B1B78FA6891B2694A6C
:1021C0009B0013440A46DA80664B1B780133654A4C
:1021D000927893FBF2F101FB02F29B1ADAB2614BA7
:1021E0001A707EE15E4B1B78542B21D15C4B5B78DF
:1021F000442B1DD15B4B1B785A4A9B0013440F2282
:102200001A71584B1B78FA6891B2564A9B001344D6
:102210000A46DA80534B1B780133524A927893FB7B
:10222000F2F101FB02F29B1ADAB24E4B1A7058E13E
:102230004B4B1B78462B21D1494B5B78412B1DD151
:10224000484B1B78474A9B00134458221A71454B50
:102250001B78FA6891B2434A9B0013440A46DA801D
:10226000404B1B7801333F4A927893FBF2F101FB1C
:1022700002F29B1ADAB23B4B1A7032E1384B1B78F0
:10228000462B21D1364B5B78432B1DD1354B1B7828
:10229000344A9B00134459221A71324B1B78FA6856
:1022A00091B2304A9B0013440A46DA802D4B1B78CA
:1022B00001332C4A927893FBF2F101FB02F29B1A54
:1022C000DAB2284B1A700CE1254B1B78422B21D136
:1022D000234B5B78412B1DD1224B1B78214A9B005D
:1022E00013445A221A711F4B1B78FA6891B21D4A87
:1022F0009B0013440A46DA801A4B1B780133194AB3
:10230000927893FBF2F101FB02F29B1ADAB2154BC1
:102310001A70E6E0124B1B78422B25D1104B5B78EC
:10232000432B21D10F4B1B780E4A9B0013445B2299
:102330001A710C4B1B78FA6891B20A4A9B0013443D
:102340000A46DA80074B1B780133064A927893FBE2
:10235000F2F101FB02F29B1ADAB2024B1A70C0E0F2
:10236000900400209C040020754B1B78542B21D135
:10237000734B5B78412B1DD1724B1B78714A9B00CC
:1023800013445C221A716F4B1B78FA6891B26D4A44
:102390009B0013440A46DA806A4B1B780133694A72
:1023A000927893FBF2F101FB02F29B1ADAB2654BD1
:1023B0001A7096E0624B1B78492B21D1604B5B78F9
:1023C000522B1DD15F4B1B785E4A9B0013445D224C
:1023D0001A715C4B1B78FA6891B25A4A9B001344FD
:1023E0000A46DA80574B1B780133564A927893FBA2
:1023F000F2F101FB02F29B1ADAB2524B1A7070E052
:102400004F4B1B78492B21D14D4B5B78432B1DD172
:102410004C4B1B784B4A9B0013445E221A71494B6C
:102420001B78FA6891B2474A9B0013440A46DA8047
:10243000444B1B780133434A927893FBF2F101FB42
:1024400002F29B1ADAB23F4B1A704AE03C4B1B78FF
:10245000542B21D13A4B5B78422B1DD1394B1B7841
:10246000384A9B0013445F221A71364B1B78FA6876
:1024700091B2344A9B0013440A46DA80314B1B78F0
:102480000133304A927893FBF2F101FB02F29B1A7E
:10249000DAB22C4B1A7024E0294B1B78472B20D141
:1024A000274B5B78482B1CD1264B1B78254A9B0079
:1024B000134460221A71234B1B78FA6891B2214AA7
:1024C0009B0013440A46DA801E4B1B7801331D4AD9
:1024D000927893FBF2F101FB02F29B1ADAB2194BEC
:1024E0001A70184B1A78174B5B789A4219D0154B13
:1024F0005B78154A13499B000B445B681360114BD2
:102500005B7801330F4A927893FBF2F101FB02F200
:102510009B1ADAB20B4B5A700C4A0F210C480DF083
:10252000C9F80C4B1B685B680B4B1B789BB21A46B7
:102530000349084808F0D7FF00BF1037BD4680BDEB
:10254000900400209C040020D0040020EC0001082E
:10255000D40400200C0400200000002080B485B0CA
:1025600000AFF86087ED020AC7ED010A87ED001A97
:10257000FB68BA681A60FB687A685A60FB683A6858
:102580009A60FB684FF00002DA60FB684FF00002CF
:102590001A6100BF1437BD465DF8047B704780B4F4
:1025A00083B000AF78607B684FF00002DA607B6830
:1025B0004FF000021A6100BF0C37BD465DF8047B86
:1025C0007047000080B500AF00224FF400611A4848
:1025D00005F0C4FB194B1B6800225A62174B1B689D
:1025E0005B6A312BFAD901224FF40061124805F0E1
:1025F000B5FB124B1B6800225A62104B1B685B6ACA
:10260000092BFAD900224FF400610B4805F0A6FB14
:102610000A4B1B6800225A62084B1B685B6A312B0D
:10262000FAD9074B1B68DA68054B1B6842F00402B5
:10263000DA6000BF80BD00BF001002407C030020B4
:102640003403002080B586B004AF0346FB714FF61B
:10265000FF73029302230193A94B009301233722B6
:10266000D021A84805F0D2FDA54B1B781B021AB259
:10267000A34B5B781BB213431AB2A34B1A80A34B34
:102680001B681B6803F01003102B0CBF01230023F1
:10269000DBB25AB29E4B1A709B4BB3F9003013F168
:1026A000040F04DB984BB3F900300B2B07DD964B7E
:1026B000B3F9003007EE903AF8EEE77A01E0DFED8B
:1026C000957A954B93ED007A77EE877A924BC3ED2E
:1026D000007AFB79002B64D1904B93ED007A8E4BFE
:1026E000D3ED007A27EE277A8C4BD3ED016A8B4B22
:1026F000D3ED047A66EEA77A37EE277A874BD3EDCF
:10270000026A864B93ED036A834BD3ED007A76EE33
:10271000677A66EEA77A77EE277AFDEEE77A17EE0C
:10272000902A7F4B1A607C4B1B687C4AD3607B4BA2
:1027300093ED047A784BD3ED007A77EE277A774BD6
:10274000C3ED047A764B1B68B3F5167F06DC744B39
:102750001B68744A9342B8BF134601E04FF41673E6
:102760006F4A13606A4B93F900309AB26C4B1B6846
:102770009BB212FB03F39BB203F596639AB26A4BCA
:102780001A80634B93F900309AB2654B1B689BB279
:1027900012FB03F39BB2C3F596639AB2634B1A80A4
:1027A000EFE0FB79022B65D1614B93ED007A5A4B38
:1027B000D3ED007A27EE277A5D4BD3ED016A5C4BAF
:1027C000D3ED047A66EEA77A37EE277A584BD3ED2D
:1027D000026A574B93ED036A4F4BD3ED007A76EEC6
:1027E000677A66EEA77A77EE277AFDEEE77A17EE3C
:1027F000902A4B4B1A60484B1B684D4AD3604C4B98
:1028000093ED047A444BD3ED007A77EE277A484B68
:10281000C3ED047A424B1B68B3F52F7F06DC404BB7
:102820001B68444A9342B8BF134601E04FF42F732C
:102830003B4A1360364B93F900309AB2384B1B6811
:102840009BB212FB03F39BB203F6B8339AB2364B3A
:102850001A802F4B93F900309AB2314B1B689BB210
:1028600012FB03F39BB2C3F53B6308339AB22F4BC1
:102870001A8086E0FB79012B40F083802E4B93ED8C
:10288000007A254BD3ED007A27EE277A2A4BD3ED39
:10289000016A294BD3ED047A66EEA77A37EE277AE0
:1028A000254BD3ED026A244B93ED036A1A4BD3ED0B
:1028B000007A76EE677A66EEA77A77EE277AFDEEF3
:1028C000E77A17EE902A164B1A60134B1B681A4AC8
:1028D000D360194B93ED047A0F4BD3ED007A77EE6A
:1028E000277A154BC3ED047A0D4B1B68B3F52F7F88
:1028F00024DC0B4B1B680F4A9342B8BF13461FE002
:10290000F004002050020020F2040020EC0200201D
:102910004001002000000000EC0400201C05002005
:102920006C050020A8FDFFFFF4040020F604002041
:102930003005002044FDFFFF080500204FF42F73F1
:10294000174A1360174B93F900309AB2144B1B6867
:102950009BB212FB03F39BB203F6FC039AB2124B39
:102960001A80104B93F900309AB20D4B1B689BB242
:1029700012FB03F39BB2C3F50F630C339AB20B4BFC
:102980001A80094B1A880A4B1B685A63074B1A882E
:10299000074B1B689A6300BF0837BD4680BD00BF68
:1029A0006C05002040010020F4040020F604002003
:1029B000C40300200000000080B584B000AF786040
:1029C0000B46FB701346BB70A14B4FF000021A6020
:1029D000A04B00221A80A048FFF7E1FD9F48FFF7B7
:1029E000DEFD9F48FFF7DBFD9E4B00221A809E4BC9
:1029F00000221A807B681B681846FDF79DFD8EA398
:102A0000D3E90023FDF7F0FD02460B4610461946B8
:102A10008BA3D3E90023FDF72FFC02460B4610469B
:102A200019464FF00002914BFDF708FF02460B4696
:102A3000104619464FF000028D4BFDF7D5FD0246BA
:102A40000B46104619464FF000028A4BFDF714FC66
:102A500002460B4610461946FEF760F803469AB246
:102A6000854B1A8004F03AFA0346844A1360FB78D7
:102A7000002B0CBF01230023DBB21A46042180483F
:102A800005F06CF9FB78002B14BF01230023DBB2A7
:102A90001A4608217A4805F061F9FB78002B0CBF33
:102AA00001230023DBB21A462021754805F056F9B0
:102AB000FB78002B14BF01230023DBB21A46102140
:102AC0006F4805F04BF96F4B1B685B6A9AB26E4B0F
:102AD0001A806C4B1B685B6AFB606A4B1B681B6847
:102AE00003F01003102B17D1674B1B881A46FB68A5
:102AF000934206D8644B1A88FB689BB2D31A9BB2E8
:102B000007E0614B1A88FB689BB2D31A9BB2013B6A
:102B10009BB2554A138016E05B4B1B881A46FB6834
:102B2000934206D3FB689AB2574B1B88D31A9BB2C9
:102B300007E0FB689AB2544B1B88D31A9BB2013B47
:102B40009BB2494A1380FB689AB24F4B1A80454B9F
:102B50001A88454B1B8813449AB2424B1A80414B4A
:102B60001A88454B1B889A4280F0A58004F0B6F97C
:102B70000246424B1B68D31A092BAAD9BB78002BFB
:102B800003D10020FFF75EFD8FE0364B1B881A460D
:102B9000394B1B88D31A002BB8BF5B423B4A82FBE0
:102BA0000312D211DB17D31A07EE903AF8EEE77A48
:102BB000374BC3ED007ABB78012B1ED1344BD3EDDC
:102BC000007AB7EE007AF4EEC77AF1EE10FA02DD81
:102BD0004FF07E530EE02E4BD3ED007AB6EE087A1E
:102BE000F4EEC77AF1EE10FA02D54FF07D5301E012
:102BF000274B1B68264A136052E0BB78022B4FD14B
:102C0000234BD3ED007AB7EE007AF4EEC77AF1EEFB
:102C100010FA02DD4FF07E5340E01D4B1B68184652
:102C2000FDF78AFC08A3D3E90023FDF74FFF034615
:102C3000002B31D0174B31E02AB266FCAC66F23F74
:102C4000F82625BBD4E3EE3F9A9999999999D93FF3
:102C5000EC040020F20400201C05002008050020E0
:102C6000300500200005002004050020000034404D
:102C700000A094400000244002050020F804002039
:102C800000000240EC0200200605002067571921D1
:102C900038010020CDCCCC3E0D4B1B680C4A136094
:102CA000BB780B49184600F063F904F017F90346A6
:102CB000084A13600DE700BF074B1B6800225A63E8
:102CC000054B1B6800229A6300BF1037BD4680BDCC
:102CD00038010020F8040020C40300200000000098
:102CE00080B584B000AF78600B46FB701346BB70B4
:102CF0008F4B4FF000021A608E4B00221A808E48D4
:102D0000FFF74DFC8D48FFF74AFC8D48FFF747FC65
:102D10008C4B00221A808C4B00221A8004F0DEF8C3
:102D200003468A4A1360FB78002B0CBF0123002363
:102D3000DBB21A460421864805F010F8FB78002B18
:102D400014BF01230023DBB21A460821804805F096
:102D500005F8FB78002B0CBF01230023DBB21A46D9
:102D600020217B4804F0FAFFFB78002B14BF0123DD
:102D70000023DBB21A461021754804F0EFFF754BB3
:102D80001B685B6A9AB2744B1A80724B1B685B6A51
:102D9000FB60704B1B681B6803F01003102B17D1EE
:102DA0006D4B1B881A46FB68934206D86A4B1A88FB
:102DB000FB689BB2D31A9BB207E0674B1A88FB688B
:102DC0009BB2D31A9BB2013B9BB25F4A138016E0C1
:102DD000614B1B881A46FB68934206D3FB689AB284
:102DE0005D4B1B88D31A9BB207E0FB689AB25A4B23
:102DF0001B88D31A9BB2013B9BB2534A1380FB68DA
:102E00009AB2554B1A804F4B1A884F4B1B8813446C
:102E10009AB24C4B1A804B4B1B881A467B689342E4
:102E200074D904F05BF80246484B1B68D31A092B8F
:102E3000ABD9BB78002B03D10020FFF703FC5FE088
:102E4000404B1B881A46454B1B88D31A002BB8BF32
:102E50005B42434A82FB0312D211DB17D31A07EEFF
:102E6000903AF8EEE77A3F4BC3ED007ABB78012B3E
:102E70001ED13C4BD3ED007AB7EE007AF4EEC77A60
:102E8000F1EE10FA02DD4FF07E530EE0354BD3ED3C
:102E9000007AB6EE087AF4EEC77AF1EE10FA02D5AF
:102EA0004FF07D5301E02F4B1B682E4A136022E048
:102EB000BB78022B1FD12B4BD3ED007AB7EE007AF3
:102EC000F4EEC77AF1EE10FA02DD4FF07E5310E017
:102ED000244B1B681846FDF72FFB13A3D3E90023EF
:102EE000FDF7F4FD0346002B01D01F4B01E01D4B05
:102EF0001B681C4A1360BB781A49184600F038F862
:102F000003F0ECFF0346114A13603EE700BF174B86
:102F10001B6800225A63154B1B6800229A6300BF8E
:102F20001037BD4680BD00BF9A9999999999D93FAC
:102F3000EC040020F20400201C05002008050020FD
:102F4000300500200005002004050020F8040020C2
:102F500000000240EC0200200605002002050020CF
:102F60006757192138010020CDCCCC3EC403002086
:102F700080B586B004AF03463960FB714FF6FF732E
:102F80000293022301939B4B009301233722D0210C
:102F9000994805F03BF9974B1B781B021AB2954BE9
:102FA0005B781BB213431AB2944B1A80944B1B6884
:102FB0001B6803F01003102B01D1012201E04FF038
:102FC000FF32904B1A708D4BB3F9003013F1040FA0
:102FD00004DB8A4BB3F900300B2B07DD874BB3F9C9
:102FE000003007EE903AF8EEE77A01E0DFED867AFE
:102FF000864B93ED007A77EE877A844BC3ED007AA7
:10300000FB79012B65D1824B93ED007A7F4BD3ED99
:10301000007A27EE277A7E4BD3ED016A7C4BD3ED05
:10302000047A66EEA77A37EE277A794BD3ED026AF7
:10303000774B93ED036A754BD3ED007A76EE677AA2
:1030400066EEA77A77EE277AFDEEE77A17EE902AFA
:10305000704B1A606D4B1B686D4AD3606C4B93EDDF
:10306000047A6A4BD3ED007A77EE277A684BC3ED8A
:10307000047A684B1B68B3F52F7F06DC654B1B6831
:10308000654A9342B8BF134601E04FF42F73614A7B
:1030900013605C4B93F900309AB25E4B1B689BB295
:1030A00012FB03F39BB203F6FC039AB25B4B1A804C
:1030B000544B93F900309AB2564B1B689BB212FBEB
:1030C00003F39BB2C3F50F630C339AB2544B1A80CF
:1030D00067E0FB79022B64D1524B93ED007A4B4BA6
:1030E000D3ED007A27EE277A4E4BD3ED016A4D4B94
:1030F000D3ED047A66EEA77A37EE277A494BD3ED03
:10310000026A484B93ED036A404BD3ED007A76EEAA
:10311000677A66EEA77A77EE277AFDEEE77A17EE02
:10312000902A3C4B1A60394B1B683E4AD3603D4B9A
:1031300093ED047A354BD3ED007A77EE277A394B4D
:10314000C3ED047A334B1B68B3F52F7F06DC314B9C
:103150001B68314A9342B8BF134601E04FF42F7306
:103160002C4A1360274B93F900309AB2294B1B6805
:103170009BB212FB03F39BB203F6B8339AB2274B10
:103180001A80204B93F900309AB2224B1B689BB2F5
:1031900012FB03F39BB2C3F53B6308339AB2204B97
:1031A0001A801E4B1B8807EE903AB8EEE77A3B6810
:1031B000D3ED007A67EE277A1B4B1B68FCEEE77AAB
:1031C00017EE902A5A63164B1B8807EE903AB8EE1A
:1031D000E77A3B68D3ED007A67EE277A124B1B68DB
:1031E000FCEEE77A17EE902A9A6300BF0837BD46D7
:1031F00080BD00BFF004002050020020F204002037
:10320000EC0200204001002000000000EC0400203F
:10321000080500206C05002044FDFFFFF404002099
:10322000F604002030050020C40300200000000048
:10323000B0B586B004AF78604B4B4FF000021A6017
:103240004A4B00221A8003F049FE0346484A1360A5
:1032500003F044FE0246464B1B68D31A092BF7D9EC
:103260004FF6FF73029302230193424B0093012315
:103270003722D021404804F0C9FF3E4B1B781B0287
:103280001AB23C4B5B781BB213431AB2374B1A800D
:10329000354B1B681846FDF74FF904460D46334B76
:1032A000B3F900301846FDF735F92BA3D3E9002315
:1032B000FDF7C4FA02460B461046194628A3D3E987
:1032C0000023FDF791F902460B4620462946FCF7FC
:1032D000D5FF02460B4610461946FDF73FFC034654
:1032E000214A1360204B93ED007A7B68D3ED007A7E
:1032F00077EE677AFDEEE77A17EE903A002B0DDB5A
:10330000194B93ED007A7B68D3ED007A77EE677AFC
:10331000FDEEE77A17EE903A002B05DD03F0DEFDB7
:103320000346134A136093E700BF144B1B68002247
:103330005A63124B1B6800229A63114B1B6891223F
:103340001A644FF4967003F0D5FD00BF0837BD46F0
:10335000B0BD00BFAFF3008066666666666630404B
:103360007B14AE47E17A843FEC040020F204002095
:10337000F8040020F004002050020020C4030020C4
:10338000A40200200000000080B582B000AF786089
:103390000B46FB709C4B4FF000021A609B4B0022C7
:1033A0001A809B48FFF7FBF89A48FFF7F8F89A480D
:1033B000FFF7F5F8994B9A4A1A600421994806F0EC
:1033C000FDFB03F08BFD0346974A1360FFF7FAF805
:1033D0000A2009F041F97B6893ED007A8F4BD3ED19
:1033E000007A77EE677AFDEEE77A17EE903A002BD7
:1033F0000EDB7B6893ED007A884BD3ED007A77EE95
:10340000677AFDEEE77A17EE903A002B40F3E680FC
:103410007B6893ED007A814BD3ED007AB4EEE77AC6
:10342000F1EE10FA94BF01230023DBB283F0010315
:10343000DBB2DBB21A4604217C4804F08FFC7B68C7
:1034400093ED007A754BD3ED007AB4EEE77AF1EEA6
:1034500010FA94BF01230023DBB21A4608217348F7
:1034600004F07CFC7B6893ED007A6C4BD3ED007A22
:10347000B4EEE77AF1EE10FA94BF01230023DBB239
:1034800083F00103DBB2DBB21A462021674804F067
:1034900065FC7B6893ED007A604BD3ED007AB4EE67
:1034A000E77AF1EE10FA94BF01230023DBB21A464B
:1034B00010215E4804F052FC03F010FD02465A4B06
:1034C0001B68D31A132B81D9FB78012B3FD1534BA7
:1034D00093ED007A7B68D3ED007A77EE677AFDEEA4
:1034E000E77A17EE903A002BB8BF5B42504A82FB56
:1034F00003121A44D210DB17D31A07EE903AF8EEF3
:10350000E77A4C4BC3ED007A4A4BD3ED007AB7EE25
:10351000007AF4EEC77AF1EE10FA02DD4FF07E5336
:103520000EE0444BD3ED007AB6EE087AF4EEC77A9B
:10353000F1EE10FA02D54FF07D5301E03D4B1B68D0
:103540003C4A13603B490120FFF712FD40E0334B3A
:1035500093ED007A7B68D3ED007A77EE677AFDEE23
:10356000E77A17EE903A002BB8BF5B42304A82FBF5
:1035700003121A44D210DB17D31A07EE903AF8EE72
:10358000E77A2C4BC3ED007A2A4BD3ED007AB7EEE5
:10359000007AF4EEC77AF1EE10FA02DD4FF07E53B6
:1035A00010E0244B1B681846FCF7C6FF14A3D3E9B0
:1035B0000023FDF78BFA0346002B01D01E4B01E0E0
:1035C0001C4B1B681B4A13601A490220FFF7D0FCF2
:1035D00003F084FC0346144A1360F7E600BF174B60
:1035E0001B6800225A63154B1B6800229A63042152
:1035F0000C4806F00BFC00BF0837BD4680BD00BF7D
:103600009A9999999999D93FEC040020F2040020E5
:103610001C0500200805002030050020580500206A
:1036200000007A4434030020F80400200000024027
:103630008988888838010020CDCCCC3EC403002086
:1036400080B584B000AFF860B9601346FB71A04B41
:103650004FF000021A609F4B00221A809E48FEF72E
:103660009EFF9E48FEF79BFF9D48FEF798FF9D4BEF
:103670009D4A1A6004219D4806F0A0FA03F02EFC32
:1036800003469B4A13609B4B00221A800023FB6079
:10369000FEF798FF0A2008F0DFFFBB6893ED007A81
:1036A000904BD3ED007A77EE677AFDEEE77A17EE6E
:1036B000903A002B0EDBBB6893ED007A894BD3ED7B
:1036C000007A77EE677AFDEEE77A17EE903A002BF4
:1036D00040F3E680BB6893ED007A824BD3ED007A2D
:1036E000B4EEE77AF1EE10FA94BF01230023DBB2C7
:1036F00083F00103DBB2DBB21A4604217E4804F0FA
:103700002DFBBB6893ED007A764BD3ED007AB4EED7
:10371000E77AF1EE10FA94BF01230023DBB21A46D8
:103720000821754804F01AFBBB6893ED007A6D4BD5
:10373000D3ED007AB4EEE77AF1EE10FA94BF0123EC
:103740000023DBB283F00103DBB2DBB21A46202197
:10375000694804F003FBBB6893ED007A614BD3ED3D
:10376000007AB4EEE77AF1EE10FA94BF0123002359
:10377000DBB21A461021604804F0F0FA03F0AEFB09
:1037800002465B4B1B68D31A132B81D9FB79012BA3
:103790003FD1544B93ED007ABB68D3ED007A77EEBE
:1037A000677AFDEEE77A17EE903A002BB8BF5B42DE
:1037B000524A82FB03121A44D210DB17D31A07EEC7
:1037C000903AF8EEE77A4E4BC3ED007A4C4BD3EDCE
:1037D000007AB7EE007AF4EEC77AF1EE10FA02DD65
:1037E0004FF07E530EE0464BD3ED007AB6EE087AEA
:1037F000F4EEC77AF1EE10FA02D54FF07D5301E0F6
:103800003F4B1B683E4A13603D490120FFF7B0FB68
:1038100040E0344B93ED007ABB68D3ED007A77EE4D
:10382000677AFDEEE77A17EE903A002BB8BF5B425D
:10383000324A82FB03121A44D210DB17D31A07EE66
:10384000903AF8EEE77A2E4BC3ED007A2C4BD3ED8D
:10385000007AB7EE007AF4EEC77AF1EE10FA02DDE4
:103860004FF07E5310E0264B1B681846FCF764FEB1
:1038700015A3D3E90023FDF729F90346002B01D056
:10388000204B01E01E4B1B681D4A13601C4902209F
:10389000FFF76EFB03F022FB0346154A1360F7E6C1
:1038A00000BF194B1B6800225A63174B1B6800228C
:1038B0009A6304210D4806F0A9FA00BF1037BD46EF
:1038C00080BD00BFAFF300809A9999999999D93F2B
:1038D000EC040020F20400201C0500200805002054
:1038E000300500205805002000007A4434030020F1
:1038F000F8040020440500200000024089888888E0
:1039000038010020CDCCCC3EC403002000000000D4
:1039100080B584B002AF7860AD48FEF740FEAD4898
:10392000FEF73DFEAC48FEF73AFEAC4B00221A70A3
:10393000AB4B00221A70AB4B4FF000021A60AA4B3F
:1039400000221A8003F0CAFA0346A84A13607B6873
:10395000002B00F09480A64803F034FB1421A44807
:1039600003F035FCA24803F0BDFC0246A14B1B68E6
:103970001344A04A1360A04B1B885A1C9F4B83FB27
:1039800002135910D317C91A0B469B000B44D11AC6
:103990008AB2994B1A80984B1B88042B2CD1954BDB
:1039A0001B68954A1288B3FBF2F31846FCF7A2FD98
:1039B0007FA3D3E90023FCF75FFC02460B461046C9
:1039C00019467DA3D3E90023FCF738FF02460B46D6
:1039D00010461946FDF7A2F80346DAB27F4B1A707B
:1039E000844B1B68844A1288B3FBF2F39AB2844B6F
:1039F0001A80804B00221A60142008F02DFE774BAD
:103A00001B78232B2ED803F069FA0246774B1B68EC
:103A1000D31A092B9FD9714B1B781A460C2300939C
:103A20000523002100200BF019FD00220421754818
:103A300004F094F901220821724804F08FF9002261
:103A40002021704804F08AF9012210216D4804F009
:103A500085F90120FEF7F6FD03F040FA0346634ABC
:103A6000136078E700BF684B1B6800225A63664BFF
:103A70001B6800229A635E4803F076FB92E063487D
:103A800003F0A0FA1421614803F0A1FB5F4803F0A2
:103A900029FC02465E4B1B6813445D4A13605D4B74
:103AA0001B885A1C554B83FB02135910D317C91A94
:103AB0000B469B000B44D11A8AB2564B1A80554BC9
:103AC0001B88042B2CD1524B1B68524A1288B3FB23
:103AD000F2F31846FCF70EFD39A3D3E90023FCF7F7
:103AE000CBFB02460B461046194637A3D3E9002309
:103AF000FCF7A4FE02460B4610461946FDF70EF8E9
:103B00000346DAB2364B1A70414B1B68414A1288A1
:103B1000B3FBF2F39AB2404B1A803D4B00221A607D
:103B2000142008F099FD2E4B1B78232B2ED803F080
:103B3000D5F902462D4B1B68D31A092B9FD9284B68
:103B40001B781A460C2300930523002100200BF05C
:103B500085FC002204212B4804F000F901220821F1
:103B6000284804F0FBF800222021264804F0F6F84B
:103B700001221021234804F0F1F80120FEF762FD34
:103B800003F0ACF90346194A136078E700BF1E4BF7
:103B90001B6800225A631C4B1B6800229A631B4857
:103BA00003F0E2FA00BF0837BD4680BDAFF30080E6
:103BB000B21188D7F55CAA40C6C4E6E3DA984FC0D4
:103BC00070B6B931FDA8A940EE3D5C72DC594EC01B
:103BD0001C05002008050020300500204B050020B2
:103BE0004A050020EC040020F2040020F804002024
:103BF000C0010020500500204C0500206766666665
:103C00004605002000000240C403002008020020F6
:103C1000540500204E05002048050020000000004B
:103C200080B584B002AF7860AB48FEF7B8FCAB4813
:103C3000FEF7B5FCAA48FEF7B2FCAA4B00221A70A8
:103C4000A94B00221A70A94B4FF000021A60A84B32
:103C500000221A8003F042F90346A64A13607B68EB
:103C6000002B00F09380A44803F0ACF91421A24883
:103C700003F0ADFAA04803F035FB02469F4B1B68EA
:103C800013449E4A13609E4B1B885A1C9D4B83FB1A
:103C900002135910D317C91A0B469B000B44D11AB3
:103CA0008AB2974B1A80964B1B88042B2CD1934BCE
:103CB0001B68934A1288B3FBF2F31846FCF71AFC10
:103CC0007DA3D3E90023FCF7D7FA02460B46104642
:103CD00019467BA3D3E90023FCF7B0FD02460B464F
:103CE00010461946FCF71AFF0346DAB27D4B1A70EC
:103CF000824B1B68824A1288B3FBF2F39AB2824B62
:103D00001A807E4B00221A60764B1B781A460C23D1
:103D100000930523002100200BF0A0FB142008F0E5
:103D20009BFC03F0DBF80246724B1B68D31A092B8D
:103D30001BD900220421754804F010F80122082143
:103D4000724804F00BF800222021704804F006F8B5
:103D5000012210216D4804F001F80120FEF772FCE9
:103D600003F0BCF80346634A13605E4B1B78182BC4
:103D70003FF679AF664B1B6800225A63644B1B68A1
:103D800000229A635C4803F0EFF991E0614803F088
:103D900019F914215F4803F01AFA5E4803F0A2FAF9
:103DA00002465D4B1B6813445B4A13605B4B1B88E8
:103DB0005A1C544B83FB02135910D317C91A0B46D4
:103DC0009B000B44D11A8AB2544B1A80534B1B8868
:103DD000042B2CD1504B1B68504A1288B3FBF2F3D2
:103DE0001846FCF787FB38A3D3E90023FCF744FA15
:103DF00002460B461046194635A3D3E90023FCF7CB
:103E00001DFD02460B4610461946FCF787FE034689
:103E1000DAB2354B1A70404B1B68404A1288B3FB2C
:103E2000F2F39AB23E4B1A803B4B00221A602E4BA3
:103E30001B781A460C2300930523002100200BF069
:103E40000DFB142008F008FC03F048F80246294B4B
:103E50001B68D31A092B1BD9002204212B4803F01D
:103E60007DFF01220821294803F078FF002220214C
:103E7000264803F073FF01221021244803F06EFF4F
:103E80000120FEF7DFFB03F029F80346194A13600F
:103E9000154B1B78182B3FF679AF1D4B1B68002282
:103EA0005A631B4B1B6800229A631A4803F05CF9A3
:103EB00000BF0837BD4680BDB21188D7F55CAA4067
:103EC000C6C4E6E3DA984FC070B6B931FDA8A94080
:103ED000EE3D5C72DC594EC01C0500200805002038
:103EE000300500204B0500204A050020EC0400208E
:103EF000F2040020F8040020C0010020500500203A
:103F00004C050020676666664605002000000240FA
:103F1000C403002008020020540500204E050020A4
:103F20004805002080B500AF194B1A4A1A601A4B99
:103F30001B684FF4FA625A63174B1B6840F2355204
:103F40009A63164B1B6840F209121A644FF496707C
:103F500002F0D0FF00220421114803F0FFFE0122ED
:103F600008210F4803F0FAFE002220210C4803F03C
:103F7000F5FE012210210A4803F0F0FE0448FFF785
:103F800057F94FF4967008F067FB00BF80BD00BF83
:103F9000E8040020000034C2C4030020A402002072
:103FA0000000024080B500AF194B1A4A1A601A4B44
:103FB0001B684FF4FA625A63174B1B6840F2355284
:103FC0009A63164B1B6840F209121A644FF49670FC
:103FD00002F090FF00220421114803F0BFFE0122ED
:103FE00008210F4803F0BAFE002220210C4803F0FC
:103FF000B5FE012210210A4803F0B0FE0448FFF785
:1040000017F94FF4967008F027FB00BF80BD00BF82
:10401000E80400200000B4C2C4030020A402002071
:104020000000024080B500AF184B194A1A60194BC6
:104030001B6840F235525A63164B1B684FF4FA6204
:104040009A63154B1B685A221A644FF4967002F05B
:1040500051FF00220421114803F080FE01220821B3
:104060000E4803F07BFE002220210C4803F076FE70
:1040700001221021094803F071FE0448FFF7D8F827
:104080004FF4967008F0E8FA00BF80BDE804002005
:1040900000003442C4030020A402002000000240BB
:1040A00080B500AF184B194A1A60194B1B6840F2D3
:1040B00035525A63164B1B684FF4FA629A63154BDC
:1040C0001B685A221A644FF4967002F013FF002204
:1040D0000421114803F042FE012208210E4803F09A
:1040E0003DFE002220210C4803F038FE0122102161
:1040F000094803F033FE0448FFF79AF84FF496702E
:1041000008F0AAFA00BF80BDE80400200000B44215
:10411000C4030020A40200200000024080B500AFCC
:10412000414B4FF081421A60002201213E48FEF7C8
:1041300043FC3E4BD3ED417A9FED3D7AF4EEC77AD6
:10414000F1EE10FA02DD40F2091312E0374BD3ED25
:10415000417A9FED387AF4EEC77AF1EE10FA01D584
:10416000462306E0314BD3ED417AFCEEE77A17EEB9
:10417000903A314A126813644FF4967002F0BAFE16
:104180002A4BD3F808312D4A1360284B93F80C3191
:10419000002B0CBF01230023DBB21A460421284860
:1041A00003F0DCFD214B93F80C31002B14BF0123ED
:1041B0000023DBB21A460821214803F0CFFD1B4B38
:1041C00093F80C31002B0CBF01230023DBB21A46FD
:1041D00020211B4803F0C2FD144B93F80C31002B37
:1041E00014BF01230023DBB21A461021144803F048
:1041F000B5FD0E4BB3F80021124B1B685A630B4BF5
:10420000B3F802210F4B1B689A630C48FFF710F8B4
:10421000054B4FF080421A60002200210248FEF751
:10422000CBFB00BF80BD00BFFC04002004000020C9
:104230000080844300008C42A4020020E804002097
:1042400000000240C403002080B500AF404B414A4B
:104250001A60002201213E48FEF7AEFB3E4BD3ED33
:104260003D7A9FED3E7AF4EEC77AF1EE10FA02DD68
:1042700040F2091312E0384BD3ED3D7A9FED387AC6
:10428000F4EEC77AF1EE10FA01D5462306E0324B80
:10429000D3ED3D7AFCEEE77A17EE903A314A126898
:1042A00013644FF4967002F025FE2B4BD3F8F830D0
:1042B0002D4A1360284B93F8FC30002B0CBF0123D0
:1042C0000023DBB21A460421284803F047FD224BA5
:1042D00093F8FC30002B14BF01230023DBB21A46F5
:1042E0000821224803F03AFD1B4B93F8FC30002BC9
:1042F0000CBF01230023DBB21A4620211B4803F028
:104300002DFD154B93F8FC30002B14BF0123002327
:10431000DBB21A461021154803F020FD0E4BB3F80E
:10432000F020134B1B685A630B4BB3F8F220104B71
:104330001B689A630C48FEF77BFF054B0D4A1A6019
:10434000002200210248FEF737FB00BF80BD00BFFE
:10435000FC0400200000A0400400002000808443F2
:1043600000008C42A4020020E8040020000002406B
:10437000C40300200000404080B582B000AF7860E8
:10438000642008F069F9FBE780B584B002AF78607B
:104390001A4802F017FE1A4802F014FE14211748BA
:1043A00002F015FF1421164802F011FF134802F025
:1043B00099FF02460C2300930523142100200BF0E3
:1043C0004DF80F4802F08EFF02460C2300930523A0
:1043D00014213C200BF042F8084802F0C5FE0848C2
:1043E00002F0C2FE074A282100200BF0A5F80AF0CF
:1043F000A5FE642008F030F9CAE700BF08020020DB
:10440000C00100209004002080B582B000AF786029
:104410007B4B1B78002B04D04FF47A7008F01CF90A
:10442000F6E7784B4FF000021A60774B00221A80B3
:10443000764B1B78002B62D0754B4FF000021A6050
:10444000744B00221A807448FEF7A9F87348FEF7EF
:10445000A6F87348FEF7A3F800220421714803F080
:104460007DFC012208216F4803F078FC0022202106
:104470006C4803F073FC012210216A4803F06EFCC3
:10448000694B1B6800225A63674B1B6800229A63C2
:104490005B4B1A78654B1A70594B10221A70644B9B
:1044A00000221A60634B64221A70624B00225A8009
:1044B000614A0F2161480BF0FDF84FF6FF730622A9
:1044C0005F49604806F07DFF02F008FD03465E4A42
:1044D00013604E4B1B78002B00F0908002F0FEFC26
:1044E0000246594B1B68D31A092BF2D90020FEF75C
:1044F000A9F802F0F3FC0346534A1360E9E74D4B79
:104500005B8807EE903AF8EE677A3E4BC3ED007A8F
:104510003C4BD3ED007AB2EE0E7AF4EEC77AF1EEB0
:1045200010FA02D8494B00221A70364BD3ED007AAC
:104530009FED477AF4EEC77AF1EE10FA09DB314BC2
:10454000D3ED007AB0EE007A77EEC77A2D4BC3ED4B
:10455000007A3E4B1B78002B05D10022012129480F
:10456000FEF72AFA04E0022201212648FEF724FA87
:104570002D4B1B6800225A632B4B1B6800229A6349
:104580001F4B1A78294B1A701D4B10221A70284B9A
:1045900000221A602F4B1A782E4B5B789A4212D168
:1045A000244B64221A70234B00225A80224A0F2186
:1045B00022480BF07FF84FF6FF730622204921486E
:1045C00006F0FFFE24E7234B5B781A4A21499B0043
:1045D0000B445B6813601F4B5B7801331D4A927874
:1045E00093FBF2F101FB02F29B1ADAB2194B5A70FB
:1045F000194A0F2111480BF05DF809E700BF07E7E2
:1046000034010020FC04002002050020E404002006
:10461000EC040020F20400201C0500200805002006
:104620003005002000000240C403002035010020B6
:1046300068050020D0040020DC000108D40400201C
:10464000E40001080C040020F804002036010020DA
:104650000000C8429C040020EC00010880B582B034
:1046600000AF7860714B1B78012B04D04FF47A7047
:1046700007F0F2FFF6E76E4B4FF000021A606D4B49
:1046800000221A806C4B1B78002B61D06B4B4FF0D3
:1046900000021A606A4B00221A806A48FDF77FFF09
:1046A0006948FDF77CFF6948FDF779FF0122042185
:1046B000674803F053FB00220821654803F04EFBD6
:1046C00001222021624803F049FB002210216048AA
:1046D00003F044FB5F4B1B6800225A635D4B1B6871
:1046E00000229A63514B1A785B4B1A704F4B102281
:1046F0001A705A4B00221A60594B64221A70584B98
:1047000000225A80574A0F2157480AF0D3FF4FF62C
:10471000FF7306225549564806F053FE02F0DEFBB1
:104720000346544A1360444B1B78002B7BD002F0A5
:10473000D5FB02464F4B1B68D31A092BF3D9002037
:10474000FDF780FF02F0CAFB03464A4A1360EAE71E
:10475000434B5B8807EE903AF8EE677A344BC3ED33
:10476000007A334BD3ED007AB2EE0E7AF4EEC77ACC
:10477000F1EE10FA02D8404B00221A703E4B1B7823
:10478000002B05D1002200212948FEF715F904E08D
:10479000022200212648FEF70FF92E4B1B6800224B
:1047A0005A632C4B1B6800229A63204B1A782A4BC1
:1047B0001A701E4B10221A70284B00221A602F4BC1
:1047C0001A782E4B5B789A4212D1254B64221A70CC
:1047D000234B00225A80234A0F2123480AF06AFF04
:1047E0004FF6FF7306222149214806F0EAFD39E71A
:1047F000224B5B781A4A21499B000B445B6813608B
:104800001E4B5B7801331D4A927893FBF2F101FB5A
:1048100002F29B1ADAB2194B5A70194A0F21124848
:104820000AF048FF1EE700BF1CE700BF340100206C
:10483000FC04002002050020E4040020EC04002019
:10484000F20400201C05002008050020300500208F
:1048500000000240C403002035010020680500204C
:10486000D0040020DC000108D4040020E40001088A
:104870000C040020F8040020360100209C040020D5
:10488000EC00010880B582B000AF7860944B1B78D3
:10489000022B04D04FF47A7007F0DEFEF6E7914B5E
:1048A0005B88142B00F083801E2B40F0F8808E4B29
:1048B0008E4A1A60002201218B48FEF77DF88C4B4E
:1048C000D3ED3D7A9FED8B7AF4EEC77AF1EE10FAD4
:1048D00002DD40F2091312E0854BD3ED3D7A9FEDE6
:1048E000867AF4EEC77AF1EE10FA01D5462306E097
:1048F0007F4BD3ED3D7AFCEEE77A17EE903A7F4A94
:10490000126813644FF4967002F0F4FA784BD3F8FF
:10491000F8307B4A1360764B93F8FC30002B0CBFC9
:1049200001230023DBB21A460421764803F016FA6D
:104930006F4B93F8FC30002B14BF01230023DBB234
:104940001A4608216F4803F009FA694B93F8FC30C6
:10495000002B0CBF01230023DBB21A46202169483B
:1049600003F0FCF9624B93F8FC30002B14BF0123D9
:104970000023DBB21A461021624803F0EFF95C4BCA
:10498000B3F8F020604B1B685A63594BB3F8F22020
:104990005D4B1B689A635A48FEF74AFC524B5B4AD0
:1049A0001A60002200215048FEF706F811E14E4B34
:1049B0004E4A1A60002201214B48FDF7FDFF4C4B87
:1049C000D3ED2D7A9FED4B7AF4EEC77AF1EE10FA23
:1049D00002DD40F2091312E0454BD3ED2D7A9FED35
:1049E000467AF4EEC77AF1EE10FA01D5462306E0D6
:1049F0003F4BD3ED2D7AFCEEE77A17EE903A3F4A23
:104A0000126813644FF4967002F074FA384BD3F8BE
:104A1000B8303B4A1360364B93F8BC30002B0CBFC8
:104A200001230023DBB21A460421364803F096F92D
:104A30002F4B93F8BC30002B14BF01230023DBB2B3
:104A40001A4608212F4803F089F9294B93F8BC3006
:104A5000002B0CBF01230023DBB21A46202129487A
:104A600003F07CF9224B93F8BC30002B14BF0123D8
:104A70000023DBB21A461021224803F06FF91C4BC9
:104A8000B3F8B020204B1B685A63194BB3F8B2201F
:104A90001D4B1B689A631A48FEF7CAFB99E0124B3C
:104AA0001B4A1A60002201210F48FDF785FF104BB9
:104AB000D3ED1D7A9FED0F7AF4EEC77AF1EE10FA7E
:104AC00002DD40F209132CE0094BD3ED1D7A9FED76
:104AD0000A7AF4EEC77AF1EE10FA1BD5462320E0ED
:104AE00034010020D0040020FC0400200000A0407D
:104AF000040000200080844300008C42A4020020B7
:104B0000E804002000000240C403002000004040F0
:104B1000000030414E4BD3ED1D7AFCEEE77A17EEE4
:104B2000903A4C4A126813644FF4967002F0E2F91E
:104B3000474B9B6F484A1360454B93F87C30002BE2
:104B40000CBF01230023DBB21A460421434803F0C3
:104B500005F93F4B93F87C30002B14BF0123002351
:104B6000DBB21A4608213D4803F0F8F8384B93F8B9
:104B70007C30002B0CBF01230023DBB21A4620211E
:104B8000364803F0EBF8324B93F87C30002B14BF1F
:104B900001230023DBB21A461021304803F0DEF86F
:104BA0002B4BB3F870202E4B1B685A63284BB3F87D
:104BB00072202B4B1B689A632748FEF739FB294B61
:104BC0004FF080421A60002201212648FDF7F4FED2
:104BD00000BF254B00221A60244B1A78244B1A7010
:104BE000224B10221A70234B1A78224B5B789A4280
:104BF00012D1214B64221A701F4B00225A801F4A87
:104C00000F211F480AF056FD4FF6FF7306221D497B
:104C10001D4806F0D6FB39E6164B5B78164A154957
:104C20009B000B445B681360124B5B780133114AA5
:104C3000927893FBF2F101FB02F29B1ADAB20D4B70
:104C40005A70124A0F210E480AF034FD1EE600BFCA
:104C500004000020A4020020E8040020000002401C
:104C6000C4030020FC04002068050020340100205B
:104C7000350100209C040020D0040020DC00010845
:104C8000D4040020E40001080C040020EC0001081A
:104C900080B582B000AF7860994B1B78032B04D0AD
:104CA0004FF47A7007F0D8FCF6E7964B5B88142B2C
:104CB00000F085801E2B40F00181934B4FF0814224
:104CC0001A60002201219048FDF776FE8F4BD3ED4C
:104CD000417A9FED8F7AF4EEC77AF1EE10FA02DD99
:104CE00040F2091312E0894BD3ED417A9FED897AA6
:104CF000F4EEC77AF1EE10FA01D5462306E0834BB5
:104D0000D3ED417AFCEEE77A17EE903A824A1268C8
:104D100013644FF4967002F0EDF87C4BD3F8083131
:104D20007E4A1360794B93F80C31002B0CBF0123A2
:104D30000023DBB21A460421794803F00FF8734BC5
:104D400093F80C31002B14BF01230023DBB21A4669
:104D50000821734803F002F86C4B93F80C31002BD8
:104D60000CBF01230023DBB21A4620216C4802F05D
:104D7000F5FF664B93F80C31002B14BF0123002381
:104D8000DBB21A461021664802F0E8FF5F4BB3F829
:104D90000021644B1B685A635C4BB3F80221614BE2
:104DA0001B689A635D48FEF743FA574B4FF0804209
:104DB0001A60002200215448FDF7FEFD16E1524B17
:104DC0004FF081421A60002201214F48FDF7F4FDA7
:104DD0000A2007F041FC4D4BD3ED317A9FED4C7A20
:104DE000F4EEC77AF1EE10FA02DD40F2091312E098
:104DF000464BD3ED317A9FED477AF4EEC77AF1EE68
:104E000010FA01D5462306E0404BD3ED317AFCEE93
:104E1000E77A17EE903A404A126813644FF496709E
:104E200002F068F8394BD3F8C8303C4A1360374B6E
:104E300093F8CC30002B0CBF01230023DBB21A46C1
:104E40000421374802F08AFF304B93F8CC30002B16
:104E500014BF01230023DBB21A460821304802F0B8
:104E60007DFF2A4B93F8CC30002B0CBF012300238D
:104E7000DBB21A4620212A4802F070FF234B93F838
:104E8000CC30002B14BF01230023DBB21A461021C3
:104E9000234802F063FF1D4BB3F8C020214B1B6871
:104EA0005A631A4BB3F8C2201E4B1B689A631B4807
:104EB000FEF7BEF90A2007F0CFFB97E0124B1A4A23
:104EC0001A60002201211048FDF776FD0F4BD3ED4B
:104ED000217A9FED0F7AF4EEC77AF1EE10FA02DD37
:104EE00040F2091329E0094BD3ED217A9FED097AAD
:104EF000F4EEC77AF1EE10FA18D546231DE000BF94
:104F000034010020D0040020FC0400200400002014
:104F10000080844300008C42A4020020E8040020AA
:104F200000000240C4030020000060404E4BD3ED5F
:104F3000217AFCEEE77A17EE903A4C4A1268136435
:104F40004FF4967001F0D6FF474BD3F88830484AAB
:104F50001360454B93F88C30002B0CBF01230023CA
:104F6000DBB21A460421434802F0F8FE3E4B93F8A8
:104F70008C30002B14BF01230023DBB21A4608211A
:104F80003C4802F0EBFE384B93F88C30002B0CBF02
:104F900001230023DBB21A462021364802F0DEFE50
:104FA000314B93F88C30002B14BF01230023DBB26C
:104FB0001A4610212F4802F0D1FE2B4BB3F8802067
:104FC0002D4B1B685A63284BB3F882202A4B1B6871
:104FD0009A632748FEF72CF9284B4FF080421A605D
:104FE000002200212548FDF7E7FC00BF244B0022EA
:104FF0001A60244B1A78244B1A70224B10221A7014
:10500000224B1A78214B5B789A4212D1204B6422B2
:105010001A701F4B00225A801E4A0F211E480AF0A8
:1050200049FB4FF6FF7306221C491D4806F0C9F9DB
:1050300032E6164B5B78164A14499B000B445B68BA
:105040001360124B5B780133104A927893FBF2F1B4
:1050500001FB02F29B1ADAB20C4B5A70114A0F2173
:105060000D480AF027FB17E604000020A4020020E8
:10507000E804002000000240C4030020FC040020DB
:105080006805002034010020350100209C04002028
:10509000D0040020DC000108D4040020E400010852
:1050A0000C040020EC00010880B582B000AF7860ED
:1050B000964B1B78042B04D04FF47A7007F0CCFA8F
:1050C000F6E7934B5B88142B00F084801E2B40F096
:1050D000FA80904B4FF07E521A60002201218D48D9
:1050E000FDF76AFC8C4BD3ED457A9FED8C7AF4EE9C
:1050F000C77AF1EE10FA02DD40F2091312E0864B96
:10510000D3ED457A9FED867AF4EEC77AF1EE10FA88
:1051100001D5462306E0804BD3ED457AFCEEE77AD5
:1051200017EE903A7F4A126813644FF4967001F0BC
:10513000E1FE794BD3F818317B4A1360764B93F834
:105140001C31002B0CBF01230023DBB21A460421C3
:10515000764802F003FE704B93F81C31002B14BF0D
:1051600001230023DBB21A460821704802F0F6FD45
:10517000694B93F81C31002B0CBF01230023DBB2D9
:105180001A462021694802F0E9FD634B93F81C316F
:10519000002B14BF01230023DBB21A461021634801
:1051A00002F0DCFD5C4BB3F81021614B1B685A63C5
:1051B000594BB3F812215E4B1B689A635A48FEF7AD
:1051C00037F8544B5B4A1A60002200215148FDF722
:1051D000F3FB11E1504BD3ED357A9FED507AF4EEAD
:1051E000C77AF1EE10FA02DD40F2091312E04A4BE1
:1051F000D3ED357A9FED4A7AF4EEC77AF1EE10FAE4
:1052000001D5462306E0444BD3ED357AFCEEE77A30
:1052100017EE903A434A126813644FF4967001F007
:1052200069FE3D4BD3F8D8303F4A13603A4B93F8B0
:10523000DC30002B0CBF01230023DBB21A46042113
:105240003A4802F08BFD344B93F8DC30002B14BF4E
:1052500001230023DBB21A460821344802F07EFD08
:105260002D4B93F8DC30002B0CBF01230023DBB265
:105270001A4620212D4802F071FD274B93F8DC30AF
:10528000002B14BF01230023DBB21A46102127484C
:1052900002F064FD204BB3F8D020254B1B685A6305
:1052A0001D4BB3F8D220224B1B689A631E48FDF7B2
:1052B000BFFF184B4FF081421A60002200211548B1
:1052C000FDF77AFB98E0134B4FF07E521A600022F4
:1052D00000211048FDF770FB0F4BD3ED257A9FEDB1
:1052E0000F7AF4EEC77AF1EE10FA02DD40F20913FC
:1052F00029E0094BD3ED257A9FED097AF4EEC77AC0
:10530000F1EE10FA18D546231DE000BF340100204D
:10531000D0040020FC04002004000020008084430E
:1053200000008C42A4020020E8040020000002409B
:10533000C40300200000C0404E4BD3ED257AFCEEA4
:10534000E77A17EE903A4C4A126813644FF496705D
:1053500001F0D0FD474BD3F89830484A1360454BD5
:1053600093F89C30002B0CBF01230023DBB21A46BC
:105370000421434802F0F2FC3E4B93F89C30002B92
:1053800014BF01230023DBB21A4608213C4802F077
:10539000E5FC384B93F89C30002B0CBF0123002315
:1053A000DBB21A462021364802F0D8FC314B93F884
:1053B0009C30002B14BF01230023DBB21A461021BE
:1053C0002F4802F0CBFC2B4BB3F890202D4B1B68E1
:1053D0005A63284BB3F892202A4B1B689A632748DC
:1053E000FDF726FF284B4FF082421A600022002171
:1053F0002548FDF7E1FA00BF244B00221A60244B38
:105400001A78244B1A70224B10221A70224B1A78E9
:10541000214B5B789A4212D1204B64221A701F4BA9
:1054200000225A801E4A0F211E480AF043F94FF607
:10543000FF7306221C491D4805F0C3FF38E6164BD2
:105440005B78164A14499B000B445B681360124B4F
:105450005B780133104A927893FBF2F101FB02F280
:105460009B1ADAB20C4B5A70114A0F210D480AF000
:1054700021F91DE604000020A4020020E804002019
:1054800000000240C4030020FC0400206805002046
:1054900034010020350100209C040020D0040020AD
:1054A000DC000108D4040020E40001080C04002002
:1054B000EC00010880B582B000AF7860954B1B7896
:1054C000052B04D04FF47A7007F0C6F8F6E7924B3C
:1054D0005B88142B00F084801E2B40F0FA808F4BE9
:1054E0004FF080421A60002200218C48FDF764FAD8
:1054F0008B4BD3ED497A9FED8B7AF4EEC77AF1EEC0
:1055000010FA02DD40F2091312E0854BD3ED497A1F
:105510009FED857AF4EEC77AF1EE10FA01D54623B5
:1055200006E07F4BD3ED497AFCEEE77A17EE903A2E
:105530007E4A126813644FF4967001F0DBFC784BDE
:10554000D3F828317A4A1360754B93F82C31002B2D
:105550000CBF01230023DBB21A460421754802F078
:10556000FDFB6F4B93F82C31002B14BF012300235C
:10557000DBB21A4608216F4802F0F0FB684B93F843
:105580002C31002B0CBF01230023DBB21A46202153
:10559000684802F0E3FB624B93F82C31002B14BFF8
:1055A00001230023DBB21A461021624802F0D6FB29
:1055B0005B4BB3F82021604B1B685A63584BB3F820
:1055C00022215D4B1B689A635948FDF731FE534B0E
:1055D0005A4A1A60002200215048FDF7EDF910E107
:1055E0004F4BD3ED397A9FED4F7AF4EEC77AF1EE57
:1055F00010FA02DD40F2091312E0494BD3ED397A7B
:105600009FED497AF4EEC77AF1EE10FA01D5462300
:1056100006E0434BD3ED397AFCEEE77A17EE903A89
:10562000424A126813644FF4967001F063FC3C4BDD
:10563000D3F8E8303E4A1360394B93F8EC30002B36
:105640000CBF01230023DBB21A460421394802F0C3
:1056500085FB334B93F8EC30002B14BF0123002360
:10566000DBB21A460821334802F078FB2C4B93F842
:10567000EC30002B0CBF01230023DBB21A462021A3
:105680002C4802F06BFB264B93F8EC30002B14BF38
:1056900001230023DBB21A461021264802F05EFBEC
:1056A0001F4BB3F8E020244B1B685A631C4BB3F824
:1056B000E220214B1B689A631D48FDF7B9FD174B8B
:1056C0004FF081421A60002200211448FDF774F95E
:1056D00097E0124B1A4A1A60002201210F48FDF789
:1056E0006BF90F4BD3ED297A9FED0E7AF4EEC77A62
:1056F000F1EE10FA02DD40F209132AE0084BD3ED77
:10570000297A9FED097AF4EEC77AF1EE10FA19D5ED
:1057100046231EE034010020D0040020FC040020B9
:10572000040000200080844300008C42A40200207A
:10573000E804002000000240C40300200000E04014
:105740000000A0404E4BD3ED297AFCEEE77A17EE2D
:10575000903A4C4A126813644FF4967001F0CAFBF9
:10576000474BD3F8A830484A1360454B93F8AC3008
:10577000002B0CBF01230023DBB21A46042143484F
:1057800002F0ECFA3E4B93F8AC30002B14BF01232F
:105790000023DBB21A4608213C4802F0DFFA384BFE
:1057A00093F8AC30002B0CBF01230023DBB21A4668
:1057B0002021364802F0D2FA314B93F8AC30002B5E
:1057C00014BF01230023DBB21A4610212F4802F038
:1057D000C5FA2B4BB3F8A0202D4B1B685A63284BFE
:1057E000B3F8A2202A4B1B689A632748FDF720FDD7
:1057F000284B294A1A60002200212648FDF7DCF8D0
:1058000000BF264B00221A60254B1A78254B1A70D0
:10581000234B10221A70244B1A78234B5B789A4240
:1058200012D1224B64221A70204B00225A80204A47
:105830000F21204809F03EFF4FF6FF7306221E4954
:105840001E4805F0BEFD39E6174B5B78174A16492E
:105850009B000B445B681360134B5B780133124A67
:10586000927893FBF2F101FB02F29B1ADAB20E4B33
:105870005A70134A0F210F4809F01CFF1EE600BFA3
:1058800004000020A4020020E804002000000240E0
:10589000C4030020FC0400200000404068050020F4
:1058A00034010020350100209C040020D004002099
:1058B000DC000108D4040020E40001080C040020EE
:1058C000EC00010880B582B000AF7860C74B1B7850
:1058D000013B632B00F2218301A252F823F000BFA9
:1058E000715A00087F5A00088D5A00088D5A000826
:1058F0008D5A00088D5A0008615C00086F5C000832
:105900007D5C00088B5C0008995C0008995C0008CD
:105910001B5F0008E35C0008F15C00081B5F0008E7
:105920001B5F00081B5F00081B5F00081B5F00086F
:105930001B5F00081B5F00081B5F00081B5F00085F
:105940001B5F00081B5F00081B5F00081B5F00084F
:105950001B5F00081B5F00081B5F00081B5F00083F
:105960001B5F00081B5F00081B5F00081B5F00082F
:105970001B5F00081B5F00081B5F00081B5F00081F
:105980001B5F00081B5F00081B5F00081B5F00080F
:105990001B5F00081B5F00081B5F00081B5F0008FF
:1059A0001B5F00081B5F00081B5F00081B5F0008EF
:1059B0001B5F00081B5F00081B5F00081B5F0008DF
:1059C0001B5F00081B5F00081B5F00081B5F0008CF
:1059D0001B5F00081B5F00081B5F00081B5F0008BF
:1059E0001B5F00081B5F00081B5F00081B5F0008AF
:1059F0001B5F00081B5F00081B5F00081B5F00089F
:105A00001B5F00081B5F00081B5F00081B5F00088E
:105A10001B5F00081B5F00081B5F00081B5F00087E
:105A20001B5F00081B5F00081B5F00081B5F00086E
:105A30001B5F00081B5F00081B5F0008FF5C00087D
:105A4000FF5C0008D35D0008D35D0008A95E000874
:105A5000B75E0008F55E0008015F00080D5F0008F2
:105A60001B5F00081B5F00081B5F00081B5F00082E
:105A70005F4B00221A705D4B63221A704EE25C4B42
:105A800001221A70594B63221A7047E2574B1B7858
:105A9000584A1B0113440433D3ED007A9FED567A24
:105AA000F4EEC77AF1EE10FA02DD40F209131CE0C1
:105AB0004E4B1B784F4A1B0113440433D3ED007A3D
:105AC0009FED4E7AF4EEC77AF1EE10FA01D5462337
:105AD0000BE0464B1B78474A1B0113440433D3EDBC
