:020000040800F2
:100000000000022001580008F5560008FB560008C1
:1000100001570008075700080D57000800000000AE
:1000200000000000000000000000000041CE0008B9
:10003000135700080000000091D0000815AB00081D
:1000400051580008515800085158000851580008EC
:1000500051580008515800085158000851580008DC
:1000600051580008515800085158000851580008CC
:1000700051580008515800085158000851580008BC
:1000800051580008515800085158000851580008AC
:10009000515800085158000851580008515800089C
:1000A00051580008515800085158000821570008BD
:1000B00051580008355700084957000851580008A2
:1000C000515800085158000851580008515800086C
:1000D0005158000851580008515800085D57000851
:1000E000515800085158000851580008515800084C
:1000F000515800085158000851580008515800083C
:10010000515800085158000851580008515800082B
:10011000515800085158000851580008515800081B
:10012000515800085158000851580008515800080B
:1001300051580008515800085158000851580008FB
:1001400051580008515800085158000851580008EB
:1001500051580008515800085158000851580008DB
:1001600051580008515800085158000851580008CB
:10017000515800085158000851580008000000006C
:08018000515800085158000815
:1001900010B5054C237833B9044B13B10448AFF3C1
:1001A00000800123237010BDA0010020000000008A
:1001B000C0E5000808B5034B1BB103490348AFF382
:1001C000008008BD00000000A4010020C0E5000878
:1001D00001F0FF01102A2BDB10F0070F08D010F8F8
:1001E000013B013A8B422DD010F0070F42B3F6D1FC
:1001F000F0B441EA012141EA014122F007047FF015
:1002000000070023F0E80256083C85EA010586EA6B
:10021000010685FA47F5A3FA87F586FA47F6A5FAA7
:1002200087F68EB9EED1F0BC01F0FF0102F00702B3
:1002300032B110F8013B013A83EA010313B1F8D15E
:100240000020704701387047002D06BF354603383F
:10025000073815F0010F07D1013015F4807F02BF78
:10026000013015F4C03F0130F0BC0138704700BFC9
:1002700081F0004102E000BF83F0004330B54FEA57
:1002800041044FEA430594EA050F08BF90EA020FC4
:100290001FBF54EA000C55EA020C7FEA645C7FEA57
:1002A000655C00F0E2804FEA5454D4EB5555B8BF7A
:1002B0006D420CDD2C4480EA020281EA030382EAEB
:1002C000000083EA010180EA020281EA0303362D7D
:1002D00088BF30BD11F0004F4FEA01314FF4801C50
:1002E0004CEA113102D0404261EB410113F0004F62
:1002F0004FEA03334CEA133302D0524263EB430319
:1003000094EA050F00F0A780A4F10104D5F1200EB6
:100310000DDB02FA0EFC22FA05F2801841F1000111
:1003200003FA0EF2801843FA05F359410EE0A5F1E5
:1003300020050EF1200E012A03FA0EFC28BF4CF016
:10034000020C43FA05F3C01851EBE37101F00045CC
:1003500007D54FF0000EDCF1000C7EEB00006EEBD9
:100360000101B1F5801F1BD3B1F5001F0CD3490863
:100370005FEA30004FEA3C0C04F101044FEA4452BA
:1003800012F5800F80F09A80BCF1004F08BF5FEA41
:10039000500C50F1000041EB045141EA050130BD21
:1003A0005FEA4C0C404141EB0101013C28BFB1F533
:1003B000801FE9D291F0000F04BF01460020B1FA7E
:1003C00081F308BF2033A3F10B03B3F120020CDA51
:1003D0000C3208DD02F1140CC2F10C0201FA0CF02F
:1003E00021FA02F10CE002F11402D8BFC2F1200C94
:1003F00001FA02F120FA0CFCDCBF41EA0C0190404A
:10040000E41AA2BF01EB0451294330BD6FEA040492
:100410001F3C1CDA0C340EDC04F11404C4F120027D
:1004200020FA04F001FA02F340EA030021FA04F38F
:1004300045EA030130BDC4F10C04C4F1200220FAE6
:1004400002F001FA04F340EA0300294630BD21FA24
:1004500004F0294630BD94F0000F83F4801306BFEA
:1004600081F480110134013D4EE77FEA645C18BFDE
:100470007FEA655C29D094EA050F08BF90EA020F75
:1004800005D054EA000C04BF1946104630BD91EA6D
:10049000030F1EBF0021002030BD5FEA545C05D170
:1004A0004000494128BF41F0004130BD14F58004AF
:1004B0003CBF01F5801130BD01F0004545F0FE4123
:1004C00041F470014FF0000030BD7FEA645C1ABF58
:1004D000194610467FEA655C1CBF0B46024650EA8F
:1004E000013406BF52EA033591EA030F41F40021BB
:1004F00030BD00BF90F0000F04BF0021704730B541
:100500004FF4806404F132044FF000054FF0000115
:1005100050E700BF90F0000F04BF0021704730B5D6
:100520004FF4806404F1320410F0004548BF4042AB
:100530004FF000013EE700BF42004FEAE2014FEA00
:1005400031014FEA02701FBF12F07F4393F07F4FDB
:1005500081F06051704732F07F4208BF704793F0DE
:100560007F4F04BF41F40021704730B54FF46074F1
:1005700001F0004521F000411CE700BF50EA0102F4
:1005800008BF704730B54FF000050AE050EA01029D
:1005900008BF704730B511F0004502D5404261EB0D
:1005A00041014FF4806404F132045FEA915C3FF44E
:1005B000D8AE4FF003025FEADC0C18BF03325FEAEB
:1005C000DC0C18BF033202EBDC02C2F1200300FA9C
:1005D00003FC20FA02F001FA03FE40EA0E0021FAC1
:1005E00002F11444BDE600BF70B54FF0FF0C4CF4AF
:1005F000E06C1CEA11541DBF1CEA135594EA0C0F61
:1006000095EA0C0F00F0DEF82C4481EA030621EA9B
:100610004C5123EA4C5350EA013518BF52EA0335D6
:1006200041F4801143F4801338D0A0FB02CE4FF088
:100630000005E1FB02E506F00042E0FB03E54FF0B8
:100640000006E1FB03569CF0000F18BF4EF0010EB0
:10065000A4F1FF04B6F5007F64F5407404D25FEAAC
:100660004E0E6D4146EB060642EAC62141EA55515F
:100670004FEAC52040EA5E504FEACE2EB4F1FD0CA1
:1006800088BFBCF5E06F1ED8BEF1004F08BF5FEA1F
:10069000500E50F1000041EB045170BD06F00046D1
:1006A00046EA010140EA020081EA0301B4EB5C047E
:1006B000C2BFD4EB0C0541EA045170BD41F4801176
:1006C0004FF0000E013C00F3AB8014F1360FDEBF9B
:1006D000002001F0004170BDC4F10004203C35DA77
:1006E0000C341BDC04F11404C4F1200500FA05F3FA
:1006F00020FA04F001FA05F240EA020001F000429B
:1007000021F0004110EBD37021FA04F642EB060110
:100710005EEA430E08BF20EAD37070BDC4F10C043A
:10072000C4F1200500FA04F320FA05F001FA04F2FE
:1007300040EA020001F0004110EBD37041F10001EA
:100740005EEA430E08BF20EAD37070BDC4F12005F5
:1007500000FA05F24EEA020E20FA04F301FA05F25D
:1007600043EA020321FA04F001F0004121FA04F205
:1007700020EA020000EBD3705EEA430E08BF20EAD5
:10078000D37070BD94F0000F0FD101F0004640000F
:1007900041EB010111F4801F08BF013CF7D041EA91
:1007A000060195F0000F18BF704703F00046520095
:1007B00043EB030313F4801F08BF013DF7D043EA66
:1007C0000603704794EA0C0F0CEA135518BF95EA1C
:1007D0000C0F0CD050EA410618BF52EA4306D1D1A3
:1007E00081EA030101F000414FF0000070BD50EAC2
:1007F000410606BF1046194652EA430619D094EA4C
:100800000C0F02D150EA013613D195EA0C0F05D135
:1008100052EA03361CBF104619460AD181EA030189
:1008200001F0004141F0FE4141F470014FF0000041
:1008300070BD41F0FE4141F4780170BD70B54FF0DC
:10084000FF0C4CF4E06C1CEA11541DBF1CEA13555C
:1008500094EA0C0F95EA0C0F00F0A7F8A4EB05043E
:1008600081EA030E52EA03354FEA013100F0888035
:100870004FEA03334FF0805545EA131343EA1263FE
:100880004FEA022245EA111545EA10654FEA0026B3
:100890000EF000419D4208BF964244F1FD0404F56C
:1008A000407402D25B084FEA3202B61A65EB0305C8
:1008B0005B084FEA32024FF480104FF4002CB6EB85
:1008C000020E75EB030E22BFB61A754640EA0C0005
:1008D0005B084FEA3202B6EB020E75EB030E22BF45
:1008E000B61A754640EA5C005B084FEA3202B6EB86
:1008F000020E75EB030E22BFB61A754640EA9C0045
:100900005B084FEA3202B6EB020E75EB030E22BF14
:10091000B61A754640EADC0055EA060E18D04FEAD2
:10092000051545EA16754FEA06164FEAC30343EA72
:1009300052734FEAC2025FEA1C1CC0D111F4801F3F
:100940000BD141EA00014FF000004FF0004CB6E738
:1009500011F4801F04BF01430020B4F1FD0C88BFD7
:10096000BCF5E06F3FF6AFAEB5EB030C04BFB6EBE2
:10097000020C5FEA500C50F1000041EB045170BDD5
:100980000EF0004E4EEA113114EB5C04C2BFD4EB02
:100990000C0541EA045170BD41F480114FF0000E86
:1009A000013C90E645EA060E8DE60CEA135594EA02
:1009B0000C0F08BF95EA0C0F3FF43BAF94EA0C0F05
:1009C0000AD150EA01347FF434AF95EA0C0F7FF47A
:1009D00025AF104619462CE795EA0C0F06D152EACE
:1009E00003353FF4FDAE1046194622E750EA4106B2
:1009F00018BF52EA43067FF4C5AE50EA41047FF4C3
:100A00000DAF52EA43057FF4EBAE12E74FF0FF3C27
:100A100006E000BF4FF0010C02E000BF4FF0010CF8
:100A20004DF804CD4FEA410C7FEA6C5C4FEA430C71
:100A300018BF7FEA6C5C1BD001B050EA410C0CBFC0
:100A400052EA430C91EA030F02BF90EA020F002022
:100A5000704710F1000F91EA030F58BF994208BF89
:100A600090422CBFD8176FEAE37040F00100704746
:100A70004FEA410C7FEA6C5C02D150EA013C07D19D
:100A80004FEA430C7FEA6C5CD6D152EA033CD3D0E8
:100A90005DF8040B704700BF8446104662468C46E2
:100AA0001946634600E000BF01B5FFF7B7FF002815
:100AB00048BF10F1000F01BD4DF808EDFFF7F4FF3E
:100AC0000CBF012000205DF808FB00BF4DF808EDC9
:100AD000FFF7EAFF34BF012000205DF808FB00BFEC
:100AE0004DF808EDFFF7E0FF94BF012000205DF80E
:100AF00008FB00BF4DF808EDFFF7CEFF94BF0120C3
:100B000000205DF808FB00BF4DF808EDFFF7C4FFBB
:100B100034BF012000205DF808FB00BF4A0011D25D
:100B200012F5001211D20DD56FF47873B3EB625247
:100B30000ED44FEAC12343F0004343EA505323FA53
:100B400002F070474FF00000704750EA013002D1C8
:100B50004FF0FF3070474FF0000070474FEA4102FE
:100B6000B2F1E04324BFB3F5001CDCF1FE5C0DD90B
:100B700001F0004C4FEAC0024CEA5070B2F1004F55
:100B800040EB830008BF20F00100704711F0804F58
:100B900021D113F13872BCBF01F00040704741F41D
:100BA00080114FEA5252C2F11802C2F1200C10FA21
:100BB0000CF320FA02F018BF40F001004FEAC12305
:100BC0004FEAD32303FA0CFC40EA0C0023FA02F3A9
:100BD0004FEA4303CCE77FEA625307D150EA01337F
:100BE0001EBF4FF0FE4040F44000704701F000404F
:100BF00040F0FE4040F40000704700BF53B94AB9CE
:100C0000002908BF00281CBF4FF0FF314FF0FF3014
:100C100000F070B9ADF1080C6DE904CE00F006F8F3
:100C2000DDF804E0DDE9022304B070472DE9F04768
:100C3000089E0D4604460F46002B4AD18A42944630
:100C400065D9B2FA82F343B102FA03FCC3F1200280
:100C50009F4020FA02F217439C404FEA1C4E1FFAB5
:100C60008CF5B7FBFEF1220C0EFB117742EA07422E
:100C700001FB05F090420AD91CEB020201F1FF379B
:100C800080F01C81904240F2198102396244121AAC
:100C9000A4B2B2FBFEF00EFB102244EA024400FBB9
:100CA00005F5A5420AD91CEB040400F1FF3280F0DF
:100CB0000781A54240F204816444023840EA0140C1
:100CC000641B00211EB1DC400023C6E90043BDE8DF
:100CD000F0878B4208D9002E00F0ED800021C6E994
:100CE00000050846BDE8F087B3FA83F1002949D131
:100CF000AB4202D3824200F2F880841A65EB030211
:100D000001201746002EE2D0C6E90047DFE702B90E
:100D1000FFDEB2FA82F3002B40F090808A1A4FEA8D
:100D20001C471FFA8CFE0121B2FBF7F507FB1520CB
:100D3000220C42EA00420EFB05F0904208D91CEB5F
:100D4000020205F1FF3802D2904200F2CB80454604
:100D5000121AA4B2B2FBF7F007FB102244EA0244D5
:100D60000EFB00FEA64508D91CEB040400F1FF327F
:100D700002D2A64500F2BB801046A4EB0E0440EA66
:100D800005409FE7C1F120078B4022FA07FC4CEA9F
:100D9000030C05FA01F420FA07F3FD404FEA1C4961
:100DA0002343B5FBF9F81FFA8CFE09FB18551C0C00
:100DB00044EA054408FB0EF5A54202FA01F200FAE6
:100DC00001F00BD91CEB040408F1FF3A80F0888095
:100DD000A54240F28580A8F102086444641B9DB2DC
:100DE000B4FBF9F309FB134445EA044403FB0EFE8C
:100DF000A64508D91CEB040403F1FF356CD2A645C7
:100E00006AD9023B644443EA0843A3FB0295A4EB7E
:100E10000E04AC42C846AE4656D353D056B1B0EBE2
:100E2000080264EB0E0404FA07F7CA40CC401743EB
:100E3000C6E9007418460021BDE8F087C3F120011F
:100E400002FA03FC20FA01F225FA01F19D402A433F
:100E50004FEA1C471FFA8CFEB1FBF7F007FB101599
:100E6000110C41EA054100FB0EF58D4204FA03F432
:100E700008D91CEB010100F1FF382FD28D422DD98A
:100E800002386144491B92B2B1FBF7F507FB15111B
:100E900042EA014205FB0EF1914208D91CEB020225
:100EA00005F1FF3816D2914214D9023D6244521A1C
:100EB00045EA004138E73146304608E73946E6E67C
:100EC0001046FBE64845A9D2B9EB020865EB0C0ECB
:100ED000013BA3E74546EAE72B4694E74046D1E7C6
:100EE000D0467BE7023D624432E708460AE76444A5
:100EF000023842E7704700BF80B582B000AF04F00F
:100F0000A9FC00F05DF900F0F7FC00F0CBFC00F06C
:100F100059FA00F01DFC00F021FB00F081FA00F00E
:100F200071FB00F0DFFB00F0A9F900F0F9F90CF01B
:100F300003FE0023032200216B480CF0B0FB0C21C0
:100F40006A4807F06DF80021694807F069F8042144
:100F5000674807F065F83C21664807F0FFFB664BE1
:100F60001B789BB21A466549654808F010FE654833
:100F700006F024FF0421644807F074F95B4B1B68FA
:100F800091221A644FF4967004F0A6FC5F4B642221
:100F90001A705E4B0A225A805D4B00221A705C4B1D
:100FA00000225A705B4B1A78594B9A7000237B6071
:100FB0000CE064233B7000237B80554A7B689B00D8
:100FC00013443A685A607B6801337B60514B1B784D
:100FD0001A467B689342ECDB9FED4F1ADFED4F0A18
:100FE0009FED4F0A4F4801F049FA9FED4B1ADFED94
:100FF0004B0A9FED4B0A4C4801F040FA9FED4B1A0B
:10100000DFED4B0A9FED4B0A4B4801F037FA3A4BA4
:101010001B789BB21A463949394808F0B8FD334B62
:101020001B6891221A644FF4967004F055FC09F085
:101030008BFD424A0021424809F0D0FD0346414A57
:101040001360414A0021414809F0C8FD0346404A67
:101050001360404A0021404809F0C0FD03463F4A62
:1010600013603F4A00213F4809F0B8FD03463E4A5D
:1010700013603E4A00213E4809F0B0FD03463D4A58
:1010800013603D4A00213D4809F0A8FD03463C4A53
:1010900013603C4A00213C4809F0A0FD03463B4A4E
:1010A00013603B4A00213B4809F098FD03463A4A49
:1010B00013603A4A00213A4809F090FD0346394A44
:1010C0001360394A0021394809F088FD0346384A3F
:1010D0001360384A0021384809F080FD0346374A3A
:1010E000136009F055FDFEE74C020020A00200202D
:1010F000C0030020E8020020000000207804002047
:10110000080400207803002030030020B8040020E9
:101110008404002001000020CDCC4C3FEC51383D30
:101120006666064004050020F00400209A99993E66
:10113000CDCC4C3DCDCC8C3F1805002074E600088A
:10114000D13200084C04002098E60008E132000883
:1011500050040020BCE600080533000854040020B9
:10116000E0E60008593500085804002004E70008AC
:10117000813700085C04002028E700088D3B000848
:10118000600400204CE70008A53F0008640400202C
:1011900070E70008B14300086804002094E70008E5
:1011A000C14700086C040020B8E70008E14D0008C2
:1011B00070040020DCE70008D14E00087404002011
:1011C00080B594B000AF07F120033022002118460B
:1011D0000CF072FD07F10C0300221A605A609A604D
:1011E000DA601A610023BB60224B1B6C214A43F07A
:1011F000805313641F4B1B6C03F08053BB60BB68B0
:1012000000237B601C4B1B681B4A43F48043136024
:10121000194B1B6803F480437B607B6802233B62AD
:101220000123FB6210233B630023BB6307F1200310
:10123000184606F0E9F80346002B01D003F06AFFD8
:101240000F23FB6000233B6100237B610023BB6114
:101250000023FB6107F10C030021184606F04CFB4C
:101260000346002B01D003F055FF00BF5037BD46A9
:1012700080BD00BF003802400070004080B584B0DF
:1012800000AF3B4600221A605A609A60DA60214B38
:10129000214A1A601F4B00225A601E4B00229A609E
:1012A0001C4B00221A611B4B00221A76194B00229C
:1012B00083F82020174B0022DA62164B174A9A62F5
:1012C000144B0022DA60134B0122DA61114B002229
:1012D00083F830200F4B01225A610E4804F020FBA6
:1012E0000346002B01D003F015FF0B233B600123C5
:1012F0007B600023BB603B461946064804F054FB64
:101300000346002B01D003F005FF00BF1037BD4698
:1013100080BD00BFBC010020002001400100000F83
:1013200080B584B000AF3B4600221A605A609A60D4
:10133000DA60214B214A1A601F4B00225A601E4B73
:1013400000229A601C4B00221A611B4B00221A7665
:10135000194B002283F82020174B0022DA62164B2B
:10136000174A9A62144B0022DA60134B0122DA61A9
:10137000114B002283F830200F4B01225A610E4896
:1013800004F0CEFA0346002B01D003F0C3FE0C2379
:101390003B6001237B600023BB603B461946064847
:1013A00004F002FB0346002B01D003F0B3FE00BFA4
:1013B0001037BD4680BD00BF04020020002101405F
:1013C0000100000F80B500AF124B134A1A60114B99
:1013D000124A5A600F4B00229A600E4B0022DA60CC
:1013E0000C4B4FF480421A610A4B00225A61094BA0
:1013F00000229A61074B0022DA61064B00221A6232
:10140000044805F019F80346002B01D003F082FED2
:1014100000BF80BD4C02002000540040A0860100A7
:1014200080B596B000AF07F1480300221A605A60F9
:101430009A60DA6007F1400300221A605A6007F1EF
:10144000240300221A605A609A60DA601A615A61B5
:101450009A613B1D2022002118460CF02DFC3D4BCB
:101460003D4A1A603B4BA0225A603A4B00229A60D8
:10147000384B4FF47A72DA60364B00221A61354BE2
:1014800000225A61334B80229A61324806F046FCB2
:101490000346002B01D003F03DFE4FF48053BB64A4
:1014A00007F1480319462B4807F04CFC0346002B74
:1014B00001D003F02FFE274806F058FD0346002B0D
:1014C00001D003F027FE00233B6400237B6407F177
:1014D000400319461F4808F099F90346002B01D034
:1014E00003F018FE60237B620023BB620023FB62D3
:1014F00000237B630023BB630023FB6307F124030A
:101500000C221946134807F05BFB0346002B01D061
:1015100003F000FE00237B600023BB600023FB6020
:1015200000233B6100237B614FF40053BB61002328
:101530003B623B1D1946074808F0E4F90346002BBF
:1015400001D003F0E7FD034803F0F2FF00BF583776
:10155000BD4680BDA00200200000014080B58CB0D7
:1015600000AF07F10C032422002118460CF0A4FB65
:101570003B1D00221A605A60214B4FF080421A60D6
:101580001F4B00225A601E4B00229A601C4B4FF6E4
:10159000FF72DA601A4B00221A61194B00229A611D
:1015A0000323FB6000233B6101237B610023BB61BC
:1015B0000A23FB6100233B6201237B620023BB62A1
:1015C0000A23FB6207F10C0319460D4807F020F8C7
:1015D0000346002B01D003F09DFD00237B60002318
:1015E000BB603B1D1946064808F010F90346002B66
:1015F00001D003F08FFD00BF3037BD4680BD00BF76
:10160000E802002080B58AB000AF07F1180300227D
:101610001A605A609A60DA6007F1100300221A60BB
:101620005A603B4600221A605A609A60DA602B4B7F
:101630002B4A1A60294B0F225A60284B00229A60CD
:10164000264B4FF6FF72DA60244B00221A61234BBF
:1016500000229A61214806F061FB0346002B01D06D
:1016600003F058FD4FF48053BB6107F1180319468E
:101670001A4807F067FB0346002B01D003F04AFD30
:10168000164806F095FD0346002B01D003F042FDFD
:1016900000233B6100237B6107F1100319460F48CB
:1016A00008F0B4F80346002B01D003F033FD0A2301
:1016B0003B6001237B600023BB600023FB603B4653
:1016C00004221946054807F0DFF90346002B01D034
:1016D00003F020FD00BF2837BD4680BD3003002049
:1016E0000004004080B582B000AF3B4600221A6083
:1016F0005A60154B154A1A60134B0F225A60124B51
:1017000000229A60104B4FF6FF72DA600E4B0022F7
:101710009A610D4806F002FB0346002B01D003F04E
:10172000F9FC00233B6000237B603B4619460648DA
:1017300008F06CF80346002B01D003F0EBFC00BF6F
:101740000837BD4680BD00BF780300200010004070
:1017500080B596B000AF07F1480300221A605A60C6
:101760009A60DA6007F1400300221A605A6007F1BC
:10177000240300221A605A609A60DA601A615A6182
:101780009A613B1D2022002118460CF095FA434B2C
:10179000434A1A60414B00225A60404B00229A6033
:1017A0003E4B41F61F42DA603C4B00221A613B4B34
:1017B00000225A61394B00229A61384806F0AEFA8D
:1017C0000346002B01D003F0A5FC4FF48053BB640B
:1017D00007F148031946314807F0B4FA0346002BD5
:1017E00001D003F097FC2D4806F0C0FB0346002B08
:1017F00001D003F08FFC00233B6400237B6407F1DE
:1018000040031946254808F001F80346002B01D093
:1018100003F080FC60237B620023BB620023FB6239
:1018200000233B6300237B630023BB630023FB6334
:1018300007F1240300221946184807F0C1F90346AE
:10184000002B01D003F066FC07F1240304221946A3
:10185000124807F0B5F90346002B01D003F05AFCFB
:1018600000237B600023BB600023FB6000233B61FF
:1018700000237B614FF40053BB6100233B623B1D9F
:101880001946064808F03EF80346002B01D003F045
:1018900041FC00BF5837BD4680BD00BFC0030020DB
:1018A0000004014080B500AF114B124A1A60104B82
:1018B0004FF4E1325A600E4B00229A600C4B00222A
:1018C000DA600B4B00221A61094B0C225A61084B5B
:1018D00000229A61064B0022DA61054808F078F888
:1018E0000346002B01D003F015FC00BF80BD00BFF4
:1018F000080400200048004080B58AB000AF07F11E
:10190000140300221A605A609A60DA601A61002398
:101910003B61384B1B6B374A43F010031363354B65
:101920001B6B03F010033B613B690023FB60314BF1
:101930001B6B304A43F0040313632E4B1B6B03F005
:101940000403FB60FB680023BB602A4B1B6B294A26
:1019500043F001031363274B1B6B03F00103BB60D0
:10196000BB6800237B60234B1B6B224A43F00203BE
:101970001363204B1B6B03F002037B607B68002228
:101980004FF45E611C4804F03DFD00223C211B48E1
:1019900004F038FD4FF45E637B610123BB610023DB
:1019A000FB6100233B6207F114031946124804F05F
:1019B0008DFB0C237B610123BB610023FB610223B0
:1019C0003B6207F1140319460C4804F07FFB3023F7
:1019D0007B610123BB610023FB6100233B6207F1B4
:1019E00014031946054804F071FB00BF2837BD46B3
:1019F00080BD00BF003802400010024000000240DD
:101A000080B582B000AF78607B681B7F022B40F00E
:101A10008C804B4B1B78002B1AD10421786807F07F
:101A200059FA0346474A1360454B01221A707B68F6
:101A30001B681A6A7B681B6822F0A0021A627B6826
:101A40001B681A6A7B681B6842F020021A626CE00D
:101A50003B4B1B78012B68D10421786807F03AFAD8
:101A60000346394A13607B681B6800225A62364B72
:101A70001A68344B1B689A420CD9334B1A68314BA5
:101A80001B68D31A07EE903AF8EE677A2F4BC3ED36
:101A9000007A14E02B4B1A682B4B1B689A420ED924
:101AA000294B1A68274B1B68D31A03F57F43FF3372
:101AB00007EE903AF8EE677A244BC3ED007A234B99
:101AC0001B681846FEF738FD1BA3D3E90023FEF779
:101AD0008BFD02460B46104619464FF000024FF0B0
:101AE0008043FEF7ABFE02460B4610461946FFF751
:101AF00035F80346154A1360114B00221A707B68B3
:101B00001B681A6A7B681B6822F0A0021A627B6855
:101B10001A687B681B68126A1A620D4B1B68DA68C8
:101B20000B4B1B6822F00402DA6000BF0837BD4689
:101B300080BD00BFAFF300809CC420B07268A13F9D
:101B40003805002030050020340500202C05002039
:101B50003003002080B584B000AF7860944B9B7850
:101B6000A3F1300213469B0013445B001A46904BCE
:101B7000DB78303B1344FB608D4B1B792F2B0ED948
:101B80008B4B1B79392B0AD8FA6813469B001344F8
:101B90005B001A46864B1B79303B1344FB60854B38
:101BA00000221A70824B1B78532B59D1804B5B78E3
:101BB000542B55D1804B1B6800225A637E4B1B6807
:101BC00000229A637D4B1A787D4B1A707B4B0B2257
:101BD0001A707C4B4FF000021A607B4B00221A8077
:101BE0007A4800F06CFC7A4800F069FC794800F013
:101BF00066FC794B00221A80784B1A78774B5B7819
:101C00009A4212D1764B64221A70754B00225A8088
:101C1000744A0F2174480CF01BF84FF6FF7306222C
:101C20007249734807F021FFEBE36C4B5B786C4A19
:101C30006A499B000B445B681360684B5B78013317
:101C4000664A927893FBF2F101FB02F29B1ADAB238
:101C5000624B5A70674A0F2163480BF0F9FFD0E3DB
:101C6000534B1B78522B61D1514B5B78532B5DD179
:101C7000514B1B6800225A634F4B1B6800229A632A
:101C80004E4B1A784E4B1A704C4B0B221A704D4B20
:101C90004FF000021A604C4B00221A80564B1B6812
:101CA00091221A644FF4967003F016FE474800F034
:101CB00006FC474800F003FC464800F000FC464B99
:101CC00000221A80454B1A78444B5B789A4212D115
:101CD000434B64221A70424B00225A80414A0F2122
:101CE00041480BF0B5FF4FF6FF7306223F494048CD
:101CF00007F0BBFE85E3394B5B78394A37499B00D7
:101D00000B445B681360354B5B780133334A927840
:101D100093FBF2F101FB02F29B1ADAB22F4B5A70DD
:101D2000344A0F2130480BF093FF6AE3204B1B78B5
:101D3000462B65D11E4B5B78572B03D01C4B5B7831
:101D4000532B5DD11A4B9B782D2B05D1184BDB788B
:101D50002D2B01D1012300E00023DAB2154B1A70BC
:101D6000134B5B78532B14BF01230023DBB21A46BD
:101D7000224B1A70194B1B78184A9B0013440122FE
:101D80001A71164B1B78FA6891B2144A9B001344DF
:101D90000A46DA80114B1B780133104A927893FB84
:101DA000F2F101FB02F29B1ADAB20C4B1A7028E333
:101DB00078040020CC040020C0030020340100205F
:101DC00035010020D4040020DA040020040500209E
:101DD000F004002018050020E804002084040020FE
:101DE000B804002044E60008BC0400204CE60008CB
:101DF0000804002054E60008A0020020360100205C
:101E0000964B1B78422B3DD1944B5B78572B03D0DC
:101E1000924B5B78532B35D1904B9B782D2B05D172
:101E20008E4BDB782D2B01D1012300E00023DAB2A9
:101E30008B4B1A70894B5B78532B14BF0123002303
:101E4000DBB21A46874B1A70874B1B78864A9B0079
:101E5000134402221A71844B1B78FA6891B2824AA9
:101E60009B0013440A46DA807F4B1B7801337E4A7D
:101E7000927893FBF2F101FB02F29B1ADAB27A4BF1
:101E80001A70BEE2754B1B78462B36D1734B5B78CC
:101E90004C2B32D1714B9B782D2B05D16F4BDB78BE
:101EA0002D2B01D1012300E00023DAB26C4B1A7014
:101EB0006B4B1B78002B01D0032100E007216A4BFC
:101EC0001B78694A9B0013440A461A71664B1B78BB
:101ED000FA6891B2644A9B0013440A46DA80624B66
:101EE0001B780133604A927893FBF2F101FB02F216
:101EF0009B1ADAB25C4B1A7083E2584B1B78462B64
:101F000036D1564B5B78522B32D1544B9B782D2BCC
:101F100005D1524BDB782D2B01D1012300E00023AA
:101F2000DAB24F4B1A704E4B1B78002B01D00421B4
:101F300000E008214C4B1B784B4A9B0013440A4697
:101F40001A71494B1B78FA6891B2474A9B001344B7
:101F50000A46DA80444B1B780133434A927893FB5C
:101F6000F2F101FB02F29B1ADAB23F4B1A7048E21F
:101F70003A4B1B78422B36D1384B5B784C2B32D105
:101F8000364B9B782D2B05D1344BDB782D2B01D193
:101F9000012300E00023DAB2314B1A70304B1B787A
:101FA000002B01D0052100E009212F4B1B782E4A80
:101FB0009B0013440A461A712B4B1B78FA6891B2A6
:101FC000294A9B0013440A46DA80274B1B780133C9
:101FD000254A927893FBF2F101FB02F29B1ADAB2E6
:101FE000214B1A700DE21D4B1B78422B3ED11B4B2F
:101FF0005B78522B3AD1194B9B782D2B05D1174B7F
:10200000DB782D2B01D1012300E00023DAB2144B41
:102010001A70134B1B78002B01D0062100E00A2117
:10202000114B1B78104A9B0013440A461A710E4B41
:102030001B78FA6891B20C4A9B0013440A46DA8076
:10204000094B1B780133084A927893FBF2F101FBAC
:1020500002F29B1ADAB2044B1A70D2E17804002023
:10206000CC0400203601002084040020974B1B780C
:10207000542B21D1954B5B784C2B1DD1944B1B7865
:10208000934A9B0013440B221A71914B1B78FA68F8
:1020900091B28F4A9B0013440A46DA808C4B1B781E
:1020A00001338B4A927893FBF2F101FB02F29B1A07
:1020B000DAB2874B1A70A4E1844B1B78542B21D1E0
:1020C000824B5B78522B1DD1814B1B78804A9B0041
:1020D00013440C221A717E4B1B78FA6891B27C4A29
:1020E0009B0013440A46DA80794B1B780133784A07
:1020F000927893FBF2F101FB02F29B1ADAB2744B75
:102100001A707EE1714B1B78492B21D16F4B5B78A4
:10211000522B1DD16E4B1B786D4A9B0013440D2230
:102120001A716B4B1B78FA6891B2694A9B00134491
:102130000A46DA80664B1B780133654A927893FB36
:10214000F2F101FB02F29B1ADAB2614B1A7058E10C
:102150005E4B1B78442B21D15C4B5B78542B1DD1FB
:102160005B4B1B785A4A9B0013440E221A71584B42
:102170001B78FA6891B2564A9B0013440A46DA80EB
:10218000534B1B780133524A927893FBF2F101FBD7
:1021900002F29B1ADAB24E4B1A7032E14B4B1B78AB
:1021A0005A2B21D1494B5B785A2B1DD1484B1B78B8
:1021B000474A9B0013440F221A71454B1B78FA685B
:1021C00091B2434A9B0013440A46DA80404B1B7885
:1021D00001333F4A927893FBF2F101FB02F29B1A22
:1021E000DAB23B4B1A700CE1384B1B78572B21D1DC
:1021F000364B5B78582B1DD1354B1B78344A9B00EE
:10220000134410221A71324B1B78FA6891B2304A8B
:102210009B0013440A46DA802D4B1B7801332C4A6D
:10222000927893FBF2F101FB02F29B1ADAB2284B8F
:102230001A70E6E0254B1B78572B21D1234B5B7896
:102240004E2B1DD1224B1B78214A9B001344112297
:102250001A711F4B1B78FA6891B21D4A9B001344F8
:102260000A46DA801A4B1B780133194A927893FB9D
:10227000F2F101FB02F29B1ADAB2154B1A70C0E0C0
:10228000124B1B78462B25D1104B5B78412B21D16B
:102290000F4B1B780E4A9B00134458221A710C4BAB
:1022A0001B78FA6891B20A4A9B0013440A46DA8006
:1022B000074B1B780133064A927893FBF2F101FB3E
:1022C00002F29B1ADAB2024B1A709AE078040020EC
:1022D00084040020624B1B78462B21D1604B5B7835
:1022E000432B1DD15F4B1B785E4A9B001344592240
:1022F0001A715C4B1B78FA6891B25A4A9B001344DE
:102300000A46DA80574B1B780133564A927893FB82
:10231000F2F101FB02F29B1ADAB2524B1A7070E032
:102320004F4B1B78422B21D14D4B5B78412B1DD15C
:102330004C4B1B784B4A9B0013445A221A71494B51
:102340001B78FA6891B2474A9B0013440A46DA8028
:10235000444B1B780133434A927893FBF2F101FB23
:1023600002F29B1ADAB23F4B1A704AE03C4B1B78E0
:10237000422B21D13A4B5B78432B1DD1394B1B7833
:10238000384A9B0013445B221A71364B1B78FA685B
:1023900091B2344A9B0013440A46DA80314B1B78D1
:1023A0000133304A927893FBF2F101FB02F29B1A5F
:1023B000DAB22C4B1A7024E0294B1B78542B20D115
:1023C000274B5B78412B1CD1264B1B78254A9B0061
:1023D00013445C221A71234B1B78FA6891B2214A8C
:1023E0009B0013440A46DA801E4B1B7801331D4ABA
:1023F000927893FBF2F101FB02F29B1ADAB2194BCD
:102400001A70184B1A78174B5B789A4219D0154BF3
:102410005B78154A13499B000B445B681360114BB2
:102420005B7801330F4A927893FBF2F101FB02F2E1
:102430009B1ADAB20B4B5A700C4A0F210C480BF066
:1024400007FC0C4B1B685B680B4B1B789BB21A4656
:102450000349084807F09BFB00BF1037BD4680BD0D
:102460007804002084040020B804002054E600080A
:10247000BC040020080400200000002080B485B0C7
:1024800000AFF86087ED020AC7ED010A87ED001A78
:10249000FB68BA681A60FB687A685A60FB683A6839
:1024A0009A60FB684FF00002DA60FB684FF00002B0
:1024B0001A6100BF1437BD465DF8047B704780B4D5
:1024C00083B000AF78607B684FF00002DA607B6811
:1024D0004FF000021A6100BF0C37BD465DF8047B67
:1024E0007047000080B500AF00224FF400611A4829
:1024F00003F088FF194B1B6800225A62174B1B68B8
:102500005B6A312BFAD901224FF40061124803F0C3
:1025100079FF124B1B6800225A62104B1B685B6AE2
:10252000092BFAD900224FF400610B4803F06AFF2F
:102530000A4B1B6800225A62084B1B685B6A312BEE
:10254000FAD9074B1B68DA68054B1B6842F0040296
:10255000DA6000BF80BD00BF001002407803002099
:102560003003002080B586B004AF0346FB714FF600
:10257000FF73029302230193A94B00930123372297
:10258000D021A84804F096F9A54B1B781B021AB27B
:10259000A34B5B781BB213431AB2A34B1A80A34B15
:1025A0001B681B6803F01003102B0CBF01230023D2
:1025B000DBB25AB29E4B1A709B4BB3F9003013F149
:1025C000040F04DB984BB3F900300B2B07DD964B5F
:1025D000B3F9003007EE903AF8EEE77A01E0DFED6C
:1025E000957A954B93ED007A77EE877A924BC3ED0F
:1025F000007AFB79002B64D1904B93ED007A8E4BDF
:10260000D3ED007A27EE277A8C4BD3ED016A8B4B02
:10261000D3ED047A66EEA77A37EE277A874BD3EDAF
:10262000026A864B93ED036A834BD3ED007A76EE14
:10263000677A66EEA77A77EE277AFDEEE77A17EEED
:10264000902A7F4B1A607C4B1B687C4AD3607B4B83
:1026500093ED047A784BD3ED007A77EE277A774BB7
:10266000C3ED047A764B1B68B3F5167F06DC744B1A
:102670001B68744A9342B8BF134601E04FF41673C7
:102680006F4A13606A4B93F900309AB26C4B1B6827
:102690009BB212FB03F39BB203F596639AB26A4BAB
:1026A0001A80634B93F900309AB2654B1B689BB25A
:1026B00012FB03F39BB2C3F596639AB2634B1A8085
:1026C000EFE0FB79022B65D1614B93ED007A5A4B19
:1026D000D3ED007A27EE277A5D4BD3ED016A5C4B90
:1026E000D3ED047A66EEA77A37EE277A584BD3ED0E
:1026F000026A574B93ED036A4F4BD3ED007A76EEA7
:10270000677A66EEA77A77EE277AFDEEE77A17EE1C
:10271000902A4B4B1A60484B1B684D4AD3604C4B78
:1027200093ED047A444BD3ED007A77EE277A484B49
:10273000C3ED047A424B1B68B3F52F7F06DC404B98
:102740001B68444A9342B8BF134601E04FF42F730D
:102750003B4A1360364B93F900309AB2384B1B68F2
:102760009BB212FB03F39BB203F6B8339AB2364B1B
:102770001A802F4B93F900309AB2314B1B689BB2F1
:1027800012FB03F39BB2C3F53B6308339AB22F4BA2
:102790001A8086E0FB79012B40F083802E4B93ED6D
:1027A000007A254BD3ED007A27EE277A2A4BD3ED1A
:1027B000016A294BD3ED047A66EEA77A37EE277AC1
:1027C000254BD3ED026A244B93ED036A1A4BD3EDEC
:1027D000007A76EE677A66EEA77A77EE277AFDEED4
:1027E000E77A17EE902A164B1A60134B1B681A4AA9
:1027F000D360194B93ED047A0F4BD3ED007A77EE4B
:10280000277A154BC3ED047A0D4B1B68B3F52F7F68
:1028100024DC0B4B1B680F4A9342B8BF13461FE0E2
:10282000D80400204C020020DA040020E802002036
:102830003C01002000000000D4040020040500201A
:1028400040050020A8FDFFFFDC040020DE0400207E
:102850001805002044FDFFFFF00400204FF42F7303
:10286000174A1360174B93F900309AB2144B1B6848
:102870009BB212FB03F39BB203F6FC039AB2124B1A
:102880001A80104B93F900309AB20D4B1B689BB223
:1028900012FB03F39BB2C3F50F630C339AB20B4BDD
:1028A0001A80094B1A880A4B1B685A63074B1A880F
:1028B000074B1B689A6300BF0837BD4680BD00BF49
:1028C000400500203C010020DC040020DE04002044
:1028D000C00300200000000080B584B000AF786025
:1028E0000B46FB701346BB70A34B4FF000021A60FF
:1028F000A24B00221A80A248FFF7E1FDA148FFF792
:10290000DEFDA148FFF7DBFDA04B00221A80A04BA3
:1029100000221A809D4B00221A807B681B68184693
:10292000FDF70AFE8EA3D3E90023FDF75DFE024604
:102930000B46104619468CA3D3E90023FDF79CFCF7
:1029400002460B46104619464FF00002914BFDF728
:1029500075FF02460B46104619464FF000028E4B9B
:10296000FDF742FE02460B46104619464FF00002A4
:102970008A4BFDF781FC02460B4610461946FEF7CE
:10298000CDF803469AB2864B1A8002F099FF0346AF
:10299000844A1360FB78002B0CBF01230023DBB2B9
:1029A0001A460421804803F02DFDFB78002B14BF4C
:1029B00001230023DBB21A4608217B4803F022FDE5
:1029C000FB78002B0CBF01230023DBB21A46202129
:1029D000754803F017FDFB78002B14BF012300237B
:1029E000DBB21A461021704803F00CFD6F4B1B68D8
:1029F0005B6A9AB26E4B1A806C4B1B685B6AFB6019
:102A00006A4B1B681B6803F01003102B17D1684B2F
:102A10001B881A46FB68934206D8654B1A88FB68E8
:102A20009BB2D31A9BB207E0614B1A88FB689BB23A
:102A3000D31A9BB2013B9BB2554A138016E05C4B04
:102A40001B881A46FB68934206D3FB689AB2584B20
:102A50001B88D31A9BB207E0FB689AB2544B1B88C1
:102A6000D31A9BB2013B9BB2494A1380FB689AB2CE
:102A70004F4B1A80454B1A88454B1B8813449AB21A
:102A8000424B1A80414B1A88454B1B889A4280F072
:102A9000A68002F015FF0246424B1B68D31A092B91
:102AA000AAD9BB78002B03D10020FFF75BFD90E093
:102AB000364B1B881A463A4B1B88D31A002BB8BFDB
:102AC0005B423C4A82FB0312D211DB17D31A07EE9A
:102AD000903AF8EEE77A384BC3ED007ABB78012BD9
:102AE0001ED1354BD3ED007AB7EE007AF4EEC77AFB
:102AF000F1EE10FA02DD4FF07E530EE02E4BD3EDD7
:102B0000007AB6EE087AF4EEC77AF1EE10FA02D542
:102B10004FF07D5301E0284B1B68274A136053E0B8
:102B2000BB78022B50D1244BD3ED007AB7EE007A5C
:102B3000F4EEC77AF1EE10FA02DD4FF07E5341E079
:102B40001D4B1B681846FDF7F7FC09A3D3E90023CA
:102B5000FDF7BCFF0346002B32D0184B32E000BF1C
:102B60002AB266FCAC66F23FF82625BBD4E3EE3F02
:102B70009A9999999999D93FD4040020DA040020B0
:102B800004050020F004002018050020E8040020BF
:102B9000EC0400200000344000A0944000002440D9
:102BA000EA040020E004002000000240E8020020C7
:102BB000EE0400206757192138010020CDCCCC3E0F
:102BC0000D4B1B680C4A1360BB780B49184600F08C
:102BD00019F802F075FE0346084A13600CE700BFBF
:102BE000074B1B6800225A63054B1B6800229A633F
:102BF00000BF1037BD4680BD38010020E004002032
:102C0000C003002080B586B004AF03463960FB7175
:102C10004FF6FF730293022301939B4B0093012312
:102C20003722D021994803F045FE974B1B781B02B1
:102C30001AB2954B5B781BB213431AB2944B1A80AD
:102C4000944B1B681B6803F01003102B01D1012269
:102C500001E04FF0FF32904B1A708D4BB3F900300A
:102C600013F1040F04DB8A4BB3F900300B2B07DDA3
:102C7000874BB3F9003007EE903AF8EEE77A01E0BF
:102C8000DFED867A864B93ED007A77EE877A844B78
:102C9000C3ED007AFB79012B65D1824B93ED007A6D
:102CA0007F4BD3ED007A27EE277A7E4BD3ED016A76
:102CB0007C4BD3ED047A66EEA77A37EE277A794B10
:102CC000D3ED026A774B93ED036A754BD3ED007A2F
:102CD00076EE677A66EEA77A77EE277AFDEEE77AE8
:102CE00017EE902A704B1A606D4B1B686D4AD360CB
:102CF0006C4B93ED047A6A4BD3ED007A77EE277A2A
:102D0000684BC3ED047A684B1B68B3F52F7F06DC74
:102D1000654B1B68654A9342B8BF134601E04FF408
:102D20002F73614A13605C4B93F900309AB25E4B8B
:102D30001B689BB212FB03F39BB203F6FC039AB22F
:102D40005B4B1A80544B93F900309AB2564B1B6878
:102D50009BB212FB03F39BB2C3F50F630C339AB221
:102D6000544B1A8067E0FB79022B64D1524B93EDF0
:102D7000007A4B4BD3ED007A27EE277A4E4BD3EDFA
:102D8000016A4D4BD3ED047A66EEA77A37EE277AC7
:102D9000494BD3ED026A484B93ED036A404BD3EDA8
:102DA000007A76EE677A66EEA77A77EE277AFDEEFE
:102DB000E77A17EE902A3C4B1A60394B1B683E4A63
:102DC000D3603D4B93ED047A354BD3ED007A77EE2B
:102DD000277A394BC3ED047A334B1B68B3F52F7F49
:102DE00006DC314B1B68314A9342B8BF134601E001
:102DF0004FF42F732C4A1360274B93F900309AB28B
:102E0000294B1B689BB212FB03F39BB203F6B8334A
:102E10009AB2274B1A80204B93F900309AB2224B7A
:102E20001B689BB212FB03F39BB2C3F53B630833F1
:102E30009AB2204B1A801E4B1B8807EE903AB8EED0
:102E4000E77A3B68D3ED007A67EE277A1B4B1B6865
:102E5000FCEEE77A17EE902A5A63164B1B8807EEB2
:102E6000903AB8EEE77A3B68D3ED007A67EE277ABE
:102E7000124B1B68FCEEE77A17EE902A9A6300BFAC
:102E80000837BD4680BD00BFD80400204C0200209A
:102E9000DA040020E80200203C01002000000000CD
:102EA000D4040020F00400204005002044FDFFFF72
:102EB000DC040020DE04002018050020C0030020F0
:102EC000B0B586B004AF78604B4B4FF000021A608B
:102ED0004A4B00221A8002F0F3FC0346484A136072
:102EE00002F0EEFC0246464B1B68D31A092BF7D9B9
:102EF0004FF6FF73029302230193424B0093012389
:102F00003722D021404803F0D5FC3E4B1B781B02F2
:102F10001AB23C4B5B781BB213431AB2374B1A8080
:102F2000354B1B681846FDF707FB04460D46334B2F
:102F3000B3F900301846FDF7EDFA2BA3D3E90023CF
:102F4000FDF77CFC02460B461046194628A3D3E940
:102F50000023FDF749FB02460B4620462946FDF7B4
:102F60008DF902460B4610461946FDF7F7FD03465C
:102F7000214A1360204B93ED007A7B68D3ED007AF1
:102F800077EE677AFDEEE77A17EE903A002B0DDBCD
:102F9000194B93ED007A7B68D3ED007A77EE677A70
:102FA000FDEEE77A17EE903A002B05DD02F088FC83
:102FB0000346134A136093E700BF144B1B680022BB
:102FC0005A63124B1B6800229A63114B1B689122B3
:102FD0001A644FF4967002F07FFC00BF0837BD46BC
:102FE000B0BD00BFAFF300806666666666663040BF
:102FF0007B14AE47E17A843FD4040020DA04002039
:10300000E0040020D80400204C020020C00300206F
:10301000A00200200000000080B582B000AF786000
:103020000B46FB709C4B4FF000021A609B4B00223A
:103030001A809B48FFF743FA9A48FFF740FA9A48EC
:10304000FFF73DFA994B9A4A1A600421994805F016
:1030500009F902F035FC0346974A1360FFF742FA7C
:103060000A2007F04DFE7B6893ED007A8F4BD3ED7D
:10307000007A77EE677AFDEEE77A17EE903A002B4A
:103080000EDB7B6893ED007A884BD3ED007A77EE08
:10309000677AFDEEE77A17EE903A002B40F3E68070
:1030A0007B6893ED007A814BD3ED007AB4EEE77A3A
:1030B000F1EE10FA94BF01230023DBB283F0010389
:1030C000DBB2DBB21A4604217C4803F09BF97B6833
:1030D00093ED007A754BD3ED007AB4EEE77AF1EE1A
:1030E00010FA94BF01230023DBB21A46082173486B
:1030F00003F088F97B6893ED007A6C4BD3ED007A8E
:10310000B4EEE77AF1EE10FA94BF01230023DBB2AC
:1031100083F00103DBB2DBB21A462021674803F0DB
:1031200071F97B6893ED007A604BD3ED007AB4EED1
:10313000E77AF1EE10FA94BF01230023DBB21A46BE
:1031400010215E4803F05EF902F0BAFB02465A4BCA
:103150001B68D31A132B81D9FB78012B3FD1534B1A
:1031600093ED007A7B68D3ED007A77EE677AFDEE17
:10317000E77A17EE903A002BB8BF5B42504A82FBC9
:1031800003121A44D210DB17D31A07EE903AF8EE66
:10319000E77A4C4BC3ED007A4A4BD3ED007AB7EE99
:1031A000007AF4EEC77AF1EE10FA02DD4FF07E53AA
:1031B0000EE0444BD3ED007AB6EE087AF4EEC77A0F
:1031C000F1EE10FA02D54FF07D5301E03D4B1B6844
:1031D0003C4A13603B490120FFF714FD40E0334BAC
:1031E00093ED007A7B68D3ED007A77EE677AFDEE97
:1031F000E77A17EE903A002BB8BF5B42304A82FB69
:1032000003121A44D210DB17D31A07EE903AF8EEE5
:10321000E77A2C4BC3ED007A2A4BD3ED007AB7EE58
:10322000007AF4EEC77AF1EE10FA02DD4FF07E5329
:1032300010E0244B1B681846FDF77EF914A3D3E970
:103240000023FDF743FC0346002B01D01E4B01E099
:103250001C4B1B681B4A13601A490220FFF7D2FC63
:1032600002F02EFB0346144A1360F7E600BF174B2B
:103270001B6800225A63154B1B6800229A630421C5
:103280000C4805F017F900BF0837BD4680BD00BFE8
:103290009A9999999999D93FD4040020DA04002089
:1032A00004050020F0040020180500202C05002053
:1032B00000007A4430030020E004002000000240B7
:1032C0008988888838010020CDCCCC3EC0030020FE
:1032D00080B582B000AF7860642007F011FDFBE795
:1032E00080B582B000AF7860054A282100200AF03E
:1032F000F1FB0AF07BFA642007F002FDF4E700BF5F
:103300007804002080B582B000AF78607B4B1B78DA
:10331000002B04D04FF47A7007F0F2FCF6E7784BFC
:103320004FF000021A60774B00221A80764B1B7810
:10333000002B62D0754B4FF000021A60744B0022D4
:103340001A807448FFF7BBF87348FFF7B8F8734862
:10335000FFF7B5F800220421714803F053F8012269
:1033600008216F4803F04EF8002220216C4803F03A
:1033700049F8012210216A4803F044F8694B1B68A0
:1033800000225A63674B1B6800229A635B4B1A78D2
:10339000654B1A70594B0B221A70644B00221A604D
:1033A000634B64221A70624B00225A80614A0F21DB
:1033B00061480AF04DFC4FF6FF7306225F496048F2
:1033C00006F053FB02F07CFA03465E4A13604E4B54
:1033D0001B78002B00F0908002F072FA0246594BE5
:1033E0001B68D31A092BF2D90020FFF7BBF802F0B3
:1033F00067FA0346534A1360E9E74D4B5B8807EED3
:10340000903AF8EE677A3E4BC3ED007A3C4BD3ED31
:10341000007AB2EE0E7AF4EEC77AF1EE10FA02D824
:10342000494B00221A70364BD3ED007A9FED477A54
:10343000F4EEC77AF1EE10FA09DB314BD3ED007AE6
:10344000B0EE007A77EEC77A2D4BC3ED007A3E4B93
:103450001B78002B05D1002201212948FFF73CFAF7
:1034600004E0022201212648FFF736FA2D4B1B68A3
:1034700000225A632B4B1B6800229A631F4B1A7859
:10348000294B1A701D4B0B221A70284B00221A6010
:103490002F4B1A782E4B5B789A4212D1244B642220
:1034A0001A70234B00225A80224A0F2122480AF028
:1034B000CFFB4FF6FF7306222049214806F0D5FACC
:1034C00024E7234B5B781A4A21499B000B445B6835
:1034D00013601F4B5B7801331D4A927893FBF2F126
:1034E00001FB02F29B1ADAB2194B5A70194A0F21EA
:1034F00011480AF0ADFB09E700BF07E734010020DF
:10350000E4040020EA040020CC040020D4040020BD
:10351000DA04002004050020F00400201805002033
:1035200000000240C0030020350100203C050020BF
:10353000B804002044E60008BC0400204CE6000863
:1035400008040020E0040020360100200000C842EA
:103550008404002054E6000880B582B000AF786093
:10356000714B1B78012B04D04FF47A7007F0C8FB25
:10357000F6E76E4B4FF000021A606D4B00221A8086
:103580006C4B1B78002B61D06B4B4FF000021A6024
:103590006A4B00221A806A48FEF791FF6948FEF7DD
:1035A0008EFF6948FEF78BFF01220421674802F075
:1035B00029FF00220821654802F024FF0122202172
:1035C000624802F01FFF00221021604802F01AFF3B
:1035D0005F4B1B6800225A635D4B1B6800229A6395
:1035E000514B1A785B4B1A704F4B0B221A705A4B87
:1035F00000221A60594B64221A70584B00225A80DC
:10360000574A0F2157480AF023FB4FF6FF73062253
:103610005549564806F029FA02F052F90346544A31
:103620001360444B1B78002B7BD002F049F9024613
:103630004F4B1B68D31A092BF3D90020FEF792FFDA
:1036400002F03EF903464A4A1360EAE7434B5B88BF
:1036500007EE903AF8EE677A344BC3ED007A334BBD
:10366000D3ED007AB2EE0E7AF4EEC77AF1EE10FAEC
:1036700002D8404B00221A703E4B1B78002B05D11C
:10368000002200212948FFF727F904E00222002147
:103690002648FFF721F92E4B1B6800225A632C4B5A
:1036A0001B6800229A63204B1A782A4B1A701E4B13
:1036B0000B221A70284B00221A602F4B1A782E4BBF
:1036C0005B789A4212D1254B64221A70234B002258
:1036D0005A80234A0F2123480AF0BAFA4FF6FF73A3
:1036E00006222149214806F0C0F939E7224B5B78D0
:1036F0001A4A21499B000B445B6813601E4B5B78A0
:1037000001331D4A927893FBF2F101FB02F29B1AFE
:10371000DAB2194B5A70194A0F2112480AF098FA76
:103720001EE700BF1CE700BF34010020E4040020B6
:10373000EA040020CC040020D4040020DA04002095
:1037400004050020F00400201805002000000240BD
:10375000C0030020350100203C050020B8040020F3
:1037600044E60008BC0400204CE6000808040020E1
:10377000E0040020360100208404002054E6000804
:1037800080B582B000AF7860944B1B78022B04D0D8
:103790004FF47A7007F0B4FAF6E7914B5B88142B7C
:1037A00000F083801E2B40F0F8808E4B8E4A1A600A
:1037B000002201218B48FFF78FF88C4BD3ED3D7A27
:1037C0009FED8B7AF4EEC77AF1EE10FA02DD40F24B
:1037D000091312E0854BD3ED3D7A9FED867AF4EE26
:1037E000C77AF1EE10FA01D5462306E07F4BD3ED00
:1037F0003D7AFCEEE77A17EE903A7F4A126813643E
:103800004FF4967002F068F8784BD3F8F8307B4AA2
:103810001360764B93F8FC30002B0CBF0123002380
:10382000DBB21A460421764802F0ECFD6F4B93F8A8
:10383000FC30002B14BF01230023DBB21A46082101
:103840006F4802F0DFFD694B93F8FC30002B0CBF92
:1038500001230023DBB21A462021694802F0D2FD81
:10386000624B93F8FC30002B14BF01230023DBB222
:103870001A461021624802F0C5FD5C4BB3F8F020F7
:10388000604B1B685A63594BB3F8F2205D4B1B68C1
:103890009A635A48FFF714FB524B5B4A1A600022A6
:1038A00000215048FFF718F811E14E4B4E4A1A60BC
:1038B000002201214B48FFF70FF84C4BD3ED2D7A36
:1038C0009FED4B7AF4EEC77AF1EE10FA02DD40F28A
:1038D000091312E0454BD3ED2D7A9FED467AF4EEB5
:1038E000C77AF1EE10FA01D5462306E03F4BD3ED3F
:1038F0002D7AFCEEE77A17EE903A3F4A126813648D
:103900004FF4967001F0E8FF384BD3F8B8303B4ADB
:103910001360364B93F8BC30002B0CBF01230023FF
:10392000DBB21A460421364802F06CFD2F4B93F8A7
:10393000BC30002B14BF01230023DBB21A46082140
:103940002F4802F05FFD294B93F8BC30002B0CBFD1
:1039500001230023DBB21A462021294802F052FD40
:10396000224B93F8BC30002B14BF01230023DBB2A1
:103970001A461021224802F045FD1C4BB3F8B02036
:10398000204B1B685A63194BB3F8B2201D4B1B68C0
:103990009A631A48FFF794FA99E0124B1B4A1A608F
:1039A000002201210F48FEF797FF104BD3ED1D7A3F
:1039B0009FED0F7AF4EEC77AF1EE10FA02DD40F2D5
:1039C00009132CE0094BD3ED1D7A9FED0A7AF4EE32
:1039D000C77AF1EE10FA1BD5462320E0340100200F
:1039E000B8040020E40400200000A04004000020EF
:1039F0000080844300008C42A0020020D0040020FC
:103A000000000240C00300200000404000003041A0
:103A10004E4BD3ED1D7AFCEEE77A17EE903A4C4A06
:103A2000126813644FF4967001F056FF474B9B6F7A
:103A3000484A1360454B93F87C30002B0CBF0123A0
:103A40000023DBB21A460421434802F0DBFC3F4B63
:103A500093F87C30002B14BF01230023DBB21A46FD
:103A600008213D4802F0CEFC384B93F87C30002B07
:103A70000CBF01230023DBB21A462021364802F096
:103A8000C1FC324B93F87C30002B14BF0123002380
:103A9000DBB21A461021304802F0B4FC2B4BB3F8CD
:103AA00070202E4B1B685A63284BB3F872202B4BA7
:103AB0001B689A632748FFF703FA294B4FF08042AF
:103AC0001A60002201212648FEF706FF00BF254BA1
:103AD00000221A60244B1A78244B1A70224B0B22B6
:103AE0001A70234B1A78224B5B789A4212D1214BE1
:103AF00064221A701F4B00225A801F4A0F211F4850
:103B00000AF0A6F84FF6FF7306221D491D4805F07E
:103B1000ACFF39E6164B5B78164A15499B000B44FF
:103B20005B681360124B5B780133114A927893FB08
:103B3000F2F101FB02F29B1ADAB20D4B5A70124AF3
:103B40000F210E480AF084F81EE600BF0400002092
:103B5000A0020020D004002000000240C00300208A
:103B6000E40400203C050020340100203501002041
:103B700084040020B804002044E60008BC040020AF
:103B80004CE600080804002054E6000880B582B026
:103B900000AF7860994B1B78032B04D04FF47A70F8
:103BA00007F0AEF8F6E7964B5B88142B00F08580A3
:103BB0001E2B40F00181934B4FF081421A6000228E
:103BC00001219048FEF788FE8F4BD3ED417A9FED9F
:103BD0008F7AF4EEC77AF1EE10FA02DD40F20913A3
:103BE00012E0894BD3ED417A9FED897AF4EEC77AE2
:103BF000F1EE10FA01D5462306E0834BD3ED417A6E
:103C0000FCEEE77A17EE903A824A126813644FF49A
:103C1000967001F061FE7C4BD3F808317E4A136048
:103C2000794B93F80C31002B0CBF01230023DBB23E
:103C30001A460421794802F0E5FB734B93F80C31E6
:103C4000002B14BF01230023DBB21A46082173485E
:103C500002F0D8FB6C4B93F80C31002B0CBF012306
:103C60000023DBB21A4620216C4802F0CBFB664BE6
:103C700093F80C31002B14BF01230023DBB21A464A
:103C80001021664802F0BEFB5F4BB3F80021644B85
:103C90001B685A635C4BB3F80221614B1B689A6343
:103CA0005D48FFF70DF9574B4FF080421A60002234
:103CB00000215448FEF710FE16E1524B4FF08142AE
:103CC0001A60002201214F48FEF706FE0A2007F085
:103CD00017F84D4BD3ED317A9FED4C7AF4EEC77A5D
:103CE000F1EE10FA02DD40F2091312E0464BD3ED7B
:103CF000317A9FED477AF4EEC77AF1EE10FA01D5EA
:103D0000462306E0404BD3ED317AFCEEE77A17EE1E
:103D1000903A404A126813644FF4967001F0DCFD4B
:103D2000394BD3F8C8303C4A1360374B93F8CC304A
:103D3000002B0CBF01230023DBB21A4604213748B5
:103D400002F060FB304B93F8CC30002B14BF012302
:103D50000023DBB21A460821304802F053FB2A4BFD
:103D600093F8CC30002B0CBF01230023DBB21A46A2
:103D700020212A4802F046FB234B93F8CC30002B3D
:103D800014BF01230023DBB21A461021234802F09E
:103D900039FB1D4BB3F8C020214B1B685A631A4BEB
:103DA000B3F8C2201E4B1B689A631B48FFF788F8C4
:103DB0000A2006F0A5FF97E0124B1A4A1A6000226B
:103DC00001211048FEF788FD0F4BD3ED217A9FEDBE
:103DD0000F7AF4EEC77AF1EE10FA02DD40F2091321
:103DE00029E0094BD3ED217A9FED097AF4EEC77AE9
:103DF000F1EE10FA18D546231DE000BF3401002073
:103E0000B8040020E4040020040000200080844363
:103E100000008C42A0020020D004002000000240DC
:103E2000C0030020000060404E4BD3ED217AFCEE31
:103E3000E77A17EE903A4C4A126813644FF4967082
:103E400001F04AFD474BD3F88830484A1360454B90
:103E500093F88C30002B0CBF01230023DBB21A46F1
:103E60000421434802F0CEFA3E4B93F88C30002BED
:103E700014BF01230023DBB21A4608213C4802F09C
:103E8000C1FA384B93F88C30002B0CBF0123002370
:103E9000DBB21A462021364802F0B4FA314B93F8CF
:103EA0008C30002B14BF01230023DBB21A461021F3
:103EB0002F4802F0A7FA2B4BB3F880202D4B1B683C
:103EC0005A63284BB3F882202A4B1B689A63274811
:103ED000FEF7F6FF284B4FF080421A6000220021C7
:103EE0002548FEF7F9FC00BF244B00221A60244B42
:103EF0001A78244B1A70224B0B221A70224B1A7814
:103F0000214B5B789A4212D1204B64221A701F4BCE
:103F100000225A801E4A0F211E4809F099FE4FF6D2
:103F2000FF7306221C491D4805F09FFD32E6164B23
:103F30005B78164A14499B000B445B681360124B74
:103F40005B780133104A927893FBF2F101FB02F2A5
:103F50009B1ADAB20C4B5A70114A0F210D4809F026
:103F600077FE17E604000020A0020020D004002005
:103F700000000240C0030020E40400203C050020B3
:103F8000340100203501002084040020B804002002
:103F900044E60008BC0400204CE6000808040020A9
:103FA00054E6000880B582B000AF7860964B1B786D
:103FB000042B04D04FF47A7006F0A2FEF6E7934B80
:103FC0005B88142B00F084801E2B40F0FA80904B0D
:103FD0004FF07E521A60002201218D48FEF77CFCD2
:103FE0008C4BD3ED457A9FED8C7AF4EEC77AF1EEE7
:103FF00010FA02DD40F2091312E0864BD3ED457A48
:104000009FED867AF4EEC77AF1EE10FA01D54623D9
:1040100006E0804BD3ED457AFCEEE77A17EE903A56
:104020007F4A126813644FF4967001F055FC794B87
:10403000D3F818317B4A1360764B93F81C31002B70
:104040000CBF01230023DBB21A460421764802F09C
:10405000D9F9704B93F81C31002B14BF01230023B6
:10406000DBB21A460821704802F0CCF9694B93F88C
:104070001C31002B0CBF01230023DBB21A46202188
:10408000694802F0BFF9634B93F81C31002B14BF51
:1040900001230023DBB21A461021634802F0B2F973
:1040A0005C4BB3F81021614B1B685A63594BB3F852
:1040B00012215E4B1B689A635A48FEF701FF544B6E
:1040C0005B4A1A60002200215148FEF705FC11E10D
:1040D000504BD3ED357A9FED507AF4EEC77AF1EE7E
:1040E00010FA02DD40F2091312E04A4BD3ED357AA3
:1040F0009FED4A7AF4EEC77AF1EE10FA01D5462325
:1041000006E0444BD3ED357AFCEEE77A17EE903AB1
:10411000434A126813644FF4967001F0DDFB3D4B87
:10412000D3F8D8303F4A13603A4B93F8DC30002B79
:104130000CBF01230023DBB21A4604213A4802F0E7
:1041400061F9344B93F8DC30002B14BF01230023BA
:10415000DBB21A460821344802F054F92D4B93F88B
:10416000DC30002B0CBF01230023DBB21A462021D8
:104170002D4802F047F9274B93F8DC30002B14BF91
:1041800001230023DBB21A461021274802F03AF936
:10419000204BB3F8D020254B1B685A631D4BB3F856
:1041A000D220224B1B689A631E48FEF789FE184BEB
:1041B0004FF081421A60002200211548FEF78CFB67
:1041C00098E0134B4FF07E521A60002200211048F5
:1041D000FEF782FB0F4BD3ED257A9FED0F7AF4EEBD
:1041E000C77AF1EE10FA02DD40F2091329E0094B1B
:1041F000D3ED257A9FED097AF4EEC77AF1EE10FA45
:1042000018D546231DE000BF34010020B80400206B
:10421000E4040020040000200080844300008C425D
:10422000A0020020D004002000000240C0030020B3
:104230000000C0404E4BD3ED257AFCEEE77A17EE36
:10424000903A4C4A126813644FF4967001F044FBA4
:10425000474BD3F89830484A1360454B93F89C304D
:10426000002B0CBF01230023DBB21A460421434874
:1042700002F0C8F83E4B93F89C30002B14BF01238A
:104280000023DBB21A4608213C4802F0BBF8384B49
:1042900093F89C30002B0CBF01230023DBB21A469D
:1042A0002021364802F0AEF8314B93F89C30002BB9
:1042B00014BF01230023DBB21A4610212F4802F05D
:1042C000A1F82B4BB3F890202D4B1B685A63284B59
:1042D000B3F892202A4B1B689A632748FEF7F0FD3B
:1042E000284B4FF082421A60002200212548FEF739
:1042F000F3FA00BF244B00221A60244B1A78244B97
:104300001A70224B0B221A70224B1A78214B5B78C1
:104310009A4212D1204B64221A701F4B00225A80FD
:104320001E4A0F211E4809F093FC4FF6FF73062228
:104330001C491D4805F099FB38E6164B5B78164A78
:1043400014499B000B445B681360124B5B7801338C
:10435000104A927893FBF2F101FB02F29B1ADAB257
:104360000C4B5A70114A0F210D4809F071FC1DE6E3
:1043700004000020A0020020D00400200000024021
:10438000C0030020E40400203C050020340100208C
:104390003501002084040020B804002044E6000811
:1043A000BC0400204CE600080804002054E6000885
:1043B00080B582B000AF7860954B1B78052B04D098
:1043C0004FF47A7006F09CFCF6E7924B5B88142B56
:1043D00000F084801E2B40F0FA808F4B4FF080421B
:1043E0001A60002200218C48FEF776FA8B4BD3ED41
:1043F000497A9FED8B7AF4EEC77AF1EE10FA02DD7E
:1044000040F2091312E0854BD3ED497A9FED857A8E
:10441000F4EEC77AF1EE10FA01D5462306E07F4BA1
:10442000D3ED497AFCEEE77A17EE903A7E4A1268AD
:1044300013644FF4967001F04FFA784BD3F828319B
:104440007A4A1360754B93F82C31002B0CBF012373
:104450000023DBB21A460421754801F0D3FF6F4BED
:1044600093F82C31002B14BF01230023DBB21A4632
:1044700008216F4801F0C6FF684B93F82C31002BE0
:104480000CBF01230023DBB21A462021684801F04B
:10449000B9FF624B93F82C31002B14BF012300238A
:1044A000DBB21A461021624801F0ACFF5B4BB3F857
:1044B0002021604B1B685A63584BB3F822215D4B97
:1044C0001B689A635948FEF7FBFC534B5A4A1A6023
:1044D000002200215048FEF7FFF910E14F4BD3EDC9
:1044E000397A9FED4F7AF4EEC77AF1EE10FA02DDD9
:1044F00040F2091312E0494BD3ED397A9FED497A26
:10450000F4EEC77AF1EE10FA01D5462306E0434BEC
:10451000D3ED397AFCEEE77A17EE903A424A126808
:1045200013644FF4967001F0D7F93C4BD3F8E830A0
:104530003E4A1360394B93F8EC30002B0CBF01233B
:104540000023DBB21A460421394801F05BFF334BEC
:1045500093F8EC30002B14BF01230023DBB21A4682
:104560000821334801F04EFF2C4B93F8EC30002B20
:104570000CBF01230023DBB21A4620212C4801F096
:1045800041FF264B93F8EC30002B14BF012300238E
:10459000DBB21A461021264801F034FF1F4BB3F856
:1045A000E020244B1B685A631C4BB3F8E220214BDC
:1045B0001B689A631D48FEF783FC174B4FF081423E
:1045C0001A60002200211448FEF786F997E0124B8A
:1045D0001A4A1A60002201210F48FEF77DF90F4B9D
:1045E000D3ED297A9FED0E7AF4EEC77AF1EE10FA48
:1045F00002DD40F209132AE0084BD3ED297A9FED42
:10460000097AF4EEC77AF1EE10FA19D546231EE0C6
:1046100034010020B8040020E4040020040000203D
:104620000080844300008C42A0020020D0040020BF
:1046300000000240C00300200000E0400000A04055
:104640004E4BD3ED297AFCEEE77A17EE903A4C4ABE
:10465000126813644FF4967001F03EF9474BD3F89B
:10466000A830484A1360454B93F8AC30002B0CBF80
:1046700001230023DBB21A460421434801F0C2FEA5
:104680003E4B93F8AC30002B14BF01230023DBB268
:104690001A4608213C4801F0B5FE384B93F8AC307F
:1046A000002B0CBF01230023DBB21A462021364821
:1046B00001F0A8FE314B93F8AC30002B14BF01235E
:1046C0000023DBB21A4610212F4801F09BFE2B4B32
:1046D000B3F8A0202D4B1B685A63284BB3F8A220D7
:1046E0002A4B1B689A632748FEF7EAFB284B294AA6
:1046F0001A60002200212648FEF7EEF800BF264B84
:1047000000221A60254B1A78254B1A70234B0B2276
:104710001A70244B1A78234B5B789A4212D1224BA1
:1047200064221A70204B00225A80204A0F21204810
:1047300009F08EFA4FF6FF7306221E491E4805F057
:1047400094F939E6174B5B78174A16499B000B44DE
:104750005B681360134B5B780133124A927893FBCA
:10476000F2F101FB02F29B1ADAB20E4B5A70134AB5
:104770000F210F4809F06CFA1EE600BF040000206C
:10478000A0020020D004002000000240C00300204E
:10479000E4040020000040403C05002034010020DB
:1047A0003501002084040020B804002044E60008FD
:1047B000BC0400204CE600080804002054E6000871
:1047C00080B582B000AF7860C74B1B78013B632B8C
:1047D00000F2E98201A252F823F000BF6D490008FF
:1047E0007B4900088949000889490008894900086F
:1047F000894900085D4B00086B4B0008794B0008A5
:10480000874B0008954B0008954B0008A74D000802
:10481000DF4B0008A74D0008A74D0008A74D000872
:10482000A74D0008A74D0008A74D0008A74D000898
:10483000A74D0008A74D0008A74D0008A74D000888
:10484000A74D0008A74D0008A74D0008A74D000878
:10485000A74D0008A74D0008A74D0008A74D000868
:10486000A74D0008A74D0008A74D0008A74D000858
:10487000A74D0008A74D0008A74D0008A74D000848
:10488000A74D0008A74D0008A74D0008A74D000838
:10489000A74D0008A74D0008A74D0008A74D000828
:1048A000A74D0008A74D0008A74D0008A74D000818
:1048B000A74D0008A74D0008A74D0008A74D000808
:1048C000A74D0008A74D0008A74D0008A74D0008F8
:1048D000A74D0008A74D0008A74D0008A74D0008E8
:1048E000A74D0008A74D0008A74D0008A74D0008D8
:1048F000A74D0008A74D0008A74D0008A74D0008C8
:10490000A74D0008A74D0008A74D0008A74D0008B7
:10491000A74D0008A74D0008A74D0008A74D0008A7
:10492000A74D0008A74D0008A74D0008A74D000897
:10493000A74D0008A74D0008ED4B0008ED4B0008FF
:10494000C34C0008C34C0008994D0008A74D00084F
:10495000A74D0008A74D0008A74D0008A74D000867
:10496000A74D0008A74D0008A74D00085F4B002287
:104970001A705D4B63221A7016E25C4B01221A70AA
:10498000594B63221A700FE2574B1B78584A1B0190
:1049900013440433D3ED007A9FED567AF4EEC77AD0
:1049A000F1EE10FA02DD40F209131CE04E4B1B78C9
:1049B0004F4A1B0113440433D3ED007A9FED4E7A26
:1049C000F4EEC77AF1EE10FA01D546230BE0464B20
:1049D0001B78474A1B0113440433D3ED007AFCEEE5
:1049E000E77A17EE903A454A126813644FF49670CE
:1049F00000F072FF3C4B1B783D4A1B011344083307
:104A00001B683F4A1360384B1B78394A1B0113441B
:104A10000C331B78002B0CBF01230023DBB21A469A
:104A20000421384801F0EEFC2F4B1B78304A1B0163
:104A300013440C331B78002B14BF01230023DBB27B
:104A40001A4608212F4801F0DDFC274B1B78284A25
:104A50001B0113440C331B78002B0CBF01230023D4
:104A6000DBB21A462021274801F0CCFC1E4B1B78F4
:104A70001F4A1B0113440C331B78002B14BF012366
:104A80000023DBB21A4610211E4801F0BBFC164B76
:104A90001B78174A1B0113441A881B4B1B685A6367
:104AA000114B1B78124A1B01134402331A88164B10
:104AB0001B689A63154B1A78144B5B789A422FD176
:104AC000094B64221A70084B00225A80104A0F21A9
:104AD000104809F0BDF84FF6FF7306220E490F4843
:104AE00004F0C3FF36E000BFB8040020340100200A
:104AF000040000200080844300008C42A0020020BB
:104B0000D004002000000240C003002084040020E4
:104B100044E60008BC0400204CE60008080400201D
:104B2000A34B5B78A34AA2499B000B445B681360CC
:104B30009F4B5B7801339E4A927893FBF2F101FB25
:104B400002F29B1ADAB29A4B5A709B4A0F219B4889
:104B500009F07EF8974B63221A7025E1984B0222E8
:104B60001A70944B63221A701EE1954B03221A703F
:104B7000904B63221A7017E1914B04221A708D4BEF
:104B800063221A7010E18E4B05221A70894B632242
:104B90001A7009E1874B1B780B2B05D0894B1B68DA
:104BA00040F209121A6403E0864B1B6846221A641D
:104BB0004FF4967000F090FE7E4B64221A707D4B8D
:104BC00000225A80804A0F217C4809F041F84FF6B4
:104BD000FF7306227D497E4804F047FFE4E0784BEE
:104BE00009221A70734B63221A70DDE0714B1B7837
:104BF000582B05D0734B1B6840F209121A6403E06E
:104C0000704B1B6846221A644FF4967000F064FEE5
:104C1000002204216F4801F0F5FB012208216D48B4
:104C200001F0F0FB002220216A4801F0EBFB012299
:104C30001021684801F0E6FB5E4B1B78582B13D11E
:104C40005C4B5B8807EE903AF8EE677A624BC3EDF7
:104C5000007A624B1B6840F235525A635F4B1B6807
:104C60004FF4FA629A6313E0524B5B885B4207EEA3
:104C7000903AF8EEE77A584BC3ED007A574B1B6831
:104C80004FF4FA625A63554B1B6840F235529A63EF
:104C9000484B63221A705048FEF712F9454B6422C4
:104CA0001A70444B00225A80474A0F21434808F0AB
:104CB000CFFF4FF6FF7306224449454804F0D5FE66
:104CC00072E03C4B1B785A2B05D13E4B1B6840F2DF
:104CD00009121A6403E03B4B1B6846221A644FF426
:104CE000967000F0F9FD012204213A4801F08AFB98
:104CF00000220821374801F085FB01222021354898
:104D000001F080FB00221021324801F07BFB294B8F
:104D10001B785A2B13D1274B5B8807EE903AF8EE9D
:104D2000677A2D4BC3ED007A2C4B1B684FF4FA6267
:104D30005A632A4B1B6840F235529A6313E01D4BAD
:104D40005B885B4207EE903AF8EEE77A224BC3EDC0
:104D5000007A224B1B6840F235525A631F4B1B6886
:104D60004FF4FA629A63134B63221A701A48FEF7E3
:104D7000A7F8104B64221A700E4B00225A80124A78
:104D80000F210E4808F064FF4FF6FF7306220F490B
:104D90000F4804F06AFE07E0094B0A221A70054B1F
:104DA00063221A7000E000BF012005F0A9FF0BE5A7
:104DB00084040020B804002054E60008BC0400204D
:104DC00034010020A002002044E600084CE6000860
:104DD0000804002000000240D0040020C00300208E
:104DE00080B582B000AF78602D4B1B78092B04D0C2
:104DF0004FF47A7005F084FFF6E72A4B5B8807EEE4
:104E0000903AF8EE677A284BC3ED007A02212648E3
:104E1000FEF702F9254B1B6800225A63234B1B68DF
:104E200000229A631E4B1A78214B1A701C4B0B22DE
:104E30001A70204B00221A601F4B1A781E4B5B78A9
:104E40009A4212D1174B64221A70164B00225A80D4
:104E50001A4A0F211A4808F0FBFE4FF6FF7306228C
:104E60001849194804F001FEBEE7134B5B780D4A60
:104E700011499B000B445B6813600F4B5B78013357
:104E80000D4A927893FBF2F101FB02F29B1ADAB21F
:104E9000094B5A700D4A0F21094808F0D9FEA3E7C3
:104EA00034010020B8040020E4040020C0030020E6
:104EB000350100203C0500208404002044E6000861
:104EC000BC0400204CE600080804002054E600085A
:104ED00080B582B000AF7860744B1B780A2B04D089
:104EE0004FF47A7005F00CFFDCE0714B5B88012B0E
:104EF00002D0022B4DD098E06E4B6F4A1A606F4B78
:104F00001B684FF4FA625A636C4B1B6840F23552CF
:104F10009A636B4B6B4A1A60002201216848FDF7C7
:104F2000DBFC644B684A1A60644B1B6840F23552E4
:104F30005A63624B1B684FF4FA629A63604B634A90
:104F40001A60002201215E48FDF7C6FC594B5E4AFB
:104F50001A605A4B1B6840F235525A63574B1B6814
:104F60004FF4FA629A63564B564A1A6000220121A6
:104F70005348FDF7B1FC4F4B4F4A1A604F4B1B682B
:104F80004FF4FA625A634D4B1B6840F235529A63F4
:104F90004BE0484B4C4A1A60484B1B6840F2355274
:104FA0005A63464B1B684FF4FA629A63444B454A76
:104FB0001A60002201214248FDF78EFC3D4B3E4A1B
:104FC0001A603E4B1B684FF4FA625A633B4B1B68F6
:104FD00040F235529A633A4B3C4A1A600022012152
:104FE0003748FDF779FC334B334A1A60334B1B6863
:104FF0004FF4FA625A63314B1B6840F235529A63A0
:105000002F4B304A1A60002201212D48FDF764FC25
:10501000284B2D4A1A60294B1B6840F235525A63BF
:10502000264B1B68C8229A6300BF294B00221A60D6
:105030001E4B1A78274B1A701C4B0B221A70264BEA
:105040001A78254B5B789A4212D1194B64221A7058
:10505000174B00225A80214A0F21214808F0F8FD01
:105060004FF6FF7306221F491F4804F0FEFC19E0AB
:10507000194B5B780E4A18499B000B445B68136020
:10508000154B5B780133144A927893FBF2F101FBE4
:1050900002F29B1ADAB2104B5A70144A0F211048D0
:1050A00008F0D6FD012005F02BFE15E734010020A5
:1050B000B8040020D0040020000034C2C003002047
:1050C000E40400200000A040000034420000204121
:1050D0003C050020350100208404002044E600083F
:1050E000BC0400204CE600080804002054E6000838
:1050F00080B582B000AF78607B681B68044A934239
:1051000001D100F0C9FB00BF0837BD4680BD00BF1C
:105110000008004080B400AF72B600BFFEE7000098
:1051200080B582B000AF00237B60124B5B6C114AEC
:1051300043F4804353640F4B5B6C03F480437B6008
:105140007B6800233B600B4B1B6C0A4A43F0805387
:105150001364084B1B6C03F080533B603B680022D8
:105160000F216FF0010000F0F5FE00BF0837BD46CB
:1051700080BD00BF0038024080B58CB000AF7860C1
:1051800007F11C0300221A605A609A60DA601A6103
:105190007B681B682E4A934228D10023BB612D4BAC
:1051A0005B6C2C4A43F4807353642A4B5B6C03F4AE
:1051B0008073BB61BB6900237B61264B1B6B254A57
:1051C00043F004031363234B1B6B03F004037B6165
:1051D0007B690223FB6103233B6200237B6207F1AF
:1051E0001C0319461C4800F071FF2CE07B681B680B
:1051F0001A4A934227D100233B61164B5B6C154A38
:1052000043F400735364134B5B6C03F400733B6112
:105210003B690023FB600F4B1B6B0E4A43F00403FA
:1052200013630C4B1B6B03F00403FB60FB6804234C
:10523000FB6103233B6200237B6207F11C031946D9
:10524000054800F043FF00BF3037BD4680BD00BFBA
:1052500000200140003802400008024000210140C7
:1052600080B58AB000AF786007F1140300221A609D
:105270005A609A60DA601A617B681B68194A934227
:105280002CD100233B61184B1B6B174A43F00203E0
:105290001363154B1B6B03F002033B613B694FF437
:1052A00040737B611223BB610023FB6103233B62DC
:1052B00004237B6207F1140319460C4800F006FF33
:1052C0000023FB60084B1B6C074A43F40013136474
:1052D000054B1B6C03F40013FB60FB6800BF283711
:1052E000BD4680BD0054004000380240000402402A
:1052F00080B58EB000AF786007F1240300221A60F9
:105300005A609A60DA601A617B681B684E4A934261
:1053100016D100233B624D4B5B6C4C4A43F00103BA
:1053200053644A4B5B6C03F001033B623B6A00220F
:1053300005211B2000F00EFE1B2000F027FE7EE062
:105340007B681B68424A934234D10023FB613F4B88
:105350001B6C3E4A43F0020313643C4B1B6C03F08E
:105360000203FB61FB690023BB61384B1B6B374AAF
:1053700043F002031363354B1B6B03F00203BB6165
:10538000BB6920237B620223BB620023FB620023F4
:105390003B6302237B6307F1240319462D4800F089
:1053A00095FE002205211D2000F0D4FD1D2000F0F7
:1053B000EDFD44E07B681B68274A93420ED1002331
:1053C0007B61224B1B6C214A43F0100313641F4B7B
:1053D0001B6C03F010037B617B6930E07B681B680A
:1053E0001E4A93422BD100233B61184B5B6C174A3A
:1053F00043F002035364154B5B6C03F002033B6103
:105400003B690023FB60114B1B6B104A43F0040304
:1054100013630E4B1B6B03F00403FB60FB68C0239C
:105420007B620223BB620023FB6200233B630323F6
:105430007B6307F124031946094800F047FE00BFCB
:105440003837BD4680BD00BF000001400038024033
:10545000000400400004024000100040000401402D
:105460000008024080B58AB000AF786007F11403ED
:1054700000221A605A609A60DA601A617B681B68C1
:10548000B3F1804F4AD100233B61264B1B6C254A68
:1054900043F001031364234B1B6C03F001033B61D6
:1054A0003B690023FB601F4B1B6B1E4A43F001034B
:1054B00013631C4B1B6B03F00103FB60FB680023B1
:1054C000BB60184B1B6B174A43F002031363154B69
:1054D0001B6B03F00203BB60BB684FF400437B61AE
:1054E0000223BB610023FB6100233B6201237B623B
:1054F00007F1140319460C4800F0E8FD08237B610E
:105500000223BB610023FB6100233B6201237B621A
:1055100007F114031946054800F0D8FD00BF2837ED
:10552000BD4680BD00380240000002400004024039
:1055300080B588B000AF786007F10C0300221A60D4
:105540005A609A60DA601A617B681B68124A93425B
:105550001ED10023BB60114B1B6B104A43F010039C
:1055600013630E4B1B6B03F01003BB60BB684FF45F
:105570008043FB6002233B6100237B610023BB610E
:105580000123FB6107F10C031946054800F09EFD5D
:1055900000BF2037BD4680BD0000014000380240FA
:1055A0000010024080B58AB000AF786007F11403A4
:1055B00000221A605A609A60DA601A617B681B6880
:1055C0001D4A934234D100233B611C4B1B6C1B4A88
:1055D00043F480231364194B1B6C03F480233B6159
:1055E0003B690023FB60154B1B6B144A43F004031B
:1055F0001363124B1B6B03F00403FB60FB684FF457
:1056000040637B610223BB610023FB6103233B6298
:1056100007237B6207F114031946094800F056FD81
:1056200000220521272000F095FC272000F0AEFC89
:1056300000BF2837BD4680BD00480040003802400A
:105640000008024080B58CB000AF78600023FB6298
:105650000023BB62002279681E2000F07BFC1E2024
:1056600000F094FC0023FB601E4B1B6C1D4A43F0B2
:10567000040313641B4B1B6C03F00403FB60FB6807
:1056800007F1100207F114031146184602F014FB4B
:1056900002F0EAFAF862FB6A134AA2FB03239B0CAE
:1056A000013BBB62114B124A1A60104B40F2E732C9
:1056B000DA600E4ABB6A53600C4B00221A610B4B36
:1056C00000229A60094802F029FB0346002B04D10E
:1056D000064802F0DBFB034600E0012318463037A2
:1056E000BD4680BD0038024083DE1B4344050020D8
:1056F0000008004080B400AFFEE780B400AFFEE7D2
:1057000080B400AFFEE780B400AFFEE780B400AF26
:10571000FEE780B400AF00BFBD465DF8047B704774
:1057200080B500AF024803F0A7F800BF80BD00BFFE
:10573000A002002080B500AF024803F09DF800BF32
:1057400080BD00BF3003002080B500AF024803F0E9
:1057500093F800BF80BD00BF4405002080B500AFB6
:10576000024804F045FA00BF80BD00BF08040020D5
:1057700080B586B000AF7860144A154BD31A7B61B0
:105780007B693B61134B1B68002B02D1114B124A02
:105790001A60104B1A687B6813443A699A4207D220
:1057A00008F092FA03460C221A604FF0FF3309E02A
:1057B000084B1B68FB60074B1A687B681344054A5B
:1057C0001360FB6818461837BD4680BD00000220F4
:1057D000000400008C0500203054002080B400AF8D
:1057E000064BD3F88830054A43F47003C2F888307A
:1057F00000BFBD465DF8047B704700BF00ED00E0D0
:10580000DFF834D00D480E490E4A002302E0D45888
:10581000C4500433C4188C42F9D30B4A0B4C0023F8
:1058200001E013600432A242FBD3FFF7D7FF08F078
:1058300051FAFBF761FB70470000022000000020D6
:10584000A0010020C0F20008A00100202C5400207C
:10585000FEE7000080B500AF0E4B1B680D4A43F415
:10586000007313600B4B1B680A4A43F48063136098
:10587000084B1B68074A43F480731360032000F051
:105880005EFB0F20FFF7DEFEFFF74AFC0023184601
:1058900080BD00BF003C024080B400AF064B1B78C7
:1058A0001A46064B1B681344044A136000BFBD46EA
:1058B0005DF8047B704700BF480100209005002080
:1058C00080B400AF034B1B681846BD465DF8047BEF
:1058D000704700BF9005002080B584B000AF7860AD
:1058E000FFF7EEFFB8607B68FB60FB68B3F1FF3F3A
:1058F00005D00A4B1B781A46FB681344FB6000BFB7
:10590000FFF7DEFF0246BB68D31AFA689A42F7D85F
:1059100000BF00BF1037BD4680BD00BF480100205A
:1059200080B584B000AF78600023FB737B68002BE8
:1059300001D1012333E07B681B6C002B09D178680F
:10594000FFF71AFC7B6800225A647B68002283F808
:105950003C207B681B6C03F01003002B18D17B6884
:105960001B6C23F4885323F0020343F002027B688C
:105970001A64786800F03AF97B6800225A647B6800
:105980001B6C23F0030343F001027B681A6401E0FF
:105990000123FB737B68002283F83C20FB7B1846C5
:1059A0001037BD4680BD000080B485B000AF786080
:1059B00039600023BB607B6893F83C30012B01D138
:1059C000022305E17B68012283F83C203B681B68C9
:1059D000092B25D97B681B68D9683B681B689BB27B
:1059E0001A4613465B0013441E3B072202FA03F3D8
:1059F000DA437B681B680A40DA607B681B68D968F9
:105A00003B689A683B681B689BB2184603465B007C
:105A100003441E3B9A407B681B680A43DA6022E01D
:105A20007B681B6819693B681B689BB21A46134662
:105A30005B001344072202FA03F3DA437B681B6816
:105A40000A401A617B681B6819693B689A683B6861
:105A50001B689BB2184603465B0003449A407B6870
:105A60001B680A431A613B685B68062B24D87B6875
:105A70001B68596B3B685A6813469B001344053BEF
:105A80001F2202FA03F3DA437B681B680A405A6359
:105A90007B681B68596B3B681B689BB218463B6868
:105AA0005A6813469B001344053B00FA03F27B68D7
:105AB0001B680A435A634CE03B685B680C2B24D894
:105AC0007B681B68196B3B685A6813469B0013443C
:105AD000233B1F2202FA03F3DA437B681B680A4068
