:020000040800F2
:100000000000022031690008256800082B680008FC
:1000100031680008376800083D68000800000000EB
:10002000000000000000000000000000B1E2000835
:10003000436800080000000001E5000881BF0008D7
:1000400081690008816900088169000881690008E8
:1000500081690008816900088169000881690008D8
:1000600081690008816900088169000881690008C8
:1000700081690008816900088169000881690008B8
:1000800081690008816900088169000881690008A8
:100090008169000881690008816900088169000898
:1000A00081690008816900088169000851680008B9
:1000B000816900086568000879680008816900089E
:1000C0008169000881690008816900088169000868
:1000D0008169000881690008816900088D6800084D
:1000E0008169000881690008816900088169000848
:1000F0008169000881690008816900088169000838
:100100008169000881690008816900088169000827
:100110008169000881690008816900088169000817
:100120008169000881690008816900088169000807
:1001300081690008816900088169000881690008F7
:1001400081690008816900088169000881690008E7
:1001500081690008816900088169000881690008D7
:1001600081690008816900088169000881690008C7
:1001700081690008816900088169000800000000A9
:08018000816900088169000893
:1001900010B5054C237833B9044B13B10448AFF3C1
:1001A00000800123237010BDA40100200000000086
:1001B00044FB000808B5034B1BB103490348AFF3E8
:1001C000008008BD00000000A801002044FB0008DA
:1001D00001F0FF01102A2BDB10F0070F08D010F8F8
:1001E000013B013A8B422DD010F0070F42B3F6D1FC
:1001F000F0B441EA012141EA014122F007047FF015
:1002000000070023F0E80256083C85EA010586EA6B
:10021000010685FA47F5A3FA87F586FA47F6A5FAA7
:1002200087F68EB9EED1F0BC01F0FF0102F00702B3
:1002300032B110F8013B013A83EA010313B1F8D15E
:100240000020704701387047002D06BF354603383F
:10025000073815F0010F07D1013015F4807F02BF78
:10026000013015F4C03F0130F0BC0138704700BFC9
:1002700081F0004102E000BF83F0004330B54FEA57
:1002800041044FEA430594EA050F08BF90EA020FC4
:100290001FBF54EA000C55EA020C7FEA645C7FEA57
:1002A000655C00F0E2804FEA5454D4EB5555B8BF7A
:1002B0006D420CDD2C4480EA020281EA030382EAEB
:1002C000000083EA010180EA020281EA0303362D7D
:1002D00088BF30BD11F0004F4FEA01314FF4801C50
:1002E0004CEA113102D0404261EB410113F0004F62
:1002F0004FEA03334CEA133302D0524263EB430319
:1003000094EA050F00F0A780A4F10104D5F1200EB6
:100310000DDB02FA0EFC22FA05F2801841F1000111
:1003200003FA0EF2801843FA05F359410EE0A5F1E5
:1003300020050EF1200E012A03FA0EFC28BF4CF016
:10034000020C43FA05F3C01851EBE37101F00045CC
:1003500007D54FF0000EDCF1000C7EEB00006EEBD9
:100360000101B1F5801F1BD3B1F5001F0CD3490863
:100370005FEA30004FEA3C0C04F101044FEA4452BA
:1003800012F5800F80F09A80BCF1004F08BF5FEA41
:10039000500C50F1000041EB045141EA050130BD21
:1003A0005FEA4C0C404141EB0101013C28BFB1F533
:1003B000801FE9D291F0000F04BF01460020B1FA7E
:1003C00081F308BF2033A3F10B03B3F120020CDA51
:1003D0000C3208DD02F1140CC2F10C0201FA0CF02F
:1003E00021FA02F10CE002F11402D8BFC2F1200C94
:1003F00001FA02F120FA0CFCDCBF41EA0C0190404A
:10040000E41AA2BF01EB0451294330BD6FEA040492
:100410001F3C1CDA0C340EDC04F11404C4F120027D
:1004200020FA04F001FA02F340EA030021FA04F38F
:1004300045EA030130BDC4F10C04C4F1200220FAE6
:1004400002F001FA04F340EA0300294630BD21FA24
:1004500004F0294630BD94F0000F83F4801306BFEA
:1004600081F480110134013D4EE77FEA645C18BFDE
:100470007FEA655C29D094EA050F08BF90EA020F75
:1004800005D054EA000C04BF1946104630BD91EA6D
:10049000030F1EBF0021002030BD5FEA545C05D170
:1004A0004000494128BF41F0004130BD14F58004AF
:1004B0003CBF01F5801130BD01F0004545F0FE4123
:1004C00041F470014FF0000030BD7FEA645C1ABF58
:1004D000194610467FEA655C1CBF0B46024650EA8F
:1004E000013406BF52EA033591EA030F41F40021BB
:1004F00030BD00BF90F0000F04BF0021704730B541
:100500004FF4806404F132044FF000054FF0000115
:1005100050E700BF90F0000F04BF0021704730B5D6
:100520004FF4806404F1320410F0004548BF4042AB
:100530004FF000013EE700BF42004FEAE2014FEA00
:1005400031014FEA02701FBF12F07F4393F07F4FDB
:1005500081F06051704732F07F4208BF704793F0DE
:100560007F4F04BF41F40021704730B54FF46074F1
:1005700001F0004521F000411CE700BF50EA0102F4
:1005800008BF704730B54FF000050AE050EA01029D
:1005900008BF704730B511F0004502D5404261EB0D
:1005A00041014FF4806404F132045FEA915C3FF44E
:1005B000D8AE4FF003025FEADC0C18BF03325FEAEB
:1005C000DC0C18BF033202EBDC02C2F1200300FA9C
:1005D00003FC20FA02F001FA03FE40EA0E0021FAC1
:1005E00002F11444BDE600BF70B54FF0FF0C4CF4AF
:1005F000E06C1CEA11541DBF1CEA135594EA0C0F61
:1006000095EA0C0F00F0DEF82C4481EA030621EA9B
:100610004C5123EA4C5350EA013518BF52EA0335D6
:1006200041F4801143F4801338D0A0FB02CE4FF088
:100630000005E1FB02E506F00042E0FB03E54FF0B8
:100640000006E1FB03569CF0000F18BF4EF0010EB0
:10065000A4F1FF04B6F5007F64F5407404D25FEAAC
:100660004E0E6D4146EB060642EAC62141EA55515F
:100670004FEAC52040EA5E504FEACE2EB4F1FD0CA1
:1006800088BFBCF5E06F1ED8BEF1004F08BF5FEA1F
:10069000500E50F1000041EB045170BD06F00046D1
:1006A00046EA010140EA020081EA0301B4EB5C047E
:1006B000C2BFD4EB0C0541EA045170BD41F4801176
:1006C0004FF0000E013C00F3AB8014F1360FDEBF9B
:1006D000002001F0004170BDC4F10004203C35DA77
:1006E0000C341BDC04F11404C4F1200500FA05F3FA
:1006F00020FA04F001FA05F240EA020001F000429B
:1007000021F0004110EBD37021FA04F642EB060110
:100710005EEA430E08BF20EAD37070BDC4F10C043A
:10072000C4F1200500FA04F320FA05F001FA04F2FE
:1007300040EA020001F0004110EBD37041F10001EA
:100740005EEA430E08BF20EAD37070BDC4F12005F5
:1007500000FA05F24EEA020E20FA04F301FA05F25D
:1007600043EA020321FA04F001F0004121FA04F205
:1007700020EA020000EBD3705EEA430E08BF20EAD5
:10078000D37070BD94F0000F0FD101F0004640000F
:1007900041EB010111F4801F08BF013CF7D041EA91
:1007A000060195F0000F18BF704703F00046520095
:1007B00043EB030313F4801F08BF013DF7D043EA66
:1007C0000603704794EA0C0F0CEA135518BF95EA1C
:1007D0000C0F0CD050EA410618BF52EA4306D1D1A3
:1007E00081EA030101F000414FF0000070BD50EAC2
:1007F000410606BF1046194652EA430619D094EA4C
:100800000C0F02D150EA013613D195EA0C0F05D135
:1008100052EA03361CBF104619460AD181EA030189
:1008200001F0004141F0FE4141F470014FF0000041
:1008300070BD41F0FE4141F4780170BD70B54FF0DC
:10084000FF0C4CF4E06C1CEA11541DBF1CEA13555C
:1008500094EA0C0F95EA0C0F00F0A7F8A4EB05043E
:1008600081EA030E52EA03354FEA013100F0888035
:100870004FEA03334FF0805545EA131343EA1263FE
:100880004FEA022245EA111545EA10654FEA0026B3
:100890000EF000419D4208BF964244F1FD0404F56C
:1008A000407402D25B084FEA3202B61A65EB0305C8
:1008B0005B084FEA32024FF480104FF4002CB6EB85
:1008C000020E75EB030E22BFB61A754640EA0C0005
:1008D0005B084FEA3202B6EB020E75EB030E22BF45
:1008E000B61A754640EA5C005B084FEA3202B6EB86
:1008F000020E75EB030E22BFB61A754640EA9C0045
:100900005B084FEA3202B6EB020E75EB030E22BF14
:10091000B61A754640EADC0055EA060E18D04FEAD2
:10092000051545EA16754FEA06164FEAC30343EA72
:1009300052734FEAC2025FEA1C1CC0D111F4801F3F
:100940000BD141EA00014FF000004FF0004CB6E738
:1009500011F4801F04BF01430020B4F1FD0C88BFD7
:10096000BCF5E06F3FF6AFAEB5EB030C04BFB6EBE2
:10097000020C5FEA500C50F1000041EB045170BDD5
:100980000EF0004E4EEA113114EB5C04C2BFD4EB02
:100990000C0541EA045170BD41F480114FF0000E86
:1009A000013C90E645EA060E8DE60CEA135594EA02
:1009B0000C0F08BF95EA0C0F3FF43BAF94EA0C0F05
:1009C0000AD150EA01347FF434AF95EA0C0F7FF47A
:1009D00025AF104619462CE795EA0C0F06D152EACE
:1009E00003353FF4FDAE1046194622E750EA4106B2
:1009F00018BF52EA43067FF4C5AE50EA41047FF4C3
:100A00000DAF52EA43057FF4EBAE12E74FF0FF3C27
:100A100006E000BF4FF0010C02E000BF4FF0010CF8
:100A20004DF804CD4FEA410C7FEA6C5C4FEA430C71
:100A300018BF7FEA6C5C1BD001B050EA410C0CBFC0
:100A400052EA430C91EA030F02BF90EA020F002022
:100A5000704710F1000F91EA030F58BF994208BF89
:100A600090422CBFD8176FEAE37040F00100704746
:100A70004FEA410C7FEA6C5C02D150EA013C07D19D
:100A80004FEA430C7FEA6C5CD6D152EA033CD3D0E8
:100A90005DF8040B704700BF8446104662468C46E2
:100AA0001946634600E000BF01B5FFF7B7FF002815
:100AB00048BF10F1000F01BD4DF808EDFFF7F4FF3E
:100AC0000CBF012000205DF808FB00BF4DF808EDC9
:100AD000FFF7EAFF34BF012000205DF808FB00BFEC
:100AE0004DF808EDFFF7E0FF94BF012000205DF80E
:100AF00008FB00BF4DF808EDFFF7CEFF94BF0120C3
:100B000000205DF808FB00BF4DF808EDFFF7C4FFBB
:100B100034BF012000205DF808FB00BF4A0011D25D
:100B200012F5001211D20DD56FF47873B3EB625247
:100B30000ED44FEAC12343F0004343EA505323FA53
:100B400002F070474FF00000704750EA013002D1C8
:100B50004FF0FF3070474FF0000070474FEA4102FE
:100B6000B2F1E04324BFB3F5001CDCF1FE5C0DD90B
:100B700001F0004C4FEAC0024CEA5070B2F1004F55
:100B800040EB830008BF20F00100704711F0804F58
:100B900021D113F13872BCBF01F00040704741F41D
:100BA00080114FEA5252C2F11802C2F1200C10FA21
:100BB0000CF320FA02F018BF40F001004FEAC12305
:100BC0004FEAD32303FA0CFC40EA0C0023FA02F3A9
:100BD0004FEA4303CCE77FEA625307D150EA01337F
:100BE0001EBF4FF0FE4040F44000704701F000404F
:100BF00040F0FE4040F40000704700BF53B94AB9CE
:100C0000002908BF00281CBF4FF0FF314FF0FF3014
:100C100000F070B9ADF1080C6DE904CE00F006F8F3
:100C2000DDF804E0DDE9022304B070472DE9F04768
:100C3000089E0D4604460F46002B4AD18A42944630
:100C400065D9B2FA82F343B102FA03FCC3F1200280
:100C50009F4020FA02F217439C404FEA1C4E1FFAB5
:100C60008CF5B7FBFEF1220C0EFB117742EA07422E
:100C700001FB05F090420AD91CEB020201F1FF379B
:100C800080F01C81904240F2198102396244121AAC
:100C9000A4B2B2FBFEF00EFB102244EA024400FBB9
:100CA00005F5A5420AD91CEB040400F1FF3280F0DF
:100CB0000781A54240F204816444023840EA0140C1
:100CC000641B00211EB1DC400023C6E90043BDE8DF
:100CD000F0878B4208D9002E00F0ED800021C6E994
:100CE00000050846BDE8F087B3FA83F1002949D131
:100CF000AB4202D3824200F2F880841A65EB030211
:100D000001201746002EE2D0C6E90047DFE702B90E
:100D1000FFDEB2FA82F3002B40F090808A1A4FEA8D
:100D20001C471FFA8CFE0121B2FBF7F507FB1520CB
:100D3000220C42EA00420EFB05F0904208D91CEB5F
:100D4000020205F1FF3802D2904200F2CB80454604
:100D5000121AA4B2B2FBF7F007FB102244EA0244D5
:100D60000EFB00FEA64508D91CEB040400F1FF327F
:100D700002D2A64500F2BB801046A4EB0E0440EA66
:100D800005409FE7C1F120078B4022FA07FC4CEA9F
:100D9000030C05FA01F420FA07F3FD404FEA1C4961
:100DA0002343B5FBF9F81FFA8CFE09FB18551C0C00
:100DB00044EA054408FB0EF5A54202FA01F200FAE6
:100DC00001F00BD91CEB040408F1FF3A80F0888095
:100DD000A54240F28580A8F102086444641B9DB2DC
:100DE000B4FBF9F309FB134445EA044403FB0EFE8C
:100DF000A64508D91CEB040403F1FF356CD2A645C7
:100E00006AD9023B644443EA0843A3FB0295A4EB7E
:100E10000E04AC42C846AE4656D353D056B1B0EBE2
:100E2000080264EB0E0404FA07F7CA40CC401743EB
:100E3000C6E9007418460021BDE8F087C3F120011F
:100E400002FA03FC20FA01F225FA01F19D402A433F
:100E50004FEA1C471FFA8CFEB1FBF7F007FB101599
:100E6000110C41EA054100FB0EF58D4204FA03F432
:100E700008D91CEB010100F1FF382FD28D422DD98A
:100E800002386144491B92B2B1FBF7F507FB15111B
:100E900042EA014205FB0EF1914208D91CEB020225
:100EA00005F1FF3816D2914214D9023D6244521A1C
:100EB00045EA004138E73146304608E73946E6E67C
:100EC0001046FBE64845A9D2B9EB020865EB0C0ECB
:100ED000013BA3E74546EAE72B4694E74046D1E7C6
:100EE000D0467BE7023D624432E708460AE76444A5
:100EF000023842E7704700BF80B582B000AF05F00E
:100F000041FD00F087F900F021FD00F0F5FC00F054
:100F100083FA00F047FC00F04BFB00F0ABFA00F066
:100F20009BFB00F009FC00F0D3F900F023FA0EF06F
:100F3000C5F800230322002177480DF0E8FD0C21BD
:100F4000764808F0A3FA0021754808F09FFA0421BA
:100F5000734808F09BFA3C21724808F035FE724B4A
:100F60001B789BB21A46714971480AF046F87148DD
:100F700008F05AF90421704808F0AAFB674B1B6877
:100F800091221A644FF4967005F03EFD6B4B64227B
:100F90001A706A4B0A225A80694B00221A70684BF9
:100FA00000225A70674B1A78654B9A7000237B6059
:100FB0000CE064233B7000237B80614A7B689B00CC
:100FC00013443A685A607B6801337B605D4B1B7841
:100FD0001A467B689342ECDB9FED5B1ADFED5B0A00
:100FE0009FED5B0A5B4801F09DFA9FED571ADFED1C
:100FF000570A9FED570A584801F094FA9FED571A87
:10100000DFED570A9FED570A574801F08BFA464B20
:101010001B789BB21A464549454809F0EEFF3F4B05
:101020001B6891221A644FF4967005F0EDFC0AF0EB
:10103000C1FF4E4A00214E480BF006F803464D4AC8
:1010400013604D4A00214D480AF0FEFF03464C4A0A
:1010500013604C4A00214C480AF0F6FF03464B4A05
:1010600013604B4A00214B480AF0EEFF03464A4A00
:1010700013604A4A00214A480AF0E6FF0346494AFB
:101080001360494A002149480AF0DEFF0346484AF6
:101090001360484A002148480AF0D6FF0346474AF1
:1010A0001360474A002147480AF0CEFF0346464AEC
:1010B0001360464A002146480AF0C6FF0346454AE7
:1010C0001360454A002145480AF0BEFF0346444AE2
:1010D0001360444A002144480AF0B6FF0346434ADD
:1010E0001360434A002143480AF0AEFF0346424AD8
:1010F0001360424A002142480AF0A6FF0346414AD3
:101100001360414A002141480AF09EFF0346404ACD
:1011100013600AF073FFFEE750020020A4020020D3
:10112000C4030020EC0200200000002088040020FE
:101130000C0400207C03002034030020C80400209D
:101140009404002001000020CDCC4C3FEC51383DF0
:101150006666064014050020000500209A99993E15
:10116000CDCC4C3DCDCC8C3F2805002014FC000894
:10117000C93F00085004002038FC0008D93F00088F
:10118000540400205CFC000859400008580400206A
:1011900080FC0008AD4200085C040020A4FC0008AC
:1011A000D544000860040020C8FC0008D1470008AE
:1011B00064040020ECFC0008C94A00086804002010
:1011C00010FD0008C14D00086C04002034FD00082B
:1011D000BD5000087004002058FD00089157000819
:1011E000740400207CFD0008895800087804002061
:1011F000A0FD00084D5A00087C040020C4FD000832
:10120000AD5D000880040020E8FD0008795F00085B
:101210008404002080B594B000AF07F12003302291
:10122000002118460EF00AF807F10C0300221A609C
:101230005A609A60DA601A610023BB60224B1B6C13
:10124000214A43F0805313641F4B1B6C03F08053FF
:10125000BB60BB6800237B601C4B1B681B4A43F4CC
:1012600080431360194B1B6803F480437B607B68E9
:1012700002233B620123FB6210233B630023BB6319
:1012800007F12003184607F0F5FA0346002B01D0BA
:1012900004F0D8FF0F23FB6000233B6100237B6138
:1012A0000023BB610023FB6107F10C0300211846FA
:1012B00007F058FD0346002B01D004F0C3FF00BF28
:1012C0005037BD4680BD00BF00380240007000406E
:1012D00080B584B000AF3B4600221A605A609A6025
:1012E000DA60214B214A1A601F4B00225A601E4BC4
:1012F00000229A601C4B00221A611B4B00221A76B6
:10130000194B002283F82020174B0022DA62164B7B
:10131000174A9A62144B0022DA60134B0122DA61F9
:10132000114B002283F830200F4B01225A610E48E6
:1013300005F08EFB0346002B01D004F083FF0B2346
:101340003B6001237B600023BB603B461946064897
:1013500005F060FD0346002B01D004F073FF00BFD1
:101360001037BD4680BD00BFC001002000200140F5
:101370000100000F80B584B000AF3B4600221A6028
:101380005A609A60DA60214B214A1A601F4B002292
:101390005A601E4B00229A601C4B00221A611B4BA4
:1013A00000221A76194B002283F82020174B0022C6
:1013B000DA62164B174A9A62144B0022DA60134B1A
:1013C0000122DA61114B002283F830200F4B0122F9
:1013D0005A610E4805F03CFB0346002B01D004F097
:1013E00031FF0C233B6001237B600023BB603B4645
:1013F0001946064805F00EFD0346002B01D004F007
:1014000021FF00BF1037BD4680BD00BF080200208D
:10141000002101400100000F80B500AF124B134ABC
:101420001A60114B124A5A600F4B00229A600E4B01
:101430000022DA600C4B4FF480421A610A4B002202
:101440005A61094B00229A61074B0022DA61064B70
:1014500000221A62044806F025FA0346002B01D048
:1014600004F0F0FE00BF80BD500200200054004098
:10147000A086010080B596B000AF07F148030022B6
:101480001A605A609A60DA6007F1400300221A601D
:101490005A6007F1240300221A605A609A60DA60E9
:1014A0001A615A619A613B1D2022002118460DF0F5
:1014B000C5FE3D4B3D4A1A603B4BA0225A603A4B59
:1014C00000229A60384B4FF47A72DA60364B002271
:1014D0001A61354B00225A61334B80229A6132489F
:1014E00007F052FE0346002B01D004F0ABFE4FF490
:1014F0008053BB6407F1480319462B4808F058FE97
:101500000346002B01D004F09DFE274807F064FF3E
:101510000346002B01D004F095FE00233B6400231A
:101520007B6407F1400319461F4809F0A5FB0346F9
:10153000002B01D004F086FE60237B620023BB6297
:101540000023FB6200237B630023BB630023FB6358
:1015500007F124030C221946134808F067FD0346DF
:10156000002B01D004F06EFE00237B600023BB60E3
:101570000023FB6000233B6100237B614FF4005399
:10158000BB6100233B623B1D1946074809F0F0FB95
:101590000346002B01D004F055FE034805F060F827
:1015A00000BF5837BD4680BDA402002000000140A6
:1015B00080B58CB000AF07F10C032422002118463F
:1015C0000DF03CFE3B1D00221A605A60214B4FF08B
:1015D00080421A601F4B00225A601E4B00229A6004
:1015E0001C4B4FF6FF72DA601A4B00221A61194B3E
:1015F00000229A610323FB6000233B6101237B618E
:101600000023BB610A23FB6100233B6201237B6251
:101610000023BB620A23FB6207F10C0319460D4845
:1016200008F02CFA0346002B01D004F00BFE002337
:101630007B600023BB603B1D1946064809F01CFB7C
:101640000346002B01D004F0FDFD00BF3037BD463E
:1016500080BD00BFEC02002080B58AB000AF07F16A
:10166000180300221A605A609A60DA6007F11003CA
:1016700000221A605A603B4600221A605A609A6043
:10168000DA602B4B2B4A1A60294B0F225A60284BE9
:1016900000229A60264B4FF6FF72DA60244B00223C
:1016A0001A61234B00229A61214807F06DFD034621
:1016B000002B01D004F0C6FD4FF48053BB6107F14D
:1016C000180319461A4808F073FD0346002B01D091
:1016D00004F0B8FD164807F0A1FF0346002B01D027
:1016E00004F0B0FD00233B6100237B6107F1100390
:1016F00019460F4809F0C0FA0346002B01D004F048
:10170000A1FD0A233B6001237B600023BB60002313
:10171000FB603B4604221946054808F0EBFB0346F4
:10172000002B01D004F08EFD00BF2837BD4680BDE0
:10173000340300200004004080B582B000AF3B4677
:1017400000221A605A60154B154A1A60134B0F227B
:101750005A60124B00229A60104B4FF6FF72DA600B
:101760000E4B00229A610D4807F00EFD0346002B38
:1017700001D004F067FD00233B6000237B603B4603
:101780001946064809F078FA0346002B01D004F008
:1017900059FD00BF0837BD4680BD00BF7C03002057
:1017A0000010004080B596B000AF07F1480300225A
:1017B0001A605A609A60DA6007F1400300221A60EA
:1017C0005A6007F1240300221A605A609A60DA60B6
:1017D0001A615A619A613B1D2022002118460DF0C2
:1017E0002DFD434B434A1A60414B00225A60404B47
:1017F00000229A603E4B41F61F42DA603C4B0022C9
:101800001A613B4B00225A61394B00229A613848D9
:1018100007F0BAFC0346002B01D004F013FD4FF48F
:101820008053BB6407F148031946314808F0C0FCF7
:101830000346002B01D004F005FD2D4807F0CCFD38
:101840000346002B01D004F0FDFC00233B64002381
:101850007B6407F140031946254809F00DFA034659
:10186000002B01D004F0EEFC60237B620023BB62FE
:101870000023FB6200233B6300237B630023BB63E5
:101880000023FB6307F1240300221946184808F0DF
:10189000CDFB0346002B01D004F0D4FC07F1240358
:1018A00004221946124808F0C1FB0346002B01D060
:1018B00004F0C8FC00237B600023BB600023FB60B6
:1018C00000233B6100237B614FF40053BB61002385
:1018D0003B623B1D1946064809F04AFA0346002BB5
:1018E00001D004F0AFFC00BF5837BD4680BD00BF3B
:1018F000C40300200004014080B500AF114B124A20
:101900001A60104B4FF4E1325A600E4B00229A607D
:101910000C4B0022DA600B4B00221A61094B0C229F
:101920005A61084B00229A61064B0022DA61054891
:1019300009F084FA0346002B01D004F083FC00BFB9
:1019400080BD00BF0C0400200048004080B58AB074
:1019500000AF07F1140300221A605A609A60DA603F
:101960001A6100233B61384B1B6B374A43F010036D
:101970001363354B1B6B03F010033B613B69002382
:10198000FB60314B1B6B304A43F0040313632E4B57
:101990001B6B03F00403FB60FB680023BB602A4B56
:1019A0001B6B294A43F001031363274B1B6B03F0A6
:1019B0000103BB60BB6800237B60234B1B6B224A87
:1019C00043F002031363204B1B6B03F002037B60A5
:1019D0007B6800224FF45E611C4805F049FF00223D
:1019E0003C211B4805F044FF4FF45E637B610123FB
:1019F000BB610023FB6100233B6207F1140319461E
:101A0000124805F099FD0C237B610123BB61002383
:101A1000FB6102233B6207F1140319460C4805F0F1
:101A20008BFD30237B610123BB610023FB6100231D
:101A30003B6207F114031946054805F07DFD00BF20
:101A40002837BD4680BD00BF00380240001002406C
:101A5000000002400000000080B582B000AF786056
:101A60007B681B7F022B40F08C804B4B1B78002B3C
:101A70001AD10421786808F063FC0346474A1360D2
:101A8000454B01221A707B681B681A6A7B681B68C9
:101A900022F0A0021A627B681B681A6A7B681B68C6
:101AA00042F020021A626CE03B4B1B78012B68D19C
:101AB0000421786808F044FC0346394A13607B68C7
:101AC0001B6800225A62364B1A68344B1B689A42D4
:101AD0000CD9334B1A68314B1B68D31A07EE903A76
:101AE000F8EE677A2F4BC3ED007A14E02B4B1A689F
:101AF0002B4B1B689A420ED9294B1A68274B1B683F
:101B0000D31A03F57F43FF3307EE903AF8EE677A76
:101B1000244BC3ED007A234B1B681846FEF70CFDDF
:101B20001BA3D3E90023FEF75FFD02460B461046D8
:101B300019464FF000024FF08043FEF77FFE024649
:101B40000B4610461946FFF709F80346154A13607D
:101B5000114B00221A707B681B681A6A7B681B682D
:101B600022F0A0021A627B681A687B681B68126AFE
:101B70001A620D4B1B68DA680B4B1B6822F00402DB
:101B8000DA6000BF0837BD4680BD00BFAFF30080FC
:101B90009CC420B07268A13F5C0500205405002061
:101BA00058050020500500203403002080B584B083
:101BB00000AF7860954B9B78A3F1300213469B00F1
:101BC00013445B001A46914BDB78303B1344FB60B7
:101BD0008E4B1B792F2B0ED98C4B1B79392B0AD8A6
:101BE000FA6813469B0013445B001A46874B1B7927
:101BF000303B1344FB60864B00221A70834B1B78EA
:101C0000532B5AD1814B5B78542B56D1814B1B6897
:101C100000225A637F4B1B6800229A637E4B1A781E
:101C20007E4B1A707C4B10221A707D4B4FF00002D5
:101C30001A607C4B00221A807B4800F094FC7B48A1
:101C400000F091FC7A4800F08EFC7A4B00221A805A
:101C5000794B1A78784B5B789A4213D1774B642290
:101C60001A70764B00225A80754A0F2175480DF084
:101C7000B1FA4FF6FF7306227349744809F02BF945
:101C800000F013BC6C4B5B786C4A6B499B000B44B7
:101C90005B681360684B5B780133674A927893FB0B
:101CA000F2F101FB02F29B1ADAB2634B5A70684AF6
:101CB0000F2164480DF08EFAF7E3544B1B78522B3A
:101CC00061D1524B5B78532B5DD1524B1B68002284
:101CD0005A63504B1B6800229A634F4B1A784F4B44
:101CE0001A704D4B10221A704D4B4FF000021A60C3
:101CF0004C4B00221A80574B1B6891221A644FF4F8
:101D0000967004F081FE484800F02DFC474800F032
:101D10002AFC474800F027FC464B00221A80464B1D
:101D20001A78454B5B789A4212D1444B64221A7060
:101D3000424B00225A80424A0F2142480DF04AFA93
:101D40004FF6FF7306224049404809F0C4F8ACE35F
:101D5000394B5B78394A38499B000B445B68136008
:101D6000354B5B780133344A927893FBF2F101FBF7
:101D700002F29B1ADAB2304B5A70354A0F213148C1
:101D80000DF028FA91E3214B1B78462B66D11F4BAF
:101D90005B78572B03D01D4B5B78532B5ED11B4BCD
:101DA0009B782D2B05D1194BDB782D2B01D10123ED
:101DB00000E00023DAB2164B1A70144B5B78532BF9
:101DC00014BF01230023DBB21A46234B1A701A4BAF
:101DD0001B78194A9B00134401221A71164B1B7879
:101DE000FA6891B2144A9B0013440A46DA80124BF7
:101DF0001B780133104A927893FBF2F101FB02F257
:101E00009B1ADAB20C4B1A704FE300BF8804002013
:101E1000DC040020C4030020340100203501002030
:101E2000E4040020EA04002014050020000500203E
:101E300028050020F804002094040020C804002095
:101E4000E4FB0008CC040020ECFB00080C0400209C
:101E5000F4FB0008A402002036010020964B1B78FA
:101E6000422B3DD1944B5B78572B03D0924B5B7840
:101E7000532B35D1904B9B782D2B05D18E4BDB7896
:101E80002D2B01D1012300E00023DAB28B4B1A7015
:101E9000894B5B78532B14BF01230023DBB21A4616
:101EA000874B1A70874B1B78864A9B00134402228B
:101EB0001A71844B1B78FA6891B2824A9B001344D2
:101EC0000A46DA807F4B1B7801337E4A927893FB77
:101ED000F2F101FB02F29B1ADAB27A4B1A70E4E2D9
:101EE000754B1B78462B36D1734B5B784C2B32D11C
:101EF000714B9B782D2B05D16F4BDB782D2B01D1AE
:101F0000012300E00023DAB26C4B1A706B4B1B7894
:101F1000002B01D0032100E007216A4B1B78694A9E
:101F20009B0013440A461A71664B1B78FA6891B2FB
:101F3000644A9B0013440A46DA80624B1B780133E3
:101F4000604A927893FBF2F101FB02F29B1ADAB23B
:101F50005C4B1A70A9E2584B1B78462B36D1564B76
:101F60005B78522B32D1544B9B782D2B05D1524BA1
:101F7000DB782D2B01D1012300E00023DAB24F4B97
:101F80001A704E4B1B78002B01D0042100E0082171
:101F90004C4B1B784B4A9B0013440A461A71494B21
:101FA0001B78FA6891B2474A9B0013440A46DA80CC
:101FB000444B1B780133434A927893FBF2F101FBC7
:101FC00002F29B1ADAB23F4B1A706EE23A4B1B7860
:101FD000422B36D1384B5B784C2B32D1364B9B7829
:101FE0002D2B05D1344BDB782D2B01D1012300E0C3
:101FF0000023DAB2314B1A70304B1B78002B01D022
:10200000052100E009212F4B1B782E4A9B00134429
:102010000A461A712B4B1B78FA6891B2294A9B0029
:1020200013440A46DA80274B1B780133254A9278FD
:1020300093FBF2F101FB02F29B1ADAB2214B1A7008
:1020400033E21D4B1B78422B3ED11B4B5B78522B4E
:102050003AD1194B9B782D2B05D1174BDB782D2BC3
:1020600001D1012300E00023DAB2144B1A70134BA4
:102070001B78002B01D0062100E00A21114B1B78B0
:10208000104A9B0013440A461A710E4B1B78FA68DB
:1020900091B20C4A9B0013440A46DA80094B1B7824
:1020A0000133084A927893FBF2F101FB02F29B1A8A
:1020B000DAB2044B1A70F8E188040020DC04002036
:1020C0003601002094040020974B1B78542B21D11B
:1020D000954B5B784C2B1DD1944B1B78934A9B00FE
:1020E00013440B221A71914B1B78FA6891B28F4AF4
:1020F0009B0013440A46DA808C4B1B7801338B4AD1
:10210000927893FBF2F101FB02F29B1ADAB2874B51
:102110001A70CAE1844B1B78542B21D1824B5B7817
:10212000522B1DD1814B1B78804A9B0013440C22FB
:102130001A717E4B1B78FA6891B27C4A9B0013445B
:102140000A46DA80794B1B780133784A927893FB00
:10215000F2F101FB02F29B1ADAB2744B1A70A4E19D
:10216000714B1B78442B21D16F4B5B78542B1DD1C5
:102170006E4B1B786D4A9B0013440E221A716B4BF9
:102180001B78FA6891B2694A9B0013440A46DA80C8
:10219000664B1B780133654A927893FBF2F101FBA1
:1021A00002F29B1ADAB2614B1A707EE15E4B1B7829
:1021B000462B21D15C4B5B78412B1DD15B4B1B78AF
:1021C0005A4A9B00134458221A71584B1B78FA68DC
:1021D00091B2564A9B0013440A46DA80534B1B784F
:1021E0000133524A927893FBF2F101FB02F29B1AFF
:1021F000DAB24E4B1A7058E14B4B1B78462B21D16B
:10220000494B5B78432B1DD1484B1B78474A9B00B9
:10221000134459221A71454B1B78FA6891B2434A0C
:102220009B0013440A46DA80404B1B7801333F4A37
:10223000927893FBF2F101FB02F29B1ADAB23B4B6C
:102240001A7032E1384B1B78422B21D1364B5B7828
:10225000412B1DD1354B1B78344A9B0013445A2225
:102260001A71324B1B78FA6891B2304A9B001344C2
:102270000A46DA802D4B1B7801332C4A927893FB67
:10228000F2F101FB02F29B1ADAB2284B1A700CE150
:10229000254B1B78422B21D1234B5B78432B1DD13F
:1022A000224B1B78214A9B0013445B221A711F4B5F
:1022B0001B78FA6891B21D4A9B0013440A46DA80E3
:1022C0001A4B1B780133194A927893FBF2F101FB08
:1022D00002F29B1ADAB2154B1A70E6E0124B1B7829
:1022E000542B25D1104B5B78412B21D10F4B1B7800
:1022F0000E4A9B0013445C221A710C4B1B78FA683F
:1023000091B20A4A9B0013440A46DA80074B1B78B5
:102310000133064A927893FBF2F101FB02F29B1A19
:10232000DAB2024B1A70C0E0880400209404002046
:10233000754B1B78492B21D1734B5B78522B1DD1E8
:10234000724B1B78714A9B0013445D221A716F4BCC
:102350001B78FA6891B26D4A9B0013440A46DA80F2
:102360006A4B1B780133694A927893FBF2F101FBC7
:1023700002F29B1ADAB2654B1A7096E0624B1B7838
:10238000492B21D1604B5B78432B1DD15F4B1B78D0
:102390005E4A9B0013445E221A715C4B1B78FA68FC
:1023A00091B25A4A9B0013440A46DA80574B1B7875
:1023B0000133564A927893FBF2F101FB02F29B1A29
:1023C000DAB2524B1A7070E04F4B1B78542B21D16C
:1023D0004D4B5B78422B1DD14C4B1B784B4A9B00DD
:1023E00013445F221A71494B1B78FA6891B2474A2D
:1023F0009B0013440A46DA80444B1B780133434A5E
:10240000927893FBF2F101FB02F29B1ADAB23F4B96
:102410001A704AE03C4B1B78472B21D13A4B5B7832
:10242000482B1DD1394B1B78384A9B00134460223E
:102430001A71364B1B78FA6891B2344A9B001344E8
:102440000A46DA80314B1B780133304A927893FB8D
:10245000F2F101FB02F29B1ADAB22C4B1A7024E063
:10246000294B1B78412B20D1274B5B784D2B1CD15E
:10247000264B1B78254A9B00134461221A71234B7B
:102480001B78FA6891B2214A9B0013440A46DA800D
:102490001E4B1B7801331D4A927893FBF2F101FB2E
:1024A00002F29B1ADAB2194B1A70184B1A78174BB2
:1024B0005B789A4219D0154B5B78154A13499B00FB
:1024C0000B445B681360114B5B7801330F4A9278C1
:1024D00093FBF2F101FB02F29B1ADAB20B4B5A703A
:1024E0000C4A0F210C480CF075FE0C4B1B685B6806
:1024F0000B4B1B789BB21A460349084808F07DFD38
:1025000000BF1037BD4680BD880400209404002021
:10251000C8040020F4FB0008CC0400200C040020B8
:102520000000002080B485B000AFF86087ED020A9B
:10253000C7ED010A87ED001AFB68BA681A60FB68EC
:102540007A685A60FB683A689A60FB684FF000024C
:10255000DA60FB684FF000021A6100BF1437BD4615
:102560005DF8047B704780B483B000AF78607B680F
:102570004FF00002DA607B684FF000021A6100BF82
:102580000C37BD465DF8047B7047000080B500AF96
:1025900000224FF400611A4805F06AF9194B1B68D4
:1025A00000225A62174B1B685B6A312BFAD9012251
:1025B0004FF40061124805F05BF9124B1B680022D2
:1025C0005A62104B1B685B6A092BFAD900224FF440
:1025D00000610B4805F04CF90A4B1B6800225A6257
:1025E000084B1B685B6A312BFAD9074B1B68DA680A
:1025F000054B1B6842F00402DA6000BF80BD00BFDB
:10260000001002407C0300203403002080B586B017
:1026100004AF0346FB714FF6FF730293022301934D
:10262000A94B009301233722D021A84805F078FB5D
:10263000A54B1B781B021AB2A34B5B781BB213434A
:102640001AB2A34B1A80A34B1B681B6803F010033C
:10265000102B0CBF01230023DBB25AB29E4B1A7021
:102660009B4BB3F9003013F1040F04DB984BB3F923
:1026700000300B2B07DD964BB3F9003007EE903A94
:10268000F8EEE77A01E0DFED957A954B93ED007A6D
:1026900077EE877A924BC3ED007AFB79002B64D1F9
:1026A000904B93ED007A8E4BD3ED007A27EE277A8C
:1026B0008C4BD3ED016A8B4BD3ED047A66EEA77A8F
:1026C00037EE277A874BD3ED026A864B93ED036A88
:1026D000834BD3ED007A76EE677A66EEA77A77EED3
:1026E000277AFDEEE77A17EE902A7F4B1A607C4B33
:1026F0001B687C4AD3607B4B93ED047A784BD3ED17
:10270000007A77EE277A774BC3ED047A764B1B6815
:10271000B3F5167F06DC744B1B68744A9342B8BF4E
:10272000134601E04FF416736F4A13606A4B93F936
:1027300000309AB26C4B1B689BB212FB03F39BB246
:1027400003F596639AB26A4B1A80634B93F9003093
:102750009AB2654B1B689BB212FB03F39BB2C3F5A5
:1027600096639AB2634B1A80EFE0FB79022B65D136
:10277000614B93ED007A5A4BD3ED007A27EE277A1E
:102780005D4BD3ED016A5C4BD3ED047A66EEA77A1C
:1027900037EE277A584BD3ED026A574B93ED036A15
:1027A0004F4BD3ED007A76EE677A66EEA77A77EE36
:1027B000277AFDEEE77A17EE902A4B4B1A60484BCA
:1027C0001B684D4AD3604C4B93ED047A444BD3EDD8
:1027D000007A77EE277A484BC3ED047A424B1B68A8
:1027E000B3F52F7F06DC404B1B68444A9342B8BFC9
:1027F000134601E04FF42F733B4A1360364B93F9B5
:1028000000309AB2384B1B689BB212FB03F39BB2A9
:1028100003F6B8339AB2364B1A802F4B93F9003037
:102820009AB2314B1B689BB212FB03F39BB2C3F508
:102830003B6308339AB22F4B1A8086E0FB79012B59
:1028400040F083802E4B93ED007A254BD3ED007A38
:1028500027EE277A2A4BD3ED016A294BD3ED047A70
:1028600066EEA77A37EE277A254BD3ED026A244B22
:1028700093ED036A1A4BD3ED007A76EE677A66EE33
:10288000A77A77EE277AFDEEE77A17EE902A164BB5
:102890001A60134B1B681A4AD360194B93ED047AE4
:1028A0000F4BD3ED007A77EE277A154BC3ED047A00
:1028B0000D4B1B68B3F52F7F24DC0B4B1B680F4AB5
:1028C0009342B8BF13461FE0E804002050020020E6
:1028D000EA040020EC02002040010020000000007B
:1028E000E40400201405002064050020A8FDFFFF7B
:1028F000EC040020EE0400202805002044FDFFFF2A
:10290000000500204FF42F73174A1360174B93F9FB
:1029100000309AB2144B1B689BB212FB03F39BB2BC
:1029200003F6FC039AB2124B1A80104B93F9003055
:102930009AB20D4B1B689BB212FB03F39BB2C3F51B
:102940000F630C339AB20B4B1A80094B1A880A4B4F
:102950001B685A63074B1A88074B1B689A6300BFB2
:102960000837BD4680BD00BF64050020400100203F
:10297000EC040020EE040020C4030020000000004E
:1029800080B584B000AF78600B46FB701346BB7017
:10299000A14B4FF000021A60A04B00221A80A04801
:1029A000FFF7E1FD9F48FFF7DEFD9F48FFF7DBFDE6
:1029B0009E4B00221A809E4B00221A807B681B6867
:1029C0001846FDF7B9FD8EA3D3E90023FDF70CFEF1
:1029D00002460B46104619468BA3D3E90023FDF7A8
:1029E0004BFC02460B46104619464FF00002914B35
:1029F000FDF724FF02460B46104619464FF0000231
:102A00008D4BFDF7F1FD02460B46104619464FF07F
:102A100000028A4BFDF730FC02460B461046194671
:102A2000FEF77CF803469AB2854B1A8003F0E0FF6C
:102A30000346844A1360FB78002B0CBF012300235C
:102A4000DBB21A460421804804F012FFFB78002B09
:102A500014BF01230023DBB21A4608217A4804F090
:102A600007FFFB78002B0CBF01230023DBB21A46C3
:102A70002021754804F0FCFEFB78002B14BF0123D5
:102A80000023DBB21A4610216F4804F0F1FE6F4BB1
:102A90001B685B6A9AB26E4B1A806C4B1B685B6A50
:102AA000FB606A4B1B681B6803F01003102B17D1E7
:102AB000674B1B881A46FB68934206D8644B1A88FA
:102AC000FB689BB2D31A9BB207E0614B1A88FB6884
:102AD0009BB2D31A9BB2013B9BB2554A138016E0BE
:102AE0005B4B1B881A46FB68934206D3FB689AB27D
:102AF000574B1B88D31A9BB207E0FB689AB2544B22
:102B00001B88D31A9BB2013B9BB2494A1380FB68D6
:102B10009AB24F4B1A80454B1A88454B1B88134479
:102B20009AB2424B1A80414B1A88454B1B889A42F5
:102B300080F0A58003F05CFF0246424B1B68D31A6D
:102B4000092BAAD9BB78002B03D10020FFF75EFD2B
:102B50008FE0364B1B881A46394B1B88D31A002B43
:102B6000B8BF5B423B4A82FB0312D211DB17D31A78
:102B700007EE903AF8EEE77A374BC3ED007ABB7870
:102B8000012B1ED1344BD3ED007AB7EE007AF4EE70
:102B9000C77AF1EE10FA02DD4FF07E530EE02E4BB5
:102BA000D3ED007AB6EE087AF4EEC77AF1EE10FAB9
:102BB00002D54FF07D5301E0274B1B68264A136076
:102BC00052E0BB78022B4FD1234BD3ED007AB7EE06
:102BD000007AF4EEC77AF1EE10FA02DD4FF07E5380
:102BE00040E01D4B1B681846FDF7A6FC08A3D3E97F
:102BF0000023FDF76BFF0346002B31D0174B31E06C
:102C00002AB266FCAC66F23FF82625BBD4E3EE3F61
:102C10009A9999999999D93FE4040020EA040020EF
:102C2000140500200005002028050020F8040020DD
:102C3000FC0400200000344000A094400000244028
:102C4000FA040020F004002000000240EC02002002
:102C5000FE0400206757192138010020CDCCCC3E5E
:102C60000D4B1B680C4A1360BB780B49184600F0EB
:102C700019F803F0BDFE0346084A13600DE700BFD4
:102C8000074B1B6800225A63054B1B6800229A639E
:102C900000BF1037BD4680BD38010020F004002081
:102CA000C403002080B586B004AF03463960FB71D1
:102CB0004FF6FF730293022301939B4B0093012372
:102CC0003722D021994805F02BF8974B1B781B022F
:102CD0001AB2954B5B781BB213431AB2944B1A800D
:102CE000944B1B681B6803F01003102B01D10122C9
:102CF00001E04FF0FF32904B1A708D4BB3F900306A
:102D000013F1040F04DB8A4BB3F900300B2B07DD02
:102D1000874BB3F9003007EE903AF8EEE77A01E01E
:102D2000DFED867A864B93ED007A77EE877A844BD7
:102D3000C3ED007AFB79012B65D1824B93ED007ACC
:102D40007F4BD3ED007A27EE277A7E4BD3ED016AD5
:102D50007C4BD3ED047A66EEA77A37EE277A794B6F
:102D6000D3ED026A774B93ED036A754BD3ED007A8E
:102D700076EE677A66EEA77A77EE277AFDEEE77A47
:102D800017EE902A704B1A606D4B1B686D4AD3602A
:102D90006C4B93ED047A6A4BD3ED007A77EE277A89
:102DA000684BC3ED047A684B1B68B3F52F7F06DCD4
:102DB000654B1B68654A9342B8BF134601E04FF468
:102DC0002F73614A13605C4B93F900309AB25E4BEB
:102DD0001B689BB212FB03F39BB203F6FC039AB28F
:102DE0005B4B1A80544B93F900309AB2564B1B68D8
:102DF0009BB212FB03F39BB2C3F50F630C339AB281
:102E0000544B1A8067E0FB79022B64D1524B93ED4F
:102E1000007A4B4BD3ED007A27EE277A4E4BD3ED59
:102E2000016A4D4BD3ED047A66EEA77A37EE277A26
:102E3000494BD3ED026A484B93ED036A404BD3ED07
:102E4000007A76EE677A66EEA77A77EE277AFDEE5D
:102E5000E77A17EE902A3C4B1A60394B1B683E4AC2
:102E6000D3603D4B93ED047A354BD3ED007A77EE8A
:102E7000277A394BC3ED047A334B1B68B3F52F7FA8
:102E800006DC314B1B68314A9342B8BF134601E060
:102E90004FF42F732C4A1360274B93F900309AB2EA
:102EA000294B1B689BB212FB03F39BB203F6B833AA
:102EB0009AB2274B1A80204B93F900309AB2224BDA
:102EC0001B689BB212FB03F39BB2C3F53B63083351
:102ED0009AB2204B1A801E4B1B8807EE903AB8EE30
:102EE000E77A3B68D3ED007A67EE277A1B4B1B68C5
:102EF000FCEEE77A17EE902A5A63164B1B8807EE12
:102F0000903AB8EEE77A3B68D3ED007A67EE277A1D
:102F1000124B1B68FCEEE77A17EE902A9A6300BF0B
:102F20000837BD4680BD00BFE804002050020020E5
:102F3000EA040020EC020020400100200000000014
:102F4000E4040020000500206405002044FDFFFF8C
:102F5000EC040020EE04002028050020C40300201B
:102F6000B0B586B004AF78604B4B4FF000021A60EA
:102F70004A4B00221A8003F03BFD0346484A136087
:102F800003F036FD0246464B1B68D31A092BF7D9CE
:102F90004FF6FF73029302230193424B00930123E8
:102FA0003722D021404804F0BBFE3E4B1B781B0269
:102FB0001AB23C4B5B781BB213431AB2374B1A80E0
:102FC000354B1B681846FDF7B7FA04460D46334BE0
:102FD000B3F900301846FDF79DFA2BA3D3E900237F
:102FE000FDF72CFC02460B461046194628A3D3E9F0
:102FF0000023FDF7F9FA02460B4620462946FDF765
:103000003DF902460B4610461946FDF7A7FD03465B
:10301000214A1360204B93ED007A7B68D3ED007A50
:1030200077EE677AFDEEE77A17EE903A002B0DDB2C
:10303000194B93ED007A7B68D3ED007A77EE677ACF
:10304000FDEEE77A17EE903A002B05DD03F0D0FC99
:103050000346134A136093E700BF144B1B6800221A
:103060005A63124B1B6800229A63114B1B68912212
:103070001A644FF4967003F0C7FC00BF0837BD46D2
:10308000B0BD00BFAFF3008066666666666630401E
:103090007B14AE47E17A843FE4040020EA04002078
:1030A000F0040020E804002050020020C4030020A7
:1030B000A40200200000000080B584B000AF78605A
:1030C0000B46FB70BE4B4FF000021A60BD4B002256
:1030D0001A80BD48FFF747FABC48FFF744FABC48DE
:1030E000FFF741FABB4BBC4A1A600421BB4806F00B
:1030F000EFFA03F07DFC0346B94A13600023FB603E
:103100000023BB60FFF742FA0A2009F02FF87B6822
:1031100093ED007AAF4BD3ED007A77EE677AFDEE50
:10312000E77A17EE903AB3F1FF3F0EDB7B6893ED41
:10313000007AA84BD3ED007A77EE677AFDEEE77A56
:1031400017EE903A012B40F355817B6893ED007A9E
:10315000A04BD3ED007AB4EEE77AF1EE10FA94BF0B
:1031600001230023DBB283F00103DBB2DBB21A469A
:1031700004219C4804F07CFB7B6893ED007A954B1E
:10318000D3ED007AB4EEE77AF1EE10FA94BF0123A2
:103190000023DBB21A460821924804F069FB7B68E1
:1031A00093ED007A8B4BD3ED007AB4EEE77AF1EE33
:1031B00010FA94BF01230023DBB283F00103DBB2DA
:1031C000DBB21A462021874804F052FB7B6893ED5E
:1031D000007A804BD3ED007AB4EEE77AF1EE10FA84
:1031E00094BF01230023DBB21A4610217D4804F06E
:1031F0003FFB03F0FDFB0246794B1B68D31A132BF0
:1032000080D9FB78012B66D1724B93ED007A7B68F5
:10321000D3ED007A77EE677AFDEEE77A17EE903A13
:10322000002BB8BF5B42704A82FB03121A44D210D3
:10323000DB17D31A07EE903AF8EEE77A6B4BC3ED43
:10324000007A6A4BD3ED007AB7EE007AF4EEC77AD3
:10325000F1EE10FA02DD4FF07E530EE0634BD3ED3A
:10326000007AB6EE087AF4EEC77AF1EE10FA02D5DB
:103270004FF07D5301E05D4B1B685C4A13607B6837
:1032800093ED007A534BD3ED007A77EE677AFDEE3B
:10329000E77A17EE903A13F1050F17DB7B6893ED91
:1032A000007A4C4BD3ED007A77EE677AFDEEE77A41
:1032B00017EE903A052B09DC4C4BD3ED007AB6EEB5
:1032C000087A67EE877A494BC3ED007A47490120B7
:1032D000FFF7E8FC67E03F4B93ED007A7B68D3EDA6
:1032E000007A77EE677AFDEEE77A17EE903A002BD8
:1032F000B8BF5B423C4A82FB03121A44D210DB1770
:10330000D31A07EE903AF8EEE77A384BC3ED007A1D
:10331000364BD3ED007AB7EE007AF4EEC77AF1EED1
:1033200010FA02DD4FF07E5310E0304B1B68184658
:10333000FDF702F920A3D3E90023FDF7C7FB0346FD
:10334000002B01D02A4B01E0284B1B68274A136051
:103350007B6893ED007A1F4BD3ED007A77EE677AA6
:10336000FDEEE77A17EE903A13F1050F17DB7B6855
:1033700093ED007A174BD3ED007A77EE677AFDEE86
:10338000E77A17EE903A052B09DC184BD3ED007A5B
:10339000B6EE087A67EE877A144BC3ED007A1349CC
:1033A0000220FFF77FFC03F023FB03460C4A136067
:1033B000A8E600BFAFF300809A9999999999D93FEF
:1033C000E4040020EA040020140500200005002089
:1033D000280500205005002000007A443403002016
:1033E000F00400200000024089888888380100200D
:1033F000CDCCCC3E00BF084B1B6800225A63064B65
:103400001B6800229A630421044806F089FA00BF71
:103410001037BD4680BD00BFC40300203403002028
:1034200080B584B002AF7860AD48FFF79CF8AD4836
:10343000FFF799F8AC48FFF796F8AC4B00221A70EA
:10344000AB4B00221A70AB4B4FF000021A60AA4B34
:1034500000221A8003F0CCFA0346A84A13607B6866
:10346000002B00F09480A64803F036FB1421A448FA
:1034700003F037FCA24803F0BFFC0246A14B1B68D7
:103480001344A04A1360A04B1B885A1C9F4B83FB1C
:1034900002135910D317C91A0B469B000B44D11ABB
:1034A0008AB2994B1A80984B1B88042B2CD1954BD0
:1034B0001B68954A1288B3FBF2F31846FDF71AF819
:1034C0007FA3D3E90023FCF7D7FE02460B46104644
:1034D00019467DA3D3E90023FDF7B0F902460B4658
:1034E00010461946FDF71AFB0346DAB27F4B1A70F5
:1034F000844B1B68844A1288B3FBF2F39AB2844B64
:103500001A80804B00221A60142008F02FFE774B9F
:103510001B78232B2ED803F06BFA0246774B1B68DF
:10352000D31A092B9FD9714B1B781A460C23009391
:103530000523002100200BF021FD00220421754805
:1035400004F096F901220821724804F091F9002252
:103550002021704804F08CF9012210216D4804F0FC
:1035600087F90120FFF752F803F042FA0346634A55
:10357000136078E700BF684B1B6800225A63664BF4
:103580001B6800229A635E4803F078FB92E0634870
:1035900003F0A2FA1421614803F0A3FB5F4803F093
:1035A0002BFC02465E4B1B6813445D4A13605D4B67
:1035B0001B885A1C554B83FB02135910D317C91A89
:1035C0000B469B000B44D11A8AB2564B1A80554BBE
:1035D0001B88042B2CD1524B1B68524A1288B3FB18
:1035E000F2F31846FCF786FF39A3D3E90023FCF772
:1035F00043FE02460B461046194637A3D3E9002383
:10360000FDF71CF902460B4610461946FDF786FAEF
:103610000346DAB2364B1A70414B1B68414A128896
:10362000B3FBF2F39AB2404B1A803D4B00221A6072
:10363000142008F09BFD2E4B1B78232B2ED803F073
:10364000D7F902462D4B1B68D31A092B9FD9284B5B
:103650001B781A460C2300930523002100200BF051
:103660008DFC002204212B4804F002F901220821DC
:10367000284804F0FDF800222021264804F0F8F83C
:1036800001221021234804F0F3F80120FEF7BEFFC9
:1036900003F0AEF90346194A136078E700BF1E4BEA
:1036A0001B6800225A631C4B1B6800229A631B484C
:1036B00003F0E4FA00BF0837BD4680BDAFF30080D9
:1036C000B21188D7F55CAA40C6C4E6E3DA984FC0C9
:1036D00070B6B931FDA8A940EE3D5C72DC594EC010
:1036E00014050020000500202805002041050020C9
:1036F00040050020E4040020EA040020F00400203B
:10370000C00100204805002042050020676666666B
:103710003C05002000000240C403002008020020F5
:103720004C050020440500203E050020000000005C
:1037300080B582B000AF78609D48FEF714FF9D48C9
:10374000FEF711FF9C48FEF70EFF9C4BFF221A70FC
:103750009B4BFF221A709B4B4FF000021A609A4B52
:1037600000221A8003F044F90346984A13607B68EC
:10377000002B00F08580964803F0AEF914219448A0
:1037800003F0AFFA924803F037FB0246914B1B68F7
:103790001344904A1360904B1B885A1C8F4B83FB39
:1037A00002135910D317C91A0B469B000B44D11AA8
:1037B0008AB2894B1A80884B1B88042B2CD1854BED
:1037C0001B68854A1288B3FBF2F31846FCF792FE99
:1037D0006FA3D3E90023FCF74FFD02460B461046CA
:1037E00019466DA3D3E90023FDF728F802460B46DE
:1037F00010461946FDF792F90346DAB26F4B1A707C
:10380000744B1B68744A1288B3FBF2F39AB2744B80
:103810001A80704B00221A6003F0EAF802466B4BE4
:103820001B68D31A092B1BD9002204216D4804F010
:103830001FF8012208216B4804F01AF80022202109
:10384000684804F015F801221021664804F010F8C9
:103850000120FEF7DBFE03F0CBF803465B4A136062
:10386000564B1B78182B86D85F4B1B6800225A6377
:103870005D4B1B6800229A63554803F0FFF983E013
:103880005A4803F029F91421584803F02AFA5748F6
:1038900003F0B2FA0246564B1B681344544A1360B5
:1038A000544B1B885A1C4D4B83FB02135910D317E2
:1038B000C91A0B469B000B44D11A8AB24D4B1A8091
:1038C0004C4B1B88042B2CD1494B1B68494A12884E
:1038D000B3FBF2F31846FCF70DFE31A3D3E9002346
:1038E000FCF7CAFC02460B46104619462EA3D3E944
:1038F0000023FCF7A3FF02460B4610461946FDF7CE
:103900000DF90346DAB22E4B1A70394B1B68394A4F
:103910001288B3FBF2F39AB2374B1A80344B002271
:103920001A6003F065F80246284B1B68D31A092B6E
:103930001BD9002204212B4803F09AFF0122082101
:10394000284803F095FF00222021264803F090FF2D
:1039500001221021234803F08BFF0120FEF756FEC1
:1039600003F046F80346194A1360154B1B78182BD1
:1039700086D81D4B1B6800225A631B4B1B68002214
:103980009A631A4803F07AF900BF0837BD4680BD34
:10399000B21188D7F55CAA40C6C4E6E3DA984FC0F6
:1039A00070B6B931FDA8A940EE3D5C72DC594EC03D
:1039B00014050020000500202805002041050020F6
:1039C00040050020E4040020EA040020F004002068
:1039D000C001002048050020420500206766666699
:1039E0003C05002000000240C40300200802002023
:1039F0004C050020440500203E05002080B500AFA6
:103A00001C4B1B782D3B07EE903AF8EEE77A1A4BE9
:103A1000C3ED007A194B1B684FF4FA625A63174BD7
:103A20001B6840F235529A63154B1B6840F209122D
:103A30001A644FF4967002F0E7FF00220421114847
:103A400003F016FF012208210E4803F011FF0022A7
:103A500020210C4803F00CFF01221021094803F03B
:103A600007FF0548FFF77CFA4FF4967008F07EFBDD
:103A700000BF80BD02000020E0040020C40300203D
:103A8000A40200200000024080B500AF1C4B1B7850
:103A9000C3F12D0307EE903AF8EEE77A194BC3ED28
:103AA000007A194B1B6840F235525A63164B1B685B
:103AB0004FF4FA629A63154B1B685A221A644FF44A
:103AC000967002F0A1FF00220421114803F0D0FEFD
:103AD000012208210E4803F0CBFE002220210C48D1
:103AE00003F0C6FE01221021094803F0C1FE05487B
:103AF000FFF736FA4FF4967008F038FB00BF80BD30
:103B000003000020E0040020C4030020A4020020E1
:103B10000000024080B500AF414B4FF081421A6077
:103B2000002201213E48FEF72BFF3E4BD3ED417AA8
:103B30009FED3D7AF4EEC77AF1EE10FA02DD40F225
:103B4000091312E0374BD3ED417A9FED387AF4EE4A
:103B5000C77AF1EE10FA01D5462306E0314BD3EDDA
:103B6000417AFCEEE77A17EE903A314A1268136414
:103B70004FF4967002F048FF2A4BD3F808312D4AD3
:103B80001360284B93F80C31002B0CBF012300234A
:103B9000DBB21A460421284803F06AFE214B93F851
:103BA0000C31002B14BF01230023DBB21A4608217D
:103BB000214803F05DFE1B4B93F80C31002B0CBF2A
:103BC00001230023DBB21A4620211B4803F050FEDC
:103BD000144B93F80C31002B14BF01230023DBB2EC
:103BE0001A461021144803F043FE0E4BB3F800218F
:103BF000124B1B685A630B4BB3F802210F4B1B6827
:103C00009A630C48FFF7ACF9054B4FF080421A60FD
:103C1000002200210248FEF7B3FE00BF80BD00BFB6
:103C2000F4040020040000200080844300008C4243
:103C3000A4020020E004002000000240C403002091
:103C400080B500AF404B414A1A60002201213E4836
:103C5000FEF796FE3E4BD3ED3D7A9FED3E7AF4EEB5
:103C6000C77AF1EE10FA02DD40F2091312E0384B88
:103C7000D3ED3D7A9FED387AF4EEC77AF1EE10FA83
:103C800001D5462306E0324BD3ED3D7AFCEEE77AD0
:103C900017EE903A314A126813644FF4967002F0AE
:103CA000B3FE2B4BD3F8F8302D4A1360284B93F812
:103CB000FC30002B0CBF01230023DBB21A46042189
:103CC000284803F0D5FD224B93F8FC30002B14BF9D
:103CD00001230023DBB21A460821224803F0C8FD65
:103CE0001B4B93F8FC30002B0CBF01230023DBB2ED
:103CF0001A4620211B4803F0BBFD154B93F8FC30FE
:103D0000002B14BF01230023DBB21A4610211548F3
:103D100003F0AEFD0E4BB3F8F020134B1B685A6353
:103D20000B4BB3F8F220104B1B689A630C48FFF75B
:103D300017F9054B0D4A1A60002200210248FEF7D0
:103D40001FFE00BF80BD00BFF40400200000A040A3
:103D5000040000200080844300008C42A402002064
:103D6000E004002000000240C403002000004040A6
:103D700080B500AF404B414A1A60002201213E4805
:103D8000FEF7FEFD3E4BD3ED1D7A9FED3E7AF4EE3D
:103D9000C77AF1EE10FA02DD40F2091312E0384B57
:103DA000D3ED1D7A9FED387AF4EEC77AF1EE10FA72
:103DB00001D5462306E0324BD3ED1D7AFCEEE77ABF
:103DC00017EE903A314A126813644FF4967002F07D
:103DD0001BFE2B4B9B6F2E4A1360294B93F87C30B4
:103DE000002B0CBF01230023DBB21A460421294813
:103DF00003F03EFD224B93F87C30002B14BF0123CF
:103E00000023DBB21A460821224803F031FD1C4B87
:103E100093F87C30002B0CBF01230023DBB21A4641
:103E200020211C4803F024FD154B93F87C30002B17
:103E300014BF01230023DBB21A461021154803F0FA
:103E400017FD0F4BB3F87020134B1B685A630C4BD4
:103E5000B3F87220104B1B689A630D48FFF780F887
:103E6000054B4FF080421A60002201210248FEF704
:103E700087FD00BF80BD00BFF4040020000030417A
:103E8000040000200080844300008C42A402002033
:103E9000E004002000000240C403002080B500AF11
:103EA000404B414A1A60002201213E48FEF768FD5E
:103EB0003E4BD3ED217A9FED3E7AF4EEC77AF1EED8
:103EC00010FA02DD40F2091312E0384BD3ED217AEB
:103ED0009FED387AF4EEC77AF1EE10FA01D5462359
:103EE00006E0324BD3ED217AFCEEE77A17EE903AFA
:103EF000314A126813644FF4967002F085FD2B4B23
:103F0000D3F888302D4A1360284B93F88C30002B5F
:103F10000CBF01230023DBB21A460421284803F01A
:103F2000A7FC224B93F88C30002B14BF01230023F5
:103F3000DBB21A460821224803F09AFC1B4B93F887
:103F40008C30002B0CBF01230023DBB21A4620214A
:103F50001B4803F08DFC154B93F88C30002B14BFDD
:103F600001230023DBB21A461021154803F080FC20
:103F70000E4BB3F88020134B1B685A630B4BB3F8FE
:103F80008220104B1B689A630C48FEF7E9FF054B33
:103F90004FF080421A60002200210248FEF7F0FC38
:103FA00000BF80BDF4040020000060400400002039
:103FB0000080844300008C42A4020020E004002022
:103FC00000000240C403002080B582B000AF7860DA
:103FD000642008F0CBF8FBE780B584B002AF7860CE
:103FE0001A4802F079FD1A4802F076FD14211748AC
:103FF00002F077FE1421164802F073FE134802F017
:10400000FBFE02460C2300930523142100200AF036
:10401000B5FF0F4802F0F0FE02460C230093052383
:1040200014213C200AF0AAFF084802F027FE0848A5
:1040300002F024FE074A282100200BF00DF80AF0B8
:104040000DFE642008F092F8CAE700BF08020020C5
:10405000C00100208804002080B582B000AF7860E5
:104060007B4B1B78002B04D04FF47A7008F07EF85D
:10407000F6E7784B4FF000021A60774B00221A8067
:10408000764B1B78002B62D0754B4FF000021A6004
:10409000744B00221A807448FEF765FA7348FEF7E5
:1040A00062FA7348FEF75FFA00220421714803F0B8
:1040B000DFFB012208216F4803F0DAFB00222021F8
:1040C0006C4803F0D5FB012210216A4803F0D0FBB5
:1040D000694B1B6800225A63674B1B6800229A6376
:1040E0005B4B1A78654B1A70594B10221A70644B4F
:1040F00000221A60634B64221A70624B00225A80BD
:10410000614A0F2161480BF065F84FF6FF730622F4
:104110005F49604806F0DFFE02F06AFC03465E4A33
:1041200013604E4B1B78002B00F0908002F060FC77
:104130000246594B1B68D31A092BF2D90020FEF70F
:1041400065FA02F055FC0346534A1360E9E74D4B0C
:104150005B8807EE903AF8EE677A3E4BC3ED007A43
:104160003C4BD3ED007AB2EE0E7AF4EEC77AF1EE64
:1041700010FA02D8494B00221A70364BD3ED007A60
:104180009FED477AF4EEC77AF1EE10FA09DB314B76
:10419000D3ED007AB0EE007A77EEC77A2D4BC3EDFF
:1041A000007A3E4B1B78002B05D1002201212948C3
:1041B000FEF7E6FB04E0022201212648FEF7E0FBC1
:1041C0002D4B1B6800225A632B4B1B6800229A63FD
:1041D0001F4B1A78294B1A701D4B10221A70284B4E
:1041E00000221A602F4B1A782E4B5B789A4212D11C
:1041F000244B64221A70234B00225A80224A0F213A
:1042000022480AF0E7FF4FF6FF73062220492148B3
:1042100006F061FE24E7234B5B781A4A21499B0094
:104220000B445B6813601F4B5B7801331D4A927827
:1042300093FBF2F101FB02F29B1ADAB2194B5A70AE
:10424000194A0F2111480AF0C5FF09E700BF07E727
:1042500034010020F4040020FA040020DC040020D3
:10426000E4040020EA0400201405002000050020DA
:104270002805002000000240C40300203501002072
:1042800060050020C8040020E4FB0008CC040020E6
:10429000ECFB00080C040020F00400203601002094
:1042A0000000C84294040020F4FB000880B582B0EE
:1042B00000AF7860714B1B78012B04D04FF47A70FB
:1042C00007F054FFF6E76E4B4FF000021A606D4B9B
:1042D00000221A806C4B1B78002B61D06B4B4FF087
:1042E00000021A606A4B00221A806A48FEF73BF906
:1042F0006948FEF738F96948FEF735F901220421CB
:10430000674803F0B5FA00220821654803F0B0FAC7
:1043100001222021624803F0ABFA002210216048FC
:1043200003F0A6FA5F4B1B6800225A635D4B1B68C3
:1043300000229A63514B1A785B4B1A704F4B102234
:104340001A705A4B00221A60594B64221A70584B4B
:1043500000225A80574A0F2157480AF03BFF4FF678
:10436000FF7306225549564806F0B5FD02F040FBA2
:104370000346544A1360444B1B78002B7BD002F059
:1043800037FB02464F4B1B68D31A092BF3D9002089
:10439000FEF73CF902F02CFB03464A4A1360EAE7B9
:1043A000434B5B8807EE903AF8EE677A344BC3EDE7
:1043B000007A334BD3ED007AB2EE0E7AF4EEC77A80
:1043C000F1EE10FA02D8404B00221A703E4B1B78D7
:1043D000002B05D1002200212948FEF7D1FA04E084
:1043E000022200212648FEF7CBFA2E4B1B68002242
:1043F0005A632C4B1B6800229A63204B1A782A4B75
:104400001A701E4B10221A70284B00221A602F4B74
:104410001A782E4B5B789A4212D1254B64221A707F
:10442000234B00225A80234A0F2123480AF0D2FE50
:104430004FF6FF7306222149214806F04CFD39E76B
:10444000224B5B781A4A21499B000B445B6813603E
:104450001E4B5B7801331D4A927893FBF2F101FB0E
:1044600002F29B1ADAB2194B5A70194A0F211248FC
:104470000AF0B0FE1EE700BF1CE700BF34010020B9
:10448000F4040020FA040020DC040020E4040020EE
:10449000EA04002014050020000500202805002063
:1044A00000000240C4030020350100206005002008
:1044B000C8040020E4FB0008CC040020ECFB00084A
:1044C0000C040020F0040020360100209404002099
:1044D000F4FB000880B582B000AF7860A74B1B7872
:1044E000022B04D04FF47A7007F040FEF6E7A44B9D
:1044F0005B88002B00F083801E2B40F00081A14BD5
:10450000A14A1A60002201219E48FEF739FA9F4B0A
:10451000D3ED3D7A9FED9E7AF4EEC77AF1EE10FA74
:1045200002DD40F2091312E0984BD3ED3D7A9FED86
:10453000997AF4EEC77AF1EE10FA01D5462306E037
:10454000924BD3ED3D7AFCEEE77A17EE903A924A21
:10455000126813644FF4967002F056FA8B4BD3F83E
:10456000F8308E4A1360894B93F8FC30002B0CBF57
:1045700001230023DBB21A460421894803F078F9AD
:10458000824B93F8FC30002B14BF01230023DBB2D5
:104590001A460821824803F06BF97C4B93F8FC30F3
:1045A000002B0CBF01230023DBB21A4620217C48DC
:1045B00003F05EF9754B93F8FC30002B14BF012318
:1045C0000023DBB21A461021754803F051F96F4BF6
:1045D000B3F8F020734B1B685A636C4BB3F8F220AE
:1045E000704B1B689A636D48FEF7BAFC654B6E4AC8
:1045F0001A60002200216348FEF7C2F97FE0614B98
:104600006A4A1A60002201215E48FEF7B9F95F4B41
:10461000D3ED1D7A9FED5E7AF4EEC77AF1EE10FAD3
:1046200002DD40F2091312E0584BD3ED1D7A9FEDE5
:10463000597AF4EEC77AF1EE10FA01D5462306E076
:10464000524BD3ED1D7AFCEEE77A17EE903A524AC0
:10465000126813644FF4967002F0D6F94B4B9B6FBF
:104660004E4A1360494B93F87C30002B0CBF01235A
:104670000023DBB21A460421494803F0F9F8434B02
:1046800093F87C30002B14BF01230023DBB21A46C1
:104690000821434803F0ECF83C4B93F87C30002BA6
:1046A0000CBF01230023DBB21A4620213C4803F053
:1046B000DFF8364B93F87C30002B14BF0123002326
:1046C000DBB21A461021364803F0D2F82F4BB3F86C
:1046D0007020344B1B685A632C4BB3F87220314B5B
:1046E0001B689A632D48FEF73BFC264B4FF0804237
:1046F0001A60002201212348FEF742F900BF2C4B2B
:1047000000221A601D4B1A782A4B1A701B4B10227C
:104710001A70294B1A78284B5B789A4212D1184BA1
:1047200064221A70164B00225A80244A0F21244812
:104730000AF050FD4FF6FF7306222249224806F088
:10474000CAFBCBE61C4B5B780D4A1B499B000B4414
:104750005B681360184B5B780133174A927893FBC0
:10476000F2F101FB02F29B1ADAB2134B5A70174AAC
:104770000F2113480AF02EFDB0E600BF34010020DF
:10478000C8040020F40400200000A0400400002021
:104790000080844300008C42A4020020E00400203A
:1047A00000000240C40300200000404000003041EF
:1047B000600500203501002094040020E4FB00087F
:1047C000CC040020ECFB00080C040020F4FB0008E3
:1047D00080B582B000AF7860A84B1B78032B04D063
:1047E0004FF47A7007F0C2FCF6E7A54B5B88002B0C
:1047F00000F085801E2B40F00381A24B4FF08142D8
:104800001A60002201219F48FEF7BAF89E4BD3EDB3
:10481000417A9FED9E7AF4EEC77AF1EE10FA02DD4E
:1048200040F2091312E0984BD3ED417A9FED987A4C
:10483000F4EEC77AF1EE10FA01D5462306E0924B6A
:10484000D3ED417AFCEEE77A17EE903A914A12687E
:1048500013644FF4967002F0D7F88B4BD3F80831FD
:104860008D4A1360884B93F80C31002B0CBF012349
:104870000023DBB21A460421884802F0F9FF824B7C
:1048800093F80C31002B14BF01230023DBB21A462E
:104890000821824802F0ECFF7B4B93F80C31002B8F
:1048A0000CBF01230023DBB21A4620217B4802F013
:1048B000DFFF754B93F80C31002B14BF012300234D
:1048C000DBB21A461021754802F0D2FF6E4BB3F8E6
:1048D0000021734B1B685A636B4BB3F80221704B7A
:1048E0001B689A636C48FEF73BFB664B4FF08042B7
:1048F0001A60002200216348FEF742F880E0614B15
:10490000684A1A60002201215E48FEF739F85E4BC2
:10491000D3ED217A9FED5D7AF4EEC77AF1EE10FACD
:1049200002DD40F2091312E0574BD3ED217A9FEDDF
:10493000587AF4EEC77AF1EE10FA01D5462306E074
:10494000514BD3ED217AFCEEE77A17EE903A514ABB
:10495000126813644FF4967002F056F84A4BD3F87D
:1049600088304D4A1360484B93F88C30002B0CBFB5
:1049700001230023DBB21A460421484802F078FFE5
:10498000414B93F88C30002B14BF01230023DBB282
:104990001A460821414802F06BFF3B4B93F88C30DC
:1049A000002B0CBF01230023DBB21A4620213B4819
:1049B00002F05EFF344B93F88C30002B14BF0123C0
:1049C0000023DBB21A461021344802F051FF2E4B6F
:1049D000B3F88020324B1B685A632B4BB3F882200C
:1049E0002F4B1B689A632C48FEF7BAFA254B4FF001
:1049F00080421A60002200212248FDF7C1FF00BF5B
:104A0000294B00221A601D4B1A78284B1A701B4B39
:104A100010221A70264B1A78254B5B789A4212D1D5
:104A2000174B64221A70164B00225A80214A0F211C
:104A300021480AF0CFFB4FF6FF7306221F4920489A
:104A400006F049FAC8E61A4B5B780D4A18499B00F4
:104A50000B445B681360164B5B780133144A927801
:104A600093FBF2F101FB02F29B1ADAB2104B5A707F
:104A7000144A0F2110480AF0ADFBADE634010020C6
:104A8000C8040020F40400200400002000808443B7
:104A900000008C42A4020020E0040020000002403C
:104AA000C4030020000060406005002035010020A4
:104AB00094040020E4FB0008CC040020ECFB000878
:104AC0000C040020F4FB000880B582B000AF7860D1
:104AD000A84B1B78042B04D04FF47A7007F046FBE8
:104AE000F6E7A54B5B88002B00F084801E2B40F07E
:104AF0000381A24B4FF07E521A60002201219F4891
:104B0000FDF73EFF9E4BD3ED457A9FED9E7AF4EE86
:104B1000C77AF1EE10FA02DD40F2091312E0984B69
:104B2000D3ED457A9FED987AF4EEC77AF1EE10FA5C
:104B300001D5462306E0924BD3ED457AFCEEE77AA9
:104B400017EE903A914A126813644FF4967001F090
:104B50005BFF8B4BD3F818318D4A1360884B93F869
:104B60001C31002B0CBF01230023DBB21A460421A9
:104B7000884802F07DFE824B93F81C31002B14BF55
:104B800001230023DBB21A460821824802F070FE9E
:104B90007B4B93F81C31002B0CBF01230023DBB2AD
:104BA0001A4620217B4802F063FE754B93F81C31B6
:104BB000002B14BF01230023DBB21A4610217548D5
:104BC00002F056FE6E4BB3F81021734B1B685A630C
:104BD0006B4BB3F81221704B1B689A636C48FEF75D
:104BE000BFF9664B6D4A1A60002200216348FDF749
:104BF000C7FE81E0614B4FF07E521A600022002117
:104C00005E48FDF7BDFE5E4BD3ED257A9FED5D7AE4
:104C1000F4EEC77AF1EE10FA02DD40F2091312E069
:104C2000574BD3ED257A9FED587AF4EEC77AF1EE23
:104C300010FA01D5462306E0514BD3ED257AFCEE60
:104C4000E77A17EE903A514A126813644FF496705F
:104C500001F0DAFE4A4BD3F898304D4A1360484BC6
:104C600093F89C30002B0CBF01230023DBB21A46C3
:104C70000421484802F0FCFD414B93F89C30002B86
:104C800014BF01230023DBB21A460821414802F079
:104C9000EFFD3B4B93F89C30002B0CBF012300230E
:104CA000DBB21A4620213B4802F0E2FD344B93F878
:104CB0009C30002B14BF01230023DBB21A461021C5
:104CC000344802F0D5FD2E4BB3F89020324B1B68D0
:104CD0005A632B4BB3F892202F4B1B689A632C48D6
:104CE000FEF73EF9254B4FF082421A600022002168
:104CF0002248FDF745FE00BF294B00221A601D4BDC
:104D00001A78284B1A701B4B10221A70264B1A78EF
:104D1000254B5B789A4212D1174B64221A70164BBE
:104D200000225A80214A0F2121480AF053FA4FF6F7
:104D3000FF7306221F49204806F0CDF8C8E61A4B3B
:104D40005B780D4A18499B000B445B681360164B57
:104D50005B780133144A927893FBF2F101FB02F283
:104D60009B1ADAB2104B5A70144A0F2110480AF0FD
:104D700031FAADE634010020C8040020F40400201C
:104D8000040000200080844300008C42A402002024
:104D9000E004002000000240C40300200000C040E6
:104DA000600500203501002094040020E4FB000889
:104DB000CC040020ECFB00080C040020F4FB0008ED
:104DC00080B582B000AF7860A74B1B78052B04D06C
:104DD0004FF47A7007F0CAF9F6E7A44B5B88002B12
:104DE00000F084801E2B40F00181A14B4FF08042E7
:104DF0001A60002200219E48FDF7C2FD9D4BD3EDB5
:104E0000497A9FED9D7AF4EEC77AF1EE10FA02DD51
:104E100040F2091312E0974BD3ED497A9FED977A50
:104E2000F4EEC77AF1EE10FA01D5462306E0914B75
:104E3000D3ED497AFCEEE77A17EE903A904A126881
:104E400013644FF4967001F0DFFD8A4BD3F82831DC
:104E50008C4A1360874B93F82C31002B0CBF012335
:104E60000023DBB21A460421874802F001FD814B82
:104E700093F82C31002B14BF01230023DBB21A4618
:104E80000821814802F0F4FC7A4B93F82C31002B76
:104E90000CBF01230023DBB21A4620217A4802F01E
:104EA000E7FC744B93F82C31002B14BF0123002333
:104EB000DBB21A461021744802F0DAFC6D4BB3F8ED
:104EC0002021724B1B685A636A4BB3F822216F4B47
:104ED0001B689A636B48FEF743F8654B6C4A1A608F
:104EE000002200216248FDF74BFD7FE0604B694ADC
:104EF0001A60002201215E48FDF742FD5D4BD3EDB3
:104F0000297A9FED5D7AF4EEC77AF1EE10FA02DDB0
:104F100040F2091312E0574BD3ED297A9FED577AEF
:104F2000F4EEC77AF1EE10FA01D5462306E0514BB4
:104F3000D3ED297AFCEEE77A17EE903A504A1268E0
:104F400013644FF4967001F05FFD4A4BD3F8A8301C
:104F50004C4A1360474B93F8AC30002B0CBF012335
:104F60000023DBB21A460421474802F081FC414B82
:104F700093F8AC30002B14BF01230023DBB21A4698
:104F80000821414802F074FC3A4B93F8AC30002BF6
:104F90000CBF01230023DBB21A4620213A4802F05D
:104FA00067FC344B93F8AC30002B14BF0123002373
:104FB000DBB21A461021344802F05AFC2D4BB3F8EC
:104FC000A020324B1B685A632A4BB3F8A2202F4B08
:104FD0001B689A632B48FDF7C3FF254B2E4A1A60C6
:104FE000002200212248FDF7CBFC00BF2B4B002202
:104FF0001A601D4B1A782A4B1A701B4B10221A701C
:10500000284B1A78274B5B789A4212D1174B6422AF
:105010001A70164B00225A80234A0F2123480AF0A7
:10502000D9F84FF6FF7306222149224805F053FFB5
:10503000CAE61C4B5B780D4A1A499B000B445B681F
:105040001360184B5B780133164A927893FBF2F1A8
:1050500001FB02F29B1ADAB2124B5A70164A0F2168
:1050600012480AF0B7F8AFE634010020C804002067
:10507000F4040020040000200080844300008C42DF
:10508000A4020020E004002000000240C40300202D
:105090000000E0400000A04000004040600500200B
:1050A0003501002094040020E4FB0008CC0400201B
:1050B000ECFB00080C040020F4FB000880B582B073
:1050C00000AF7860C74B1B78013B632B00F24B832A
:1050D00001A252F823F000BF69520008775200087D
:1050E0008552000885520008855200088552000844
:1050F0005954000867540008755400088354000888
:10510000915400089154000867570008DB540008C8
:105110006757000867570008675700086757000877
:105120006757000867570008675700086757000867
:105130006757000867570008675700086757000857
:105140006757000867570008675700086757000847
:105150006757000867570008675700086757000837
:105160006757000867570008675700086757000827
:105170006757000867570008675700086757000817
:105180006757000867570008675700086757000807
:1051900067570008675700086757000867570008F7
:1051A00067570008675700086757000867570008E7
:1051B00067570008675700086757000867570008D7
:1051C00067570008675700086757000867570008C7
:1051D00067570008675700086757000867570008B7
:1051E00067570008675700086757000867570008A7
:1051F0006757000867570008675700086757000897
:105200006757000867570008675700086757000886
:105210006757000867570008675700086757000876
:105220006757000867570008675700086757000866
:1052300067570008E9540008E954000805560008BB
:105240000556000813570008215700082F5700087B
:105250003D5700084B57000859570008675700088A
:1052600067570008675700085F4B00221A705D4BB4
:1052700063221A7078E25C4B01221A70594B632248
:105280001A7071E2574B1B78584A1B0113440433C0
:10529000D3ED007A9FED567AF4EEC77AF1EE10FA6C
:1052A00002DD40F209131CE04E4B1B784F4A1B01F4
:1052B00013440433D3ED007A9FED4E7AF4EEC77AAF
:1052C000F1EE10FA01D546230BE0464B1B78474A16
:1052D0001B0113440433D3ED007AFCEEE77A17EE9A
:1052E000903A454A126813644FF4967001F08CFBB3
:1052F0003C4B1B783D4A1B01134408331B683F4A53
:105300001360384B1B78394A1B0113440C331B784C
:10531000002B0CBF01230023DBB21A4604213848BE
:1053200002F0A6FA2F4B1B78304A1B0113440C33B2
:105330001B78002B14BF01230023DBB21A4608217F
:105340002F4802F095FA274B1B78284A1B0113447B
:105350000C331B78002B0CBF01230023DBB21A4651
:105360002021274802F084FA1E4B1B781F4A1B019C
:1053700013440C331B78002B14BF01230023DBB232
:105380001A4610211E4802F073FA164B1B78174A72
:105390001B0113441A881B4B1B685A63114B1B7863
:1053A000124A1B01134402331A88164B1B689A6376
:1053B000154B1A78144B5B789A422FD1094B642213
:1053C0001A70084B00225A80104A0F21104809F029
:1053D00001FF4FF6FF7306220E490F4805F07BFDD3
:1053E00036E000BFC8040020340100200400002083
:1053F0000080844300008C42A4020020E0040020CE
:1054000000000240C403002094040020E4FB0008D4
:10541000CC040020ECFB00080C040020984B5B78C7
:10542000984A97499B000B445B681360944B5B78E8
:105430000133934A927893FBF2F101FB02F29B1A3B
:10544000DAB28F4B5A70904A0F21904809F0C2FE91
:105450008C4B63221A7087E18D4B02221A70894BA4
:1054600063221A7080E18A4B03221A70854B6322F3
:105470001A7079E1864B04221A70824B63221A70EB
:1054800072E1834B05221A707E4B63221A706BE126
:105490007C4B1B780B2B05D07E4B1B6840F209120E
:1054A0001A6403E07B4B1B6846221A644FF4967023
:1054B00001F0AAFA734B64221A70724B00225A80D0
:1054C000754A0F21714809F085FE4FF6FF730622D9
:1054D0007249734805F0FFFC46E16D4B09221A70D2
:1054E000684B63221A703FE1002204216D4802F0EC
:1054F000BFF9012208216B4802F0BAF900222021ED
:10550000684802F0B5F901221021664802F0B0F9AE
:105510005C4B1B78582B2DD15E4B1B685A221A64AA
:105520004FF4967001F070FA564B5B88092B0DD939
:10553000544B5B881A465C4B1B78D31A07EE903AA3
:10554000F8EEE77A594BC3ED007A08E04D4B5B88E3
:1055500007EE903AF8EE677A544BC3ED007A544B5D
:105560001B6840F235525A63514B1B684FF4FA6284
:105570009A632EE0474B1B6840F209121A644FF4FD
:10558000967001F041FA3F4B5B88092B0DD9494BCE
:105590001B781A463B4B5B88D31A07EE903AF8EE1D
:1055A000E77A424BC3ED007A09E0364B5B885B42F9
:1055B00007EE903AF8EEE77A3C4BC3ED007A3C4BAD
:1055C0001B684FF4FA625A63394B1B6840F235523C
:1055D0009A632C4B63221A703448FDF7C1FC294BA7
:1055E00064221A70274B00225A802B4A0F21274829
:1055F00009F0F0FD4FF6FF7306222849284805F010
:105600006AFCB1E01F4B1B785A2B05D1214B1B685C
:1056100040F209121A6403E01E4B1B6846221A640A
:105620004FF4967001F0F0F9012204211D4802F0B8
:105630001FF9002208211B4802F01AF9012220213B
:10564000184802F015F900221021164802F010F94E
:105650000C4B1B785A2B2FD10A4B5B8807EE903AE4
:10566000F8EE677A114BC3ED007A114B1B684FF4CB
:10567000FA625A630E4B1B6840F235529A632FE070
:1056800094040020C8040020F4FB0008CC0400208F
:1056900034010020A4020020E4FB0008ECFB000819
:1056A0000C0400200000024003000020E004002061
:1056B000C4030020020000202D4B5B885B4207EEF4
:1056C000903AF8EEE77A2B4BC3ED007A2A4B1B6831
:1056D00040F235525A63284B1B684FF4FA629A63C2
:1056E000234B63221A702348FDF73AFC204B6422B7
:1056F0001A701F4B00225A80204A0F21204809F0BF
:1057000069FD4FF6FF7306221E491F4805F0E3FBB3
:105710002AE01E4B0A221A70154B63221A7023E0EE
:105720001A4B0C221A70124B63221A701CE0174B92
:105730000D221A700E4B63221A7015E0134B0B22C8
:105740001A700B4B63221A700EE0104B0E221A7067
:10575000074B63221A7007E00C4B0F221A70044BA0
:1057600063221A7000E000BF012006F0FFFCA9E4EC
:10577000C8040020E0040020C4030020E4FB00086B
:10578000CC040020ECFB00080C04002034010020B5
:1057900080B582B000AF78602F4B1B78092B04D006
:1057A0004FF47A7006F0E2FC51E02C4B5B8807EE78
:1057B000903AF8EE677A2A4BC3ED007A0221284826
:1057C000FDF77AFC274B1B6800225A63254B1B68A8
:1057D00000229A63204B1A78234B1A701E4B10221A
:1057E0001A70224B00221A60214B1A78204B5B78EA
:1057F0009A4212D1194B64221A70184B00225A8017
:105800001C4A0F211C4809F0E5FC4FF6FF730622E5
:105810001A491B4805F05FFB19E0154B5B780F4AEE
:1058200013499B000B445B681360114B5B78013399
:105830000F4A927893FBF2F101FB02F29B1ADAB263
:105840000B4B5A700F4A0F210B4809F0C3FC012083
:1058500006F08CFCA0E700BF34010020C804002043
:10586000F4040020C403002035010020600500205E
:1058700094040020E4FB0008CC040020ECFB0008AA
:105880000C040020F4FB000880B582B000AF786003
:10589000614B1B780A2B04D04FF47A7006F066FC3B
:1058A000B5E05E4B5B88013B032B73D801A252F835
:1058B00023F000BFC5580008F95800082D5900080A
:1058C00061590008564B574A1A6002215448FDF7A7
:1058D000F3FBFEF793F8642006F048FCFEF7D4F8DB
:1058E000642006F043FC4E4B4F4A1A600022002110
:1058F0004B48FDF745F84DE0494B4A4A1A600221F2
:105900004748FDF7D9FBFEF7BFF8642006F02EFCF0
:10591000FEF774F8642006F029FC414B424A1A60F5
:10592000002200213E48FDF72BF833E03C4B3D4A76
:105930001A6002213A48FDF7BFFBFEF75FF86420CA
:1059400006F014FCFEF7A0F8642006F00FFC344BC0
:10595000354A1A60002200213148FDF711F819E09C
:105960002F4B304A1A6002212D48FDF7A5FBFEF7A8
:105970008BF8642006F0FAFBFEF740F8642006F08E
:10598000F5FB274B284A1A60002200212448FCF727
:10599000F7FF00BF254B00221A601F4B1A78244BDB
:1059A0001A701D4B10221A70224B1A78214B5B780B
:1059B0009A4212D1194B64221A70184B00225A8055
:1059C0001D4A0F211D4809F005FC4FF6FF73062202
:1059D0001B491C4805F07FFA19E0164B5B780F4A0B
:1059E00014499B000B445B681360124B5B780133D6
:1059F000104A927893FBF2F101FB02F29B1ADAB2A1
:105A00000C4B5A70104A0F210C4809F0E3FB01209F
:105A100006F0ACFB3CE700BF34010020C8040020C6
:105A2000F40400200000C8410000A04060050020F0
:105A30003501002094040020E4FB0008CC04002081
:105A4000ECFB00080C040020F4FB000880B582B0D9
:105A500000AF7860C74B1B780B2B04D04FF47A70E3
:105A600006F084FB81E1C44B5B88013B032B00F211
:105A70003F8101A252F823F0895A0008235B0008F5
:105A8000BD5B0008575C0008BC4BBD4A1A60022190
:105A9000BA48FDF711FB642006F068FBFEF73AF800
:105AA000322006F063FB0020FDF7BAFC322006F03E
:105AB0005DFBFEF7C5F8322006F058FBAF4BB14A4C
:105AC0001A6000220121AD48FCF75AFF322006F08F
:105AD0004DFB0020FDF7A4FC322006F047FBFEF74B
