:020000040800F2
:1000000000000220356F0008296E00082F6E0008DE
:10001000356E00083B6E0008416E000800000000CD
:10002000000000000000000000000000B1E800082F
:10003000476E00080000000001EB000885C50008BD
:10004000856F0008856F0008856F0008856F0008C0
:10005000856F0008856F0008856F0008856F0008B0
:10006000856F0008856F0008856F0008856F0008A0
:10007000856F0008856F0008856F0008856F000890
:10008000856F0008856F0008856F0008856F000880
:10009000856F0008856F0008856F0008856F000870
:1000A000856F0008856F0008856F0008556E000891
:1000B000856F0008696E00087D6E0008856F000876
:1000C000856F0008856F0008856F0008856F000840
:1000D000856F0008856F0008856F0008916E000825
:1000E000856F0008856F0008856F0008856F000820
:1000F000856F0008856F0008856F0008856F000810
:10010000856F0008856F0008856F0008856F0008FF
:10011000856F0008856F0008856F0008856F0008EF
:10012000856F0008856F0008856F0008856F0008DF
:10013000856F0008856F0008856F0008856F0008CF
:10014000856F0008856F0008856F0008856F0008BF
:10015000856F0008856F0008856F0008856F0008AF
:10016000856F0008856F0008856F0008856F00089F
:10017000856F0008856F0008856F0008000000008B
:08018000856F0008856F00087F
:1001900010B5054C237833B9044B13B10448AFF3C1
:1001A00000800123237010BDA40100200000000086
:1001B0004401010808B5034B1BB103490348AFF3E1
:1001C000008008BD00000000A801002044010108D3
:1001D00001F0FF01102A2BDB10F0070F08D010F8F8
:1001E000013B013A8B422DD010F0070F42B3F6D1FC
:1001F000F0B441EA012141EA014122F007047FF015
:1002000000070023F0E80256083C85EA010586EA6B
:10021000010685FA47F5A3FA87F586FA47F6A5FAA7
:1002200087F68EB9EED1F0BC01F0FF0102F00702B3
:1002300032B110F8013B013A83EA010313B1F8D15E
:100240000020704701387047002D06BF354603383F
:10025000073815F0010F07D1013015F4807F02BF78
:10026000013015F4C03F0130F0BC0138704700BFC9
:1002700081F0004102E000BF83F0004330B54FEA57
:1002800041044FEA430594EA050F08BF90EA020FC4
:100290001FBF54EA000C55EA020C7FEA645C7FEA57
:1002A000655C00F0E2804FEA5454D4EB5555B8BF7A
:1002B0006D420CDD2C4480EA020281EA030382EAEB
:1002C000000083EA010180EA020281EA0303362D7D
:1002D00088BF30BD11F0004F4FEA01314FF4801C50
:1002E0004CEA113102D0404261EB410113F0004F62
:1002F0004FEA03334CEA133302D0524263EB430319
:1003000094EA050F00F0A780A4F10104D5F1200EB6
:100310000DDB02FA0EFC22FA05F2801841F1000111
:1003200003FA0EF2801843FA05F359410EE0A5F1E5
:1003300020050EF1200E012A03FA0EFC28BF4CF016
:10034000020C43FA05F3C01851EBE37101F00045CC
:1003500007D54FF0000EDCF1000C7EEB00006EEBD9
:100360000101B1F5801F1BD3B1F5001F0CD3490863
:100370005FEA30004FEA3C0C04F101044FEA4452BA
:1003800012F5800F80F09A80BCF1004F08BF5FEA41
:10039000500C50F1000041EB045141EA050130BD21
:1003A0005FEA4C0C404141EB0101013C28BFB1F533
:1003B000801FE9D291F0000F04BF01460020B1FA7E
:1003C00081F308BF2033A3F10B03B3F120020CDA51
:1003D0000C3208DD02F1140CC2F10C0201FA0CF02F
:1003E00021FA02F10CE002F11402D8BFC2F1200C94
:1003F00001FA02F120FA0CFCDCBF41EA0C0190404A
:10040000E41AA2BF01EB0451294330BD6FEA040492
:100410001F3C1CDA0C340EDC04F11404C4F120027D
:1004200020FA04F001FA02F340EA030021FA04F38F
:1004300045EA030130BDC4F10C04C4F1200220FAE6
:1004400002F001FA04F340EA0300294630BD21FA24
:1004500004F0294630BD94F0000F83F4801306BFEA
:1004600081F480110134013D4EE77FEA645C18BFDE
:100470007FEA655C29D094EA050F08BF90EA020F75
:1004800005D054EA000C04BF1946104630BD91EA6D
:10049000030F1EBF0021002030BD5FEA545C05D170
:1004A0004000494128BF41F0004130BD14F58004AF
:1004B0003CBF01F5801130BD01F0004545F0FE4123
:1004C00041F470014FF0000030BD7FEA645C1ABF58
:1004D000194610467FEA655C1CBF0B46024650EA8F
:1004E000013406BF52EA033591EA030F41F40021BB
:1004F00030BD00BF90F0000F04BF0021704730B541
:100500004FF4806404F132044FF000054FF0000115
:1005100050E700BF90F0000F04BF0021704730B5D6
:100520004FF4806404F1320410F0004548BF4042AB
:100530004FF000013EE700BF42004FEAE2014FEA00
:1005400031014FEA02701FBF12F07F4393F07F4FDB
:1005500081F06051704732F07F4208BF704793F0DE
:100560007F4F04BF41F40021704730B54FF46074F1
:1005700001F0004521F000411CE700BF50EA0102F4
:1005800008BF704730B54FF000050AE050EA01029D
:1005900008BF704730B511F0004502D5404261EB0D
:1005A00041014FF4806404F132045FEA915C3FF44E
:1005B000D8AE4FF003025FEADC0C18BF03325FEAEB
:1005C000DC0C18BF033202EBDC02C2F1200300FA9C
:1005D00003FC20FA02F001FA03FE40EA0E0021FAC1
:1005E00002F11444BDE600BF70B54FF0FF0C4CF4AF
:1005F000E06C1CEA11541DBF1CEA135594EA0C0F61
:1006000095EA0C0F00F0DEF82C4481EA030621EA9B
:100610004C5123EA4C5350EA013518BF52EA0335D6
:1006200041F4801143F4801338D0A0FB02CE4FF088
:100630000005E1FB02E506F00042E0FB03E54FF0B8
:100640000006E1FB03569CF0000F18BF4EF0010EB0
:10065000A4F1FF04B6F5007F64F5407404D25FEAAC
:100660004E0E6D4146EB060642EAC62141EA55515F
:100670004FEAC52040EA5E504FEACE2EB4F1FD0CA1
:1006800088BFBCF5E06F1ED8BEF1004F08BF5FEA1F
:10069000500E50F1000041EB045170BD06F00046D1
:1006A00046EA010140EA020081EA0301B4EB5C047E
:1006B000C2BFD4EB0C0541EA045170BD41F4801176
:1006C0004FF0000E013C00F3AB8014F1360FDEBF9B
:1006D000002001F0004170BDC4F10004203C35DA77
:1006E0000C341BDC04F11404C4F1200500FA05F3FA
:1006F00020FA04F001FA05F240EA020001F000429B
:1007000021F0004110EBD37021FA04F642EB060110
:100710005EEA430E08BF20EAD37070BDC4F10C043A
:10072000C4F1200500FA04F320FA05F001FA04F2FE
:1007300040EA020001F0004110EBD37041F10001EA
:100740005EEA430E08BF20EAD37070BDC4F12005F5
:1007500000FA05F24EEA020E20FA04F301FA05F25D
:1007600043EA020321FA04F001F0004121FA04F205
:1007700020EA020000EBD3705EEA430E08BF20EAD5
:10078000D37070BD94F0000F0FD101F0004640000F
:1007900041EB010111F4801F08BF013CF7D041EA91
:1007A000060195F0000F18BF704703F00046520095
:1007B00043EB030313F4801F08BF013DF7D043EA66
:1007C0000603704794EA0C0F0CEA135518BF95EA1C
:1007D0000C0F0CD050EA410618BF52EA4306D1D1A3
:1007E00081EA030101F000414FF0000070BD50EAC2
:1007F000410606BF1046194652EA430619D094EA4C
:100800000C0F02D150EA013613D195EA0C0F05D135
:1008100052EA03361CBF104619460AD181EA030189
:1008200001F0004141F0FE4141F470014FF0000041
:1008300070BD41F0FE4141F4780170BD70B54FF0DC
:10084000FF0C4CF4E06C1CEA11541DBF1CEA13555C
:1008500094EA0C0F95EA0C0F00F0A7F8A4EB05043E
:1008600081EA030E52EA03354FEA013100F0888035
:100870004FEA03334FF0805545EA131343EA1263FE
:100880004FEA022245EA111545EA10654FEA0026B3
:100890000EF000419D4208BF964244F1FD0404F56C
:1008A000407402D25B084FEA3202B61A65EB0305C8
:1008B0005B084FEA32024FF480104FF4002CB6EB85
:1008C000020E75EB030E22BFB61A754640EA0C0005
:1008D0005B084FEA3202B6EB020E75EB030E22BF45
:1008E000B61A754640EA5C005B084FEA3202B6EB86
:1008F000020E75EB030E22BFB61A754640EA9C0045
:100900005B084FEA3202B6EB020E75EB030E22BF14
:10091000B61A754640EADC0055EA060E18D04FEAD2
:10092000051545EA16754FEA06164FEAC30343EA72
:1009300052734FEAC2025FEA1C1CC0D111F4801F3F
:100940000BD141EA00014FF000004FF0004CB6E738
:1009500011F4801F04BF01430020B4F1FD0C88BFD7
:10096000BCF5E06F3FF6AFAEB5EB030C04BFB6EBE2
:10097000020C5FEA500C50F1000041EB045170BDD5
:100980000EF0004E4EEA113114EB5C04C2BFD4EB02
:100990000C0541EA045170BD41F480114FF0000E86
:1009A000013C90E645EA060E8DE60CEA135594EA02
:1009B0000C0F08BF95EA0C0F3FF43BAF94EA0C0F05
:1009C0000AD150EA01347FF434AF95EA0C0F7FF47A
:1009D00025AF104619462CE795EA0C0F06D152EACE
:1009E00003353FF4FDAE1046194622E750EA4106B2
:1009F00018BF52EA43067FF4C5AE50EA41047FF4C3
:100A00000DAF52EA43057FF4EBAE12E74FF0FF3C27
:100A100006E000BF4FF0010C02E000BF4FF0010CF8
:100A20004DF804CD4FEA410C7FEA6C5C4FEA430C71
:100A300018BF7FEA6C5C1BD001B050EA410C0CBFC0
:100A400052EA430C91EA030F02BF90EA020F002022
:100A5000704710F1000F91EA030F58BF994208BF89
:100A600090422CBFD8176FEAE37040F00100704746
:100A70004FEA410C7FEA6C5C02D150EA013C07D19D
:100A80004FEA430C7FEA6C5CD6D152EA033CD3D0E8
:100A90005DF8040B704700BF8446104662468C46E2
:100AA0001946634600E000BF01B5FFF7B7FF002815
:100AB00048BF10F1000F01BD4DF808EDFFF7F4FF3E
:100AC0000CBF012000205DF808FB00BF4DF808EDC9
:100AD000FFF7EAFF34BF012000205DF808FB00BFEC
:100AE0004DF808EDFFF7E0FF94BF012000205DF80E
:100AF00008FB00BF4DF808EDFFF7CEFF94BF0120C3
:100B000000205DF808FB00BF4DF808EDFFF7C4FFBB
:100B100034BF012000205DF808FB00BF4A0011D25D
:100B200012F5001211D20DD56FF47873B3EB625247
:100B30000ED44FEAC12343F0004343EA505323FA53
:100B400002F070474FF00000704750EA013002D1C8
:100B50004FF0FF3070474FF0000070474FEA4102FE
:100B6000B2F1E04324BFB3F5001CDCF1FE5C0DD90B
:100B700001F0004C4FEAC0024CEA5070B2F1004F55
:100B800040EB830008BF20F00100704711F0804F58
:100B900021D113F13872BCBF01F00040704741F41D
:100BA00080114FEA5252C2F11802C2F1200C10FA21
:100BB0000CF320FA02F018BF40F001004FEAC12305
:100BC0004FEAD32303FA0CFC40EA0C0023FA02F3A9
:100BD0004FEA4303CCE77FEA625307D150EA01337F
:100BE0001EBF4FF0FE4040F44000704701F000404F
:100BF00040F0FE4040F40000704700BF53B94AB9CE
:100C0000002908BF00281CBF4FF0FF314FF0FF3014
:100C100000F070B9ADF1080C6DE904CE00F006F8F3
:100C2000DDF804E0DDE9022304B070472DE9F04768
:100C3000089E0D4604460F46002B4AD18A42944630
:100C400065D9B2FA82F343B102FA03FCC3F1200280
:100C50009F4020FA02F217439C404FEA1C4E1FFAB5
:100C60008CF5B7FBFEF1220C0EFB117742EA07422E
:100C700001FB05F090420AD91CEB020201F1FF379B
:100C800080F01C81904240F2198102396244121AAC
:100C9000A4B2B2FBFEF00EFB102244EA024400FBB9
:100CA00005F5A5420AD91CEB040400F1FF3280F0DF
:100CB0000781A54240F204816444023840EA0140C1
:100CC000641B00211EB1DC400023C6E90043BDE8DF
:100CD000F0878B4208D9002E00F0ED800021C6E994
:100CE00000050846BDE8F087B3FA83F1002949D131
:100CF000AB4202D3824200F2F880841A65EB030211
:100D000001201746002EE2D0C6E90047DFE702B90E
:100D1000FFDEB2FA82F3002B40F090808A1A4FEA8D
:100D20001C471FFA8CFE0121B2FBF7F507FB1520CB
:100D3000220C42EA00420EFB05F0904208D91CEB5F
:100D4000020205F1FF3802D2904200F2CB80454604
:100D5000121AA4B2B2FBF7F007FB102244EA0244D5
:100D60000EFB00FEA64508D91CEB040400F1FF327F
:100D700002D2A64500F2BB801046A4EB0E0440EA66
:100D800005409FE7C1F120078B4022FA07FC4CEA9F
:100D9000030C05FA01F420FA07F3FD404FEA1C4961
:100DA0002343B5FBF9F81FFA8CFE09FB18551C0C00
:100DB00044EA054408FB0EF5A54202FA01F200FAE6
:100DC00001F00BD91CEB040408F1FF3A80F0888095
:100DD000A54240F28580A8F102086444641B9DB2DC
:100DE000B4FBF9F309FB134445EA044403FB0EFE8C
:100DF000A64508D91CEB040403F1FF356CD2A645C7
:100E00006AD9023B644443EA0843A3FB0295A4EB7E
:100E10000E04AC42C846AE4656D353D056B1B0EBE2
:100E2000080264EB0E0404FA07F7CA40CC401743EB
:100E3000C6E9007418460021BDE8F087C3F120011F
:100E400002FA03FC20FA01F225FA01F19D402A433F
:100E50004FEA1C471FFA8CFEB1FBF7F007FB101599
:100E6000110C41EA054100FB0EF58D4204FA03F432
:100E700008D91CEB010100F1FF382FD28D422DD98A
:100E800002386144491B92B2B1FBF7F507FB15111B
:100E900042EA014205FB0EF1914208D91CEB020225
:100EA00005F1FF3816D2914214D9023D6244521A1C
:100EB00045EA004138E73146304608E73946E6E67C
:100EC0001046FBE64845A9D2B9EB020865EB0C0ECB
:100ED000013BA3E74546EAE72B4694E74046D1E7C6
:100EE000D0467BE7023D624432E708460AE76444A5
:100EF000023842E7704700BF80B582B000AF06F00D
:100F000043F800F095F900F02FFD00F003FD00F02C
:100F100091FA00F055FC00F059FB00F0B9FA00F02E
:100F2000A9FB00F017FC00F0E1F900F031FA0EF037
:100F3000C5FB0023032200217B480EF0E8F80C21BA
:100F40007A4808F0A5FD0021794808F0A1FD0421A8
:100F5000774808F09DFD3C21764809F037F9764B3B
:100F60001B789BB21A46754975480AF048FB7548CC
:100F700008F05CFC0421744808F0ACFE6B4B1B6865
:100F800091221A644FF4967006F040F86F4B642279
:100F90001A706E4B0A225A806D4B00221A706C4BED
:100FA00000225A706B4B1A78694B9A7000237B6051
:100FB0000CE064233B7000237B80654A7B689B00C8
:100FC00013443A685A607B6801337B60614B1B783D
:100FD0001A467B689342ECDB9FED5F1ADFED5F0AF8
:100FE0009FED5F0A5F4801F0CFFA9FED5B1ADFEDDE
:100FF0005B0A9FED5B0A5C4801F0C6FA9FED5B1A45
:10100000DFED5B0A9FED5B0A5B4801F0BDFA4A4BDE
:101010001B789BB21A46494949480AF0F0FA434BFB
:101020001B6891221A644FF4967005F0EFFF0BF0E5
:10103000C3FA524A002152480BF008FB0346514ABA
:101040001360514A002151480BF000FB0346504AFF
:101050001360504A002150480BF0F8FA03464F4AFB
:1010600013604F4A00214F480BF0F0FA03464E4AF6
:1010700013604E4A00214E480BF0E8FA03464D4AF1
:1010800013604D4A00214D480BF0E0FA03464C4AEC
:1010900013604C4A00214C480BF0D8FA03464B4AE7
:1010A00013604B4A00214B480BF0D0FA03464A4AE2
:1010B00013604A4A00214A480BF0C8FA0346494ADD
:1010C0001360494A002149480BF0C0FA0346484AD8
:1010D0001360484A002148480BF0B8FA0346474AD3
:1010E0001360474A002147480BF0B0FA0346464ACE
:1010F0001360464A002146480BF0A8FA0346454AC9
:101100001360454A002145480BF0A0FA0346444AC3
:101110001360444A002144480BF098FA0346434ABE
:1011200013600BF06DFAFEE750020020A4020020CD
:10113000C4030020EC020020000000208C040020EA
:101140000C0400207C03002034030020CC04002089
:101150009804002001000020CDCC4C3FEC51383DDC
:101160006666064018050020040500209A99993EFD
:10117000CDCC4C3DCDCC8C3F2C0500201C02010871
:101180006943000850040020400201087943000828
:101190005404002064020108F943000858040020A8
:1011A000880201084D4600085C040020AC020108DA
:1011B0007548000860040020D0020108814C000836
:1011C00064040020F402010899500008680400201B
:1011D00018030108A55400086C0400203C03010812
:1011E000B55800087004002060030108995F0008EA
:1011F0007404002084030108916000087804002032
:10120000A8030108D96100087C040020CC03010870
:10121000E962000880040020F0030108016500086D
:101220008404002014040108656600088804002076
:1012300080B594B000AF07F120033022002118469A
:101240000EF0FCFA07F10C0300221A605A609A6053
:10125000DA601A610023BB60224B1B6C214A43F009
:10126000805313641F4B1B6C03F08053BB60BB683F
:1012700000237B601C4B1B681B4A43F480431360B4
:10128000194B1B6803F480437B607B6802233B623D
:101290000123FB6210233B630023BB6307F12003A0
:1012A000184607F0E9FD0346002B01D005F0CCFA03
:1012B0000F23FB6000233B6100237B610023BB61A4
:1012C0000023FB6107F10C030021184608F04CF8DD
:1012D0000346002B01D005F0B7FA00BF5037BD46DA
:1012E00080BD00BF003802400070004080B584B06F
:1012F00000AF3B4600221A605A609A60DA60214BC8
:10130000214A1A601F4B00225A601E4B00229A602D
:101310001C4B00221A611B4B00221A76194B00222B
:1013200083F82020174B0022DA62164B174A9A6284
:10133000144B0022DA60134B0122DA61114B0022B8
:1013400083F830200F4B01225A610E4805F082FECF
:101350000346002B01D005F077FA0B233B600123F5
:101360007B600023BB603B461946064806F054F8F4
:101370000346002B01D005F067FA00BF1037BD46C9
:1013800080BD00BFC0010020002001400100000F0F
:1013900080B584B000AF3B4600221A605A609A6064
:1013A000DA60214B214A1A601F4B00225A601E4B03
:1013B00000229A601C4B00221A611B4B00221A76F5
:1013C000194B002283F82020174B0022DA62164BBB
:1013D000174A9A62144B0022DA60134B0122DA6139
:1013E000114B002283F830200F4B01225A610E4826
:1013F00005F030FE0346002B01D005F025FA0C2342
:101400003B6001237B600023BB603B4619460648D6
:1014100006F002F80346002B01D005F015FA00BFD4
:101420001037BD4680BD00BF0802002000210140EA
:101430000100000F80B500AF124B134A1A60114B28
:10144000124A5A600F4B00229A600E4B0022DA605B
:101450000C4B4FF480421A610A4B00225A61094B2F
:1014600000229A61074B0022DA61064B00221A62C1
:10147000044806F019FD0346002B01D005F0E4F9FD
:1014800000BF80BD5002002000540040A086010033
:1014900080B596B000AF07F1480300221A605A6089
:1014A0009A60DA6007F1400300221A605A6007F17F
:1014B000240300221A605A609A60DA601A615A6145
:1014C0009A613B1D2022002118460EF0B7F93D4BD2
:1014D0003D4A1A603B4BA0225A603A4B00229A6068
:1014E000384B4FF47A72DA60364B00221A61354B72
:1014F00000225A61334B80229A61324808F046F943
:101500000346002B01D005F09FF94FF48053BB64D4
:1015100007F1480319462B4809F04CF90346002B04
:1015200001D005F091F9274808F058FA0346002B3E
:1015300001D005F089F900233B6400237B6407F1A7
:10154000400319461F4809F099FE0346002B01D0BD
:1015500005F07AF960237B620023BB620023FB6203
:1015600000237B630023BB630023FB6307F1240399
:101570000C221946134809F05BF80346002B01D0F2
:1015800005F062F900237B600023BB600023FB6051
:1015900000233B6100237B614FF40053BB610023B8
:1015A0003B623B1D1946074809F0E4FE0346002B49
:1015B00001D005F049F9034805F054FB00BF583746
:1015C000BD4680BDA40200200000014080B58CB063
:1015D00000AF07F10C032422002118460EF02EF96B
:1015E0003B1D00221A605A60214B4FF080421A6066
:1015F0001F4B00225A601E4B00229A601C4B4FF674
:10160000FF72DA601A4B00221A61194B00229A61AC
:101610000323FB6000233B6101237B610023BB614B
:101620000A23FB6100233B6201237B620023BB6230
:101630000A23FB6207F10C0319460D4808F020FD50
:101640000346002B01D005F0FFF800237B60002348
:10165000BB603B1D1946064809F010FE0346002BEF
:1016600001D005F0F1F800BF3037BD4680BD00BFA6
:10167000EC02002080B58AB000AF07F11803002209
:101680001A605A609A60DA6007F1100300221A604B
:101690005A603B4600221A605A609A60DA602B4B0F
:1016A0002B4A1A60294B0F225A60284B00229A605D
:1016B000264B4FF6FF72DA60244B00221A61234B4F
:1016C00000229A61214808F061F80346002B01D0FE
:1016D00005F0BAF84FF48053BB6107F118031946BF
:1016E0001A4809F067F80346002B01D005F0ACF862
:1016F000164808F095FA0346002B01D005F0A4F82F
:1017000000233B6100237B6107F1100319460F485A
:1017100009F0B4FD0346002B01D005F095F80A232B
:101720003B6001237B600023BB600023FB603B46E2
:1017300004221946054808F0DFFE0346002B01D0BD
:1017400005F082F800BF2837BD4680BD3403002075
:101750000004004080B582B000AF3B4600221A6012
:101760005A60154B154A1A60134B0F225A60124BE0
:1017700000229A60104B4FF6FF72DA600E4B002287
:101780009A610D4808F002F80346002B01D005F0DD
:101790005BF800233B6000237B603B46194606480C
:1017A00009F06CFD0346002B01D005F04DF800BF99
:1017B0000837BD4680BD00BF7C03002000100040FC
:1017C00080B596B000AF07F1480300221A605A6056
:1017D0009A60DA6007F1400300221A605A6007F14C
:1017E000240300221A605A609A60DA601A615A6112
:1017F0009A613B1D2022002118460EF01FF8434B32
:10180000434A1A60414B00225A60404B00229A60C2
:101810003E4B41F61F42DA603C4B00221A613B4BC3
:1018200000225A61394B00229A61384807F0AEFF16
:101830000346002B01D005F007F84FF48053BB643A
:1018400007F148031946314808F0B4FF0346002B5E
:1018500001D004F0F9FF2D4808F0C0F80346002B32
:1018600001D004F0F1FF00233B6400237B6407F107
:1018700040031946254809F001FD0346002B01D01D
:1018800004F0E2FF60237B620023BB620023FB6263
:1018900000233B6300237B630023BB630023FB63C4
:1018A00007F1240300221946184808F0C1FE034638
:1018B000002B01D004F0C8FF07F1240304221946CD
:1018C000124808F0B5FE0346002B01D004F0BCFF1F
:1018D00000237B600023BB600023FB6000233B618F
:1018E00000237B614FF40053BB6100233B623B1D2F
:1018F0001946064809F03EFD0346002B01D004F0CE
:10190000A3FF00BF5837BD4680BD00BFC403002001
:101910000004014080B500AF114B124A1A60104B11
:101920004FF4E1325A600E4B00229A600C4B0022B9
:10193000DA600B4B00221A61094B0C225A61084BEA
:1019400000229A61064B0022DA61054809F078FD11
:101950000346002B01D004F077FF00BF80BD00BF1D
:101960000C0400200048004080B58AB000AF07F1A9
:10197000140300221A605A609A60DA601A61002328
:101980003B61384B1B6B374A43F010031363354BF5
:101990001B6B03F010033B613B690023FB60314B81
:1019A0001B6B304A43F0040313632E4B1B6B03F095
:1019B0000403FB60FB680023BB602A4B1B6B294AB6
:1019C00043F001031363274B1B6B03F00103BB6060
:1019D000BB6800237B60234B1B6B224A43F002034E
:1019E0001363204B1B6B03F002037B607B680022B8
:1019F0004FF45E611C4806F03DFA00223C211B4872
:101A000006F038FA4FF45E637B610123BB6100236B
:101A1000FB6100233B6207F114031946124806F0EC
:101A20008DF80C237B610123BB610023FB61022342
:101A30003B6207F1140319460C4806F07FF8302387
:101A40007B610123BB610023FB6100233B6207F143
:101A500014031946054806F071F800BF2837BD4643
:101A600080BD00BF0038024000100240000002406C
:101A700080B582B000AF78607B681B7F022B40F09E
:101A80008C804B4B1B78002B1AD10421786808F00E
:101A900059FF0346474A1360454B01221A707B6881
:101AA0001B681A6A7B681B6822F0A0021A627B68B6
:101AB0001B681A6A7B681B6842F020021A626CE09D
:101AC0003B4B1B78012B68D10421786808F03AFF62
:101AD0000346394A13607B681B6800225A62364B02
:101AE0001A68344B1B689A420CD9334B1A68314B35
:101AF0001B68D31A07EE903AF8EE677A2F4BC3EDC6
:101B0000007A14E02B4B1A682B4B1B689A420ED9B3
:101B1000294B1A68274B1B68D31A03F57F43FF3301
:101B200007EE903AF8EE677A244BC3ED007A234B28
:101B30001B681846FEF700FD1BA3D3E90023FEF740
:101B400053FD02460B46104619464FF000024FF077
:101B50008043FEF773FE02460B4610461946FEF719
:101B6000FDFF0346154A1360114B00221A707B6873
:101B70001B681A6A7B681B6822F0A0021A627B68E5
:101B80001A687B681B68126A1A620D4B1B68DA6858
:101B90000B4B1B6822F00402DA6000BF0837BD4619
:101BA00080BD00BFAFF300809CC420B07268A13F2D
:101BB00060050020580500205C0500205405002029
:101BC0003403002080B584B000AF7860954B9B78DB
:101BD000A3F1300213469B0013445B001A46914B5D
:101BE000DB78303B1344FB608E4B1B792F2B0ED9D7
:101BF0008C4B1B79392B0AD8FA6813469B00134487
:101C00005B001A46874B1B79303B1344FB60864BC5
:101C100000221A70834B1B78532B5BD1814B5B786E
:101C2000542B57D1814B1B6800225A637F4B1B6892
:101C300000229A637E4B1A787E4B1A707C4B1122DD
:101C40001A707D4B4FF000021A607C4B00221A8004
:101C50007B4800F0BAFC7B4800F0B7FC7A4800F003
:101C6000B4FC7A4B00221A80794B1A78784B5B7857
:101C70009A4213D1774B64221A70764B00225A8015
:101C8000754A0F2175480DF0A5FD4FF6FF7306222A
:101C90007349744809F021FC00F039BC6C4B5B7847
:101CA0006C4A6B499B000B445B681360684B5B7824
:101CB0000133674A927893FBF2F101FB02F29B1A1F
:101CC000DAB2634B5A70684A0F2164480DF082FD06
:101CD00000F01DBC534B1B78522B61D1514B5B78EC
:101CE000532B5DD1514B1B6800225A634F4B1B682D
:101CF00000229A634E4B1A784E4B1A704C4B1122AD
:101D00001A704D4B4FF000021A604C4B00221A80A3
:101D1000564B1B6891221A644FF4967005F076F9C1
:101D2000474800F052FC474800F04FFC464800F09E
:101D30004CFC464B00221A80454B1A78444B5B788A
:101D40009A4212D1434B64221A70424B00225A80AD
:101D5000414A0F2141480DF03DFD4FF6FF73062229
:101D60003F49404809F0B9FBD1E3394B5B78394A28
:101D700037499B000B445B681360354B5B7801333C
:101D8000334A927893FBF2F101FB02F29B1ADAB22A
:101D90002F4B5A70344A0F2130480DF01BFDB6E32B
:101DA000204B1B78462B65D11E4B5B78572B03D0FD
:101DB0001C4B5B78532B5DD11A4B9B782D2B05D197
:101DC000184BDB782D2B01D1012300E00023DAB280
:101DD000154B1A70134B5B78532B14BF0123002350
:101DE000DBB21A46224B1A70194B1B78184A9B001B
:101DF000134401221A71164B1B78FA6891B2144AE7
:101E00009B0013440A46DA80114B1B780133104AB9
:101E1000927893FBF2F101FB02F29B1ADAB20C4BBF
:101E20001A7074E38C040020E0040020C403002036
:101E30003401002035010020E8040020EE040020D9
:101E400018050020040500202C050020FC040020BB
:101E500098040020CC040020EC010108D0040020EC
:101E6000F40101080C040020FC010108A402002078
:101E700036010020964B1B78422B3DD1944B5B786A
:101E8000572B03D0924B5B78532B35D1904B9B78DB
:101E90002D2B05D18E4BDB782D2B01D1012300E0BA
:101EA0000023DAB28B4B1A70894B5B78532B14BF2B
:101EB00001230023DBB21A46874B1A70874B1B782D
:101EC000864A9B00134402221A71844B1B78FA68DD
:101ED00091B2824A9B0013440A46DA807F4B1B78FA
:101EE00001337E4A927893FBF2F101FB02F29B1AD6
:101EF000DAB27A4B1A700AE3754B1B78462B36D14F
:101F0000734B5B784C2B32D1714B9B782D2B05D1C9
:101F10006F4BDB782D2B01D1012300E00023DAB2D7
:101F20006C4B1A706B4B1B78002B01D0032100E027
:101F300007216A4B1B78694A9B0013440A461A71B1
:101F4000664B1B78FA6891B2644A9B0013440A46B8
:101F5000DA80624B1B780133604A927893FBF2F18E
:101F600001FB02F29B1ADAB25C4B1A70CFE2584BBB
:101F70001B78462B36D1564B5B78522B32D1544BC3
:101F80009B782D2B05D1524BDB782D2B01D10123D2
:101F900000E00023DAB24F4B1A704E4B1B78002B37
:101FA00001D0042100E008214C4B1B784B4A9B00D8
:101FB00013440A461A71494B1B78FA6891B2474A92
:101FC0009B0013440A46DA80444B1B780133434A92
:101FD000927893FBF2F101FB02F29B1ADAB23F4BCB
:101FE0001A7094E23A4B1B78422B36D1384B5B780F
:101FF0004C2B32D1364B9B782D2B05D1344BDB78D3
:102000002D2B01D1012300E00023DAB2314B1A70ED
:10201000304B1B78002B01D0052100E009212F4B0C
:102020001B782E4A9B0013440A461A712B4B1B78CF
:10203000FA6891B2294A9B0013440A46DA80274B7A
:102040001B780133254A927893FBF2F101FB02F2EF
:102050009B1ADAB2214B1A7059E21D4B1B78422BA6
:102060003ED11B4B5B78522B3AD1194B9B782D2BD1
:1020700005D1174BDB782D2B01D1012300E0002384
:10208000DAB2144B1A70134B1B78002B01D00621C7
:1020900000E00A21114B1B78104A9B0013440A46AA
:1020A0001A710E4B1B78FA6891B20C4A9B001344CC
:1020B0000A46DA80094B1B780133084A927893FB71
:1020C000F2F101FB02F29B1ADAB2044B1A701EE223
:1020D0008C040020E0040020360100209804002039
:1020E000974B1B78542B21D1954B5B784C2B1DD1F2
:1020F000944B1B78934A9B0013440B221A71914B0B
:102100001B78FA6891B28F4A9B0013440A46DA8022
:102110008C4B1B7801338B4A927893FBF2F101FBD5
:1021200002F29B1ADAB2874B1A70F0E1844B1B78EB
:10213000542B21D1824B5B78522B1DD1814B1B78C4
:10214000804A9B0013440C221A717E4B1B78FA685C
:1021500091B27C4A9B0013440A46DA80794B1B7883
:102160000133784A927893FBF2F101FB02F29B1A59
:10217000DAB2744B1A70CAE1714B1B78442B21D12F
:102180006F4B5B78542B1DD16E4B1B786D4A9B00B7
:1021900013440E221A716B4B1B78FA6891B2694A8C
:1021A0009B0013440A46DA80664B1B780133654A6C
:1021B000927893FBF2F101FB02F29B1ADAB2614BC7
:1021C0001A70A4E15E4B1B78542B21D15C4B5B78D9
:1021D000442B1DD15B4B1B785A4A9B0013440F22A2
:1021E0001A71584B1B78FA6891B2564A9B001344F7
:1021F0000A46DA80534B1B780133524A927893FB9C
:10220000F2F101FB02F29B1ADAB24E4B1A707EE138
:102210004B4B1B78462B21D1494B5B78412B1DD171
:10222000484B1B78474A9B00134458221A71454B70
:102230001B78FA6891B2434A9B0013440A46DA803D
:10224000404B1B7801333F4A927893FBF2F101FB3C
:1022500002F29B1ADAB23B4B1A7058E1384B1B78EA
:10226000462B21D1364B5B78432B1DD1354B1B7848
:10227000344A9B00134459221A71324B1B78FA6876
:1022800091B2304A9B0013440A46DA802D4B1B78EA
:1022900001332C4A927893FBF2F101FB02F29B1A74
:1022A000DAB2284B1A7032E1254B1B78422B21D130
:1022B000234B5B78412B1DD1224B1B78214A9B007D
:1022C00013445A221A711F4B1B78FA6891B21D4AA7
:1022D0009B0013440A46DA801A4B1B780133194AD3
:1022E000927893FBF2F101FB02F29B1ADAB2154BE2
:1022F0001A700CE1124B1B78422B25D1104B5B78E6
:10230000432B21D10F4B1B780E4A9B0013445B22B9
:102310001A710C4B1B78FA6891B20A4A9B0013445D
:102320000A46DA80074B1B780133064A927893FB02
:10233000F2F101FB02F29B1ADAB2024B1A70E6E0EC
:102340008C04002098040020884B1B78542B21D14A
:10235000864B5B78412B1DD1854B1B78844A9B00B3
:1023600013445C221A71824B1B78FA6891B2804A3E
:102370009B0013440A46DA807D4B1B7801337C4A6C
:10238000927893FBF2F101FB02F29B1ADAB2784BDE
:102390001A70BCE0754B1B78492B21D1734B5B78CD
:1023A000522B1DD1724B1B78714A9B0013445D2246
:1023B0001A716F4B1B78FA6891B26D4A9B001344F7
:1023C0000A46DA806A4B1B780133694A927893FB9C
:1023D000F2F101FB02F29B1ADAB2654B1A7096E039
:1023E000624B1B78492B21D1604B5B78432B1DD16D
:1023F0005F4B1B785E4A9B0013445E221A715C4B54
:102400001B78FA6891B25A4A9B0013440A46DA8054
:10241000574B1B780133564A927893FBF2F101FB3C
:1024200002F29B1ADAB2524B1A7070E04F4B1B78D3
:10243000542B21D14D4B5B78422B1DD14C4B1B783B
:102440004B4A9B0013445F221A71494B1B78FA6870
:1024500091B2474A9B0013440A46DA80444B1B78EA
:102460000133434A927893FBF2F101FB02F29B1A8B
:10247000DAB23F4B1A704AE03C4B1B78472B21D114
:102480003A4B5B78482B1DD1394B1B78384A9B005F
:10249000134460221A71364B1B78FA6891B2344AA1
:1024A0009B0013440A46DA80314B1B780133304AD3
:1024B000927893FBF2F101FB02F29B1ADAB22C4BF9
:1024C0001A7024E0294B1B78412B20D1274B5B78D5
:1024D0004D2B1CD1264B1B78254A9B0013446122AF
:1024E0001A71234B1B78FA6891B2214A9B0013445E
:1024F0000A46DA801E4B1B7801331D4A927893FB03
:10250000F2F101FB02F29B1ADAB2194B1A70184B66
:102510001A78174B5B789A4219D0154B5B78154A9D
:1025200013499B000B445B681360114B5B780133CC
:102530000F4A927893FBF2F101FB02F29B1ADAB296
:102540000B4B5A700C4A0F210C480DF043F90C4B01
:102550001B685B680B4B1B789BB21A460349084803
:1025600009F04DF800BF1037BD4680BD8C04002037
:1025700098040020CC040020FC010108D0040020B5
:102580000C0400200000002080B485B000AFF8608B
:1025900087ED020AC7ED010A87ED001AFB68BA68E9
:1025A0001A60FB687A685A60FB683A689A60FB6850
:1025B0004FF00002DA60FB684FF000021A6100BFC2
:1025C0001437BD465DF8047B704780B483B000AF1C
:1025D00078607B684FF00002DA607B684FF00002A1
:1025E0001A6100BF0C37BD465DF8047B70470000E0
:1025F00080B500AF00224FF400611A4805F03AFCA4
:10260000194B1B6800225A62174B1B685B6A312BFF
:10261000FAD901224FF40061124805F02BFC124B4D
:102620001B6800225A62104B1B685B6A092BFAD99F
:1026300000224FF400610B4805F01CFC0A4B1B689C
:1026400000225A62084B1B685B6A312BFAD9074B90
:102650001B68DA68054B1B6842F00402DA6000BFB1
:1026600080BD00BF001002407C0300203403002026
:1026700080B586B004AF0346FB714FF6FF7302933B
:1026800002230193A94B009301233722D021A848AC
:1026900005F048FEA54B1B781B021AB2A34B5B78D2
:1026A0001BB213431AB2A34B1A80A34B1B681B68BF
:1026B00003F01003102B0CBF01230023DBB25AB22E
:1026C0009E4B1A709B4BB3F9003013F1040F04DBDF
:1026D000984BB3F900300B2B07DD964BB3F9003064
:1026E00007EE903AF8EEE77A01E0DFED957A954B48
:1026F00093ED007A77EE877A924BC3ED007AFB79FF
:10270000002B64D1904B93ED007A8E4BD3ED007A81
:1027100027EE277A8C4BD3ED016A8B4BD3ED047AED
:1027200066EEA77A37EE277A874BD3ED026A864B9F
:1027300093ED036A834BD3ED007A76EE677A66EE0B
:10274000A77A77EE277AFDEEE77A17EE902A7F4B8D
:102750001A607C4B1B687C4AD3607B4B93ED047AF8
:10276000784BD3ED007A77EE277A774BC3ED047A76
:10277000764B1B68B3F5167F06DC744B1B68744AF6
:102780009342B8BF134601E04FF416736F4A1360CB
:102790006A4B93F900309AB26C4B1B689BB212FBE8
:1027A00003F39BB203F596639AB26A4B1A80634BAC
:1027B00093F900309AB2654B1B689BB212FB03F38E
:1027C0009BB2C3F596639AB2634B1A80EFE0FB7934
:1027D000022B65D1614B93ED007A5A4BD3ED007A11
:1027E00027EE277A5D4BD3ED016A5C4BD3ED047A7B
:1027F00066EEA77A37EE277A584BD3ED026A574B2D
:1028000093ED036A4F4BD3ED007A76EE677A66EE6E
:10281000A77A77EE277AFDEEE77A17EE902A4B4BF0
:102820001A60484B1B684D4AD3604C4B93ED047AB9
:10283000444BD3ED007A77EE277A484BC3ED047A08
:10284000424B1B68B3F52F7F06DC404B1B68444AA4
:102850009342B8BF134601E04FF42F733B4A136015
:10286000364B93F900309AB2384B1B689BB212FB7F
:1028700003F39BB203F6B8339AB2364B1A802F4B50
:1028800093F900309AB2314B1B689BB212FB03F3F1
:102890009BB2C3F53B6308339AB22F4B1A8086E094
:1028A000FB79012B40F083802E4B93ED007A254B72
:1028B000D3ED007A27EE277A2A4BD3ED016A294B14
:1028C000D3ED047A66EEA77A37EE277A254BD3ED5F
:1028D000026A244B93ED036A1A4BD3ED007A76EE2D
:1028E000677A66EEA77A77EE277AFDEEE77A17EE3B
:1028F000902A164B1A60134B1B681A4AD360194B67
:1029000093ED047A0F4BD3ED007A77EE277A154BCF
:10291000C3ED047A0D4B1B68B3F52F7F24DC0B4B02
:102920001B680F4A9342B8BF13461FE0EC04002017
:1029300050020020EE040020EC02002040010020A4
:1029400000000000E80400201805002068050020B1
:10295000A8FDFFFFF0040020F20400202C05002059
:1029600044FDFFFF040500204FF42F73174A136046
:10297000174B93F900309AB2144B1B689BB212FBB1
:1029800003F39BB203F6FC039AB2124B1A80104B6E
:1029900093F900309AB20D4B1B689BB212FB03F304
:1029A0009BB2C3F50F630C339AB20B4B1A80094BE1
:1029B0001A880A4B1B685A63074B1A88074B1B6817
:1029C0009A6300BF0837BD4680BD00BF6805002080
:1029D00040010020F0040020F2040020C403002085
:1029E00080B584B000AF78600B46FB701346BB70B7
:1029F000A14B4FF000021A60A04B00221A80A048A1
:102A0000FFF7E3FD9F48FFF7E0FD9F48FFF7DDFD7F
:102A10009E4B00221A809E4B00221A807B681B6806
:102A20001846FDF789FD8EA3D3E90023FDF7DCFDF1
:102A300002460B46104619468BA3D3E90023FDF747
:102A40001BFC02460B46104619464FF00002914B04
:102A5000FDF7F4FE02460B46104619464FF0000201
:102A60008D4BFDF7C1FD02460B46104619464FF04F
:102A700000028A4BFDF700FC02460B461046194641
:102A8000FEF74CF803469AB2854B1A8004F0B2FA6E
:102A90000346844A1360FB78002B0CBF01230023FC
:102AA000DBB21A460421804805F0E4F9FB78002BDC
:102AB00014BF01230023DBB21A4608217A4805F02F
:102AC000D9F9FB78002B0CBF01230023DBB21A4697
:102AD0002021754805F0CEF9FB78002B14BF0123A7
:102AE0000023DBB21A4610216F4805F0C3F96F4B83
:102AF0001B685B6A9AB26E4B1A806C4B1B685B6AF0
:102B0000FB606A4B1B681B6803F01003102B17D186
:102B1000674B1B881A46FB68934206D8644B1A8899
:102B2000FB689BB2D31A9BB207E0614B1A88FB6823
:102B30009BB2D31A9BB2013B9BB2554A138016E05D
:102B40005B4B1B881A46FB68934206D3FB689AB21C
:102B5000574B1B88D31A9BB207E0FB689AB2544BC1
:102B60001B88D31A9BB2013B9BB2494A1380FB6876
:102B70009AB24F4B1A80454B1A88454B1B88134419
:102B80009AB2424B1A80414B1A88454B1B889A4295
:102B900080F0A58004F02EFA0246424B1B68D31A3F
:102BA000092BAAD9BB78002B03D10020FFF760FDC9
:102BB0008FE0364B1B881A46394B1B88D31A002BE3
:102BC000B8BF5B423B4A82FB0312D211DB17D31A18
:102BD00007EE903AF8EEE77A374BC3ED007ABB7810
:102BE000012B1ED1344BD3ED007AB7EE007AF4EE10
:102BF000C77AF1EE10FA02DD4FF07E530EE02E4B55
:102C0000D3ED007AB6EE087AF4EEC77AF1EE10FA58
:102C100002D54FF07D5301E0274B1B68264A136015
:102C200052E0BB78022B4FD1234BD3ED007AB7EEA5
:102C3000007AF4EEC77AF1EE10FA02DD4FF07E531F
:102C400040E01D4B1B681846FDF776FC08A3D3E94E
:102C50000023FDF73BFF0346002B31D0174B31E03B
:102C60002AB266FCAC66F23FF82625BBD4E3EE3F01
:102C70009A9999999999D93FE8040020EE04002087
:102C800018050020040500202C050020FC0400206D
:102C9000000500200000344000A0944000002440C3
:102CA000FE040020F404002000000240EC0200209A
:102CB000020500206757192138010020CDCCCC3EF9
:102CC0000D4B1B680C4A1360BB780B49184600F08B
:102CD00063F904F08FF90346084A13600DE700BF5B
:102CE000074B1B6800225A63054B1B6800229A633E
:102CF00000BF1037BD4680BD38010020F40400201D
:102D0000C40300200000000080B584B000AF7860EC
:102D10000B46FB701346BB708F4B4FF000021A60DE
:102D20008E4B00221A808E48FFF74FFC8D48FFF72C
:102D30004CFC8D48FFF749FC8C4B00221A808C4BD1
:102D400000221A8004F056F903468A4A1360FB7881
:102D5000002B0CBF01230023DBB21A460421864856
:102D600005F088F8FB78002B14BF01230023DBB2A9
:102D70001A460821804805F07DF8FB78002B0CBF2F
:102D800001230023DBB21A4620217B4805F072F8AC
:102D9000FB78002B14BF01230023DBB21A4610215D
:102DA000754805F067F8754B1B685B6A9AB2744BFF
:102DB0001A80724B1B685B6AFB60704B1B681B6858
:102DC00003F01003102B17D16D4B1B881A46FB68BC
:102DD000934206D86A4B1A88FB689BB2D31A9BB2FF
:102DE00007E0674B1A88FB689BB2D31A9BB2013B82
:102DF0009BB25F4A138016E0614B1B881A46FB6842
:102E0000934206D3FB689AB25D4B1B88D31A9BB2E0
:102E100007E0FB689AB25A4B1B88D31A9BB2013B5E
:102E20009BB2534A1380FB689AB2554B1A804F4BA2
:102E30001A884F4B1B8813449AB24C4B1A804B4B49
:102E40001B881A467B68934274D904F0D3F8024673
:102E5000484B1B68D31A092BABD9BB78002B03D185
:102E60000020FFF705FC5FE0404B1B881A46454BEE
:102E70001B88D31A002BB8BF5B42434A82FB031264
:102E8000D211DB17D31A07EE903AF8EEE77A3F4BF0
:102E9000C3ED007ABB78012B1ED13C4BD3ED007AF9
:102EA000B7EE007AF4EEC77AF1EE10FA02DD4FF0D9
:102EB0007E530EE0354BD3ED007AB6EE087AF4EE91
:102EC000C77AF1EE10FA02D54FF07D5301E02F4B97
:102ED0001B682E4A136022E0BB78022B1FD12B4BBC
:102EE000D3ED007AB7EE007AF4EEC77AF1EE10FA7D
:102EF00002DD4FF07E5310E0244B1B681846FDF7AF
:102F00001BFB13A3D3E90023FDF7E0FD0346002BD1
:102F100001D01F4B01E01D4B1B681C4A1360BB789E
:102F20001A49184600F038F804F064F80346114ACC
:102F300013603EE700BF174B1B6800225A63154B16
:102F40001B6800229A6300BF1037BD4680BD00BFDA
:102F50009A9999999999D93FE8040020EE040020A4
:102F600018050020040500202C050020FC0400208A
:102F700000050020F404002000000240EC020020C4
:102F800002050020FE0400206757192138010020A7
:102F9000CDCCCC3EC403002080B586B004AF034640
:102FA0003960FB714FF6FF730293022301939B4B31
:102FB000009301233722D021994805F0B3F9974BAC
:102FC0001B781B021AB2954B5B781BB213431AB2E3
:102FD000944B1A80944B1B681B6803F01003102B52
:102FE00001D1012201E04FF0FF32904B1A708D4B5E
:102FF000B3F9003013F1040F04DB8A4BB3F900304E
:103000000B2B07DD874BB3F9003007EE903AF8EE53
:10301000E77A01E0DFED867A864B93ED007A77EE72
:10302000877A844BC3ED007AFB79012B65D1824B03
:1030300093ED007A7F4BD3ED007A27EE277A7E4B13
:10304000D3ED016A7C4BD3ED047A66EEA77A37EEB6
:10305000277A794BD3ED026A774B93ED036A754B70
:10306000D3ED007A76EE677A66EEA77A77EE277A66
:10307000FDEEE77A17EE902A704B1A606D4B1B68D5
:103080006D4AD3606C4B93ED047A6A4BD3ED007AB2
:1030900077EE277A684BC3ED047A684B1B68B3F56B
:1030A0002F7F06DC654B1B68654A9342B8BF134609
:1030B00001E04FF42F73614A13605C4B93F90030C9
:1030C0009AB25E4B1B689BB212FB03F39BB203F6F2
:1030D000FC039AB25B4B1A80544B93F900309AB2BE
:1030E000564B1B689BB212FB03F39BB2C3F50F63F5
:1030F0000C339AB2544B1A8067E0FB79022B64D1EF
:10310000524B93ED007A4B4BD3ED007A27EE277AA2
:103110004E4BD3ED016A4D4BD3ED047A66EEA77AA0
:1031200037EE277A494BD3ED026A484B93ED036A99
:10313000404BD3ED007A76EE677A66EEA77A77EEAB
:10314000277AFDEEE77A17EE902A3C4B1A60394B4E
:103150001B683E4AD3603D4B93ED047A354BD3ED6B
:10316000007A77EE277A394BC3ED047A334B1B682C
:10317000B3F52F7F06DC314B1B68314A9342B8BF51
:10318000134601E04FF42F732C4A1360274B93F939
:1031900000309AB2294B1B689BB212FB03F39BB21F
:1031A00003F6B8339AB2274B1A80204B93F90030BC
:1031B0009AB2224B1B689BB212FB03F39BB2C3F57E
:1031C0003B6308339AB2204B1A801E4B1B8807EED4
:1031D000903AB8EEE77A3B68D3ED007A67EE277A4B
:1031E0001B4B1B68FCEEE77A17EE902A5A63164BCE
:1031F0001B8807EE903AB8EEE77A3B68D3ED007A89
:1032000067EE277A124B1B68FCEEE77A17EE902ADE
:103210009A6300BF0837BD4680BD00BFEC040020A4
:1032200050020020EE040020EC02002040010020AB
:1032300000000000E80400200405002068050020CC
:1032400044FDFFFFF0040020F20400202C050020C4
:10325000C403002000000000B0B586B004AF786061
:103260004B4B4FF000021A604A4B00221A8003F0C9
:10327000C1FE0346484A136003F0BCFE0246464BBB
:103280001B68D31A092BF7D94FF6FF730293022359
:103290000193424B009301233722D021404805F08F
:1032A00041F83E4B1B781B021AB23C4B5B781BB2B9
:1032B00013431AB2374B1A80354B1B681846FDF77B
:1032C0003BF904460D46334BB3F900301846FDF781
:1032D00021F92BA3D3E90023FDF7B0FA02460B46F0
:1032E0001046194628A3D3E90023FDF77DF90246CD
:1032F0000B4620462946FCF7C1FF02460B46104606
:103300001946FDF72BFC0346214A1360204B93ED31
:10331000007A7B68D3ED007A77EE677AFDEEE77A84
:1033200017EE903A002B0DDB194B93ED007A7B687A
:10333000D3ED007A77EE677AFDEEE77A17EE903AF2
:10334000002B05DD03F056FE0346134A136093E796
:1033500000BF144B1B6800225A63124B1B680022EB
:103360009A63114B1B6891221A644FF4967003F014
:103370004DFE00BF0837BD46B0BD00BFAFF30080B3
:1033800066666666666630407B14AE47E17A843FC7
:10339000E8040020EE040020F4040020EC040020E7
:1033A00050020020C4030020A402002000000000FE
:1033B00080B584B000AF78600B46FB70BE4B4FF019
:1033C00000021A60BD4B00221A80BD48FFF7FDF8CD
:1033D000BC48FFF7FAF8BC48FFF7F7F8BB4BBC4A0C
:1033E0001A600421BB4806F075FC03F003FE034697
:1033F000B94A13600023FB600023BB60FFF7F8F8B5
:103400000A2009F0B5F97B6893ED007AAF4BD3ED54
:10341000007A77EE677AFDEEE77A17EE903AB3F12D
:10342000FF3F0EDB7B6893ED007AA84BD3ED007A6B
:1034300077EE677AFDEEE77A17EE903A012B40F3CC
:1034400055817B6893ED007AA04BD3ED007AB4EE02
:10345000E77AF1EE10FA94BF01230023DBB283F088
:103460000103DBB2DBB21A4604219C4804F002FDE2
:103470007B6893ED007A954BD3ED007AB4EEE77A52
:10348000F1EE10FA94BF01230023DBB21A460821A3
:10349000924804F0EFFC7B6893ED007A8B4BD3ED00
:1034A000007AB4EEE77AF1EE10FA94BF012300231C
:1034B000DBB283F00103DBB2DBB21A46202187487E
:1034C00004F0D8FC7B6893ED007A804BD3ED007A52
:1034D000B4EEE77AF1EE10FA94BF01230023DBB2D9
:1034E0001A4610217D4804F0C5FC03F083FD024616
:1034F000794B1B68D31A132B80D9FB78012B66D12B
:10350000724B93ED007A7B68D3ED007A77EE677AA1
:10351000FDEEE77A17EE903A002BB8BF5B42704A97
:1035200082FB03121A44D210DB17D31A07EE903A2B
:10353000F8EEE77A6B4BC3ED007A6A4BD3ED007A75
:10354000B7EE007AF4EEC77AF1EE10FA02DD4FF032
:103550007E530EE0634BD3ED007AB6EE087AF4EEBC
:10356000C77AF1EE10FA02D54FF07D5301E05D4BC2
:103570001B685C4A13607B6893ED007A534BD3ED74
:10358000007A77EE677AFDEEE77A17EE903A13F15C
:10359000050F17DB7B6893ED007A4C4BD3ED007A77
:1035A00077EE677AFDEEE77A17EE903A052B09DCA5
:1035B0004C4BD3ED007AB6EE087A67EE877A494B2A
:1035C000C3ED007A47490120FFF7E6FC67E03F4B77
:1035D00093ED007A7B68D3ED007A77EE677AFDEEA3
:1035E000E77A17EE903A002BB8BF5B423C4A82FB69
:1035F00003121A44D210DB17D31A07EE903AF8EEF2
:10360000E77A384BC3ED007A364BD3ED007AB7EE4C
:10361000007AF4EEC77AF1EE10FA02DD4FF07E5335
:1036200010E0304B1B681846FCF786FF20A3D3E957
:103630000023FDF74BFA0346002B01D02A4B01E093
:10364000284B1B68274A13607B6893ED007A1F4B59
:10365000D3ED007A77EE677AFDEEE77A17EE903ACF
:1036600013F1050F17DB7B6893ED007A174BD3ED51
:10367000007A77EE677AFDEEE77A17EE903A052B3F
:1036800009DC184BD3ED007AB6EE087A67EE877A3C
:10369000144BC3ED007A13490220FFF77DFC03F0C1
:1036A000A9FC03460C4A1360A8E600BFAFF30080F4
:1036B0009A9999999999D93FE8040020EE0400203D
:1036C00018050020040500202C05002054050020CA
:1036D00000007A4434030020F4040020000002407B
:1036E0008988888838010020CDCCCC3E00BF084BAB
:1036F0001B6800225A63064B1B6800229A63042150
:10370000044806F00FFC00BF1037BD4680BD00BF67
:10371000C40300203403002080B584B000AFF860FB
:10372000B9601346FB71A04B4FF000021A609F4B2B
:1037300000221A809E48FEF748FF9E48FEF745FF8C
:103740009D48FEF742FF9D4B9D4A1A6004219D480B
:1037500006F0C0FA03F04EFC03469B4A13609B4BF5
:1037600000221A800023FB60FEF742FF0A2008F0C7
:10377000FFFFBB6893ED007A904BD3ED007A77EEB4
:10378000677AFDEEE77A17EE903A002B0EDBBB6806
:1037900093ED007A894BD3ED007A77EE677AFDEEF0
:1037A000E77A17EE903A002B40F3E680BB6893ED82
:1037B000007A824BD3ED007AB4EEE77AF1EE10FA9C
:1037C00094BF01230023DBB283F00103DBB2DBB241
:1037D0001A4604217E4804F04DFBBB6893ED007A45
:1037E000764BD3ED007AB4EEE77AF1EE10FA94BF9F
:1037F00001230023DBB21A460821754804F03AFB86
:10380000BB6893ED007A6D4BD3ED007AB4EEE77AA6
:10381000F1EE10FA94BF01230023DBB283F0010321
:10382000DBB2DBB21A462021694804F023FBBB68F7
:1038300093ED007A614BD3ED007AB4EEE77AF1EEC6
:1038400010FA94BF01230023DBB21A46102160480E
:1038500004F010FB03F0CEFB02465B4B1B68D31A4F
:10386000132B81D9FB79012B3FD1544B93ED007A77
:10387000BB68D3ED007A77EE677AFDEEE77A17EE54
:10388000903A002BB8BF5B42524A82FB03121A44A3
:10389000D210DB17D31A07EE903AF8EEE77A4E4BC8
:1038A000C3ED007A4C4BD3ED007AB7EE007AF4EE1C
:1038B000C77AF1EE10FA02DD4FF07E530EE0464B70
:1038C000D3ED007AB6EE087AF4EEC77AF1EE10FA8C
:1038D00002D54FF07D5301E03F4B1B683E4A136019
:1038E0003D490120FFF758FB40E0344B93ED007A4F
:1038F000BB68D3ED007A77EE677AFDEEE77A17EED4
:10390000903A002BB8BF5B42324A82FB03121A4442
:10391000D210DB17D31A07EE903AF8EEE77A2E4B67
:10392000C3ED007A2C4BD3ED007AB7EE007AF4EEBB
:10393000C77AF1EE10FA02DD4FF07E5310E0264B0D
:103940001B681846FCF7F8FD15A3D3E90023FDF723
:10395000BDF80346002B01D0204B01E01E4B1B6835
:103960001D4A13601C490220FFF716FB03F042FBBF
:103970000346154A1360F7E600BF194B1B68002287
:103980005A63174B1B6800229A6304210D4806F006
:10399000C9FA00BF1037BD4680BD00BFAFF300803D
:1039A0009A9999999999D93FE8040020EE0400204A
:1039B00018050020040500202C05002054050020D7
:1039C00000007A4434030020F40400204005002065
:1039D000000002408988888838010020CDCCCC3E88
:1039E000C40300200000000080B584B002AF7860FE
:1039F000AD48FEF7EAFDAD48FEF7E7FDAC48FEF73F
:103A0000E4FDAC4B00221A70AB4B00221A70AB4B9A
:103A10004FF000021A60AA4B00221A8003F0EAFA63
:103A20000346A84A13607B68002B00F09480A648E8
:103A300003F054FB1421A44803F055FCA24803F002
:103A4000DDFC0246A14B1B681344A04A1360A04B47
:103A50001B885A1C9F4B83FB02135910D317C91A9A
:103A60000B469B000B44D11A8AB2994B1A80984B93
:103A70001B88042B2CD1954B1B68954A1288B3FBED
:103A8000F2F31846FCF736FD7FA3D3E90023FCF7D9
:103A9000F3FB02460B46104619467DA3D3E90023EB
:103AA000FCF7CCFE02460B4610461946FDF736F8E9
:103AB0000346DAB27F4B1A70844B1B68844A128823
:103AC000B3FBF2F39AB2844B1A80804B00221A6047
:103AD000142008F04DFE774B1B78232B2ED803F0D3
:103AE00089FA0246774B1B68D31A092B9FD9714B71
:103AF0001B781A460C2300930523002100200BF0AD
:103B00003DFD00220421754804F0B4F9012208218A
:103B1000724804F0AFF900222021704804F0AAF99D
:103B2000012210216D4804F0A5F90120FEF7A0FD47
:103B300003F060FA0346634A136078E700BF684BFE
:103B40001B6800225A63664B1B6800229A635E481A
:103B500003F096FB92E0634803F0C0FA1421614839
:103B600003F0C1FB5F4803F049FC02465E4B1B6853
:103B700013445D4A13605D4B1B885A1C554B83FBF5
:103B800002135910D317C91A0B469B000B44D11AC4
:103B90008AB2564B1A80554B1B88042B2CD1524BA2
:103BA0001B68524A1288B3FBF2F31846FCF7A2FCDA
:103BB00039A3D3E90023FCF75FFB02460B4610460E
:103BC000194637A3D3E90023FCF738FE02460B461B
:103BD00010461946FCF7A2FF0346DAB2364B1A70BC
:103BE000414B1B68414A1288B3FBF2F39AB2404B37
:103BF0001A803D4B00221A60142008F0B9FD2E4BAC
:103C00001B78232B2ED803F0F5F902462D4B1B68A9
:103C1000D31A092B9FD9284B1B781A460C230093E3
:103C20000523002100200BF0A9FC002204212B48D1
:103C300004F020F901220821284804F01BF9002291
:103C40002021264804F016F901221021234804F00F
:103C500011F90120FEF70CFD03F0CCF90346194AD7
:103C6000136078E700BF1E4B1B6800225A631C4B91
:103C70001B6800229A631B4803F002FB00BF083751
:103C8000BD4680BDAFF30080B21188D7F55CAA4075
:103C9000C6C4E6E3DA984FC070B6B931FDA8A940B2
:103CA000EE3D5C72DC594EC0180500200405002072
:103CB0002C0500204705002046050020E8040020D0
:103CC000EE040020F4040020C00100204C05002078
:103CD0004805002067666666420500200000024035
:103CE000C403002008020020500500204A050020DF
:103CF000440500200000000080B584B002AF786069
:103D0000A948FEF762FCA948FEF75FFCA848FEF749
:103D10005CFCA84BFF221A70A74BFF221A70A74B1E
:103D20004FF000021A60A64B00221A8003F062F9DD
:103D30000346A44A13607B68002B00F09080A248E1
:103D400003F0CCF91421A04803F0CDFA9E4803F00B
:103D500055FB02469D4B1B6813449C4A13609C4BC9
:103D60001B885A1C9B4B83FB02135910D317C91A8B
:103D70000B469B000B44D11A8AB2954B1A80944B88
:103D80001B88042B2CD1914B1B68914A1288B3FBE2
:103D9000F2F31846FCF7AEFB7BA3D3E90023FCF754
:103DA0006BFA02460B461046194679A3D3E9002365
:103DB000FCF744FD02460B4610461946FCF7AEFEE2
:103DC0000346DAB27B4B1A70804B1B68804A12881C
:103DD000B3FBF2F39AB2804B1A807C4B00221A603C
:103DE000744B1B781A460C230093052300210020F6
:103DF0000BF0C4FB03F0FEF80246724B1B68D31AAB
:103E0000092B1BD900220421744804F033F8012245
:103E10000821724804F02EF8002220216F4804F097
:103E200029F8012210216D4804F024F80120FEF742
:103E30001FFC03F0DFF80346624A13605D4B1B78FA
:103E4000182B3FF67CAF664B1B6800225A63644B0D
:103E50001B6800229A635C4803F012FA8EE0614806
:103E600003F03CF914215F4803F03DFA5D4803F08C
:103E7000C5FA02465C4B1B6813445B4A13605B4BFC
:103E80001B885A1C534B83FB02135910D317C91AB2
:103E90000B469B000B44D11A8AB2544B1A80534BE9
:103EA0001B88042B2CD1504B1B68504A1288B3FB43
:103EB000F2F31846FCF71EFB37A3D3E90023FCF707
:103EC000DBF902460B461046194635A3D3E9002319
:103ED000FCF7B4FC02460B4610461946FCF71EFEE2
:103EE0000346DAB2344B1A703F4B1B683F4A1288C4
:103EF000B3FBF2F39AB23E4B1A803B4B00221A609E
:103F00002D4B1B781A460C2300930523002100201B
:103F10000BF034FB03F06EF802462A4B1B68D31AF1
:103F2000092B1BD9002204212C4803F0A3FF0122F6
:103F300008212A4803F09EFF00222021274803F091
:103F400099FF01221021254803F094FF0120FEF77C
:103F50008FFB03F04FF803461A4A1360164B1B7889
:103F6000182B3FF67CAF1E4B1B6800225A631C4B7C
:103F70001B6800229A631B4803F082F900BF0837D0
:103F8000BD4680BDAFF30080B21188D7F55CAA4072
:103F9000C6C4E6E3DA984FC070B6B931FDA8A940AF
:103FA000EE3D5C72DC594EC018050020040500206F
:103FB0002C0500204705002046050020E8040020CD
:103FC000EE040020F4040020C00100204C05002075
:103FD0004805002067666666420500200000024032
:103FE000C403002008020020500500204A050020DC
:103FF0004405002080B500AF1C4B1B782D3B07EE1D
:10400000903AF8EEE77A1A4BC3ED007A194B1B6829
:104010004FF4FA625A63174B1B6840F235529A63A9
:10402000154B1B6840F209121A644FF4967002F0A7
:10403000EDFF00220421114803F01CFF012208219A
:104040000E4803F017FF002220210C4803F012FF56
:1040500001221021094803F00DFF0548FFF7FCF885
:104060004FF4967008F084FB00BF80BD0200002072
:10407000E4040020C4030020A40200200000024049
:1040800080B500AF1C4B1B78C3F12D0307EE903AAF
:10409000F8EEE77A194BC3ED007A194B1B6840F232
:1040A00035525A63164B1B684FF4FA629A63154BEC
:1040B0001B685A221A644FF4967002F0A7FF002280
:1040C0000421114803F0D6FE012208210E4803F016
:1040D000D1FE002220210C4803F0CCFE0122102149
:1040E000094803F0C7FE0548FFF7B6F84FF496708D
:1040F00008F03EFB00BF80BD03000020E404002068
:10410000C4030020A40200200000024080B500AFDC
:10411000414B4FF081421A60002201213E48FEF7D8
:104120005FFC3E4BD3ED417A9FED3D7AF4EEC77ACA
:10413000F1EE10FA02DD40F2091312E0374BD3ED35
:10414000417A9FED387AF4EEC77AF1EE10FA01D594
:10415000462306E0314BD3ED417AFCEEE77A17EEC9
:10416000903A314A126813644FF4967002F04EFF91
:104170002A4BD3F808312D4A1360284B93F80C31A1
:10418000002B0CBF01230023DBB21A460421284870
:1041900003F070FE214B93F80C31002B14BF012368
:1041A0000023DBB21A460821214803F063FE1B4BB3
:1041B00093F80C31002B0CBF01230023DBB21A460D
:1041C00020211B4803F056FE144B93F80C31002BB2
:1041D00014BF01230023DBB21A461021144803F058
:1041E00049FE0E4BB3F80021124B1B685A630B4B70
:1041F000B3F802210F4B1B689A630C48FFF72CF8A9
:10420000054B4FF080421A60002200210248FEF761
:10421000E7FB00BF80BD00BFF804002004000020C1
:104220000080844300008C42A4020020E4040020AB
:1042300000000240C403002080B500AF404B414A5B
:104240001A60002201213E48FEF7CAFB3E4BD3ED27
:104250003D7A9FED3E7AF4EEC77AF1EE10FA02DD78
:1042600040F2091312E0384BD3ED3D7A9FED387AD6
:10427000F4EEC77AF1EE10FA01D5462306E0324B90
:10428000D3ED3D7AFCEEE77A17EE903A314A1268A8
:1042900013644FF4967002F0B9FE2B4BD3F8F8304C
:1042A0002D4A1360284B93F8FC30002B0CBF0123E0
:1042B0000023DBB21A460421284803F0DBFD224B21
:1042C00093F8FC30002B14BF01230023DBB21A4605
:1042D0000821224803F0CEFD1B4B93F8FC30002B45
:1042E0000CBF01230023DBB21A4620211B4803F038
:1042F000C1FD154B93F8FC30002B14BF01230023A4
:10430000DBB21A461021154803F0B4FD0E4BB3F88A
:10431000F020134B1B685A630B4BB3F8F220104B81
:104320001B689A630C48FEF797FF054B0D4A1A600D
:10433000002200210248FEF753FB00BF80BD00BFF2
:10434000F80400200000A040040000200080844306
:1043500000008C42A4020020E4040020000002407F
:10436000C40300200000404080B582B000AF7860F8
:10437000642008F0FDF9FBE780B584B002AF7860F7
:104380001A4802F0ABFE1A4802F0A8FE14211748A2
:1043900002F0A9FF1421164802F0A5FF134803F00C
:1043A0002DF802460C2300930523142100200BF066
:1043B000E5F80F4803F022F802460C23009305238A
:1043C00014213C200BF0DAF8084802F059FF0848A5
:1043D00002F056FF074A282100200BF03DF90AF0B1
:1043E0003DFF642008F0C4F9CAE700BF08020020BE
:1043F000C00100208C04002080B582B000AF78603E
:104400007B4B1B78002B04D04FF47A7008F0B0F986
:10441000F6E7784B4FF000021A60774B00221A80C3
:10442000764B1B78002B62D0754B4FF000021A6060
:10443000744B00221A807448FEF7C7F87348FEF7E1
:10444000C4F87348FEF7C1F800220421714803F054
:1044500011FD012208216F4803F00CFD00222021EC
:104460006C4803F007FD012210216A4803F002FDA9
:10447000694B1B6800225A63674B1B6800229A63D2
:104480005B4B1A78654B1A70594B11221A70644BAA
:1044900000221A60634B64221A70624B00225A8019
:1044A000614A0F2161480BF095F94FF6FF73062220
:1044B0005F49604807F011F802F09CFD03465E4A30
:1044C00013604E4B1B78002B00F0908002F092FDA1
:1044D0000246594B1B68D31A092BF2D90020FEF76C
:1044E000C7F802F087FD0346534A1360E9E74D4BD6
:1044F0005B8807EE903AF8EE677A3E4BC3ED007AA0
:104500003C4BD3ED007AB2EE0E7AF4EEC77AF1EEC0
:1045100010FA02D8494B00221A70364BD3ED007ABC
:104520009FED477AF4EEC77AF1EE10FA09DB314BD2
:10453000D3ED007AB0EE007A77EEC77A2D4BC3ED5B
:10454000007A3E4B1B78002B05D10022012129481F
:10455000FEF746FA04E0022201212648FEF740FA5F
:104560002D4B1B6800225A632B4B1B6800229A6359
:104570001F4B1A78294B1A701D4B11221A70284BA9
:1045800000221A602F4B1A782E4B5B789A4212D178
:10459000244B64221A70234B00225A80224A0F2196
:1045A00022480BF017F94FF6FF73062220492148E5
:1045B00006F093FF24E7234B5B781A4A21499B00BE
:1045C0000B445B6813601F4B5B7801331D4A927884
:1045D00093FBF2F101FB02F29B1ADAB2194B5A700B
:1045E000194A0F2111480BF0F5F809E700BF07E75A
:1045F00034010020F8040020FE040020E004002024
:10460000E8040020EE040020180500200405002026
:104610002C05002000000240C403002035010020CA
:1046200064050020CC040020EC010108D004002027
:10463000F40101080C040020F404002036010020DD
:104640000000C84298040020FC01010880B582B037
:1046500000AF7860714B1B78012B04D04FF47A7057
:1046600008F086F8F6E76E4B4FF000021A606D4BCB
:1046700000221A806C4B1B78002B61D06B4B4FF0E3
:1046800000021A606A4B00221A806A48FDF79DFFFB
:104690006948FDF79AFF6948FDF797FF0122042159
:1046A000674803F0E7FB00220821654803F0E2FBBE
:1046B00001222021624803F0DDFB00221021604826
:1046C00003F0D8FB5F4B1B6800225A635D4B1B68ED
:1046D00000229A63514B1A785B4B1A704F4B112290
:1046E0001A705A4B00221A60594B64221A70584BA8
:1046F00000225A80574A0F2157480BF06BF84FF6AB
:10470000FF7306225549564806F0E7FE02F072FC98
:104710000346544A1360444B1B78002B7BD002F0B5
:1047200069FC02464F4B1B68D31A092BF3D90020B2
:10473000FDF79EFF02F05EFC03464A4A1360EAE77B
:10474000434B5B8807EE903AF8EE677A344BC3ED43
:10475000007A334BD3ED007AB2EE0E7AF4EEC77ADC
:10476000F1EE10FA02D8404B00221A703E4B1B7833
:10477000002B05D1002200212948FEF731F904E081
:10478000022200212648FEF72BF92E4B1B6800223F
:104790005A632C4B1B6800229A63204B1A782A4BD1
:1047A0001A701E4B11221A70284B00221A602F4BD0
:1047B0001A782E4B5B789A4212D1254B64221A70DC
:1047C000234B00225A80234A0F2123480BF002F882
:1047D0004FF6FF7306222149214806F07EFE39E795
:1047E000224B5B781A4A21499B000B445B6813609B
:1047F0001E4B5B7801331D4A927893FBF2F101FB6B
:1048000002F29B1ADAB2194B5A70194A0F21124858
:104810000AF0E0FF1EE700BF1CE700BF34010020E4
:10482000F8040020FE040020E0040020E80400203A
:10483000EE04002018050020040500202C050020AF
:1048400000000240C4030020350100206405002060
:10485000CC040020EC010108D0040020F401010880
:104860000C040020F40400203601002098040020ED
:10487000FC01010880B582B000AF7860944B1B78D2
:10488000022B04D04FF47A7007F072FFF6E7914BD9
:104890005B88142B00F083801E2B40F0F8808E4B39
:1048A0008E4A1A60002201218B48FEF799F88C4B42
:1048B000D3ED3D7A9FED8B7AF4EEC77AF1EE10FAE4
:1048C00002DD40F2091312E0854BD3ED3D7A9FEDF6
:1048D000867AF4EEC77AF1EE10FA01D5462306E0A7
:1048E0007F4BD3ED3D7AFCEEE77A17EE903A7F4AA4
:1048F000126813644FF4967002F088FB784BD3F87B
:10490000F8307B4A1360764B93F8FC30002B0CBFD9
:1049100001230023DBB21A460421764803F0AAFAE9
:104920006F4B93F8FC30002B14BF01230023DBB244
:104930001A4608216F4803F09DFA694B93F8FC3042
:10494000002B0CBF01230023DBB21A46202169484B
:1049500003F090FA624B93F8FC30002B14BF012354
:104960000023DBB21A461021624803F083FA5C4B45
:10497000B3F8F020604B1B685A63594BB3F8F22030
:104980005D4B1B689A635A48FEF766FC524B5B4AC4
:104990001A60002200215048FEF722F811E14E4B28
:1049A0004E4A1A60002201214B48FEF719F84C4B81
:1049B000D3ED2D7A9FED4B7AF4EEC77AF1EE10FA33
:1049C00002DD40F2091312E0454BD3ED2D7A9FED45
:1049D000467AF4EEC77AF1EE10FA01D5462306E0E6
:1049E0003F4BD3ED2D7AFCEEE77A17EE903A3F4A33
:1049F000126813644FF4967002F008FB384BD3F83A
:104A0000B8303B4A1360364B93F8BC30002B0CBFD8
:104A100001230023DBB21A460421364803F02AFAA8
:104A20002F4B93F8BC30002B14BF01230023DBB2C3
:104A30001A4608212F4803F01DFA294B93F8BC3081
:104A4000002B0CBF01230023DBB21A46202129488A
:104A500003F010FA224B93F8BC30002B14BF012353
:104A60000023DBB21A461021224803F003FA1C4B44
:104A7000B3F8B020204B1B685A63194BB3F8B2202F
:104A80001D4B1B689A631A48FEF7E6FB99E0124B30
:104A90001B4A1A60002201210F48FDF7A1FF104BAD
:104AA000D3ED1D7A9FED0F7AF4EEC77AF1EE10FA8E
:104AB00002DD40F209132CE0094BD3ED1D7A9FED86
:104AC0000A7AF4EEC77AF1EE10FA1BD5462320E0FD
:104AD00034010020CC040020F80400200000A04095
:104AE000040000200080844300008C42A4020020C7
:104AF000E404002000000240C40300200000404005
:104B0000000030414E4BD3ED1D7AFCEEE77A17EEF4
:104B1000903A4C4A126813644FF4967002F076FA99
:104B2000474B9B6F484A1360454B93F87C30002BF2
:104B30000CBF01230023DBB21A460421434803F0D3
:104B400099F93F4B93F87C30002B14BF01230023CD
:104B5000DBB21A4608213D4803F08CF9384B93F834
:104B60007C30002B0CBF01230023DBB21A4620212E
:104B7000364803F07FF9324B93F87C30002B14BF9A
:104B800001230023DBB21A461021304803F072F9EA
:104B90002B4BB3F870202E4B1B685A63284BB3F88D
:104BA00072202B4B1B689A632748FEF755FB294B55
:104BB0004FF080421A60002201212648FDF710FFC5
:104BC00000BF254B00221A60244B1A78244B1A7020
:104BD000224B11221A70234B1A78224B5B789A428F
:104BE00012D1214B64221A701F4B00225A801F4A97
:104BF0000F211F480AF0EEFD4FF6FF7306221D49F4
:104C00001D4806F06AFC39E6164B5B78164A1549D2
:104C10009B000B445B681360124B5B780133114AB5
:104C2000927893FBF2F101FB02F29B1ADAB20D4B80
:104C30005A70124A0F210E480AF0CCFD1EE600BF42
:104C400004000020A4020020E40400200000024030
:104C5000C4030020F8040020640500203401002073
:104C60003501002098040020CC040020EC0101084C
:104C7000D0040020F40101080C040020FC0101080C
:104C800080B582B000AF7860994B1B78032B04D0BD
:104C90004FF47A7007F06CFDF6E7964B5B88142BA7
:104CA00000F085801E2B40F00181934B4FF0814234
:104CB0001A60002201219048FDF792FE8F4BD3ED40
:104CC000417A9FED8F7AF4EEC77AF1EE10FA02DDA9
:104CD00040F2091312E0894BD3ED417A9FED897AB6
:104CE000F4EEC77AF1EE10FA01D5462306E0834BC5
:104CF000D3ED417AFCEEE77A17EE903A824A1268D9
:104D000013644FF4967002F081F97C4BD3F80831AC
:104D10007E4A1360794B93F80C31002B0CBF0123B2
:104D20000023DBB21A460421794803F0A3F8734B41
:104D300093F80C31002B14BF01230023DBB21A4679
:104D40000821734803F096F86C4B93F80C31002B54
:104D50000CBF01230023DBB21A4620216C4803F06C
:104D600089F8664B93F80C31002B14BF0123002304
:104D7000DBB21A461021664803F07CF85F4BB3F8AB
:104D80000021644B1B685A635C4BB3F80221614BF2
:104D90001B689A635D48FEF75FFA574B4FF08042FD
:104DA0001A60002200215448FDF71AFE16E1524B0A
:104DB0004FF081421A60002201214F48FDF710FE9A
:104DC0000A2007F0D5FC4D4BD3ED317A9FED4C7A9C
:104DD000F4EEC77AF1EE10FA02DD40F2091312E0A8
:104DE000464BD3ED317A9FED477AF4EEC77AF1EE78
:104DF00010FA01D5462306E0404BD3ED317AFCEEA4
:104E0000E77A17EE903A404A126813644FF49670AE
:104E100002F0FCF8394BD3F8C8303C4A1360374BEA
:104E200093F8CC30002B0CBF01230023DBB21A46D1
:104E30000421374803F01EF8304B93F8CC30002B98
:104E400014BF01230023DBB21A460821304803F0C7
:104E500011F82A4B93F8CC30002B0CBF0123002310
:104E6000DBB21A4620212A4803F004F8234B93F8BA
:104E7000CC30002B14BF01230023DBB21A461021D3
:104E8000234802F0F7FF1D4BB3F8C020214B1B68ED
:104E90005A631A4BB3F8C2201E4B1B689A631B4817
:104EA000FEF7DAF90A2007F063FC97E0124B1A4A82
:104EB0001A60002201211048FDF792FD0F4BD3ED3F
:104EC000217A9FED0F7AF4EEC77AF1EE10FA02DD47
:104ED00040F2091329E0094BD3ED217A9FED097ABD
:104EE000F4EEC77AF1EE10FA18D546231DE000BFA4
:104EF00034010020CC040020F8040020040000202D
:104F00000080844300008C42A4020020E4040020BE
:104F100000000240C4030020000060404E4BD3ED6F
:104F2000217AFCEEE77A17EE903A4C4A1268136445
:104F30004FF4967002F06AF8474BD3F88830484A2D
:104F40001360454B93F88C30002B0CBF01230023DA
:104F5000DBB21A460421434802F08CFF3E4B93F823
:104F60008C30002B14BF01230023DBB21A4608212A
:104F70003C4802F07FFF384B93F88C30002B0CBF7D
:104F800001230023DBB21A462021364802F072FFCB
:104F9000314B93F88C30002B14BF01230023DBB27C
:104FA0001A4610212F4802F065FF2B4BB3F88020E2
:104FB0002D4B1B685A63284BB3F882202A4B1B6881
:104FC0009A632748FEF748F9284B4FF080421A6051
:104FD000002200212548FDF703FD00BF244B0022DD
:104FE0001A60244B1A78244B1A70224B11221A7023
:104FF000224B1A78214B5B789A4212D1204B6422C3
:105000001A701F4B00225A801E4A0F211E480AF0B8
:10501000E1FB4FF6FF7306221C491D4806F05DFABE
:1050200032E6164B5B78164A14499B000B445B68CA
:105030001360124B5B780133104A927893FBF2F1C4
:1050400001FB02F29B1ADAB20C4B5A70114A0F2183
:105050000D480AF0BFFB17E604000020A402002060
:10506000E404002000000240C4030020F8040020F3
:105070006405002034010020350100209804002040
:10508000CC040020EC010108D0040020F401010848
:105090000C040020FC01010880B582B000AF7860EC
:1050A000964B1B78042B04D04FF47A7007F060FB0A
:1050B000F6E7934B5B88142B00F084801E2B40F0A6
:1050C000FA80904B4FF07E521A60002201218D48E9
:1050D000FDF786FC8C4BD3ED457A9FED8C7AF4EE90
:1050E000C77AF1EE10FA02DD40F2091312E0864BA6
:1050F000D3ED457A9FED867AF4EEC77AF1EE10FA99
:1051000001D5462306E0804BD3ED457AFCEEE77AE5
:1051100017EE903A7F4A126813644FF4967001F0CC
:1051200075FF794BD3F818317B4A1360764B93F8AF
:105130001C31002B0CBF01230023DBB21A460421D3
:10514000764802F097FE704B93F81C31002B14BF89
:1051500001230023DBB21A460821704802F08AFEC0
:10516000694B93F81C31002B0CBF01230023DBB2E9
:105170001A462021694802F07DFE634B93F81C31EA
:10518000002B14BF01230023DBB21A461021634811
:1051900002F070FE5C4BB3F81021614B1B685A6340
:1051A000594BB3F812215E4B1B689A635A48FEF7BD
:1051B00053F8544B5B4A1A60002200215148FDF716
:1051C0000FFC11E1504BD3ED357A9FED507AF4EEA0
:1051D000C77AF1EE10FA02DD40F2091312E04A4BF1
:1051E000D3ED357A9FED4A7AF4EEC77AF1EE10FAF4
:1051F00001D5462306E0444BD3ED357AFCEEE77A41
:1052000017EE903A434A126813644FF4967001F017
:10521000FDFE3D4BD3F8D8303F4A13603A4B93F82C
:10522000DC30002B0CBF01230023DBB21A46042123
:105230003A4802F01FFE344B93F8DC30002B14BFC9
:1052400001230023DBB21A460821344802F012FE83
:105250002D4B93F8DC30002B0CBF01230023DBB275
:105260001A4620212D4802F005FE274B93F8DC302A
:10527000002B14BF01230023DBB21A46102127485C
:1052800002F0F8FD204BB3F8D020254B1B685A6381
:105290001D4BB3F8D220224B1B689A631E48FDF7C2
:1052A000DBFF184B4FF081421A60002200211548A5
:1052B000FDF796FB98E0134B4FF07E521A600022E8
:1052C00000211048FDF78CFB0F4BD3ED257A9FEDA5
:1052D0000F7AF4EEC77AF1EE10FA02DD40F209130C
:1052E00029E0094BD3ED257A9FED097AF4EEC77AD0
:1052F000F1EE10FA18D546231DE000BF340100205E
:10530000CC040020F8040020040000200080844326
:1053100000008C42A4020020E404002000000240AF
:10532000C40300200000C0404E4BD3ED257AFCEEB4
:10533000E77A17EE903A4C4A126813644FF496706D
:1053400001F064FE474BD3F89830484A1360454B50
:1053500093F89C30002B0CBF01230023DBB21A46CC
:105360000421434802F086FD3E4B93F89C30002B0D
:1053700014BF01230023DBB21A4608213C4802F087
:1053800079FD384B93F89C30002B0CBF0123002390
:10539000DBB21A462021364802F06CFD314B93F8FF
:1053A0009C30002B14BF01230023DBB21A461021CE
:1053B0002F4802F05FFD2B4BB3F890202D4B1B685C
:1053C0005A63284BB3F892202A4B1B689A632748EC
:1053D000FDF742FF284B4FF082421A600022002165
:1053E0002548FDF7FDFA00BF244B00221A60244B2C
:1053F0001A78244B1A70224B11221A70224B1A78F9
:10540000214B5B789A4212D1204B64221A701F4BB9
:1054100000225A801E4A0F211E480AF0DBF94FF67F
:10542000FF7306221C491D4806F057F838E6164B54
:105430005B78164A14499B000B445B681360124B5F
:105440005B780133104A927893FBF2F101FB02F290
:105450009B1ADAB20C4B5A70114A0F210D480AF010
:10546000B9F91DE604000020A4020020E404002095
:1054700000000240C4030020F8040020640500205E
:10548000340100203501002098040020CC040020C5
:10549000EC010108D0040020F40101080C040020F4
:1054A000FC01010880B582B000AF7860954B1B7895
:1054B000052B04D04FF47A7007F05AF9F6E7924BB7
:1054C0005B88142B00F084801E2B40F0FA808F4BF9
:1054D0004FF080421A60002200218C48FDF780FACC
:1054E0008B4BD3ED497A9FED8B7AF4EEC77AF1EED0
:1054F00010FA02DD40F2091312E0854BD3ED497A30
:105500009FED857AF4EEC77AF1EE10FA01D54623C5
:1055100006E07F4BD3ED497AFCEEE77A17EE903A3E
:105520007E4A126813644FF4967001F06FFD784B59
:10553000D3F828317A4A1360754B93F82C31002B3D
:105540000CBF01230023DBB21A460421754802F088
:1055500091FC6F4B93F82C31002B14BF01230023D7
:10556000DBB21A4608216F4802F084FC684B93F8BE
:105570002C31002B0CBF01230023DBB21A46202163
:10558000684802F077FC624B93F82C31002B14BF73
:1055900001230023DBB21A461021624802F06AFCA4
:1055A0005B4BB3F82021604B1B685A63584BB3F830
:1055B00022215D4B1B689A635948FDF74DFE534B02
:1055C0005A4A1A60002200215048FDF709FA10E1FA
:1055D0004F4BD3ED397A9FED4F7AF4EEC77AF1EE67
:1055E00010FA02DD40F2091312E0494BD3ED397A8B
:1055F0009FED497AF4EEC77AF1EE10FA01D5462311
:1056000006E0434BD3ED397AFCEEE77A17EE903A99
:10561000424A126813644FF4967001F0F7FC3C4B59
:10562000D3F8E8303E4A1360394B93F8EC30002B46
:105630000CBF01230023DBB21A460421394802F0D3
:1056400019FC334B93F8EC30002B14BF01230023DB
:10565000DBB21A460821334802F00CFC2C4B93F8BD
:10566000EC30002B0CBF01230023DBB21A462021B3
:105670002C4802F0FFFB264B93F8EC30002B14BFB4
:1056800001230023DBB21A461021264802F0F2FB68
:105690001F4BB3F8E020244B1B685A631C4BB3F834
:1056A000E220214B1B689A631D48FDF7D5FD174B7F
:1056B0004FF081421A60002200211448FDF790F952
:1056C00097E0124B1A4A1A60002201210F48FDF799
:1056D00087F90F4BD3ED297A9FED0E7AF4EEC77A56
:1056E000F1EE10FA02DD40F209132AE0084BD3ED87
:1056F000297A9FED097AF4EEC77AF1EE10FA19D5FE
:1057000046231EE034010020CC040020F8040020D1
:10571000040000200080844300008C42A40200208A
:10572000E404002000000240C40300200000E04028
:105730000000A0404E4BD3ED297AFCEEE77A17EE3D
:10574000903A4C4A126813644FF4967001F05EFC74
:10575000474BD3F8A830484A1360454B93F8AC3018
:10576000002B0CBF01230023DBB21A46042143485F
:1057700002F080FB3E4B93F8AC30002B14BF0123AA
:105780000023DBB21A4608213C4802F073FB384B79
:1057900093F8AC30002B0CBF01230023DBB21A4678
:1057A0002021364802F066FB314B93F8AC30002BD9
:1057B00014BF01230023DBB21A4610212F4802F048
:1057C00059FB2B4BB3F8A0202D4B1B685A63284B79
:1057D000B3F8A2202A4B1B689A632748FDF73CFDCB
:1057E000284B294A1A60002200212648FDF7F8F8C4
:1057F00000BF264B00221A60254B1A78254B1A70E1
:10580000234B11221A70244B1A78234B5B789A424F
:1058100012D1224B64221A70204B00225A80204A57
:105820000F21204809F0D6FF4FF6FF7306221E49CC
:105830001E4805F052FE39E6174B5B78174A1649A9
:105840009B000B445B681360134B5B780133124A77
:10585000927893FBF2F101FB02F29B1ADAB20E4B43
:105860005A70134A0F210F4809F0B4FF1EE600BF1B
:1058700004000020A4020020E404002000000240F4
:10588000C4030020F804002000004040640500200C
:10589000340100203501002098040020CC040020B1
:1058A000EC010108D0040020F40101080C040020E0
:1058B000FC01010880B582B000AF7860C74B1B784F
:1058C000013B632B00F2538301A252F823F000BF87
:1058D000615A00086F5A00087D5A00087D5A000876
:1058E0007D5A00087D5A0008515C00085F5C000882
:1058F0006D5C00087B5C0008895C0008895C00081E
:105900006F5F0008D35C0008E15C00086F5F00086F
:105910006F5F00086F5F00086F5F00086F5F00082F
:105920006F5F00086F5F00086F5F00086F5F00081F
:105930006F5F00086F5F00086F5F00086F5F00080F
:105940006F5F00086F5F00086F5F00086F5F0008FF
:105950006F5F00086F5F00086F5F00086F5F0008EF
:105960006F5F00086F5F00086F5F00086F5F0008DF
:105970006F5F00086F5F00086F5F00086F5F0008CF
:105980006F5F00086F5F00086F5F00086F5F0008BF
:105990006F5F00086F5F00086F5F00086F5F0008AF
:1059A0006F5F00086F5F00086F5F00086F5F00089F
:1059B0006F5F00086F5F00086F5F00086F5F00088F
:1059C0006F5F00086F5F00086F5F00086F5F00087F
:1059D0006F5F00086F5F00086F5F00086F5F00086F
:1059E0006F5F00086F5F00086F5F00086F5F00085F
:1059F0006F5F00086F5F00086F5F00086F5F00084F
:105A00006F5F00086F5F00086F5F00086F5F00083E
:105A10006F5F00086F5F00086F5F00086F5F00082E
:105A20006F5F00086F5F00086F5F0008EF5C0008A1
:105A3000EF5C00080B5E00080B5E00081B5F0008AF
:105A4000295F0008375F0008455F0008535F0008C2
:105A5000615F00086F5F00086F5F00086F5F0008FC
:105A60005F4B00221A705D4B63221A7080E25C4B20
:105A700001221A70594B63221A7079E2574B1B7836
:105A8000584A1B0113440433D3ED007A9FED567A34
:105A9000F4EEC77AF1EE10FA02DD40F209131CE0D1
:105AA0004E4B1B784F4A1B0113440433D3ED007A4D
:105AB0009FED4E7AF4EEC77AF1EE10FA01D5462347
:105AC0000BE0464B1B78474A1B0113440433D3EDCC
:105AD000007AFCEEE77A17EE903A454A12681364B2
