:020000040800F2
:100000000000022031540008255300082B5300083B
:1000100031530008375300083D530008000000002A
:10002000000000000000000000000000B1C5000852
:10003000435300080000000001C8000881A2000826
:10004000815400088154000881540008815400083C
:10005000815400088154000881540008815400082C
:10006000815400088154000881540008815400081C
:10007000815400088154000881540008815400080C
:1000800081540008815400088154000881540008FC
:1000900081540008815400088154000881540008EC
:1000A000815400088154000881540008515300080D
:1000B00081540008655300087953000881540008F2
:1000C00081540008815400088154000881540008BC
:1000D0008154000881540008815400088D530008A1
:1000E000815400088154000881540008815400089C
:1000F000815400088154000881540008815400088C
:10010000815400088154000881540008815400087B
:10011000815400088154000881540008815400086B
:10012000815400088154000881540008815400085B
:10013000815400088154000881540008815400084B
:10014000815400088154000881540008815400083B
:10015000815400088154000881540008815400082B
:10016000815400088154000881540008815400081B
:1001700081540008815400088154000800000000E8
:080180008154000881540008BD
:1001900010B5054C237833B9044B13B10448AFF3C1
:1001A00000800123237010BDA0010020000000008A
:1001B00044DE000808B5034B1BB103490348AFF305
:1001C000008008BD00000000A401002044DE0008FB
:1001D00001F0FF01102A2BDB10F0070F08D010F8F8
:1001E000013B013A8B422DD010F0070F42B3F6D1FC
:1001F000F0B441EA012141EA014122F007047FF015
:1002000000070023F0E80256083C85EA010586EA6B
:10021000010685FA47F5A3FA87F586FA47F6A5FAA7
:1002200087F68EB9EED1F0BC01F0FF0102F00702B3
:1002300032B110F8013B013A83EA010313B1F8D15E
:100240000020704701387047002D06BF354603383F
:10025000073815F0010F07D1013015F4807F02BF78
:10026000013015F4C03F0130F0BC0138704700BFC9
:1002700081F0004102E000BF83F0004330B54FEA57
:1002800041044FEA430594EA050F08BF90EA020FC4
:100290001FBF54EA000C55EA020C7FEA645C7FEA57
:1002A000655C00F0E2804FEA5454D4EB5555B8BF7A
:1002B0006D420CDD2C4480EA020281EA030382EAEB
:1002C000000083EA010180EA020281EA0303362D7D
:1002D00088BF30BD11F0004F4FEA01314FF4801C50
:1002E0004CEA113102D0404261EB410113F0004F62
:1002F0004FEA03334CEA133302D0524263EB430319
:1003000094EA050F00F0A780A4F10104D5F1200EB6
:100310000DDB02FA0EFC22FA05F2801841F1000111
:1003200003FA0EF2801843FA05F359410EE0A5F1E5
:1003300020050EF1200E012A03FA0EFC28BF4CF016
:10034000020C43FA05F3C01851EBE37101F00045CC
:1003500007D54FF0000EDCF1000C7EEB00006EEBD9
:100360000101B1F5801F1BD3B1F5001F0CD3490863
:100370005FEA30004FEA3C0C04F101044FEA4452BA
:1003800012F5800F80F09A80BCF1004F08BF5FEA41
:10039000500C50F1000041EB045141EA050130BD21
:1003A0005FEA4C0C404141EB0101013C28BFB1F533
:1003B000801FE9D291F0000F04BF01460020B1FA7E
:1003C00081F308BF2033A3F10B03B3F120020CDA51
:1003D0000C3208DD02F1140CC2F10C0201FA0CF02F
:1003E00021FA02F10CE002F11402D8BFC2F1200C94
:1003F00001FA02F120FA0CFCDCBF41EA0C0190404A
:10040000E41AA2BF01EB0451294330BD6FEA040492
:100410001F3C1CDA0C340EDC04F11404C4F120027D
:1004200020FA04F001FA02F340EA030021FA04F38F
:1004300045EA030130BDC4F10C04C4F1200220FAE6
:1004400002F001FA04F340EA0300294630BD21FA24
:1004500004F0294630BD94F0000F83F4801306BFEA
:1004600081F480110134013D4EE77FEA645C18BFDE
:100470007FEA655C29D094EA050F08BF90EA020F75
:1004800005D054EA000C04BF1946104630BD91EA6D
:10049000030F1EBF0021002030BD5FEA545C05D170
:1004A0004000494128BF41F0004130BD14F58004AF
:1004B0003CBF01F5801130BD01F0004545F0FE4123
:1004C00041F470014FF0000030BD7FEA645C1ABF58
:1004D000194610467FEA655C1CBF0B46024650EA8F
:1004E000013406BF52EA033591EA030F41F40021BB
:1004F00030BD00BF90F0000F04BF0021704730B541
:100500004FF4806404F132044FF000054FF0000115
:1005100050E700BF90F0000F04BF0021704730B5D6
:100520004FF4806404F1320410F0004548BF4042AB
:100530004FF000013EE700BF42004FEAE2014FEA00
:1005400031014FEA02701FBF12F07F4393F07F4FDB
:1005500081F06051704732F07F4208BF704793F0DE
:100560007F4F04BF41F40021704730B54FF46074F1
:1005700001F0004521F000411CE700BF50EA0102F4
:1005800008BF704730B54FF000050AE050EA01029D
:1005900008BF704730B511F0004502D5404261EB0D
:1005A00041014FF4806404F132045FEA915C3FF44E
:1005B000D8AE4FF003025FEADC0C18BF03325FEAEB
:1005C000DC0C18BF033202EBDC02C2F1200300FA9C
:1005D00003FC20FA02F001FA03FE40EA0E0021FAC1
:1005E00002F11444BDE600BF70B54FF0FF0C4CF4AF
:1005F000E06C1CEA11541DBF1CEA135594EA0C0F61
:1006000095EA0C0F00F0DEF82C4481EA030621EA9B
:100610004C5123EA4C5350EA013518BF52EA0335D6
:1006200041F4801143F4801338D0A0FB02CE4FF088
:100630000005E1FB02E506F00042E0FB03E54FF0B8
:100640000006E1FB03569CF0000F18BF4EF0010EB0
:10065000A4F1FF04B6F5007F64F5407404D25FEAAC
:100660004E0E6D4146EB060642EAC62141EA55515F
:100670004FEAC52040EA5E504FEACE2EB4F1FD0CA1
:1006800088BFBCF5E06F1ED8BEF1004F08BF5FEA1F
:10069000500E50F1000041EB045170BD06F00046D1
:1006A00046EA010140EA020081EA0301B4EB5C047E
:1006B000C2BFD4EB0C0541EA045170BD41F4801176
:1006C0004FF0000E013C00F3AB8014F1360FDEBF9B
:1006D000002001F0004170BDC4F10004203C35DA77
:1006E0000C341BDC04F11404C4F1200500FA05F3FA
:1006F00020FA04F001FA05F240EA020001F000429B
:1007000021F0004110EBD37021FA04F642EB060110
:100710005EEA430E08BF20EAD37070BDC4F10C043A
:10072000C4F1200500FA04F320FA05F001FA04F2FE
:1007300040EA020001F0004110EBD37041F10001EA
:100740005EEA430E08BF20EAD37070BDC4F12005F5
:1007500000FA05F24EEA020E20FA04F301FA05F25D
:1007600043EA020321FA04F001F0004121FA04F205
:1007700020EA020000EBD3705EEA430E08BF20EAD5
:10078000D37070BD94F0000F0FD101F0004640000F
:1007900041EB010111F4801F08BF013CF7D041EA91
:1007A000060195F0000F18BF704703F00046520095
:1007B00043EB030313F4801F08BF013DF7D043EA66
:1007C0000603704794EA0C0F0CEA135518BF95EA1C
:1007D0000C0F0CD050EA410618BF52EA4306D1D1A3
:1007E00081EA030101F000414FF0000070BD50EAC2
:1007F000410606BF1046194652EA430619D094EA4C
:100800000C0F02D150EA013613D195EA0C0F05D135
:1008100052EA03361CBF104619460AD181EA030189
:1008200001F0004141F0FE4141F470014FF0000041
:1008300070BD41F0FE4141F4780170BD70B54FF0DC
:10084000FF0C4CF4E06C1CEA11541DBF1CEA13555C
:1008500094EA0C0F95EA0C0F00F0A7F8A4EB05043E
:1008600081EA030E52EA03354FEA013100F0888035
:100870004FEA03334FF0805545EA131343EA1263FE
:100880004FEA022245EA111545EA10654FEA0026B3
:100890000EF000419D4208BF964244F1FD0404F56C
:1008A000407402D25B084FEA3202B61A65EB0305C8
:1008B0005B084FEA32024FF480104FF4002CB6EB85
:1008C000020E75EB030E22BFB61A754640EA0C0005
:1008D0005B084FEA3202B6EB020E75EB030E22BF45
:1008E000B61A754640EA5C005B084FEA3202B6EB86
:1008F000020E75EB030E22BFB61A754640EA9C0045
:100900005B084FEA3202B6EB020E75EB030E22BF14
:10091000B61A754640EADC0055EA060E18D04FEAD2
:10092000051545EA16754FEA06164FEAC30343EA72
:1009300052734FEAC2025FEA1C1CC0D111F4801F3F
:100940000BD141EA00014FF000004FF0004CB6E738
:1009500011F4801F04BF01430020B4F1FD0C88BFD7
:10096000BCF5E06F3FF6AFAEB5EB030C04BFB6EBE2
:10097000020C5FEA500C50F1000041EB045170BDD5
:100980000EF0004E4EEA113114EB5C04C2BFD4EB02
:100990000C0541EA045170BD41F480114FF0000E86
:1009A000013C90E645EA060E8DE60CEA135594EA02
:1009B0000C0F08BF95EA0C0F3FF43BAF94EA0C0F05
:1009C0000AD150EA01347FF434AF95EA0C0F7FF47A
:1009D00025AF104619462CE795EA0C0F06D152EACE
:1009E00003353FF4FDAE1046194622E750EA4106B2
:1009F00018BF52EA43067FF4C5AE50EA41047FF4C3
:100A00000DAF52EA43057FF4EBAE12E74FF0FF3C27
:100A100006E000BF4FF0010C02E000BF4FF0010CF8
:100A20004DF804CD4FEA410C7FEA6C5C4FEA430C71
:100A300018BF7FEA6C5C1BD001B050EA410C0CBFC0
:100A400052EA430C91EA030F02BF90EA020F002022
:100A5000704710F1000F91EA030F58BF994208BF89
:100A600090422CBFD8176FEAE37040F00100704746
:100A70004FEA410C7FEA6C5C02D150EA013C07D19D
:100A80004FEA430C7FEA6C5CD6D152EA033CD3D0E8
:100A90005DF8040B704700BF8446104662468C46E2
:100AA0001946634600E000BF01B5FFF7B7FF002815
:100AB00048BF10F1000F01BD4DF808EDFFF7F4FF3E
:100AC0000CBF012000205DF808FB00BF4DF808EDC9
:100AD000FFF7EAFF34BF012000205DF808FB00BFEC
:100AE0004DF808EDFFF7E0FF94BF012000205DF80E
:100AF00008FB00BF4DF808EDFFF7CEFF94BF0120C3
:100B000000205DF808FB00BF4DF808EDFFF7C4FFBB
:100B100034BF012000205DF808FB00BF4A0011D25D
:100B200012F5001211D20DD56FF47873B3EB625247
:100B30000ED44FEAC12343F0004343EA505323FA53
:100B400002F070474FF00000704750EA013002D1C8
:100B50004FF0FF3070474FF0000070474FEA4102FE
:100B6000B2F1E04324BFB3F5001CDCF1FE5C0DD90B
:100B700001F0004C4FEAC0024CEA5070B2F1004F55
:100B800040EB830008BF20F00100704711F0804F58
:100B900021D113F13872BCBF01F00040704741F41D
:100BA00080114FEA5252C2F11802C2F1200C10FA21
:100BB0000CF320FA02F018BF40F001004FEAC12305
:100BC0004FEAD32303FA0CFC40EA0C0023FA02F3A9
:100BD0004FEA4303CCE77FEA625307D150EA01337F
:100BE0001EBF4FF0FE4040F44000704701F000404F
:100BF00040F0FE4040F40000704700BF53B94AB9CE
:100C0000002908BF00281CBF4FF0FF314FF0FF3014
:100C100000F070B9ADF1080C6DE904CE00F006F8F3
:100C2000DDF804E0DDE9022304B070472DE9F04768
:100C3000089E0D4604460F46002B4AD18A42944630
:100C400065D9B2FA82F343B102FA03FCC3F1200280
:100C50009F4020FA02F217439C404FEA1C4E1FFAB5
:100C60008CF5B7FBFEF1220C0EFB117742EA07422E
:100C700001FB05F090420AD91CEB020201F1FF379B
:100C800080F01C81904240F2198102396244121AAC
:100C9000A4B2B2FBFEF00EFB102244EA024400FBB9
:100CA00005F5A5420AD91CEB040400F1FF3280F0DF
:100CB0000781A54240F204816444023840EA0140C1
:100CC000641B00211EB1DC400023C6E90043BDE8DF
:100CD000F0878B4208D9002E00F0ED800021C6E994
:100CE00000050846BDE8F087B3FA83F1002949D131
:100CF000AB4202D3824200F2F880841A65EB030211
:100D000001201746002EE2D0C6E90047DFE702B90E
:100D1000FFDEB2FA82F3002B40F090808A1A4FEA8D
:100D20001C471FFA8CFE0121B2FBF7F507FB1520CB
:100D3000220C42EA00420EFB05F0904208D91CEB5F
:100D4000020205F1FF3802D2904200F2CB80454604
:100D5000121AA4B2B2FBF7F007FB102244EA0244D5
:100D60000EFB00FEA64508D91CEB040400F1FF327F
:100D700002D2A64500F2BB801046A4EB0E0440EA66
:100D800005409FE7C1F120078B4022FA07FC4CEA9F
:100D9000030C05FA01F420FA07F3FD404FEA1C4961
:100DA0002343B5FBF9F81FFA8CFE09FB18551C0C00
:100DB00044EA054408FB0EF5A54202FA01F200FAE6
:100DC00001F00BD91CEB040408F1FF3A80F0888095
:100DD000A54240F28580A8F102086444641B9DB2DC
:100DE000B4FBF9F309FB134445EA044403FB0EFE8C
:100DF000A64508D91CEB040403F1FF356CD2A645C7
:100E00006AD9023B644443EA0843A3FB0295A4EB7E
:100E10000E04AC42C846AE4656D353D056B1B0EBE2
:100E2000080264EB0E0404FA07F7CA40CC401743EB
:100E3000C6E9007418460021BDE8F087C3F120011F
:100E400002FA03FC20FA01F225FA01F19D402A433F
:100E50004FEA1C471FFA8CFEB1FBF7F007FB101599
:100E6000110C41EA054100FB0EF58D4204FA03F432
:100E700008D91CEB010100F1FF382FD28D422DD98A
:100E800002386144491B92B2B1FBF7F507FB15111B
:100E900042EA014205FB0EF1914208D91CEB020225
:100EA00005F1FF3816D2914214D9023D6244521A1C
:100EB00045EA004138E73146304608E73946E6E67C
:100EC0001046FBE64845A9D2B9EB020865EB0C0ECB
:100ED000013BA3E74546EAE72B4694E74046D1E7C6
:100EE000D0467BE7023D624432E708460AE76444A5
:100EF000023842E7704700BF80B582B000AF04F00F
:100F0000C1FA00F067F900F05DFC00F031FC00F080
:100F1000BFF900F083FB00F087FA00F0E7F900F07A
:100F2000D7FA00F045FB0CF049FA00230322002118
:100F30006F480BF06CFF0C216E4806F027FC002177
:100F40006D4806F023FC04216B4806F01FFC3C2191
:100F50006A4806F0B9FF6A4B1B789BB21A4669498A
:100F6000694808F0CAF9694806F0DEFA04216848C1
:100F700006F02EFD5F4B1B6891221A644FF49670A9
:100F800004F0C2FA634B64221A70624B0A225A8040
:100F9000614B00221A70604B00225A705F4B1A7826
:100FA0005D4B9A7000237B600CE064233B70002350
:100FB0007B80594A7B689B0013443A685A607B687F
:100FC00001337B60554B1B781A467B689342ECDB00
:100FD0009FED531ADFED530A9FED530A534801F07A
:100FE0003BF99FED4F1ADFED4F0A9FED4F0A504836
:100FF00001F032F99FED4F1ADFED4F0A9FED4F0AD6
:101000004F4801F029F93E4B1B789BB21A463D49E7
:101010003D4808F072F9374B1B6891221A644FF46F
:10102000967004F071FA09F045F9464A00214648E5
:1010300009F08AF90346454A1360454A00214548AC
:1010400009F082F90346444A1360444A00214448A7
:1010500009F07AF90346434A1360434A00214348A2
:1010600009F072F90346424A1360424A002142489D
:1010700009F06AF90346414A1360414A0021414898
:1010800009F062F90346404A1360404A0021404893
:1010900009F05AF903463F4A13603F4A00213F488E
:1010A00009F052F903463E4A13603E4A00213E4889
:1010B00009F04AF903463D4A13603D4A00213D4884
:1010C00009F042F903463C4A13603C4A00213C487F
:1010D00009F03AF903463B4A13603B4A00213B487A
:1010E00009F032F903463A4A136009F007F9FEE7BE
:1010F000BC01002010020020300300205802002014
:1011000000000020EC03002078030020E80200200B
:10111000A00200202C040020F80300200100002081
:10112000CDCC4C3FEC51383D666606407C04002037
:10113000680400209A99993ECDCC4C3DCDCC8C3F93
:101140009004002004DF0008A1300008BC03002048
:1011500028DF000871310008C00300204CDF0008C0
:10116000B9310008C403002070DF0008F133000823
:10117000C803002094DF00083D360008CC0300209F
:10118000B8DF0008753A0008D0030020DCDF000853
:10119000AD3E0008D403002000E00008E54200084E
:1011A000D803002024E000081D470008DC030020CD
:1011B00048E00008F1470008E00300206CE0000868
:1011C000094D0008E403002090E00008F94D0008F4
:1011D000E803002080B594B000AF07F1200330226F
:1011E000002118460CF0AAF907F10C0300221A603E
:1011F0005A609A60DA601A610023BB60224B1B6C54
:10120000214A43F0805313641F4B1B6C03F080533F
:10121000BB60BB6800237B601C4B1B681B4A43F40C
:1012200080431360194B1B6803F480437B607B6829
:1012300002233B620123FB6210233B630023BB6359
:1012400007F12003184605F095FC0346002B01D05A
:1012500003F0ECFD0F23FB6000233B6100237B6167
:101260000023BB610023FB6107F10C03002118463A
:1012700005F0F8FE0346002B01D003F0D7FD00BFB8
:101280005037BD4680BD00BF0038024000700040AE
:1012900080B500AF124B134A1A60114B124A5A60C4
:1012A0000F4B00229A600E4B0022DA600C4B4FF479
:1012B00080421A610A4B00225A61094B00229A614E
:1012C000074B0022DA61064B00221A62044804F040
:1012D00069FC0346002B01D003F0A8FD00BF80BDD0
:1012E000BC01002000540040A086010080B596B0EB
:1012F00000AF07F1480300221A605A609A60DA6072
:1013000007F1400300221A605A6007F1240300220B
:101310001A605A609A60DA601A615A619A613B1DDC
:101320002022002118460CF009F93D4B3D4A1A6075
:101330003B4BA0225A603A4B00229A60384B4FF444
:101340007A72DA60364B00221A61354B00225A61FC
:10135000334B80229A61324806F096F80346002B00
:1013600001D003F063FD4FF48053BB6407F14803E1
:1013700019462B4807F09CF80346002B01D003F0D8
:1013800055FD274806F0A8F90346002B01D003F0CD
:101390004DFD00233B6400237B6407F140031946A5
:1013A0001F4807F0E9FD0346002B01D003F03EFD86
:1013B00060237B620023BB620023FB6200237B630C
:1013C0000023BB630023FB6307F124030C221946AF
:1013D000134806F0ABFF0346002B01D003F026FDB7
:1013E00000237B600023BB600023FB6000233B6184
:1013F00000237B614FF40053BB6100233B623B1D24
:101400001946074807F034FE0346002B01D003F0CD
:101410000DFD034803F0A4FE00BF5837BD4680BD54
:10142000100200200000014080B58CB000AF07F131
:101430000C032422002118460CF080F83B1D0022EA
:101440001A605A60214B4FF080421A601F4B0022F5
:101450005A601E4B00229A601C4B4FF0FF32DA603C
:101460001A4B00221A61194B00229A610323FB6078
:1014700000233B6101237B610023BB610A23FB61E5
:1014800000233B6201237B620023BB620A23FB62D1
:1014900007F10C0319460D4806F070FC0346002BBB
:1014A00001D003F0C3FC00237B600023BB603B1D25
:1014B0001946064807F060FD0346002B01D003F0F3
:1014C000B5FC00BF3037BD4680BD00BF58020020CC
:1014D00080B58AB000AF07F1180300221A605A6085
:1014E0009A60DA6007F1100300221A605A603B46E6
:1014F00000221A605A609A60DA602B4B2B4A1A60FD
:10150000294B0F225A60284B00229A60264B4FF637
:10151000FF72DA60244B00221A61234B00229A6189
:10152000214805F0B1FF0346002B01D003F07EFCFB
:101530004FF48053BB6107F1180319461A4806F0AF
:10154000B7FF0346002B01D003F070FC164806F0ED
:10155000E5F90346002B01D003F068FC00233B6152
:1015600000237B6107F1100319460F4807F004FDC3
:101570000346002B01D003F059FC0A233B600123F2
:101580007B600023BB600023FB603B4604221946BE
:10159000054806F02FFE0346002B01D003F046FC61
:1015A00000BF2837BD4680BDA002002000040040D7
:1015B00080B582B000AF3B4600221A605A60154BDE
:1015C000154A1A60134B0F225A60124B00229A6080
:1015D000104B4FF6FF72DA600E4B00229A610D48F5
:1015E00005F052FF0346002B01D003F01FFC00233F
:1015F0003B6000237B603B461946064807F0BCFC75
:101600000346002B01D003F011FC00BF0837BD4694
:1016100080BD00BFE80200200010004080B596B0F9
:1016200000AF07F1480300221A605A609A60DA603E
:1016300007F1400300221A605A6007F124030022D8
:101640001A605A609A60DA601A615A619A613B1DA9
:101650002022002118460BF071FF434B434A1A60C9
:10166000414B00225A60404B00229A603E4B41F6AB
:101670001F42DA603C4B00221A613B4B00225A6148
:10168000394B00229A61384805F0FEFE0346002BD4
:1016900001D003F0CBFB4FF48053BB6407F1480348
:1016A0001946314806F004FF0346002B01D003F031
:1016B000BDFB2D4806F010F80346002B01D003F0C7
:1016C000B5FB00233B6400237B6407F1400319460C
:1016D000254807F051FC0346002B01D003F0A6FB80
:1016E00060237B620023BB620023FB6200233B6319
:1016F00000237B630023BB630023FB6307F1240308
:1017000000221946184806F011FE0346002B01D0AE
:1017100003F08CFB07F1240304221946124806F05B
:1017200005FE0346002B01D003F080FB00237B6005
:101730000023BB600023FB6000233B6100237B612F
:101740004FF40053BB6100233B623B1D1946064822
:1017500007F08EFC0346002B01D003F067FB00BFAF
:101760005837BD4680BD00BF300300200004014053
:1017700080B500AF114B124A1A60104B4FF4E132A2
:101780005A600E4B00229A600C4B0022DA600B4B21
:1017900000221A61094B0C225A61084B00229A61FF
:1017A000064B0022DA61054807F0C8FC0346002B0F
:1017B00001D003F03BFB00BF80BD00BF78030020D9
:1017C0000048004080B58AB000AF07F11403002242
:1017D0001A605A609A60DA601A6100233B61384BE4
:1017E0001B6B374A43F010031363354B1B6B03F03D
:1017F00010033B613B690023FB60314B1B6B304A9C
:1018000043F0010313632E4B1B6B03F00103FB60DA
:10181000FB680023BB602A4B1B6B294A43F004037F
:101820001363274B1B6B03F00403BB60BB680023EF
:101830007B60234B1B6B224A43F002031363204B54
:101840001B6B03F002037B607B6800224FF45E6138
:101850001C4804F08DF900223C211B4804F088F953
:101860004FF45E637B610123BB610023FB610023B6
:101870003B6207F114031946124803F0DDFF0C2305
:101880007B610123BB610023FB6102233B6207F103
:10189000140319460C4803F0CFFF30237B6101236A
:1018A000BB610023FB6100233B6207F1140319466F
:1018B000054803F0C1FF00BF2837BD4680BD00BF0B
:1018C000003802400010024000000240000000000A
:1018D00080B582B000AF78607B681B7F022B40F040
:1018E0008C804B4B1B78002B1AD10421786806F0B2
:1018F000A7FE0346474A1360454B01221A707B68D6
:101900001B681A6A7B681B6822F0A0021A627B6857
:101910001B681A6A7B681B6842F020021A626CE03E
:101920003B4B1B78012B68D10421786806F088FEB8
:101930000346394A13607B681B6800225A62364BA3
:101940001A68344B1B689A420CD9334B1A68314BD6
:101950001B68D31A07EE903AF8EE677A2F4BC3ED67
:10196000007A14E02B4B1A682B4B1B689A420ED955
:10197000294B1A68274B1B68D31A03F57F43FF33A3
:1019800007EE903AF8EE677A244BC3ED007A234BCA
:101990001B681846FEF7D0FD1BA3D3E90023FEF712
:1019A00023FE02460B46104619464FF000024FF048
:1019B0008043FEF743FF02460B4610461946FFF7E9
:1019C000CDF80346154A1360114B00221A707B684C
:1019D0001B681A6A7B681B6822F0A0021A627B6887
:1019E0001A687B681B68126A1A620D4B1B68DA68FA
:1019F0000B4B1B6822F00402DA6000BF0837BD46BB
:101A000080BD00BFAFF300809CC420B07268A13FCE
:101A1000B0040020A8040020AC040020A40400208E
:101A2000A002002080B584B000AF7860944B9B7812
:101A3000A3F1300213469B0013445B001A46904BFF
:101A4000DB78303B1344FB608D4B1B792F2B0ED979
:101A50008B4B1B79392B0AD8FA6813469B00134429
:101A60005B001A46864B1B79303B1344FB60854B69
:101A700000221A70824B1B78532B59D1804B5B7814
:101A8000542B55D1804B1B6800225A637E4B1B6838
:101A900000229A637D4B1A787D4B1A707B4B0B2288
:101AA0001A707C4B4FF000021A607B4B00221A80A8
:101AB0007A4800F0F2FB7A4800F0EFFB794800F03A
:101AC000ECFB794B00221A80784B1A78774B5B78C5
:101AD0009A4212D1764B64221A70754B00225A80BA
:101AE000744A0F2174480BF0F5FC4FF6FF73062281
:101AF0007249734807F06FFB71E36C4B5B786C4A7B
:101B00006A499B000B445B681360684B5B78013348
:101B1000664A927893FBF2F101FB02F29B1ADAB269
:101B2000624B5A70674A0F2163480BF0D3FC56E3AF
:101B3000534B1B78522B61D1514B5B78532B5DD1AA
:101B4000514B1B6800225A634F4B1B6800229A635B
:101B50004E4B1A784E4B1A704C4B0B221A704D4B51
:101B60004FF000021A604C4B00221A80564B1B6843
:101B700091221A644FF4967003F0C6FC474800F0B7
:101B80008CFB474800F089FB464800F086FB464B3B
:101B900000221A80454B1A78444B5B789A4212D146
:101BA000434B64221A70424B00225A80414A0F2153
:101BB00041480BF08FFC4FF6FF7306223F49404827
:101BC00007F009FB0BE3394B5B78394A37499B0037
:101BD0000B445B681360354B5B780133334A927872
:101BE00093FBF2F101FB02F29B1ADAB22F4B5A700F
:101BF000344A0F2130480BF06DFCF0E2204B1B788B
:101C0000462B65D11E4B5B78572B03D01C4B5B7862
:101C1000532B5DD11A4B9B782D2B05D1184BDB78BC
:101C20002D2B01D1012300E00023DAB2154B1A70ED
:101C3000134B5B78532B14BF01230023DBB21A46EE
:101C4000224B1A70194B1B78184A9B00134401222F
:101C50001A71164B1B78FA6891B2144A9B00134410
:101C60000A46DA80114B1B780133104A927893FBB5
:101C7000F2F101FB02F29B1ADAB20C4B1A70AEE2DF
:101C8000EC03002040040020300300203401002039
:101C900035010020480400204E0400207C04002070
:101CA000680400209004002060040020F803002055
:101CB0002C040020D4DE000830040020DCDE000804
:101CC00078030020E4DE0008100200203601002026
:101CD000964B1B78422B3DD1944B5B78572B03D00E
:101CE000924B5B78532B35D1904B9B782D2B05D1A4
:101CF0008E4BDB782D2B01D1012300E00023DAB2DB
:101D00008B4B1A70894B5B78532B14BF0123002334
:101D1000DBB21A46874B1A70874B1B78864A9B00AA
:101D2000134402221A71844B1B78FA6891B2824ADA
:101D30009B0013440A46DA807F4B1B7801337E4AAE
:101D4000927893FBF2F101FB02F29B1ADAB27A4B22
:101D50001A7044E2754B1B78462B36D1734B5B7877
:101D60004C2B32D1714B9B782D2B05D16F4BDB78EF
:101D70002D2B01D1012300E00023DAB26C4B1A7045
:101D80006B4B1B78002B01D0032100E007216A4B2D
:101D90001B78694A9B0013440A461A71664B1B78EC
:101DA000FA6891B2644A9B0013440A46DA80624B97
:101DB0001B780133604A927893FBF2F101FB02F247
:101DC0009B1ADAB25C4B1A7009E2584B1B78462B0F
:101DD00036D1564B5B78522B32D1544B9B782D2BFE
:101DE00005D1524BDB782D2B01D1012300E00023DC
:101DF000DAB24F4B1A704E4B1B78002B01D00421E6
:101E000000E008214C4B1B784B4A9B0013440A46C8
:101E10001A71494B1B78FA6891B2474A9B001344E8
:101E20000A46DA80444B1B780133434A927893FB8D
:101E3000F2F101FB02F29B1ADAB23F4B1A70CEE1CB
:101E40003A4B1B78422B36D1384B5B784C2B32D136
:101E5000364B9B782D2B05D1344BDB782D2B01D1C4
:101E6000012300E00023DAB2314B1A70304B1B78AB
:101E7000002B01D0052100E009212F4B1B782E4AB1
:101E80009B0013440A461A712B4B1B78FA6891B2D7
:101E9000294A9B0013440A46DA80274B1B780133FA
:101EA000254A927893FBF2F101FB02F29B1ADAB217
:101EB000214B1A7093E11D4B1B78422B3ED11B4BDB
:101EC0005B78522B3AD1194B9B782D2B05D1174BB0
:101ED000DB782D2B01D1012300E00023DAB2144B73
:101EE0001A70134B1B78002B01D0062100E00A2149
:101EF000114B1B78104A9B0013440A461A710E4B73
:101F00001B78FA6891B20C4A9B0013440A46DA80A7
:101F1000094B1B780133084A927893FBF2F101FBDD
:101F200002F29B1ADAB2044B1A7058E1EC0300205B
:101F30004004002036010020F8030020954B1B7858
:101F4000542B21D1934B5B784C2B1DD1924B1B789A
:101F5000914A9B0013440B221A718F4B1B78FA682D
:101F600091B28D4A9B0013440A46DA808A4B1B7853
:101F70000133894A927893FBF2F101FB02F29B1A3A
:101F8000DAB2854B1A702AE1824B1B78542B21D18F
:101F9000804B5B78522B1DD17F4B1B787E4A9B0078
:101FA00013440C221A717C4B1B78FA6891B27A4A5E
:101FB0009B0013440A46DA80774B1B780133764A3C
:101FC000927893FBF2F101FB02F29B1ADAB2724BA8
:101FD0001A7004E16F4B1B78492B21D16D4B5B7854
:101FE000522B1DD16C4B1B786B4A9B0013440D2266
:101FF0001A71694B1B78FA6891B2674A9B001344C7
:102000000A46DA80644B1B780133634A927893FB6B
:10201000F2F101FB02F29B1ADAB25F4B1A70DEE0BA
:102020005C4B1B78442B21D15A4B5B78542B1DD130
:10203000594B1B78584A9B0013440E221A71564B79
:102040001B78FA6891B2544A9B0013440A46DA801E
:10205000514B1B780133504A927893FBF2F101FB0C
:1020600002F29B1ADAB24C4B1A70B8E0494B1B785B
:102070005A2B21D1474B5B785A2B1DD1464B1B78ED
:10208000454A9B0013440F221A71434B1B78FA6890
:1020900091B2414A9B0013440A46DA803E4B1B78BA
:1020A00001333D4A927893FBF2F101FB02F29B1A55
:1020B000DAB2394B1A7092E0364B1B78572B21D18C
:1020C000344B5B78582B1DD1334B1B78324A9B0025
:1020D000134410221A71304B1B78FA6891B22E4AC1
:1020E0009B0013440A46DA802B4B1B7801332A4AA3
:1020F000927893FBF2F101FB02F29B1ADAB2264BC3
:102100001A706CE0234B1B78572B21D1214B5B7845
:102110004E2B1DD1204B1B781F4A9B0013441122CC
:102120001A711D4B1B78FA6891B21B4A9B0013442D
:102130000A46DA80184B1B780133174A927893FBD2
:10214000F2F101FB02F29B1ADAB2134B1A7046E06D
:10215000104B1B78412B21D10F4B1B780E4A9B0053
:10216000134458221A710C4B1B78FA6891B20A4A30
:102170009B0013440A46DA80074B1B780133064A5A
:10218000927893FBF2F101FB02F29B1ADAB2024B56
:102190001A7024E0EC030020F8030020274B1B7882
:1021A000432B1CD1264B1B78254A9B0013445922F4
:1021B0001A71234B1B78FA6891B2214A9B00134491
:1021C0000A46DA801E4B1B7801331D4A927893FB36
:1021D000F2F101FB02F29B1ADAB2194B1A70184B9A
:1021E0001A78174B5B789A4219D0154B5B78154AD1
:1021F00013499B000B445B681360114B5B78013300
:102200000F4A927893FBF2F101FB02F29B1ADAB2C9
:102210000B4B5A700C4A0F210C480BF05BF90C4B1E
:102220001B685B680B4B1B789BB21A460349084836
:1022300007F063F800BF1037BD4680BDEC030020F7
:10224000F80300202C040020E4DE00083004002005
:10225000780300200000002080B485B000AFF86053
:1022600087ED020AC7ED010A87ED001AFB68BA681C
:102270001A60FB687A685A60FB683A689A60FB6883
:102280004FF00002DA60FB684FF000021A6100BFF5
:102290001437BD465DF8047B704780B483B000AF4F
:1022A00078607B684FF00002DA607B684FF00002D4
:1022B0001A6100BF0C37BD465DF8047B7047000013
:1022C00080B500AF00224FF400611A4803F050FCC3
:1022D000194B1B6800225A62174B1B685B6A312B33
:1022E000FAD901224FF40061124803F041FC124B6D
:1022F0001B6800225A62104B1B685B6A092BFAD9D3
:1023000000224FF400610B4803F032FC0A4B1B68BB
:1023100000225A62084B1B685B6A312BFAD9074BC3
:102320001B68DA68054B1B6842F00402DA6000BFE4
:1023300080BD00BF00100240E8020020A002002083
:1023400080B586B004AF0346FB714FF6FF7302936E
:1023500002230193A94B009301233722D021A848DF
:1023600003F05EFEA54B1B781B021AB2A34B5B78F1
:102370001BB213431AB2A34B1A80A34B1B681B68F2
:1023800003F01003102B0CBF01230023DBB25AB261
:102390009E4B1A709B4BB3F9003013F1040F04DB12
:1023A000984BB3F900300B2B07DD964BB3F9003097
:1023B00007EE903AF8EEE77A01E0DFED957A954B7B
:1023C00093ED007A77EE877A924BC3ED007AFB7932
:1023D000002B64D1904B93ED007A8E4BD3ED007AB5
:1023E00027EE277A8C4BD3ED016A8B4BD3ED047A21
:1023F00066EEA77A37EE277A874BD3ED026A864BD3
:1024000093ED036A834BD3ED007A76EE677A66EE3E
:10241000A77A77EE277AFDEEE77A17EE902A7F4BC0
:102420001A607C4B1B687C4AD3607B4B93ED047A2B
:10243000784BD3ED007A77EE277A774BC3ED047AA9
:10244000764B1B68B3F5167F06DC744B1B68744A29
:102450009342B8BF134601E04FF416736F4A1360FE
:102460006A4B93F900309AB26C4B1B689BB212FB1B
:1024700003F39BB203F596639AB26A4B1A80634BDF
:1024800093F900309AB2654B1B689BB212FB03F3C1
:102490009BB2C3F596639AB2634B1A80EFE0FB7967
:1024A000022B65D1614B93ED007A5A4BD3ED007A44
:1024B00027EE277A5D4BD3ED016A5C4BD3ED047AAE
:1024C00066EEA77A37EE277A584BD3ED026A574B60
:1024D00093ED036A4F4BD3ED007A76EE677A66EEA2
:1024E000A77A77EE277AFDEEE77A17EE902A4B4B24
:1024F0001A60484B1B684D4AD3604C4B93ED047AED
:10250000444BD3ED007A77EE277A484BC3ED047A3B
:10251000424B1B68B3F52F7F06DC404B1B68444AD7
:102520009342B8BF134601E04FF42F733B4A136048
:10253000364B93F900309AB2384B1B689BB212FBB2
:1025400003F39BB203F6B8339AB2364B1A802F4B83
:1025500093F900309AB2314B1B689BB212FB03F324
:102560009BB2C3F53B6308339AB22F4B1A8086E0C7
:10257000FB79012B40F083802E4B93ED007A254BA5
:10258000D3ED007A27EE277A2A4BD3ED016A294B47
:10259000D3ED047A66EEA77A37EE277A254BD3ED92
:1025A000026A244B93ED036A1A4BD3ED007A76EE60
:1025B000677A66EEA77A77EE277AFDEEE77A17EE6E
:1025C000902A164B1A60134B1B681A4AD360194B9A
:1025D00093ED047A0F4BD3ED007A77EE277A154B03
:1025E000C3ED047A0D4B1B68B3F52F7F24DC0B4B36
:1025F0001B680F4A9342B8BF13461FE04C040020EB
:10260000BC0100204E040020580200203C010020A4
:1026100000000000480400207C040020B8040020D2
:10262000A8FDFFFF50040020520400209004002069
:1026300044FDFFFF680400204FF42F73174A136016
:10264000174B93F900309AB2144B1B689BB212FBE4
:1026500003F39BB203F6FC039AB2124B1A80104BA1
:1026600093F900309AB20D4B1B689BB212FB03F337
:102670009BB2C3F50F630C339AB20B4B1A80094B14
:102680001A880A4B1B685A63074B1A88074B1B684A
:102690009A6300BF0837BD4680BD00BFB804002064
:1026A0003C01002050040020520400203003002090
:1026B00080B584B000AF78600B46FB701346BB70EA
:1026C000A14B4FF000021A60A04B00221A80A048D4
:1026D000FFF7E3FD9F48FFF7E0FD9F48FFF7DDFDB3
:1026E0009E4B00221A807B681B681846FDF724FF6A
:1026F0008FA3D3E90023FDF777FF02460B46104670
:1027000019468DA3D3E90023FDF7B6FD02460B461B
:10271000104619464FF00002914BFEF78FF8024623
:102720000B46104619464FF000028E4BFDF75CFF3A
:1027300002460B46104619464FF000028A4BFDF741
:102740009BFD02460B4610461946FEF7E7F9034685
:102750009AB2864B1A8002F0CBFE0346844A13607D
:10276000FB78002B0CBF01230023DBB21A460421A7
:10277000804803F0FDF9FB78002B14BF01230023F0
:10278000DBB21A4608217B4803F0F2F9FB78002BF4
:102790000CBF01230023DBB21A462021754803F049
:1027A000E7F9FB78002B14BF01230023DBB21A46A4
:1027B0001021704803F0DCF96F4B1B685B6A9AB21A
:1027C0006E4B1A806C4B1B685B6AFB606A4B1B6824
:1027D0001B6803F01003102B17D1684B1B881A4697
:1027E000FB68934206D8654B1A88FB689BB2D31AE4
:1027F0009BB207E0614B1A88FB689BB2D31A9BB26D
:10280000013B9BB25E4A138016E05C4B1B881A4664
:10281000FB68934206D3FB689AB2584B1B88D31AC5
:102820009BB207E0FB689AB2544B1B88D31A9BB249
:10283000013B9BB2524A1380FB689AB24F4B1A80FD
:10284000464B1A884E4B1B8813449AB2434B1A804E
:102850000A2007F00BFE414B1A88444B1B889A4212
:1028600080F0A58002F044FE0246414B1B68D31A5B
:10287000092BA7D9BB78002B03D10020FFF760FDFF
:102880008FE0364B1B881A46384B1B88D31A002B17
:10289000B8BF5B423B4A82FB03125212DB17D31ACA
:1028A00007EE903AF8EEE77A374BC3ED007ABB7843
:1028B000012B1ED1344BD3ED007AB7EE007AF4EE43
:1028C000C77AF1EE10FA02DD4FF07E530EE02E4B88
:1028D000D3ED007AB6EE087AF4EEC77AF1EE10FA8C
:1028E00002D54FF07D5301E0274B1B68264A136049
:1028F00052E0BB78022B4FD1234BD3ED007AB7EED9
:10290000007AF4EEC77AF1EE10FA02DD4FF07E5352
:1029100040E01D4B1B681846FDF70EFE08A3D3E9E7
:102920000023FEF7D3F80346002B31D0174B31E0DC
:102930002AB266FCAC66F23FF82625BBD4E3EE3F34
:102940009A9999999999D93F480400204E040020FA
:102950007C04002068040020900400206004002013
:102960000000344000A09440000024406204002095
:102970005404002000000240580200206604002099
:10298000640400207307287738010020CDCCCC3EAA
:102990000D4B1B680C4A1360BB780B49184600F0BE
:1029A00019F802F0A5FD0346084A13600AE700BFC4
:1029B000074B1B6800225A63054B1B6800229A6371
:1029C00000BF1037BD4680BD3801002054040020F0
:1029D0003003002080B586B004AF03463960FB7138
:1029E0004FF6FF730293022301939B4B0093012345
:1029F0003722D021994803F013FB974B1B781B0219
:102A00001AB2954B5B781BB213431AB2944B1A80DF
:102A1000944B1B681B6803F01003102B01D101229B
:102A200001E04FF0FF32904B1A708D4BB3F900303C
:102A300013F1040F04DB8A4BB3F900300B2B07DDD5
:102A4000874BB3F9003007EE903AF8EEE77A01E0F1
:102A5000DFED867A864B93ED007A77EE877A844BAA
:102A6000C3ED007AFB79012B65D1824B93ED007A9F
:102A70007F4BD3ED007A27EE277A7E4BD3ED016AA8
:102A80007C4BD3ED047A66EEA77A37EE277A794B42
:102A9000D3ED026A774B93ED036A754BD3ED007A61
:102AA00076EE677A66EEA77A77EE277AFDEEE77A1A
:102AB00017EE902A704B1A606D4B1B686D4AD360FD
:102AC0006C4B93ED047A6A4BD3ED007A77EE277A5C
:102AD000684BC3ED047A684B1B68B3F52F7F06DCA7
:102AE000654B1B68654A9342B8BF134601E04FF43B
:102AF0002F73614A13605C4B93F900309AB25E4BBE
:102B00001B689BB212FB03F39BB203F6FC039AB261
:102B10005B4B1A80544B93F900309AB2564B1B68AA
:102B20009BB212FB03F39BB2C3F50F630C339AB253
:102B3000544B1A8067E0FB79022B64D1524B93ED22
:102B4000007A4B4BD3ED007A27EE277A4E4BD3ED2C
:102B5000016A4D4BD3ED047A66EEA77A37EE277AF9
:102B6000494BD3ED026A484B93ED036A404BD3EDDA
:102B7000007A76EE677A66EEA77A77EE277AFDEE30
:102B8000E77A17EE902A3C4B1A60394B1B683E4A95
:102B9000D3603D4B93ED047A354BD3ED007A77EE5D
:102BA000277A394BC3ED047A334B1B68B3F52F7F7B
:102BB00006DC314B1B68314A9342B8BF134601E033
:102BC0004FF42F732C4A1360274B93F900309AB2BD
:102BD000294B1B689BB212FB03F39BB203F6B8337D
:102BE0009AB2274B1A80204B93F900309AB2224BAD
:102BF0001B689BB212FB03F39BB2C3F53B63083324
:102C00009AB2204B1A801E4B1B8807EE903AB8EE02
:102C1000E77A3B68D3ED007A67EE277A1B4B1B6897
:102C2000FCEEE77A17EE902A5A63164B1B8807EEE4
:102C3000903AB8EEE77A3B68D3ED007A67EE277AF0
:102C4000124B1B68FCEEE77A17EE902A9A6300BFDE
:102C50000837BD4680BD00BF4C040020BC010020E9
:102C60004E040020580200203C010020000000001B
:102C70004804002068040020B804002044FDFFFF41
:102C80005004002052040020900400203003002053
:102C9000B0B586B004AF78604B4B4FF000021A60BD
:102CA0004A4B00221A8002F023FC0346484A136074
:102CB00002F01EFC0246464B1B68D31A092BF7D9BB
:102CC0004FF6FF73029302230193424B00930123BB
:102CD0003722D021404803F0A3F93E4B1B781B025A
:102CE0001AB23C4B5B781BB213431AB2374B1A80B3
:102CF000354B1B681846FDF71FFC04460D46334B49
:102D0000B3F900301846FDF705FC2BA3D3E90023E7
:102D1000FDF794FD02460B461046194628A3D3E959
:102D20000023FDF761FC02460B4620462946FDF7CD
:102D3000A5FA02460B4610461946FDF70FFF03465B
:102D4000214A1360204B93ED007A7B68D3ED007A23
:102D500077EE677AFDEEE77A17EE903A002B0DDBFF
:102D6000194B93ED007A7B68D3ED007A77EE677AA2
:102D7000FDEEE77A17EE903A002B05DD02F0B8FB86
:102D80000346134A136093E700BF144B1B680022ED
:102D90005A63124B1B6800229A63114B1B689122E5
:102DA0001A644FF4967002F0AFFB00BF0837BD46BF
:102DB000B0BD00BFAFF300806666666666663040F1
:102DC0007B14AE47E17A843F480400204E04002083
:102DD000540400204C040020BC01002030030020DB
:102DE000100200200000000080B582B000AF7860C3
:102DF0000B46FB709C4B4FF000021A609B4B00226D
:102E00001A809B48FFF749FA9A48FFF746FA9A4812
:102E1000FFF743FA994B9A4A1A600421994804F043
:102E2000D7FD02F065FB0346974A1360FFF748FAA7
:102E30000A2007F01BFB7B6893ED007A8F4BD3EDE4
:102E4000007A77EE677AFDEEE77A17EE903A002B7C
:102E50000EDB7B6893ED007A884BD3ED007A77EE3A
:102E6000677AFDEEE77A17EE903A002B40F3E680A2
:102E70007B6893ED007A814BD3ED007AB4EEE77A6C
:102E8000F1EE10FA94BF01230023DBB283F00103BB
:102E9000DBB2DBB21A4604217C4802F069FE7B6893
:102EA00093ED007A754BD3ED007AB4EEE77AF1EE4C
:102EB00010FA94BF01230023DBB21A46082173489D
:102EC00002F056FE7B6893ED007A6C4BD3ED007AEE
:102ED000B4EEE77AF1EE10FA94BF01230023DBB2DF
:102EE00083F00103DBB2DBB21A462021674802F00F
:102EF0003FFE7B6893ED007A604BD3ED007AB4EE31
:102F0000E77AF1EE10FA94BF01230023DBB21A46F0
:102F100010215E4802F02CFE02F0EAFA02465A4BFB
:102F20001B68D31A132B81D9FB78012B3FD1534B4C
:102F300093ED007A7B68D3ED007A77EE677AFDEE49
:102F4000E77A17EE903A002BB8BF5B42504A82FBFB
:102F500003121A44D210DB17D31A07EE903AF8EE98
:102F6000E77A4C4BC3ED007A4A4BD3ED007AB7EECB
:102F7000007AF4EEC77AF1EE10FA02DD4FF07E53DC
:102F80000EE0444BD3ED007AB6EE087AF4EEC77A41
:102F9000F1EE10FA02D54FF07D5301E03D4B1B6876
:102FA0003C4A13603B490120FFF714FD40E0334BDE
:102FB00093ED007A7B68D3ED007A77EE677AFDEEC9
:102FC000E77A17EE903A002BB8BF5B42304A82FB9B
:102FD00003121A44D210DB17D31A07EE903AF8EE18
:102FE000E77A2C4BC3ED007A2A4BD3ED007AB7EE8B
:102FF000007AF4EEC77AF1EE10FA02DD4FF07E535C
:1030000010E0244B1B681846FDF796FA14A3D3E989
:103010000023FDF75BFD0346002B01D01E4B01E0B2
:103020001C4B1B681B4A13601A490220FFF7D2FC95
:1030300002F05EFA0346144A1360F7E600BF174B2E
:103040001B6800225A63154B1B6800229A630421F7
:103050000C4804F0E5FD00BF0837BD4680BD00BF49
:103060009A9999999999D93F480400204E040020D3
:103070007C0400206804002090040020A4040020A8
:1030800000007A44A0020020540400200000024006
:103090008988888838010020CDCCCC3E30030020C0
:1030A00080B58EB000AF786000237B630023BB62E5
:1030B00000233B630023FB622A4B1B685B6A7B6334
:1030C00002F016FAF862274B1B681B6803F0100326
:1030D000102B0CBF01230023DBB25AB2224B1A7013
:1030E00002F006FA0246FB6AD31AB3F57A7F35D9A5
:1030F0001C4B1B685B6ABB621A4B1B681B6803F0A6
:103100001003102B10D1BA6A7B6B9A4204DA7A6BE7
:10311000BB6AD31A3B6317E0BB6AC3F57F43FF3337
:103120007A6B13443B630FE0BA6A7B6B9A4204DD0F
:10313000BA6A7B6BD31A3B6306E07B6BC3F57F43B4
:10314000FF33BA6A13443B63084A3B6B1360054B79
:103150001B685B6A7B6302F0CBF9F862642007F0BE
:1031600085F9BDE7580200203C01002058040020EA
:1031700080B584B002AF78600D4A282100200AF0A3
:10318000EBF8FFF79DF80B4BD3ED007AFCEEE77AF6
:103190000C230093052317EE902A002100200AF04B
:1031A0006DF809F0DBFE4FF47A7007F05FF9E3E7A2
:1031B000EC030020A404002080B582B000AF78604A
:1031C000754B1B78002B03D0642007F04FF9F7E70D
:1031D000724B4FF000021A60714B00221A80714B43
:1031E0001B78002B62D0704B4FF000021A606F4BBF
:1031F00000221A806E48FFF750F86E48FFF74DF82E
:103200006D48FFF74AF8002204216C4802F0B0FC38
:1032100001220821694802F0ABFC00222021674806
:1032200002F0A6FC01221021644802F0A1FC644BCC
:103230001B6800225A63624B1B6800229A63564B3C
:103240001A78604B1A70544B0B221A705E4B002296
:103250001A605E4B64221A705C4B00225A805C4AF2
:103260000F215C480AF036F94FF6FF7306225A49DF
:103270005A4805F0B0FF02F03BF90346584A136084
:10328000484B1B78002B00F0858002F031F9024694
:10329000534B1B68D31A092BF2D90020FFF750F8C3
:1032A00002F026F903464E4A1360E9E7474B5B8874
:1032B00007EE903AF8EE677A384BC3ED007A374B59
:1032C000D3ED007AB2EE0E7AF4EEC77AF1EE10FA90
:1032D00002D8444B00221A70424B1B78002B05D1B8
:1032E000012201212D48FFF7E3F904E00222012128
:1032F0002A48FFF7DDF9324B1B6800225A63304B36
:103300001B6800229A63244B1A782E4B1A70224BAA
:103310000B221A702C4B00221A60334B1A78324B56
:103320005B789A421BD1294B64221A70274B0022EA
:103330005A80194B1B7819464FF6FF73062227480F
:1033400005F049FF224A0F2122480AF0C3F84FF640
:10335000FF7306222049214805F03DFF30E7224B4C
:103360005B781A4A20499B000B445B6813601E4B34
:103370005B7801331C4A927893FBF2F101FB02F275
:103380009B1ADAB2184B5A70184A0F2111480AF0EA
:10339000A1F815E700BF13E7340100205C0400200A
:1033A0006204002040040020480400204E04002055
:1033B0007C040020680400209004002000000240EB
:1033C0003003002035010020B40400202C0400202C
:1033D000D4DE000830040020DCDE00087803002082
:1033E0005404002036010020F8030020E4DE000829
:1033F00080B582B000AF78607A4B1B78012B03D088
:10340000642007F033F8F7E7774B4FF000021A60BB
:10341000764B00221A80764B1B78002B62D0754BBE
:103420004FF000021A60744B00221A807348FEF7B6
:1034300034FF7348FEF731FF7248FEF72EFF01227A
:103440000421714802F094FB002208216E4802F02A
:103450008FFB012220216C4802F08AFB0022102100
:10346000694802F085FB694B1B6800225A63674B71
:103470001B6800229A635B4B1A78654B1A70594B94
:103480000B221A70634B00221A60634B64221A707D
:10349000614B00225A80614A0F2161480AF01AF8F4
:1034A0004FF6FF7306225F495F4805F094FE02F075
:1034B0001FF803465D4A13604D4B1B78002B00F04C
:1034C0008E8002F015F80246584B1B68D31A092B60
:1034D000F2D90020FEF734FF02F00AF80346534AFF
:1034E0001360E9E74C4B5B8807EE903AF8EE677A99
:1034F0003D4BC3ED007A3C4BD3ED007AB2EE0E7A31
:10350000F4EEC77AF1EE10FA02D8494B00221A7095
:10351000474B1B78002B05D1012200213248FFF7D1
:10352000C7F804E0022200212F48FFF7C1F8374B0B
:103530001B6800225A63354B1B6800229A63294B93
:103540001A78334B1A70274B0B221A70314B00221A
:103550001A60384B1A78374B5B789A421BD12E4B46
:1035600064221A702C4B00225A802C4A0F212C48BE
:1035700009F0B0FF4FF6FF7306222A492A4805F0EA
:103580002AFE184B1B7819464FF6FF730622264871
:1035900005F021FE19E0274B5B781F4A25499B0067
:1035A0000B445B681360234B5B780133214A9278AC
:1035B00093FBF2F101FB02F29B1ADAB21D4B5A7037
:1035C0001D4A0F21164809F085FF064B1B78194646
:1035D0004FF6FF730622144805F0FDFD0CE700BF0F
:1035E0000AE700BF340100205C04002062040020D0
:1035F00040040020480400204E0400207C040020E9
:1036000068040020900400200000024030030020E5
:1036100035010020B40400202C040020D4DE000872
:1036200030040020DCDE0008780300205404002071
:1036300036010020F8030020E4DE000880B582B0E7
:1036400000AF7860642006F011FF9D4B1B78022BC1
:1036500003D0642006F00AFFF7E79A4B5B88142B2F
:1036600000F081801E2B40F00781974BD3ED3D7A0F
:103670009FED967AF4EEC77AF1EE10FA01DDE123C0
:1036800012E0914BD3ED3D7A9FED917AF4EEC77A3B
:10369000F1EE10FA01D5552306E08B4BD3ED3D7AC0
:1036A000FCEEE77A17EE903A8A4A126813644FF4F8
:1036B000967001F029FF844BD3F8F830864A1360E6
:1036C000814B93F8FC30002B0CBF01230023DBB2AD
:1036D0001A460421814802F04BFA7B4B93F8FC30E8
:1036E000002B14BF01230023DBB21A4608217B48BC
:1036F00002F03EFA744B93F8FC30002B0CBF012310
:103700000023DBB21A462021744802F031FA6E4BD6
:1037100093F8FC30002B14BF01230023DBB21A46C0
:1037200010216E4802F024FA674BB3F8F0206C4B7E
:103730001B685A63644BB3F8F220694B1B689A63A9
:103740006548FFF7A5FA0A2006F090FE654B4FF09A
:1037500081421A60002201216248FEF7A9FF0A2077
:1037600006F084FE26E15F4B4FF081421A60002292
:1037700001215C48FEF79CFF0A2006F077FE524BC1
:10378000D3ED2D7A9FED517AF4EEC77AF1EE10FA6F
:1037900001DDE12312E04C4BD3ED2D7A9FED4C7A05
:1037A000F4EEC77AF1EE10FA01D5552306E0464B48
:1037B000D3ED2D7AFCEEE77A17EE903A454A12687F
:1037C00013644FF4967001F09FFE3F4BD3F8B8306E
:1037D000414A13603C4B93F8BC30002B0CBF0123D3
:1037E0000023DBB21A4604213C4802F0C1F9364BF3
:1037F00093F8BC30002B14BF01230023DBB21A4620
:103800000821364802F0B4F92F4B93F8BC30002B56
:103810000CBF01230023DBB21A4620212F4802F0FF
:10382000A7F9294B93F8BC30002B14BF01230023C8
:10383000DBB21A461021294802F09AF9224BB3F85C
:10384000B020274B1B685A631F4BB3F8B220244BA0
:103850001B689A632048FFF71BFA0A2006F006FE51
:10386000204B214A1A60002201211E48FEF720FF4A
:103870000A2006F0FBFD9DE01A4B4FF081421A60D2
:10388000002201211748FEF713FF0A2006F0EEFD83
:103890000D4BD3ED1D7A9FED0D7AF4EEC77AF1EE64
:1038A00010FA01DDE12328E0074BD3ED1D7A9FEDEF
:1038B000087AF4EEC77AF1EE10FA17D555231CE01A
:1038C000340100202C04002004000020000061438B
:1038D0000000AA4210020020440400200000024020
:1038E000300300205C0400200000E040504BD3ED8A
:1038F0001D7AFCEEE77A17EE903A4E4A126813648E
:103900004FF4967001F000FE494B9B6F4A4A1360DA
:10391000474B93F87C30002B0CBF01230023DBB214
:103920001A460421454802F023F9414B93F87C30B4
:10393000002B14BF01230023DBB21A4608213F48A5
:1039400002F016F93A4B93F87C30002B0CBF0123A0
:103950000023DBB21A462021384802F009F9344B23
:1039600093F87C30002B14BF01230023DBB21A46EE
:103970001021324802F0FCF82D4BB3F87020304B88
:103980001B685A632A4BB3F872202D4B1B689A634D
:103990002948FFF77DF90A2006F068FD294B2A4ADD
:1039A0001A60002201212748FEF782FE0A2006F055
:1039B0005DFD00BF254B00221A60254B1A78254B70
:1039C0001A70234B0B221A70234B1A78224B5B7808
:1039D0009A4212D1214B64221A70204B00225A8045
:1039E0001F4A0F211F4809F075FD4FF6FF7306228D
:1039F0001D491E4805F0EFFB27E6174B5B78174A79
:103A000015499B000B445B681360134B5B780133D3
:103A1000114A927893FBF2F101FB02F29B1ADAB29F
:103A20000D4B5A70124A0F210E4809F053FD0CE657
:103A30000400002010020020440400200000024086
:103A4000300300205C0400200000E040B4040020AB
:103A50003401002035010020F80300202C04002050
:103A6000D4DE000830040020DCDE000878030020EB
:103A7000E4DE000880B582B000AF78609D4B1B7813
:103A8000032B03D0642006F0F1FCF7E79A4B5B8828
:103A9000142B00F081801E2B40F00781974BD3ED53
:103AA000417A9FED977AF4EEC77AF1EE10FA01DDD4
:103AB000E12312E0914BD3ED417A9FED927AF4EE3F
:103AC000C77AF1EE10FA01D5552306E08B4BD3ED02
:103AD000417AFCEEE77A17EE903A8B4A126813644B
:103AE0004FF4967001F010FD844BD3F80831874AEB
:103AF0001360824B93F80C31002B0CBF0123002381
:103B0000DBB21A460421824802F032F87B4B93F86C
:103B10000C31002B14BF01230023DBB21A4608210D
:103B20007B4802F025F8754B93F80C31002B0CBF45
:103B300001230023DBB21A462021754802F018F851
:103B40006E4B93F80C31002B14BF01230023DBB222
:103B50001A4610216E4802F00BF8684BB3F80021AA
:103B60006C4B1B685A63654BB3F80221694B1B68A9
:103B70009A636648FFF78CF80A2006F077FC664BDC
:103B80004FF081421A60002201216348FEF790FD48
:103B90000A2006F06BFC28E15F4B4FF081421A606F
:103BA000002201215C48FEF783FD0A2006F05EFC3E
:103BB000524BD3ED317A9FED527AF4EEC77AF1EEA3
:103BC00010FA01DDE12312E04C4BD3ED317A9FED89
:103BD0004D7AF4EEC77AF1EE10FA01D5552306E0DE
:103BE000464BD3ED317AFCEEE77A17EE903A464A2F
:103BF000126813644FF4967001F086FC3F4BD3F8C3
:103C0000C830424A13603D4B93F8CC30002B0CBFB8
:103C100001230023DBB21A4604213D4801F0A8FF2E
:103C2000364B93F8CC30002B14BF01230023DBB2BA
:103C30001A460821364801F09BFF304B93F8CC30F0
:103C4000002B0CBF01230023DBB21A462021304891
:103C500001F08EFF294B93F8CC30002B14BF0123C9
:103C60000023DBB21A461021294801F081FF234BC3
:103C7000B3F8C020274B1B685A63204BB3F8C2200F
:103C8000244B1B689A632148FFF702F80A2006F0CC
:103C9000EDFB214B214A1A60002201211E48FEF74C
:103CA00007FD0A2006F0E2FB9FE01B4B4FF081422C
:103CB0001A60002201211848FEF7FAFC0A2006F0DB
:103CC000D5FB0E4BD3ED217A9FED0D7AF4EEC77A3A
:103CD000F1EE10FA01DDE12329E0084BD3ED217A62
:103CE0009FED087AF4EEC77AF1EE10FA18D5552355
:103CF0001DE000BF340100202C040020040000203F
:103D0000000061430000AA42100200204404002089
:103D100000000240300300205C0400200000E0406E
:103D2000514BD3ED217AFCEEE77A17EE903A4F4AE9
:103D3000126813644FF4967001F0E6FB4A4BD3F817
:103D400088304B4A1360484B93F88C30002B0CBFE3
:103D500001230023DBB21A460421464801F008FF84
:103D6000414B93F88C30002B14BF01230023DBB2AE
:103D70001A4608213F4801F0FBFE3B4B93F88C307C
:103D8000002B0CBF01230023DBB21A462021394847
:103D900001F0EEFE344B93F88C30002B14BF01235E
:103DA0000023DBB21A461021324801F0E1FE2E4B0F
:103DB000B3F88020304B1B685A632B4BB3F882203A
:103DC0002D4B1B689A632A48FEF762FF0A2006F013
:103DD0004DFB2A4B2A4A1A60002201212748FEF790
:103DE00067FC0A2006F042FB00BF264B00221A6047
:103DF000254B1A78254B1A70234B0B221A70244B33
:103E00001A78234B5B789A4212D1224B64221A70A3
:103E1000204B00225A80204A0F21204809F05AFBEB
:103E20004FF6FF7306221E491E4805F0D4F925E619
:103E3000174B5B78174A16499B000B445B6813606D
:103E4000134B5B780133124A927893FBF2F101FB3A
:103E500002F29B1ADAB20E4B5A70134A0F210F4826
:103E600009F038FB0AE600BF040000201002002021
:103E70004404002000000240300300205C040020C5
:103E80000000E040B404002034010020350100208F
:103E9000F80300202C040020D4DE000830040020A9
:103EA000DCDE000878030020E4DE000880B582B084
:103EB00000AF78609D4B1B78042B03D0642006F084
:103EC000D5FAF7E79A4B5B88142B00F081801E2B04
:103ED00040F00781974BD3ED457A9FED977AF4EE4A
:103EE000C77AF1EE10FA01DDE12312E0914BD3ED38
:103EF000457A9FED927AF4EEC77AF1EE10FA01D589
:103F0000552306E08B4BD3ED457AFCEEE77A17EEAE
:103F1000903A8B4A126813644FF4967001F0F4FAE9
:103F2000844BD3F81831874A1360824B93F81C31C5
:103F3000002B0CBF01230023DBB21A460421824868
:103F400001F016FE7B4B93F81C31002B14BF0123AC
:103F50000023DBB21A4608217B4801F009FE754BAD
:103F600093F81C31002B0CBF01230023DBB21A464F
:103F70002021754801F0FCFD6E4B93F81C31002B9D
:103F800014BF01230023DBB21A4610216E4801F052
:103F9000EFFD684BB3F810216C4B1B685A63654BFF
:103FA000B3F81221694B1B689A636648FEF770FEEE
:103FB0000A2006F05BFA664B4FF081421A6000223D
:103FC00000216348FEF774FB0A2006F04FFA28E14F
:103FD0005F4B4FF081421A60002200215C48FEF7DF
:103FE00067FB0A2006F042FA524BD3ED357A9FED7B
:103FF000527AF4EEC77AF1EE10FA01DDE12312E015
:104000004C4BD3ED357A9FED4D7AF4EEC77AF1EE55
:1040100010FA01D5552306E0464BD3ED357AFCEE78
:10402000E77A17EE903A464A126813644FF4967096
:1040300001F06AFA3F4BD3F8D830424A13603D4B47
:1040400093F8DC30002B0CBF01230023DBB21A46AF
:1040500004213D4801F08CFD364B93F8DC30002BF9
:1040600014BF01230023DBB21A460821364801F0B1
:104070007FFD304B93F8DC30002B0CBF0123002375
:10408000DBB21A462021304801F072FD294B93F82B
:10409000DC30002B14BF01230023DBB21A461021B1
:1040A000294801F065FD234BB3F8D020274B1B684E
:1040B0005A63204BB3F8D220244B1B689A632148E3
:1040C000FEF7E6FD0A2006F0D1F9214B214A1A60DD
:1040D000002200211E48FEF7EBFA0A2006F0C6F97E
:1040E0009FE01B4B4FF081421A60002200211848CC
:1040F000FEF7DEFA0A2006F0B9F90E4BD3ED257A69
:104100009FED0D7AF4EEC77AF1EE10FA01DDE123AE
:1041100029E0084BD3ED257A9FED087AF4EEC77AB3
:10412000F1EE10FA18D555231DE000BF3401002030
:104130002C04002004000020000061430000AA427B
:104140001002002044040020000002403003002040
:104150005C0400200000E040514BD3ED257AFCEEDA
:10416000E77A17EE903A4F4A126813644FF496704C
:1041700001F0CAF94A4BD3F898304B4A1360484BC8
:1041800093F89C30002B0CBF01230023DBB21A46AE
:104190000421464801F0ECFC414B93F89C30002B85
:1041A00014BF01230023DBB21A4608213F4801F067
:1041B000DFFC3B4B93F89C30002B0CBF012300230A
:1041C000DBB21A462021394801F0D2FC344B93F877
:1041D0009C30002B14BF01230023DBB21A461021B0
:1041E000324801F0C5FC2E4BB3F89020304B1B68D1
:1041F0005A632B4BB3F892202D4B1B689A632A48C5
:10420000FEF746FD0A2006F031F92A4B2A4A1A60C9
:10421000002200212748FEF74BFA0A2006F026F973
:1042200000BF264B00221A60254B1A78254B1A70C6
:10423000234B0B221A70244B1A78234B5B789A423B
:1042400012D1224B64221A70204B00225A80204A3D
:104250000F21204809F03EF94FF6FF7306221E4950
:104260001E4804F0B8FF25E6174B5B78174A16493D
:104270009B000B445B681360134B5B780133124A5D
:10428000927893FBF2F101FB02F29B1ADAB20E4B29
:104290005A70134A0F210F4809F01CF90AE600BFB3
:1042A000040000201002002044040020000002400E
:1042B000300300205C0400200000E040B404002033
:1042C0003401002035010020F80300202C040020D8
:1042D000D4DE000830040020DCDE00087803002073
:1042E000E4DE000880B582B000AF78609D4B1B789B
:1042F000052B03D0642006F0B9F8F7E79A4B5B88EA
:10430000142B00F081801E2B40F00781974BD3EDDA
:10431000497A9FED977AF4EEC77AF1EE10FA01DD53
:10432000E12312E0914BD3ED497A9FED927AF4EEBE
:10433000C77AF1EE10FA01D5552306E08B4BD3ED89
:10434000497AFCEEE77A17EE903A8B4A12681364CA
:104350004FF4967001F0D8F8844BD3F82831874A8F
:104360001360824B93F82C31002B0CBF01230023E8
:10437000DBB21A460421824801F0FAFB7B4B93F82A
:104380002C31002B14BF01230023DBB21A46082175
:104390007B4801F0EDFB754B93F82C31002B0CBFE3
:1043A00001230023DBB21A462021754801F0E0FB0F
:1043B0006E4B93F82C31002B14BF01230023DBB28A
:1043C0001A4610216E4801F0D3FB684BB3F8202148
:1043D0006C4B1B685A63654BB3F82221694B1B6811
:1043E0009A636648FEF754FC0A2006F03FF8664BD5
:1043F0004FF081421A60002200216348FEF758F90D
:104400000A2006F033F828E15F4B4FF081421A6032
:10441000002200215C48FEF74BF90A2006F026F83E
:10442000524BD3ED397A9FED527AF4EEC77AF1EE22
:1044300010FA01DDE12312E04C4BD3ED397A9FED08
:104440004D7AF4EEC77AF1EE10FA01D5552306E065
:10445000464BD3ED397AFCEEE77A17EE903A464AAE
:10446000126813644FF4967001F04EF83F4BD3F886
:10447000E830424A13603D4B93F8EC30002B0CBF00
:1044800001230023DBB21A4604213D4801F070FBF2
:10449000364B93F8EC30002B14BF01230023DBB222
:1044A0001A460821364801F063FB304B93F8EC3094
:1044B000002B0CBF01230023DBB21A462021304819
:1044C00001F056FB294B93F8EC30002B14BF01236D
:1044D0000023DBB21A461021294801F049FB234B87
:1044E000B3F8E020274B1B685A63204BB3F8E22057
:1044F000244B1B689A632148FEF7CAFB0A2005F08B
:10450000B5FF214B214A1A60002200211E48FEF708
:10451000CFF80A2005F0AAFF9FE01B4B4FF0814225
:104520001A60002200211848FEF7C2F80A2005F0A0
:104530009DFF0E4BD3ED297A9FED0D7AF4EEC77AED
:10454000F1EE10FA01DDE12329E0084BD3ED297AE1
:104550009FED087AF4EEC77AF1EE10FA18D55523DC
:104560001DE000BF340100202C04002004000020C6
:10457000000061430000AA42100200204404002011
:1045800000000240300300205C0400200000E040F6
:10459000514BD3ED297AFCEEE77A17EE903A4F4A69
:1045A000126813644FF4967000F0AEFF4A4BD3F8D4
:1045B000A8304B4A1360484B93F8AC30002B0CBF2B
:1045C00001230023DBB21A460421464801F0D0FA49
:1045D000414B93F8AC30002B14BF01230023DBB216
:1045E0001A4608213F4801F0C3FA3B4B93F8AC3020
:1045F000002B0CBF01230023DBB21A4620213948CF
:1046000001F0B6FA344B93F8AC30002B14BF012301
:104610000023DBB21A461021324801F0A9FA2E4BD2
:10462000B3F8A020304B1B685A632B4BB3F8A22081
:104630002D4B1B689A632A48FEF72AFB0A2005F0D7
:1046400015FF2A4B2A4A1A60002200212748FEF74C
:104650002FF80A2005F00AFF00BF264B00221A603F
:10466000254B1A78254B1A70234B0B221A70244BBA
:104670001A78234B5B789A4212D1224B64221A702B
:10468000204B00225A80204A0F21204808F022FFA8
:104690004FF6FF7306221E491E4804F09CFD25E6D6
:1046A000174B5B78174A16499B000B445B681360F5
:1046B000134B5B780133124A927893FBF2F101FBC2
:1046C00002F29B1ADAB20E4B5A70134A0F210F48AE
:1046D00008F000FF0AE600BF0400002010020020DE
:1046E0004404002000000240300300205C0400204D
:1046F0000000E040B4040020340100203501002017
:10470000F80300202C040020D4DE00083004002030
:10471000DCDE000878030020E4DE000880B582B00B
:1047200000AF7860264B1B78082B04D04FF47A70CA
:1047300005F09CFEF6E7234B63221A70224B234AB6
:104740001A60234B00221A601D4B1A78214B1A70F5
:104750001B4B0B221A70204B1A781F4B5B789A4226
:1047600012D1184B64221A70164B00225A801B4A31
:104770000F211B4808F0AEFE4FF6FF7306221949C1
:10478000194804F028FDCDE7134B5B780D4A124918
:104790009B000B445B6813600F4B5B7801330E4A40
:1047A000927893FBF2F101FB02F29B1ADAB20A4B08
:1047B0005A700E4A0F210A4808F08CFEB2E700BF7B
:1047C000340100202C0400205C0400200000204262
:1047D000B404002035010020F8030020D4DE0008D6
:1047E00030040020DCDE000878030020E4DE00084E
:1047F00080B582B000AF7860C64B1B78013B632B5D
:1048000000F2658201A252F823F000BF9D49000822
:10481000AB490008B9490008B9490008B94900087E
:10482000B9490008894B0008974B0008A54B0008C0
:10483000B34B0008C14B0008C14B0008094C0008ED
:10484000114C0008CF4C0008CF4C0008CF4C00089A
:10485000CF4C0008CF4C0008CF4C0008CF4C0008CC
:10486000CF4C0008CF4C0008CF4C0008CF4C0008BC
:10487000CF4C0008CF4C0008CF4C0008CF4C0008AC
:10488000CF4C0008CF4C0008CF4C0008CF4C00089C
:10489000CF4C0008CF4C0008CF4C0008CF4C00088C
:1048A000CF4C0008CF4C0008CF4C0008CF4C00087C
:1048B000CF4C0008CF4C0008CF4C0008CF4C00086C
:1048C000CF4C0008CF4C0008CF4C0008CF4C00085C
:1048D000CF4C0008CF4C0008CF4C0008CF4C00084C
:1048E000CF4C0008CF4C0008CF4C0008CF4C00083C
:1048F000CF4C0008CF4C0008CF4C0008CF4C00082C
:10490000CF4C0008CF4C0008CF4C0008CF4C00081B
:10491000CF4C0008CF4C0008CF4C0008CF4C00080B
:10492000CF4C0008CF4C0008CF4C0008CF4C0008FB
:10493000CF4C0008CF4C0008CF4C0008CF4C0008EB
:10494000CF4C0008CF4C0008CF4C0008CF4C0008DB
:10495000CF4C0008CF4C0008CF4C0008CF4C0008CB
:10496000CF4C0008CF4C00081F4C00081F4C00081B
:10497000CF4C0008CF4C0008CF4C0008CF4C0008AB
:10498000CF4C0008CF4C0008CF4C0008CF4C00089B
:10499000CF4C0008CF4C0008CF4C00085E4B0022E3
:1049A0001A705C4B63221A7092E15B4B01221A7001
:1049B000584B63221A708BE1564B1B78574A1B01E8
:1049C00013440433D3ED007A9FED557AF4EEC77AA1
:1049D000F1EE10FA01DDE1231CE04E4B1B784F4A4B
:1049E0001B0113440433D3ED007A9FED4E7AF4EEAD
:1049F000C77AF1EE10FA01D555230BE0454B1B7831
:104A0000464A1B0113440433D3ED007AFCEEE77AE7
:104A100017EE903A444A126813644FF4967000F00F
:104A200073FD3C4B1B783D4A1B01134408331B6844
:104A30003E4A1360374B1B78384A1B0113440C3332
:104A40001B78002B0CBF01230023DBB21A46042184
:104A5000374801F08DF82F4B1B78304A1B01134467
:104A60000C331B78002B14BF01230023DBB21A4642
:104A700008212F4801F07CF8264B1B78274A1B01A0
:104A800013440C331B78002B0CBF01230023DBB233
:104A90001A462021264801F06BF81E4B1B781F4A4E
:104AA0001B0113440C331B78002B14BF012300237C
:104AB000DBB21A4610211E4801F05AF8154B1B783C
:104AC000164A1B0113441A881A4B1B685A63114B70
:104AD0001B78124A1B01134402331A88154B1B68BA
:104AE0009A63154B1A78144B5B789A422ED1094B76
:104AF00064221A70074B00225A80104A0F21104876
:104B000008F0E8FC4FF6FF7306220E490E4804F049
:104B100062FB35E02C04002034010020040000205A
:104B2000000061430000AA4210020020440400205B
:104B30000000024030030020F8030020D4DE00080B
:104B400030040020DCDE000878030020624B5B7834
:104B5000624A61499B000B445B6813605E4B5B7863
:104B600001335D4A927893FBF2F101FB02F29B1A4A
:104B7000DAB2594B5A705A4A0F215A4808F0AAFC27
:104B8000564B63221A70A3E0574B02221A70534B04
:104B900063221A709CE0544B03221A704F4B63221D
:104BA0001A7095E0504B04221A704C4B63221A7015
:104BB0008EE04D4B05221A70484B63221A7087E035
:104BC000464B1B780B2B04D0484B1B68E1221A6420
:104BD00003E0464B1B6855221A644FF4967000F0B0
:104BE00093FC3E4B64221A703C4B00225A80404A90
:104BF0000F213C4808F06EFC4FF6FF7306223D493A
:104C00003D4804F0E8FA63E0374B08221A705FE091
:104C1000354B09221A70314B63221A7058E02F4B22
:104C20001B78582B04D0314B1B68E1221A6403E037
:104C30002E4B1B6855221A644FF4967000F064FCEA
:104C4000002204212D4800F093FF012208212B4867
:104C500000F08EFF00222021284800F089FF012269
:104C60001021264800F084FF1C4B1B78582B13D1D1
:104C70001A4B5B8807EE903AF8EE677A204BC3ED4B
:104C8000007A204B1B684FF448725A631D4B1B6817
:104C90004FF496629A6313E0104B5B885B4207EE19
:104CA000903AF8EEE77A164BC3ED007A154B1B6885
:104CB0004FF496625A63134B1B684FF448729A6321
:104CC000064B63221A700E48FDF7E2FF00E000BFBA
:104CD000012005F0CBFB8FE5F80300202C04002019
:104CE000E4DE00083004002034010020100200201F
:104CF000D4DE0008DCDE000878030020000002405B
:104D0000440400203003002080B582B000AF7860FA
:104D10002D4B1B78092B04D04FF47A7005F0A6FBBD
:104D2000F6E72A4B5B8807EE903AF8EE677A284B55
:104D3000C3ED007A02212648FEF756F8254B1B6882
:104D400000225A63234B1B6800229A631E4B1A7879
:104D5000214B1A701C4B0B221A70204B00221A6038
:104D60001F4B1A781E4B5B789A4212D1174B642264
:104D70001A70164B00225A801A4A0F211A4808F05E
:104D8000A9FB4FF6FF7306221849194804F023FACD
:104D9000BEE7134B5B780D4A11499B000B445B68DF
:104DA00013600F4B5B7801330D4A927893FBF2F15D
:104DB00001FB02F29B1ADAB2094B5A700D4A0F211D
:104DC000094808F087FBA3E7340100202C040020E9
:104DD0005C0400203003002035010020B4040020D2
:104DE000F8030020D4DE000830040020DCDE0008D8
:104DF00078030020E4DE000880B582B000AF786060
:104E0000012005F033FBFBE780B582B000AF78608E
:104E10007B681B68044A934201D100F055FB00BF38
:104E20000837BD4680BD00BF0008004080B400AF19
:104E300072B600BFFEE7000080B582B000AF00236D
:104E40007B60124B5B6C114A43F4804353640F4BFD
:104E50005B6C03F480437B607B6800233B600B4BFF
:104E60001B6C0A4A43F080531364084B1B6C03F01D
:104E700080533B603B6800220F216FF0010000F07F
:104E80001FFC00BF0837BD4680BD00BF0038024090
:104E900080B58AB000AF786007F1140300221A6071
:104EA0005A609A60DA601A617B681B68194A9342FB
:104EB0002CD100233B61184B1B6B174A43F00203B4
:104EC0001363154B1B6B03F002033B613B694FF40B
:104ED00040737B611223BB610023FB6103233B62B0
:104EE00004237B6207F1140319460C4800F0A4FC6C
:104EF0000023FB60084B1B6C074A43F40013136448
:104F0000054B1B6C03F40013FB60FB6800BF2837E4
:104F1000BD4680BD005400400038024000040240FD
:104F200080B58EB000AF786007F1240300221A60CC
:104F30005A609A60DA601A617B681B684E4A934235
:104F400016D100233B624D4B5B6C4C4A43F001038E
:104F500053644A4B5B6C03F001033B623B6A0022E3
:104F600005211B2000F0ACFB1B2000F0C5FB7EE000
:104F70007B681B68424A934234D10023FB613F4B5C
:104F80001B6C3E4A43F0020313643C4B1B6C03F062
:104F90000203FB61FB690023BB61384B1B6B374A83
:104FA00043F002031363354B1B6B03F00203BB6139
:104FB000BB6920237B620223BB620023FB620023C8
:104FC0003B6302237B6307F1240319462D4800F05D
:104FD00033FC002205211D2000F072FB1D2000F093
:104FE0008BFB44E07B681B68274A93420ED1002369
:104FF0007B61224B1B6C214A43F0100313641F4B4F
:105000001B6C03F010037B617B6930E07B681B68DD
:105010001E4A93422BD100233B61184B5B6C174A0D
:1050200043F002035364154B5B6C03F002033B61D6
:105030003B690023FB60114B1B6B104A43F00403D8
:1050400013630E4B1B6B03F00403FB60FB68C02370
:105050007B620223BB620023FB6200233B630323CA
:105060007B6307F124031946094800F0E5FB00BF04
:105070003837BD4680BD00BF000001400038024007
:105080000004004000040240001000400004014001
:105090000008024080B58AB000AF786007F11403C1
:1050A00000221A605A609A60DA601A617B681B6895
:1050B000B3F1804F4AD100233B61264B1B6C254A3C
:1050C00043F001031364234B1B6C03F001033B61AA
:1050D0003B690023FB601F4B1B6B1E4A43F001031F
:1050E00013631C4B1B6B03F00103FB60FB68002385
:1050F000BB60184B1B6B174A43F002031363154B3D
:105100001B6B03F00203BB60BB684FF400437B6181
:105110000223BB610023FB6100233B6201237B620E
:1051200007F1140319460C4800F086FB08237B6145
:105130000223BB610023FB6100233B6201237B62EE
:1051400007F114031946054800F076FB00BF283725
:10515000BD4680BD0038024000000240000402400D
:1051600080B588B000AF786007F10C0300221A60A8
:105170005A609A60DA601A617B681B68124A93422F
:105180001ED10023BB60114B1B6B104A43F0100370
:1051900013630E4B1B6B03F01003BB60BB684FF433
:1051A0008043FB6002233B6100237B610023BB61E2
:1051B0000123FB6107F10C031946054800F03CFB95
:1051C00000BF2037BD4680BD0000014000380240CE
:1051D0000010024080B58AB000AF786007F1140378
:1051E00000221A605A609A60DA601A617B681B6854
:1051F0001D4A934234D100233B611C4B1B6C1B4A5C
:1052000043F480231364194B1B6C03F480233B612C
:105210003B690023FB60154B1B6B144A43F00403EE
:105220001363124B1B6B03F00403FB60FB684FF42A
:1052300040637B610223BB610023FB6103233B626C
:1052400007237B6207F114031946094800F0F4FABA
:1052500000220521272000F033FA272000F04CFA25
:1052600000BF2837BD4680BD0048004000380240DE
:105270000008024080B58CB000AF78600023FB626C
:105280000023BB62002279681E2000F019FA1E205C
:1052900000F032FA0023FB601E4B1B6C1D4A43F0EA
:1052A000040313641B4B1B6C03F00403FB60FB68DB
:1052B00007F1100207F114031146184602F0B2F884
:1052C00002F088F8F862FB6A134AA2FB03239B0CE6
:1052D000013BBB62114B124A1A60104B40F2E7329D
:1052E000DA600E4ABB6A53600C4B00221A610B4B0A
:1052F00000229A60094802F0C7F80346002B04D147
:10530000064802F079F9034600E0012318463037D9
:10531000BD4680BD0038024083DE1B43BC04002034
:105320000008004080B400AFFEE780B400AFFEE7A5
:1053300080B400AFFEE780B400AFFEE780B400AFFA
:10534000FEE780B400AF00BFBD465DF8047B704748
:1053500080B500AF024802F045FE00BF80BD00BF2F
:105360001002002080B500AF024802F03BFE00BFF3
:1053700080BD00BFA002002080B500AF024802F04F
:1053800031FE00BF80BD00BFBC04002080B500AF6F
:10539000024803F0E3FF00BF80BD00BF7803002098
:1053A00080B586B000AF7860144A154BD31A7B6184
:1053B0007B693B61134B1B68002B02D1114B124AD6
:1053C0001A60104B1A687B6813443A699A4207D2F4
:1053D00008F0BCF803460C221A604FF0FF3309E0D6
:1053E000084B1B68FB60074B1A687B681344054A2F
:1053F0001360FB6818461837BD4680BD00000220C8
:105400000004000004050020A853002080B400AF71
:10541000064BD3F88830054A43F47003C2F888304D
:1054200000BFBD465DF8047B704700BF00ED00E0A3
:10543000DFF834D00D480E490E4A002302E0D4585C
:10544000C4500433C4188C42F9D30B4A0B4C0023CC
:1054500001E013600432A242FBD3FFF7D7FF08F04C
:105460007BF8FBF749FD7047000002200000002098
:10547000A001002074EB0008A0010020A45300202C
:10548000FEE7000080B500AF0E4B1B680D4A43F4E9
:10549000007313600B4B1B680A4A43F4806313606C
:1054A000084B1B68074A43F480731360032000F025
:1054B000FCF80F20FFF7DEFEFFF7BEFC00231846C6
:1054C00080BD00BF003C024080B400AF064B1B789B
:1054D0001A46064B1B681344044A136000BFBD46BE
:1054E0005DF8047B704700BF4801002008050020DC
:1054F00080B400AF034B1B681846BD465DF8047BC3
:10550000704700BF0805002080B584B000AF786008
:10551000FFF7EEFFB8607B68FB60FB68B3F1FF3F0D
:1055200005D00A4B1B781A46FB681344FB6000BF8A
:10553000FFF7DEFF0246BB68D31AFA689A42F7D833
:1055400000BF00BF1037BD4680BD00BF480100202E
:1055500080B485B000AF78607B6803F00703FB6020
:105560000C4BDB68BB60BA684FF6FF031340BB60AF
:10557000FB681A02BB68134343F0BF6343F4003374
:10558000BB60044ABB68D36000BF1437BD465DF8FA
:10559000047B704700ED00E080B400AF044BDB6893
:1055A0001B0A03F007031846BD465DF8047B7047ED
:1055B00000ED00E080B483B000AF0346FB7197F9C3
:1055C0000730002B0BDBFB7903F01F02074997F92B
:1055D00007305B09012000FA02F241F8232000BFE6
:1055E0000C37BD465DF8047B704700BF00E100E06A
:1055F00080B483B000AF03463960FB7197F9073080
:10560000002B0ADB3B68DAB20C4997F9073012012C
:10561000D2B20B4483F800230AE03B68DAB20849AF
:10562000FB7903F00F03043B1201D2B20B441A764C
:1056300000BF0C37BD465DF8047B704700E100E019
:1056400000ED00E080B489B000AFF860B9607A6026
:10565000FB6803F00703FB61FB69C3F10703042B3D
:1056600028BF0423BB61FB690433062B02D9FB6905
:10567000033B00E000237B614FF0FF32BB6902FA7D
:1056800003F3DA43BB681A407B699A404FF0FF315D
:105690007B6901FA03F3D9437B680B401343184637
:1056A0002437BD465DF8047B704780B582B000AFFB
:1056B00078607868FFF74CFF00BF0837BD4680BDB3
:1056C00080B586B000AF0346B9607A60FB730023F3
:1056D0007B61FFF761FF78617A68B9687869FFF7E5
:1056E000B1FF024697F90F3011461846FFF780FFC9
:1056F00000BF1837BD4680BD80B582B000AF0346FD
:10570000FB7197F907301846FFF754FF00BF0837C1
:10571000BD4680BD80B584B000AF78607B689B6D6E
:10572000FB60FFF7E5FEB8607B6893F83530DBB2CD
:10573000022B08D07B6880225A657B68002283F8A0
:105740003420012352E07B681B681A687B681B6861
:1057500022F016021A607B681B685A697B681B6816
:1057600022F080025A617B681B6C002B03D17B689E
:105770009B6C002B07D07B681B681A687B681B68D2
:1057800022F008021A607B681B681A687B681B6835
:1057900022F001021A6013E0FFF7AAFE0246BB687E
:1057A000D31A052B0CD97B6820225A657B6803220B
:1057B00083F835207B68002283F83420032315E02A
:1057C0007B681B681B6803F00103002BE4D17B6836
:1057D000DB6D3F229A40FB689A607B68012283F868
:1057E00035207B68002283F83420002318461037C8
:1057F000BD4680BD80B483B000AF78607B6893F80D
:105800003530DBB2022B04D07B6880225A6501233D
:105810000CE07B68052283F835207B681B681A68DA
:105820007B681B6822F001021A60002318460C37BF
:10583000BD465DF8047B704780B489B000AF7860E6
:10584000396000237B6100233B610023BB6100239F
:10585000FB616BE10122FB6902FA03F37B613B68A8
:105860001B687A6913403B613A697B699A4240F050
:105870005A813B685B6803F00303012B05D03B684A
:105880005B6803F00303022B30D17B689B68BB612C
:10589000FB695B00032202FA03F3DB43BA6913409E
:1058A000BB613B68DA68FB695B0002FA03F3BA6923
:1058B0001343BB617B68BA699A607B685B68BB61B4
:1058C0000122FB6902FA03F3DB43BA691340BB61AF
:1058D0003B685B681B0903F00102FB6902FA03F3F2
:1058E000BA691343BB617B68BA695A603B685B68FD
:1058F00003F00303032B17D07B68DB68BB61FB69F4
:105900005B00032202FA03F3DB43BA691340BB6175
:105910003B689A68FB695B0002FA03F3BA691343B8
:10592000BB617B68BA69DA603B685B6803F00303BC
:10593000022B23D1FB69DA087B68083253F8223046
:10594000BB61FB6903F007039B000F2202FA03F31C
:10595000DB43BA691340BB613B681A69FB6903F01A
:1059600007039B0002FA03F3BA691343BB61FB69A7
:10597000DA087B680832B96943F822107B681B6833
:10598000BB61FB695B00032202FA03F3DB43BA69E4
:105990001340BB613B685B6803F00302FB695B007B
:1059A00002FA03F3BA691343BB617B68BA691A60F0
:1059B0003B685B6803F44033002B00F0B4800023A5
:1059C000FB60604B5B6C5F4A43F4804353645D4B08
:1059D0005B6C03F48043FB60FB685B4AFB699B08DC
:1059E000023352F82330BB61FB6903F003039B00D1
:1059F0000F2202FA03F3DB43BA691340BB617B68F1
:105A0000524A93422BD07B68514A934225D07B68FF
:105A1000504A93421FD07B684F4A934219D07B680B
:105A20004E4A934213D07B684D4A93420DD07B6817
:105A30004C4A934207D07B684B4A934201D10723DB
:105A40000EE008230CE006230AE0052308E0042307
:105A500006E0032304E0022302E0012300E0002328
:105A6000FA6902F0030292009340BA691343BB61E2
:105A70003549FB699B080233BA6941F823203B4B47
:105A80009B68BB613B69DB43BA691340BB613B6800
:105A90005B6803F48013002B03D0BA693B6913439E
:105AA000BB61324ABB699360304BDB68BB613B69C9
:105AB000DB43BA691340BB613B685B6803F40013C6
:105AC000002B03D0BA693B691343BB61274ABB690A
:105AD000D360264B5B68BB613B69DB43BA6913400B
