:020000040800F2
:1000000000000220296900081D6800082368000814
:10001000296800082F680008356800080000000003
:10002000000000000000000000000000A1E2000845
:100030003B68000800000000F1E4000879BF0008F8
:100040007969000879690008796900087969000808
:1000500079690008796900087969000879690008F8
:1000600079690008796900087969000879690008E8
:1000700079690008796900087969000879690008D8
:1000800079690008796900087969000879690008C8
:1000900079690008796900087969000879690008B8
:1000A00079690008796900087969000849680008D9
:1000B000796900085D6800087168000879690008BE
:1000C0007969000879690008796900087969000888
:1000D000796900087969000879690008856800086D
:1000E0007969000879690008796900087969000868
:1000F0007969000879690008796900087969000858
:100100007969000879690008796900087969000847
:100110007969000879690008796900087969000837
:100120007969000879690008796900087969000827
:100130007969000879690008796900087969000817
:100140007969000879690008796900087969000807
:1001500079690008796900087969000879690008F7
:1001600079690008796900087969000879690008E7
:1001700079690008796900087969000800000000C1
:080180007969000879690008A3
:1001900010B5054C237833B9044B13B10448AFF3C1
:1001A00000800123237010BDA40100200000000086
:1001B00034FB000808B5034B1BB103490348AFF3F8
:1001C000008008BD00000000A801002034FB0008EA
:1001D00001F0FF01102A2BDB10F0070F08D010F8F8
:1001E000013B013A8B422DD010F0070F42B3F6D1FC
:1001F000F0B441EA012141EA014122F007047FF015
:1002000000070023F0E80256083C85EA010586EA6B
:10021000010685FA47F5A3FA87F586FA47F6A5FAA7
:1002200087F68EB9EED1F0BC01F0FF0102F00702B3
:1002300032B110F8013B013A83EA010313B1F8D15E
:100240000020704701387047002D06BF354603383F
:10025000073815F0010F07D1013015F4807F02BF78
:10026000013015F4C03F0130F0BC0138704700BFC9
:1002700081F0004102E000BF83F0004330B54FEA57
:1002800041044FEA430594EA050F08BF90EA020FC4
:100290001FBF54EA000C55EA020C7FEA645C7FEA57
:1002A000655C00F0E2804FEA5454D4EB5555B8BF7A
:1002B0006D420CDD2C4480EA020281EA030382EAEB
:1002C000000083EA010180EA020281EA0303362D7D
:1002D00088BF30BD11F0004F4FEA01314FF4801C50
:1002E0004CEA113102D0404261EB410113F0004F62
:1002F0004FEA03334CEA133302D0524263EB430319
:1003000094EA050F00F0A780A4F10104D5F1200EB6
:100310000DDB02FA0EFC22FA05F2801841F1000111
:1003200003FA0EF2801843FA05F359410EE0A5F1E5
:1003300020050EF1200E012A03FA0EFC28BF4CF016
:10034000020C43FA05F3C01851EBE37101F00045CC
:1003500007D54FF0000EDCF1000C7EEB00006EEBD9
:100360000101B1F5801F1BD3B1F5001F0CD3490863
:100370005FEA30004FEA3C0C04F101044FEA4452BA
:1003800012F5800F80F09A80BCF1004F08BF5FEA41
:10039000500C50F1000041EB045141EA050130BD21
:1003A0005FEA4C0C404141EB0101013C28BFB1F533
:1003B000801FE9D291F0000F04BF01460020B1FA7E
:1003C00081F308BF2033A3F10B03B3F120020CDA51
:1003D0000C3208DD02F1140CC2F10C0201FA0CF02F
:1003E00021FA02F10CE002F11402D8BFC2F1200C94
:1003F00001FA02F120FA0CFCDCBF41EA0C0190404A
:10040000E41AA2BF01EB0451294330BD6FEA040492
:100410001F3C1CDA0C340EDC04F11404C4F120027D
:1004200020FA04F001FA02F340EA030021FA04F38F
:1004300045EA030130BDC4F10C04C4F1200220FAE6
:1004400002F001FA04F340EA0300294630BD21FA24
:1004500004F0294630BD94F0000F83F4801306BFEA
:1004600081F480110134013D4EE77FEA645C18BFDE
:100470007FEA655C29D094EA050F08BF90EA020F75
:1004800005D054EA000C04BF1946104630BD91EA6D
:10049000030F1EBF0021002030BD5FEA545C05D170
:1004A0004000494128BF41F0004130BD14F58004AF
:1004B0003CBF01F5801130BD01F0004545F0FE4123
:1004C00041F470014FF0000030BD7FEA645C1ABF58
:1004D000194610467FEA655C1CBF0B46024650EA8F
:1004E000013406BF52EA033591EA030F41F40021BB
:1004F00030BD00BF90F0000F04BF0021704730B541
:100500004FF4806404F132044FF000054FF0000115
:1005100050E700BF90F0000F04BF0021704730B5D6
:100520004FF4806404F1320410F0004548BF4042AB
:100530004FF000013EE700BF42004FEAE2014FEA00
:1005400031014FEA02701FBF12F07F4393F07F4FDB
:1005500081F06051704732F07F4208BF704793F0DE
:100560007F4F04BF41F40021704730B54FF46074F1
:1005700001F0004521F000411CE700BF50EA0102F4
:1005800008BF704730B54FF000050AE050EA01029D
:1005900008BF704730B511F0004502D5404261EB0D
:1005A00041014FF4806404F132045FEA915C3FF44E
:1005B000D8AE4FF003025FEADC0C18BF03325FEAEB
:1005C000DC0C18BF033202EBDC02C2F1200300FA9C
:1005D00003FC20FA02F001FA03FE40EA0E0021FAC1
:1005E00002F11444BDE600BF70B54FF0FF0C4CF4AF
:1005F000E06C1CEA11541DBF1CEA135594EA0C0F61
:1006000095EA0C0F00F0DEF82C4481EA030621EA9B
:100610004C5123EA4C5350EA013518BF52EA0335D6
:1006200041F4801143F4801338D0A0FB02CE4FF088
:100630000005E1FB02E506F00042E0FB03E54FF0B8
:100640000006E1FB03569CF0000F18BF4EF0010EB0
:10065000A4F1FF04B6F5007F64F5407404D25FEAAC
:100660004E0E6D4146EB060642EAC62141EA55515F
:100670004FEAC52040EA5E504FEACE2EB4F1FD0CA1
:1006800088BFBCF5E06F1ED8BEF1004F08BF5FEA1F
:10069000500E50F1000041EB045170BD06F00046D1
:1006A00046EA010140EA020081EA0301B4EB5C047E
:1006B000C2BFD4EB0C0541EA045170BD41F4801176
:1006C0004FF0000E013C00F3AB8014F1360FDEBF9B
:1006D000002001F0004170BDC4F10004203C35DA77
:1006E0000C341BDC04F11404C4F1200500FA05F3FA
:1006F00020FA04F001FA05F240EA020001F000429B
:1007000021F0004110EBD37021FA04F642EB060110
:100710005EEA430E08BF20EAD37070BDC4F10C043A
:10072000C4F1200500FA04F320FA05F001FA04F2FE
:1007300040EA020001F0004110EBD37041F10001EA
:100740005EEA430E08BF20EAD37070BDC4F12005F5
:1007500000FA05F24EEA020E20FA04F301FA05F25D
:1007600043EA020321FA04F001F0004121FA04F205
:1007700020EA020000EBD3705EEA430E08BF20EAD5
:10078000D37070BD94F0000F0FD101F0004640000F
:1007900041EB010111F4801F08BF013CF7D041EA91
:1007A000060195F0000F18BF704703F00046520095
:1007B00043EB030313F4801F08BF013DF7D043EA66
:1007C0000603704794EA0C0F0CEA135518BF95EA1C
:1007D0000C0F0CD050EA410618BF52EA4306D1D1A3
:1007E00081EA030101F000414FF0000070BD50EAC2
:1007F000410606BF1046194652EA430619D094EA4C
:100800000C0F02D150EA013613D195EA0C0F05D135
:1008100052EA03361CBF104619460AD181EA030189
:1008200001F0004141F0FE4141F470014FF0000041
:1008300070BD41F0FE4141F4780170BD70B54FF0DC
:10084000FF0C4CF4E06C1CEA11541DBF1CEA13555C
:1008500094EA0C0F95EA0C0F00F0A7F8A4EB05043E
:1008600081EA030E52EA03354FEA013100F0888035
:100870004FEA03334FF0805545EA131343EA1263FE
:100880004FEA022245EA111545EA10654FEA0026B3
:100890000EF000419D4208BF964244F1FD0404F56C
:1008A000407402D25B084FEA3202B61A65EB0305C8
:1008B0005B084FEA32024FF480104FF4002CB6EB85
:1008C000020E75EB030E22BFB61A754640EA0C0005
:1008D0005B084FEA3202B6EB020E75EB030E22BF45
:1008E000B61A754640EA5C005B084FEA3202B6EB86
:1008F000020E75EB030E22BFB61A754640EA9C0045
:100900005B084FEA3202B6EB020E75EB030E22BF14
:10091000B61A754640EADC0055EA060E18D04FEAD2
:10092000051545EA16754FEA06164FEAC30343EA72
:1009300052734FEAC2025FEA1C1CC0D111F4801F3F
:100940000BD141EA00014FF000004FF0004CB6E738
:1009500011F4801F04BF01430020B4F1FD0C88BFD7
:10096000BCF5E06F3FF6AFAEB5EB030C04BFB6EBE2
:10097000020C5FEA500C50F1000041EB045170BDD5
:100980000EF0004E4EEA113114EB5C04C2BFD4EB02
:100990000C0541EA045170BD41F480114FF0000E86
:1009A000013C90E645EA060E8DE60CEA135594EA02
:1009B0000C0F08BF95EA0C0F3FF43BAF94EA0C0F05
:1009C0000AD150EA01347FF434AF95EA0C0F7FF47A
:1009D00025AF104619462CE795EA0C0F06D152EACE
:1009E00003353FF4FDAE1046194622E750EA4106B2
:1009F00018BF52EA43067FF4C5AE50EA41047FF4C3
:100A00000DAF52EA43057FF4EBAE12E74FF0FF3C27
:100A100006E000BF4FF0010C02E000BF4FF0010CF8
:100A20004DF804CD4FEA410C7FEA6C5C4FEA430C71
:100A300018BF7FEA6C5C1BD001B050EA410C0CBFC0
:100A400052EA430C91EA030F02BF90EA020F002022
:100A5000704710F1000F91EA030F58BF994208BF89
:100A600090422CBFD8176FEAE37040F00100704746
:100A70004FEA410C7FEA6C5C02D150EA013C07D19D
:100A80004FEA430C7FEA6C5CD6D152EA033CD3D0E8
:100A90005DF8040B704700BF8446104662468C46E2
:100AA0001946634600E000BF01B5FFF7B7FF002815
:100AB00048BF10F1000F01BD4DF808EDFFF7F4FF3E
:100AC0000CBF012000205DF808FB00BF4DF808EDC9
:100AD000FFF7EAFF34BF012000205DF808FB00BFEC
:100AE0004DF808EDFFF7E0FF94BF012000205DF80E
:100AF00008FB00BF4DF808EDFFF7CEFF94BF0120C3
:100B000000205DF808FB00BF4DF808EDFFF7C4FFBB
:100B100034BF012000205DF808FB00BF4A0011D25D
:100B200012F5001211D20DD56FF47873B3EB625247
:100B30000ED44FEAC12343F0004343EA505323FA53
:100B400002F070474FF00000704750EA013002D1C8
:100B50004FF0FF3070474FF0000070474FEA4102FE
:100B6000B2F1E04324BFB3F5001CDCF1FE5C0DD90B
:100B700001F0004C4FEAC0024CEA5070B2F1004F55
:100B800040EB830008BF20F00100704711F0804F58
:100B900021D113F13872BCBF01F00040704741F41D
:100BA00080114FEA5252C2F11802C2F1200C10FA21
:100BB0000CF320FA02F018BF40F001004FEAC12305
:100BC0004FEAD32303FA0CFC40EA0C0023FA02F3A9
:100BD0004FEA4303CCE77FEA625307D150EA01337F
:100BE0001EBF4FF0FE4040F44000704701F000404F
:100BF00040F0FE4040F40000704700BF53B94AB9CE
:100C0000002908BF00281CBF4FF0FF314FF0FF3014
:100C100000F070B9ADF1080C6DE904CE00F006F8F3
:100C2000DDF804E0DDE9022304B070472DE9F04768
:100C3000089E0D4604460F46002B4AD18A42944630
:100C400065D9B2FA82F343B102FA03FCC3F1200280
:100C50009F4020FA02F217439C404FEA1C4E1FFAB5
:100C60008CF5B7FBFEF1220C0EFB117742EA07422E
:100C700001FB05F090420AD91CEB020201F1FF379B
:100C800080F01C81904240F2198102396244121AAC
:100C9000A4B2B2FBFEF00EFB102244EA024400FBB9
:100CA00005F5A5420AD91CEB040400F1FF3280F0DF
:100CB0000781A54240F204816444023840EA0140C1
:100CC000641B00211EB1DC400023C6E90043BDE8DF
:100CD000F0878B4208D9002E00F0ED800021C6E994
:100CE00000050846BDE8F087B3FA83F1002949D131
:100CF000AB4202D3824200F2F880841A65EB030211
:100D000001201746002EE2D0C6E90047DFE702B90E
:100D1000FFDEB2FA82F3002B40F090808A1A4FEA8D
:100D20001C471FFA8CFE0121B2FBF7F507FB1520CB
:100D3000220C42EA00420EFB05F0904208D91CEB5F
:100D4000020205F1FF3802D2904200F2CB80454604
:100D5000121AA4B2B2FBF7F007FB102244EA0244D5
:100D60000EFB00FEA64508D91CEB040400F1FF327F
:100D700002D2A64500F2BB801046A4EB0E0440EA66
:100D800005409FE7C1F120078B4022FA07FC4CEA9F
:100D9000030C05FA01F420FA07F3FD404FEA1C4961
:100DA0002343B5FBF9F81FFA8CFE09FB18551C0C00
:100DB00044EA054408FB0EF5A54202FA01F200FAE6
:100DC00001F00BD91CEB040408F1FF3A80F0888095
:100DD000A54240F28580A8F102086444641B9DB2DC
:100DE000B4FBF9F309FB134445EA044403FB0EFE8C
:100DF000A64508D91CEB040403F1FF356CD2A645C7
:100E00006AD9023B644443EA0843A3FB0295A4EB7E
:100E10000E04AC42C846AE4656D353D056B1B0EBE2
:100E2000080264EB0E0404FA07F7CA40CC401743EB
:100E3000C6E9007418460021BDE8F087C3F120011F
:100E400002FA03FC20FA01F225FA01F19D402A433F
:100E50004FEA1C471FFA8CFEB1FBF7F007FB101599
:100E6000110C41EA054100FB0EF58D4204FA03F432
:100E700008D91CEB010100F1FF382FD28D422DD98A
:100E800002386144491B92B2B1FBF7F507FB15111B
:100E900042EA014205FB0EF1914208D91CEB020225
:100EA00005F1FF3816D2914214D9023D6244521A1C
:100EB00045EA004138E73146304608E73946E6E67C
:100EC0001046FBE64845A9D2B9EB020865EB0C0ECB
:100ED000013BA3E74546EAE72B4694E74046D1E7C6
:100EE000D0467BE7023D624432E708460AE76444A5
:100EF000023842E7704700BF80B582B000AF05F00E
:100F00003DFD00F087F900F021FD00F0F5FC00F058
:100F100083FA00F047FC00F04BFB00F0ABFA00F066
:100F20009BFB00F009FC00F0D3F900F023FA0EF06F
:100F3000BDF800230322002177480DF0E0FD0C21CD
:100F4000764808F09FFA0021754808F09BFA0421C2
:100F5000734808F097FA3C21724808F031FE724B52
:100F60001B789BB21A46714971480AF042F87148E1
:100F700008F056F90421704808F0A6FB674B1B687F
:100F800091221A644FF4967005F03AFD6B4B64227F
:100F90001A706A4B0A225A80694B00221A70684BF9
:100FA00000225A70674B1A78654B9A7000237B6059
:100FB0000CE064233B7000237B80614A7B689B00CC
:100FC00013443A685A607B6801337B605D4B1B7841
:100FD0001A467B689342ECDB9FED5B1ADFED5B0A00
:100FE0009FED5B0A5B4801F04FFA9FED571ADFED6A
:100FF000570A9FED570A584801F046FA9FED571AD5
:10100000DFED570A9FED570A574801F03DFA464B6E
:101010001B789BB21A464549454809F0EAFF3F4B09
:101020001B6891221A644FF4967005F0E9FC0AF0EF
:10103000BDFF4E4A00214E480BF002F803464D4AD0
:1010400013604D4A00214D480AF0FAFF03464C4A0E
:1010500013604C4A00214C480AF0F2FF03464B4A09
:1010600013604B4A00214B480AF0EAFF03464A4A04
:1010700013604A4A00214A480AF0E2FF0346494AFF
:101080001360494A002149480AF0DAFF0346484AFA
:101090001360484A002148480AF0D2FF0346474AF5
:1010A0001360474A002147480AF0CAFF0346464AF0
:1010B0001360464A002146480AF0C2FF0346454AEB
:1010C0001360454A002145480AF0BAFF0346444AE6
:1010D0001360444A002144480AF0B2FF0346434AE1
:1010E0001360434A002143480AF0AAFF0346424ADC
:1010F0001360424A002142480AF0A2FF0346414AD7
:101100001360414A002141480AF09AFF0346404AD1
:1011100013600AF06FFFFEE750020020A4020020D7
:10112000C4030020EC0200200000002088040020FE
:101130000C0400207C03002034030020C80400209D
:101140009404002001000020CDCC4C3FEC51383DF0
:101150006666064014050020000500209A99993E15
:10116000CDCC4C3DCDCC8C3F2805002008FC0008A0
:101170004D3E0008500400202CFC00085D3E000895
:101180005404002050FC0008DD3E000858040020F4
:1011900074FC0008314100085C04002098FC000841
:1011A0005943000860040020BCFC000865470008A3
:1011B00064040020E0FC00087D4B00086804002067
:1011C00004FD0008894F00086C04002028FD000879
:1011D00099530008700400204CFD0008E1590008F4
:1011E0007404002070FD0008D95A0008780400201B
:1011F00094FD0008415F00087C040020B8FD000851
:101200002560000880040020DCFD0008096100085A
:101210008404002080B594B000AF07F12003302291
:10122000002118460EF002F807F10C0300221A60A4
:101230005A609A60DA601A610023BB60224B1B6C13
:10124000214A43F0805313641F4B1B6C03F08053FF
:10125000BB60BB6800237B601C4B1B681B4A43F4CC
:1012600080431360194B1B6803F480437B607B68E9
:1012700002233B620123FB6210233B630023BB6319
:1012800007F12003184607F0F1FA0346002B01D0BE
:1012900004F0D4FF0F23FB6000233B6100237B613C
:1012A0000023BB610023FB6107F10C0300211846FA
:1012B00007F054FD0346002B01D004F0BFFF00BF30
:1012C0005037BD4680BD00BF00380240007000406E
:1012D00080B584B000AF3B4600221A605A609A6025
:1012E000DA60214B214A1A601F4B00225A601E4BC4
:1012F00000229A601C4B00221A611B4B00221A76B6
:10130000194B002283F82020174B0022DA62164B7B
:10131000174A9A62144B0022DA60134B0122DA61F9
:10132000114B002283F830200F4B01225A610E48E6
:1013300005F08AFB0346002B01D004F07FFF0B234E
:101340003B6001237B600023BB603B461946064897
:1013500005F05CFD0346002B01D004F06FFF00BFD9
:101360001037BD4680BD00BFC001002000200140F5
:101370000100000F80B584B000AF3B4600221A6028
:101380005A609A60DA60214B214A1A601F4B002292
:101390005A601E4B00229A601C4B00221A611B4BA4
:1013A00000221A76194B002283F82020174B0022C6
:1013B000DA62164B174A9A62144B0022DA60134B1A
:1013C0000122DA61114B002283F830200F4B0122F9
:1013D0005A610E4805F038FB0346002B01D004F09B
:1013E0002DFF0C233B6001237B600023BB603B4649
:1013F0001946064805F00AFD0346002B01D004F00B
:101400001DFF00BF1037BD4680BD00BF0802002091
:10141000002101400100000F80B500AF124B134ABC
:101420001A60114B124A5A600F4B00229A600E4B01
:101430000022DA600C4B4FF480421A610A4B002202
:101440005A61094B00229A61074B0022DA61064B70
:1014500000221A62044806F021FA0346002B01D04C
:1014600004F0ECFE00BF80BD50020020005400409C
:10147000A086010080B596B000AF07F148030022B6
:101480001A605A609A60DA6007F1400300221A601D
:101490005A6007F1240300221A605A609A60DA60E9
:1014A0001A615A619A613B1D2022002118460DF0F5
:1014B000BDFE3D4B3D4A1A603B4BA0225A603A4B61
:1014C00000229A60384B4FF47A72DA60364B002271
:1014D0001A61354B00225A61334B80229A6132489F
:1014E00007F04EFE0346002B01D004F0A7FE4FF498
:1014F0008053BB6407F1480319462B4808F054FE9B
:101500000346002B01D004F099FE274807F060FF46
:101510000346002B01D004F091FE00233B6400231E
:101520007B6407F1400319461F4809F0A1FB0346FD
:10153000002B01D004F082FE60237B620023BB629B
:101540000023FB6200237B630023BB630023FB6358
:1015500007F124030C221946134808F063FD0346E3
:10156000002B01D004F06AFE00237B600023BB60E7
:101570000023FB6000233B6100237B614FF4005399
:10158000BB6100233B623B1D1946074809F0ECFB99
:101590000346002B01D004F051FE034805F05CF82F
:1015A00000BF5837BD4680BDA402002000000140A6
:1015B00080B58CB000AF07F10C032422002118463F
:1015C0000DF034FE3B1D00221A605A60214B4FF093
:1015D00080421A601F4B00225A601E4B00229A6004
:1015E0001C4B4FF6FF72DA601A4B00221A61194B3E
:1015F00000229A610323FB6000233B6101237B618E
:101600000023BB610A23FB6100233B6201237B6251
:101610000023BB620A23FB6207F10C0319460D4845
:1016200008F028FA0346002B01D004F007FE00233F
:101630007B600023BB603B1D1946064809F018FB80
:101640000346002B01D004F0F9FD00BF3037BD4642
:1016500080BD00BFEC02002080B58AB000AF07F16A
:10166000180300221A605A609A60DA6007F11003CA
:1016700000221A605A603B4600221A605A609A6043
:10168000DA602B4B2B4A1A60294B0F225A60284BE9
:1016900000229A60264B4FF6FF72DA60244B00223C
:1016A0001A61234B00229A61214807F069FD034625
:1016B000002B01D004F0C2FD4FF48053BB6107F151
:1016C000180319461A4808F06FFD0346002B01D095
:1016D00004F0B4FD164807F09DFF0346002B01D02F
:1016E00004F0ACFD00233B6100237B6107F1100394
:1016F00019460F4809F0BCFA0346002B01D004F04C
:101700009DFD0A233B6001237B600023BB60002317
:10171000FB603B4604221946054808F0E7FB0346F8
:10172000002B01D004F08AFD00BF2837BD4680BDE4
:10173000340300200004004080B582B000AF3B4677
:1017400000221A605A60154B154A1A60134B0F227B
:101750005A60124B00229A60104B4FF6FF72DA600B
:101760000E4B00229A610D4807F00AFD0346002B3C
:1017700001D004F063FD00233B6000237B603B4607
:101780001946064809F074FA0346002B01D004F00C
:1017900055FD00BF0837BD4680BD00BF7C0300205B
:1017A0000010004080B596B000AF07F1480300225A
:1017B0001A605A609A60DA6007F1400300221A60EA
:1017C0005A6007F1240300221A605A609A60DA60B6
:1017D0001A615A619A613B1D2022002118460DF0C2
:1017E00025FD434B434A1A60414B00225A60404B4F
:1017F00000229A603E4B41F61F42DA603C4B0022C9
:101800001A613B4B00225A61394B00229A613848D9
:1018100007F0B6FC0346002B01D004F00FFD4FF497
:101820008053BB6407F148031946314808F0BCFCFB
:101830000346002B01D004F001FD2D4807F0C8FD40
:101840000346002B01D004F0F9FC00233B64002385
:101850007B6407F140031946254809F009FA03465D
:10186000002B01D004F0EAFC60237B620023BB6202
:101870000023FB6200233B6300237B630023BB63E5
:101880000023FB6307F1240300221946184808F0DF
:10189000C9FB0346002B01D004F0D0FC07F1240360
:1018A00004221946124808F0BDFB0346002B01D064
:1018B00004F0C4FC00237B600023BB600023FB60BA
:1018C00000233B6100237B614FF40053BB61002385
:1018D0003B623B1D1946064809F046FA0346002BB9
:1018E00001D004F0ABFC00BF5837BD4680BD00BF3F
:1018F000C40300200004014080B500AF114B124A20
:101900001A60104B4FF4E1325A600E4B00229A607D
:101910000C4B0022DA600B4B00221A61094B0C229F
:101920005A61084B00229A61064B0022DA61054891
:1019300009F080FA0346002B01D004F07FFC00BFC1
:1019400080BD00BF0C0400200048004080B58AB074
:1019500000AF07F1140300221A605A609A60DA603F
:101960001A6100233B61384B1B6B374A43F010036D
:101970001363354B1B6B03F010033B613B69002382
:10198000FB60314B1B6B304A43F0040313632E4B57
:101990001B6B03F00403FB60FB680023BB602A4B56
:1019A0001B6B294A43F001031363274B1B6B03F0A6
:1019B0000103BB60BB6800237B60234B1B6B224A87
:1019C00043F002031363204B1B6B03F002037B60A5
:1019D0007B6800224FF45E611C4805F045FF002241
:1019E0003C211B4805F040FF4FF45E637B610123FF
:1019F000BB610023FB6100233B6207F1140319461E
:101A0000124805F095FD0C237B610123BB61002387
:101A1000FB6102233B6207F1140319460C4805F0F1
:101A200087FD30237B610123BB610023FB61002321
:101A30003B6207F114031946054805F079FD00BF24
:101A40002837BD4680BD00BF00380240001002406C
:101A5000000002400000000080B582B000AF786056
:101A60007B681B7F022B40F08C804B4B1B78002B3C
:101A70001AD10421786808F05FFC0346474A1360D6
:101A8000454B01221A707B681B681A6A7B681B68C9
:101A900022F0A0021A627B681B681A6A7B681B68C6
:101AA00042F020021A626CE03B4B1B78012B68D19C
:101AB0000421786808F040FC0346394A13607B68CB
:101AC0001B6800225A62364B1A68344B1B689A42D4
:101AD0000CD9334B1A68314B1B68D31A07EE903A76
:101AE000F8EE677A2F4BC3ED007A14E02B4B1A689F
:101AF0002B4B1B689A420ED9294B1A68274B1B683F
:101B0000D31A03F57F43FF3307EE903AF8EE677A76
:101B1000244BC3ED007A234B1B681846FEF70CFDDF
:101B20001BA3D3E90023FEF75FFD02460B461046D8
:101B300019464FF000024FF08043FEF77FFE024649
:101B40000B4610461946FFF709F80346154A13607D
:101B5000114B00221A707B681B681A6A7B681B682D
:101B600022F0A0021A627B681A687B681B68126AFE
:101B70001A620D4B1B68DA680B4B1B6822F00402DB
:101B8000DA6000BF0837BD4680BD00BFAFF30080FC
:101B90009CC420B07268A13F5C0500205405002061
:101BA00058050020500500203403002080B584B083
:101BB00000AF7860944B9B78A3F1300213469B00F2
:101BC00013445B001A46904BDB78303B1344FB60B8
:101BD0008D4B1B792F2B0ED98B4B1B79392B0AD8A8
:101BE000FA6813469B0013445B001A46864B1B7928
:101BF000303B1344FB60854B00221A70824B1B78EC
:101C0000532B59D1804B5B78542B55D1804B1B689B
:101C100000225A637E4B1B6800229A637D4B1A7820
:101C20007D4B1A707B4B0E221A707C4B4FF00002DA
:101C30001A607B4B00221A807A4800F046FC7A48F2
:101C400000F043FC794800F040FC794B00221A80F8
:101C5000784B1A78774B5B789A4212D1764B642294
:101C60001A70754B00225A80744A0F2174480DF087
:101C7000A9FA4FF6FF7306227249734809F027F953
:101C8000C5E36C4B5B786C4A6A499B000B445B680C
:101C90001360684B5B780133664A927893FBF2F1EC
:101CA00001FB02F29B1ADAB2624B5A70674A0F21AB
:101CB00063480DF087FAAAE3534B1B78522B61D18E
:101CC000514B5B78532B5DD1514B1B6800225A63FB
:101CD0004F4B1B6800229A634E4B1A784E4B1A707A
:101CE0004C4B0E221A704D4B4FF000021A604C4BB9
:101CF00000221A80564B1B6891221A644FF496708A
:101D000004F07EFE474800F0E0FB474800F0DDFBB2
:101D1000464800F0DAFB464B00221A80454B1A7801
:101D2000444B5B789A4212D1434B64221A70424B67
:101D300000225A80414A0F2141480DF043FA4FF6E4
:101D4000FF7306223F49404809F0C1F85FE3394B71
:101D50005B78394A37499B000B445B681360354B0D
:101D60005B780133334A927893FBF2F101FB02F284
:101D70009B1ADAB22F4B5A70344A0F2130480DF0BB
:101D800021FA44E3204B1B78462B65D11E4B5B7830
:101D9000572B03D01C4B5B78532B5DD11A4B9B7890
:101DA0002D2B05D1184BDB782D2B01D1012300E021
:101DB0000023DAB2154B1A70134B5B78532B14BF08
:101DC00001230023DBB21A46224B1A70194B1B78F1
:101DD000184A9B00134401221A71164B1B78FA68AB
:101DE00091B2144A9B0013440A46DA80114B1B78C7
:101DF0000133104A927893FBF2F101FB02F29B1A35
:101E0000DAB20C4B1A7002E388040020DC040020D4
:101E1000C40300203401002035010020E404002028
:101E2000EA040020140500200005002028050020F9
:101E3000F804002094040020C8040020D8FB000807
:101E4000CC040020E0FB00080C040020E8FB0008A4
:101E5000A402002036010020964B1B78422B3DD176
:101E6000944B5B78572B03D0924B5B78532B35D137
:101E7000904B9B782D2B05D18E4BDB782D2B01D1F0
:101E8000012300E00023DAB28B4B1A70894B5B7898
:101E9000532B14BF01230023DBB21A46874B1A7061
:101EA000874B1B78864A9B00134402221A71844B8D
:101EB0001B78FA6891B2824A9B0013440A46DA8082
:101EC0007F4B1B7801337E4A927893FBF2F101FB42
:101ED00002F29B1ADAB27A4B1A7098E2754B1B78B1
:101EE000462B36D1734B5B784C2B32D1714B9B78A0
:101EF0002D2B05D16F4BDB782D2B01D1012300E079
:101F00000023DAB26C4B1A706B4B1B78002B01D09C
:101F1000032100E007216A4B1B78694A9B001344A8
:101F20000A461A71664B1B78FA6891B2644A9B00A4
:101F300013440A46DA80624B1B780133604A927878
:101F400093FBF2F101FB02F29B1ADAB25C4B1A70BE
:101F50005DE2584B1B78462B36D1564B5B78522BA3
:101F600032D1544B9B782D2B05D1524BDB782D2B46
:101F700001D1012300E00023DAB24F4B1A704E4B1F
:101F80001B78002B01D0042100E008214C4B1B786A
:101F90004B4A9B0013440A461A71494B1B78FA6856
:101FA00091B2474A9B0013440A46DA80444B1B789F
:101FB0000133434A927893FBF2F101FB02F29B1A40
:101FC000DAB23F4B1A7022E23A4B1B78422B36D1E1
:101FD000384B5B784C2B32D1364B9B782D2B05D16F
:101FE000344BDB782D2B01D1012300E00023DAB242
:101FF000314B1A70304B1B78002B01D0052100E0CB
:1020000009212F4B1B782E4A9B0013440A461A7154
:102010002B4B1B78FA6891B2294A9B0013440A465D
:10202000DA80274B1B780133254A927893FBF2F133
:1020300001FB02F29B1ADAB2214B1A70E7E11D4B49
:102040001B78422B3ED11B4B5B78522B3AD1194B5C
:102050009B782D2B05D1174BDB782D2B01D101233C
:1020600000E00023DAB2144B1A70134B1B78002BDC
:1020700001D0062100E00A21114B1B78104A9B0079
:1020800013440A461A710E4B1B78FA6891B20C4A37
:102090009B0013440A46DA80094B1B780133084A37
:1020A000927893FBF2F101FB02F29B1ADAB2044B35
:1020B0001A70ACE188040020DC0400203601002006
:1020C00094040020974B1B78542B21D1954B5B78BF
:1020D0004C2B1DD1944B1B78934A9B0013440B222D
:1020E0001A71914B1B78FA6891B28F4A9B00134486
:1020F0000A46DA808C4B1B7801338B4A927893FB2B
:10210000F2F101FB02F29B1ADAB2874B1A707EE100
:10211000844B1B78542B21D1824B5B78522B1DD1E1
:10212000814B1B78804A9B0013440C221A717E4B12
:102130001B78FA6891B27C4A9B0013440A46DA8005
:10214000794B1B780133784A927893FBF2F101FBCB
:1021500002F29B1ADAB2744B1A7058E1714B1B7879
:10216000442B21D16F4B5B78542B1DD16E4B1B78C8
:102170006D4A9B0013440E221A716B4B1B78FA6850
:1021800091B2694A9B0013440A46DA80664B1B7879
:102190000133654A927893FBF2F101FB02F29B1A3C
:1021A000DAB2614B1A7032E15E4B1B78542B21D1AD
:1021B0005C4B5B78442B1DD15B4B1B785A4A9B00D0
:1021C00013440F221A71584B1B78FA6891B2564A81
:1021D0009B0013440A46DA80534B1B780133524A62
:1021E000927893FBF2F101FB02F29B1ADAB24E4BAA
:1021F0001A700CE14B4B1B78462B21D1494B5B7875
:10220000412B1DD1484B1B78474A9B001344582251
:102210001A71454B1B78FA6891B2434A9B001344EC
:102220000A46DA80404B1B7801333F4A927893FB91
:10223000F2F101FB02F29B1ADAB23B4B1A70E6E0B4
:10224000384B1B78462B21D1364B5B78432B1DD165
:10225000354B1B78344A9B00134459221A71324B78
:102260001B78FA6891B2304A9B0013440A46DA8020
:102270002D4B1B7801332C4A927893FBF2F101FB32
:1022800002F29B1ADAB2284B1A70C0E0254B1B7879
:10229000422B21D1234B5B78412B1DD1224B1B7844
:1022A000214A9B0013445A221A711F4B1B78FA686B
:1022B00091B21D4A9B0013440A46DA801A4B1B78E0
:1022C0000133194A927893FBF2F101FB02F29B1A57
:1022D000DAB2154B1A709AE0124B1B78422B25D1BB
:1022E000104B5B78432B21D10F4B1B780E4A9B0080
:1022F00013445B221A710C4B1B78FA6891B20A4A9C
:102300009B0013440A46DA80074B1B780133064AC8
:10231000927893FBF2F101FB02F29B1ADAB2024BC4
:102320001A7074E088040020940400204F4B1B783E
:10233000542B21D14D4B5B78412B1DD14C4B1B783D
:102340004B4A9B0013445C221A71494B1B78FA6874
:1023500091B2474A9B0013440A46DA80444B1B78EB
:102360000133434A927893FBF2F101FB02F29B1A8C
:10237000DAB23F4B1A704AE03C4B1B78492B21D113
:102380003A4B5B78522B1DD1394B1B78384A9B0056
:1023900013445D221A71364B1B78FA6891B2344AA5
:1023A0009B0013440A46DA80314B1B780133304AD4
:1023B000927893FBF2F101FB02F29B1ADAB22C4BFA
:1023C0001A7024E0294B1B78492B20D1274B5B78CE
:1023D000432B1CD1264B1B78254A9B0013445E22BD
:1023E0001A71234B1B78FA6891B2214A9B0013445F
:1023F0000A46DA801E4B1B7801331D4A927893FB04
:10240000F2F101FB02F29B1ADAB2194B1A70184B67
:102410001A78174B5B789A4219D0154B5B78154A9E
:1024200013499B000B445B681360114B5B780133CD
:102430000F4A927893FBF2F101FB02F29B1ADAB297
:102440000B4B5A700C4A0F210C480CF0BBFE0C4B86
:102450001B685B680B4B1B789BB21A460349084804
:1024600008F0C7FD00BF1037BD4680BD88040020BE
:1024700094040020C8040020E8FB0008CC040020DD
:102480000C0400200000002080B485B000AFF8608C
:1024900087ED020AC7ED010A87ED001AFB68BA68EA
:1024A0001A60FB687A685A60FB683A689A60FB6851
:1024B0004FF00002DA60FB684FF000021A6100BFC3
:1024C0001437BD465DF8047B704780B483B000AF1D
:1024D00078607B684FF00002DA607B684FF00002A2
:1024E0001A6100BF0C37BD465DF8047B70470000E1
:1024F00080B500AF00224FF400611A4805F0B4F92E
:10250000194B1B6800225A62174B1B685B6A312B00
:10251000FAD901224FF40061124805F0A5F9124BD7
:102520001B6800225A62104B1B685B6A092BFAD9A0
:1025300000224FF400610B4805F096F90A4B1B6826
:1025400000225A62084B1B685B6A312BFAD9074B91
:102550001B68DA68054B1B6842F00402DA6000BFB2
:1025600080BD00BF001002407C0300203403002027
:1025700080B586B004AF0346FB714FF6FF7302933C
:1025800002230193A94B009301233722D021A848AD
:1025900005F0C2FBA54B1B781B021AB2A34B5B785C
:1025A0001BB213431AB2A34B1A80A34B1B681B68C0
:1025B00003F01003102B0CBF01230023DBB25AB22F
:1025C0009E4B1A709B4BB3F9003013F1040F04DBE0
:1025D000984BB3F900300B2B07DD964BB3F9003065
:1025E00007EE903AF8EEE77A01E0DFED957A954B49
:1025F00093ED007A77EE877A924BC3ED007AFB7900
:10260000002B64D1904B93ED007A8E4BD3ED007A82
:1026100027EE277A8C4BD3ED016A8B4BD3ED047AEE
:1026200066EEA77A37EE277A874BD3ED026A864BA0
:1026300093ED036A834BD3ED007A76EE677A66EE0C
:10264000A77A77EE277AFDEEE77A17EE902A7F4B8E
:102650001A607C4B1B687C4AD3607B4B93ED047AF9
:10266000784BD3ED007A77EE277A774BC3ED047A77
:10267000764B1B68B3F5167F06DC744B1B68744AF7
:102680009342B8BF134601E04FF416736F4A1360CC
:102690006A4B93F900309AB26C4B1B689BB212FBE9
:1026A00003F39BB203F596639AB26A4B1A80634BAD
:1026B00093F900309AB2654B1B689BB212FB03F38F
:1026C0009BB2C3F596639AB2634B1A80EFE0FB7935
:1026D000022B65D1614B93ED007A5A4BD3ED007A12
:1026E00027EE277A5D4BD3ED016A5C4BD3ED047A7C
:1026F00066EEA77A37EE277A584BD3ED026A574B2E
:1027000093ED036A4F4BD3ED007A76EE677A66EE6F
:10271000A77A77EE277AFDEEE77A17EE902A4B4BF1
:102720001A60484B1B684D4AD3604C4B93ED047ABA
:10273000444BD3ED007A77EE277A484BC3ED047A09
:10274000424B1B68B3F52F7F06DC404B1B68444AA5
:102750009342B8BF134601E04FF42F733B4A136016
:10276000364B93F900309AB2384B1B689BB212FB80
:1027700003F39BB203F6B8339AB2364B1A802F4B51
:1027800093F900309AB2314B1B689BB212FB03F3F2
:102790009BB2C3F53B6308339AB22F4B1A8086E095
:1027A000FB79012B40F083802E4B93ED007A254B73
:1027B000D3ED007A27EE277A2A4BD3ED016A294B15
:1027C000D3ED047A66EEA77A37EE277A254BD3ED60
:1027D000026A244B93ED036A1A4BD3ED007A76EE2E
:1027E000677A66EEA77A77EE277AFDEEE77A17EE3C
:1027F000902A164B1A60134B1B681A4AD360194B68
:1028000093ED047A0F4BD3ED007A77EE277A154BD0
:10281000C3ED047A0D4B1B68B3F52F7F24DC0B4B03
:102820001B680F4A9342B8BF13461FE0E80400201C
:1028300050020020EA040020EC02002040010020A9
:1028400000000000E40400201405002064050020BE
:10285000A8FDFFFFEC040020EE0400202805002066
:1028600044FDFFFF000500204FF42F73174A13604B
:10287000174B93F900309AB2144B1B689BB212FBB2
:1028800003F39BB203F6FC039AB2124B1A80104B6F
:1028900093F900309AB20D4B1B689BB212FB03F305
:1028A0009BB2C3F50F630C339AB20B4B1A80094BE2
:1028B0001A880A4B1B685A63074B1A88074B1B6818
:1028C0009A6300BF0837BD4680BD00BF6405002085
:1028D00040010020EC040020EE040020C40300208E
:1028E00080B584B000AF78600B46FB701346BB70B8
:1028F000A14B4FF000021A60A04B00221A80A048A2
:10290000FFF7E3FD9F48FFF7E0FD9F48FFF7DDFD80
:102910009E4B00221A809E4B00221A807B681B6807
:102920001846FDF709FE8EA3D3E90023FDF75CFEF0
:1029300002460B46104619468BA3D3E90023FDF748
:102940009BFC02460B46104619464FF00002914B85
:10295000FDF774FF02460B46104619464FF0000281
:102960008D4BFDF741FE02460B46104619464FF0CF
:1029700000028A4BFDF780FC02460B4610461946C2
:10298000FEF7CCF803469AB2854B1A8004F02CF877
:102990000346844A1360FB78002B0CBF01230023FD
:1029A000DBB21A460421804804F05EFFFB78002B5E
:1029B00014BF01230023DBB21A4608217A4804F031
:1029C00053FFFB78002B0CBF01230023DBB21A4618
:1029D0002021754804F048FFFB78002B14BF012329
:1029E0000023DBB21A4610216F4804F03DFF6F4B05
:1029F0001B685B6A9AB26E4B1A806C4B1B685B6AF1
:102A0000FB606A4B1B681B6803F01003102B17D187
:102A1000674B1B881A46FB68934206D8644B1A889A
:102A2000FB689BB2D31A9BB207E0614B1A88FB6824
:102A30009BB2D31A9BB2013B9BB2554A138016E05E
:102A40005B4B1B881A46FB68934206D3FB689AB21D
:102A5000574B1B88D31A9BB207E0FB689AB2544BC2
:102A60001B88D31A9BB2013B9BB2494A1380FB6877
:102A70009AB24F4B1A80454B1A88454B1B8813441A
:102A80009AB2424B1A80414B1A88454B1B889A4296
:102A900080F0A58003F0A8FF0246424B1B68D31AC2
:102AA000092BAAD9BB78002B03D10020FFF760FDCA
:102AB0008FE0364B1B881A46394B1B88D31A002BE4
:102AC000B8BF5B423B4A82FB0312D211DB17D31A19
:102AD00007EE903AF8EEE77A374BC3ED007ABB7811
:102AE000012B1ED1344BD3ED007AB7EE007AF4EE11
:102AF000C77AF1EE10FA02DD4FF07E530EE02E4B56
:102B0000D3ED007AB6EE087AF4EEC77AF1EE10FA59
:102B100002D54FF07D5301E0274B1B68264A136016
:102B200052E0BB78022B4FD1234BD3ED007AB7EEA6
:102B3000007AF4EEC77AF1EE10FA02DD4FF07E5320
:102B400040E01D4B1B681846FDF7F6FC08A3D3E9CF
:102B50000023FDF7BBFF0346002B31D0174B31E0BC
:102B60002AB266FCAC66F23FF82625BBD4E3EE3F02
:102B70009A9999999999D93FE4040020EA04002090
:102B8000140500200005002028050020F80400207E
:102B9000FC0400200000344000A0944000002440C9
:102BA000FA040020F004002000000240EC020020A3
:102BB000FE0400206757192138010020CDCCCC3EFF
:102BC0000D4B1B680C4A1360BB780B49184600F08C
:102BD00063F903F009FF0346084A13600DE700BFDD
:102BE000074B1B6800225A63054B1B6800229A633F
:102BF00000BF1037BD4680BD38010020F004002022
:102C0000C40300200000000080B584B000AF7860ED
:102C10000B46FB701346BB708F4B4FF000021A60DF
:102C20008E4B00221A808E48FFF74FFC8D48FFF72D
:102C30004CFC8D48FFF749FC8C4B00221A808C4BD2
:102C400000221A8003F0D0FE03468A4A1360FB7804
:102C5000002B0CBF01230023DBB21A460421864857
:102C600004F002FEFB78002B14BF01230023DBB22B
:102C70001A460821804804F0F7FDFB78002B0CBFB2
:102C800001230023DBB21A4620217B4804F0ECFD2F
:102C9000FB78002B14BF01230023DBB21A4610215E
:102CA000754804F0E1FD754B1B685B6A9AB2744B82
:102CB0001A80724B1B685B6AFB60704B1B681B6859
:102CC00003F01003102B17D16D4B1B881A46FB68BD
:102CD000934206D86A4B1A88FB689BB2D31A9BB200
:102CE00007E0674B1A88FB689BB2D31A9BB2013B83
:102CF0009BB25F4A138016E0614B1B881A46FB6843
:102D0000934206D3FB689AB25D4B1B88D31A9BB2E1
:102D100007E0FB689AB25A4B1B88D31A9BB2013B5F
:102D20009BB2534A1380FB689AB2554B1A804F4BA3
:102D30001A884F4B1B8813449AB24C4B1A804B4B4A
:102D40001B881A467B68934274D903F04DFE0246F5
:102D5000484B1B68D31A092BABD9BB78002B03D186
:102D60000020FFF705FC5FE0404B1B881A46454BEF
:102D70001B88D31A002BB8BF5B42434A82FB031265
:102D8000D211DB17D31A07EE903AF8EEE77A3F4BF1
:102D9000C3ED007ABB78012B1ED13C4BD3ED007AFA
:102DA000B7EE007AF4EEC77AF1EE10FA02DD4FF0DA
:102DB0007E530EE0354BD3ED007AB6EE087AF4EE92
:102DC000C77AF1EE10FA02D54FF07D5301E02F4B98
:102DD0001B682E4A136022E0BB78022B1FD12B4BBD
:102DE000D3ED007AB7EE007AF4EEC77AF1EE10FA7E
:102DF00002DD4FF07E5310E0244B1B681846FDF7B0
:102E00009BFB13A3D3E90023FDF760FE0346002BD1
:102E100001D01F4B01E01D4B1B681C4A1360BB789F
:102E20001A49184600F038F803F0DEFD0346114A4F
:102E300013603EE700BF174B1B6800225A63154B17
:102E40001B6800229A6300BF1037BD4680BD00BFDB
:102E50009A9999999999D93FE4040020EA040020AD
:102E6000140500200005002028050020F80400209B
:102E7000FC040020F004002000000240EC020020CE
:102E8000FE040020FA0400206757192138010020B1
:102E9000CDCCCC3EC403002080B586B004AF034641
:102EA0003960FB714FF6FF730293022301939B4B32
:102EB000009301233722D021994804F02DFF974B2E
:102EC0001B781B021AB2954B5B781BB213431AB2E4
:102ED000944B1A80944B1B681B6803F01003102B53
:102EE00001D1012201E04FF0FF32904B1A708D4B5F
:102EF000B3F9003013F1040F04DB8A4BB3F900304F
:102F00000B2B07DD874BB3F9003007EE903AF8EE54
:102F1000E77A01E0DFED867A864B93ED007A77EE73
:102F2000877A844BC3ED007AFB79012B65D1824B04
:102F300093ED007A7F4BD3ED007A27EE277A7E4B14
:102F4000D3ED016A7C4BD3ED047A66EEA77A37EEB7
:102F5000277A794BD3ED026A774B93ED036A754B71
:102F6000D3ED007A76EE677A66EEA77A77EE277A67
:102F7000FDEEE77A17EE902A704B1A606D4B1B68D6
:102F80006D4AD3606C4B93ED047A6A4BD3ED007AB3
:102F900077EE277A684BC3ED047A684B1B68B3F56C
:102FA0002F7F06DC654B1B68654A9342B8BF13460A
:102FB00001E04FF42F73614A13605C4B93F90030CA
:102FC0009AB25E4B1B689BB212FB03F39BB203F6F3
:102FD000FC039AB25B4B1A80544B93F900309AB2BF
:102FE000564B1B689BB212FB03F39BB2C3F50F63F6
:102FF0000C339AB2544B1A8067E0FB79022B64D1F0
:10300000524B93ED007A4B4BD3ED007A27EE277AA3
:103010004E4BD3ED016A4D4BD3ED047A66EEA77AA1
:1030200037EE277A494BD3ED026A484B93ED036A9A
:10303000404BD3ED007A76EE677A66EEA77A77EEAC
:10304000277AFDEEE77A17EE902A3C4B1A60394B4F
:103050001B683E4AD3603D4B93ED047A354BD3ED6C
:10306000007A77EE277A394BC3ED047A334B1B682D
:10307000B3F52F7F06DC314B1B68314A9342B8BF52
:10308000134601E04FF42F732C4A1360274B93F93A
:1030900000309AB2294B1B689BB212FB03F39BB220
:1030A00003F6B8339AB2274B1A80204B93F90030BD
:1030B0009AB2224B1B689BB212FB03F39BB2C3F57F
:1030C0003B6308339AB2204B1A801E4B1B8807EED5
:1030D000903AB8EEE77A3B68D3ED007A67EE277A4C
:1030E0001B4B1B68FCEEE77A17EE902A5A63164BCF
:1030F0001B8807EE903AB8EEE77A3B68D3ED007A8A
:1031000067EE277A124B1B68FCEEE77A17EE902ADF
:103110009A6300BF0837BD4680BD00BFE8040020A9
:1031200050020020EA040020EC02002040010020B0
:1031300000000000E40400200005002064050020D9
:1031400044FDFFFFEC040020EE04002028050020D1
:10315000C403002000000000B0B586B004AF786062
:103160004B4B4FF000021A604A4B00221A8003F0CA
:103170003BFC0346484A136003F036FC0246464BCC
:103180001B68D31A092BF7D94FF6FF73029302235A
:103190000193424B009301233722D021404804F091
:1031A000BBFD3E4B1B781B021AB23C4B5B781BB23B
:1031B00013431AB2374B1A80354B1B681846FDF77C
:1031C000BBF904460D46334BB3F900301846FDF702
:1031D000A1F92BA3D3E90023FDF730FB02460B46F0
:1031E0001046194628A3D3E90023FDF7FDF902464E
:1031F0000B4620462946FDF741F802460B4610468D
:103200001946FDF7ABFC0346214A1360204B93EDB2
:10321000007A7B68D3ED007A77EE677AFDEEE77A85
:1032200017EE903A002B0DDB194B93ED007A7B687B
:10323000D3ED007A77EE677AFDEEE77A17EE903AF3
:10324000002B05DD03F0D0FB0346134A136093E720
:1032500000BF144B1B6800225A63124B1B680022EC
:103260009A63114B1B6891221A644FF4967003F015
:10327000C7FB00BF0837BD46B0BD00BFAFF300803D
:1032800066666666666630407B14AE47E17A843FC8
:10329000E4040020EA040020F0040020E8040020F8
:1032A00050020020C4030020A402002000000000FF
:1032B00080B582B000AF78600B46FB709C4B4FF03E
:1032C00000021A609B4B00221A809B48FFF7FDF812
:1032D0009A48FFF7FAF89A48FFF7F7F8994B9A4A95
:1032E0001A600421994806F0EFF903F07DFB0346CC
:1032F000974A1360FFF7FCF80A2008F033FF7B6859
:1033000093ED007A8F4BD3ED007A77EE677AFDEE7E
:10331000E77A17EE903A002B0EDB7B6893ED007A8C
:10332000884BD3ED007A77EE677AFDEEE77A17EEF9
:10333000903A002B40F3E6807B6893ED007A814B56
:10334000D3ED007AB4EEE77AF1EE10FA94BF0123E0
:103350000023DBB283F00103DBB2DBB21A460421A7
:103360007C4804F081FA7B6893ED007A754BD3EDCD
:10337000007AB4EEE77AF1EE10FA94BF012300234D
:10338000DBB21A460821734804F06EFA7B6893EDAD
:10339000007A6C4BD3ED007AB4EEE77AF1EE10FAD6
:1033A00094BF01230023DBB283F00103DBB2DBB265
:1033B0001A462021674804F057FA7B6893ED007A9B
:1033C000604BD3ED007AB4EEE77AF1EE10FA94BFD9
:1033D00001230023DBB21A4610215E4804F044FAB0
:1033E00003F002FB02465A4B1B68D31A132B81D9F8
:1033F000FB78012B3FD1534B93ED007A7B68D3EDE3
:10340000007A77EE677AFDEEE77A17EE903A002BB6
:10341000B8BF5B42504A82FB03121A44D210DB173A
:10342000D31A07EE903AF8EEE77A4C4BC3ED007AE8
:103430004A4BD3ED007AB7EE007AF4EEC77AF1EE9C
:1034400010FA02DD4FF07E530EE0444BD3ED007ACC
:10345000B6EE087AF4EEC77AF1EE10FA02D54FF024
:103460007D5301E03D4B1B683C4A13603B49012002
:10347000FFF712FD40E0334B93ED007A7B68D3ED0C
:10348000007A77EE677AFDEEE77A17EE903A002B36
:10349000B8BF5B42304A82FB03121A44D210DB17DA
:1034A000D31A07EE903AF8EEE77A2C4BC3ED007A88
:1034B0002A4BD3ED007AB7EE007AF4EEC77AF1EE3C
:1034C00010FA02DD4FF07E5310E0244B1B681846C3
:1034D000FDF732F814A3D3E90023FDF7F7FA03460A
:1034E000002B01D01E4B01E01C4B1B681B4A1360D4
:1034F0001A490220FFF7D0FC03F076FA0346144A7B
:103500001360F7E600BF174B1B6800225A63154B88
:103510001B6800229A6304210C4806F0FDF900BFE5
:103520000837BD4680BD00BF9A9999999999D93FAE
:10353000E4040020EA040020140500200005002017
:10354000280500205005002000007A4434030020A4
:10355000F00400200000024089888888380100209B
:10356000CDCCCC3EC403002080B584B000AFF86061
:10357000B9601346FB71A04B4FF000021A609F4BDD
:1035800000221A809E48FEF7A0FF9E48FEF79DFF8E
:103590009D48FEF79AFF9D4B9D4A1A6004219D4865
:1035A00006F092F803F020FA03469B4A13609B4B07
:1035B00000221A800023FB60FEF79AFF0A2008F021
:1035C000D1FDBB6893ED007A904BD3ED007A77EE96
:1035D000677AFDEEE77A17EE903A002B0EDBBB68B8
:1035E00093ED007A894BD3ED007A77EE677AFDEEA2
:1035F000E77A17EE903A002B40F3E680BB6893ED34
:10360000007A824BD3ED007AB4EEE77AF1EE10FA4D
:1036100094BF01230023DBB283F00103DBB2DBB2F2
:103620001A4604217E4804F01FF9BB6893ED007A26
:10363000764BD3ED007AB4EEE77AF1EE10FA94BF50
:1036400001230023DBB21A460821754804F00CF967
:10365000BB6893ED007A6D4BD3ED007AB4EEE77A58
:10366000F1EE10FA94BF01230023DBB283F00103D3
:10367000DBB2DBB21A462021694804F0F5F8BB68DA
:1036800093ED007A614BD3ED007AB4EEE77AF1EE78
:1036900010FA94BF01230023DBB21A4610216048C0
:1036A00004F0E2F803F0A0F902465B4B1B68D31A62
:1036B000132B81D9FB79012B3FD1544B93ED007A29
:1036C000BB68D3ED007A77EE677AFDEEE77A17EE06
:1036D000903A002BB8BF5B42524A82FB03121A4455
:1036E000D210DB17D31A07EE903AF8EEE77A4E4B7A
:1036F000C3ED007A4C4BD3ED007AB7EE007AF4EECE
:10370000C77AF1EE10FA02DD4FF07E530EE0464B21
:10371000D3ED007AB6EE087AF4EEC77AF1EE10FA3D
:1037200002D54FF07D5301E03F4B1B683E4A1360CA
:103730003D490120FFF7B0FB40E0344B93ED007AA8
:10374000BB68D3ED007A77EE677AFDEEE77A17EE85
:10375000903A002BB8BF5B42324A82FB03121A44F4
:10376000D210DB17D31A07EE903AF8EEE77A2E4B19
:10377000C3ED007A2C4BD3ED007AB7EE007AF4EE6D
:10378000C77AF1EE10FA02DD4FF07E5310E0264BBF
:103790001B681846FCF7D0FE15A3D3E90023FDF7FC
:1037A00095F90346002B01D0204B01E01E4B1B680E
:1037B0001D4A13601C490220FFF76EFB03F014F949
:1037C0000346154A1360F7E600BF194B1B68002239
:1037D0005A63174B1B6800229A6304210D4806F0B8
:1037E0009BF800BF1037BD4680BD00BFAFF300801F
:1037F0009A9999999999D93FE4040020EA04002004
:103800001405002000050020280500205005002098
:1038100000007A4434030020F00400203C0500201E
:10382000000002408988888838010020CDCCCC3E39
:10383000C40300200000000080B584B002AF7860AF
:10384000AD48FEF742FEAD48FEF73FFEAC48FEF73E
:103850003CFEAC4B00221A70AB4B00221A70AB4BF3
:103860004FF000021A60AA4B00221A8003F0BCF845
:103870000346A84A13607B68002B00F09480A6489A
:1038800003F026F91421A44803F027FAA24803F014
:10389000AFFA0246A14B1B681344A04A1360A04B29
:1038A0001B885A1C9F4B83FB02135910D317C91A4C
:1038B0000B469B000B44D11A8AB2994B1A80984B45
:1038C0001B88042B2CD1954B1B68954A1288B3FB9F
:1038D000F2F31846FCF70EFE7FA3D3E90023FCF7B2
:1038E000CBFC02460B46104619467DA3D3E90023C4
:1038F000FCF7A4FF02460B4610461946FDF70EF9E9
:103900000346DAB27F4B1A70844B1B68844A1288D4
:10391000B3FBF2F39AB2844B1A80804B00221A60F8
:10392000142008F01FFC774B1B78232B2ED803F0B4
:103930005BF80246774B1B68D31A092B9FD9714B52
:103940001B781A460C2300930523002100200BF05E
:103950000DFB00220421754803F086FF0122082197
:10396000724803F081FF00222021704803F07CFFA1
:10397000012210216D4803F077FF0120FEF7F8FDCA
:1039800003F032F80346634A136078E700BF684BE0
:103990001B6800225A63664B1B6800229A635E48CC
:1039A00003F068F992E0634803F092F8142161484B
:1039B00003F093F95F4803F01BFA02465E4B1B6865
:1039C00013445D4A13605D4B1B885A1C554B83FBA7
:1039D00002135910D317C91A0B469B000B44D11A76
:1039E0008AB2564B1A80554B1B88042B2CD1524B54
:1039F0001B68524A1288B3FBF2F31846FCF77AFDB3
:103A000039A3D3E90023FCF737FC02460B461046E6
:103A1000194637A3D3E90023FCF710FF02460B46F3
:103A200010461946FDF77AF80346DAB2364B1A709B
:103A3000414B1B68414A1288B3FBF2F39AB2404BE8
:103A40001A803D4B00221A60142008F08BFB2E4B8D
:103A50001B78232B2ED802F0C7FF02462D4B1B6884
:103A6000D31A092B9FD9284B1B781A460C23009395
:103A70000523002100200BF079FA002204212B48B5
:103A800003F0F2FE01220821284803F0EDFE002297
:103A90002021264803F0E8FE01221021234803F0EC
:103AA000E3FE0120FEF764FD02F09EFF0346194A83
:103AB000136078E700BF1E4B1B6800225A631C4B43
:103AC0001B6800229A631B4803F0D4F800BF083734
:103AD000BD4680BDAFF30080B21188D7F55CAA4027
:103AE000C6C4E6E3DA984FC070B6B931FDA8A94064
:103AF000EE3D5C72DC594EC014050020000500202C
:103B0000280500204305002042050020E404002091
:103B1000EA040020F0040020C00100204805002035
:103B200044050020676666663E05002000000240EE
:103B3000C4030020080200204C0500204605002098
:103B4000400500200000000080B584B002AF78601E
:103B5000AB48FEF7BAFCAB48FEF7B7FCAA48FEF745
:103B6000B4FCAA4B00221A70A94B00221A70A94B70
:103B70004FF000021A60A84B00221A8002F034FFB6
:103B80000346A64A13607B68002B00F09380A4488C
:103B900002F09EFF1421A24803F09FF8A04803F012
:103BA00027F902469F4B1B6813449E4A13609E4BA5
:103BB0001B885A1C9D4B83FB02135910D317C91A3B
:103BC0000B469B000B44D11A8AB2974B1A80964B36
:103BD0001B88042B2CD1934B1B68934A1288B3FB90
:103BE000F2F31846FCF786FC7DA3D3E90023FCF72B
:103BF00043FB02460B46104619467BA3D3E900233C
:103C0000FCF71CFE02460B4610461946FCF786FFE1
:103C10000346DAB27D4B1A70824B1B68824A1288C7
:103C2000B3FBF2F39AB2824B1A807E4B00221A60E9
:103C3000764B1B781A460C230093052300210020A5
:103C40000BF094F9142008F08DFA02F0CDFE024634
:103C5000724B1B68D31A092B1BD90022042175480B
:103C600003F002FE01220821724803F0FDFD00224C
:103C70002021704803F0F8FD012210216D4803F067
:103C8000F3FD0120FEF774FC02F0AEFE0346634A2A
:103C900013605E4B1B78182B3FF679AF664B1B68A1
:103CA00000225A63644B1B6800229A635C4802F04E
:103CB000E1FF91E0614802F00BFF14215F4803F03F
:103CC0000CF85E4803F094F802465D4B1B68134401
:103CD0005B4A13605B4B1B885A1C544B83FB0213DB
:103CE0005910D317C91A0B469B000B44D11A8AB23C
:103CF000544B1A80534B1B88042B2CD1504B1B6800
:103D0000504A1288B3FBF2F31846FCF7F3FB38A3D2
:103D1000D3E90023FCF7B0FA02460B4610461946D9
:103D200035A3D3E90023FCF789FD02460B46104674
:103D30001946FCF7F3FE0346DAB2354B1A70404BD6
:103D40001B68404A1288B3FBF2F39AB23E4B1A80CA
:103D50003B4B00221A602E4B1B781A460C23009313
:103D60000523002100200BF001F9142008F0FAF9D6
:103D700002F03AFE0246294B1B68D31A092B1BD9C5
:103D8000002204212B4803F06FFD0122082129485D
:103D900003F06AFD00222021264803F065FD012280
:103DA0001021244803F060FD0120FEF7E1FB02F042
:103DB0001BFE0346194A1360154B1B78182B3FF660
:103DC00079AF1D4B1B6800225A631B4B1B680022F6
:103DD0009A631A4802F04EFF00BF0837BD4680BD07
:103DE000B21188D7F55CAA40C6C4E6E3DA984FC0A2
:103DF00070B6B931FDA8A940EE3D5C72DC594EC0E9
:103E0000140500200005002028050020430500209F
:103E100042050020E4040020EA040020F004002011
:103E2000C001002048050020440500206766666642
:103E30003E05002000000240C403002008020020CC
:103E40004C050020460500204005002080B582B0CA
:103E500000AF7860642008F085F9FBE780B584B096
:103E600002AF78601A4802F033FE1A4802F030FEC2
:103E70001421174802F031FF1421164802F02DFFDB
:103E8000134802F0B5FF02460C23009305231421CA
:103E900000200BF06BF80F4802F0AAFF02460C233B
:103EA0000093052314213C200BF060F8084802F031
:103EB000E1FE084802F0DEFE074A282100200BF050
:103EC000C3F80AF0C3FE642008F04CF9CAE700BF4B
:103ED00008020020C00100208804002080B582B0C4
:103EE00000AF78607B4B1B78002B04D04FF47A70C6
:103EF00008F038F9F6E7784B4FF000021A60774B7C
:103F000000221A80764B1B78002B62D0754B4FF045
:103F100000021A60744B00221A807448FEF7D5FA2A
:103F20007348FEF7D2FA7348FEF7CFFA0022042155
:103F3000714803F099FC012208216F4803F094FCBA
:103F4000002220216C4803F08FFC012210216A48D6
:103F500003F08AFC694B1B6800225A63674B1B689D
:103F600000229A635B4B1A78654B1A70594B0E22EC
:103F70001A70644B00221A60634B64221A70624B01
:103F800000225A80614A0F2161480BF01BF94FF65D
:103F9000FF7306225F49604806F099FF02F024FD96
:103FA00003465E4A13604E4B1B78002B00F0908056
:103FB00002F01AFD0246594B1B68D31A092BF2D99D
:103FC0000020FEF7D5FA02F00FFD0346534A1360B6
:103FD000E9E74D4B5B8807EE903AF8EE677A3E4B87
:103FE000C3ED007A3C4BD3ED007AB2EE0E7AF4EEDC
:103FF000C77AF1EE10FA02D8494B00221A70364BFC
:10400000D3ED007A9FED477AF4EEC77AF1EE10FA1D
:1040100009DB314BD3ED007AB0EE007A77EEC77A48
:104020002D4BC3ED007A3E4B1B78002B05D10022AF
:1040300001212948FEF754FC04E002220121264810
:10404000FEF74EFC2D4B1B6800225A632B4B1B685E
:1040500000229A631F4B1A78294B1A701D4B0E22AF
:104060001A70284B00221A602F4B1A782E4B5B785F
:104070009A4212D1244B64221A70234B00225A8098
:10408000224A0F2122480BF09DF84FF6FF730622BB
:104090002049214806F01BFF24E7234B5B781A4A8E
:1040A00021499B000B445B6813601F4B5B78013315
:1040B0001D4A927893FBF2F101FB02F29B1ADAB2ED
:1040C000194B5A70194A0F2111480BF07BF809E778
:1040D00000BF07E734010020F4040020FA040020A8
:1040E000DC040020E4040020EA0400201405002081
:1040F000000500202805002000000240C403002025
:104100003501002060050020C8040020D8FB00080D
:10411000CC040020E0FB00080C040020F004002088
:10412000360100200000C84294040020E8FB00088B
:1041300080B582B000AF7860714B1B78012B04D042
:104140004FF47A7008F00EF8F6E76E4B4FF000026D
:104150001A606D4B00221A806C4B1B78002B61D0CB
:104160006B4B4FF000021A606A4B00221A806A48BB
:10417000FEF7ABF96948FEF7A8F96948FEF7A5F91B
:1041800001220421674803F06FFB002208216548E3
:1041900003F06AFB01222021624803F065FB002244
:1041A0001021604803F060FB5F4B1B6800225A63DC
:1041B0005D4B1B6800229A63514B1A785B4B1A7057
:1041C0004F4B0E221A705A4B00221A60594B642230
:1041D0001A70584B00225A80574A0F2157480AF04C
:1041E000F1FF4FF6FF7306225549564806F06FFE61
:1041F00002F0FAFB0346544A1360444B1B78002B31
:104200007BD002F0F1FB02464F4B1B68D31A092BFF
:10421000F3D90020FEF7ACF902F0E6FB03464A4A68
:104220001360EAE7434B5B8807EE903AF8EE677A53
:10423000344BC3ED007A334BD3ED007AB2EE0E7AF5
:10424000F4EEC77AF1EE10FA02D8404B00221A7051
:104250003E4B1B78002B05D1002200212948FEF798
:104260003FFB04E0022200212648FEF739FB2E4BDB
:104270001B6800225A632C4B1B6800229A63204B58
:104280001A782A4B1A701E4B0E221A70284B0022E5
:104290001A602F4B1A782E4B5B789A4212D1254B1D
:1042A00064221A70234B00225A80234A0F2123488C
:1042B0000AF088FF4FF6FF7306222149214806F0D5
:1042C00006FE39E7224B5B781A4A21499B000B44D2
:1042D0005B6813601E4B5B7801331D4A927893FB39
:1042E000F2F101FB02F29B1ADAB2194B5A70194A29
:1042F0000F2112480AF066FF1EE700BF1CE700BF4F
:1043000034010020F4040020FA040020DC04002022
:10431000E4040020EA040020140500200005002029
:104320002805002000000240C403002035010020C1
:1043300060050020C8040020D8FB0008CC04002041
:10434000E0FB00080C040020F004002036010020EF
:1043500094040020E8FB000880B582B000AF7860CC
:10436000944B1B78022B04D04FF47A7007F0FAFEBE
:10437000F6E7914B5B88142B00F083801E2B40F0F6
:10438000F8808E4B8E4A1A60002201218B48FEF77E
:10439000A7FA8C4BD3ED3D7A9FED8B7AF4EEC77A7A
:1043A000F1EE10FA02DD40F2091312E0854BD3ED75
:1043B0003D7A9FED867AF4EEC77AF1EE10FA01D5D8
:1043C000462306E07F4BD3ED3D7AFCEEE77A17EE0D
:1043D000903A7F4A126813644FF4967002F010FB13
:1043E000784BD3F8F8307B4A1360764B93F8FC3067
:1043F000002B0CBF01230023DBB21A4604217648B0
:1044000003F032FA6F4B93F8FC30002B14BF0123FA
:104410000023DBB21A4608216F4803F025FA694BE6
:1044200093F8FC30002B0CBF01230023DBB21A46AB
:104430002021694803F018FA624B93F8FC30002BF6
:1044400014BF01230023DBB21A461021624803F097
:104450000BFA5C4BB3F8F020604B1B685A63594B66
:10446000B3F8F2205D4B1B689A635A48FEF774FE5E
:10447000524B5B4A1A60002200215048FEF730FA86
:1044800011E14E4B4E4A1A60002201214B48FEF7C3
:1044900027FA4C4BD3ED2D7A9FED4B7AF4EEC77A89
:1044A000F1EE10FA02DD40F2091312E0454BD3EDB4
:1044B0002D7A9FED467AF4EEC77AF1EE10FA01D527
:1044C000462306E03F4BD3ED2D7AFCEEE77A17EE5C
:1044D000903A3F4A126813644FF4967002F090FAD3
:1044E000384BD3F8B8303B4A1360364B93F8BC30A6
:1044F000002B0CBF01230023DBB21A4604213648EF
:1045000003F0B2F92F4B93F8BC30002B14BF0123FA
:104510000023DBB21A4608212F4803F0A5F9294BE6
:1045200093F8BC30002B0CBF01230023DBB21A46EA
:104530002021294803F098F9224B93F8BC30002B36
:1045400014BF01230023DBB21A461021224803F0D6
:104550008BF91C4BB3F8B020204B1B685A63194BE6
:10456000B3F8B2201D4B1B689A631A48FEF7F4FD9E
:1045700099E0124B1B4A1A60002201210F48FEF7F6
:10458000AFF9104BD3ED1D7A9FED0F7AF4EEC77A99
:10459000F1EE10FA02DD40F209132CE0094BD3EDE5
:1045A0001D7A9FED0A7AF4EEC77AF1EE10FA1BD568
:1045B000462320E034010020C8040020F404002039
:1045C0000000A040040000200080844300008C42D2
:1045D000A4020020E004002000000240C4030020E8
:1045E00000004040000030414E4BD3ED1D7AFCEE00
:1045F000E77A17EE903A4C4A126813644FF49670BB
:1046000002F0FEF9474B9B6F484A1360454B93F805
:104610007C30002B0CBF01230023DBB21A4604219F
:10462000434803F021F93F4B93F87C30002B14BF33
:1046300001230023DBB21A4608213D4803F014F998
:10464000384B93F87C30002B0CBF01230023DBB2E6
:104650001A462021364803F007F9324B93F87C3094
:10466000002B14BF01230023DBB21A46102130486F
:1046700003F0FAF82B4BB3F870202E4B1B685A63EB
:10468000284BB3F872202B4B1B689A632748FEF720
:1046900063FD294B4FF080421A6000220121264819
:1046A000FEF71EF900BF254B00221A60244B1A7832
:1046B000244B1A70224B0E221A70234B1A78224B6D
:1046C0005B789A4212D1214B64221A701F4B002250
:1046D0005A801F4A0F211F480AF074FD4FF6FF73DE
:1046E00006221D491D4806F0F2FB39E6164B5B78A1
:1046F000164A15499B000B445B681360124B5B78AC
:104700000133114A927893FBF2F101FB02F29B1AFA
:10471000DAB20D4B5A70124A0F210E480AF052FDC0
:104720001EE600BF04000020A4020020E0040020D8
:1047300000000240C4030020F404002060050020B3
:10474000340100203501002094040020C80400201A
:10475000D8FB0008CC040020E0FB00080C0400207B
:10476000E8FB000880B582B000AF7860994B1B78F9
:10477000032B04D04FF47A7007F0F4FCF6E7964B65
:104780005B88142B00F085801E2B40F00181934B39
:104790004FF081421A60002201219048FEF7A0F8F4
:1047A0008F4BD3ED417A9FED8F7AF4EEC77AF1EE1D
:1047B00010FA02DD40F2091312E0894BD3ED417A81
:1047C0009FED897AF4EEC77AF1EE10FA01D546230F
:1047D00006E0834BD3ED417AFCEEE77A17EE903A90
:1047E000824A126813644FF4967002F009F97C4B08
:1047F000D3F808317E4A1360794B93F80C31002BC3
:104800000CBF01230023DBB21A460421794803F0D0
:104810002BF8734B93F80C31002B14BF01230023AA
:10482000DBB21A460821734803F01EF86C4B93F86C
:104830000C31002B0CBF01230023DBB21A462021D0
:104840006C4803F011F8664B93F80C31002B14BF41
:1048500001230023DBB21A461021664803F004F856
:104860005F4BB3F80021644B1B685A635C4BB3F891
:104870000221614B1B689A635D48FEF76DFC574B44
:104880004FF080421A60002200215448FEF728F8B9
:1048900016E1524B4FF081421A60002201214F482D
:1048A000FEF71EF80A2007F05DFC4D4BD3ED317A80
:1048B0009FED4C7AF4EEC77AF1EE10FA02DD40F289
:1048C000091312E0464BD3ED317A9FED477AF4EEAF
:1048D000C77AF1EE10FA01D5462306E0404BD3ED3E
:1048E000317AFCEEE77A17EE903A404A1268136488
:1048F0004FF4967002F084F8394BD3F8C8303C4A34
:104900001360374B93F8CC30002B0CBF01230023EE
:10491000DBB21A460421374802F0A6FF304B93F869
:10492000CC30002B14BF01230023DBB21A46082130
:10493000304802F099FF2A4B93F8CC30002B0CBF83
:1049400001230023DBB21A4620212A4802F08CFF03
:10495000234B93F8CC30002B14BF01230023DBB290
:104960001A461021234802F07FFF1D4BB3F8C020E8
:10497000214B1B685A631A4BB3F8C2201E4B1B68AD
:104980009A631B48FEF7E8FB0A2007F0EBFB97E071
:10499000124B1A4A1A60002201211048FDF7A0FFAD
:1049A0000F4BD3ED217A9FED0F7AF4EEC77AF1EE3B
:1049B00010FA02DD40F2091329E0094BD3ED217A08
:1049C0009FED097AF4EEC77AF1EE10FA18D5462376
:1049D0001DE000BF34010020C8040020F4040020C2
:1049E000040000200080844300008C42A4020020C8
:1049F000E004002000000240C403002000006040EA
:104A00004E4BD3ED217AFCEEE77A17EE903A4C4A02
:104A1000126813644FF4967001F0F2FF474BD3F81D
:104A20008830484A1360454B93F88C30002B0CBFFC
:104A300001230023DBB21A460421434802F014FF8D
:104A40003E4B93F88C30002B14BF01230023DBB2C4
:104A50001A4608213C4802F007FF384B93F88C3087
:104A6000002B0CBF01230023DBB21A46202136485D
:104A700002F0FAFE314B93F88C30002B14BF012367
:104A80000023DBB21A4610212F4802F0EDFE2B4B1B
:104A9000B3F880202D4B1B685A63284BB3F8822053
:104AA0002A4B1B689A632748FEF756FB284B4FF0AA
:104AB00080421A60002200212548FDF711FF00BF47
:104AC000244B00221A60244B1A78244B1A70224B74
:104AD0000E221A70224B1A78214B5B789A4212D11F
:104AE000204B64221A701F4B00225A801E4A0F214D
:104AF0001E480AF067FB4FF6FF7306221C491D484B
:104B000006F0E5F932E6164B5B78164A14499B002D
:104B10000B445B681360124B5B780133104A927848
:104B200093FBF2F101FB02F29B1ADAB20C4B5A70C2
:104B3000114A0F210D480AF045FB17E6040000203A
:104B4000A4020020E004002000000240C403002072
:104B5000F40400206005002034010020350100200D
:104B600094040020C8040020D8FB0008CC040020D6
:104B7000E0FB00080C040020E8FB000880B582B0D0
:104B800000AF7860964B1B78042B04D04FF47A70FA
:104B900007F0E8FAF6E7934B5B88142B00F084806B
:104BA0001E2B40F0FA80904B4FF07E521A6000228C
:104BB00001218D48FDF794FE8C4BD3ED457A9FED96
:104BC0008C7AF4EEC77AF1EE10FA02DD40F20913A6
:104BD00012E0864BD3ED457A9FED867AF4EEC77AE4
:104BE000F1EE10FA01D5462306E0804BD3ED457A6D
:104BF000FCEEE77A17EE903A7F4A126813644FF49E
:104C0000967001F0FDFE794BD3F818317B4A1360A2
:104C1000764B93F81C31002B0CBF01230023DBB231
:104C20001A460421764802F01FFE704B93F81C319F
:104C3000002B14BF01230023DBB21A460821704861
:104C400002F012FE694B93F81C31002B0CBF0123BC
:104C50000023DBB21A462021694802F005FE634BAF
:104C600093F81C31002B14BF01230023DBB21A463A
:104C70001021634802F0F8FD5C4BB3F81021614B42
:104C80001B685A63594BB3F812215E4B1B689A6339
:104C90005A48FEF761FA544B5B4A1A600022002121
:104CA0005148FDF71DFE11E1504BD3ED357A9FEDD4
:104CB000507AF4EEC77AF1EE10FA02DD40F20913F1
:104CC00012E04A4BD3ED357A9FED4A7AF4EEC77A7B
:104CD000F1EE10FA01D5462306E0444BD3ED357AC8
:104CE000FCEEE77A17EE903A434A126813644FF4E9
:104CF000967001F085FE3D4BD3F8D8303F4A1360E3
:104D00003A4B93F8DC30002B0CBF01230023DBB2BD
:104D10001A4604213A4802F0A7FD344B93F8DC30E0
:104D2000002B14BF01230023DBB21A4608213448AC
:104D300002F09AFD2D4B93F8DC30002B0CBF0123C1
:104D40000023DBB21A4620212D4802F08DFD274BAF
:104D500093F8DC30002B14BF01230023DBB21A468A
:104D60001021274802F080FD204BB3F8D020254BBE
:104D70001B685A631D4BB3F8D220224B1B689A6301
:104D80001E48FEF7E9F9184B4FF081421A600022E5
:104D900000211548FDF7A4FD98E0134B4FF07E521B
:104DA0001A60002200211048FDF79AFD0F4BD3ED49
:104DB000257A9FED0F7AF4EEC77AF1EE10FA02DD54
:104DC00040F2091329E0094BD3ED257A9FED097ACA
:104DD000F4EEC77AF1EE10FA18D546231DE000BFB5
:104DE00034010020C8040020F40400200400002046
:104DF0000080844300008C42A4020020E0040020D4
:104E000000000240C40300200000C0404E4BD3ED20
:104E1000257AFCEEE77A17EE903A4C4A1268136452
:104E20004FF4967001F0ECFD474BD3F89830484AA8
:104E30001360454B93F89C30002B0CBF01230023DB
:104E4000DBB21A460421434802F00EFD3E4B93F8B4
:104E50009C30002B14BF01230023DBB21A4608212B
:104E60003C4802F001FD384B93F89C30002B0CBFFE
:104E700001230023DBB21A462021364802F0F4FC5D
:104E8000314B93F89C30002B14BF01230023DBB27D
:104E90001A4610212F4802F0E7FC2B4BB3F8902064
:104EA0002D4B1B685A63284BB3F892202A4B1B6882
:104EB0009A632748FEF750F9284B4FF082421A6058
:104EC000002200212548FDF70BFD00BF244B0022E6
:104ED0001A60244B1A78244B1A70224B0E221A7037
:104EE000224B1A78214B5B789A4212D1204B6422D4
:104EF0001A701F4B00225A801E4A0F211E480AF0CA
:104F000061F94FF6FF7306221C491D4805F0DFFFCB
:104F100038E6164B5B78164A14499B000B445B68D5
:104F20001360124B5B780133104A927893FBF2F1D5
:104F300001FB02F29B1ADAB20C4B5A70114A0F2194
:104F40000D480AF03FF91DE604000020A4020020ED
:104F5000E004002000000240C4030020F40400200C
:104F60006005002034010020350100209404002059
:104F7000C8040020D8FB0008CC040020E0FB000897
:104F80000C040020E8FB000880B582B000AF786018
:104F9000954B1B78052B04D04FF47A7007F0E2F89C
:104FA000F6E7924B5B88142B00F084801E2B40F0B8
:104FB000FA808F4B4FF080421A60002200218C480B
:104FC000FDF78EFC8B4BD3ED497A9FED8B7AF4EE97
:104FD000C77AF1EE10FA02DD40F2091312E0854BB8
:104FE000D3ED497A9FED857AF4EEC77AF1EE10FAA7
:104FF00001D5462306E07F4BD3ED497AFCEEE77AF4
:1050000017EE903A7E4A126813644FF4967001F0DE
:10501000F7FC784BD3F828317A4A1360754B93F834
:105020002C31002B0CBF01230023DBB21A460421D4
:10503000754802F019FC6F4B93F82C31002B14BF0C
:1050400001230023DBB21A4608216F4802F00CFC52
:10505000684B93F82C31002B0CBF01230023DBB2EB
:105060001A462021684802F0FFFB624B93F82C316E
:10507000002B14BF01230023DBB21A461021624823
:1050800002F0F2FB5B4BB3F82021604B1B685A63C4
:10509000584BB3F822215D4B1B689A635948FEF7C1
:1050A0005BF8534B5A4A1A60002200215048FDF722
:1050B00017FC10E14F4BD3ED397A9FED4F7AF4EEA8
:1050C000C77AF1EE10FA02DD40F2091312E0494B03
:1050D000D3ED397A9FED497AF4EEC77AF1EE10FA02
:1050E00001D5462306E0434BD3ED397AFCEEE77A4F
:1050F00017EE903A424A126813644FF4967001F02A
:105100007FFC3C4BD3F8E8303E4A1360394B93F8B0
:10511000EC30002B0CBF01230023DBB21A46042124
:10512000394802F0A1FB334B93F8EC30002B14BF4D
:1051300001230023DBB21A460821334802F094FB16
:105140002C4B93F8EC30002B0CBF01230023DBB277
:105150001A4620212C4802F087FB264B93F8EC30AE
:10516000002B14BF01230023DBB21A46102126486E
:1051700002F07AFB1F4BB3F8E020244B1B685A6304
:105180001C4BB3F8E220214B1B689A631D48FDF7C6
:10519000E3FF174B4FF081421A60002200211448B0
:1051A000FDF79EFB97E0124B1A4A1A60002201217C
:1051B0000F48FDF795FB0F4BD3ED297A9FED0E7A43
:1051C000F4EEC77AF1EE10FA02DD40F209132AE09C
:1051D000084BD3ED297A9FED097AF4EEC77AF1EE08
:1051E00010FA19D546231EE034010020C80400201F
:1051F000F4040020040000200080844300008C425E
:10520000A4020020E004002000000240C4030020AB
:105210000000E0400000A0404E4BD3ED297AFCEEA8
:10522000E77A17EE903A4C4A126813644FF496707E
:1052300001F0E6FB474BD3F8A830484A1360454BD2
:1052400093F8AC30002B0CBF01230023DBB21A46CD
:105250000421434802F008FB3E4B93F8AC30002B8E
:1052600014BF01230023DBB21A4608213C4802F098
:10527000FBFA384B93F8AC30002B0CBF0123002312
:10528000DBB21A462021364802F0EEFA314B93F891
:10529000AC30002B14BF01230023DBB21A461021CF
:1052A0002F4802F0E1FA2B4BB3F8A0202D4B1B68DE
:1052B0005A63284BB3F8A2202A4B1B689A632748ED
:1052C000FDF74AFF284B294A1A6000220021264890
:1052D000FDF706FB00BF264B00221A60254B1A780B
:1052E000254B1A70234B0E221A70244B1A78234B2D
:1052F0005B789A4212D1224B64221A70204B002212
:105300005A80204A0F21204809F05CFF4FF6FF73B6
:1053100006221E491E4805F0DAFD39E6174B5B7878
:10532000174A16499B000B445B681360134B5B786C
:105330000133124A927893FBF2F101FB02F29B1ABD
:10534000DAB20E4B5A70134A0F210F4809F03AFF98
:105350001EE600BF04000020A4020020E00400209C
:1053600000000240C4030020F4040020000040407C
:105370006005002034010020350100209404002045
:10538000C8040020D8FB0008CC040020E0FB000883
:105390000C040020E8FB000880B582B000AF786004
:1053A000C74B1B78013B632B00F2FD8201A252F830
:1053B00023F000BF4555000853550008615500080B
:1053C000615500086155000861550008355700080F
:1053D00043570008515700085F5700086D570008F1
:1053E0006D570008A7590008B7570008C5570008AF
:1053F000A7590008A7590008A7590008A75900088D
:10540000A7590008A7590008A7590008A75900087C
:10541000A7590008A7590008A7590008A75900086C
:10542000A7590008A7590008A7590008A75900085C
:10543000A7590008A7590008A7590008A75900084C
:10544000A7590008A7590008A7590008A75900083C
:10545000A7590008A7590008A7590008A75900082C
:10546000A7590008A7590008A7590008A75900081C
:10547000A7590008A7590008A7590008A75900080C
:10548000A7590008A7590008A7590008A7590008FC
:10549000A7590008A7590008A7590008A7590008EC
:1054A000A7590008A7590008A7590008A7590008DC
:1054B000A7590008A7590008A7590008A7590008CC
:1054C000A7590008A7590008A7590008A7590008BC
:1054D000A7590008A7590008A7590008A7590008AC
:1054E000A7590008A7590008A7590008A75900089C
:1054F000A7590008A7590008A7590008A75900088C
:10550000A7590008A7590008A7590008A75900087B
:10551000D3570008D3570008A7580008A758000819
:105520007D5900088B59000899590008A7590008AF
:10553000A7590008A7590008A7590008A75900084B
:10554000A75900085F4B00221A705D4B63221A7046
:105550002AE25C4B01221A70594B63221A7023E233
:10556000574B1B78584A1B0113440433D3ED007A80
:105570009FED567AF4EEC77AF1EE10FA02DD40F2B2
:1055800009131CE04E4B1B784F4A1B011344043394
:10559000D3ED007A9FED4E7AF4EEC77AF1EE10FA71
:1055A00001D546230BE0464B1B78474A1B011344A9
:1055B0000433D3ED007AFCEEE77A17EE903A454AD1
:1055C000126813644FF4967001F01AFA3C4B1B7882
:1055D0003D4A1B01134408331B683F4A1360384B94
:1055E0001B78394A1B0113440C331B78002B0CBF6A
:1055F00001230023DBB21A460421384802F034F9B3
:105600002F4B1B78304A1B0113440C331B78002BA3
:1056100014BF01230023DBB21A4608212F4802F0F1
:1056200023F9274B1B78284A1B0113440C331B78A2
:10563000002B0CBF01230023DBB21A462021274890
:1056400002F012F91E4B1B781F4A1B0113440C3346
:105650001B78002B14BF01230023DBB21A46102154
:105660001E4802F001F9164B1B78174A1B01134420
:105670001A881B4B1B685A63114B1B78124A1B017B
:10568000134402331A88164B1B689A63154B1A7819
:10569000144B5B789A422FD1094B64221A70084B45
:1056A00000225A80104A0F21104809F08BFD4FF656
:1056B000FF7306220E490F4805F009FC36E000BFD3
:1056C000C80400203401002004000020008084432E
:1056D00000008C42A4020020E004002000000240F0
:1056E000C403002094040020D8FB0008CC04002050
:1056F000E0FB00080C040020AD4B5B78AD4AAC49E0
:105700009B000B445B681360A94B5B780133A84A8C
:10571000927893FBF2F101FB02F29B1ADAB2A44BEE
:105720005A70A54A0F21A54809F04CFDA14B6322F0
:105730001A7039E1A24B02221A709E4B63221A7032
:1057400032E19F4B03221A709A4B63221A702BE1AD
:105750009B4B04221A70974B63221A7024E1984BDA
:1057600005221A70934B63221A701DE1914B1B782E
:105770000B2B05D0934B1B6840F209121A6403E00F
:10578000904B1B6846221A644FF4967001F038F96A
:10579000884B64221A70874B00225A808A4A0F2154
:1057A000864809F00FFD4FF6FF73062287498848A7
:1057B00005F08DFBF8E0824B09221A707D4B6322C5
:1057C0001A70F1E07E4B0A221A707A4B63221A702B
:1057D000EAE0002204217F4802F046F80122082175
:1057E0007C4802F041F8002220217A4802F03CF87F
:1057F00001221021774802F037F86E4B1B78582BA6
:105800001BD1704B1B685A221A644FF4967001F03A
:10581000F7F8684B5B8807EE903AF8EE677A6E4BC4
:10582000C3ED007A6D4B1B6840F235525A636B4BE7
:105830001B684FF4FA629A631CE0624B1B6840F2EB
:1058400009121A644FF4967001F0DAF8594B5B882C
:105850005B4207EE903AF8EEE77A5F4BC3ED007AD1
:105860005E4B1B684FF4FA625A635C4B1B6840F254
:1058700035529A634F4B63221A705748FDF76CFC00
:105880004C4B64221A704B4B00225A804E4A0F2117
:105890004A4809F097FC4FF6FF7306224B494C48E3
:1058A00005F015FB80E0434B1B785A2B05D1454B87
:1058B0001B6840F209121A6403E0424B1B6846223F
:1058C0001A644FF4967001F09BF8012204214148BC
:1058D00001F0CAFF002208213E4801F0C5FF012265
:1058E00020213C4801F0C0FF00221021394801F07E
:1058F000BBFF304B1B785A2B13D12E4B5B8807EE26
:10590000903AF8EE677A344BC3ED007A334B1B685C
:105910004FF4FA625A63314B1B6840F235529A6376
:1059200013E0244B5B885B4207EE903AF8EEE77A8F
:10593000294BC3ED007A294B1B6840F235525A635C
:10594000264B1B684FF4FA629A631A4B63221A7053
:105950002148FDF701FC174B64221A70154B0022F9
:105960005A80194A0F21154809F02CFC4FF6FF7395
:1059700006221649164805F0AAFA15E0104B0B222C
:105980001A700C4B63221A700EE00D4B0C221A7029
:10599000084B63221A7007E0094B0D221A70054B61
:1059A00063221A7000E000BF012006F0DBFBF7E481
:1059B00094040020C8040020E8FB0008CC04002068
:1059C00034010020A4020020D8FB0008E0FB0008FE
:1059D0000C04002000000240E0040020C40300206A
:1059E00080B582B000AF78602F4B1B78092B04D0B4
:1059F0004FF47A7006F0B6FB51E02C4B5B8807EE53
:105A0000903AF8EE677A2A4BC3ED007A02212848D3
:105A1000FDF74EFC274B1B6800225A63254B1B6881
:105A200000229A63204B1A78234B1A701E4B0E22C9
:105A30001A70224B00221A60214B1A78204B5B7897
:105A40009A4212D1194B64221A70184B00225A80C4
:105A50001C4A0F211C4809F0B5FB4FF6FF730622C4
:105A60001A491B4805F033FA19E0154B5B780F4AC9
:105A700013499B000B445B681360114B5B78013347
:105A80000F4A927893FBF2F101FB02F29B1ADAB211
:105A90000B4B5A700F4A0F210B4809F093FB012062
:105AA00006F060FBA0E700BF34010020C80400201E
:105AB000F4040020C403002035010020600500200C
:105AC00094040020D8FB0008CC040020E0FB000870
:105AD0000C040020E8FB000880B584B002AF7860B9
